:020000040000FA
:0600000002011D0221EFC8
:03002B00021AB006
:0300530002226224
:03006B00021A7EF8
:1000830002205BE5C754F84401F5C779012200005B
:100093000080FB120086B90003020107E47921788E
:1000A30008B800028004F709D8FCE479297802B87B
:1000B30000028004F709D8FCE490028178C979072B
:1000C3008002F0A3D8FCD9FA781A90014D7A01BACC
:1000D30000028007E493A3F608DAF9900949AA829B
:1000E300AB8390014E783B79048015E493A3AC82F3
:1000F300AD838A828B83F0A3AA82AB838C828D83A8
:10010300D8E9D9E77582497583A9740312012F755C
:100113008291758300740012012F75D00075813FA1
:10012300751881751902759F00020096C09FF59F8F
:10013300E473D09F22D083D082C09FE493C0E07445
:100143000193C0E0740293F59F2201FFFF020202B4
:10015300020202020202010D000000100102C88126
:10016300010000B68102C4810100004B0902F8813D
:100173000100009E0202C4810100004C0902F681C5
:10018300010000158102C4810100004D0902F481C0
:10019300010000F98002C4810100004E0902F281CE
:1001A300010000938002C4810100004F0902F08125
:1001B300010000818002C481010000500902EC812A
:1001C300010000A58002C481010000510902EA81F7
:1001D300010000B78002C481010000520902E681D8
:1001E300010000078102C481010000530902E48178
:1001F300010000540901E803053F100AFF00013024
:10020300750302010600000000000000000000006A
:1002130000000000000000000000000000000000DB
:1002230000FFFF0600800CE80314094C6162656C53
:100233002D56302E34204261743D302E3056051237
:1002430020032003020A000201050302F0FF5369A1
:100253006D706C6520424C4520506572697068650D
:1002630072616CEE070000F4070A43686172616310
:100273007465726973746963203100024368617243
:10028300616374657269737469632032000843683B
:1002930061726163746572697374696320330010FA
:1002A300436861726163746572697374696320344E
:1002B3000002436861726163746572697374696390
:1002C30020350002C881010000BC8102C481010005
:1002D30000670A02CC81030000740402C28101009A
:1002E30000680A02C481010000790A02CE8101007C
:1002F30000750402C2810100007A0A02C481010070
:10030300008B0A02D081020000760402C281010040
:10031300008C0A02C4810100009D0A02EE810000E4
:10032300007704022A81030000780402C2810100DD
:10033300009E0A02C481010000AF0A02D4810400B6
:10034300007E0402C281010000B00A104B657920CF
:1003530050726573732053746174650002C8810120
:100363000000B98102C481010000490B02DC810055
:1003730000008304022A81030000840402C2810175
:1003830000004A0BFF0000B40000280028002830BA
:1003930075A000A000A000A00000080008E001F084
:1003A300001000100010001000100010005000504A
:1003B30000500010001000D0070000000000000FE4
:1003C3000001000500307507001000010081FF00E7
:1003D300000000FF3A0A580A400AFF02020208021C
:1003E3005000A0000000E80302C881010000B381AF
:1003F30002C481010000D90B02D281010000BC04B8
:1004030002C481010000DA0B02D681010000D2048C
:1004130002C481010000DB0B02DE81010000D40471
:1004230002C481010000DC0B02E281080000D50454
:1004330002C481010000DD0B02E881010000DE0B34
:10044300FF0100FF2002C881010000BF8102C481B7
:10045300010000420C02FC810000000000022A811E
:1004630003000022051010101010101010101010AF
:10047300101010101010101010101010101010A4E5
:1004830012BC129E1212013898D802120138A2D857
:1004930002120138E0D80212013829D902120138B8
:1004A30063D902120138BDD902120138DED9021212
:1004B3000138E7D90212013834DA021201385DDA61
:1004C3000212013867DA02120138D3DA0212013854
:1004D30065DB02120138AFDB02120138E5DB0212E1
:1004E300013871DC02120138B2DC02120138E9DC96
:1004F30002120138FBDC021201381ADD0212013844
:1005030023DD02120138F0DD0212013829A30312A0
:100513000138CDFD0212013803FE0212013839FE03
:100523000212013884FF021201382DA80312013888
:1005330043A8031201384DA80312013897A80312E8
:100543000138937F00120138ABEC02120138C0EC82
:100553000212013870ED02120138B0ED02120138B7
:10056300C9ED0212013804EE0212013851EE0212F3
:10057300013883EE02120138C5EE02120138C6F0CB
:100583000212013838F10212013820A40312013893
:1005930049A40312013878A40312013890A403126A
:1005A3000138D2A403120138BB9003120138E09042
:1005B300031201380A9103120138A1A90312013869
:1005C300915B00120138F65D00120138975F00124B
:1005D30001384B6000120138DE600012013863619C
:1005E30000120138886100120138DE6400120138FC
:1005F300646500120138976600120138D166001253
:100603000138066700120138C668001201382369F1
:10061300001201386C6900120138D76900120138E1
:10062300486A001201387A6A00120138926A00128D
:100633000138DB6B00120138EB6B00120138066DD9
:1006430000120138286D001201385E6D0012013866
:10065300126F001201389F6F00120138DE6F001213
:100663000138027100120138CDA603120138DDA64C
:1006730003120138F7A90312013836AA031201380D
:10068300DCFF0212013817A50312013827A5031254
:1006930001383CA503120138F0A50312013825A245
:1006A30003120138AAA20312013810A3031201385E
:1006B300E39F031201380AA00312013860A003125A
:1006C300013872A003120138C2A00312013800A13D
:1006D3000312013803A10312013800800312013809
:1006E3001480031201388E800312013872810312C1
:1006F3000138498303120138AE8303120138F87FAE
:1007030000120138CC9503120138649703120138A3
:10071300C597031201380B98031201386D9B03121E
:100723000138BF9B03120138499C03120138B09C66
:1007330003120138879303120138B193031201386E
:100743007F94031201385A950312013853BB0212E6
:1007530001381ABC0212013851BC021201387BBCA9
:1007630002120138DBBC0212013831BD021201381A
:1007730096BD021201382EBE021201383DBF02128D
:100783000138D4C00212013861C102120138C8C154
:1007930002120138DFC102120138F9C20212013814
:1007A30037C30212013892E70112013813EB011229
:1007B30001389BEC01120138F2EC0112013811ED02
:1007C300011201388FED0112013825EF01120138B2
:1007D3000AF00112013818F401120138EEF4011283
:1007E300013832D2021201382DD50212013861D7F5
:1007F300021201380BD8021201385B870312013849
:10080300A08703120138BD870312013873880312CE
:100813000138C688031201389C8903120138B68A4D
:10082300031201380F9D03120138549D031201383E
:10083300D79D031201384F9E031201380E980312FD
:1008430001382598031201385698031201389198FC
:1008530003120138BB9803120138E59803120138DB
:10086300FC98031201381399031201382A990312D1
:1008730001385399031201386699031201387C99A0
:10088300031201388F9903120138B6990312013804
:1008930091F50112013895F601120138CDF60112D6
:1008A3000138F0F601120138FBF6011201381EF788
:1008B300011201382DF80112013802F90112013831
:1008C3007DF90112013805FA0112013840FA0112CB
:1008D300013877FA0112013805FB01120138DEFBFA
:1008E300011201383EFC0112013849FC01120138A2
:1008F300C8FC01120138CBFC01120138CEFC0112F5
:1009030001385DFD0112013860FD0112013890FDCF
:1009130001120138BAFD01120138A8FE0112013893
:100923005AFF0112013845E3021201386DE3021246
:1009330001389BE302120138D2E30212013830E49A
:10094300021201387BE402120138C6E402120138B4
:1009530006E5021201384CE5021201387AE502126B
:10096300013837E60212013841E6021201384EE639
:100973000212013881E6021201384DE702120138F2
:1009830059E70212013871E7021201387BE70212BC
:100993000138F6A50312013804A6031201381CA678
:1009A3000312013834A60312013872CA0112013846
:1009B3001ECB0112013899CB01120138BACC0112B6
:1009C3000138F6CC011201389FCD0112013886CED1
:1009D30001120138EACF0112013841D00112013866
:1009E300C2D001120138B2D101120138FFD1011274
:1009F300013885D201120138B7D201120138CBD4A4
:100A0300011201380DD5011201382BD5011201381D
:100A1300AED50112013882D6011201384AD701122C
:100A230001380FCB02120138E2CB021201388BCC12
:100A330002120138DECC021201388ECD02120138C7
:100A43001ACE0212013806CF0212013835CF021234
:100A5300013848D00212013890D00212013865D112
:100A630002120138A1D102120138BDD1021201389C
:100A7300C5A803120138C28303120138D8830312B5
:100A83000138FE83031201381A85031201382485C5
:100A930003120138598603120138518703120138B2
:100AA3001EDE021201384EDF0212013881DF02120C
:100AB3000138CBDF0212013892E10212013821AB77
:100AC300011201388BAB01120138EAAC0112013873
:100AD300FAAC0112013827AD011201387EAD0112C3
:100AE300013827AE011201382EAF01120138F8AFD9
:100AF3000112013858B1011201389BB101120138BA
:100B030040B2011201388DB201120138B3B20112A1
:100B13000138C1B401120138C6B401120138CBB691
:100B23000112013818B7011201388BB701120138CD
:100B3300BEB70112013860B80112013809B90112B8
:100B4300013841B90112013844B9011201388CB995
:100B530001120138CCB90112013823BA011201384C
:100B6300E88D03120138008E03120138488E0312F8
:100B730001385E8E03120138A58E03120138B98F36
:100B83000312013846900312013891900312013881
:100B93002829001201383429001201386F29001264
:100BA3000138B42900120138742A00120138FA2AD4
:100BB300001201385F2B001201388B2B0012013811
:100BC300C42B00120138022E00120138E62F001246
:100BD3000138CC31001201380F33001201385D3572
:100BE300001201386F3600120138BA37001201388B
:100BF300CA3800120138E7380012013822390012CE
:100C03000138443900120138A73900120138683E0F
:100C130000120138FD3E001201384E3F0012013828
:100C2300753F00120138C73F00120138E53F00123B
:100C330001383F40001201382841001201389E421A
:100C43000012013822430012013802E8021201386F
:100C53000CE8021201384FE8021201386AE8021266
:100C63000138FAE80212013822E9021201385FE979
:100C73000212013896E902120138BFE90212013863
:100C830034EA0212013849EA021201385EEA02121A
:100C930001388FEA02120138A3EA02120138C8EAC6
:100CA3000212013802EB021201382EEB0212013854
:100CB30066EB02120138E5EB021201382EEC021248
:100CC300013858EC0212013883EC021201380CA1EE
:100CD30003120138E99A02120138179B02120138F4
:100CE300659C02120138459D02120138649D02126F
:100CF3000138E19D02120138249E021201387A9FC5
:100D0300021201383BA002120138C2A202120138BA
:100D130063A30212013859A40212013856A5021224
:100D23000138B0A6021201383BA702120138889E8F
:100D330003120138F19E03120138459F0312013853
:100D43006C9F031201389D9F0312013845F1021273
:100D53000138B2F102120138F9F10212013811F32C
:100D6300021201380DF402120138F0F402120138B4
:100D7300EAB2021201382CB302120138FEB3021296
:100D83000138D7B402120138D1B502120138B3B613
:100D9300021201381CB702120138D2B7021201380D
:100DA30046B802120138B2B802120138DBB8021297
:100DB300013855B902120138EEB90212013853BA9B
:100DC3000212013868BA02120138AEBA02120138AF
:100DD300C7BA021201382CBB021201382FBB021210
:100DE3000138EF8A03120138178B03120138558B30
:100DF30003120138138C031201387A8C0312013861
:100E0300968C03120138BE8C03120138EE8C031248
:100E13000138FD8C031201387A8D03120138A08D3D
:100E23000312013810BB01120138EEBC0112013864
:100E330020BF011201385CBF0112013889BF0112C2
:100E4300013873C001120138BEC00112013809C153
:100E5300011201381BC1011201385BC101120138B3
:100E630090C101120138DEC1011201380DC2011215
:100E7300013830C2011201387DC20112013802C3A8
:100E8300011201381CC5011201385BC70112013878
:100E93009CC7011201383EC9011201387FC90112F2
:100EA3000138F2C90112013848CA01120138D48D40
:100EB30002120138D28E021201386B9502120138E8
:100EC3008C9702120138579902120138BF9A021205
:100ED300013889430012013838440012013865444F
:100EE30000120138AB4400120138EB4500120138FF
:100EF300814700120138FB470012013816480012DF
:100F03000138914800120138EB49001201384B4B6C
:100F130000120138514C00120138B24D0012013851
:100F2300CB4D00120138294E00120138174F001221
:100F330001384A4F00120138BA4F001201383450B9
:100F4300001201387E500012013848510012013856
:100F53001D5200120138FC5200120138875300124F
:100F63000138F553001201386954001201389454C2
:100F730000120138535500120138B85600120138D7
:100F8300D55600120138F45600120138E557001205
:100F930001380A5800120138345800120138AF588A
:100FA30000120138095900120138725A001201382F
:100FB300205B00120138615B0012013800800212CD
:100FC30001384E80021201385A80021201383881EA
:100FD300021201386981021201389A810212013822
:100FE3001A8202120138528202120138A4820212BA
:100FF3000138E18202120138FE840212013824878B
:10100300021201380F8902120138F98A02120138DB
:101013001D29001201380E97011201383E97011263
:101023000138179E011201389C9F0112013899A5BE
:101033000112013881A601120138BEA6011201383E
:10104300E1A60112013812A7011201381BA70112F0
:10105300013825A70112013813A80112013809A983
:1010630001120138FF8101120138FE850112013896
:101073000486011201383F8D011201385892011282
:101083000138FFF90212013895FA02120138ABFA5E
:101093000212013821FB0212013895FB02120138BA
:1010A300D3FB0212013847FC02120138C0FC0212C2
:1010B3000138C9FC02120138D5FC02120138EAFCDE
:1010C3000212013828FD021201383EFD02120138D6
:1010D3009DFD02120138B2F502120138BFF502126A
:1010E3000138D9F50212013818F60212013856F602
:1010F30002120138BBF602120138D0F6021201388F
:10110300DBF602120138E8F602120138FFF602128A
:1011130001380DF70212013818F70212013824F7CB
:101123000212013833F7021201383EF70212013876
:1011330061F70212013808F80212013818F8021296
:10114300013832F8021201384FF8021201386BF8F5
:101153000212013890F8021201389BF8021201388A
:10116300B0F802120138C4F80212013825F902124C
:1011730001382BF90212013831F90212013837F91B
:10118300021201384FF90212013882F902120138B2
:1011930068D901120138ECD9011201389BDA011226
:1011A3000138FADB011201381BDE0112013807DFB7
:1011B300011201383CDF011201385EDF01120138F0
:1011C3000DE00112013805E2011201382EE201128D
:1011D3000138C0E201120138F2E201120138FFE2E4
:1011E3000112013856E3011201387CE30112013880
:1011F300E9E501120138ECE60112013844E7011276
:101203000138277100120138317200120138187346
:10121300001201382273001201384473001201389E
:10122300507300120138E974001201381875001266
:1012330001383476001201388D7600120138F377C5
:1012430000120138D278001201382E7900120138C9
:101253009B7900120138D67900120138157A0012F1
:101263000138CE7C00120138E87C00120138747D0D
:1012730000120138827D00120138DB7D0012013833
:10128300E97D001201385C7E00120138C07E001235
:1012930001380A7F00120138BCA702120138DEA709
:1012A3000212013804AA0212013819AD02120138E0
:1012B30031AE02120138E4AE02120138C6AF021297
:1012C3000138C89903120138ED99031201385F9A66
:1012D3000312013895C3021201389EC3021201386A
:1012E300A7C3021201387EC4021201382FC60212AC
:1012F300013865C6021201389FC602120138D5C6ED
:10130300021201380FC70212013843C70212013813
:101313006FC702120138B8C702120138F2C70212AE
:1013230001383BC80212013893C802120138C8C8F9
:101333000212013823C9021201385DC902120138B1
:10134300AEC902120138E4C9021201381ECA0212E0
:1013530001384CCA021201386FCA0212013882A73F
:1013630003120138AEA70312013809A8031201388A
:1013730013A80312013823A803120138CBFF01126B
:101383000138BEFF02E066701008A3E066700A0829
:10139300A3E066700408A3E06622C3E7960809E7A2
:1013A300960809E7960809E79622C3E09608A3E0A2
:1013B3009608A3E09608A3E09622C008C3E096F53A
:1013C3000808A3E096420808A3E096420808A3E0B1
:1013D3009645087001D3D00822080808EAC0E0EB5C
:1013E300C0E086F0E7A4FA180986F0E7A42AFA1801
:1013F3000986F0E7A42AFA180986F0E7A42AFA195D
:1014030086F0E7A4FBE5F02AFA190886F0E7A42B97
:10141300FBE5F03AFA190886F0E7A42BFBE5F03A6E
:10142300FA18180986F0E7A4C5F02BFBE43AFA1979
:1014330008E7C5F0C6A426F6E5F03BFBE43AFA1844
:1014430086F0E7A4F6E5F00826F6E43B08F6E43A6E
:1014530008F6D0E0FBD0E0FA22E4CFC0E0E4CEC04F
:10146300E0E4CDC0E0E4CCC0E075F020C3E633F6A1
:1014730008E633F608E633F608E633F6181818ECF0
:1014830033FCED33FDEE33FEEF33FFC3EC9709ED91
:101493009709EE9709EF97191919400FFFEC97FC7D
:1014A30009ED97FD09EE97FE191906D5F0BEECF785
:1014B30009EDF709EEF709EFF7191919D0E0FCD098
:1014C300E0FDD0E0FED0E0FF226016080808C6C3A6
:1014D30013C618C613C618C613C618C613C6D5E056
:1014E300EA227009080808226016181818C6C333C0
:1014F300C608C633C608C633C608C633C6D5E0EA2F
:1015030022E627F60809E637F60809E637F608095A
:10151300E637F622E026F608A3E036F608A3E0361F
:10152300F608A3E036F622E026F008A3E036F0083A
:10153300A3E036F008A3E036F022C3E697F60809E5
:10154300E697F60809E697F60809E697F622C3E058
:1015530096F008A3E096F008A3E096F008A3E096BF
:10156300F022E657F60809E657F60809E657F608A3
:1015730009E657F622E056F608A3E056F608A3E07C
:1015830056F608A3E056F622E056F008A3E056F01C
:1015930008A3E056F008A3E056F022E0F608A3E023
:1015A300F608A3E0F608A3E0F622E6F008A3E6F0C7
:1015B30008A3E6F008A3E6F022E0FAA3E0FBA3E029
:1015C300FCA3E0FD22EAF0A3EBF0A3ECF0A3EDF023
:1015D30022CAC0E0E6F0A308DAFAD0E0FA22CAC0D1
:1015E300E0E0A3C582CCC582C583CDC583F0A3C586
:1015F30082CCC582C583CDC583DAE6D0E0CA22C3D7
:10160300E498F8E499F91216438026C3E49AFAE4BD
:101613009BFBE920E7E9121643E498F8E499F922E1
:10162300C3E498F8E499F9121643E498F8E499F9B5
:10163300C3E49AFAE49BFB22EB20E7CFE920E7E03F
:10164300B90010BB0008E88AF084F8AAF022E4FB92
:10165300C8FA22EB70227B10C833C8C933C9335090
:1016630007C39AC3DBF280069A50012ADBEAC83328
:10167300F4C8C933F4C9FA2275F008E4C833C8C9F9
:1016830033C933C99AC99B5004C92AC93BD5F0EC65
:10169300FBC833F4C8E4C9FA22600D08C6A2E713F5
:1016A300C618C613C6D5E0F322600C08C6C313C61A
:1016B30018C613C6D5E0F422700422600D18C6C301
:1016C30033C608C633C6D5E0F41822251810AF0870
:1016D300F518400215198008F51840021519D2AF04
:1016E30022C0D0251810AF08F5185002051980083C
:1016F300F51850020519D2AFD0D0222518F5821063
:10170300AF08F518400215198008F518400215199D
:10171300D2AF851983222518F582E43519F5832282
:10172300E4732518C582C0E0E51934FFC583C0E022
:10173300E518C3958224F810AF08858319858218AC
:101743008008858319858218D2AFCEF0A3E520F0F7
:10175300A37808E608F0A3DEFAEFF0A3E58124FA04
:10176300F8E608F0A3E608F0A3E608F0A30808E605
:1017730008F0A3E608F0A315811581D0E0FED0E0C0
:10178300F8158115811581E8C0E0EEC0E022251827
:10179300C582C0E0E51934FFC583C0E0E518C395F1
:1017A3008224F910AF088583198582188008858300
:1017B30019858218D2AFCEF0A3E520F0A37808E60E
:1017C30008F0A3DEFAEFF0A3E58124FBF8E608F0C6
:1017D300A3E608F0A30808E608F0A3E608F0A315BB
:1017E300811581D0E0FED0E0F815811581E8C0E0D5
:1017F300EEC0E022851983851882E0A3FEE0A3F5FD
:10180300207808E0A3F608DFFAE0A3FFE0A3C0E036
:10181300E0A3C0E0E0A3C0E0E0A3C0E0E0A3C0E039
:1018230010AF0885821885831980088582188583FF
:1018330019D2AFD083D082020135851983851882EE
:10184300E0A3FEE0A3F5207808E0A3F608DFFAE0C2
:10185300A3FFE0A3C0E0E0A3C0E0E0A3C0E0E0A3F7
:10186300C0E010AF08858218858319800885821827
:10187300858319D2AFD083D08222C0D02518C582E8
:10188300C0E0E51934FFC583C0E0E518C3958224A1
:10189300F310AF088583198582188008858319851D
:1018A3008218D2AFC8F0A3E9F0A3EAF0A3EBF0A348
:1018B3007908E709F0A3D8FAECF0A3EDF0A3EEF072
:1018C300A3EFF0A3D0E0F0A3D0E0F0A3D0E0F0A327
:1018D300E520F0A3E5F0F0A322851983851882E0C3
:1018E300C0E0A3E0F9A3E0FAA3E0FBA37808E0F6E5
:1018F30008A3DFFAE0FCA3E0FDA3E0FEA3E0FFA35F
:10190300E0C0E0A3E0C0E0A3E0F5D0A3E0F520A3AE
:10191300E0A3F5F010AF0885831985821880088548
:101923008319858218D2AFD082D083D0E0F8D0E07B
:101933003274048006740280027401C0E0F404125D
:1019430016FED0E01215D4227404800474028000C1
:10195300CCC0E0EDC0E0E518C39CCCAD1950011D2F
:1019630010AF068C188D1980068C188D19D2AF1202
:1019730015E1D0E0FDD0E0FC22D083D082E9C0E0C5
:10198300E493A3C386F0C5F095F0F908E493A38626
:10199300F0C5F095F0700BE493A3C3994005E904F7
:1019A3008002A3E475F002A42582F582E5F0358375
:1019B300F583D0E0F9E493A3C0E0E493C0E022D040
:1019C30083D082ECC0E0EDC0E0E493A3FCE493A3F6
:1019D300FDED4C600D121A0EEC24FFFCED34FFFDFF
:1019E30080EFE493A3FCE493A3FDED4C600D121A86
:1019F3004DEC24FFFCED34FFFD80EFD0E0FDD0E0A3
:101A0300FCE493A3C0E0E493C0E022C0E0C3E4930A
:101A130096087401939618400FE49366700808744F
:101A23000193661870007019A3A3C3E49396087416
:101A330001939618A3A3400DD0E0D0E0D0E00219A3
:101A4300FEA3A3A3A3A3A3D0E022C0E0C0F088F029
:101A5300E4936670080874019366187000A8F0A3F5
:101A6300A3700BD0F0D0E0D0E0D0E00219FEA3A326
:101A7300D0F0D0E022C2AF02000022C0E074F21224
:101A8300187DA2AFE433FED2AFE589A2E04006E5BC
:101A930089A2E150031206C8758900758900C2C581
:101AA300751A00EEA2E092AF7F010218DCC0E0C01D
:101AB300D0E8C0E0E9C0E0E5A8D2AFC2C7751A001C
:101AC300A2E7A2E792AFD0E0F9D0E0F8D0D0D0E01F
:101AD3003274F5121791EAFEEBFFEE2434F8EF347B
:101AE30000F988088909EE2435F582EF3400F5837F
:101AF300E0F8EE2437F582EF3400F583E0F50AECE5
:101B0300850AF0A4FCAAF0850AF0EDA42AFDE82CCE
:101B1300F8E43DF97A257B00121643EA85088285AD
:101B23000983F0F8740758F97401B900028004C3FB
:101B330033D9FCFAE8131313541FF8EE28F8EF34E3
:101B430000F9E8245DF582E93400F583E05A600882
:101B5300EE2434F582EF802CEE2434F582EF34004A
:101B6300F583E0C0E0EE2436F582EF3400F583E040
:101B7300F5F0D0E084A8F0EE28F8EF3400F9E8247B
:101B830038F582E93400F583E0F97F0402183D74E7
:101B9300F5121791EAFEEBFFEE2434F582EF3400E1
:101BA300F583E0C0E0EE2435F582EF3400F583D011
:101BB300E0F08E828F83A3A3A3A3A3A3A3C082C0B9
:101BC300838E828F83A3A3A3A3A3E0F8A3E0F9D01A
:101BD30083D082E0C398F508A3E099F509EE247F4A
:101BE300F582EF3400F583E064017069EE2480F53B
:101BF30082EF3400F583E0F8A3E0F98E828F83A3AC
:101C0300A3A3A3A3A3A3E0FCA3E0FD8E828F83A3DE
:101C1300A3A3A3A3E0FAA3E0FBC3EA9CEB9D5010AC
:101C2300C3EC98ED99402EC3EA98EB995027800EA8
:101C3300C3EA98EB994007C3EC98ED9940177CE50C
:101C43007D06EEFAEFFB120F6EEE247FF582EF3482
:101C530000F583E4F0EE2434F8EF3400F9E8FCE90E
:101C6300FDEE2435F582EF3400F583E0F8EE2437FA
:101C7300F582EF3400F583E0F50AE508850AF0A460
:101C8300F508AAF0850AF0E509A42AF509E825086C
:101C9300F8E43509F97A257B00121643EA8C828D24
:101CA30083F0F8740758F97401B900028004C33350
:101CB300D9FCFAE8131313541FF8EE28F8EF340095
:101CC300F9E8245DF582E93400F583E05A6008EE13
:101CD3002434F582EF802CEE2434F582EF3400F5C2
:101CE30083E0C0E0EE2436F582EF3400F583E0F5BF
:101CF300F0D0E084A8F0EE28F8EF3400F9E82438B7
:101D0300F582E93400F583E0F912290F021B8DC037
:101D130082C083851882851983E0F8A3E0F9C3EABA
:101D23009CEB9D5010C3EC98ED99401BC3EA98EBD4
:101D3300995014800EC3EA98EB994007C3EC98EDD1
:101D4300994004790180027900D083D08222EAC3CA
:101D53009CFAEB9DFB2274EF1217919005ABE064A4
:101D6300086005E06407702A9061C8E0602490056C
:101D7300D9E0F4601DE0F875F003A4C8AAF02AF9CD
:101D830074DB28FE740539FF8E828F83A3A3A3E03F
:101D93007003021E89906060E0C0E0EE2468F58263
:101DA300EF3400F583D0E0F0750C4E750D07750820
:101DB30000750900E5D914F50AE5D95403F50E6059
:101DC300177403650E605CE50A6010EE2467F58204
:101DD300EF3400F583E07003021E6E900749E06460
:101DE30001602AEE2482F582EF3400F583E060047B
:101DF300780480027800850A08E508C398FA95E01C
:101E0300FB120E368A088B09EA4509700512117216
:101E13008074EE2482F582EF3400F583E070048A47
:101E23000C8B0DE50A6012850C82850D83F50BE59D
:101E3300D9F0A3150BE50B70F6EE2482F582EF348F
:101E430000F583E0604474FC250AF50A780C121946
:101E530038AC0AA90EEEFAEFFB12100A740212163E
:101E6300E4E97026AA08AB09120722793D8E828F16
:101E730083A3A3A3A3E0FA7B00120D0AEEFAEFFB00
:101E8300120F8612101C790080747403650E60565D
:101E9300850A107511007810121938AC0CAD0DAA13
:101EA30008AB09120FE674021216E4EE2468F582F9
:101EB300EF3400F583E064807004747F8001E0F503
:101EC3000C780C12193CE50EF50C780C12193CA990
:101ED3000AAC08AD099005D9E0FA7B00120CCE7468
:101EE300021216E480139005ABE06408600BAC0C9F
:101EF300AD0DEEFAEFFB12107612117E79017F0A17
:101F030002183D74F512179174FC1216CEEAFEEB1B
:101F1300FF8908A2AFE433F509C2AF806AEE2463F8
:101F2300F8EF3400F97A007B00A2AFE433F50AC27C
:101F3300AF88828983E0FCA3E0FDEC4D603A8882A0
:101F43008983E0FAA3E0FB8A828B83E0FCA3E0FDB4
:101F530088828983ECF0A3EDF08A828B83E4F0A37B
:101F6300F088828983E0FCA3E0FDEC4D700A88824F
:101F73008983A3A3E4F0A3F0E50AA2E092AF1207DA
:101F8300229006ECE004F0EE2463F582EF3400F5D2
:101F930083E0F8A3E0F9E849603DEE2463F582EFBE
:101FA3003400F583E02402FAA3E03400FBEA2402C0
:101FB300F50AEB3400F50B780A1219388A828B8301
:101FC300E0FCA3E0F9EEFAEFFB120FAA740212167B
:101FD300E4E97003021F209006ECE060639006EDD5
:101FE300E0F89006ECE0C398500C7402650870505A
:101FF3009006EEE0604A8E828F83A3A3A3A3E085BD
:102003001882851983F0A3E4F09006ECE0F87402DB
:10201300121719E8F0A3E4F09006ECE0F89006EB51
:10202300E028F07402121719AC82AD8385188285FB
:102033001983AA82AB837901120CDA9006ECE4F0DF
:10204300E509A2E092AF74041216E4021B8D0000AE
:10205300008521878522C622C0E0C0D0E8C0E0E920
:10206300C0E0EAC0E0EBC0E0ECC0E0EDC0E0EEC0F1
:10207300E0C008C009C00AC00BC082C083C0F0A280
:10208300AFE433FEC2AF759B00906182E0A2E050E3
:1020930012E591A2E0500C7591FE74016521700365
:1020A300121D59E0A2E55051E591A2E5504B7591FF
:1020B300DF9005ABE064076005E0640870237401FA
:1020C3006521703579019005D9E0FA75F003A4CA4A
:1020D300A8F028FB74DB2AFA74053BFB121F068069
:1020E30018E0640D70139005CDE004F064287002CD
:1020F300E4F07A00E0F9121184906182E0A2E640F4
:10210300030221A2E591A2E640030221A27591BF39
:102113009005ABE0640570081210AC1210B8800390
:102123001210B2752100121112E99005ACF079007A
:10213300121106120EE47A017B009005AAE0F9124F
:1021430004E2907803E06442705590074DE014F088
:10215300704DC2AF12215A00782AD0E0F618D0E0B1
:10216300F6E59F540770057509FF800375097FC461
:10217300C0E07829E6F50808E65509F509740B78F7
:10218300081216ACD0E02508F8906270E0A2E74090
:10219300F8E8C333906272F0906270E0D2E0F0909E
:1021A3006181E0A2E35009E5E9A2E3500375E9F791
:1021B300A3E0A2E75009E591A2E7500375917FEEF2
:1021C300A2E092AFD0F0D083D082D00BD00AD00956
:1021D300D008D0E0FED0E0FDD0E0FCD0E0FBD0E0C2
:1021E300FAD0E0F9D0E0F8D0D0D0E032C0E0C0D0EF
:1021F300C082C083906183E0A2E05009E5BFA2E002
:10220300500375BFFEE0A2E15009E5BFA2E1500310
:1022130075BFFDE0A2E25009E5BFA2E2500375BF1E
:10222300FBE0A2E35009E5BFA2E3500375BFF7E06B
:10223300A2E45009E5BFA2E4500375BFEFE0A2E5B5
:102243005009E5BFA2E5500375BFDFE0A2E65009E0
:10225300E5BFA2E6500375BFBFD083D0828088C09C
:10226300E0C0D0E8C0E0E9C0E0EAC0E0EBC0E0ECE9
:10227300C0E0EDC0E0C0F0E5A7A2E6500FE5A1A2E3
:10228300E6500953A7BF75A1BF1222C7E5A7A2E570
:10229300500CE5A1A2E5500653A7DF75A1DFE5A722
:1022A300A2E15009E5A1A2E1500375A1FDE5A7A2B2
:1022B300E2500CE5A1A2E2500653A7FB75A1FBD0A7
:1022C300F00221D874F81217917521019005ABE043
:1022D3006406701512103A8A828B83A3A3A3A3A367
:1022E300A3E0FAA3E0FB12109AA2AFE433FED2AF4D
:1022F3009005B1E0640170187A207B009005AAE094
:10230300F912056C7A207B009005AAE0F91204E823
:10231300906182E0D2E6F090074AE0602185C62210
:1023230080169005B0E064017008E5C654F84405D2
:10233300F5C653BEFC1220547401652160E4EEA27D
:10234300E092AF7F0102183D008E238F24858228FF
:10235300858327851882851983E0CEA3E0CF85285E
:1023630082852783EBC9EAC8EDCBECCA75F010C3AD
:10237300E833C8E933C9EA33CAEB33CBC3EA9EF582
:1023830026EB9FF525B35004AB25AA26EC33CCED01
:1023930033CDD5F0DAAE23AF242274E9121791744A
:1023A300F81216CE851882851983ECF0A3EDF08A16
:1023B300088B099005ABE024F7C394055006750814
:1023C3000102253412103A8A0A8B0BAE0AAF0BEEC8
:1023D3004F7003022531AC08AD097402121719AA14
:1023E30082AB831210CA8E828F83A3A3750CFF75F1
:1023F3000DFF750EFF750F00780C1215787402121D
:1024030017197510FF7511FF7512FF7513007810FA
:10241300121578780C791012139D502A780C7910C4
:1024230012153D7508017509C8750A00750B00780A
:1024330008790C12139D5052850C08850D09850EE1
:102443000A850F0B80507514017515C87516007534
:10245300170085100885110985120A85130B780862
:10246300790C12153D7814790812139D401C7508D8
:1024730000750900750A00750B01780879101215AB
:102483003D7808790C121504800C75080175090054
:10249300750A00750B00740978081214E5750C1998
:1024A300F50DF50EF50F7808790C12145C8E828FFA
:1024B30083A3A3A3A3A3A3E0F8A3E0F97AD07B03A8
:1024C300121643880C890DE4F50EF50F7808790C84
:1024D3001215047406121719E0F8A3E0F97AD07BF9
:1024E30003121643E8FA8A0CE4F50D7808790C1206
:1024F300139D50077808790C12153D9005ABE064E5
:1025030008600AE064066005E06405702D750C0D33
:10251300780C790812139D4021750CF4750DFF7525
:102523000EFF750FFF7808790C121504800C7508DF
:1025330000750900750A00750B00851882851983DB
:10254300E0F8A3E0F583888278081215AD740812C9
:1025530016E47F1002183D74F71217911210DC90E5
:102563000748E064017010906245E4F0A3F053F46F
:10257300F343FE0C5390F3121088E5C6548044498C
:10258300F5C6E59E547F644970F8906185740FF039
:10259300900746E0F47002A3E0604E900747E060C6
:1025A3000814601B14602E804075080175090090A3
:1025B3000746E078081216BBE508F45280802A75B6
:1025C3000801750900900746E078081216BBE50874
:1025D300F452908014750801750900900746E0785D
:1025E300081216BBE508F452A079007F0202183DD9
:1025F30074F7121791E9FEEAFF74016E700C7A808A
:102603007B009005AAE0F91204E2902920E493F4F8
:102613006008E493F9120ED8800953C680E59E54EE
:102623007F70FA12108E900748E064017003120E57
:10263300F0900746E0F47002A3E0604B900747E098
:10264300600814601A14602C803D75080175090038
:10265300900746E078081216BBE50842808028758B
:102663000801750900900746E078081216BBE508D3
:1026730042908013750801750900900746E07808B9
:102683001216BBE50842A01210DC12103A8A088B1E
:1026930009A808A909E8496015E5E170FCE82414D4
:1026A300F582E93400F583E0F46003E0F5E17401B9
:1026B3006F700A7A019005AAE0F91205360225EE39
:1026C30074ED1217918A088B098C0A8D0B741312FF
:1026D3001719780C12159E7808790C12139D751032
:1026E300017511C875120075130050127808790C22
:1026F30012153D7810790812139D50168010780C2E
:10270300790812153D7810790C12139D4004790154
:10271300800279007F0C02183D74ED1217918A082C
:102723008B098C0A8D0B7413121719780C12159ED2
:10273300780C790812139D40117808790C12153D15
:10274300AA08AB09AC0AAD0B802275100075110005
:102753007512007513017810790C12153D781079F4
:1027630008121504AA10AB11AC12AD1380A68A820D
:102773008B837508FF7509FF750AFF750B007808D1
:1027830012158B7F0402183D74F51217918C828DFC
:1027930083780812159E8A828B837808121551EA72
:1027A3002404F8EB3400F98C828D83A3A3A3A3E064
:1027B300FCA3E0FD88828983C3E09CF0A3E09DF045
:1027C30088828983C3E09420A3E0944E40268A82C2
:1027D3008B837508FF7509FF750AFF750BFF780872
:1027E30012152A8A828B83A3A3A3A3E02420F0A338
:1027F300E0344EF002277174F5121791E9FE900749
:1028030000E0FAA3E0FBEEC333F8E433F974D9280C
:10281300F582748039F583E02AF508A3E03BF509D6
:1028230078081219387A407B427C0F7D0012234CC2
:1028330074021216E48A088B098C0A8D0B741078C3
:10284300081214CCAA08AB097F0402183D74F112D4
:1028530017918A0C8B0D8C0E8D0F740F121719E0C4
:10286300FAA3E0FB7411121719E0F508A3E0F509C8
:102873007808121938EA2401F508EB3400F509E465
:10288300F50AF50B780C79081213DC7508717509D4
:1028930002780C79081213DCAA0CAB0DAC0EAD0F49
:1028A30012234C74021216E48B09EA450960047A78
:1028B3000180027A00EC2AFCED3400FD7413121738
:1028C30019E0F8A3E0F9E8FEE9FFECF8EDF97A7115
:1028D3007B02121643880889098E828F8378081237
:1028E30015ADECF8EDF97A717B021216438A088B69
:1028F30009740578081216BB8E828F83A3A3A3A342
:10290300E508F0A3E509F07F0802183DC082C08303
:10291300E9906000F0D083D08222020135FFFFFFEF
:10292300FFFFFFFFFFC082C083E9900C41F0022B41
:10293300B774F7121725E99004EAF07C227D057A33
:10294300FF7BFF120C209004EB74FFF0A3F0A3E4D1
:10295300F0A3F07905120BA89004EAE0F9120ACA71
:102963007A3E7B0C120DE87F010217F774F41217FD
:10297300258A088B09EB548060309004EAE0F91251
:1029830004CA8A0A8B0BAE0AAF0BEE4F60138E821A
:102993008F83E064B07003120BC0EEFAEFFB1204F6
:1029A300B8AA08E5096480FB80047A007B00022B47
:1029B3008674F212172574FC1216CEEAFEEBFFEEB4
:1029C3004F60387402121719EEF0A3EF122DEBECDF
:1029D300F0A3ED122DEBAA82AB83120AC4E9F5082A
:1029E3007073741212171912399FE50A450B60654B
:1029F3008E828F83122A62EE4F700575080280550E
:102A03007A067B0012051E8A0C8B0DA80CA90DE813
:102A1300497005750813803D88828983E4122A6C06
:102A2300A3A3EEF0A3EF123E38E50AF0A3E50BF003
:102A33009004F0122AF49004F06017E0FCA3E08005
:102A430003EAFCEBFD8C828D83122AF470F38C82F3
:102A53008D831238C4A90874041216E402403AA301
:102A6300A3A3A3E0FEA3E0FF22F0A3F0888289835F
:102A73002274F2121725890AE975F017A4FEAFF044
:102A83009004EFE4F09004ED122AF4600A12052496
:102A93009004EDE4F0A3F0EEFAEFFB12051E8A08B2
:102AA3008B09EA4509602FEEFCEFFD79001204A6BD
:102AB3009004EDE508F0A3E509F07B008008122AF5
:102AC300DEE4F0A3F00BEBC3950A40F2E50A9004B1
:102AD300EFF079008002791302403AEB75F017A406
:102AE300F8A9F09004EDE028FAA3E0398A82F5838F
:102AF3002212365AEA4B2274F41217257508007510
:102B03000900740C121719123E0CFEE9FF800CE544
:102B1300082401F508E5093400F509C3E5089CE537
:102B2300099D503285080A85090B7403780A121629
:102B3300BBEA250AF8EB350BF988828983A3A3A3A3
:102B4300A3A3A312399FEE650A7003EF650B70BF51
:102B5300E8FAE9FB80047A007B00802774F41217FB
:102B6300257900EAA2E0501B7508447509817808AD
:102B73001219387C047D007A437B0C120BA2740279
:102B83001216E47F040217F7C082C0839004F01288
:102B93002BBE601C88828983A3A3E06A7003A3E031
:102BA3006B8882898370E8A3A3A3A312365680049B
:102BB3007A007B00D083D08202013512410DE849AF
:102BC3002274EE12172574FC1216CEEAFEEBFF8573
:102BD3001882851983E4F0A3F0EE24021238A8EEDC
:102BE3002405122DD9EE2404F50EEF1231BEE02494
:102BF300FE603924FC604624FE605224FE605E249D
:102C0300FE7003022CDE24FE7003022D5624FE7098
:102C130003022D6524FE7003022D7424FC7003024D
:102C23002D8324FE7003022D92022DCF900509748B
:102C330017F0A3E4122DF3120842022DCF85188258
:102C4300851983AC82AD83120BC6022D9F85188232
:102C5300851983AC82AD83120BCC022D9F850C08A2
:102C6300850D097402121719AC82AD83850882851C
:102C73000983123656120AE88A0C8B0DAC0CAD0D83
:102C8300EC4D6042E4F50CF50D780C121938750C17
:102C930009750D05780C121938750C0A750D057830
:102CA3000C121938740812171912194F79161236A3
:102CB30050120C0874081216E4E9F50C700B123666
:102CC3004C12085A800F750C0185088285098312FE
:102CD3002DE11238C4850C08022DA27402121719B3
:102CE300AC82AD83850C82850D83123656120AE8B9
:102CF3008A108B11AC10AD11EC4D6043850C8285AD
:102D03000D83A3A312194F751009751105781012BD
:102D1300193875100A7511057810121938740812CC
:102D2300171912194F7916123650120C087408121B
:102D330016E4E9F509700B12364C120860800F7522
:102D43000901850C82850D83122DE11238C4850992
:102D530008804C851882851983AC82AD83120BD20F
:102D6300803A851882851983AC82AD83120BD88093
:102D73002B851882851983AC82AD83120BDE801CF0
:102D8300851882851983AC82AD83120BE4800D858F
:102D93001882851983AC82AD83120BEAE9F508E545
:102DA3000860298E828F83A3E06414601F850E82DE
:102DB300850F83E0900509122DEB12410990050A56
:102DC3001238C4E508A3122DF312083CEEFAEFFB08
:102DD300120B660237B0F50CEF3400F50D221241E9
:102DE3000D85188285198322F0851882851983221F
:102DF300F07C097D05850A82850B8312365A22747D
:102E0300EE12172574FC1216CE8A0A8B0B8C0E8DCC
:102E13000FEA2405F508EB3400F5097C157D0079EC
:102E2300007A097B051204A6E5082402F50CE509DE
:102E3300122DDC851882851983858210858311788C
:102E430010121938850882850983A3A3A3A312331B
:102E530006121938E5082405F510E5093400F511C3
:102E63007810121938850C82850D83123660120A88
:102E7300E274061216E48A108B11AE10AF11E50A44
:102E83002402F50AE50B1238ABEE4F7003022FC88C
:102E93008017740212171912365688828983EAF052
:102EA300A3EBF0900509E004F0900509E0C3940555
:102EB3004003022FC8E4F510F51178101219387584
:102EC30010F275110478101219387510F375110486
:102ED3007810121938740612171912194F7910EE57
:102EE300FCEFFD123650120C0874081216E4E97058
:102EF3005E850882850983A3A3A3A3A3A3A3E0F804
:102F03009004F2E06870481233061219387CF37D9E
:102F130004E5082408FAE5093400FB1204A074024E
:102F23001216E4E960298E828F83A3A3A3A312362A
:102F330056900509E0F510740278101216BB740A56
:102F43002510F58274053511F583EAF0A3EBF074CF
:102F5300021217198582108583117810121938749B
:102F63000212171912194F850C82850D8312411E07
:102F7300120AEE74041216E48A108B11AE10AF110C
:102F8300900509E0F510751100740278101216BB54
:102F930074092510F874053511F988828983A31201
:102FA3002AF47003022E8CE82403F8E93400F9EEC6
:102FB3004F6003022E958882898374FFF0A3F090FB
:102FC3000509E004F0900509E0600A12364C120886
:102FD3004E7900800B8508828509831238BB790AF4
:102FE3000237B074EA12172574FE1216CE8C128DB6
:102FF30013EA2405F50CEB124288122A66750800C1
:10300300750900EA2402F510EB3400F511851882E6
:1030130085198385820A85830B780A121938850CF2
:1030230082850D83A3A3A3A31231C8121938E50C1B
:103033002405F50AE50D1238AB780A121938850C08
:1030430082850D8312411C120AE274061216E48A69
:103053000A8B0BEA450B7003023179EA2404F50E5F
:10306300EB1231BE122A668A828B83A3A3A3E0F9F3
:10307300851082851183123656120AD0E9F509604C
:1030830003023179E4F514F515781412193875141F
:10309300F275150478141219387514F3751504783C
:1030A30014121938740612171912194F7913AC0A2E
:1030B300AD0B851082851183123656120C087408E5
:1030C3001216E4E9F50960030231799004F2E0F89D
:1030D300E5087009E0240290050AF0801790050ABC
:1030E300E0FCE82402FAE43400FBEA6C7001EB60D4
:1030F3000302317D850882AA821232FD94141232B2
:10310300F55073850E82850F83E0C0E0740B2A129D
:1031130031B5D0E0F00508850E82850F83A3E0C0AA
:10312300E085080A740B250A1231B5D0E0F00508D2
:103133009004F21231C81219387CF37D0485080A11
:10314300740B250AFA74053400FB12048E74021200
:1031530016E49004F2E02508F50874FF6E7003741A
:10316300FF6F6012EE24010EEF3400FFE508C394F5
:10317300145003023010E5086013123541851082A4
:1031830085118312365612085479008014E50970AC
:103193000375090A851282851383EEF0A3EFF0A964
:1031A3000974021216E47F0E0217F785080C740BDC
:1031B300250CF58274053400F583223400F50F8560
:1031C3000E82F58322123E4B2274EE12172574FEF3
:1031D3001216CE8C0E8D0FEA2405F50CEB122DDCA6
:1031E300750B00900509E4F0F50AEA2402F508EBF3
:1031F3003400F5098049900509E0FA9004F2E0F8FB
:103203001232FD94171232F5400D900509E0F8745F
:1032130016C3989004F2F01233061219387CF37D2A
:1032230004740A2AFA74053400FB12048E74021221
:1032330016E49004F2E0F8900509E028F0050AE5A9
:103243000C2416F582E50D1231B9E0F8E50AC398AE
:1032530040030232DE900509E0C39416507DE50A6F
:10326300C333F8E433F9E50C28FEE50D39FF85187F
:1032730082851983AC82AD838E828F831236561278
:103283000AE88A108B11AC10AD11EC4D7005750B6B
:10329300018043E4F510F51178101219387510F216
:1032A30075110478101219387510F375110478101C
:1032B300121938740612171912194F7916850882D4
:1032C300850983123656120C0874081216E4E9F5C0
:1032D3000B70030231F91238B780107C097D058524
:1032E3000882850983123656120866A90B740202F6
:1032F30037B2E99400C365D03322EA28F8E43400F6
:10330300F9E822E0F51075110078102274EA12171B
:103313002574FC1216CE8A0C8B0D8C128D13EA24A5
:1033230005F50AEB1238AB750800750900E50A24A8
:1033330002F510E50B3400F511740212171985829A
:103343000E85830F780E121938850A82850B83A3A5
:10335300A3A3A3123DF7121938E50A2405F50EE5D8
:103363000B3400F50F780E121938851082851183FE
:103373001238B1123650120AE274061216E48A0E9B
:103383008B0FAE0EAF0FE50C2402F50EE50D3400E6
:10339300F50F80408882898374FFF005081231AEEF
:1033A30074FFF005089004F2E0F50C750D00780C3D
:1033B3001219387CF37D0485080C740B250CFA7400
:1033C300053400FB12048E74021216E49004F2E03A
:1033D3002508F508EE4F60718E828F83A3A3A3E0C7
:1033E300F9850E82850F83123656120AD0E9F50944
:1033F300EE2404122DD9E97044E4F514F51578147C
:103403001219387514F275150478141219387514D5
:10341300F375150478141219387408121719121950
:103423004F7911EEFCEFFD850E82850F8312365620
:10343300120C0874081216E4E9F5096027850C825A
:10344300850D831235371238C4E508700302351D24
:10345300123541850E82850F8312365612086C7918
:1034630000023532850882AA82EA9004F27009E0EC
:10347300240490050AF08022E0F890050AE0F51490
:10348300E82404FCE43400FDEC65147001ED70C025
:103493001232FD94121232F550B6850C82850D83DB
:1034A300E0C0E0740B2A1231B5D0E0F00508850CBA
:1034B30082850D83A3E0C0E01231AED0E012355314
:1034C30085820C85830D780C121938740412171930
:1034D30012194F85108285118312411E120AEE7450
:1034E300041216E48A0C8B0DAE0CAF0D85080C7418
:1034F3000B250CF874053400F9EE4F700302339773
:10350300851882851983E088828983123553A3E065
:10351300C0E01231AED0E00233A5E50970037509AE
:103523000A850A82850B831235371238C4A90974B8
:10353300040231A612410D85128285138322900560
:103543000AE0F5F0E50884900509F07C097D052281
:10355300F005088518828519832274EC12172574E7
:10356300FE1216CE8A088B098C0E8D0FEA2405FEF7
:10357300EB3400FF851882851983AC82AD838E827C
:103583008F83123656120AE88A0A8B0BEE2418121E
:103593002DD9EA450B70030236271237995032852D
:1035A3001882851983123656120BFC8A108B11EA86
:1035B3004511606B7912AC0AAD0B850882850983CE
:1035C300123656851082851183121723E9F50A7086
:1035D30058E4F50AF50B780A1219388E828F83A303
:1035E300A3E0F50A780A121938EE24031238A878F2
:1035F3000A1219388E828F83123660120C0E7406EB
:103603001216E4E9F50A7021850C82850D83E070BA
:103613001F85088285098312365612087280117538
:103623000A0E8009750A018004E50A60031238B79F
:10363300850C82850D83E0600479008002A90A74F9
:10364300021216E47F0C0217F77C097D05850A82B6
:10365300850B8312365A22E0FAA3E0FB22E0FCA397
:10366300E0FD85088285098312365A2274EE12170B
:103673002574FE1216CE8A088B098C0C8D0DEA2454
:1036830005FEEB3400FF750E00851882851983ACA7
:1036930082AD838E828F83123656120AE88A0A8B92
:1036A3000BEA450B7003023785123799503585189D
:1036B30082851983123656120BFC8A0E8B0FEA454C
:1036C3000F605E7912AC0AAD0B85088285098312FF
:1036D3003656850E82850F83121723E9F50E600394
:1036E30002378885088285098312399FAA0AFB124B
:1036F3000BF08A108B11A810A911E849701E7AFFEC
:103703007BFF120BF08A108B11A810A911E84960F6
:103713006C88828983E50AF0A3E50BF0750A0080C3
:1037230007750E0E805F050A9004EFE0FAE50AC301
:103733009A504AE50A75F017A4FAABF08882898398
:10374300A3A3E02AFAA3E03BFB8A828B831238B15E
:10375300EC4D70D2750A17750B00780A121938EE02
:10376300FCEFFD12048E74021216E4EEFCEFFD85ED
:1037730008828509831236561208788014750E095B
:103783008003750E01124105850C82850D83123865
:10379300C4A90E0232F0E5082402F508E509340055
:1037A300F5098A828B83A3A3A3E0A2E52274041202
:1037B30016E47F0A0217F774EC1217258C108D118B
:1037C300EA2405F50CEB122DDC750F00EA2402F553
:1037D3000AEB1238AB850A82F583123656120BF0C8
:1037E3008A088B09EA4509700302389D750E00802B
:1037F30071850C82850D83E06401704F8E828F8307
:10380300A3A312194F8E828F83A3A3A3A3E0F51260
:103813007513007812121938EE2405F512EF3400EF
:10382300F5137812121938123650120C0E74061250
:1038330016E4E9F50F6014850C82850D83E4F0121C
:1038430041058510828511831238C47C177D007968
:1038530000EEFAEFFB1204A68E828F83E4F0A3F04E
:10386300050E9004EFE0F8E50EC398501EE50E75C3
:10387300F017A4F8A9F0850882850983A3A312424F
:10388300921238B1EC4D60030237F4850882850942
:103893008374FFF0A3F0E50F700612365012087E12
:1038A300A90F023647F50AEF3400F50B22A3E0FC1B
:1038B300A3E0FD228E828F8312410D850E82850F38
:1038C30083E8F0A3E9F022C082C0839004EBE06AAE
:1038D3007003A3E06B70067AEB7B0480047A007BB1
:1038E30000022BB7C082C08378008C828D83E06A8C
:1038F3007003A3E06B7010E875F003A4F8A9F0EC73
:1039030028FAED39FB8015088C828D83A3A3A3E0ED
:103913006A7003A3E06B60DF7A007B00022BB7744D
:10392300F6121725120BBA8A828B83E582458370C0
:10393300067A007B008007A3A3A3A3123656023F97
:10394300B674F2121725E9FE740E12171912399F75
:103953007410121719123E178C828D83E064027063
:1039630036A3124113F50CA3E0F9A80C7402687096
:10397300037429697021750C02750D00780C1219F6
:10398300387808121938780A121938EEF9120C32FD
:1039930074061216E48002790102403AE0F50AA3A4
:1039A300E0F50B2274E812172574FB1216CEE98595
:1039B3001882851983F08A168B17ECFEEDFF7510BC
:1039C30000741D121719124109741D1217191238A8
:1039D300C48E828F83A3A3A3E0A2E4502D741D128F
:1039E3001719123656120BFC8A828B83E5824583A4
:1039F3007003023DE8790AEEFCEFFDAA16AB17123D
:103A03001723E9F5106003023DEB741F1217191217
:103A13003E17742112171912399F7423121719E0D4
:103A2300F50EA3E0F50F8E828F83E064026003023C
:103A33003D96A3124109850882850983A3858212D5
:103A4300858313EE2406122DD988828983E0FAA395
:103A5300E0F9EA2400F514E439F51578141219C2D3
:103A63000100002801288B3A07000228503B032855
:103A7300BD3A0029873C0129B23C0229533C032962
:103A8300873C0429313D963DE50E450F6003023D19
:103A930091850C82850D83123E0CFAE9FB8A828B99
:103AA30083E0850A82850B83123E421219388A828B
:103AB3008B83A3E0FCA3E0023D1BE50E450F6003EF
:103AC300023D91850A82850B837401F0123E1F85A6
:103AD3000882850983F07C007D008E828F83A3A3F7
:103AE300A3A3E02401FAA3E03400FB120AE8EA4BA3
:103AF30060418A828B83E02402F8850A82850B83E6
:103B0300E028F0EA2404F8EB3400F988828983E0A2
:103B1300851282851383123E54123E421219388A4B
:103B2300828B831238B0E5082403FAE5093400FBDD
:103B3300023D20850A82850B83E02404F07C047D0A
:103B4300007900AA12AB131204A6023DEBE50E4561
:103B53000F6003023D91123E1FFEA3E0FF850A8220
:103B6300850B837404F0EE850882850983F0EF8565
:103B73001282851383F07403121719AC82AD83EE9E
:103B8300FAEFFB120AE88A0C8B0DEA450D7003026B
:103B93003C348A828B83A3A3122A627401121719FD
:103BA30085820E85830F780E121938740512171942
:103BB30012194F7CFF7DFF120AEE74041216E48B78
:103BC3000FEA450F7033850C82850D83123DF71282
:103BD3001938850C82850D83A312194F7C027D0051
:103BE3007AC67B8112091A74041216E4E9700A7406
:103BF3000112171974FFF0A3F08E828F83E0640221
:103C03007039750C02750D00780C1219388E828F7D
:103C1300831238B0E5082404FAE5093400FB1204E2
:103C23008E74021216E4850A82850B83E0240280D7
:103C3300097401121719EEF0A3EFF07401121719AA
:103C4300123E08F07401121719A3123E00023D8BB5
:103C5300E50E450F6003023D91850C82850D8312AD
:103C630038B1AA16AB17120C26850A82850B83740A
:103C730002F0EA850882850983F085128285138321
:103C8300EB023D8EE50E450F6003023D91123E1F90
:103C9300F8A3E0F9850A82850B837402F0E88508AE
:103CA30082850983F0E9851282851383023D8E851F
:103CB3000C82850D83123656120488EAFC8C82A886
:103CC30082C3950EE4950F405FE8650E7002E50F21
:103CD30070047C008022851882851983E0FAE50E42
:103CE3002AFAE50F3400FBC3EA98EB94005003E093
:103CF3008005E50ECCC39CFCEC850A82850B83F022
:103D03008C0A750B00780A121938850C82850D838D
:103D1300E0250EFCA3E0350FFDAA08AB0912048EC3
:103D230074021216E4023DEB751007023DEBE50E3B
:103D3300450F705A850C82850D83124109850A82CD
:103D4300850B837407122A6E123E00122A6EA3E0BB
:103D5300851282851383F0E82402FAE93400FB8A92
:103D6300828B83123E00123E2F123E08A3123E386E
:103D7300123E11F0E82405F8E93400F988828983BA
:103D8300123E11A3123E54A3A3A3A3F0805A7510AD
:103D93000B8055741D121719123656120BBA8A82EC
:103DA3008B83E5824583603D124109880C890DE8C8
:103DB300450D6031780E121938780A1219387808CF
:103DC3001219387406121719E0F9EEFCEFFDAA1662
:103DD300AB17850C82850D8312172374061216E424
:103DE300E9F510800375100EA91074051216E47F0F
:103DF300100217F7E0F50E750F00780E22E0850824
:103E03008285098322123E5E2212410DE822123E70
:103E13005EA3A322E0F508A3E0F50922850C8285C1
:103E23000D83E0F8A3E0F5838882E022A3A3F08A60
:103E3300828B83A322F088828983A3A3A3A322F086
:103E43008A828B83123E4B22E0F50A750B00780AB7
:103E530022F088828983A3123E5E22E08508828550
:103E63000983A3A32274EE12172574FE1216CE8AB9
:103E73000A8B0BECFAEDFB7414121719E0F510A37F
:103E8300E0F5117416121719E0FE7418121719E0F1
:103E9300F50EA3E0F50F851882851983AC82AD83F7
:103EA300120AE88A0C8B0DEA450D60498518828554
:103EB3001983123656120BBA8A828B83E5824583A5
:103EC300602FA3A3123E17E50845096024780E125C
:103ED30019387810121938EEF9AC0CAD0DAA0AABEB
:103EE3000B85088285098312172374041216E48054
:103EF30006790E800279010232F074F612172574E6
:103F0300FE1216CE740C121719123E0C85188285F8
:103F13001983F07401121719E9F0E4F508F509782B
:103F23000812193875080278081219387404121720
:103F3300198582088583097808121938120C0E74C2
:103F4300061216E474021216E4806874F712172539
:103F5300EAFEEBFF89087C227D05120C26EA540257
:103F6300600BA908EEFAEFFB120ADC80027901026A
:103F7300296A74F612172574FF6A700374FF6B7055
:103F8300168C828D83123FBBE4F08C828D83A3A3B6
:103F9300A3123FBBA38018120BF68A088B09A8084B
:103FA300A909E849600D8882898374FF122A6CA3EA
:103FB300A3E4F07F020217F774FFF0A3F08C828D65
:103FC30083A3A32274F6121725120BF68A828B831E
:103FD300E58245836006A3A3E0FA80027A007B00B2
:103FE30080D174F21217258A088B09ECFEEDFF7459
:103FF3000E121719E0F50A120BF68A0C8B0DA80C9A
:10400300A90DE8497026EEFCEFFD7AFF7BFF120B4A
:10401300F68A0C8B0DA80CA90DE849700479118060
:104023001688828983E508F0A3E509F088828983ED
:10403300A3A3E50AF079007F060217F774EE1217BF
:1040430025EAFEEBFF8C088D09890C7414121719ED
:104053001241097416121719123656750D00E849E4
:1040630060030240FD7402650C60030240F87412A1
:10407300121719124113FCA3E0F9EC2400F50EE426
:1040830039F50FEAF4F8EBF4F9EC58F8E50F59F9C0
:10409300E849705CE5082406F8ED3400F9880A89DC
:1040A3000B8882F58312411E120C268A108B11E5B0
:1040B3000E65107004E50F65116042780E12193811
:1040C300850A82850B8312411E120C2C7402121670
:1040D300E4E9F50D7027780E1219388508828509F1
:1040E30083A3A312411C120C4474021216E4800D24
:1040F300750D808008750D0D8003750D0BA90D02DC
:1041030037B58E828F8312410D22E0F8A3E0F922A6
:1041130012410D88828983E022A3A3E0FCA3E0FD82
:10412300EEFAEFFB2274E812172574E71216CE8518
:104133001882851983EAF0A3EBF08C168D17890E8C
:104143007508007509007431121719E0F512A3E020
:10415300F5137433121719E0F514A3E0F51574354C
:10416300121719E0F50FE50975F003A4F8A9F08516
:104173001882851983124292E0F47003A3E0F4706D
:1041830003024275EE2402F50CEF124288E070033D
:1041930002427585160A85170B780A121938AC1472
:1041A300AD15AA12AB13120BAE74021216E48A0AEF
:1041B3008B0BEA450B7003024275E4F510F5117899
:1041C3001012193874061217198582108583117815
:1041D3001012193874091217198582108583117802
:1041E30010121938851282851383A3A3A3A312196E
:1041F3004F7914AC0AAD0B8E828F83123656120C94
:104203000874081216E4E97069850A82850B83A392
:10421300A3A3A312410974021217191238C4850CFF
:1042230082850D83E0A2E05018A90E7402121719BB
:10423300AC82AD838E828F83123656120B00E94215
:1042430008850C82850D83E0A2E15026E50FF50A6F
:10425300780A12193CA90E7403121719AC82AD83A4
:104263008E828F83123656120AFA74011216E4E90B
:1042730042080509E509C394025003024169A908EC
:104283007419023DEF3400F50D850C82F58322E0AD
:1042930028FEA3E039FF8E828F832274F212172542
:1042A300EAFEEBFF890B7401650B600E7402650B6C
:1042B300706A7901120E06E97062EEFAEFFB120BD7
:1042C300F08A088B09EA45096047750A00800B7C70
:1042D300177D0079001204A6050A9004EFE0F8E5C3
:1042E3000AC3985021E50A75F017A4F8A9F08508C8
:1042F30082850983A3A3E028FAA3E039FB8A828B92
:1043030083122BBE70C985088285098374FFF0A3CD
:10431300F07C227D05EEFAEFFB120C2002403A748A
:10432300F21217258A088B09ECFEEDFF740E1217A3
:104333001912399F900C41E0F4603D7A097B001219
:1043430004B2EA4B60328A828B8374B1F0A3E41225
:104353003E31A3123E2FA3E508F0A3E50912437EE5
:10436300EEF0A3EF12437EA3A3E50AF0A3E50BF05F
:10437300900C41E0F91204BE02403AF08A828B832A
:10438300A3A3A3A3A322C082C0839061907404F06B
:10439300A37448F0A37402F09061807440F09061BC
:1043A300BC7403F09061877419F0906265741BF01C
:1043B300906249E0C3941390619C400A7409F090A1
:1043C300606674018007740DF0906066E4F090619C
:1043D3009A7433F0A37455F09061A0743AF0900787
:1043E30048E064017009C2919005AF74678005903D
:1043F30005AF7461F0902926E493906186F09029CB
:1044030020E493F46027E493540FF8906185E06807
:104413006012E5C654804449F5C6E59E547F64495D
:1044230070F8E8F053C680E59E547F70FA79051260
:1044330011660245E4C082C083E9540FF990618597
:10444300E0696012E5C654804449F5C6E59E547F91
:10445300644970F8E9F053C680E59E547F70FA0210
:1044630045E4C082C083E5A8F853A87E906181E447
:10447300F0A3F0A3F0C2BA539AFEC289759B00C29F
:10448300C275E90075910075BF0075A91175B9056D
:10449300906181F0A374C0F0A3E4F0D2BA439A010F
:1044A30074805842A80245E4C082C08374F812168F
:1044B300CE9005ADE0F8A3E0F9E84970030245D9D1
:1044C3009005ADE0544060237908851882851983EF
:1044D300AA82AB83120FC8851882851983AA82AB7F
:1044E30083120CB69005ADE054BFF0E05480601029
:1044F300790C7A6E7B07120FC89005ADE0547FF0FC
:10450300E0A2E0503190619A7433F0A37455F090B7
:1045130061A0743AF0900748E064017009C2919079
:1045230005AF746780059005AF7461F0120CBC9001
:1045330005ADE054FEF0E05402603190619A743F9F
:10454300F0A3745AF09061A0747FF0900748E06480
:10455300017009D2919005AF747180059005AF7415
:104563006AF0120CBC9005ADE054FDF0E054046019
:1045730013902924E493906186F0120CC29005AD48
:10458300E054FBF0E054086013902925E493906114
:1045930086F0120CC29005ADE054F7F0E0541060C1
:1045A30013902926E493906186F0120CC29005AD16
:1045B300E054EFF0E05420600A120CC29005ADE025
:1045C30054DFF0A3E05401600D120EF0120CC890FA
:1045D30005AEE054FEF074081216E40245E4F0A3BD
:1045E300F0D083D08202013574EC12172574F412D3
:1045F30016CE851882851983AC82AD837583817548
:10460300826374041215E190292493F46003024732
:1046130077907808E0C3940250030247577404125A
:104623001719AC82AD8375838175822274081215C4
:10463300E185188285198385821285831374041298
:104643001719AC82AD83750EFF750FFF7FFF7E00D8
:10465300750C48750D78801574086E70030246EB6F
:1046630074096E70030246EB740A6E607B850C82DC
:10467300850D83780812159E8C828D83A909E50A1E
:10468300C9F88810741878081214CCE5104508F896
:10469300C3E098A3E099850C82850D8378081215F1
:1046A3009E40188C828D83741878081214CCE51000
:1046B3004508F8E0C398F8A3E0801C741878081242
:1046C30014CCE5104508FAE9FB8C828D83E0F8A34E
:1046D300E0F9EAC398F8EB99F9C3E8950EE9950F69
:1046E3005006880E890FEEFF0EE50C2404F50CE549
:1046F3000D3400F50DEEC39413500302465B74FFB3
:10470300650E700474FF650F60238F0874027808C8
:104713001216BB74482508F58274783509F5837839
:104723000812159E851282851383E508F0EC240296
:10473300FCED3400FD851282851383A385821285E7
:104743008313740C121719E5826C7003E5836D6093
:10475300030246497508017509007808121938746F
:1047630002121719AC82AD837A497B0A1206A4742C
:10477300021216E4740C1216E47F0C0217F7C082BF
:10478300C0839061AE7468F0A3746AF0906245745C
:10479300FBF0A304F053F4FD43FE029007487401B9
:1047A300F09061A0E0643A90619A70237433F0A3AF
:1047B3007455F09061A0743AF0740164017009C2F9
:1047C300919005AF746780289005AF746180217460
:1047D3003FF0A3745AF09061A0747FF074016401F8
:1047E3007009D2919005AF747180059005AF746A1A
:1047F3000245E37F080217F7C082C0839006FAE000
:104803006401700A9006FFE06004790C800279006D
:104813000245E4C082C08375E1F19006FDE0605B70
:1048230014600914605F14605714705E120F0290D5
:1048330006F3E0F97AF47B061210E87AD67BBE7CA5
:10484300897D8E12111E7A557B557C557D00121081
:10485300F49006FEE0F9121100790112115A900644
:10486300F1E0F8A3E0C82416F582E83400F5837478
:104873001AF0A3740FF079000245E4120F0880AF19
:10488300120F0E80AA120F1480A5791280EA74F019
:1048930012172575D90D9006DEE0A2E0E433131359
:1048A300F89006F3E0C4333354C0484401F5D97893
:1048B300F1790688828983A3A3A3E0F5D988828945
:1048C30083A3A882A983E864F77003E9640670E30D
:1048D30078DE790688828983A3E0F5D98882898383
:1048E300A3A882A983E864E47003E9640670E5750C
:1048F300E1959006DEE0F97ADF7B061210EE900C6C
:104903006374AEF0A3740EF0A37410F0A37410F0EC
:10491300A37410F0A37410F0A37410F0A37410F038
:10492300A374B4F0A3740EF0A37410F0A37410F086
:10493300A374CCF0A3740EF0900C717410F0A374F4
:1049430010F0A37410F0A37410F0A37410F0A37408
:1049530010F0A37410F0A37410F0A37410F0A374F8
:1049630010F0A37410F0A37410F09006FDE064013E
:104973009006F17012E0F8A3E0F5838882A3A37593
:1049830008007509088010E0F8A3E0F5838882A386
:10499300A3750804750900750A00750B00780812E1
:1049A3001517750CFF750DFF750EFF750F00780851
:1049B300790C1215659006F1E0F8A3E0C8240EF512
:1049C30082E83400F58378081215AD9006F1E0F81B
:1049D300A3E0C82414F582E83400F5837413F0903F
:1049E30005AB7402F00247F674F71217259007031C
:1049F300E02407F5D99006F3E0C4333354C0F5D966
:104A030078F1790688828983A3A3A3E0F5D9888204
:104A13008983A3A882A983E864F77003E964067015
:104A2300E3900703E0601F78F17906FAE82413F5B1
:104A330082E93400F583E0F5D988828983A3A882CB
:104A4300A9831AEA70E6900723E02407F5D99006B4
:104A5300F3E0C4333354C04404F5D978F1790688BC
:104A6300828983A3A3A3E0F5D988828983A3A8823B
:104A7300A983E864F77003E9640670E3900723E011
:104A8300601F78F17906FAE82433F582E93400F5FA
:104A930083E0F5D988828983A3A882A9831AEA705F
:104AA300E675E195900C6374BAF0A3740EF0A374E9
:104AB30010F0A37410F0A37410F0A37410F0A37497
:104AC30010F0A37410F0A374B4F0A3740EF0A374E5
:104AD30010F0A37410F0A374CCF0A3740EF0900C38
:104AE300717410F0A37410F0A37410F0A37410F099
:104AF300A37410F0A37410F0A37410F0A37410F057
:104B0300A37410F0A37410F0A37410F0A37410F046
:104B13009006F1E0F8A3E0C8240EF582E83400F52E
:104B23008374FFF0A3F0A3F0A3F09006F1E0F8A3E1
:104B3300E0C82414F582E83400F5837412F090057C
:104B4300AB7401F0FF0217F774F7121725900703F0
:104B5300E02407F5D99006F3E0C4333354C044028C
:104B6300F5D978F1790688828983A3A3A3E0F5D9DF
:104B730088828983A3A882A983E864F77003E96420
:104B83000670E3900703E0601F78F17906FAE824E2
:104B930013F582E93400F583E0F5D988828983A38C
:104BA300A882A9831AEA70E675E195900C6374C62E
:104BB300F0A3740EF0A374C6F0A3740EF0A374C62E
:104BC300F0A3740EF0A374C6F0A3740EF0A374C61E
:104BD300F0A3740EF0A374C6F0A3740EF0A374CC08
:104BE300F0A3740EF0900C717410F0A37410F0A382
:104BF3007410F0A37410F0A37410F0A37410F0A356
:104C03007410F0A37410F0A37410F0A37410F0A345
:104C13007410F0A37410F09006F1E0F8A3E0C82438
:104C23000EF582E83400F58374FFF0A3F0A3F0A33C
:104C3300F09006F1E0F8A3E0C82414F582E834000C
:104C4300F5837414F09005AB7404F0024F1274F7FB
:104C5300121725900703E02407F5D99006F3E0C463
:104C6300333354C04406F5D978F1790688828983B1
:104C7300A3A3A3E0F5D988828983A3A882A983E8A3
:104C830064F77003E9640670E3900703E0601F783C
:104C9300F17906FAE82413F582E93400F583E0F5A7
:104CA300D988828983A3A882A9831AEA70E6900728
:104CB30023E02407F5D99006F3E0C4333354C0440A
:104CC30004F5D978F1790688828983A3A3A3E0F553
:104CD300D988828983A3A882A983E864F77003E94A
:104CE300640670E3900723E0601F78F17906FAE821
:104CF3002433F582E93400F583E0F5D9888289838A
:104D0300A3A882A9831AEA70E675E195900C6374EF
:104D1300C0F0A3740EF0A37410F0A37410F0A37486
:104D230010F0A37410F0A37410F0A37410F0A37424
:104D330010F0A37410F0A37410F0A37410F0A37414
:104D4300CCF0A3740EF0900C717410F0A37410F0F7
:104D5300A37410F0A37410F0A37410F0A37410F0F4
:104D6300A37410F0A37410F0A37410F0A37410F0E4
:104D7300A37410F0A37410F09006F1E0F8A3E0C858
:104D8300240EF582E83400F58374FFF0A3F0A3F05A
:104D9300A3F09006F1E0F8A3E0C82414F582E83408
:104DA30000F5837415F09005AB7403F0024F12C045
:104DB30082C0839006F1E0F8A3E0C82406F582E8F8
:104DC3003400F583E40245E174F71217259005D901
:104DD300E0F875F003A4C8AAF02AF974DB28F87484
:104DE3000539F9E82405FAE93400FB8A828B83E06C
:104DF300FCA3E0FD88828983A3A3A3A3A3A3A3A306
:104E0300A3ECF0A3EDF088828983A3A3A3A3A3A3B8
:104E1300A3E024FFF8A3E034FFF98A828B83E8F050
:104E2300A3E9F0024F1274F7121725EAFEEBFF9085
:104E330061D0E06003024F0675D90E75D90375D9A9
:104E430004EE248BF582EF3400F583E5822408F821
:104E5300E5833400F9E0F5D9A3E865827003E965D9
:104E63008370F2EE2483F582EF3400F583E5822428
:104E730004F8E5833400F9E0F5D9A3E8658270030B
:104E8300E9658370F275E1957908EE248BFAEF34C6
:104E930000FB120FBC7904EE2483FAEF3400FB12FB
:104EA3000FBC7C00EEF8EFF9ECFAC3E49AFA95E054
:104EB300FBEE2AFAEF3BFBEA248AF582EB3400F59A
:104EC30083E0C0E0E824AAF582E93400F583D0E06A
:104ED300F00C88828983A3A882A983ECC394084039
:104EE300C7EE246FF582EF3400F583E0F8A3E0F911
:104EF300EE2471F582EF3400F583E8F0A3E9F0794D
:104F030001800279008008F0EEA2E092AF79007F81
:104F1300010217F7C082C08375D90275D90375D909
:104F23000575E195EA246FF582EB3400F583E0F82B
:104F3300A3E0F9EA2471F582EB3400F583E8F0A3EA
:104F4300E9F079010245E474F6121725EAFEEBFF56
:104F530090074E7406F075084E7509077808121904
:104F6300387C01790312100474021216E475D90611
:104F730075D90375824E758307E0F5D9A3E582647D
:104F8300537004E583640770F075E1959005ABE019
:104F93006408701EEE246FF582EF3400F583E0F8A9
:104FA300A3E0F9EE2471F582EF3400F583E8F0A372
:104FB300E9F0790102521874F6121725EAFEEBFFA5
:104FC3009061D0E07066780190074E740BF0900505
:104FD300ABE06407701975084E7509077808121954
:104FE300387C01790312100474021216E4780574F4
:104FF3000128F5D975D90375824E758307E8FAE060
:10500300F5D9A31AEA70F875E195EE246FF582EFEE
:105013003400F583E0F8A3E0F9EE2471F582EF3470
:1050230000F583E8F0A3E9F07901800279000252E8
:105033001874F7121725EAFEEBFF75D90375D90328
:1050430075D90DEE24DDF582EF3400F583E0F5D953
:1050530075E1957904121124EE246FF582EF340083
:10506300F583E0F8A3E0F9EE2471F582EF3400F55F
:1050730083E8F0A3E9F07901024F1274F6121725C1
:10508300EAFEEBFF9061D0E0F87480C398FAEE2457
:1050930082F582EF3400F583E060047804800278BF
:1050A30000E8240BF8EAC39850030251437D0990AA
:1050B300074EEDF0EE24E2F8EF3400F97A4F7B0768
:1050C3007C0888828983E08A828B83F08882898343
:1050D300A3A882A9838A828B83A3AA82AB831CECB5
:1050E30070E0EE2482F582EF3400F583E0601D75F5
:1050F300084E75090778081219387C097903EEFA06
:10510300EFFB12100474021216E47D0D74012DF5E9
:10511300D975D90375824E7583078D08E0F5D9A338
:105123001508E50870F675E1957904121124EE244B
:105133001DF582EF3400F583E4F0A3F079018002DA
:10514300790002521874F6121725EAFEEBFF9061FC
:10515300D0E0F87480C398FAEE2482F582EF34002D
:10516300F583E06004780480027800E82408F8EA14
:10517300C3985003025216780690074E740CF090B1
:1051830005C8E090074FF09005C9E0900750F090F4
:1051930005CAE0900751F09005CBE0900752F090DC
:1051A30005CCE0900753F0EE2482F582EF3400F54E
:1051B30083E0601B75084E75090778081219387C5F
:1051C300067903EEFA12100474021216E4780A74D4
:1051D3000128F5D975D90375824E7583078808E0D0
:1051E300F5D9A31508E50870F675E1957904121150
:1051F30024EE246FF582EF3400F583E0F8A3E0F9A1
:10520300EE2471F582EF3400F583E8F0A3E9F07939
:1052130001800279007F020217F774F6121725EA5C
:10522300FEEBFF9061D0E0F87480C398FAEE24821D
:10523300F582EF3400F583E060047804800278009F
:10524300E82404F8EAC39850030252F7780290075F
:105253004EE8F0EE24F4F582EF3400F583E0900796
:105263004FF0EE2482F582EF3400F583E0601B7586
:10527300084E75090778081219387C027903EEFA8B
:1052830012100474021216E47806740128F5D97515
:10529300D90375824E7583078808E0F5D9A31508ED
:1052A300E50870F675E195EE2473F582EF3400F5A9
:1052B30083E4F0EE247FF582EF3400F583E4F0EE2F
:1052C300241DF582EF3400F583E4F0A3F079041292
:1052D3001124EE240DF582EF3400F583E0F8A3E00A
:1052E300F9EE2471F582EF3400F583E8F0A3E9F0D9
:1052F30079018002790002521874F6121725906121
:10530300D0E0F87480C398FCEA2482F582EB340081
:10531300F583E06004780480027800E82404F8EC64
:10532300C398405B790290074E7407F0EA24F5F5C1
:1053330082EB3400F583E090074FF0EA2482F58294
:10534300EB3400F583E0601875084E75090778089B
:105353001219387C020912100474021216E4790639
:10536300740129F5D975D90375824E758307E9F858
:10537300E0F5D9A318E870F875E195790180027911
:105383000002521874F5121725E9FCA2AFE433F5B5
:105393000AC2AF7D0080010DEA246EF582EB340072
:1053A300F583E0F8EDC398501A8D08EA2508F8EB69
:1053B3003400F9E8246AF582E93400F583E06C707F
:1053C300D68024EA246EF8EB3400F9E0FEEA2EFAE4
:1053D300EB3400FBEA246AF582EB3400F583ECF04E
:1053E30088828983E004F0E50AA2E092AF7F03029A
:1053F30017F774F6121725A2AFE433FDC2AFEA2400
:105403006EF582EB3400F583E014F07C0060368C9B
:1054130008EA2508F8EB3400F9E8246BF582E9344F
:1054230000F583E0C0E0E8246AF582E93400F583FF
:10543300D0E0F00CEA246EF582EB3400F583E0F85B
:10544300ECC39840CAEA246DF582EB3400F583740B
:10545300FFF0EA2469F582EB3400F583E4F0EDA272
:10546300E092AF025218C082C083E5A8F8C2AFEA47
:10547300246AF582EB3400F583E9F0EA2469F582C6
:10548300EB3400F583E4F0E8A2E7A2E792AF02452C
:10549300E474F3121725EAFEEBFFECFAEDFB8A82C4
:1054A3008B83A3A3A3A3E0541FF0EE2436F582EF6E
:1054B3003400F583E4F0F50AEEFCEFFD8A828B837A
:1054C300E0C0E0EC245DF582ED3400F583D0E0F03C
:1054D300750B00E50A33333354F8F50C8A828B835A
:1054E300E0F508750900E50B780812169CE508A29B
:1054F300E0502FEE2436F8EF3400F988828983E0F8
:10550300F508EE2508F508EF3400F509E508243819
:10551300F582E5093400F583E50CF088828983E0A0
:1055230004F0050B050CE50BC3940840AF050A8A8C
:10553300828B83A3AA82AB838C828D83A3AC82AD3F
:1055430083E50AC3940550030254BF7F050217F78E
:1055530074F71217259005D7E0640170030256B162
:105563007A009005DDE060030256B17401F0A3E414
:10557300F0A3F090063D04F0900642F09005E0E4BD
:10558300F0A3F0A3F0A3F09005EA04F0900610E472
:10559300F09005F3F0A3F0A3F0A3F0A3F0A3F0A31E
:1055A300F090065AF090064EF09006437480F0A3F4
:1055B300E4F0900649F09006C5F0A3F0A3F0A3F041
:1055C300A3F0A3F0A3F0A3F09006CEF090065DF055
:1055D3009006ADF0A3F0A3F0A3F0A3F0A3F0A3F023
:1055E300A3F0A3F0A3F09006B9F09006BBF09006E9
:1055F300B7F09006D1F0A3F0A3F0A3F0A3F0A3F0CB
:10560300A3F0A3F078D77905E8246EF582E9340096
:10561300F58374FFF00A88828983A3A882A983EAA9
:10562300C3940440E37AD77B0578E57906888289B9
:1056330083E0C0E0EA2461F582EB3400F583D0E037
:10564300F088828983A3A882A9838A828B83A3AAF1
:1056530082AB83E864EA7003E9640670D07AD77B8F
:105663000578BE790588828983A3E0C0E0EA24E651
:10567300F582EB3400F583D0E0F088828983A3A818
:1056830082A9838A828B83A3AA82AB83E864C670D0
:1056930003E9640570CF9005D7E004F06401700856
:1056A3009005DFE09005D9F07ADB7B0580047A0072
:1056B3007B00024F12C082C0839005DEE4F09005A8
:1056C300DDF09005D7F0A3F0A374FFF075E1F102CC
:1056D30045E4C082C083780079009005DEE0600471
:1056E30078DB790588828983A3A3A3A3E0F9024524
:1056F300E474F6121725EAFEEBFFEE2463F582EF5E
:105703003400F583E0F8A3E0F9E849700302579900
:10571300EE2463F8EF3400F97A007B00A2AFE433A0
:10572300F508C2AF88828983E0FCA3E0FDEC4D60FD
:105733003A88828983E0FAA3E0FB8A828B83E0FCC8
:10574300A3E0FD88828983ECF0A3EDF08A828B834A
:10575300E4F0A3F088828983E0FCA3E0FDEC4D70C4
:105763000A88828983A3A3E4F0A3F0E508A2E09268
:10577300AF1207229006EBE004F09006ECE004F091
:10578300EE2463F582EF3400F583E0F8A3E0F9E853
:105793004960030257138E828F83A3A3A3E0600F94
:1057A3008E828F83A3A3A3E4F09005D8E014F09036
:1057B30005D7E014F070069005D974FFF08E828F40
:1057C30083A3A3E4F09006EAE0700D9005D8E064AB
:1057D3000170057900121106EEFAEFFB1210340284
:1057E300521874F7121725EAFEEBFF8E828F83A3FC
:1057F300A3A3A3E0FA7B00120D0AEEFAEFFB120F4C
:105803008612101C024F12C082C08378BE790588AD
:10581300828983A3E4F088828983A3A882A983E889
:1058230064C67003E9640570E69005BF7401024520
:10583300E374F6121725EAFEEBFFEC2403F8ED34CC
:1058430000F988088909EC2407F8ED3400F9E8FC2D
:10585300E9FD8C828D83E0F8A3E0F9850882850950
:1058630083E0FAA3E0FB121643EE240DF582EF3436
:1058730000F583E8F0A3E9F08C828D83E0F8A3E0E0
:10588300F9850882850983E0FAA3E0FB1216438BAE
:1058930009EA45096013EE240DF582EF3400F58320
:1058A300E02401F0A3E03400F002521874F612175A
:1058B30025EAFEEBFFEE242EF582EF3400F583E0BC
:1058C300FCA3E0FD780079FAECFAEDFB121643EE47
:1058D300246FF582EF3400F583E8F0A3E9F0780054
:1058E30079FAECFAEDFB1216438B09EA45096013CA
:1058F300EE246FF582EF3400F583E02401F0A3E09A
:105903003400F002521874EC121725EAFEEBFF7410
:1059130014121719780812159E1210C48A0C8B0DD5
:105923008C0E8D0F75100275110075120075130022
:10593300780C79101215047510FF7511FF7512FF9D
:10594300780C7910121565780C1219348E828F83B6
:10595300E0F8A3E0F5838882A3A31215BC1226C343
:1059630074041216E4E96003025A6D8E828F83E099
:105973002402F8A3E03400F9E8FAE9FB8A828B8376
:10598300780812152A8A828B837508FF7509FF75BB
:105993000AFF750B00780812158BEE240BF582EFC6
:1059A3003400F583C082C0838E828F83A3A3A3A315
:1059B300A3E02401F8A3E03400F9D083D082E068A7
:1059C3007003A3E06970057901025A6F8E828F8399
:1059D300A3A3A3A3A3A3A3E02401F0A3E03400F0B3
:1059E300EE2473F582EF3400F583E064017036EE44
:1059F3002474F582EF3400F583E0F8A3E0F98E8296
:105A03008F83A3A3A3A3A3A3A3E0687003A3E06965
:105A13007013EE2474F582EF3400F583E02401F073
:105A2300A3E03400F0EE247FF582EF3400F583E049
:105A330064017036EE2480F582EF3400F583E0F8DC
:105A4300A3E0F98E828F83A3A3A3A3A3A3A3E068F8
:105A53007003A3E0697013EE2480F582EF3400F540
:105A630083E02401F0A3E03400F0790002477C7462
:105A7300F6121725E9FEECFFEA2462F582EB340007
:105A8300F583E064016003025B1B9061D0E0F508DD
:105A9300EA2482F582EB3400F583E0600478048025
:105AA3000278007480C39508FC95E0FDEF28F8E4C4
:105AB3003400F9E82402F8E93400F9EC98ED99A2EE
:105AC300D265D033404E740A121719E0F508A3E0EB
:105AD300F509EA2482F582EB3400F583E06015785A
:105AE30008121938EFFCEEF912100474021216E4CE
:105AF30074042FFF74012FF5D98ED9EF600F850839
:105B030082850983F8E0F5D9A318E870F875E19563
:105B1300790080067907800279FF02521874F71220
:105B23001725A2AFE433FEC2AF8A828B83E0F8A3CA
:105B3300E0F9E8498A828B83600AA3A3E0F8A3E033
:105B4300F5838882ECF0A3EDF08A828B83A3A3EC28
:105B5300F0A3EDF08C828D83E4F0A3024F0A74F777
:105B6300121725E96021F88C828D83E08A828B836A
:105B7300F08C828D83A3AC82AD838A828B83A3AAAC
:105B830082AB8318E870E0ECFAEDFB024F1274F07D
:105B930012172574FA1216CE890BECFEEDFF750A67
:105BA300008A088B09780812197C000410C45DD49C
:105BB3005BF25B0C5C245C425C5A5C7D5C955CA98B
:105BC3005CD35C5B5D6C5D835D9E5DC45DC45DE9C0
:105BD3005C7401650B6003025DBF8E828F83E0F806
:105BE300C394034003025DBFE89009F3025D9B7415
:105BF30002650B6003025DBF8E828F831264C190C6
:105C030009F4E8F0A3E9025D9B7401650B600302EC
:105C13005DBF125DEC4003025DBFE89002A7025D29
:105C23009B7401650B6003025DBF8E828F83E0F876
:105C3300C394054003025DBFE89002A8025D9B7414
:105C430001650B6003025DBF125DEC4003025DBFA3
:105C5300E89002A9025D9B7410650B6003025DBFAF
:105C630075081075090078081219387AAA7B021290
:105C7300048E74021216E4025DE57401650B600381
:105C8300025DBF125DEC4003025DBFE89002BA0201
:105C93005D9B7401650B6003025DBF8E828F83E0A1
:105CA3009009F7025D9B7404650B6003025DBF8E70
:105CB300828F83780C12159E90815B780C1213BD32
:105CC3005003025DBF9002BC780C1215AD025DE576
:105CD300E96003025DBF120A88E970051206268097
:105CE3006090034F806E7407650B6003025DBF75A0
:105CF300080675090078081219388E828F83A3ACC1
:105D030082AD837402121719AA82AB8312049474AE
:105D1300021216E47C007D00851882851983AA820D
:105D2300AB838E828F83E0F91205CCE9F508C39427
:105D33000A4003025DE2120A88E9700CA908120600
:105D43002C79501207A0806F74502508F5827403D4
:105D53003400F583740180407401650B705E125D3D
:105D6300EC5059E89002BB802F7401650B704D8E87
:105D7300828F83E0F8C3940A5042E89009F68018B2
:105D83007401650B70368E828F83E0F874F928C333
:105D9300940A5028E89009F8F080477401650B7065
:105DA3001B90034EE0F88E828F83E090034EF0E861
:105DB3007030E06401702B12061A8026750A188071
:105DC30021C3EA9427EB940050157402650B700FFE
:105DD3008E828F831268C0120926E9F50A80037543
:105DE3000A02A90A74060264B68E828F83E0F8C39E
:105DF30094022274F012172574CC1216CE8C0A8DDD
:105E03000B7420121719AC82AD8375838175824A96
:105E130074061215E17420121719AC82AD831205B2
:105E2300CCE9F5087444121719E0FEE9C3940A405B
:105E330003025F6475F006E9A4F5097426121719C5
:105E4300AC82AD837A0E74202509F912079AE970A2
:105E5300097432121719E0FF80027F009009F3E002
:105E63006402700474018001E4F50D780D12193C8D
:105E7300EEFDEFFCA908AA0AAB0B1206507401123F
:105E830016E47C147D007900740C121719AA82ABF6
:105E9300831204A6740C121719AC82AD837A1074A2
:105EA300242509F912079AE9703C7C1079FF740CD8
:105EB300121719AA82AB83120506E97029741C1202
:105EC3001719AC82AD837A0474252509F912079A50
:105ED300740C121719AC82AD83EFA2E0E433F9AA74
:105EE3000AAB0B1209B0851882851983AC82AD8386
:105EF3007A0C74702508F912079AE9705385188291
:105F0300851983AA82AB831205FC750800E5087521
:105F1300F003A4F8A9F0851882851983E58228F88F
:105F2300E5831266CA1268BA601D88828983A3A3B7
:105F3300E0F50E750F00780E121938AA0AAB0B1292
:105F43000C1474021216E40508E508C3940440BD5A
:105F5300EFA2E1500C9002A6E0F9AA0AAB0B120CD7
:105F63001A74046E70279009F3E06402701F7A00BC
:105F73009002BAE060010A9002A7E060047804800E
:105F8300027800E84AF9AA0AAB0B120A7079007486
:105F9300340264B674F0121725EAFEEBFF8C088D09
:105FA30009750A0AE9600C146009146037146079F2
:105FB30002604612060EE9F50AC3940A4003026022
:105FC30046E5084509607C750E06750F00780E12CC
:105FD3001938EEFCEFFDAA08AB0912048E74021205
:105FE30016E4805F750B00750E06750F00780E12B0
:105FF3001938EEFCEFFDE50B75F00EA4F8A9F0746B
:10600300C828FA740239FB1204A074021216E4E9D8
:10601300600C850B0AE50AC3940A50278016050B0A
:10602300E50BC3940A501C80BE120614E9F50AC39B
:10603300940A500FE50845096009AA08AB09A90AA3
:10604300120608A90A0264B974F41217258908759F
:10605300091574FF6A700374FF6B70277E00AC0828
:106063007A027B00EEF91205EAE960037509000E76
:10607300EEC3940A40E8E50860537A3E7B06120EAD
:1060830018804A120DFA8A0A8B0BAE0AAF0BEE4F39
:1060930060387C007D00EE2405FAEF3400FB8E822D
:1060A3008F83A3A3A3A3E0F91205CCE9C3940A50F9
:1060B3000CAC087A027B001205EA750900E508605A
:1060C3000CEEFAEFFB12063E8003750914A9098052
:1060D30005740E1216E47F040217F774F2121725E3
:1060E300ECFEEDFF750815740E121719E0F50AA3FF
:1060F300E0F50B74FF6A700374FF6B702175090080
:10610300AC0AAD0BEEFAEFFBA9091205F0E9600347
:106113007508000509E509C3940A503F80E2120D92
:10612300FA8A828B83E5824583602D7C007D00E5BE
:10613300822405FAE5833400FBA3A3A3A3E0F912A9
:1061430005CCE9C3940A5013AC0AAD0BEEFAEFFB8E
:106153001205F07508008003750814A908026EFC87
:10616300C082C0839002C0EAF0A3EBF09002A6E0E5
:10617300FC7D007A267B001209269002A6E0F91224
:106183000B90026D5774F012172574EC1216CEEAB9
:10619300FEEBFFEE240CF50CEF3400F50DEE2405B9
:1061A300F50EEF3400F50FEE2409F50AEF3400F590
:1061B3000BEE2403F508EF3400F5098E828F83A3D9
:1061C300A3E024FA700302645A24FD70030263758A
:1061D30014700302626114601024FD700302634CA7
:1061E3001470030263A90264B21270F76048E0F509
:1061F3008388821264C1880E890FE8450F60378552
:106203000C82850D83E0F50C780C12193CEE240BFF
:10621300F582EF126691F9850A82850B831268C0B5
:106223000A0A0AAB09850E82850F831217237401AC
:106233001216E40264B2850A82850B8312194F9009
:1062430002BC1215BC1209C274021216E4E97003EF
:106253000264B27901850A82850B830264258E82EA
:106263008F83A385820A85830BE0600302632F85F6
:106273000E82850F83E0A2E0400302632F90035A4E
:106283001270FA600302632F7C0E7D00790085187B
:1062930082851983AA82AB831204A6850C82850D9D
:1062A30083126D22EA4B6010750C06750D00780C95
:1062B300121938EA2410801B126D1C120DFAEA4BD6
:1062C30070030264B2750C06750D00780C12193850
:1062D300EA2405FCEB3400FD7402121719AA82AB01
:1062E3008312048E74021216E4850E82850F83E0F6
:1062F300A2E25004D2F08002C2F0A2F0E433F874B8
:106303000C121719E048F0EEFCEFFD851882851991
:1063130083AA82AB83120602E970117A027B009092
:1063230002A6E0F91204E279000264B41270F77075
:10633300030264B21264C770030264B2850A8285E1
:106343000B83E0FC790102644E1270F77003026460
:10635300B21264BE890BE8450B70030264B28E82ED
:106363008F83A3E0FC7902126D1C8882850B830264
:1063730064557C007D00EE2404FAEF3400FB8508AD
:1063830082850983E0F91205CCE9F8C3940A400336
:106393000264B2EE240AFCEF126896E8A42425F9FD
:1063A3001207940264B2126D1C9002BBE060079066
:1063B30009F6E0F9806F9009F3E0700479058065D0
:1063C300120DFA8A0C8B0DA80CA90DE82404F50C08
:1063D300E93400F50D8E828F83A3A3A3A3A3A3A304
:1063E300E0A2E05046E84970030264B2850C82855E
:1063F3000D83E0FE6035850A82850B83E0541070BF
:106403002A740E121719AC82AD83E82405FAE93415
:1064130000FBEEF91205CCE970117903850882853A
:106423000983126D221209BC0264B2AC0EAD0F8552
:106433000C82850D83E0F9126D1C12064A1270F767
:10644300606D1264C760687C007900126D1C8E82D7
:106453008F831217238058120A88E9705290034FD2
:10646300E06401701512062690034FE4F07C0AFDE8
:10647300F97A507B031204A6802D750A00850A0859
:1064830074502508FE74033400FF8E828F83E0640A
:1064930001700BA90A12062C8E828F83E4F0050A81
:1064A300E50AC3940A40D679501207A012061A7956
:1064B3000174141216E47F080217F71264D6E0F889
:1064C300A3E0F9221264D6E0F8A3E0F9E8FEE9FFBD
:1064D300EE4F22E0F5838882A3A32274F4121725DA
:1064E30074F21216CEEAFE8C0B75F006E9A4242092
:1064F300F508851882851983AC82AD837A0EF9126B
:10650300079AE970577C0679FF851882851983AA53
:1065130082AB83120506E97043740C1217191264D7
:10652300C1E8F509E50B6005EE42098004EEF4527B
:1065330009850982AA82E86A7001E9601B740C125A
:106543001719EAF0A3E4F0851882851983AC82ADAC
:10655300837A0EA9081207947901800279000260F8
:10656300D474F212172574E61216CE890A8A088BA0
:1065730009ECFEEDFF740C121719AC82AD837A0E91
:1065830075F006E9A42420F912079AE9600302666C
:10659300847C0679FF740C121719AA82AB83120547
:1065A30006E960030266847470250AF50B85188278
:1065B300851983AC82AD837A0CF912079AE96003DB
:1065C300026680851882851983AA82AB831205FC33
:1065D300E5084509702C7C0C7900851882851983A0
:1065E300AA82AB83120506E960030266807C0C7DF8
:1065F300007900851882851983AA82AB831204A6C9
:10660300805D851882851983AC82AD83AA08AB09A6
:106613001205F68A0C8B0DA80CA90DE8497028EE1B
:106623004F605E851882851983AC82AD837A007BC7
:10663300001205F6EAF8EBF9EA4B60458882898394
:10664300E508F0A3E509F012668BFAEE6A7001EF34
:10665300602BEEF04F700888828983E4F0A3F08505
:106663001882851983AA82AB831205FC851882855B
:106673001983AC82AD837A0CA90B1207947901803C
:10668300027900741A026EF9E82402F582E93400F3
:10669300F583E02274F71217257F00EF75F003A44A
:1066A300F8A9F0EC28F8ED1266CAE06A7003A3E0DB
:1066B3006B7006E8FAE9FB800B0FEFC3940440DB31
:1066C3007A007B00026A7539F9888289832274F71C
:1066D3001217257E00EE75F003A4F8A9F0EA28F856
:1066E300EB1266CAE0F4FCA3E0F4FD88828983EC34
:1066F300F0A3EDF012668BF4F00EEEC3940440D5D4
:10670300026A7574F212172574F41216CEEAFEEBC0
:10671300FF8C088D0990035A1270FA7051EE4F7076
:106723000302688FEC4509700302688F12060EE9B5
:106733009009F9F0C3940A4035750B007C0679FF84
:10674300E50B75F00EA4FAABF074C22AFA74023B9F
:10675300FB120506E96005850B0A800C050BE50BAA
:10676300C3940A40D7750A0AE50A9009F9F090091B
:10677300F9E0C3940A400302688F75F006E0A4FBB6
:1067830090035A1270FA706FEEFCEFFD7A0E7420CC
:106793002BF91207947C0C7D0079FF8518828519EB
:1067A30083AA82AB831204A6851882851983AC82DF
:1067B300AD837A0C9009F9E02470F9120794750CF3
:1067C3000E750D00780C121938EEFCEFFD9009F9E7
:1067D300E075F00EA4F8A9F074C228FA740239FB2C
:1067E30012048E74021216E490035AE508F0A3E52E
:1067F30009F07900026891E0C824061268B3601AB0
:106803007A1B74212BF912079412689F2406F582D0
:10681300E83400F583E4F0A380D712689F240A12BA
:1068230068B360107A1B74222BF912079412689FC5
:10683300240A80DA12689F240C1268B360107A105D
:1068430074232BF912079412689F240C80C01268DA
:10685300A81268B3602A7A1074242BF912079412D1
:1068630068A8F582E81266912410FCA3E0126896EA
:106873009009F9E0A42425F91207941268A8808EE0
:1068830090034EE060031206561206447901740C1D
:10689300026EF93400FD7A0475F0062290035AE083
:1068A300F8A3E0C82290035AE0F8A3E0C824082222
:1068B300F582E83400F5831268C0EC4D22E0FCA3B6
:1068C300E0FD2274F412172574F21216CEEAFEEBE1
:1068D300FFE9C3940A5004EE4F70047902803E85A9
:1068E3001882851983AC82AD837A0E75F006E9A40C
:1068F3002420F912079AE9F5087020750A06750B2A
:1069030000780A1219387402121719AC82AD83EE9B
:10691300FAEFFB12048E74021216E4A9080260D483
:1069230074F4121725EAFEEBFF750800750A067565
:106933000B00780A121938EEFCEFFDE50875F00E2E
:10694300A4F8A9F074C228FA740239FB1204A074E3
:10695300021216E4E96004A908800B0508E508C3E0
:10696300940A40C8790A0260D974F712172574F0A3
:106973001216CEEAFEEBFF7508008518828519838F
:10698300AC82AD837A1075F006E508A42423F912CE
:10699300079AE9702C7C1079FF851882851983AAE0
:1069A30082AB83120506E97018EEFCEFFD851882B1
:1069B300851983AA82AB83120992E97004A908801E
:1069C3000B0508E508C3940A40B0790A741012163F
:1069D300E4026A7574F7121725750800E50875F067
:1069E3000EA4F8A9F074C228FE740239FFEEFCEF7E
:1069F300FD7A0E75F006E508A42420F912079AE93A
:106A0300602C7C067D0079FFEEFAEFFB1204A67C76
:106A1300067D0079FFEE2406FAEF3400FB1204A68C
:106A2300EE240CF582EF3400F583E4F0A3F00508BF
:106A3300E508C3940A40A590034EE060031206568E
:106A4300120644802D74F71217257E007F007C0602
:106A530079FFEF75F00EA4FAABF074C22AFA740250
:106A63003BFB120506E970010E0FEFC3940A40DEEB
:106A7300EEF97F010217F774F71217257E00EEF97E
:106A830012062C0EEEC3940A5003E960F180E374FE
:106A9300F312172574CB1216CEE9FE9009F9E06EB6
:106AA300701B7A017B009002A6E0F91204E87A02D7
:106AB3007B009002A6E0F91204E812066275F00664
:106AC300EEA4FF74202FF5087427121719AC82ADBA
:106AD300837A0EA90812079AE96003026BCC7C063D
:106AE30079FF7427121719AA82AB83120506E9608E
:106AF30003026BCC7C0E7D0079FF7427121719AA51
:106B030082AB831204A67C1B7D0079FF740C1217E1
:106B130019AA82AB831204A67C0C7D0079FF851829
:106B230082851983AA82AB831204A67427121719CC
:106B3300AC82AD837A0EA908120794E9F508740CA8
:106B4300121719AC82AD837A1B74212FF9120794A3
:106B5300E9F509740C121719AC82AD837A1B742200
:106B63002FF9120794E9F50A740C121719AC82ADC8
:106B7300837A1074232FF9120794E9F50B740C121E
:106B83001719AC82AD837A1074242FF9120794E994
:106B9300F50C740C121719AC82AD837A0474252F8B
:106BA300F9120794E9FF851882851983AC82AD83B6
:106BB3007A0C74702EF9120794E9F8E509450A4531
:106BC3000B450C4F4842088003750800A90874352B
:106BD3001216E47F050217F774F7121725E99002DE
:106BE300A6F012061A026A7574F4121725EAFEEB70
:106BF300FF54807003026C839002A6E0F91204CA6A
:106C03008A088B09EA4509607078018A828B83E0E0
:106C13002450603D14600624E1604F8052A3A3A377
:106C2300A3E0704E8A828B83A3A3A3A3A3A3A3127F
:106C3300194F8A828B83A3A3A3A3A31268C08A825A
:106C43008B83A3A3126D221205D874021216E4805B
:106C530021A3A3A3A3E0641E701879008A828B8307
:106C6300A3A3126D221205D280081205E4E9F8E805
:106C73006007AA08AB091204B8EEFAEF64808065D6
:106C8300EE540260237C007D007A007B0012060232
:106C9300E960117A017B009002A6E0F91204E2EEAA
:106CA3006402803F7A028046EEA2E0503F126CF607
:106CB300126D2212065CE9602F1270F7601F1264D6
:106CC300BE88088909E8450960137C007901126CC4
:106CD300F6126D2285088285098312172312066234
:106CE300EE6401FAEFFB80087A0180027A007B00F0
:106CF3000260D990035AE0F8A31264D6A3227F025C
:106D03000217F7C082C0839002A6E0F98A828B83C0
:106D1300A3126D22120C1A803B850882850983E039
:106D2300FAA3E0FB22C082C08374FF1216CE1206C0
:106D330020E9C39402851882851983400474028074
:106D430002740AF0AC82AD837A017905120AA07449
:106D5300011216E4D083D08202013574F212172592
:106D630074E81216CEEAFEEBFF890A8C088D097CC3
:106D7300187D007900851882851983AA82AB831256
:106D830004A6851882851983EEF0A3EFF09002A87C
:106D9300E0C0E07402121719D0E0F09002A9E0C03D
:106DA300E07403121719D0E0F09009F8E0C0E07422
:106DB30017121719D0E0F07415121719E054FEF8E2
:106DC300A3E0F99009F7E0A2E0E433FAE84AF874A3
:106DD30015121719126F08A2E15004D2F08002C2F3
:106DE300F0E854FDFAA2F0E43333F8EA48F87415F6
:106DF300121719126F08A2E35004D2F08002C2F0F6
:106E0300E854F7FAA2F0E433F50C750D0074037837
:106E13000C1216BB126F01121719126F08A2E4505D
:106E230004D2F08002C2F0E854EFFAA2F0E433F5A2
:106E33000C7404780C1216BB126F01121719126F1F
:106E430008A2E55004D2F08002C2F0E854DFFAA2AF
:106E5300F0E433F50C7405780C1216BB126F0112B3
:106E63001719126F08A2E25004D2F08002C2F0E8B0
:106E730054FBFAA2F0E433F50C7402780C1216BB3F
:106E8300126F01121719E8F0A3E9F09002A9E0606C
:106E93001D750C10780C1219387CAA7D0274061229
:106EA3001719AA82AB8312048E74021216E490029D
:106EB300BAE06011E50A60097415121719E044027B
:106EC300F07801800278007414121719E048F090EA
:106ED30002A7E06004780480027800741412171982
:106EE300E048F0AC08AD09851882851983AA82AB06
:106EF300831209B674181216E47F060217F7EA45DF
:106F03000CF8741522E8F0A3E9F09009F7E0227475
:106F1300F312172574E51216CEEAFEEBFF8C098DEA
:106F23000A7428121719E0F50C75F006E9A4F87431
:106F330008650A700474228002742128F50B7C1BF7
:106F43007D007900851882851983AA82AB83120498
:106F5300A6851882851983AC82AD837A1BA90B128F
:106F6300079AE97032741A121719E024F9C3940AC4
:106F73005025E50CF50B780B12193C740112171907
:106F8300AC82AD83E509A2E0E433F9EEFAEFFB123C
:106F930009C874011216E4741B026BD374F7121739
:106FA30025120C92750800E50875F00EA4F8A9F0F7
:106FB30074C228FE740239FF7C0679FFEEFAEFFBF8
:106FC300120506E97009EEFAEFFB7900120C980539
:106FD30008E508C3940A40CF026A7574F6121725B0
:106FE30074FD1216CEEAFEEBFF90035C1270FA708A
:106FF3003975085E75090378081219387508027522
:107003000900780812193875082A75098178081259
:1070130019387CFF7DFF7A017B00120AE2740612A5
:1070230016E490035CEAF0A3EBF090035C1270FAB1
:1070330070030270E1E4F508F50978081219387451
:107043000412171985820885830978081219387480
:107053000412171985820885830978081219389054
:10706300035E12194F790290035C1270EF120C0841
:1070730074081216E4E97034851882851983E0FADE
:107083007401121719E0F9EA2400F508E439F50947
:10709300EA45096017780812193890035C126CF9F5
:1070A300A31270EF1205D874021216E4E4F508F582
:1070B30009780812193890035E12194F7CFF7DFF7F
:1070C30090035C126D22120AEE74041216E490030C
:1070D3005CEAF0A3EBF090035C1270FA70047901A0
:1070E3008002790074031216E4026D011268C0EE87
:1070F300FAEFFB229002C0E0F8A3E0F9E84922C0CE
:1071030082C08390035A1270FA601090035A126D72
:10711300221204B890035AE4F0A3F09009F9740A18
:10712300F0026D5774EE121725890B8A0C8C0E8DA5
:107133000F750A001272286005791102720A74121F
:10714300121719E0F508A3E0F509E5084509603CC5
:107153007A217B0012092C8A108B11A810A911E542
:10716300082415FEE5093400FF8E828F83E0C3985F
:10717300E49940187A227B0012092C8A108E828FA0
:1071830083E0FAC3E5109AEB940050047902807708
:107193007A637B0012051E90093CEAF0A3EBF01220
:1071A300722870047913805F7C637D007900120478
:1071B300A6127216E4F090093C1277DAE50BF0128E
:1071C3007216A3E50CF090093C12792AE50EF0A3A0
:1071D300E50FF0127CB2E508F0A3E509F0127E4852
:1071E300241812720FE4F0A3F0127CB8E4F0E50B5C
:1071F300600612124AE9F50A1272167401F0E50AE2
:107203006003121280A90A7F0A0217F7F582E812B7
:107213007CC92212721A2290093C1272212212771F
:10722300DEA322E9FE90093C12767BE8492274F63C
:107233001217257E001272286019E0C8241AF582FD
:10724300E812762E740268600F740368600A74048F
:1072530068600579120272FC12730D6C7003A3E06F
:107263006D600579020272FC7508108E09780812A8
:107273001938EAFCEB1272FF12048E74021216E440
:10728300791090093CE0242BFAA3E03400FB12119F
:10729300D290093CE0241BF508A3E03400F50978FB
:1072A30008121938127A091272FF12123874021274
:1072B30016E490093CE02401127CA7E0FA90093C13
:1072C300E0FBA3E0F5838B82E0600D74036A702713
:1072D300888289837402801974046A700988828998
:1072E300837402F0801174036A700C88828983743A
:1072F30005F0121250E9FEEEF9027D6FFD90093C94
:10730300E02407FAA3E03400FB2290093CE0F8A351
:10731300127F8CE022C082C08390093E0276817482
:10732300F712172512722660131273136A7003A3E0
:10733300E06B700874016E70031212807F010217F4
:10734300F7C082C083791712128602768674F4120C
:10735300172574ED1216CEEAF8EBF9851882851914
:1073630083E4F088828983A3A3A3A3A3A31278CC85
:107373008A828B83E0F50AE82402F8E93400F9E80D
:10738300FEE9FFE50A14603314603014604B1460A7
:107393007214607D1470030274221470030274303B
:1073A30014700302743E14700302744C14700302CD
:1073B300745A1470030274680274777401121719F3
:1073C300AC82AD831212E6E9F8741268701985185D
:1073D30082851983740602747F7401121719AC82B3
:1073E300AD831212F2E9F8E860030274C7750B0764
:1073F3001278C8120DFAEA4B60030274827508080A
:107403000274BE7401121719AC82AD831212FE808E
:10741300D47401121719AC82AD8312130A80C67497
:1074230001121719AC82AD8312131680B8740112BE
:107433001719AC82AD8312132280AA740112171993
:10744300AC82AD83121334809C7401121719AC8281
:10745300AD8312133A808E7401121719AC82AD8377
:1074630012134680807401121719AC82AD83121374
:10747300520273E88518828519837407F0804E9051
:10748300048AE0A2E35005900940800390093E126C
:10749300722B6024127984F8A3E0F98909E845097D
:1074A30060167401121719AC82AD83A90A8882850C
:1074B3000983121723E9F50B850B088518828519B3
:1074C30083E508F0851882851983E0600CAC82ADF2
:1074D300831278C812122680031211AE7413121687
:1074E300E47F040217F774F6121725ECFEEDFF751F
:1074F300080475091378081219387902121358749D
:10750300021216E4E9F5088E828F83E0F9121286DF
:10751300A908027D6F74F4121725EAFEEBFF8908B0
:1075230012722870030276041273136E7003A3E0C1
:107533006F600302760490093CE0240108A3E03461
:1075430000F9E8FAE9FB8A828B83E0F87406686045
:10755300030275F11277D2607C90093D127F861287
:10756300767B90093CE0FCA3E0CC2418F582EC1276
:107573007EBBFCA3E0FDE82413F582E912762EA27C
:10758300E050168C828D83A3A3A3A3A3E0A2E050B3
:10759300088A828B8374078034E8540260168C82D5
:1075A3008D83A3A3A3A3A3E0540260088A828B83E1
:1075B30074098019E8540460178C828D83A3A3A3F4
:1075C300A3A3E0540460098A828B83740BF08015B3
:1075D300900940800390093E12722B600812766A6C
:1075E3006003121723127663703C7900800E7411C6
:1075F30068700EE5086003750832A90812128680C8
:1076030025E5087018EEFAEFFB120DFA8A828B83D8
:10761300E58245836007A3A3A3E0D2E4F0EEFAEF8B
:10762300FBA908120A0A79010274E4127CC9E0F882
:1076330022C082C08312722860241279847005905C
:10764300093E800390094012722B600812766A602B
:1076530003121723127663700579001212868023B2
:1076630012721AE06412221278C4A3A312767B88E2
:10767300828983E582458322E0F8A3E0F922EAF0D8
:10768300A3EBF0D083D08202013574E8121725747E
:10769300E91216CE851882851983EAF0A3EBF08CE4
:1076A300168D17742F121719E0F514A3E0F51512B0
:1076B3007228700579120277C8127989120DFA8A35
:1076C300088B09AE08AF09EE4F700579140277C82D
:1076D3007402121719AA82AB83121292EE2405F5D3
:1076E30012EF3400F513EE2404F510EF3400F51116
:1076F3001277D26032740212171985820C85830DBA
:107703001277E7FEA3E0FF12097AE9F50E7900127A
:1077130009808A0A8B0B851082851183E0F50F851A
:10772300120885130980301277E7F50CA3E0F50DF5
:107733007402121719AE82AF8312097AE9F50F7931
:10774300001209808A088B09851082851183E0F570
:107753000E85120A85130B7410121719AC82AD83B0
:10776300EEFAEFFB1212DA7409121719AC82AD8329
:10777300AA0CAB0D1212D478141219387808121906
:1077830038E50FF508780812193C780A121938748D
:10779300101217198582088583097808121938741D
:1077A300191217198582088583097808121938A9CF
:1077B3000EAC16AD17740B1217191278CC1211C038
:1077C300740B1216E474171216E47F100217F79065
:1077D300093C1277DAE0221277DE22E0F8A3E0F523
:1077E3008388822290093DE0C82418127CC6E022D7
:1077F30074F612172574F71216CEEAFEEBFF8C0807
:107803008D0990093E12722B70030278BF1278C45F
:1078130012722B70030278BF8C828D83E0C0E074F8
:1078230002121719D0E0F08C828D83A3E0C0E074BC
:1078330003121719D0E0F08C828D83A3A3E0F974AF
:1078430004121719AA82AB831211DE8508828509F7
:1078530083A3A3A3E0C0E07406121719D0E0F08558
:107863000882850983A3A3A3A3C082C083740712DC
:107873001719AC82AD83D083D08274021215E174E0
:1078830002121719AC82AD837901EEFAEFFB90096E
:107893003E1277D5F8A31278C4121723E98518820C
:1078A300851983F060167401121719E9F0AC82ADE3
:1078B300838E828F83A31278CC1212267409027DE1
:1078C3006C1277E1228E828F83E0FAA3E0FB2274AD
:1078D300F21217258908740E121719E0F50AA3E0AE
:1078E300F50B7410121719E0F50CA3E0F50D9009D0
:1078F3004012722B602A90094012792AA3E0FEA35A
:10790300E0FFEE4F601A780C121938780A12193812
:10791300A9088E828F8312172374041216E480023F
:1079230079027F060217F71279952274F61217254A
:1079330074F91216CE127228603D85188285198358
:10794300AA82AB8312129212798912798160087527
:1079530008D475091280067508DA750912780812B9
:1079630019387402121719AC82AD837907121358B0
:1079730074021216E4800279017407027D6C900987
:107983003D1278C4E022127992E0FAA3E0FB229040
:10799300093C127221A3A32274F612172574F01264
:1079A30016CE750810750900780812193890093C2D
:1079B300E0241BFCA3E03400FD7402121719AA8211
:1079C300AB8312048E74021216E47508EC75091267
:1079D300027D4F74F612172574F01216CE75081037
:1079E3007509007808121938127A09FD7402121702
:1079F30019AA82AB8312048E74021216E47508F876
:107A0300750912027D4F90093CE0242BFCA3E0345E
:107A1300002274F01217258A088B09750A007A0769
:107A23007B0012051E90093CE02418127CA7EAF0A3
:107A3300A3EBF088828983E0FA4B7003027C79120E
:107A43007CB2E0FEA3E0FF750C07750D00780C1205
:107A53001938AC08AD0912048E74021216E41277B9
:107A6300D26003027BEDEE2413FCEF3400FD1277AA
:107A7300E72405F50CA3E03400F50D8C828D831209
:107A8300767B850C82850D83E0A2E092F0E8A2E08C
:107A930020F001B35007A2E0E433FA80027A00E851
:107AA30054FE4AF88C828D83127C95C313A2E09214
:107AB300F0E8C313A2E020F001B35012E8540260CF
:107AC30004D2F08002C2F0A2F0E433FA80027A001A
:107AD300E854FDF8EAC333FAE433FBE84AF8E94B28
:107AE300127CA1543FA2E092F0E81313543FA2E0AA
:107AF30020F001B35013E854046004D2F08002C2B2
:107B0300F0A2F0E433F50E8003750E00750F00E864
:107B130054FBFAE9FB7402780E1216BBEA450EF821
:107B2300EB450F127CA113541FA2E092F0E813134C
:107B330013541FA2E020F001B35013E8540860046B
:107B4300D2F08002C2F0A2F0E433F50E8003750E8A
:107B530000750F00E854F7FAE9FB7403780E121668
:107B6300BB127C83540FA2E092F0E8C4540FA2E04E
:107B730020F001B35013E854106004D2F08002C225
:107B8300F0A2F0E433F50E8003750E00750F00E8E4
:107B930054EFFAE9FB7404780E1216BB127C8313BC
:107BA3005407A2E092F0E8C4135407A2E020F001C6
:107BB300B35013E854206004D2F08002C2F0A2F064
:107BC300E433F50C8003750C00750D00E854DFFAFF
:107BD300E9FB7405780C1216BBEA450CF8EB450D6E
:107BE300F98C828D83E8F0A3E9F085088285098307
:107BF300A3E0600F8E828F83A3E06007127CB874CA
:107C030005806B850882850983A3A3E0540470145F
:107C1300EE2412F582EF127EBBA2E24007127CB87B
:107C23007401804A1277D28E828F83600CE0F885CC
:107C33000882850983E0F9800AE0F98508828509CD
:107C430083E0F8E8C394055028E9C39405502288DB
:107C530008E975F005A4F8A9F0745028F874803980
:107C6300F9E82508127EB8C0E0127CB8D0E0F080B5
:107C730008750A188003750A13A90A7F080217F703
:107C8300EA450EF8EB450F127C8FC422F98C828DE6
:107C930083E8F0A3E9F0850C82850D83E022127C52
:107CA3008F131322F8A3E03400F988828983221208
:107CB3007992A3A32290093CE0F8A3E0C8241A1206
:107CC3007CC622F582E83400F5832274F612172568
:107CD3007508107509137808121938791112135899
:107CE3007402027D6C74F612172574EE1216CEEA36
:107CF300FEEBFF741C1217191278CC8518828519B4
:107D030083ECF0A3EDF075080875090078081219E3
:107D130038EAFCEBFD7404121719AA82AB83120430
:107D23008E74021216E475081C750913780812196B
:107D3300387402121719AC82AD83790BEEFAEFFB9C
:107D430012135874021216E47412801D7808121963
:107D5300387402121719AC82AD8379111279891222
:107D6300135874021216E474101216E47F020217F9
:107D7300F774F6121725750828750913027CD97450
:107D8300F412172574F91216CEEAFEEBFF8518825A
:107D9300851983E9F0750A06750B00780A121938FC
:107DA3007403121719AA82AB8312048E740212167B
:107DB300E4750A2E750B13780A1219387402121718
:107DC30019AC82AD837908EEFAEFFB1213587402F3
:107DD3001216E474070274E174F61217257508404D
:107DE300750913027CD9C082C0831272286050E0E7
:107DF300C82418127E516003120524127E48245BA6
:107E0300127E516003120524127E48245D127E51B6
:107E13006003120524127E48245F127E5160031210
:107E23000524127E482461127E51600312052490BA
:107E3300093C1278CC12052490093CE4F0A3F0121B
:107E430011B402768690093CE0F8A3E0C822127CC4
:107E5300C6E0FAA3E0FBEA4B2274F712172512726D
:107E630026604FE0C8246112720F12194F127E4828
:107E7300245F12720F12194F127E48245D12720F83
:107E830012194F127E48245B12720F12194F127E81
:107E9300482417F582E8127EBBFB12730DFCA3E0A6
:107EA300FD127981FAEEF9120A1C74081216E41213
:107EB300128002733FF582E9127CC9E022C082C0BE
:107EC30083791090093C127E54603990093CE0F8A4
:107ED300A31277EAFAA3E0FBEAFCEBFDEC4D602486
:107EE300127CB2127E54601CEA2415F582EB1276E2
:107EF3002E8C828D83A3A3A3A3E0FAC3985003EA35
:107F03008001E8F902768674F6121725EAFEEBFF84
:107F13001272286062127F8612722B605A88088957
:107F23000988828983E08E828F83F088828983A384
:107F3300E08E828F83A3F0E82412127EB8F9EE2438
:107F430002FAEF3400FB1211DEE5082415F582E591
:107F530009127EBB8E828F83A3A3A3A3F0E508241B
:107F630013F582E509127212EE2405FCEF3400FDCD
:107F730074021215E180097C077D0079001204A6C2
:107F8300027D6F127F8CA3A3221277E1A3A3A32206
:107F9300C082C0837A187B0012051E900295EAF016
:107FA300A3EBF07C187D0079001204A67900120E71
:107FB300247901120686790212135E7903120734BB
:107FC3007904120D4C7905120A7C7906120B6C792F
:107FD300071212C279081207BE7909120632790A0A
:0F7FE300120B96790B1207E2D083D08202013580
:087FF800851A87C2AF020135B2
:108000009C08120BA808180BB4081E0BC008240B00
:10801000CC082A0BDE082A0BEA08300BC008360B06
:10802000D8083C0B00000000FC083C0B0809420B80
:108030000000000000000000000000000000000040
:108040000000000000000000000000000000000030
:108050000101020102010102010203030401030103
:108060000101010103030201032A0E920664133A7F
:1080700007520D820A720BC812C40738069C0BE81F
:108080000748617264776172652052657669736929
:108090006F6E004669726D77617265205265766910
:1080A00073696F6E00536F667477617265205265F5
:1080B000766973696F6E004D616E75666163747584
:1080C000726572204E616D650000000000000000C6
:1080D000000000000000000087F401FA0096006430
:1080E000004B0032001E001400FB349B5F80000038
:1080F00080001000000000000053657269616C2070
:108100004E756D62657200FE006578706572696D0E
:10811000656E74616C4D6F64656C204E756D626543
:1081200072007869E0AB50C3F0D202290000000071
:10813000001BB20AB80A00002A0830080000120822
:10814000180800000000020C000000000000000001
:10815000B40500000000010203040540420F0001C5
:1081600000000031B1E1FF88130000C600000002EA
:1081700000000030750000C201000032000000E87D
:1081800003000060EA0000FFFFFFFF00001000E7AF
:10819000FFFFFF6400000019000000419C00004345
:1081A0000000000100FF000000FF007D0000001043
:1081B00027000002E08102FA8102DA8102CA81020C
:1081C000D8810129032801280028F0FFF1FFF2FFE0
:1081D000F3FF002AF5FF012A0118E0FFE1FF022A60
:1081E0000018032A502A2A2A042A292A282AF4FFB6
:1081F000272A262A252A242A232A0A18052A0C7423
:10820000F4121725907803E06442705590074DE012
:1082100014F0704DC2AF12821900782AD0E0F6181F
:10822000D0E0F6E59F540770057509FF80037509D6
:108230007FC4C0E07829E6F50808E65509F5097419
:108240000B78081216ACD0E02508F8906270E0A216
:10825000E740F8E8C333906272F0906270E0D2E0D9
:10826000F09005D9E0F470030285F9E0F875F003A9
:10827000A4C8AAF02AF974DB28FE740539FFEE249D
:1082800001F582EF3401F583E0F8A3E0F9E84960F5
:108290001EEE2401F582EF3401F583E0FAA3E0FB42
:1082A000EE2400F582EF3401F583E0F91204E28E4A
:1082B000828F83A3A3A3A3A3A3A3E0F8A3E0F98ED3
:1082C000828F83A3A3A3A3A3E8F0A3E9F090605453
:1082D000E09005B2F0906055E09005B3F0906056E4
:1082E000E09005B4F0906057E09005B5F0906058CC
:1082F000E09005B6F0906059E09005B7F090605AB4
:10830000E09005B8F090605BE09005B9F090605C9B
:10831000E0FC9005BAF090605DE0FB9005BBF0904A
:10832000605EE0FD9005BCF090605FE0FA9005BDF6
:10833000F09005B8E08C082508F8E43400F98D08C1
:10834000E82508F8E93400F98B08E82508F8E9344D
:1083500000F98A08E82508FAE93400FBEE24F6F56E
:1083600082EF3400F583E02AF0A3E03BF08C08EEC6
:1083700024F8F582EF3400F583E02508F0A3E0341B
:1083800000F0EE24FAF582EF3400F583E02401F0EA
:10839000A3E03400F0EE24FEF582EF3400F583E034
:1083A000F8A3E0F9E8496042906000E0C333FCE4E0
:1083B00033FDE82CF582E93DF583E02AF0A3E03BAC
:1083C000F0906000E0FA9005BAE0FCEAC333FAE40A
:1083D00033FBE82AF8E93BF9E8244AF582E934005E
:1083E000F583E02CF0A3E03400F09005B8E07011C4
:1083F0009005BBE0700BA3E07007A3E0700302845C
:10840000F68E828F83A3A3A3A3A3E0F8A3E0F9EEE3
:10841000240DF582EF3400F583E028F8A3E039F964
:10842000EE240BF582EF3400F583E8F0A3E9F0EEDB
:10843000240FF582EF3400F583E4F0EE241CF5827E
:10844000EF3400F583E06401701EEE2420F582EF26
:108450003400F583E0F8A3E0F9EE241DF582EF3453
:1084600000F583E8F0A3E9F09005B3E06052EE2454
:108470001CF582EF3400F5837401F0EE2469F58277
:10848000EF3400F583E07038EE2473F582EF3400AA
:10849000F583E0702BEE247FF582EF3400F583E066
:1084A000701EEE2420F582EF3400F583E0F8A3E09F
:1084B000F9EE241DF582EF3400F583E8F0A3E9F02E
:1084C000906062E070030285A98E828F83E0F8A33A
:1084D000E0F9E82406FCE93400FDE82402FAE93476
:1084E00000FB1210BE8E828F83E0F8A3E0C8241236
:1084F000F582E80285AF9005BAE0603AEE240FF508
:1085000082EF3400F583E4F0EE241CF582EF3400B2
:10851000F583E064017040EE2420F582EF3400F52D
:1085200083E0F8A3E0F9EE241DF582EF3400F58333
:10853000E8F0A3E98020EE24FCF582EF3400F58317
:10854000E02401F0A3E03400F0EE241DF582EF34C6
:1085500000F583E4F0A3F0EE240BF582EF3400F590
:1085600083E0F8A3E0F98E828F83A3A3A3A3A3E003
:10857000687003A3E0696003028468EE240FF5824B
:10858000EF3400F583E060128E828F83A3A3A3A350
:10859000A3E064057002A3E0600479088002793EDC
:1085A000EEFAEFFB120F8C8050EE241DF582EF34B3
:1085B00000F583E4F0A3F09061C8E06006121D5955
:1085C000E970F48E828F83A3A3A3E0602C9061C82E
:1085D000E070069060607480F0EEFAEFFB12107CA1
:1085E000E9640160147902EEFAEFFB121F06121023
:1085F00070E96401600312101C7F040217F753BF77
:10860000EF02013574EC1217259005D9E0F875F0EA
:1086100003A4C8AAF02AF974DB28FE740539FF9078
:1086200061D0E07013EE2463F582EF3400F583E04F
:10863000F8A3E0F9E849600FEE241DF582EF34005D
:10864000F583E4F0A38053EE2469F582EF3400F55E
:1086500083E07047EE2473F582EF3400F583E07019
:108660003AEE247FF582EF3400F583E0702DEE249E
:108670001CF582EF3400F583E06401701EEE2420C7
:10868000F582EF3400F583E0F8A3E0F9EE241DF560
:1086900082EF3400F583E8F0A3E9F08E828F83A3A4
:1086A000A3A3A3A3E0F8A3E0F9EE241DF582EF3421
:1086B00000F583E028F8A3E039F9E8240108E9345B
:1086C00000F9EE2407F50AEF3400F50B850A82F570
:1086D00083E8F0A3E9F0EE240BF582EF3400F58394
:1086E000C3E098A3E09950358E828F83A3A3A3A300
:1086F000A3A3A3C082C083EE240BF582EF3400F560
:1087000083E0F8A3E0F9D083D082E0C398F8A3E037
:1087100099F9C3E894AAE994105035803BEE240BF4
:10872000F582EF3400F583C082C0838E828F83A3ED
:10873000A3A3A3A3A3A3E0F8A3E0F9D083D082E08E
:10874000C398F8A3E099F9C3E894ABE994105008F2
:108750009006F0E064017030EE241DF582EF3400E5
:10876000F583E4F0A3F08E828F83A3A3A3A3A3E0F9
:108770002401F8A3E03400F98E828F83A3A3A3A37E
:10878000A3A3A3E8F0A3E9F0EE2473F582EF34008D
:10879000F583E0640160030289FFEE2474F582EF43
:1087A0003400F58312194F8E828F83A3A3A3A3A352
:1087B000A3A3E0FCA3E0FD8E828F83A3A3A3A3A3C6
:1087C000E0FAA3E0FB121D1274021216E4E9700332
:1087D0000289FFEE2474F8EF3400F98808890988CB
:1087E00082F583E0F8A3E0F9850A82850B83E8F03F
:1087F000A3E9F0EE2476FCEF3400FDEEFAEFFB1275
:108800000F98EE247BF582EF3400F583E0F8A3E0C7
:10881000F9EE2420F582EF3400F583E8F0A3E9F0C7
:10882000EE241CF582EF3400F583E4F0EE241DF510
:1088300082EF3400F583E4F0A3F0EE240FF582EF2D
:108840003400F5837401F0850A82850B83E0F8A378
:10885000E0F9EE240DF582EF3400F583E028F8A36B
:10886000E039F9EE240BF582EF3400F583E8F0A34C
:10887000E9F08E828F83A3A3A3A3A3E0FCA3E0FD72
:10888000850882850983E0FAA3E0FB121D518A085E
:108890008B09EE242EF582EF3400F583E0FAA3E095
:1088A000FBE4F50AF50B8A0C8B0DF50EF50F780835
:1088B000790C1213DCEE2477F582EF3400F583E0B7
:1088C000F50CA3E0F50D7808790C121504EE247967
:1088D000F582EF3400F583E06A7003A3E06B704427
:1088E000EE247DF582EF3400F583E0F8A3E0F9EEA5
:1088F0002432F582EF3400F583E0687003A3E06969
:108900007022EE247BF582EF3400F583E0F8A3E0DB
:10891000F9EE2430F582EF3400F583E0687003A3AC
:10892000E0696052EE247DF582EF3400F583E0F5D6
:108930000CA3E0F50D7404780C1216AC780C121927
:1089400038EE247BF582EF3400F58312194FEE24C4
:1089500079F582EF3400F583E0FCA3E0C313FDEC6E
:1089600013FC8E828F83A3A3A3A3E0FA7B00120DD6
:108970001074041216E4EE2476F582EF3400F583C9
:10898000E0C0E0EE242BF582EF3400F583D0E0F078
:10899000EE2479F582EF3400F583E0F8A3E0F9EEF8
:1089A000242EF582EF3400F583E8F0A3E9F0EE24FD
:1089B0007BF582EF3400F583E0F8A3E0F9EE243094
:1089C000F582EF3400F583E8F0A3E9F0EE247DF5BD
:1089D00082EF3400F583E0F8A3E0F9EE2432F5826B
:1089E000EF3400F583E8F0A3E9F0EEFAEFFB120FA5
:1089F0009EEE2473F582EF3400F583E4F08016EEEA
:108A0000242EF582EF3400F583E0F508A3E0F509A4
:108A1000E4F50AF50BEE2418F582EF3400F58378BF
:108A200008121388701EEE241FF582EF3400F583C0
:108A3000E0F8EE241DF582EF3400F583E068700263
:108A4000A3E06039EE2412F50CEF3400F50D780C3C
:108A5000121938EE2410F582EF3400F58312194F05
:108A6000EE241DF582EF3400F58312194FAA08ABEE
:108A700009AC0AAD0B12285074061216E4EE241845
:108A8000F582EF3400F58378081215ADEE241DF55C
:108A900082EF3400F583E0C0E0EE241FF582EF346E
:108AA00000F583D0E0F0EE2412FCEF3400FD8E825E
:108AB0008F83E02402FAA3E03400FB12278B90603E
:108AC00062E060147C2C7D818E828F83E02402FA28
:108AD000A3E03400FB12278B8E828F83E0F8A3E0A3
:108AE000F988828983A3A3E82408FCE93400FD7493
:108AF000061215E18E828F83E02402F8A3E0340091
:108B0000F9E8FAE9FBEE241DF582EF3400F583E085
:108B1000F510A3E0F511E4F512F513750C01F50D50
:108B2000F50EF50F7810790C1215047810790812EB
:108B300013DC8A828B83781012152A8A828B8375C4
:108B40000CFF750DFF750EFF780C12158B9006EA61
:108B5000E064016003028C8C79011211068E828F11
:108B600083E0FAA3E0FB7508FF7509FF750AFF753E
:108B70000BFFEA240EF582EB3400F583780812151A
:108B8000ADEA2412F8EB3400F9E8FAE9FBEE24121E
:108B9000F582EF3400F583780812159EE50875F02C
:108BA000E2A4C508A8F075F004A428F875F0E2E581
:108BB00009A428F5098A828B83E02508F0A3E03513
:108BC00009F0EE2416F582EF3400F583E0F508A3F2
:108BD000E0F509740478081216ACE5082401F8E5FC
:108BE000093400F98A828B83E028F0A3E039F09001
:108BF0006062E08E828F837003028D00E0F8A3E054
:108C0000C82412F582E83400F583E02410F0A3E0D4
:108C10003401F0EE240FF582EF3400F583E060328A
:108C2000EE242BF582EF3400F583E0F875F071A4A3
:108C3000C8AAF075F002A42AF98E828F83E0FAA305
:108C4000E0CA2412F582EA3400F583E028F0A3E0BC
:108C500039F08E828F83E0F8A3E0C82414F582E80F
:108C60003400F5837410F08E828F83E0F8A3E0C89F
:108C70002416F582E83400F5837420F0A3740FF015
:108C8000EEFAEFFB121B927900029253750C5075AD
:108C90000D00750E00780C790812139D4003028BAD
:108CA0005DEE241DF582EF3400F583E0F8A3E0F9D2
:108CB000E8496003028B5D7808121934EEFAEFFB85
:108CC000120FA474041216E4E964016003028B5DC0
:108CD000EE240FF582EF3400F583E060128E828F70
:108CE00083A3A3A3A3A3E064057002A3E0600479B7
:108CF000088002793EEEFAEFFB120F8C7901808931
:108D0000E0F8A3E0C82412F582E83400F583E024FB
:108D100010F8A3E034FFF97A717B02121643880839
:108D20008909EE242EF582EF3400F583E0F8A3E004
:108D3000F9C3E50898E509995003028C1380B074D3
:108D4000EC121725EAFEEBFF8C828D83E0F8A385F9
:108D50008208858309603B147003028F2714700317
:108D600002921C147003028FA324FD70030290BCB6
:108D700014700302925314700302911324FE7003C3
:108D80000290C114700302910314700302919F02B8
:108D90009242EE2476F510EF3400F511E085108252
:108DA000851183F0850882850983A38582088583E0
:108DB00009EE2477F50EEF3400F50F7902AC08AD1B
:108DC00009AA0EFB120FB68A088B09EE2479F50C5E
:108DD000EF3400F50D7902AC08AD09AA0CFB120FB7
:108DE000B68A088B097902AC08AD09EE247BFAEF4C
:108DF0003400FB120FB68A088B09EE247DF50AEFCA
:108E00003400F50B7902AC08AD09AA0AFB120FB6C3
:108E10008A088B09851082851183E0C333F0850EA3
:108E200082850F83E0F8A3E0F9E8C333F8E933F96A
:108E3000850E82850F83E8F0A3E9F0850C82850D0D
:108E400083E0F8A3E0F9E8C333F8E933F9850C824D
:108E5000850D83E8F0A3E9F0850A82850B83E0F5B0
:108E60000CA3E0F50D7404780C1216BB850A8285FC
:108E70000B83E50CF0A3E50DF0EE2474F50AEF3456
:108E800000F50B7902AC08AD09AA0AFB120FB685F2
:108E90000A82850B83C082C0838E828F83A3A3A3A3
:108EA000A3A3E0F8A3E0F9D083D082E0C398F8A3AD
:108EB000E099F9C3E894FFE9947F4003028F7DEEC7
:108EC000247DF582EF3400F583E0F508A3E0F50991
:108ED000E4F50AF50BEE247BF582EF3400F583E030
:108EE0002401F50CA3E03400F50DE4F50EF50FEECA
:108EF0002479F582EF3400F583E0F8A3E0F9E8C3C4
:108F000033F8E933F988108911E4F512F513780C78
:108F100079101213DC7808790C12139D4004793B08
:108F2000805DEE24738062EE2480F50AEF3400F554
:108F30000B7402C0E07905AC08AD097AE57B061236
:108F40000FB6EAFCEBFDD0E0F9AA0AAB0B120FB6A4
:108F5000850A82850B83C082C0838E828F83A3A300
:108F6000A3A3A3E0F8A3E0F9D083D082E0C398F8EC
:108F7000A3E099F9C3E894FFE9947F40097928EECA
:108F8000FAEFFB02923DEE247FF582EF3400F58389
:108F90007401F0EE241DF582EF3400F583E4F0A3B4
:108FA00002910FEE24E1F582EF3400F583E0703991
:108FB000EEF8EFF97ABE7B058A828B83A3E0C0E0EE
:108FC000E824E2F582E93400F583D0E0F08A828B70
:108FD00083A3AA82AB8388828983A3A882A983EA18
:108FE00064C67003EB640570CFEE24E2F582EF34C3
:108FF00000F583E0A2E0EE401124DDF582EF3400BD
:10900000F583741AF0790D0292162462F582EF341A
:1090100000F583E4F0EE2467F582EF3400F583E495
:10902000F0EE24E0F582EF3400F5837401F0790866
:10903000AC08AD09EE249BFAEF3400FB120FB68AA0
:10904000088B097902AC08AD09EE24A3FAEF3400CD
:10905000FB120FB68A088B09EE2493F50AEF340051
:10906000F50B7908AC08AD09AA0AFB120FB68A08FD
:109070008B097908AA0AAB0B120FBCEE2487F50AFC
:10908000EF3400F50B7904AC08AD09AA0AFB120F06
:10909000B67904AA0AAB0B120FBCEE248BFAEF349C
:1090A00000FB120FCEEE2483FAEF3400FB120FD434
:1090B0009005ADE04480F07904029216EE24DE8043
:1090C00045EE2462F582EF3400F583E4F0EE246788
:1090D000F582EF3400F583E4F0EE24D2F582EF342C
:1090E00000F583E4F0EE24DCF582EF3400F58374C0
:1090F00001F0EE24D3F582EF3400F583E4F0790B30
:10910000029250EE24DFF582EF3400F5837401F013
:10911000029253EEF8EFF97ABE7B058A828B83A325
:10912000E0C0E0E824E2F582E93400F583D0E0F025
:109130008A828B83A3AA82AB8388828983A3A88235
:10914000A983EA64C67003EB640570CFEEF8EFF90B
:109150007ABE7B058A828B83A3E0FC850882850921
:1091600083E05CC0E0E824E2F582E93400F583D0D6
:10917000E0F0850882850983A38582088583098AB2
:10918000828B83A3AA82AB8388828983A3A882A9C6
:1091900083EA64C67003EB640570B979098077EEE1
:1091A00024EAF582EF3400F583E064017003029253
:1091B00042850882850983E0C0E0EE24EDF582EF68
:1091C0003400F583D0E0F0850882850983A3858289
:1091D000088583097402C0E0F9AC08AD09EE24EEFD
:1091E000FAEF3400FB120FB6EAFCEBFDD0E0F9EE2B
:1091F00024F0FAEF3400FB120FB6EE24EAF582EF0A
:109200003400F5837401F0EE24ECF582EF3400F5C0
:1092100083E0703F790CEEFAEFFB8034EE24F4F833
:10922000EF3400F9E088828983F0EE24F3F582EFD1
:109230003400F5837401F088828983E0F9120F8C81
:109240008011EE24F5F582EF3400F583E8F079071C
:10925000120F5C7F0C0217F774F6121725EAFEEB6B
:10926000FF02949EEEFAEFFB120F500296EAEE24F4
:1092700069F582EF3400F583E06401703E9005B536
:10928000E0700302957AEEFAEFFB120F62EE24A370
:10929000F508EF3400F5097808121938EE249BFC24
:1092A000EF3400FD8E828F83A3A3A3A3E0FA7B009B
:1092B000120D1C74021216E402949EEEFAEFFB12D9
:1092C0000F260296EAEE2469F582EF3400F583E07A
:1092D000640170559005B5E06031EE2482F582EFAF
:1092E0003400F5837401F0EE24D4F582EF3400F5F8
:1092F00083E4F0A3F0A3F0A3F0EE24D8F582EF34DA
:1093000000F583E4F0A3F0A3F0A3F0EE24DEF582F1
:10931000EF3400F583E06401600302957A7906EE8C
:10932000FAEFFB120F6802949EEE24D2F582EF341E
:1093300000F583E06401702AEEFAEFFB120F2CE9CE
:1093400064016003029707EE24DEF582EF3400F536
:1093500083E4F0EE2469F582EF3400F583740102B2
:1093600096F5EE24D3F582EF3400F583E070030226
:109370009707EE24B2F508EF3400F50978081219C2
:1093800038EE248BFCEF3400FDEE24C2FAEF3400FB
:10939000FB120FDA74021216E4EE24D2F582EF34D7
:1093A00000F5837401029466EE2469F582EF3400BF
:1093B000F583E0640160030294699005B5E07003F1
:1093C00002957AEE2420F582EF3400F583E0F8A3CD
:1093D000E0F9EE241DF582EF3400F583E8F0A3E90F
:1093E000F0EEFAEFFB120F62EE2462F582EF34002A
:1093F000F5837401F0EE2467F582EF3400F5837491
:1094000001F0EE24DCF582EF3400F583E0640170B6
:109410001379008E828F83A3A3A3A3E0FA7B0012AB
:109420000D2880137C0179008E828F83A3A3A3A3D0
:10943000E0FA7B00120D22EE24DCF582EF3400F519
:1094400083E4F0EE24E0F582EF3400F583E4F0EEFF
:1094500024DFF582EF3400F583E4F0EE24DEF582BC
:10946000EF3400F583E4F08035EEFAEFFB120F32B3
:109470000296EAEE2469F582EF3400F583E0640198
:109480006003029509EE24DFF582EF3400F583E0F6
:109490006401600302957AEEFAEFFB120F62EE248C
:1094A0006EF582EF3400F583E07003029707EE2437
:1094B0006AF582EF3400F583E024FE602F24FE700D
:1094C0000302926E1470030292C51470030293A8F3
:1094D0001470030296F824FE70030295AC24FE601B
:1094E000921470030295F914604C80B2EE2469F571
:1094F00082EF3400F583E06401600302926490051A
:10950000B4E0607679160296CBEEFAEFFB120F38D4
:10951000E964016003029707EE24DFF582EF34006F
:10952000F583E4F0EE2482F582EF3400F583E4F075
:10953000EE246902939CEE2469F582EF3400F583F2
:10954000E06401705D9005B5E06026EE2482F5824E
:10955000EF3400F583E4F0EE2462F582EF3400F599
:10956000837401F0EE2467F582EF3400F583740113
:10957000F09005B4E06003029497EE2471F8EF34A4
:1095800000F988828983E024FFF0A3E034FFF088AB
:10959000828983E0F8A3E0F9E849600302970702B3
:1095A00096C9EEFAEFFB120F3E0296EAEE2469F539
:1095B00082EF3400F583E0640170349005B5E0601B
:1095C000B9EE24E1F582EF3400F5837401F0EE2466
:1095D00020F582EF3400F583E0F8A3E0F9EE241DD6
:1095E000F582EF3400F583E8F0A3E9F0029497EEFA
:1095F000FAEFFB120F440296EAEE2469F582EF348B
:1096000000F583E0640160030296D6EE24EAF58259
:10961000EF3400F583E064017051EE24EBF582EF46
:109620003400F583E064016003029497EE24F0F5C2
:1096300082EF3400F58312194FEE24EEF582EF34F9
:1096400000F58312194FEE24EDF582EF3400F58317
:10965000E0FC8E828F83A3A3A3A3E0FA7B007900B2
:10966000120D1674041216E4029497EE2471F8EFAA
:109670003400F988828983E024FFF0A3E034FFF00E
:1096800088828983E0F8A3E0F9E849707AEE24F053
:10969000F582EF3400F58312194FEE24EEF582EFD8
:1096A0003400F58312194FEE24EDF582EF3400F506
:1096B00083E0FC8E828F83A3A3A3A3E0FA7B0079CF
:1096C00022120D1674041216E47922EEFAEFFB1240
:1096D0000F8C79018033EE24ECF582EF3400F583B2
:1096E0007401F0EEFAEFFB120F4AEE2469F582EFF7
:1096F0003400F583E9F0800FEEFAEFFB120F56E924
:109700006401700302949779007F020217F7C08208
:10971000C083900780E4F090077F74FFF090079873
:10972000E4F090079774FFF090077CF090077BE4DB
:10973000F090077AF090077DF0A3F002A6DA74E8C3
:1097400012172574FE1216CE90077DE0F514A3E0E3
:10975000F515E51445157006120EE4029E0D8514EC
:1097600082851583E014601814601524FE601124AE
:10977000C470030299E524C070030299E5029E0DAE
:10978000E0F91210288A088B09AE08AF099005D8B5
:10979000E07003029918120F80E9F875F003A4C86D
:1097A000AAF02AF974DB28F8740539F9851882853E
:1097B0001983E8F0A3E9F0851882851983E0F8A3FE
:1097C000E0F5838882E0F516A3E0F517EE4F70030D
:1097D0000298F21210C48A088B098C0A8D0B750C42
:1097E00001750D00750E00750F007808790C1215C3
:1097F00004750CFF750DFF750EFF7808790C1215B6
:109800006575101A7511007512007513007808122D
:109810001934851682851783A3A31215BC12271C41
:1098200074041216E48A0C8B0D8C0E8D0F7810794F
:109830000C12139D50030298F2851682851783A39C
:10984000A3750CE7750DFF750EFF750FFF780C12F1
:109850001517780C1219348E828F83A3A31215BCAE
:109860001226C374041216E4E960030298F2750C20
:1098700007750D00750E00750F007808790C12152C
:109880000478081219348E828F83A3A31215BC1298
:1098900026C374041216E4E970537508008E828F93
:1098A00083E064016003029E0DEE65147003EF65B2
:1098B000156003120EFCE50870301210C48A088B84
:1098C000098C0A8D0B750C037808790C1215047538
:1098D0000CFF750DFF750EFF7808790C1215658E5B
:1098E000828F83A3A378081215AD029C0575080129
:1098F00080AB851882851983E02404FEA3E0340040
:10990000FF8E828F83E0F912105E8E828F83E0904B
:1099100005D9F07902029D0EEE65147003EF65150E
:109920007003029E0A8E828F83E064016003029EB0
:109930000D120EFC1210C48A088B098C0A8D0B754F
:109940000C0A750D00750E00750F007808790C1261
:10995000150478081219348E828F83A3A31215BCC4
:109960001226C374041216E4E970771210C48A0830
:109970008B098C0A8D0B750C037808790C12150471
:10998000750CFF750DFF750EFF7808790C121565C3
:109990008E828F83A3A378081215AD9005ABE06487
:1099A00002702C8E828F83A3A37508007509087539
:1099B0000A0078081215177808790C121565EE243C
:1099C0000EF582EF3400F58378081215AD8013EEA2
:1099D000240EF582EF3400F58374FFF0A3F0A3F0BA
:1099E000A3F0029E009005D8E07003029D2A120F9A
:1099F00080E9F875F003A4C8AAF02AF974DB28F806
:109A0000740539F9851882851983E8F0A3E9F08592
:109A10001882851983E0F8A3E0F5838882E0F516C3
:109A2000A3E0F5179005D9E0F875F003A4C8AAF0F3
:109A30002AF974DB28F514740539F51590077BE0D5
:109A400054077003029C2AA3E0F91210288A088B9D
:109A500009AE08AF09EE4F7003029C2A1210C48AA7
:109A6000088B098C0A8D0B750C01750D00750E00A5
:109A7000750F007808790C121504750CFF750DFF31
:109A8000750EFF7808790C12156575101A7511009E
:109A9000751200751300780812193485168285171F
:109AA00083A3A31215BC12271C74041216E48A0C9B
:109AB0008B0D8C0E8D0F7810790C12139D500302B4
:109AC0009C2A851682851783A3A3750CE7750DFF65
:109AD000750EFF750FFF780C121517780C121934DC
:109AE0008E828F83A3A31215BC1226C37404121690
:109AF000E4E96003029C2A750C07750D00750E00E1
:109B0000750F007808790C12150478081219348E34
:109B1000828F83A3A31215BC1226C374041216E409
:109B2000E97005750A008003750A018514828515A0
:109B300083A3A3A3A3E0F875F08AA4C8AAF02AF926
:109B400074AF28F508740739F509AA08FB121058F4
:109B5000AA08AB09121052750C80780C1219387CC7
:109B6000007D60E5082406FAE5093401FB120FE6E2
:109B700074021216E4A808A909906195E0C0E0E813
:109B80002486F582E93401F583D0E0F0906196E017
:109B9000C0E0E82487F582E93401F583D0E0F09055
:109BA0006197E0C0E0E82488F582E93401F583D0CC
:109BB000E0F0906198E0C0E0E82489F582E93401A2
:109BC000F583D0E0F08E828F83E06401705C120E2A
:109BD000FCE50A70301210C48A088B098C0A8D0BC0
:109BE000750C037808790C121504750CFF750DFFC0
:109BF000750EFF7808790C1215658E828F83A3A3EA
:109C000078081215AD851682851783A3A37508F110
:109C10007509FF750AFF750BFF7808121517750C8B
:109C2000FF750DFF750EFF029DD58518828519837E
:109C3000E0F8A3E0F9E514687003E5156970030224
:109C40009D08851482851583A3A3A3E07003029C5D
:109C5000E7851482851583A3A3A3A3E0F875F08A92
:109C6000A4C8AAF02AF974AF28FE740739FFEEFAE7
:109C7000EFFB121058EEFAEFFB12105275088075C8
:109C8000090078081219387C007D60EE2406FAEF8E
:109C90003401FB120FE674021216E4906195E0C0E5
:109CA000E0EE2486F582EF3401F583D0E0F0906198
:109CB00096E0C0E0EE2487F582EF3401F583D0E032
:109CC000F0906197E0C0E0EE2488F582EF3401F572
:109CD00083D0E0F0906198E0C0E0EE2489F582EF57
:109CE0003401F583D0E0F0851882851983E02404DF
:109CF000FEA3E03400FF8E828F83E0F912105E8EA7
:109D0000828F83E09005D9F079029005D9E0FA7549
:109D1000F003A4CAA8F028FB74DB2AFA74053BFB05
:109D2000121F06AA16AB17029E0A90077BE0540783
:109D30007003029E0DA3E0F91210288A088B09AE69
:109D400008AF098E828F83E064016003029E0D12CA
:109D50000EFC1210C48A088B098C0A8D0B750C0A34
:109D6000750D00750E00750F007808790C1215043A
:109D700078081219348E828F83A3A31215BC122681
:109D8000C374041216E4E970771210C48A088B09B0
:109D90008C0A8D0B750C037808790C121504750C60
:109DA000FF750DFF750EFF7808790C1215658E8210
:109DB0008F83A3A378081215AD9005ABE064027001
:109DC0002C8E828F83A3A3750800750908750A007D
:109DD00078081215177808790C121565EE240EF51F
:109DE00082EF3400F58378081215AD8013EE240E4F
:109DF000F582EF3400F58374FFF0A3F0A3F0A3F035
:109E000090077C7401F0EEFAEFFB1210227402123C
:109E100016E47F100217F774F0121725EAFEEBFF25
:109E2000EE2402F8EF3400F988088909EE2406F8D8
:109E3000EF3400F9880A890B8882F58312194F855F
:109E400008828509831215BC1210A074021216E450
:109E5000850A82850B8312194F8508828509831232
:109E600015BC12109474021216E4EE240EF582EF63
:109E70003400F5831215BC1210A68E828F83E06425
:109E800040701CEE2412F8EF3400F988828983E0D8
:109E9000906064F088828983A3E09060658006907A
:109EA0006064E4F0A3F090077DEEF0A3EFF0EE2401
:109EB00016F582EF3400F583E0F8A3E0F58388829D
:109EC000121723906054E4F0A3F0A3F0A3F0A3F0E2
:109ED000A3F0A3F0A3F0A3F0A3F0A3F0A3F090618C
:109EE00082E0C2E6F07591BFEE2415F582EF3400F2
:109EF000F583E0640170031210DCE5E170FCEE24F0
:109F000014F582EF3400F583E0F46003E0F5E1EE50
:109F10002415F582EF3400F5837401F09005B1E06B
:109F2000640170731210C48A088B098C0A8D0B7837
:109F3000081219348E828F83A3A31215BC12271C1A
:109F400074041216E48A088B098C0A8D0B750C05B3
:109F5000750D00750E00750F007808790C1213DC72
:109F6000740378081214CCE50824F4F508E50934E4
:109F700001F50990074AE0600312050CE4F50AF5C3
:109F80000B78081219347A207B009005AAE0F912A8
:109F9000056074041216E47F080217F774F01217B4
:109FA00025890874FF6508600302A0F490077BE030
:109FB0005407700302A592780090077FE064047054
:109FC0003CE875F018A4F8A9F0748028F5827407AD
:109FD00039F583E06401702E7A00787A79078882F7
:109FE0008983A3A3A3A3A3E06404707688828983F2
:109FF000A3A3A3A3A3A3E064017067805308900701
:10A0000097E0640460BB780090077FE064017067AC
:10A01000E875F018A4F8A9F0748028F5827407395F
:10A02000F583E0640170597A00787A79078882892B
:10A0300083A3A3A3A3A3E06401600302A0D6888244
:10A040008983A3A3A3A3A3A3E06401600302A0D612
:10A05000EA75F018A4F8A9F0747F28FA7407390299
:10A06000A58F0AE82418F8E93400F9EAC3940250ED
:10A0700003029FDE02A59208900797E064016090BA
:10A08000780090077FE064027061E875F018A4F82A
:10A09000A9F0748028F582740739F583E0640170B3
:10A0A000537A00787A790788828983A3A3A3A3A32C
:10A0B000E06402707488828983A3A3A3A3A3A3E0AE
:10A0C00064017065EA75F018A4F8A9F0747F28FAA5
:10A0D000740739FB80690AE82418F8E93400F9EAC2
:10A0E000C39402500302A02D02A59208900797E0A6
:10A0F000640260967A00787A790788828983A3A3BC
:10A10000A3A3A3E06508703A88828983A3A3A3A3CD
:10A11000A3A3E06401702BEA75F018A4F8A9F07409
:10A120007F28FE740739FF802C0AE82418F8E934E8
:10A1300000F9EAC39402500302A0A77A007B000250
:10A14000A5960AE82418F8E93400F9EAC394024015
:10A15000A97E007F00780090077FE06508701BE80B
:10A1600075F018A4F8A9F0748028F582740739F501
:10A1700083E06401700D7A01800B08900797E06519
:10A180000860DC7A00E50814601014700302A2F97C
:10A1900024FE700302A40302A592780090077FE0DA
:10A1A00064027055E875F018A4F8A9F0748028F5D9
:10A1B00082740739F583E0640170477B00787A790F
:10A1C0000788828983A3A3A3A3A3E0640260030298
:10A1D000A26788828983A3A3A3A3A3A3E0640160E9
:10A1E0000302A267EB75F018A4F8A9F0747F28F5B4
:10A1F0000A740739F50B02A27F08900797E0640202
:10A2000060A2780090077FE06404600302A2C0E8C7
:10A2100075F018A4F8A9F0748028F582740739F550
:10A2200083E06401600302A2CC7B00787A7907881E
:10A23000828983A3A3A3A3A3E06404600302A2D73B
:10A2400088828983A3A3A3A3A3A3E064016003027C
:10A25000A2D7EB75F018A4F8A9F0747F28F50A745A
:10A260000739F50B02A2EF0BE82418F8E93400F9DE
:10A27000EBC39402500302A1C1750A00750B00EAFA
:10A28000A2E05035850A82850B83A3A3750CF67571
:10A290000DFF750EFF750FFF780C121517780C1255
:10A2A00019348E828F83A3A31215BC1226C37404A3
:10A2B0001216E4E9700302A58CAA0AAB0B02A5965C
:10A2C00008900797E06404700302A20FEAA2E0502E
:10A2D00021EEFAEFFB801F0BE82418F8E93400F9AF
:10A2E000EBC39402500302A22F750A00750B000203
:10A2F000A4E57A007B0002A596780090077FE064D1
:10A30000047051E875F018A4F8A9F0748028F5825B
:10A31000740739F583E0640170437B00787A79072C
:10A3200088828983A3A3A3A3A3E06404600302A398
:10A33000B588828983A3A3A3A3A3A3E06401707556
:10A34000EB75F018A4F8A9F0747F28F50A740739A2
:10A35000F50B807908900797E0640460A678009078
:10A36000077FE064017069E875F018A4F8A9F0743B
:10A370008028F582740739F583E06401705B7B0007
:10A38000787A790788828983A3A3A3A3A3E06401D1
:10A39000705288828983A3A3A3A3A3A3E06401705E
:10A3A00043EB75F018A4F8A9F0747F28F50A740738
:10A3B00039F50B80440BE82418F8E93400F9EBC3B5
:10A3C0009402500302A320750A00750B0002A4E555
:10A3D00008900797E06401608EEAA2E0501EEEFA52
:10A3E000EFFB801C0BE82418F8E93400F9EBC39468
:10A3F000024091750A00750B0002A4E57A007B000B
:10A4000002A596780090077FE064017055E875F02A
:10A4100018A4F8A9F0748028F582740739F583E050
:10A42000640170477B00787A790788828983A3A3C7
:10A43000A3A3A3E06401600302A4CD88828983A35F
:10A44000A3A3A3A3A3E06401600302A4CDEB75F072
:10A4500018A4F8A9F0747F28F50A740739F50B02DF
:10A46000A4E508900797E0640160A2780090077F58
:10A47000E06402600302A524E875F018A4F8A9F0CE
:10A48000748028F582740739F583E0640160030263
:10A49000A5307B00787A790788828983A3A3A3A358
:10A4A000A3E06402600302A53788828983A3A3A383
:10A4B000A3A3A3E06401707FEB75F018A4F8A9F0E2
:10A4C000747F28F50A740739F50B02A54F0BE824B1
:10A4D00018F8E93400F9EBC39402500302A42A757A
:10A4E0000A00750B00EAA2E0400302A2B9850A82C5
:10A4F000850B83A3A3750CF6750DFF750EFF750F05
:10A50000FF780C121517780C1219348E828F83A3E2
:10A51000A31215BC1226C374041216E4E9600302E8
:10A52000A2B9806808900797E06402700302A478DB
:10A53000EAA2E0505D80550BE82418F8E93400F9F0
:10A54000EBC39402500302A498750A00750B00EA4D
:10A55000A2E0400302A2B9850A82850B83A3A375FA
:10A560000CF6750DFF750EFF750FFF780C121517A1
:10A57000780C1219348E828F83A3A31215BC122675
:10A58000C374041216E4E9600302A2B9EEFAEFFB09
:10A5900080047A007B00029F9774F61217258909C0
:10A5A000750800900780E0600302A66AE50875F070
:10A5B00018A4F8A9F0747F28FE740739FF8E828FE3
:10A5C00083A37401F08E828F83E509F01210C48E8C
:10A5D000828F83A3A31215C88E828F83A3A3A3A304
:10A5E000A3A3E4F0A3F0EE240EF582EF3400F5838C
:10A5F00074FFF0A3F0A3F0A3F0EE2414F582EF347F
:10A6000000F5837401F0EE2415F582EF3400F58334
:10A610007401F0EE2416F582EF3400F583E4F0A324
:10A62000F090077BE04509F090077AE004F06401C0
:10A63000600C748065096006744065097019E5084E
:10A6400075F018A4F8A9F0747F28F8740739F99008
:10A65000077DE8F0A3E9F0E50875F018A4F8A9F083
:10A66000747F28FA740739FB8010750801900798E9
:10A67000E0700302A5AC7A007B0080007F02021725
:10A68000F7C082C0838A828B83E0F8A3E0F98A82D4
:10A690008B83E4F0A3F088828983A3F08882898386
:10A6A000E0F4F890077BE058F090077AE014F0703F
:10A6B0000B90077DE4F0A3F09005ABF0801CC08206
:10A6C000C08390077AE0600A90077DE0FAA3E0FB80
:10A6D00080047A007B008002E0F9D083D0820201FE
:10A6E00035C082C083E9FB780090077FE06B70166D
:10A6F000E875F018A4F8A9F0748028F58274073979
:10A70000F583E0F9800A08900797E06B60E2790032
:10A7100080C8C082C08390077B80BDC082C0839008
:10A72000077A02A6D874F6121725EAFEEBFF9061AD
:10A73000D0E0C0E0EE2400F582EF3401F583D0E0F4
:10A74000F09061D7E0F89061D5E0C398547FC0E005
:10A75000EE2401F582EF3401F583D0E0F09061D66C
:10A76000E0C398547FC0E0EE2402F582EF3401F597
:10A7700083D0E0F0701A9061C5E0A2E45012E0A22C
:10A78000E7500DEE2402F582EF3401F5837480F07A
:10A7900012116CEE2401F582EF3401F583E0703480
:10A7A000EE2402F582EF3401F583E070279061C555
:10A7B000E0A2E4501FE0A2E7501AEE2402F582EF77
:10A7C0003401F5837480F0EE2401F582EF3401F555
:10A7D000837480F075E1957800EE2400F582EF3403
:10A7E00001F583E060279061D3E0C0E08808EE25A2
:10A7F00008F582EF3400F583D0E0F008EE2400F590
:10A8000082EF3401F583E0F9E8C39940D975E1910D
:10A8100002A67C74F6121725EAFEEBFF9061C8E0F1
:10A82000C0E0EE2403F582EF3401F583D0E0F09030
:10A8300061CFE0F89061CDE0C398547FC0E0EE2492
:10A8400004F582EF3401F583D0E0F09061CEE0C3EF
:10A8500098547FC0E0EE2405F582EF3401F583D0F3
:10A86000E0F0701A9061C5E0A2E05012E0A2E3505F
:10A870000DEE2405F582EF3401F5837480F012119A
:10A8800072EE2404F582EF3401F583E07034EE2497
:10A8900005F582EF3401F583E070279061C5E0A2F1
:10A8A000E0501FE0A2E3501AEE2405F582EF3401D8
:10A8B000F5837480F0EE2404F582EF3401F583749F
:10A8C00080F01211787A00EE2403F582EF3401F55E
:10A8D00083E0602F9061CBE0C0E08A08EE2508F8A5
:10A8E000EF3400F9E82480F582E93400F583D0E004
:10A8F000F00AEE2403F582EF3401F583E0F8EAC3B1
:10A900009840D175E18102A67C74F212172589085E
:10A91000A808E875F08AA4C8AAF02AF974AF28F844
:10A92000740739F99061C6E0FDE054F0F075E181FB
:10A930007C00E82403F582E93401F583E0602B8C88
:10A940000AE8250AFAE93400FBEA2480F582EB34B0
:10A9500000F583E09061CAF00CE82403F582E93445
:10A9600001F583E0FAECC39A40D5E82405F582E9C5
:10A970003401F583E060049061CEF0E82404F582B0
:10A98000E93401F583E060049061CDF0ED9061C69B
:10A99000F0A808E875F08AA4C8AAF02AF974AF28CC
:10A9A000F8740739F9E0FCE0540FF075E1917A0092
:10A9B000E82400F582E93401F583E060238A0AE89F
:10A9C000250AF582E93400F583E09061D2F00AE8C7
:10A9D0002400F582E93401F583E0FBEAC39B40DD06
:10A9E000E82402F582E93401F583E060049061D641
:10A9F000F0E82401F582E93401F583E06004906118
:10AA0000D5F0EC9061C6F0850882AE82EEF875F064
:10AA10008AA4C8AAF02AF974AF28F50A740739F590
:10AA20000B750C80750D00780C121938E50A240698
:10AA3000FCE50B3401FD7A007B60120FE674021214
:10AA400016E4A80AA90BE82486F582E93401F58307
:10AA5000E0906195F0E82487F582E93401F583E020
:10AA6000906196F0E82488F582E93401F583E0905E
:10AA70006197F0E82489F582E93401F583E090617B
:10AA800098F0EE75F003A4CEA8F028FF74DB2EF545
:10AA90008274053FF583E0F8A3E0F5838882E064E3
:10AAA0008070079005AB7408803F900C637464F06D
:10AAB000A37410F0A37464F0A37410F0A37464F092
:10AAC000A37410F0A37464F0A37410F0A37410F0D6
:10AAD000A37410F0A37464F0A37410F0A3746AF06C
:10AAE000A37410F09005AB7407F0900C717410F023
:10AAF000A37410F0A37410F0A37410F0A37410F0FA
:10AB0000A37410F0A37410F0A37410F0A37410F0E9
:10AB1000A37410F0A37410F0A37410F07F06021752
:10AB2000F774F61217259004DB74FEF0A304F0907E
:10AB300004DEF09004DDF07A018A087509007402E1
:10AB400078081216BB74DB2508F874043509F9EA95
:10AB500088828983700774FEF0A304800474FFF078
:10AB6000A3F088828983A3A3A3F088828983A3A307
:10AB7000F00AEAC3940240C17A0C7B0B120B607A94
:10AB80005A7B0B120DE8790002B76374F212172595
:10AB9000EAFEEBFF8E828F8312B193605212ACC03B
:10ABA00012ACDF750B00780A1219388A828B83A3E6
:10ABB00012194F7C027D007AC87B8112091A740435
:10ABC0001216E4E9702E85088285098312ACDF78BD
:10ABD0000A1219388A828B83A312194F7C027D00D6
:10ABE0007AC67B8112091A74041216E4E970057999
:10ABF0000202ACBB900C3F12B193600CC3E498FA14
:10AC0000E499FB12ACD05005790102ACBB7A067B0B
:10AC10000012051E8A0A8B0BEA450B700579130298
:10AC2000ACBB7A007B008040900C3F12B6A48A0C2B
:10AC30008B0D7403780C1216BB850882850983E09E
:10AC4000250CF8A3E0350D8882F583A3A3A3A3EC1C
:10AC5000F0A3EDF0900C3FE02401F0A3E03400F00D
:10AC6000EA24010AEB3400FB12ACD040BB850A8217
:10AC7000850B83E4F0A3F0750804F5097808121930
:10AC800038EEFCEFFD12B4AD12048E74021216E41D
:10AC90009004E312B1939004E36017E0FAA3E0801C
:10ACA00003E8FAE9FB8A828B8312B19370F38A82FC
:10ACB0008B83E50AF0A3E50BF079007F060217F716
:10ACC000EE2402F508EF3400F509850882F58322A9
:10ACD0008E828F83E0F8A3E0F9C3EA98EB99221201
:10ACE000B6C58A828B83E0F50A22C082C083E990D0
:10ACF0000C3EF0D083D08202013574F7121725E99B
:10AD0000FE74145E60047C018007EEA2E650097CAC
:10AD1000007910120E12800AA2E04004790280022B
:10AD200079007F010217F774F71217258908ECFEE6
:10AD3000EDFFE9A2E550097C017910120E12803C6A
:10AD400074885508602B74085508FC7910120E128F
:10AD5000E96027EE2418F582EF3400F583E0601CEB
:10AD6000EE2417F582EF3400F583E06401600B8078
:10AD70000BE9A2E1400479038002790080A474F415
:10AD800012172574E91216CEEAFEEBFF8908E4F5E6
:10AD90000AF50B780A121938750A02780A1219385E
:10ADA000750AFC750B81780A1219387CFF7DFF7AD1
:10ADB000017B00120AE274061216E48A828B83E594
:10ADC000824583605612B846851882851983E8F05B
:10ADD000A3E9F074021217197404F014121719740D
:10ADE00001F07404121719E4F0740512171974FFB6
:10ADF000F0740612171974FFF0E508F509780912C6
:10AE0000193C79007401121719AC82AD83EEFAEF88
:10AE1000FB120AFA74011216E48002790174171207
:10AE200016E47F040217F774EA1217258A128B13AF
:10AE30008C108D119004E3E0F508A3E0F509741679
:10AE4000121719E0F514A3E0F5157418121719E09C
:10AE5000F50AA3E0F50B800D850882850983E0F5EE
:10AE600008A3E0F509E5084509700302AF257E0057
:10AE70007F00E5082404F50EE5093400F50F80088D
:10AE8000EE24010EEF3400FF85088285098312B895
:10AE900048C3EE98EF9950C08E0C8F0D7403780C58
:10AEA0001216BB850E82850F83E0250CF50CA3E0FE
:10AEB000350DF50D850C82F58312B846C3E8951261
:10AEC000E9951340BBC3E51098E5119940B2E50A36
:10AED000450B6023780A1219387814121938850C3A
:10AEE00082850D83E0FC7D00A312B6C112091A749D
:10AEF000041216E4E96089741A12171912B19360EA
:10AF00001E850E82850F83E0FAA3E0F5838A82A373
:10AF1000A3A3A312B6C188828983EAF0A3EBF0AAA7
:10AF20000CAB0D80047A007B007F0E0217F774EEE5
:10AF3000121725ECFEEDFF9004E3E0FCA3E0800A8D
:10AF40008C828D8312B84AE8FCE9FDEC4D70030257
:10AF5000AFEF8C828D8312B846880889098882F504
:10AF600083A3A3A3A3E0F50CA3E0F50DC3EA950C1E
:10AF7000EB950D40CB8C828D83A3A3E0F50EA3E06F
:10AF8000F50FE50C250EF8E50D350FF9C3EA98EB42
:10AF90009950AD750A00750B00800CE50A2401F587
:10AFA0000AE50B3400F50BC3E50A950EE50B950F8A
:10AFB000508E850A10850B11740378101216BBE5AC
:10AFC000082510F8E5093511F988828983A3A3A320
:10AFD000A3E06A7003A3E06B70C1EE4F600B8E823A
:10AFE0008F83E50CF0A3E50DF0E8FAE9FB80047A25
:10AFF000007B007F0A0217F774F012172574FE1207
:10B0000016CEEAFEEBFF75080075090085188285EB
:10B010001983E4F0A3F0EE2404F50CEF3400F50DF1
:10B02000850C82F58312B850A385820A85830B7440
:10B03000FF6A700374FF6B603D85188285198385F4
:10B04000820885830978081219388E828F83E0F58B
:10B05000087509007808121938850A82850B831251
:10B06000194FEA24010AEB3400FB120AE2740612BB
:10B0700016E48A088B098E828F8312B90012193860
:10B08000850A82850B8312194F7C027D007AC87B6A
:10B090008112091A74041216E4E970288E828F83D3
:10B0A000E0F50E780E121938850A82850B83121985
:10B0B0004F7C027D007AC67B8112091A7404121635
:10B0C000E4E9600B850C82850D8312B6C180458E44
:10B0D000828F83E0F50E780E121938850A82850B6F
:10B0E0008312194F7C027D007AC47B8112091A7485
:10B0F000041216E4E96036741212171912B6C1E58B
:10B10000084509600F851882851983E06A7003A3DA
:10B11000E06B6005120B06801F850882850983A3FA
:10B12000A3A3A3E024FFFAA3E034FF800A850C82E6
:10B13000850D83E0FAA3E0FB741412171912B84AC4
:10B1400088828983E58245836005EAF0A3EBF0AA53
:10B1500008AB09740202B858C082C0839004E3129D
:10B16000B193602888828983A3A3A3A3E0FCA3E012
:10B17000F5838C82A3A3A3A3E06A7003A3E06B888A
:10B1800082898370DAA3A312B6C180047A007B009F
:10B1900002ACF3E0F8A3E0F9E8492274F2121725B3
:10B1A00074FE1216CEEAFEEBFF8C088D09890A8523
:10B1B0001882851983AC82AD83120B48E9F50B70B8
:10B1C0006FE50A60107C017910EEFAEFFB120E12A7
:10B1D000E9F50B705BAC08AD09EEFAEFFB12088ADB
:10B1E000E9F50B704B85188285198312B23A7410F9
:10B1F000121719E0F50874FF65086034EE2402F5B3
:10B200000CEF3400F50D780C121938750C1E750D05
:10B2100000780C121938EEFCEFFD7A547B0B120B00
:10B220008474041216E48E828F83A3A3A3E508F02E
:10B23000A90B74021216E402ACBBE0FEA3E0FF22ED
:10B2400074F512172574FE1216CEEAFEEBFF8C0879
:10B250008D09890A851882851983AC82AD83120B0A
:10B2600048741769601DE50A600E7C017910EEFADA
:10B27000EFFB120E12E9700BAC08AD09EEFAEFFB12
:10B2800012088474021216E47F030217F774F61290
:10B290001725EAFEEBFF120AF4EA4B600FEE24FFDB
:10B2A000F8EF34FFF9EA28FAEB398003EEFAEFFB06
:10B2B00002B76374F012172574E31216CE8A088B56
:10B2C0000912B693E0F50F741E650F7054120B4E01
:10B2D0008A0A8B0BEA450B700302B4A6EA2403F535
:10B2E0000CEB3400F50DE4F50EF50F780E1219385D
:10B2F0008E828F83E0FD7C00AA08AB09850C8285D5
:10B300000D83E0F9120B7E74021216E4E9F50E12B9
:10B31000B4AD120B8A850C82850D8374FFF002B4E4
:10B32000A6900C3EE0F4606BE50FC394195064E501
:10B330000FC313F50A750B007402780A1216BB745A
:10B3400000250AF87480350BF9E824FCFAE934FF8B
:10B35000FB8A0C8B0D8A82F58312B6C1EA4B6033EF
:10B36000E824FEF582E934FFF58312B19360248C62
:10B37000828D83A385820A85830B8C828D83E0F97D
:10B38000700B850A82850B83E06401700B74126573
:10B390000F6005790602B4A8740412171985820E8D
:10B3A00085830F780E1219388C828D83A3A3A31284
:10B3B000194F8C828D83A3A3A3A3A312B6A4850ADD
:10B3C00082850B83E0FA850C82850D8312B4B81256
:10B3D000172374041216E4E9F50E600302B4A67490
:10B3E00004121719AC82AD83AA08AB098E828F8331
:10B3F000E0C313F50C750D007402780C1216BB74C3
:10B40000FE250CF582747F350DF58312B4B8121742
:10B4100023E9F50E70368E828F83E0FD74046D7023
:10B420000302B4A6740412171985820A85830B7867
:10B430000A1219387C00AA08AB09900C3EE0F912F8
:10B440000B7E74021216E4E9F50E805A850A828595
:10B450000B83E070518E828F83E08518828519837B
:10B46000F07403121719E9F08E828F83E0F87404E8
:10B4700068600D740668600874086860037410687A
:10B48000740412171912B84A7401121719E8F0A3BC
:10B49000E9F0851882851983AC82AD83AA08AB09CF
:10B4A00012083C750E00A90E741D02B858E50A2456
:10B4B00002FAE50B3400FB22E0F8A3E0F583888272
:10B4C00022790002013574F012172574EA1216CEA3
:10B4D0008A0C8B0D8C828D8312B6C1750A0012B650
:10B4E00093C3E09AA3E09B4004EA4B700579010204
:10B4F000B68E851882851983E4F0E4F508F509789D
:10B5000008121938780812193878081219388E82FA
:10B510008F8312B6A4120AE274061216E48A088B0C
:10B5200009A808A909E849700302B5ED8882898352
:10B53000A3AA82AB83E82404F508E93400F5098561
:10B540001882851983E0600302B5FE88828983E052
:10B550006402700B74011217197401F002B60B74B7
:10B56000011217197402F012B6AA75F012A4F88528
:10B57000F00BA90BE58228F582E58339F583A3A3B7
:10B58000ECF0A3EDF0750E10750F00780E1219385F
:10B5900012B6A07402121719E075F012A4F8A9F0FF
:10B5A000E58228F8E58339F9E82404FAE93400FB58
:10B5B00012048E74021216E4851882851983E00441
:10B5C000F0700F850882850983E0F47003A3E0F42E
:10B5D0007003750A01850882850983E02401FAA3B6
:10B5E000E03400FBE50AA2E0400302B4FA851882C9
:10B5F000851983E0600302B681790A02B68E740170
:10B60000121719E06401600302B56788828983E03C
:10B61000640270D912B6AAF50E750F007402780E86
:10B620001216BBE582250EF582E583350FF583A35F
:10B63000A3ECF0A3EDF0750E02750F00780E121951
:10B640003812B6A07402121719E0F50E7402780EC3
:10B650001216BBE582250EF8E583350FF9E82404C0
:10B66000FAE93400FB12048E74021216E485188283
:10B67000851983E004F0C39405400302B5D202B5F6
:10B68000C3AC82AD83AA0CAB0D12084879007416C6
:10B6900002B858EC2402FEED3400FF8E828F832224
:10B6A0008A828B83E0FCA3E0FD22850882850983E2
:10B6B000E0FCA3E0FD851882851983E0228E828F4D
:10B6C0008312B6C522E0FAA3E0FB2274F612172516
:10B6D00012B7754004EA4B700479018039E4F5082B
:10B6E000F50978081219388C828D83A3A3A3A3E0EF
:10B6F000F508780812193812B768121938EEFCEFFD
:10B70000FD120AE274061216E48B09EA4509700478
:10B71000790A80027900804B74F612172512B775EA
:10B720004004EA4B700479018039E4F508F50978A2
:10B73000081219388C828D83A3A3A3A3E0F508789F
:10B740000812193812B768121938EEFCEFFD120A08
:10B75000E274061216E48B09EA45097004790A803E
:10B760000279007F020217F7EC2405F508ED34009A
:10B77000F5097808228C828D83A3A312B23A8C82B9
:10B780008D8312B6C5C3EE9AEF9B2274F61217256D
:10B79000EAFEEBFF8C828D837C007D0012B6C11225
:10B7A0000AE88A828B83E582458370047901800CE4
:10B7B000A3A3A3E0F9EEFAEFFB120AD080A574F080
:10B7C0001217258A0A8B0BECFEEDFF750C00800228
:10B7D000050CEE2416F582EF3400F583E0F8E50C55
:10B7E000C398505EE50CC333F8E433F9EE28F5084E
:10B7F000EF39F5097C007D00850882F58312B6C11A
:10B80000120AE88A828B83E5824583701685088256
:10B8100085098312B84A8E828F83E8F0A3E9F07914
:10B82000018021A3A3A3E0F9AA0AAB0B120AD0E975
:10B83000609E85088285098312B850EAF0A3EBF078
:10B84000800279008015A3A3A3A3E0F8A3E0F92266
:10B8500012B6C58E828F83221216E47F080217F774
:10B8600074F0121725ECFEEDFF8E828F8312B84A1A
:10B8700012ACC0C3E098A3E0994004E84970047991
:10B8800001807AEE2405F50CEF3400F50DEE24046A
:10B89000F50AEF3400F50B850A82F58312B9001220
:10B8A0001938780C1219387C027D007AC87B811215
:10B8B000091A74041216E4E970047910803FE4F563
:10B8C0000E780E121938850A82850B83E0F50A7509
:10B8D0000B00780A121938780C12193885088285FD
:10B8E000098312B6A412B6BD120AE274061216E457
:10B8F0008B09EA45097004790A8002790002B85B75
:10B90000E0F50E750F00780E2274F41217258A08E0
:10B910008B09ECFEEDFF7C007D0012B6BD120AE83B
:10B920008A828B83E5824583700479018010EEFC66
:10B93000EFFDA3A3A3E0F9AA08AB09120AD602AE51
:10B940002202B4C174F6121725ECFEEDFF120B4E65
:10B950008A088B09A808A909E849602BEE4F6009FD
:10B960008E828F83E8F0A3E9F088828983A3A3E025
:10B97000F874FE6870047917800F74FF687004799A
:10B9800000800679168002790202B76374F61217F6
:10B99000257508009004DBE06A7003A3E06B701665
:10B9A000750900740278081216BB74DB2508FA7456
:10B9B000043509FB80137508019004DFE06A700309
:10B9C000A3E06B60DB7A007B0002B76374F41217AC
:10B9D00025EA4B604BEA2402F508EB12ACC6E0F80E
:10B9E00074FF68603B74FE686036EA2403FEEB3443
:10B9F00000FFE4F50AF50B780A1219387D1E7C1752
:10BA00008A828B8312B850E0F9120B7E74021216F0
:10BA1000E485088285098374FEF08E828F8304F0AA
:10BA200002AE2274F01217258A0A8B0B890C74FE61
:10BA3000650A700474FF650B700302BB0DE970307A
:10BA4000120B4E8B09EA4509600302BB0D7AFF7B9E
:10BA5000FF120B4E8A088B09A808A909E849700350
:10BA600002BB0D88828983E50AF0A3E50B02BB0CBB
:10BA70007401650C701D120B4E8A088B09A808A969
:10BA800009E849700302BB0D8882898374FFF0A323
:10BA9000F080217402650C70747901120E06E97051
:10BAA0006CAA0AAB0B120B4E8A088B09A808A909CD
:10BAB000E8496059E82402FEE93400FF8E828F8352
:10BAC000E0FA74FF6A6046E82403F508E93400F5FB
:10BAD0000974FE6A6022E4F50EF50F780E1219382B
:10BAE0007D1E7C14AA0AAB0B850882850983E0F9C8
:10BAF000120B7E74021216E4EEFAEFFB120B8A852B
:10BB0000088285098374FFF08E828F83F002B85B10
:10BB100074F4121725E99005AAF01210D690780057
:10BB2000E0C4540F540764037004793F8002797FA6
:10BB300075080675090078081219387C987D057A11
:10BB4000EA7B0712069E74021216E4900598E0F450
:10BB50007049A3E0F47044A3E0F4703FA3E0F470F4
:10BB60003AA3E0F47035A3E0F4703090780EE090E2
:10BB70000598F090780FE0900599F0907810E0909B
:10BB8000059AF0907811E090059BF0907812E09083
:10BB9000059CF0907813E090059DF090059E74FF51
:10BBA000F0A3F0A3F0A3F0A3F0A3F0900598E09029
:10BBB00005A4F0900599E09005A5F090059AE09015
:10BBC00005A6F090059BE09005A7F090059CE090FD
:10BBD00005A8F090059DE09005A9F09005C87406B1
:10BBE000F0A3740DF0A3E4F0A37440F0A37401F08B
:10BBF0009006F474FFF0A3F0A3F0A3F0A3F0A3F079
:10BC00009006F3E4F09006FAF0A374A0F0A3E4F039
:10BC1000A37403F0A37407F0A3E4F0A37428F0A3C3
:10BC2000E4F0A304F0A3E4F0900723F09007467437
:10BC3000FFF0A3E4F0900748F090074A04F0900763
:10BC40004B7490F0A37401F0120EEA120E3C121025
:10BC50008279017A4D7B07120FC890074DE075F08D
:10BC60001484E5F004F0790C7A6E7B07120FC81289
:10BC70000FE07A009005AAE0F9120536907803E00B
:10BC80006442705590074DE014F0704DC2AF12BC85
:10BC90009100782AD0E0F618D0E0F6E59F540770BE
:10BCA000057509FF800375097FC4C0E07829E6F5B2
:10BCB0000808E65509F509740B78081216ACD0E0AF
:10BCC0002508F8906270E0A2E740F8E8C33390627C
:10BCD00072F0906270E0D2E0F09005D5E4F0A3F04D
:10BCE0007A80FB9005AAE0F91204E202C1D974F44B
:10BCF000121725EAFEEBFFEEA2E050459005ACE0FE
:10BD0000C39480E0500FC333F8E433F9746328F52B
:10BD100082740C800EF4C333F8E433F9747128F59F
:10BD200082740C39F583E0F8A3E0F583888212175A
:10BD3000237A009005AAE0F9120536EE640102BFED
:10BD40001454026040750800780812193CE4F509A3
:10BD500078081219387808121938780812193875C5
:10BD600008DF75090678081219389006DEE0FD7CB8
:10BD7000017A007B00793C120D0474091216E4EE7E
:10BD8000640202BF14EE5404700302BE2A9005D967
:10BD9000E0F875F003A4C8AAF02AF974DB28FA7455
:10BDA0000539FBEA242AF582EB3400F583E0F50837
:10BDB000780812193CEA2432F582EB3400F583E06E
:10BDC000F508A3E0F509740478081216AC78081297
:10BDD0001938EA2420F582EB3400F58312194FEA72
:10BDE000242EF582EB3400F583E0F508A3E0C313BD
:10BDF000F509E50813F50878081219387508DF7594
:10BE0000090678081219389006DEE0FD7C018A8266
:10BE10008B83A3A3A3A3E0FA7B007900120D047423
:10BE2000091216E4EE640402BF14EE54406040753B
:10BE30000800780812193CE4F509780812193878D6
:10BE40000812193878081219387508DF750906784C
:10BE5000081219389006DEE0FD7C017A007B00793B
:10BE60003B120D0474091216E4EE644002BF14EE96
:10BE70005480603B90074BE0F8A3E0F9E849602A62
:10BE8000790012053090074BE0F508A3E0F509E4CE
:10BE9000F50AF50B78081219347A007B019005AA8F
:10BEA000E0F912056074041216E4EE64808065EF18
:10BEB0005401600C7901120530EEFAEF64018056EE
:10BEC000EF5402600AC2AF75C9AB75C95B80FEEF63
:10BED0005404600A121A78EEFAEF64048038900570
:10BEE000B1E064017033EE5420602E9005ABE02485
:10BEF000F9600314701B793F9005D9E0FA75F003DF
:10BF0000A4CAA8F028FB74DB2AFA74053BFB120FC5
:10BF10008CEE6420FAEFFB80047A007B0002C1D92A
:10BF200074F6121725C3EA9411EB940050047A10AA
:10BF300080027A20EA2408FAE43400FB12071C8A03
:10BF4000088B09A808A909E849600AE82404FAE965
:10BF50003400FB80047A007B0002C51774F61217C8
:10BF600025EA2405FAEB3400FB12071C8A088B092A
:10BF7000A808A909E849600AE82405FAE93400FBA1
:10BF800080047A007B0002C517C082C083C2AF1252
:10BF900010B2E5E170FC75E101120EDE75E1F112FF
:10BFA00010E2120ED27907121154790112115A7946
:10BFB0000212110C12112A121148790012114E7935
:10BFC0000112114E7A557B557C557D001210F4906C
:10BFD00006DEE4F0A3F0A3F0A3F0A3F0A3F0A3F037
:10BFE0009006FAF0A3F0A3F09006FE7407F0900616
:10BFF000FD7403F0900703E4F0900702F09007232C
:10C00000F0120F7A121016120F927900121160902E
:10C0100006E574FFF0A3F0A3F0A3F0A3741FF09063
:10C020006012E4F0A3F0906063F07521009005AB1E
:10C03000F09006EAF09006EB740CF09006ECE4F059
:10C040009006ED04F09006EEE4F09006EF04F09018
:10C0500006F0E4F09005ADF0A3F09005B0F0900587
:10C06000B104F09005C704F0900749E4F0D2AFF9AD
:10C0700002CA41C082C083900598E08A828B83F017
:10C08000900599E08A828B83A3F090059AE08A82DA
:10C090008B83A3A3F090059BE08A828B83A3A3A349
:10C0A000F090059CE08A828B83A3A3A3A3F0900564
:10C0B0009DE08A828B83A3A3A3A3A302CA3EC0826E
:10C0C000C0838A828B83E090059EF08A828B83A353
:10C0D000E090059FF08A828B83A3A3E09005A0F0F7
:10C0E0008A828B83A3A3A3E09005A1F08A828B832D
:10C0F000A3A3A3A3E09005A2F08A828B83A3A3A3AA
:10C10000A3A3E09005A302CA3EC082C083120EF62C
:10C11000E9700512112A790002CA4174F712172535
:10C12000EAFEEBFF8908120EF6E9702CE508600ABA
:10C1300074016508600A7912801E7C007900800411
:10C140007C007901EEFAEFFB121130E9F874036814
:10C15000700479078002790002C51274F61217255F
:10C16000EA4B6016EC4D6012740A121719E0F508DC
:10C17000A3E0F509E508450970047912800F7808F5
:10C18000121938120FDA74021216E4790002C51778
:10C1900074F4121725EAFEEBFF89089005ABE06402
:10C1A000096014E0640A600FE0640B600AE0640C4C
:10C1B0006005E0640D7004790C801E12103A8B0B40
:10C1C000EA450B700BA908EEFAEFFB120FC88009C5
:10C1D0009005ADE04440F0790D7F040217F774F646
:10C1E000121725EA4B6003E970047912801CEAFEFD
:10C1F000EBFF8908120FC2E98E828F83F0A3AE8213
:10C20000AF831508E50870EC790002C517C082C03D
:10C2100083E9F8740168700B9007497401F07900A4
:10C2200002CA41E87006900749E480F1791280F073
:10C23000C082C0839005ABE0640C701290618EE008
:10C24000F974806970258C828D83747F8029C3EB9B
:10C25000940F5013EA4B700F9005DEE070047902E2
:10C26000801890064380D87912800F9005AFE0F8CF
:10C27000E9C3988C828D83F0790002CA4174F71269
:10C280001725E9FE74056E601E74136E6019741430
:10C290006E601474156E600F741A6E600A74296EE5
:10C2A0006005743B6E7026C3EB940F5020EA4B7010
:10C2B0001C9005DEE0700479028044900644E0643E
:10C2C000017025A3E064027008793A803279128007
:10C2D0002EEE9006CFF09005F8E4F0A3F079027A04
:10C2E000DB7B05120F688015EE9006CFF09005F805
:10C2F000E4F0A3F079027ADB7B05120F5C7900028F
:10C30000C51274EA121725EC4D6014E9C3941C5051
:10C310000E7416121719E0F8600A74016860057946
:10C320001202C50DC3EB940F5019EA4B701590051E
:10C33000DEE070047902800D9006EBE0700A790768
:10C3400002C50D791202C50DEC24FEFCED34FFFD93
:10C350008C828D83E9F0E87004740280027401A37A
:10C36000F0EC24FEFCED34FFFD7A3E7B06120FB0AC
:10C370009006EBE014F09005ABE064086008E06420
:10C3800007600302C50B9005D9E0600302C50B7975
:10C39000007ADB7B05121F069061D0E0700302C5B6
:10C3A0000B9006EFE06401600302C50B9005F8E016
:10C3B000F8A3E0F9E849700302C50BA2AFE433F536
:10C3C00014C2AF12103A8A088B09AE08AF091210D6
:10C3D000C48A108B118C128D138A088B098C0A8DDC
:10C3E0000B750C01750D00750E00750F007808793E
:10C3F0000C12150478081219348E828F83A3A312AD
:10C4000015BC1226C374041216E4E9640160030229
:10C41000C505900609E02406F508A3E03400F509F7
:10C42000E4F50AF50B781079081215047810121942
:10C43000348E828F83A3A31215BC1226C3740412F8
:10C4400016E4E96401600302C505EE2408F50CEF6B
:10C450003400F50D850C82F58312194BAA10AB112F
:10C46000AC12AD1312271C74041216E490060912C4
:10C47000194F12234C74021216E48A088B098C0A95
:10C480008D0B741078081214CC9005E4E0F8A3E04A
:10C49000F99005E0E8F0A3E9F0E82508F8E93509A6
:10C4A000F9A3E8F0A3E9F0850C82850D83C082C072
:10C4B00083900609E0F50CA3E0F50D7808790C12DD
:10C4C00013DCD083D0827808121517750CFF750D18
:10C4D000FF750EFF7808790C1215658E828F83A385
:10C4E000A3E508F0A3E509F0A3E50AF0A3E4F090C2
:10C4F0000610E090060FF07ADB7B05121B92EEFA35
:10C50000EFFB121022E514A2E092AF79007F0E0239
:10C5100017F77F010217F77F020217F774F6121759
:10C5200025EAFEEBFF8908740B121719E0F5097470
:10C530000C121719E0F8A3E0F9E508605F740165D3
:10C5400008601574036508602F740265086029741B
:10C55000046508600302C5F7E849700302C5F7E502
:10C5600009600974016509600302C5F77403650871
:10C570006006740265087046EE2460FAEF34FFFB33
:10C58000C3EA9461EB943F506EEC2460FAED34FF03
:10C59000FBC3EA9461EB943F4024805BEE24E0FA15
:10C5A000EF34FFFBC3EA94E1EB943F504AEC24E004
:10C5B000FAED34FFFBC3EA94E1EB943F5039C3EC4E
:10C5C0009EED9F4032740A121719E0FA600574015B
:10C5D0006A7024740F121719E0FC600F74016C600C
:10C5E0000A74026C600574036C700C740E121719D7
:10C5F000E0FB74075B7005791202C7589006FAE0F9
:10C6000064017005790C02C758E5089006FDF074C6
:10C61000075BA3F0ECA3F0EA9006F3702FE4F09030
:10C620000598E09006F4F0900599E09006F5F090FA
:10C63000059AE09006F6F090059BE09006F7F090E2
:10C64000059CE09006F8F090059D802E7401F09016
:10C65000059EE09006F4F090059FE09006F5F090BE
:10C6600005A0E09006F6F09005A1E09006F7F090A6
:10C6700005A2E09006F8F09005A3E09006F9F074AA
:10C680000165087053E5099006DEF088828983E031
:10C690009006DFF088828983A3E09006E0F088822C
:10C6A0008983A3A3E09006E1F088828983A3A3A3F2
:10C6B000E09006E2F088828983A3A3A3A3E090061A
:10C6C000E3F088828983A3A3A3A3A3E09006E4F008
:10C6D0009006FBE4F0A3807D74046508704DE509C5
:10C6E0009006DEF088828983E09006DFF0888289F8
:10C6F00083A3E09006E0F088828983A3A3E09006FC
:10C70000E1F088828983A3A3A3E09006E2F0888207
:10C710008983A3A3A3A3E09006E3F088828983A37F
:10C72000A3A3A3A3E09006E4F08023EC70047900B7
:10C73000801974016C70047901801074026C7004AB
:10C740007902800774036C70057903121136900624
:10C75000FBEEF0A3EFF0790002C51774F61217256F
:10C76000E9FEC39420500BEE900703F06023EA4BE0
:10C77000700479128023E0F5087509007808121911
:10C7800038EAFCEBFD7A047B0712048E7402121661
:10C79000E49007027401F0790002C51774F01217D3
:10C7A00025E9FE9005ABE06409700302C8C5E064AA
:10C7B0000A700302C8C5E0640B700302C8C5E064D8
:10C7C0000C700302C8C5E0640D700302C8C5900672
:10C7D000FDE0601664016012E06403600DE0640235
:10C7E0006008E06404600302C93A9006F3E0600761
:10C7F0006401600302C93A9006FDE064036005E04D
:10C80000640270109006FBC3E094A0A3E094005073
:10C810000302C93AEE700302C8D314600302C93A96
:10C820009006FAE06401700302C8C59006FDE0605E
:10C830000964016005E06404700B121046E954FDC0
:10C84000600302C8C5790112102E9006F1EAF0A328
:10C85000EBF09006FA7401F09005ABE0706E1210E8
:10C86000C48A088B098C0A8D0B750C03750D007535
:10C870000E00750F007808790C121504750CFF7501
:10C880000DFF750EFF7808790C1215659006F1E022
:10C89000F8A3E0F5838882A3A378081215AD90066B
:10C8A000F1E0F8A3E0C82406F582E83400F583E45B
:10C8B000F0A3F0120EFCE960107AF17B061210343E
:10C8C0009006FAE4F07921800512101C79007F08A7
:10C8D0000217F79006FAE060ECA2AFE433FFC2AFB4
:10C8E0007AF17B061210349006FAE4F012104CE94B
:10C8F00070411210B2906182E0C2E6F0E5E170FC96
:10C9000075E1017591BF75E1F19005B1E0640170C9
:10C91000187A207B009005AAE0F912056C7A207B3A
:10C92000009005AAE0F91204E87A009005AAE0F95F
:10C93000120536EFA2E092AF80927912809074F6E1
:10C94000121725E9FEC39420500BEE900723F060E8
:10C9500023EA4B700479128023E0F508750900780A
:10C9600008121938EAFCEBFD7A247B0712048E7456
:10C97000021216E49007027401F0790002C517C094
:10C9800082C0839005ABE064076004790C805CECA6
:10C990004D605BC3EB940F5055EA4B70519005DE30
:10C9A000E07004790280447A008C828D83E0C0E0DC
:10C9B000EAF8C3E498F895E0F974A828F5827406BB
:10C9C00039F583A3A3A3A3D0E0F00A8C828D83A3BF
:10C9D000AC82AD83EAC3941040CF9006AE7401F0F0
:10C9E00079057ADB7B05120F5C790002CA41791266
:10C9F00080F9C082C0839005ABE064076004790CC5
:10CA00008039C3EB940F5020EA4B701C9005DEE098
:10CA10007004790280259006B7E06401700E9006DC
:10CA2000CF7406F07902800A7912800FA37406F0A1
:10CA3000790D7ADB7B05120F5C790002CA41F0792F
:10CA400000D083D082020135C082C083E9F890070C
:10CA50004AE07004790C800EE8600D1470109005A7
:10CA6000B07401F0790080D99005B0E480F57912B6
:10CA700080F474F21217258908EAFEEBFF8C097521
:10CA80000A1274FE6E700374FF6F70189004AB127C
:10CA9000D4C3607212CB0B606D7AFE7BFFA90812C3
:10CAA0001723805A74FF6E700374FF6F7035900403
:10CAB000AB12D4C3601312CB0B600E7AFF7BFFA9BD
:10CAC00008121723E9F50A600CAA09A9081209F24D
:10CAD000E9F50A7031E5089004ADF0E5099004AE7F
:10CAE000F08023120DFA8A828B83E58245836016DB
:10CAF000E06508700EA909EEFAEFFB120C56E9F595
:10CB00000A8003750A03A90A02CC9DE0F583888296
:10CB1000E0F8A3E0F988828983E58245832274F2F4
:10CB2000121725890AECFEEDFF90048AE06402608A
:10CB300005E0640170047912805CEE4F70047902A4
:10CB40008054120DFA8A088B09EA45097004791499
:10CB50008044E50A600B8A828B83A3A3A3E0D2E121
:10CB6000F0750C10750D00780C121938EEFCEFFD05
:10CB7000EA240DFAEB3400FB12048E74021216E460
:10CB800012D1AB1215BCE508241DF582E50912D9B6
:10CB9000471215C8790002CC9D74F21217258A0835
:10CBA0008B09ECFEEDFF90048AE06402600EE06405
:10CBB000016009E064087009EE4F6005791202CC4B
:10CBC0009DEA45097005790202CC9D9004A912D412
:10CBD000C36005791102CC9D8A828B8312D2B11277
:10CBE0000DFA8A0A8B0BEA450B7005791402CC9D6D
:10CBF0007A1F7B0012051E9004A912D95D9004A92A
:10CC000012D4C37005791302CC9D7C1F7D0079007E
:10CC10001204A612D2AB12CCA2A312D95D750C16C7
:10CC2000750D00780C121938E5082402FCE509346A
:10CC300000FD9004A9E02403FAA3E03400FB1204F1
:10CC40008E74021216E412CCA27402F090048AE0F0
:10CC5000A2E35004D2F08002C2F09004A9E02403C1
:10CC6000F50CA3E03400F50D780C12193812CCAE97
:10CC70009004B5E0FAA2F0E433F912120274021241
:10CC800016E4E9F508EE4F600BEEFCEFFDAA0AABE7
:10CC90000B12123EE50860031209FEA9087F060286
:10CCA00017F79004A9E0F8A3E0F5838882228508AD
:10CCB00082850983E0FCA3E0FD2274F41217257439
:10CCC000FF1216CEEAFEEBFF8908120DFA8B0BEA73
:10CCD000450B700479148014851882851983E50842
:10CCE000F0AC82AD83EEFAEFFB121226740112163D
:10CCF000E47F040217F774F012172574F01216CEB1
:10CD00008A0C8B0D8C0E8D0F7420121719E0FEA368
:10CD1000E0FFEEFAEFFB120DFA8B09EA4509700409
:10CD20007912807190815B780C1213BD50047902E6
:10CD300080637C107D007900851882851983AA8222
:10CD4000AB831204A6851882851983E50CF0850D46
:10CD500009E509F5087401121719E508F0850C08B2
:10CD6000850E0A850F0B741078081214CC74021209
:10CD70001719E508F07418780C1214CC7403121704
:10CD800019E50CF0EEFCEFFD851882851983AA8267
:10CD9000AB8312120874101216E47F080217F7749E
:10CDA000F01217258A0A8B0B890E8C0C8D0D7410CE
:10CDB000121719E0F50F90048AE064026005E06440
:10CDC000017005791202CE6FEC450D7005790202F3
:10CDD000CE6F120DFA8A088B09AE08AF09EE4F70BC
:10CDE00005791402CE6FEE2421F508EF3400F50921
:10CDF00085088212CE7C60031205247C1B7D00AA6C
:10CE00000CAB0D12049A85088285098312D95D1234
:10CE1000CCAEEC4D70047913805590048AE0A2E307
:10CE20005037E50F6033EC2412F508ED3400F509B6
:10CE30007808121938EC2410F582ED12D94712192E
:10CE40004FEC241AF582ED12CFE5F9AA0AAB0B12CA
:10CE5000124474041216E480027900EE2403F58271
:10CE6000EF12CFE5D2E2F0E50E6004E0D2E1F0028D
:10CE7000CD9A12D93B241BF582E83400F583E0FA01
:10CE8000A3E0FBEA4B2274EA1217258A0E8B0FEA05
:10CE9000450F700302CFE09004A712D4C3600512BF
:10CEA000CCA88003900B82E0F50C9004B612D4C39A
:10CEB000600F12CCA8A3A312CB1060057900121743
:10CEC00023E50E2407F50AE50F3400F50BE50E24E3
:10CED00008F508E50F3400F509AA08FB850A8285E4
:10CEE0000B83E0F9120956E9FB850A82850B83F072
:10CEF000E50E2403FEE50F3400FFE50E2404F512D1
:10CF0000E50F3400F513E50E240EF510E50F34009F
:10CF1000F511E50E2414F582E50F12CFE5F5147531
:10CF200015007814121938E50E2412F582E50F1257
:10CF3000D94712194FE50E2410F582E50F12D94793
:10CF400012194F85108285118312194F851282851F
:10CF5000138312194FAC08AD09AA0C8E828F83E09F
:10CF6000F91209E0740A1216E48E828F83E07031A0
:10CF700085108285118312194F7808121938850A95
:10CF800082850B83E0FD7C0185128285138312D29A
:10CF9000B1A90C120DEE74041216E4E98E828F838F
:10CFA000F09004A712D4C36037120A049004ADE0D5
:10CFB000602E9004AEE0FA9004ADE0F91209F2E9B7
:10CFC000601E8E828F83E0FB85128285138312CCD4
:10CFD000B49004ADE0FAEBF91209E69004ADE4F088
:10CFE0007F0E0217F712D745E02274F7121725EAD1
:10CFF000F8EBF988828983A3A3A3A3A3A3A3A3A384
:10D00000A312194F88828983A3A3A3A3A3A3A3A3D5
:10D0100012194F88828983A3A3A3A3A3A312CCB41C
:10D0200088828983A3A3A3A312D2B188828983A310
:10D03000A3A3E0F91209EC74041216E47F010217AD
:10D04000F774F2121725EAFEEBFF750A00EE2403CF
:10D05000F8EF3400F9880889098882F58312D2B183
:10D06000120DFA8A828B83E58245836009E0F50A16
:10D0700012D2AB120DF49004ADE06019650A701580
:10D080009004AEE0FA9004ADE0F91209F2E96024F0
:10D090009004ADE4F0E50A601B8E828F83A3A3A306
:10D0A000A3A3E0FB12CCAEAA0A8E828F83A3A3E0D7
:10D0B000F91209E69004A912D4C360031209FE0212
:10D0C000CC9D74E8121725890B8A0E8B0A8C0C8D67
:10D0D0000D741A121719E0F516A3E0F517741C1257
:10D0E0001719E0F514A3E0F515741E121719E0F5F1
:10D0F00010A3E0F5117420121719E0F5087A137BDC
:10D10000001204B28A128B13AE12AF13EE4F7003EB
:10D1100002D1A68E828F8374D012D5A88E828F837F
:10D12000A3A3740512D460EE2404FAEF3400FBE5E7
:10D130000C450D6019751206751300781212193816
:10D14000AC0CAD0D12048E74021216E480097C063C
:10D150007D0079001204A67418121719E0F8A3E0F4
:10D16000F98E828F83A3A3A3A3A3A3A3A3A3A3E85E
:10D17000F0A3E912D73AE516F0A3E517F0EE240E76
:10D1800012D944E514F0A3E515F012D1ABE510F087
:10D19000A3E511F0EE241212D944E508F0EEFAEFFF
:10D1A000FBA90E1204BE7F100217F7EE241012D74F
:10D1B000422274F212172589098A08ECFEEDFF8BD2
:10D1C0000A7A067B001204B2EA4B60278A828B83BC
:10D1D00074D0F0A3E509F08A828B83A3A3740612AE
:10D1E000D1F6EEF0A3EF12D1F6A3A3E50AF0A90859
:10D1F0001204BE02CC9DF08A828B83A3A3A3227467
:10D20000EC12172589108A088B098C0A8D0B74146F
:10D2100012171912D4847416121719E0F50EA3E030
:10D22000F50F7A0C7B001204B28A128B13AE12AF88
:10D2300013EE4F604DAA08AB09120DFA8A828B8358
:10D24000E58245837003900B82E0F98E828F8374B0
:10D25000D0F0A3E51012D663740712D467E508F086
:10D2600012D66BA3E50B12D675E50CF0A3E50D12F3
:10D27000D675A3A3E50EF0A3E50FF0EEFAEFFB12CF
:10D2800004BE02D45B74F6121725EAFE120E008A61
:10D29000828B83E5824583600BEEF9A312D2B11233
:10D2A0000C56800279127F020217F78508828509E1
:10D2B00083E0FAA3E0FB2274EC12172589118A0A95
:10D2C0008B0B8C10120DFA8A0E8B0FEA450F700330
:10D2D00002D45B9004A912D4C3700302D45B7A0E0B
:10D2E0007B00E0C8241912D4BD60027A2912D4B898
:10D2F0006008EA2414FAE43400FB741412171912BB
:10D30000D484E50C450D6008EA241BFAEB3400FBDD
:10D3100012D95112D4BD6008EA2416FAEB3400FB8E
:10D320001204B28A088B09AE08AF09EE4F700302EF
:10D33000D45B7C0E7D0079001204A67A267B001255
:10D34000092C8A088B09EA45097009850E82850F28
:10D3500083E0F5088E828F8374D0F0A3E51112D696
:10D3600063740A12D460A3E50B12D467A3E510F02E
:10D37000EE240EF50AEF3400F50B9004A9E0241911
:10D3800012D47912D4C36018EE240612D48C121968
:10D39000388C828D8312CCB412048E74021216E47F
:10D3A0009004A9E0241D12D47912D4C3603AEE246B
:10D3B00008F8EF3400F98882898312D5A68882891B
:10D3C0008312D2B1EA2414F50AEB3400F50B750E82
:10D3D00014750F00780E1219388C828D8312CCB41C
:10D3E00012048E74021216E4E50C450D6015EE244D
:10D3F0000A12D48C121938AC0CAD0D12048E7402C2
:10D400001216E49004A9E0241BF8A3E03400F9E824
:10D41000FAE9FB8A828B8312D4C36033EE240CF8C2
:10D42000EF3400F9880C8882F58312D5A6750A16A8
:10D43000750B00780A1219388A828B8312CCB48556
:10D440000C82898312D2B112048E74021216E4EE99
:10D45000FAEFFBA9081204BE1209FE7F0C0217F7AF
:10D4600012D46CE50AF02212D46CA32212D47022DA
:10D47000F08E828F83A3A3A322FCA3E03400FD8C53
:10D48000828D8322E0F50CA3E0F50D22F8EF340045
:10D49000F988828983E50AF0A3E50BF08882898305
:10D4A000E0FAA3E0FBEA241BF50AEB3400F50B7568
:10D4B0000E1B750F00780E2212D93B241DF582E851
:10D4C00012D745E0F8A3E0F9E84922C082C0839072
:10D4D00004A912D4C3602FE0C8241912CE776003C8
:10D4E00012052412CE72600312052412D94B12CEFB
:10D4F0007760031205249004A912D2B1120524907A
:10D5000004A9E4F0A3F0D083D082020135C082C028
:10D51000839004A712D4C360109004A712D2B11252
:10D5200005249004A7E4F0A3F080DB74F012172523
:10D53000890C8A0A8B0B120DFA8A088B09EA4509B5
:10D54000605E7A267B0012092C8A0E8B0FAE0EAF1E
:10D550000FEE4F7008850882850983E0FE7A057B0F
:10D56000001204B28A088B09EA450960337C057D04
:10D570000079001204A685088285098374D0F0A37F
:10D58000E50CF0850882850983A3A3740EF0850855
:10D590008285098312D5A3AA08AB09EEF91204BE4D
:10D5A00002CD9AA3A3A3E50AF0A3E50BF02274EC45
:10D5B00012172589088A0E8B0F8C098D0A74141294
:10D5C0001719E0F50C7415121719E0F50B120DFA86
:10D5D0008A128B13EA4513700302D6607A0B7B0024
:10D5E0001204B28A108B11AE10AF11EE4F60717C35
:10D5F0000B7D0079001204A67A267B0012092C8A82
:10D60000108B11A810A911E84970088512828513A2
:10D6100083E0F88E828F8374D0F0A3E50812D6637E
:10D62000740F12D663A3E50EF0A3E50F12D46712B0
:10D63000D66B8E828F83A3A3A3A3A3A3A3E50C120F
:10D64000D675E50BF07416121719EE2409FCEF34A9
:10D6500000FD74021215E1EEFAEFFBE8F91204BEC8
:10D6600002D45BF08E828F83A3A322A3E50912D696
:10D670007BE50AF02212D67BA3A32212D470A3A3C7
:10D68000A32274EE1217258A0A8B0B890E120DFA4B
:10D690008A0C8B0DEA450D700302D7357A0D7B009D
:10D6A0001204B28A088B09AE08AF09EE4F7003026C
:10D6B000D7357A267B0012092C8A088B09EA45099E
:10D6C0007009850C82850D83E0F5088E828F837446
:10D6D000D0F0A3E412D663740BF075100675110038
:10D6E0007810121938E50C2405FCE50D3400FDEE28
:10D6F0002403FAEF3400FB12048E74021216E48E37
:10D70000828F83A3A3A3A3A3A312D5A3EE240B12FA
:10D71000D944E50EA2E0500474018001E412D73A26
:10D72000E50EA2E1500474018001E4F0EEFAEFFB93
:10D73000A9081204BE7F0A0217F7F0EE240C12D7D4
:10D740004222F582EF3400F5832274E8121725890E
:10D75000108A0F8C088D098B0EAA08AB09120DFADE
:10D760008A0A8B0B741812171912D484741A1217A0
:10D7700019E0F514A3E0F515741C121719E0F5165D
:10D78000A3E0F517741E121719E0FEA3E0FFEA45A7
:10D790000B700302D86DE510600302D86DEA240314
:10D7A000F582EB12CFE5D2E4F0E50EA2E2E0500400
:10D7B000D2E18002C2E1F0E50C450D7010E51445A0
:10D7C00015700AE51645177004EE4F606BE0D2E263
:10D7D000F0EE4F603512D1AB1215BCE50A241DF5F1
:10D7E00082E50B12D9471215C8751210751300780F
:10D7F00012121938EEFCEFFDE50A240DFAE50B34A0
:10D8000000FB12048E74021216E4E50A2421F50AC4
:10D81000E50B3400F50BE50C450D6021E50F701D9F
:10D82000850A82850B8312CE7E60031205247C1B41
:10D830007D00AA0CAB0D8027E0C2E2802FE51445E5
:10D8400015602A7401650F7024850A82850B831286
:10D85000CE7E60031205247C1B7D00AA14AB15123A
:10D86000049A850A82850B83EAF0A3EBF09004A961
:10D8700012D4C3700302D938E50C450D6039E0C8F5
:10D88000241912D4BD700F7A1B7B0012051E12D909
:10D890003B241912D95712D93B241912CE7760179D
:10D8A000750A1B750B00780A121938AC0CAD0D12F5
:10D8B000048E74021216E4E5164517603112D95130
:10D8C00012D4BD700D7A167B0012051E12D95112AA
:10D8D000D95712CE726017750A16750B00780A12A6
:10D8E0001938AC16AD1712048E74021216E4EE4FFE
:10D8F000603112D4B8700D7A147B0012051E12D953
:10D900004B12D95712D94B12CE776017750A14757E
:10D910000B00780A121938EEFCEFFD12048E740227
:10D920001216E47814121938AC0EAA08AB09A91023
:10D930001209F874021216E402D1A69004A9E0F8C4
:10D94000A3E0C822F582EF12D7452212D93B241D4D
:10D950002212D93B241B22F582E812D745EAF0A314
:10D96000EBF0227F010217F774F412172574FD12F1
:10D9700016CEEAFEEBFF8C088D09EE4F6005EC45F4
:10D98000097004790280607903851882851983AA59
:10D9900082AB831211D27402121719E0543F444033
:10D9A000F078081219387402121719AC82AD83EEA0
:10D9B000FAEFFB1211BA74021216E4E9FE70267532
:10D9C0000A03750B00780A1219387402121719AC81
:10D9D00082AD83E5082403FAE5093400FB12048EC6
:10D9E00074021216E4EEF9740302DA9374F4121757
:10D9F0002574FA1216CE8A088B09ECFEEDFFEA4573
:10DA0000096004EE4F7005790202DA8E750A03751B
:10DA10000B00780A121938EE2403FCEF3400FD7471
:10DA200002121719AA82AB8312048E74021216E432
:10DA30007402121719E0543F4440F074031217198E
:10DA400085820A85830B780A121938740212171915
:10DA5000AC82AD83AA08AB091211BA74021216E4A3
:10DA6000E9702B7508037509007808121938EEFC67
:10DA7000EFFD7405121719AA82AB831204A0740279
:10DA80001216E4E9640170047900800279017406D9
:10DA900002DA931216E47F040217F774E8121725CE
:10DAA00074E81216CE8A0A8B0B89178C088D09EA46
:10DAB000450B6005EC45097005790202DBEB740447
:10DAC0002517F516FA7B0012051E8A0C8B0DAE0C7D
:10DAD000AF0DEE4F700302DBE61209688A0C8B0D66
:10DAE0008C0E8D0F8517107511007810121938AC37
:10DAF0000AAD0BEE2404FAEF3400FB120494740216
:10DB00001216E48E828F83A3A3A3E50CF0E50DF536
:10DB1000158E828F83A3A3F0850C10F511850E124C
:10DB2000850F13741078101214CCE510F5148E8242
:10DB30008F83A3F0850C10850D11F512850F1374DA
:10DB40001878101214CCE510F50A8E828F83F075C8
:10DB500010107810121938120962EAFCEBFD740AF1
:10DB6000121719AA82AB8312049474021216E48568
:10DB700018828519838582108583117810121938CF
:10DB8000A916EEFCEFFD740A121719AA82AB8312D4
:10DB900011EA74021216E4E9F50B704185088285DA
:10DBA0000983E50CF0A3E51512DBF0E51412DBF0B8
:10DBB000A3E50AF0750C08750D00780C121938747D
:10DBC00002121719AC82AD83E5082404FAE5093482
:10DBD00000FB12049474021216E412096EEEFAEFBE
:10DBE000FB1205248003750B13A90B741802E1F5D1
:10DBF000F0850882850983A3A32274E8121725748F
:10DC0000DD1216CE7401121719EAF0A3EB12E5DF4C
:10DC10008C168D17EC4517700302DCC5743C121787
:10DC20001912DE13700302DCC5740112171912DE1B
:10DC3000F5120DFA8A148B15EA4515700579140250
:10DC4000DE0E850882850983E0F510E4F511F512F2
:10DC5000F513A3E0F50CE4F50DF50EF50F74087857
:10DC60000C1214E57810790C1215048508828509C8
:10DC700083A3A3E0F50CE4F50D7410780C1214E501
:10DC80007810790C121504850882850983A3A3A353
:10DC9000E0F50CE4F50E7418780C1214E5781079A0
:10DCA0000C121504EA241DF582EB12E736780C12EB
:10DCB000159E7810790C12139D400F908187780C77
:10DCC0001213886005790202DE0E85188285198399
:10DCD000E060118A828B83A3A3A3E0A2E1400579CF
:10DCE0000102DE0E7C087D0079007403121719AA68
:10DCF00082AB831204A6743B121719E0F50E74046C
:10DD0000250EF50AFA7B0012051E8A0C8B0DAE0C4F
:10DD1000AF0DEE4F7005791302DE0E750F00780E11
:10DD2000121938AC16AD17EE2404FAEF3400FB12CA
:10DD3000049474021216E4750C04750D00780C122C
:10DD40001938AC08AD09EEFAEFFB12049474021214
:10DD500016E4750C10780C121938E514240DFCE546
:10DD6000153400FD7415121719AA82AB831204949E
:10DD700074021216E4740312171985820C85830D40
:10DD8000780C121938A90AEEFCEFFD741512171958
:10DD9000AA82AB831211EA74021216E4E9F50A7042
:10DDA00064750C08750D00780C121938740512177B
:10DDB00019AC82AD83740D121719AA82AB831204B9
:10DDC0009474021216E4780C121938E5082404FC45
:10DDD000E5093400FD740D121719AA82AB831204F1
:10DDE000A074021216E4E964016005750A01801549
:10DDF0007810121934740512171912DEF51209740D
:10DE000074041216E4EEFAEFFB120524A90A742337
:10DE100002E1F512E1FDE50845092274F412172527
:10DE2000890812DF53700302DEF0E508705C12DF30
:10DE300001E0750A08750B00780A702E121938EA8D
:10DE4000FCEBFD90093AE02402FAA3E03400FB1257
:10DE5000048E74021216E4120C9EE9700812DEFBA6
:10DE6000740102DEEB750801801B121938EAFCEB25
:10DE7000FD90093AE0240AFAA3E03400FB12048E74
:10DE800074021216E412DF5360627A127B001204ED
:10DE9000B28A0A8B0BAE0AAF0BEE4F603F8E828FB9
:10DEA0008374C1F0A3E508F0750A10750B00780AB9
:10DEB00012193890093AE02402FCA3E03400FDEE88
:10DEC0002402FAEF3400FB12048E74021216E4EE00
:10DED000FAEFFB12DEFBA3E0F91204BE90093A123E
:10DEE000DEF512052490093AE4F0A3F079018002EE
:10DEF000790002DA96E0FAA3E0FB2290093AE0F812
:10DF0000A3E0F58388822274F21217257A207B0021
:10DF100012092C8A088B09E4F50AF50B8B0DEA45EA
:10DF20000D601678081219347A017B00900942E0DE
:10DF3000F912056074041216E402E008C082C0837E
:10DF40007A017B00900942E0F912056CD083D082FF
:10DF500002013590093AE0F8A3E0F9E8492274F2A9
:10DF600012172574D01216CE8A0A8B0BECFEEDFF29
:10DF7000743E12171912DFD31204A6750C10750D1A
:10DF800000780C121938AC0AAD0B7402121719AADA
:10DF900082AB8312049474021216E4750A03750BA3
:10DFA00000780A121938EEFCEFFD741F121719AA37
:10DFB00082AB8312049474021216E48518828519C8
:10DFC00083AA82AB831211E4E9FE780A121938742D
:10DFD0002F801B12E1FD7C307D0079008518828541
:10DFE0001983AA82AB8322780A1219387422121775
:10DFF00019AC82AD83AA08AB0912049474021216FC
:10E00000E4EEF974301216E47F060217F774E81292
:10E01000172574B01216CEEAFEEBFF8C168D178909
:10E020000A746812171912E1FD746A121719E0F5E3
:10E030000CA3E0F50D746C121719E0F510A3E0F5D0
:10E0400011746E121719E0F50B746F121719E0F5C1
:10E0500014A3E0F5157471121719E0F50EA3E0F59D
:10E060000F7C307D0079007420121719AA82AB83CF
:10E070001204A67512107513007812121938EEFCEE
:10E08000EFFD7422121719AA82AB83120494740252
:10E090001216E47C107D007900851882851983AA08
:10E0A00082AB831204A67512077812121938AC08D5
:10E0B000AD097402121719AA82AB83120494740278
:10E0C0001216E47508077509007808121938AC0CA7
:10E0D000AD0D7409121719AA82AB8312049474024D
:10E0E0001216E4E50B6009740E121719740180060C
:10E0F000740E121719E4F0E50A6009740F1217196B
:10E1000074018006740F121719E4F07C107D0079F9
:10E1100000EC121719AA82AB831204A675080678C0
:10E1200008121938AC10AD117416121719AA82AB67
:10E130008312049474021216E47808121938AC148D
:10E14000AD15741C121719AA82AB831204947402C1
:10E150001216E47508107808121938AC16AD177449
:10E1600032121719AA82AB8312049474021216E4B5
:10E17000851882851983AC82AD837430121719AA71
:10E1800082AB831211C67420121719AA82AB8312B4
:10E1900011E4E9FE78081219387442121719AC829A
:10E1A000AD837432121719AA82AB8312048E7402E3
:10E1B0001216E47410121719AC82AD837430121762
:10E1C00019AA82AB831211C67420121719AA82AB46
:10E1D000831211E4E9FF78081219387442121719F2
:10E1E000AC82AD83AA0EAB0F12049474021216E433
:10E1F000EE4FF974501216E47F100217F7E0F5089D
:10E20000A3E0F5092274F712172579108C828D830B
:10E21000E0F88A828B83E068F0A3AA82AB838C82C9
:10E220008D83A3AC82AD8319E970E102D96374F2E6
:10E2300012172574D01216CE8C0A8D0B743E12174D
:10E2400019E0FEA3E0FF744012171912E1FD750CEE
:10E2500010750D00780C121938EAFCEBFD740212EF
:10E260001719AA82AB8312049474021216E4750C77
:10E2700008780C121938AC0AAD0B7412121719AACF
:10E2800082AB8312049474021216E4750A08750BAB
:10E2900000780A121938EEFCEFFD741A121719AA49
:10E2A00082AB8312049474021216E48518828519D5
:10E2B00083AA82AB831211E4E9FE750A1002DFE73C
:10E2C00074F4121725EAFEEBFF890B750A0080181B
:10E2D0001204AC12E72DEBF0050AE50AC3950B50CA
:10E2E0000712E72DEAF0050AE50AC3950B40E102A3
:10E2F000DA96C082C0838A828B83E0F902DF4C7495
:10E30000F61217258982AE82E9A2E25004D2F0808B
:10E3100002C2F08A828B83E054FCFCA3E0FDEC4E49
:10E320005403FCA2F0E433F5087509007402780880
:10E330001216BBEC4508FCE9131313541FF50874BF
:10E340000378081216BBEC45088A828B83F0A3ED94
:10E35000F07F020217F774F6121725EA2420F50859
:10E36000EB3400F5097808121938EA2410FCEB3474
:10E3700000FD120E5A74021216E480D574E81217CA
:10E380002574ED1216CE7401121719ECF0A3ED12DC
:10E39000E5DF8A168B177A107B0012051E8A128B16
:10E3A000137A107B0012051E8A108B11E51245139B
:10E3B000700302E5BBEA4511700302E5BB78101259
:10E3C0001938AC12AD13AA16AB171211F074021261
:10E3D00016E4E9F50A600302E5C47A107B00120531
:10E3E0001E8A0C8B0D7A107B0012051E8A0E8B0F75
:10E3F000E50C450D700302E59CEA450F700302E54C
:10E400009C851882851983E0240FF8E43400F97A9A
:10E41000107B0012163B88088909AE08AF09E0544A
:10E420000FFCEE4F70067E017F008007EC700478D1
:10E430000180027800EE14C454F0FA740112171926
:10E44000E02AFAA3E03400FBE8A2E0500B780E12B9
:10E450001938AC12AD1380538C0B750800850882F7
:10E46000AC827403121719E5822CF8E5833400F9A5
:10E47000ECC3950B500FEA2CF582EB12E736E088DF
:10E48000828983800FE50B65088882898370047414
:10E49000808001E412E73B40C4780E121938AC10BA
:10E4A000AD117405121719AA82AB831211F674020A
:10E4B0001216E47C107D007900AA0CAB0D1204A6A4
:10E4C00075080075090080587403121719858214A5
:10E4D0008583157814121938E508C454F0F87403CC
:10E4E000121719E028FCA3E03400FDAA0CAB0D12B2
:10E4F00011F674021216E4780C121938740512170A
:10E5000019AC82AD83AA16AB17120E5A74021216FA
:10E51000E4E9F50AE5082401F508E5093400F50900
:10E52000EE24FFF8EF34FFF9C3E50898E50999A256
:10E53000D265D0335004E50A608EE50A7067740333
:10E540001217198582088583097808121938AC0ECC
:10E55000AD0FAA0CAB0D1211F674021216E4780C72
:10E560001219387405121719AC82AD83AA16AB17AD
:10E57000120E5A74021216E4E9F50A7508087509B4
:10E58000007808121938AC0CAD0D742D1217191241
:10E59000DEF512048E74021216E48009750A13E582
:10E5A0000C450D6007AA0CAB0D120524E50E450FB6
:10E5B0006012AA0EAB0F1205248009750A13E5122A
:10E5C00045136007AA12AB13120524E5104511602C
:10E5D00007AA10AB11120524A90A741302E1F5F081
:10E5E000E9851882851983F02274EE1217258A08AE
:10E5F0008B098C0E8D0F7A107B0012051E8A0C8BF6
:10E600000D7A107B0012051E8A0A8B0BAE0AAF0B27
:10E61000E50C450D700302E6CAEE4F700302E6CA30
:10E620007C107D0079001204A6780C121938EEFCDB
:10E63000EFFDAA08AB09120E5A74021216E4E9F5AE
:10E640000A600302E6D37508C9750980850C8285C6
:10E650000D83E0A2E7400DAC0EAD0FAA0CAB0D127E
:10E6600011FC8020EEFCEFFDAA0CAB0D1211FC7822
:10E670000E121938AC08AD09EEFAEFFB1211F67460
:10E68000021216E47412121719E0F510A3E0F51146
:10E69000850E82850F83E0A2E7400DAC10AD11AA74
:10E6A0000EAB0F1211FC802BEEFCEFFDAA0EAB0F90
:10E6B0001211FC7810121938AC08AD09EEFAEFFB14
:10E6C0001211F674021216E48009750A13E50C455E
:10E6D0000D6007AA0CAB0D120524EE4F6007EEFA91
:10E6E000EFFB120524A90A7F0A0217F774F6121726
:10E6F00025750800740A121719E0F8A3E0F98508D7
:10E7000082AE82EC2EF582ED12E736E0F509EA2EB4
:10E71000F582EB12E736E06509C0E0E82EF582E904
:10E7200012E736D0E012E73B40D402E351850A08F5
:10E73000EE2508F582EF3400F58322F00508E508A0
:10E74000C394102274F512172575090075080FE59A
:10E7500008F83395E0F9EA28FEEB39FF8E828F83C3
:10E76000E0C3334509C0E0EC28F582ED39F583D0EC
:10E77000E0F08E828F83E0A2E7E433F50974FF2591
:10E7800008F508C39400A2D265D03350C27F0302BB
:10E7900017F774F01217258908ECFEEDFF750900D4
:10E7A000898285820A750B008A0C8B0D780C1219F0
:10E7B0007C010318C9EAE8E700E818E8C9EA31E88B
:10E7C000A0E8B2E8ECE82FE94DE96BE98BE9A9E9AB
:10E7D000C9EAC7E913EA30EA45EA54EA6FEAC9EA46
:10E7E000C9EAC9EAC9EA8BEA74106508600302EA5B
:10E7F000C4750A10780A1219387AFE7B0302E98080
:10E8000074106508600302EAC4750A10780A1219C8
:10E81000387A0E7B0402E98074046508600302EA1A
:10E82000C48E828F831215BC90041E1215C802EA92
:10E83000EA74016508600302EAC49009FCE0F88EFE
:10E84000828F83E09009FCF0E86026E0600302EA32
:10E85000EA9003FCE06402600DE064066008E06496
:10E8600004600302EAEA9003FBE0F9120A2E02EACE
:10E87000EAE0700302EAEA9003FCE064016012E05F
:10E880006403600DE064056008E06404600302EA6C
:10E89000EA7A017B009003FBE0F91204E202EAEA63
:10E8A00074026508600302EAC412F3C59009FD0210
:10E8B000EA69E9C39420400302EAC47C1F7D007921
:10E8C000007A007B0A1204A6780A121938EEFCEFCF
:10E8D000FD7A007B0A12048E74021216E4E5089099
:10E8E00009FFF07C007D0AFB7A018038E9C394209F
:10E8F000400302EAC47C1F7D0079007A297B041260
:10E9000004A6780A121938EEFCEFFD7A297B04126E
:10E91000048E74021216E4E508900428F07C297D28
:10E9200004FB7A009003FBE0F9120A2802EAE27481
:10E93000016508600302EAC48E828F83E0F8C39405
:10E9400005400302EAC4E890044802EA88740165BD
:10E9500008600302EAC48E828F83E0F8C394044007
:10E960000302EAC4E890044902EA88740665086074
:10E970000302EAC4750A06780A1219387A4A7B0437
:10E9800012048E74021216E402EAEA740165086049
:10E990000302EAC48E828F83E0F8C3940840030226
:10E9A000EAC4E890045002EA887401650860030232
:10E9B000EAC48E828F83E0F8C39404400302EAC461
:10E9C000E890045102EA8874026508600302EAC410
:10E9D00012F3C590045212F3AAE849700302EAEA5E
:10E9E0009003FCE06405600302EAEA900452E0F55B
:10E9F0000CA3E0F50DE4F50EF50F780C1219347A3E
:10EA0000027B009003FBE0F912056074041216E427
:10EA100002EAEA74016508600302EAC48E828F8309
:10EA2000E0F8C39402400302EAC4E890045A805814
:10EA300012EB05600302EAC412EAF9400302EAC4D9
:10EA4000900A21803F12EB05707A12EAF950759016
:10EA50000A23803012F3C5740265087067C3E89416
:10EA6000F4E99401505E90045BE8F0A3E980191288
:10EA7000EB057050EA24F612EAF19477E9940C5011
:10EA800043900A25EAF0A3EBF0805F7401650870FB
:10EA9000338E828F83E06401702A7A087B009003B2
:10EAA000FBE0F9120572EA4B4C4D70137900120726
:10EAB000D67A047B009003FBE0F912056C802B757D
:10EAC000091680267509188021C3EA9427EB940063
:10EAD000501574026508700F8E828F8312EF1F121B
:10EAE0000926E9F5098003750902A9097F080217BB
:10EAF000F7F8EB34FFF9C3E822EA24FA12EAF194BA
:10EB00007BE9940C228E828F83E0FAA3E0FB7402EF
:10EB100065082274F4121725ECFEEDFF7508008AD3
:10EB20000A8B0B780A12197C00031A6CEC63EB69F0
:10EB3000EB7BEB8DEB9DEBAFEBB5EBBBEBCAEBD916
:10EB4000EBDFEBE5EBF6EBFBEB00EC05EC0AEC178F
:10EB5000EC1CEC21EC26EC2BEC48EC4DEC52EC6C74
:10EB6000EC62EC9003FD02EC65750A10750B007801
:10EB70000A1219387CFE7D0302EC3A750A10750BF7
:10EB800000780A1219387C0E7D0402EC3A90041EBB
:10EB90001215BC8E828F831215C802EC86750A0688
:10EBA000750B00780A1219387C227D0402EC3A9029
:10EBB00009FC02EC659009FD02EC559009FF12EC8E
:10EBC0008A1219387C007D0A807090042812EC8A21
:10EBD0001219387C297D04806190044802EC65900C
:10EBE000044902EC65750A06750B00780A1219389B
:10EBF0007C4A7D048044900450806A900451806572
:10EC0000900A1F8050900452804B90045AE08E82EC
:10EC10008F83F0A3E48069900A218039900A2380D1
:10EC20003490045B802F900A25802A750A06750BA4
:10EC300000780A1219387C547D04EEFAEFFB1204B6
:10EC40008E74021216E4803E90045D800890045F8A
:10EC5000800390046112F3C98E828F83E8F0A3E9E8
:10EC6000801E9003FCE08E828F838014C3EA942779
:10EC7000EB9400500E12092C8E828F83EAF0A3EBE6
:10EC8000F08003750802A908800CE0F50A750B00F6
:10EC9000780A221216E47F040217F774F612172579
:10ECA0009003FCE0703EEA4B6008900464EAF0A335
:10ECB000EBF075081E750904780812193875080EEE
:10ECC00075090478081219387CFE7D037B009003D7
:10ECD000FDE0FA9003FBE0F91205BA74041216E4A1
:10ECE0007900800279117F020217F7D083D0820267
:10ECF0000135C082C0839003FCE06405700F7C1373
:10ED000012F4069003FBE0F91209AA80027912803E
:10ED1000DA74F7121725E99003FBF09003FCE4F096
:10ED2000900A1F74FFF0A3F0120A769003FD74049A
:10ED3000F07C107D0079007AFE7B031204A67C1023
:10ED40007D0079007A0E7B041204A690041EE4F084
:10ED5000A3F0A3F0A3F0900448F0900449F09004CD
:10ED6000507407F0900451E4F07CFE7D037A107932
:10ED70000212079A7C0E7D047A10790312079A7C9E
:10ED80001E7D047A04790412079A7F010217F77432
:10ED9000F412172574F61216CEEAFEEBFF548060CB
:10EDA000239003FBE0F91204CA8A088B09EA45099B
:10EDB000600A1207CAAA08AB091204B8EEFAEF6497
:10EDC0008002EF13EF544060137C1E7D047A0479B7
:10EDD00004120794EEFAEF644002EF13EEA2E04053
:10EDE0000302EE909009FCE0700302EE8A9003FCAF
:10EDF000E06405700B8518828519837403F08039EF
:10EE0000900448E0851882851983F0900449E0C099
:10EE1000E07401121719D0E0F07508067509007842
:10EE2000081219387C4A7D047404121719AA82AB9F
:10EE30008312048E74021216E4900450E0C0E07451
:10EE400008121719D0E0F0900451E0C0E0740912E4
:10EE50001719D0E0F0851882851983AA82AB8390B8
:10EE600003FBE0F9120A22E960209003FC7407F02A
:10EE700012F40F601512F3BF12F3C988828983E57B
:10EE800082458360057907121723EE640102EF11B2
:10EE9000540260359003FCE06405702812F40612F9
:10EEA0000C6890045212F412601A90045212F3F794
:10EEB0001219347A027B009003FBE0F912056074AA
:10EEC000041216E4EE64028048EE5404600A7900ED
:10EED0001207D6EE64048039EE540860399004635A
:10EEE000E01460081470271207B88022900A2512D7
:10EEF000194F90045B12194F7901900A2312EF1FEA
:10EF0000900A2112F4091207DC74041216E4EE646C
:10EF100008FAEFFB80047A007B00740A02EC93E0AD
:10EF2000FCA3E0FD2274F4121725EA2405F8EB3463
:10EF300000F98A828B83E0246F600B24EF606D24DC
:10EF4000D2606402F007A3E0640E600302F0078A57
:10EF5000828B83A3A3A3E064057004A3E064146020
:10EF60000302F0078882898312F3BCA3A3A3E0F90C
:10EF70009003FCE06405600302F007747F6970038E
:10EF800002F00790046412F409EA4B607A9004647A
:10EF900012F3BCA3A312F4098A828B83E582458312
:10EFA000606512172380601207D0805B8882898396
:10EFB000E0641370528A828B83A3A3A3A3A3A3E06C
:10EFC00064017002A3E07019900463E064027011A0
:10EFD0007A087B009003FBE0F912056C1207B880F9
:10EFE000267A057B0012092C8A088B09E4F50AF5BC
:10EFF0000B78081219347A087B009003FBE0F912B1
:10F00000056074041216E402EC9674EC121725EAFB
:10F01000FEEBFF8E828F83A3A3E0F8EE2403F50CB2
:10F02000EF3400F50DEE240AF50AEF3400F50B8EEF
:10F03000828F83A3858208858309E8602724FE7078
:10F040000302F0D814700302F13914700302F1398D
:10F0500014700302F19E14700302F2B514700302DF
:10F06000F327806FE0704B7CFE7D037A10790212EB
:10F0700007947C0E7D047A107903120794750806B4
:10F080007509007808121938AC0CAD0D7A227B0492
:10F0900012048E74021216E49003FC7401F07C00DA
:10F0A0007D0A9009FFE0FB7A019003FBE0F9120A68
:10F0B00028E9707C12F40F601A12F3BF12F3C9E84A
:10F0C000FAE9FBEA4B600C9003FCE0F98A828B833F
:10F0D0001217237F0C0217F7E0704C850C82850D08
:10F0E00083E0601D7C297D04900428E0FB7A009079
:10F0F00003FBE0F9120A28E9850882850983F0807C
:10F10000269003FCE06402601E7A017B009003FB02
:10F11000E0F9120572EA4B4C4D700C7A017B0090BD
:10F1200003FBE0F91204E2850882850983E060A30D
:10F130009003FC7407F002F0B4E070F4740368709C
:10F14000109003FCE064057004740680E87402808B
:10F15000E49009FD12F4129009FC601FE0601E901B
:10F1600009FD12F3F71219347A017B009003FBE0DA
:10F17000F912056074041216E48002E4F09003FCB6
:10F18000E064067004740580ACE06404700C9009BF
:10F19000FC12F3B01204E202F0B474038097E0F8BA
:10F1A000600302F2A2EE2404F508EF3400F50975BD
:10F1B0000E06750F00780E121938AC08AD097A5496
:10F1C0007B0412048E74021216E4850A82850B8376
:10F1D00012F3C9900A1F12F3AA9003FC7405F09071
:10F1E000045212F4126025900452E0F510A3E0F5E9
:10F1F00011E4F512F51378101219347A027B00909D
:10F2000003FBE0F912056074041216E4EE240CF519
:10F2100082EF3400F58312F3EBEE240EF582EF3427
:10F2200000F58312F3DFEE2410F582EF3400F5834E
:10F2300012F3D390045AE06401703B7A1F7B0012F2
:10F24000092C8A10EA75F0E8A4C510A8F075F0033F
:10F25000A428F875F0E8EBA428F511E4F512F513ED
:10F2600078101219347A047B009003FBE0F9120540
:10F270006074041216E4750E04780E12193C850AA7
:10F2800082850B8312EF1FAA08AB09850C82850DBE
:10F2900083E0F91205C674011216E49009FCE40239
:10F2A000F135743168600302F1309009FCE4F090AC
:10F2B00003FC02F19A1205E47C067D0079007A5481
:10F2C0007B041204A690045DE4F0A3F090045FF0C8
:10F2D000A3F0900461F0A3F07A04FB9003FBE0F943
:10F2E00012056C7A087B009003FBE0F912056C8E26
:10F2F000828F83A3A3A3A3A3E064089003FC7004FC
:10F30000740480027403F09009FCE0600A9003FB2F
:10F31000E0F9120A2E800612F3B01204E2900A1FDE
:10F3200074FFF0A302F1357A087B009003FBE0F94B
:10F3300012056C850882850983E0600302F0D38E94
:10F34000828F83A3A3A3A3A3A312F3EB8E828F8345
:10F35000A3A3A3A3A3A3A3A312F3DF850A82850B10
:10F360008312F3D37A047B009003FBE0F912057259
:10F37000EA4B4C4D600302F0D390046612F4127015
:10F380000302F0D390046112194F90045F12EF1F33
:10F3900090045D12F40990046612F3BC12F3BC12DF
:10F3A000172374021216E402F0D3E8F0A3E9F02266
:10F3B0007401F0FA7B009003FBE0F922E0F8A3E08F
:10F3C000F5838882228E828F8312F3CD22E0F8A308
:10F3D000E0F92212F3CD900461E8F0A3E9F02212E3
:10F3E000F3CD90045FE8F0A3E9F02212F3CD90048E
:10F3F0005DE8F0A3E9F022E0F508A3E0F509E4F503
:10F400000AF50B780822900A1FE0FAA3E0FB22908D
:10F41000046412F3CDE8492274F412172574F8122B
:10F4200016CEE9FE900A2112F3C975830475825D38
:10F43000C3E098A3E099403890045D12F3C9758346
:10F440000A758223C3E098A3E099402490045F12D8
:10F45000F3C990045BE0687003A3E0697012900444
:10F460006112F3C9900A25E0687003A3E06960792E
:10F470007A057B0012092C8A088B09900A2112F365
:10F48000C985188285198312F3AA900A2312F3C939
:10F49000740212171912F3AA90045B12F3C97404D0
:10F4A00012171912F3AA900A2512F3C9740612173B
:10F4B0001912F3AA9003FBE0F9851882851983AC31
:10F4C00082AD8312F406120D40EE900463F0E4F571
:10F4D0000AF50B78081219347A087B009003FBE0D8
:10F4E000F912056074041216E4740802EC9374F4C3
:10F4F000121725E9FE9003FCE0640560057914020B
:10F50000F585EA24FAF8EB12F5885077EC24FAF83E
:10F51000ED12F588506D740C121719E0F50AA3E08E
:10F52000F50BC3E50A94F4E50B94015056740E12E2
:10F530001719E0F508A3E0F509E50824F6F8E50950
:10F5400012EAF39476E9940C5039900A21EAF0A378
:10F55000EBF0900A23ECF0A3EDF090045BE50AF0E9
:10F56000A3E50BF0900A25E508F0A3E509F0EEF914
:10F570001207D67A047B009003FBE0F912056C7940
:10F58000008002791802EC9612EAF3947AE9940C5E
:10F590002274F2121725ECFEEDFF8A828B83A3A35F
:10F5A000A3A3A3A3A3A3E0F50A700302F68EEA24A3
:10F5B00006F8EB3400F9880889098882F583E0FCB5
:10F5C000A3E0FD8C828D83E0F50BA2E7504CE50AA9
:10F5D000C3940D500302F68E74F4250AF50AF50C57
:10F5E000EC250CF50CED3400F50D780C121938E50E
:10F5F0000AF50C780C12193C79018A828B83A3A33B
:10F6000012FA6B1211A274031216E4E98E828F8330
:10F61000700474018009740280058E828F83E4F087
:10F62000E50BA2E65004D2F08002C2F0A2F0E4336F
:10F63000A3F0743F550B8E828F83A3A3F0EE2403B7
:10F64000F8EF3400F9E50A24FFFAE434FFFB88827E
:10F650008983EAF0A3EBF0EE2405FAEF3400FB888F
:10F6600082898312FCC3496019850882850983E079
:10F670002401F8A3E03400F98A828B83E8F0A3E93F
:10F6800080078A828B83E4F0A3F0790080027901FD
:10F690007F060217F774F71217258C828D8312F9F3
:10F6A000628C828D83A3A882A98312F96B8C828DD0
:10F6B00083A3A312F6BD7A047B0002F719A312FB01
:10F6C000D722C082C08312FBBE7A02802574F71253
:10F6D0001725740912171912FA6B740B12171912E5
:10F6E000FA647001EB700512FA71800279048029C6
:10F6F00080D07B00D083D08202013574F7121725A9
:10F70000740912171912FBFF7001E9700A740B12C9
:10F71000171912FC06800279047F010217F774EEB4
:10F72000121725EAFEEBFF8C0C8D0D75080175098B
:10F73000008C828D83A385820E85830F12F8247539
:10F740000A00803BE51075F012A4F510E5F0F51104
:10F7500012F7EB751010751100781012193812F7A6
:10F76000DF12048E74021216E4EE2410FEEF340051
:10F77000FFE5082412F508E5093400F509050A85B6
:10F780000C82850D83E0F8E50AC398504B8E828F7A
:10F7900083A3AA82AB83850A8285821075110085B6
:10F7A0000E82850F83E06401709A7402781012163D
:10F7B000BB12F7EB75100275110078101219381290
:10F7C000F7DF12048E74021216E4EE2402FEEF3408
:10F7D00000FFE5082404809DAA08AB0902FEA3EC03
:10F7E0002404FCED3400FD0AEFFB22E50C2510FC9F
:10F7F000E50D3511FD12F80712F81DEAFEEBFF8842
:10F8000082898312F81422EC2402F8ED3400F9887E
:10F8100082898322A312F81DA30EAF8322E08E8279
:10F820008F83F02212F81DA3AE82AF832274F212EE
:10F830001725ECFEEDFF740E121719E0F50AA3E090
:10F84000F50BC3E50A9406E50B9400500302F8F7A4
:10F85000741012171912F8FC8E828F83E0FAA3E05D
:10F86000F9EA850882850983F0A3E9F08E828F8307
:10F87000A3A3E0FA8E828F83A3A3A3E0F8E4C8F9E0
:10F88000EA850882850983A3A3F0A3E912FFBAA33E
:10F89000A3A37402F0F50C880D780C121938EE242D
:10F8A00004FCEF3400FDE5082405FAE5093400FB0B
:10F8B00012048E74021216E4E50A24FAF50A850889
:10F8C00082850983A3A3A3A3A3A3A3F0C394115088
:10F8D00026750B00780A121938EE2406FCEF340066
:10F8E000FDE5082408FAE5093400FB12048E7402D1
:10F8F0001216E479008002790402F69012FDAAF54E
:10F90000092274F5121725750A008035850A0875D5
:10F910000900740278081216BBEC2508F8ED3509C9
:10F92000F988828983A3AE82AF8312F9628E828FB7
:10F930008312FC41E82403F8E912F80C12F96B0574
:10F940000A8C828D83E0F508E50AC3950840BD75F1
:10F950000900740278081216BBAA08AB097F0302DB
:10F9600017F712F6BEA3AA82AB832212FAF6A30AF5
:10F97000AB832274101216E47F040217F774F61298
:10F980001725740C12171912FA6BEA2404F8EB34D9
:10F9900000F9740A121719E0FEA3E0FF74066E70F6
:10F9A00001EF7046888289837402F08C828D831205
:10F9B000F9FE8A828B83F0A3EF12FD4AFEE4CEFFAC
:10F9C000E5088A828B83A3A3F0A3EFF08882898362
:10F9D000E0F5088E09780812193812FD3912048EE4
:10F9E00074021216E4790002FAD174146E7001EFF9
:10F9F000700888828983741080B0790480E912FDD0
:10FA0000AAFFE5082274F61217258C828D83A3E0E5
:10FA1000F8F5F08C828D83E0A4FEE88A828B83F077
:10FA2000A3AA82AB838E08750900780812193812D0
:10FA3000FCBA12048E74021216E4EE240102FACC0F
:10FA400074F7121725740912171912FA6B740B1236
:10FA5000171912FA647001EB700512FA71800279BD
:10FA60000402F71912FB8974026A22E0FAA3E0FB90
:10FA70002212FC2B79002274F6121725ECFEED12EF
:10FA8000FADA1219388E828F83A3AC82AD83120406
:10FA90008E74021216E48E828F83E0FA7B0080312E
:10FAA00074F612172512FAE8A30AAB83EC240412A9
:10FAB000FAD6121938EC2405FCED3400FD12048E40
:10FAC00074021216E48E828F83E02404FAE4340078
:10FAD000FB7F020217F7FEED3400FF8E828F83E07A
:10FAE000F50875090078082212FBC2A30AAB83123D
:10FAF000F80712FAF62212FBD7A30AAB8388828991
:10FB00008312FBD62274F412172589088A09740C13
:10FB100012171912FB85C3E89402E994004061743E
:10FB20000E12171912FA6B8C828D83E0F50AA3E08E
:10FB3000FFE50A8A828B83F0A3EFF0EA241712FF15
:10FB4000C3E508F0EA241812FFC3E509F0E50870E0
:10FB5000047E1480027E08E824FEF50A8A828B83E4
:10FB6000A3A3F0EEC3950A4017750B00780A12198B
:10FB70003812FD9312048E74021216E4790080028A
:10FB8000790402F97812FB8922E0F8A3E0F92274E3
:10FB9000F612172512FBBEA30AAB83EC240212FA5D
:10FBA000D6121938EC2403FCED3400FD12048E74D7
:10FBB000021216E48E828F83E0240202FACC12FB3A
:10FBC000C2228C828D8312FBD7A3AA82AB838C8244
:10FBD0008D8312FBD622A3E08A828B83F02274F7F6
:10FBE000121725740912171912FBFF7001E9700A28
:10FBF000740B12171912FC068002790402F719120D
:10FC0000FB897404682212FB8912FC2B8C828D8381
:10FC1000A3A3E0FE8C828D83A3A3A3E0FBEE8882E6
:10FC20008983A3A3F0A3EBF07900228C828D83E07B
:10FC3000FEA3E0FBEE88828983F0A3EBF02202FAB8
:10FC40007712F6BDA30AAB832274F6121725740A45
:10FC500012171912FCC3A2E0405BE9C313E813F5C5
:10FC60000974FE2509C3940A504B740C121719121B
:10FC7000FCC32416F582E912FFC6E509F0750800F9
:10FC800080288C828D83E0FEA3E0FBEE2400E43B21
:10FC9000FFE50833FAE433FBE82AF582E93BF58314
:10FCA000EEF0A3EFF012FCBA0508E508C395094091
:10FCB000D179008002790402FAD1EC2402FCED34FF
:10FCC00000FD2212FB89E82202FA7702FA0574F697
:10FCD000121725740A121719E0FEA3E0FFC3EE9471
:10FCE00004EF9400404E740C12171912FD9FF9E5B1
:10FCF000088A828B83F0A3E912FD4AF8E4C8F9E58B
:10FD0000088A828B83A3A3F0A3E9F0EE24FCF50814
:10FD10008A828B83A3A3A3A3F0C3941350168809EC
:10FD2000780812193812FD3912048E74021216E482
:10FD300079008002790402FAD1EC2404FCED34004D
:10FD4000FDEA2405FAEB3400FB22F08C828D83A3BC
:10FD5000A3E0F5088C828D83A3A3A3E02202FAA07E
:10FD6000C082C08385188285198312FA6B740212CF
:10FD7000171912FB8574016A7001EB700E8C828D6D
:10FD800083E088828983F079008002790402F6F4A6
:10FD900002FB8F12FCBAEA2403FAEB3400FB2212B6
:10FDA000FDB08C828D8312FDAA22E0F508A3E0222B
:10FDB000E0F8A3E0F9E8FAE9FB2274EE12172574E3
:10FDC000FA1216CE8A0E8B0F8C0A8D0B890C7418C2
:10FDD000121719E0F510A3E0F5117A177B00120D48
:10FDE000DC8A088B09AE08AF09EE4F700302FE995A
:10FDF0008E828F83750801750900E50CF0A3E50A72
:10FE0000450B601BAC10AD11AA82AB83850A8285BD
:10FE10000B83121723EA2401F508EB3400F509E5FA
:10FE20000CA2E7502E7910AA0EAB0F120E06E97045
:10FE300063EE2508FCEF3509FDA908EEFAEFFB1289
:10FE4000119CE9F50A7044E508240CF508E509342D
:10FE500000F5098518828519837404F0A3E4F07411
:10FE600002121719EEF0A3EFF07404121719E50847
:10FE7000F0A3E509F0851882851983AC82AD83AAC9
:10FE80000EAB0F120D34E9F50A6011EEFAEFFB121A
:10FE900007228008750A1980F2750A13A90A7406E8
:10FEA0001216E47F0A0217F774F412172574F01281
:10FEB00016CEEAFEEBFF74026C7001ED6008741060
:10FEC0006C7001ED7018741E12171912FB85740204
:10FED000687001E9600C7410687001E960047900D1
:10FEE0008075741C12171912F8FCE86C7002E96D29
:10FEF000700F8C0A8D0B780A121938AC08AD098086
:10FF00004E74106C7001ED851882851983AC82AD3A
:10FF1000837021AA08AB0912092075081075090021
:10FF200078081219387402121719AC82AD83EEFAF0
:10FF3000EFFB801B120920750A10750B00780A125E
:10FF400019387402121719AC82AD83AA08AB0912D2
:10FF500004A074021216E402F97374F41217258ACD
:10FF6000088B09ECFEEDFFEA45096049EE4F60455C
:10FF7000750A10750B00780A1219387CE97D80EE3D
:10FF8000FAEFFB12048E74021216E48508828509CA
:10FF900083E0C0E0EE240CF582EF12FFC6D0E01241
:10FFA000FFBAE0C0E0EE240DF582EF12FFC6D0E00C
:10FFB000F079018002790002F978F08508828509DC
:10FFC00083A322F582EB3400F58322C082C08385AF
:10FFD0001882851983E0F8A3E0F9E84960128A8263
:10FFE0008B83ECF0A3E824FF18E934FFF94870F2A2
:07FFF000D083D0820201352D
:020000040001F9
:1000000074F6121725E9FE74FF2EF50804C313FEDB
:100010006039EA2508FCEB3400FDEAF8EBF9EEFF65
:1000200088828983E0FA8C828D83E088828983F0DC
:10003000EA8C828D83F088828983A3A882A983ECCD
:1000400024FFED34FF1CFD1FEF70D50284F9C08240
:10005000C08390618FE0F902821374F71217257440
:10006000FE1216CEE9FE7005791202812E53B4F30A
:1000700090619A743FF0A3745AF09061A0E4F090FC
:100080006184F0E5E170FC75E1027F009061BFE002
:1000900070070FEFC394FA40F374FA6F603E7F006D
:1000A0009061BFE0851882851983F09061BFE0F808
:1000B0007401121719E8F0851882851983E0FCE8AD
:1000C000F9ECF849600A740368700374806970077A
:1000D0000FEFC394FA40C974FA6F7004791F804E11
:1000E000EAF8EBF9EEFF9061BFE0F5BDE0F5BDE0A9
:1000F000F5BDE0F5BDE0F5BDE0F5BDE0F5BDE0F531
:10010000BDE5BC88828983F0A3A882A9831FEF7014
:10011000D5E5E170FC75E1017401121719E0F5BC39
:10012000851882851983E0F5BC120ED2790074021D
:100130001216E47F010217F7C082C083786E790738
:1001400088828983E08A828B83F088828983A3A84E
:1001500082A9838A828B83A3AA82AB83E8647670A8
:1001600003E9640770DA028213C082C0837876796B
:100170000788828983E08A828B83F088828983A3BF
:10018000A882A9838A828B83A3AA82AB83E8647A3C
:100190007003E9640770DA028213C082C083E5B39A
:1001A000548F4440F5B3EB900369F0EAA3F0900359
:1001B0006E7410F090036DE054E0F053D1FD75D6ED
:1001C00002E5B354F84404F5B343B301E5B3A2E345
:1001D00050FAED900369F0ECA3F08518828519833D
:1001E000E0F8A3E0900373F0E8A3F09003767410B6
:1001F000F0900375E054E0F053D1FD53D1FB75D678
:100200000275D60453B3F843B301E5B3A2E350FA41
:100210008001F0D083D082020135C082C083900378
:100220006B7470F0A374B1F0A3E0541FF090036FEF
:10023000741DF0A37442F0A37470F0A374B2F09034
:100240000375E0541FF0900377741EF0A37412023C
:100250008212C082C083EA6C7002EB6D604390032F
:1002600065E0541FF09003677420F0A37452F0ED22
:10027000900361F0ECA3F0EBA3F0EAA3F085188201
:10028000851983E0F8A3E0F9E8900366F0E99003AC
:1002900065F053D1FE75D60175D701E5D1A2E050C6
:1002A000FA028213C082C083E5B3548F4450F5B381
:1002B0007480900369F07430A3F090036E7410F0B2
:1002C00090036DE054E0F053D1FD75D602E5B354D0
:1002D000F84406F5B343B301E5B3A2E350FA028252
:1002E0001374F612172574E01216CEE9FE740F5E31
:1002F0006004780180027800EEC4540F28FF85184E
:1003000082851983E58264307004E58364806047E8
:10031000900365E0541FF09003677420F0A37452BB
:10032000F07480900361F07430A3F0851983E58345
:10033000900363F0851882E582900364F090036671
:100340007410F0900365E4F053D1FE75D60175D7B3
:1003500001E5D1A2E050FA8518828519837401F075
:10036000121719E5826A7003E5836B604990036593
:10037000E0541FF09003677420F0A37452F0EB90E8
:100380000361F0EAA3F07401121719E58390036387
:10039000F07401121719E582900364F090036674FB
:1003A0000DF0900365E4F053D1FE75D60175D701C9
:1003B000E5D1A2E050FAE5B3548F4410F5B38519A6
:1003C00083E583900369F0851882E58290036AF0E3
:1003D00090036E7410F090036DE054E0F053D1FD83
:1003E00075D602E5B354F84406F5B343B301E5B35B
:1003F000A2E350FA742A121719E0F8A3E0900369F7
:10040000F0E8A3F07410121719E583900373F074E9
:1004100010121719E582900374F09003767410F0AF
:10042000900375E054E0F053D1FD53D1FB75D60233
:1004300075D60453B3F843B301E5B3A2E350FA749D
:100440000F1217197401F0E5B3548F4430F5B385DA
:100450001983E583900369F0851882E58290036A29
:10046000F053D1FD75D602E5B354F84406F5B34315
:10047000B301E5B3A2E350FAEDF8900369F0ECF9AB
:10048000A3F0EFC454F0FA90036EF0E8900373F019
:10049000E9A3F0EA900376F053D1FD53D1FB75D672
:1004A0000275D604EF6011FA53B3F843B3011AE5AD
:1004B000B3A2E350FAEA70F08E08EC2508F8ED34A8
:1004C00000F97410121719E088828983F0741112F0
:1004D0001719E088828983A3F07412121719E08833
:1004E000828983A3A3F07413121719E08882898389
:1004F000A3A3A3F074201216E47F020217F774F688
:1005000012172574E01216CEE9FE740F5E600478AF
:100510000180027800EEC4540F28FF8518828519E7
:1005200083E58264307004E58364806047900365EE
:10053000E0541FF09003677420F0A37452F07480AD
:10054000900361F07430A3F0851983E58390036311
:10055000F0851882E582900364F09003667410F0D1
:10056000900365E4F053D1FE75D60175D701E5D14E
:10057000A2E050FA8518828519837401F0121719C8
:10058000E5826A7003E5836B6049900365E0541F60
:10059000F09003677420F0A37452F0EB900361F0C5
:1005A000EAA3F07401121719E583900363F0740154
:1005B000121719E582900364F0900366740DF090B1
:1005C0000365E4F053D1FE75D60175D701E5D1A2DC
:1005D000E050FAE5B3548F4410F5B3851983E583F1
:1005E000900369F0851882E58290036AF090036EAB
:1005F0007410F090036DE054E0F053D1FD75D60215
:10060000E5B354F84406F5B343B301E5B3A2E350B0
:10061000FA742A121719E0F8A3E0F9900369F0E8D8
:10062000A3F07410121719E583900373F07410127D
:100630001719E582900374F09003767410F090031C
:1006400075E054E0F053D1FD53D1FB75D60275D659
:100650000453B3F843B301E5B3A2E350FA741012A4
:100660001719E088828983F07411121719E08882C3
:100670008983A3F07412121719E088828983A3A3D7
:10068000F07413121719E088828983A3A3A3F0746E
:100690000F1217197401F0E5B3548F4430F5B38588
:1006A0001983E583900369F0851882E58290036AD7
:1006B000F090036E7410F090036DE054E0F053D1AD
:1006C000FD75D602E5B354F84406F5B343B301E52E
:1006D000B3A2E350FAEDF8900369F0ECF9A3F0EF60
:1006E000C454F0FA90036EF0E8900373F0E9A3F0BD
:1006F000EA900376F0900375E054E0F053D1FD5397
:10070000D1FB75D60275D604EF6016F8E5B354F840
:100710004402F5B343B30118E5B3A2E350FAE8701D
:10072000EB0284F474F512172574E01216CEEAFE7B
:10073000EBFF89088C09740F550960047801800269
:100740007800ECC4540F28F50A120FEC8518828546
:100750001983E58264307004E58364806047900308
:1007600065E0541FF09003677420F0A37452F07496
:1007700080900361F07430A3F0851983E5839003C2
:1007800063F0851882E582900364F090036674201C
:10079000F0900365E4F053D1FE75D60175D701E5FD
:1007A000D1A2E050FA8518828519837449F074014A
:1007B000121719E5826E7003E5836F604990036537
:1007C000E0541FF09003677420F0A37452F0EF9090
:1007D0000361F0EEA3F07401121719E5839003632F
:1007E000F07401121719E582900364F090036674A7
:1007F0000DF0900365E4F053D1FE75D60175D70175
:10080000E5D1A2E050FA740F121719E509F074113E
:100810001217197401F07412121719E508F08519EE
:1008200083E583900369F0851882E58290036AF07E
:1008300090036E7420F090036DE054E0F053D1FD0E
:1008400075D60253B3F843B301E5B3A2E350FA53AC
:10085000B3F843B301E5B3A2E350FA742B121719AE
:10086000E0F8A3E0900369F0E8A3F0E50AC454F0CF
:1008700090036EF0851983E583900373F0851882E9
:10088000E582900374F09003767410F0900375E0A5
:1008900054E0F053D1FD53D1FB75D60275D604E573
:1008A0000A6025E5B3FA150AE50A6004785080026B
:1008B0007800748F5A48F5B353B3F843B301E5B3E6
:1008C000A2E350FAE50A70DB742D121719E0F8A3C1
:1008D000E0F9851882851983E088828983F07401A4
:1008E000121719E088828983A3F07402121719E0A5
:1008F00088828983A3A3F07403121719E088828980
:1009000083A3A3A3F074201216E47F030217F774E5
:10091000F012172574F81216CEEAFEEBFF89098C47
:1009200008EE24B2F8EF3400F9E5B3548F4440F5F3
:10093000B3E9900369F0E8A3F090036E7410F090AF
:10094000036DE054E0F053D1FD75D602E5B354F8E1
:100950004404F5B343B301E5B3A2E350FA9005AB09
:10096000E06408705DEE24A5F8EF3400F9EE24D4BD
:10097000F582EF3400F5831215BC85188285198342
:100980001215C8851882851983E088828983F074DE
:1009900001121719E088828983A3F07402121719D3
:1009A000E088828983A3A3F07403121719E0888278
:1009B0008983A3A3A3F088828983A3A3A3A37480BC
:1009C000805AEE24A5F8EF3400F9EE24D4F582EF36
:1009D0003400F5831215BC8518828519831215C859
:1009E000851882851983E088828983F07401121743
:1009F00019E088828983A3F07402121719E08882B3
:100A00008983A3A3F07403121719E088828983A352
:100A1000A3A3F088828983A3A3A3A3E4F0E508C37A
:100A2000941185080A5004741080027420C3950A3A
:100A3000F895E0F97418121719E0F50CA3E0F50D1C
:100A4000E50C250AFCE50D3400FDEC64307003ED87
:100A50006480603A900365E0541FF090036774204F
:100A6000F0A37452F07480900361F07430A3F0ED41
:100A7000A3F0ECA3F0E8900366F0E9900365F0536F
:100A8000D1FE75D60175D701E5D1A2E050FAEE246A
:100A9000A5F50AEF3400F50B740412171985820EC0
:100AA00085830F780E121938780C121938AC08A902
:100AB00009AA0AAB0B120FFE74041216E4780E1288
:100AC0001938AC0CAD0DA908AA0AAB0B120FF274C1
:100AD000021216E4EE24D4F582EF3400F583750C8F
:100AE00001750D00750E00750F00780C12152A7433
:100AF000081216E47F080217F774F012172574F431
:100B00001216CE8A088B09890B8C0AEA24B2F8EBFC
:100B10003400F9E5B3548F4440F5B3E9900369F02C
:100B2000E8A3F090036E7410F090036DE054E0F0D1
:100B300053D1FD75D602E5B354F84404F5B343B37D
:100B400001E5B3A2E350FA9005ABE06408705CEAFB
:100B500024A5F8EB3400F9EA24D8F582EB3400F54B
:100B6000831215BC8518828519831215C8851882D1
:100B7000851983E088828983F07401121719E0884F
:100B8000828983A3F07402121719E088828983A3F3
:100B9000A3F07403121719E088828983A3A3A3F03A
:100BA00088828983A3A3A3A3E4805BEA24A5F8EB4E
:100BB0003400F9EA24D8F582EB3400F5831215BC31
:100BC0008518828519831215C8851882851983E0D6
:100BD00088828983F07401121719E088828983A3BF
:100BE000F07402121719E088828983A3A3F07403BA
:100BF000121719E088828983A3A3A3F088828983CE
:100C0000A3A3A3A37480F0741C121719E0F50CA31E
:100C1000E0F50D850A0EE50C250EF8E50D3400F91A
:100C200088828983E0C0E07404121719D0E0F0884C
:100C3000828983A3E0C0E07405121719D0E0F08820
:100C4000828983A3A3E0C0E07406121719D0E0F0F4
:100C500088828983A3A3A3E0C0E07407121719D088
:100C6000E0F0E50AC394115004741080027420C3AC
:100C7000950EFE95E0FFE50C250EFAE50D3400FB20
:100C8000EA64307003EB6480603A900365E0541FBF
:100C9000F09003677420F0A37452F07480900361A5
:100CA000F07430A3F0EBA3F0EAA3F0EE900366F04B
:100CB000EF900365F053D1FE75D60175D701E5D1EC
:100CC000A2E050FA740412171985820E85830F78FA
:100CD0000E121938AC0CAD0DA90AE50824A5FAE5E9
:100CE000093400FB120FF874021216E4EEFAEFFB5F
:100CF000850A0EE50C250EFCE50D3400FDEC643094
:100D00007003ED6480603A900365E0541FF0900337
:100D1000677420F0A37452F07480900361F0743013
:100D2000A3F0EDA3F0ECA3F0EA900366F0EB9003E0
:100D300065F053D1FE75D60175D701E5D1A2E0501B
:100D4000FA740812171985820E85830F780E12190E
:100D500038780C121938AC0AA90BE50824A5FAE575
:100D6000093400FB120FFE74041216E47404121707
:100D700019E0F87408121719E0687030740512173A
:100D800019E0F87409121719E06870207406121738
:100D900019E0F8740A121719E06870107407121736
:100DA00019E0F8740B121719E06860047900801FCD
:100DB000E50824D8F582E5093400F583750C017542
:100DC0000D00750E00750F00780C12152A7901744C
:100DD0000C028AF174F01217257901121040E964AF
:100DE000016003028ECF9006FDE0640170201210B6
:100DF000B27AF17B061210349006FAE4F075E1F154
:100E00007A02FB9005AAE0F91204E2028ECF120FDB
:100E1000C2E9FC9006F1E02402F8A3E03400F9E80E
:100E2000FAE9FB8A828B83EC75F0118485F00885E2
:100E3000080CE4F50DF50EF50F780C121517900659
:100E4000FBE0F508A3E0F509E4F50AF50B780C7969
:100E5000081215047508FF7509FF750AFF780C79EB
:100E6000081215658A828B83780C1215AD750804FB
:100E7000750900750A00780C79081215047508FFC9
:100E80007509FF750AFF780C79081215659006F14F
:100E9000E0F8A3E0C8240EF582E83400F583780C6E
:100EA0001215AD9006F1E0F8A3E0C82414F582E82D
:100EB0003400F5837413F09006F1E0F8A3E0C82441
:100EC00016F582E83400F583741AF0A3740FF0026B
:100ED000994F74EC1217257901121040E9640160F2
:100EE000030295639006FAE4F07AF17B061210345F
:100EF000120F748A088B09AE08AF098E828F83A304
:100F0000A3A37401F09005D8E004F0794012102EEC
:100F10008A088B09A808A9098E828F83E8F0A3E9C3
:100F2000F0E82406FCE93400FDE82402FAE9340084
:100F3000FB1210BEE5D9E5D9A2E6E4339006DEF057
:100F400078DE7906E5D988828983A3F0888289834F
:100F5000A3A882A983E864E47003E9640670E578D5
:100F600006E5D918E870FAEE2422F8EF3400F9E823
:100F700049700A7804E5D918E8603080F8EEF8EF97
:100F8000F9E82404FAE93400FBE5D9C0E0E82422BA
:100F9000F582E93400F583D0E0F088828983A3A844
:100FA00082A983EA687002EB6970DEEE2422F58282
:100FB000EF3400F5831215BC12111EEE2426F8EF53
:100FC0003400F9E849700A7803E5D918E860308000
:100FD000F8EEF8EFF9E82403FAE93400FBE5D9C0AC
:100FE000E0E82426F582E93400F583D0E0F0888239
:100FF0008983A3A882A983EA687002EB6970DEEE98
:101000002426F582EF3400F5837508FF7509FF7516
:101010000AFF750B007808121578AA08AB09AC0A0C
:101020007D001210F4E5D9C0E0EE242BF582EF34F8
:1010300000F583D0E0F0EE242CF8EF3400F9E84915
:101040007006E5D9E5D98022E5D9C0E0EE242CF57B
:1010500082EF3400F583D0E0F0E5D9C0E0EE242D36
:10106000F582EF3400F583D0E0F0EE242EF8EF3473
:1010700000F9E8497006E5D9E5D98022E5D9C0E054
:10108000EE242EF582EF3400F583D0E0F0E5D9C0F0
:10109000E0EE242FF582EF3400F583D0E0F0EE246B
:1010A0002BF582EF3400F583E0C333F0EE242CF807
:1010B000EF3400F988828983E0FAA3E0FBEAC333C6
:1010C000FAEB33FB88828983EAF0A3EBF0EE242E5F
:1010D000F8EF3400F988828983E0FAA3E0FBEAC3E1
:1010E00033FAEB33FB88828983EAF0A3EBF0EE243A
:1010F00020F8EF3400F9E8497006E5D9E5D98022F7
:10110000E5D9C0E0EE2420F582EF3400F583D0E08D
:10111000F0E5D9C0E0EE2421F582EF3400F583D06C
:10112000E0F0EE2432F8EF3400F9E8497006E5D932
:10113000E5D98022E5D9C0E0EE2432F582EF340013
:10114000F583D0E0F0E5D9C0E0EE2433F582EF344A
:1011500000F583D0E0F0E8FAE9FB8A828B83E0F5C2
:101160000AA3E0F50B7404780A1216BB850A0885F9
:101170000B098A828B83E508F0A3E509F0E4F50A00
:10118000F50BEE2420F582EF3400F583E02401F521
:101190000CA3E03400F50DE4F50EF50FEE242EF56A
:1011A00082EF3400F583E0F8A3E0F9E8C333F8E90F
:1011B00033F988108911E4F512F513780C791012BF
:1011C00013DC7808790C12139D5013EE242EF5824F
:1011D000EF3400F583E0F8A3E0F9E84970167A40AF
:1011E0007B009005AAE0F91204E2EEFAEFFB120F81
:1011F00086029563EE242BFCEF3400FDEEFAEFFB44
:10120000120F98EE240BF582EF3400F5837405F08D
:10121000A3E4F0EEFAEFFB120F9EEE245DF8EF343C
:1012200000F9E849700A7805E5D918E8603080F8D7
:10123000EEF8EFF9E82405FAE93400FBE5D9C0E05F
:10124000E8245DF582E93400F583D0E0F0888289F6
:1012500083A3A882A983EA687002EB6970DEE5D9EE
:10126000F50CC4135407F9EE242AF582EF3400F587
:1012700083E9F01227FAEE2410F582EF3400F583AB
:10128000EAF0A3EBF0E50C541FC0E0EE2437F58242
:10129000EF3400F583D0E0F0EE245DFCEF3400FD88
:1012A000EEFAEFFB120F6E12117E12111879041272
:1012B0001124790112115A9060607480F075E1F187
:1012C000900C637464F0A37410F0A37464F0A374BE
:1012D00010F0A37464F0A37410F0A37464F0A3740A
:1012E00010F0A37410F0A37410F0A37464F0A3744E
:1012F00010F0A3746AF0A37410F0900C717410F0E5
:10130000A37410F0A37410F0A37410F0A37410F081
:10131000A37410F0A37410F0A37410F0A37410F071
:10132000A37410F0A37410F0A37410F07A047B007F
:101330009005AAE0F91204E2EE242CF8EF3400F94B
:1013400088828983E0FAA3E0FB8A0C8B0DE4F50E1A
:10135000F50F750802F509780C7908121504EA4BA7
:101360006013EE242CF582EF3400F583E064027004
:1013700002A3E0704EEE242EF582EF3400F583E0F8
:10138000F508A3E0F509780C79081215047C027DB4
:1013900000EEFAEFFB121AD412290F8E828F83A36C
:1013A000A3A3A3A3E02401F0A3E03400F08E828F76
:1013B00083A3A3A3A3A3A3A3E02401F0A3E0340089
:1013C000F0800E7C017D00EEFAEFFB121AD4122998
:1013D0000F8E828F83E02402F8A3E03400F9E8FA4C
:1013E000E9FB8A828B83780C12152A8A828B83759B
:1013F00008FF7509FF750AFF780812158BEE241295
:10140000F508EF3400F5097808121938EE2410F5C4
:1014100082EF3400F58312194FEE241DF582EF346C
:1014200000F58312194FAA0CAB0DAC0EAD0F1228AC
:101430005074061216E4EE2418F582EF3400F5839A
:10144000780C1215ADAC08AD098E828F83E02402B2
:10145000FAA3E03400FB12278B7C2C7D818E828FD7
:1014600083E02402FAA3E03400FB12278B8E828FE4
:1014700083E0F8A3E0F988828983A3A3E82408FC29
:10148000E93400FD74061215E18E828F83E0F50ABF
:10149000A3E0F50BE50A240EF582E50B3400F58395
:1014A00074FFF0A3F0A3F0A3F0E50A2412F8E50B13
:1014B0003400F9E8FAE9FBEE242BF582EF3400F56D
:1014C00083E0FC850882850983780C12159E7401DF
:1014D000780C1216BBEC250CF8E4350DF9E875F024
:1014E00071A4C8ACF075F002A42CFC75F071E9A4ED
:1014F0002CF98A828B83E8F0A3E9F0EE2416F582BA
:10150000EF3400F583E0F508A3E0F50974047808EA
:101510001216ACE5082401F8E5093400F98A828B3B
:1015200083E028F0A3E039F08A828B83E02410F076
:10153000A3E03401F0E50A2414F582E50B3400F54C
:10154000837410F08E828F83E0F8A3E0C82416F530
:1015500082E83400F5837420F0A3740FF09005AB9B
:101560007407F012101C7F0C0217F774F012172585
:101570001210FAE970089006FEE0F912110075E108
:1015800081907803E06442705590074DE014F0704C
:101590004DC2AF12959600782AD0E0F618D0E0F64A
:1015A000E59F540770057509FF800375097FC4C066
:1015B000E07829E6F50808E65509F509740B78087E
:1015C0001216ACD0E02508F8906270E0A2E740F86F
:1015D000E8C333906272F0906270E0D2E0F079017B
:1015E000121040E964016003029789900744E0F813
:1015F000A3E0F9E8496010900744E0FAA3E0FB900B
:101600000743E0F91204E2900702E064016003027C
:1016100096CF75E191A3E02407F5D99006F3E0C4D5
:10162000333354C0F5D978F1790688828983A3A32E
:10163000A3E0F5D988828983A3A882A983E864F707
:101640007003E9640670E3900703E0601F78F179A6
:1016500006FAE82413F582E93400F583E0F5D98829
:10166000828983A3A882A9831AEA70E6900723E0FF
:101670002407F5D99006F3E0C4333354C04404F58D
:10168000D978F1790688828983A3A3A3E0F5D98864
:10169000828983A3A882A983E864F77003E96406BA
:1016A00070E3900723E0601F78F17906FAE82433AD
:1016B000F582E93400F583E0F5D988828983A3A80F
:1016C00082A9831AEA70E675E195900702E4F012A8
:1016D0000FC2E9FC9006F1E02402F8A3E03400F91F
:1016E000E8FAE9FB8A828B83EC75F0118485F008B7
:1016F00085080CE4F50DF50EF50F780C1215179012
:1017000006FBE0F508A3E0F509E4F50AF50B780C13
:1017100079081215047508FF7509FF750AFF780C22
:1017200079081215658A828B83780C1215AD9006A4
:10173000F1E0F8A3E0C82406F582E83400F583E47C
:10174000F0A3F09006F1E0F8A3E0C8240EF582E8DB
:101750003400F58374FFF0A3F0A3F0A3F09006F13A
:10176000E0F8A3E0C82414F582E83400F58374128D
:10177000F09006F1E0F8A3E0C82416F582E8340002
:10178000F583741AF0A3740FF002994F74F01217D6
:101790002575E1811210FAE970089006FEE0F91251
:1017A00011007901121040E96401600302994F9021
:1017B0000744E0F8A3E0F9E8496010900744E0FA34
:1017C000A3E0FB900743E0F91204E2900702E06413
:1017D00001600302989575E191A3E02407F5D99083
:1017E00006F3E0C4333354C04406F5D978F17906E2
:1017F00088828983A3A3A3E0F5D988828983A3A8DB
:1018000082A983E864F77003E9640670E390070334
:10181000E0601F78F17906FAE82413F582E93400D4
:10182000F583E0F5D988828983A3A882A9831AEA7F
:1018300070E6900723E02407F5D99006F3E0C4335F
:101840003354C04404F5D978F1790688828983A39A
:10185000A3A3E0F5D988828983A3A882A983E86439
:10186000F77003E9640670E3900723E0601F78F1E6
:101870007906FAE82433F582E93400F583E0F5D9F6
:1018800088828983A3A882A9831AEA70E675E19504
:10189000900702E4F0120FC2E9FC9006F1E0240286
:1018A000F8A3E03400F9E8FAE9FB8A828B83EC754F
:1018B000F0118485F00885080CE4F50DF50EF50FA0
:1018C000780C1215179006FBE0F508A3E0F509E483
:1018D000F50AF50B780C79081215047508FF7509DF
:1018E000FF750AFF780C79081215658A828B837858
:1018F0000C1215AD9006F1E0F8A3E0C82406F582BD
:10190000E83400F583E4F0A3F09006F1E0F8A3E0FA
:10191000C8240EF582E83400F58374FFF0A3F0A329
:10192000F0A3F09006F1E0F8A3E0C82414F582E8F3
:101930003400F5837415F09006F1E0F8A3E0C824B4
:1019400016F582E83400F583741AF0A3740FF012D0
:10195000101C7F080217F774F012172575E1811229
:1019600010FAE970089006FEE0F9121100790112F0
:101970001040E964016003029ABC900744E0F8A3B8
:10198000E0F9E8496010900744E0FAA3E0FB900713
:1019900043E0F91204E2900702E06401706475E12B
:1019A00091A3E02407F5D99006F3E0C4333354C083
:1019B0004402F5D978F1790688828983A3A3A3E04C
:1019C000F5D988828983A3A882A983E864F7700384
:1019D000E9640670E3900703E0601F78F17906FA86
:1019E000E82413F582E93400F583E0F5D98882898B
:1019F00083A3A882A9831AEA70E675E1959007028D
:101A0000E4F0120FC2E9FC9006F1E02402F8A3E032
:101A10003400F9E8FAE9FB8A828B83EC75F01184D3
:101A200085F00885080CE4F50DF50EF50F780C121D
:101A300015179006FBE0F508A3E0F509E4F50AF5B3
:101A40000B780C79081215047508FF7509FF750AE3
:101A5000FF780C79081215658A828B83780C121531
:101A6000AD9006F1E0F8A3E0C82406F582E8340062
:101A7000F583E4F0A3F09006F1E0F8A3E0C8240EAB
:101A8000F582E83400F58374FFF0A3F0A3F0A3F02F
:101A90009006F1E0F8A3E0C82414F582E83400F5DC
:101AA000837414F09006F1E0F8A3E0C82416F582E0
:101AB000E83400F583741AF0A3740FF002994FC054
:101AC00082C08353BFEF7901121040E96401700CAA
:101AD0007AF17B061210349006FAE4F075E1F11207
:101AE000101CD083D082020135C082C08390052EA5
:101AF00074FFF0A3F0A3F0A3F0A3F0A3749FF0A3EE
:101B0000E4F0A37420F090052D14F0D083D082026D
:101B100001357F020217F774EE121725890AEAFED3
:101B2000EBFF8C088D09900946E06003029C2FE9C9
:101B3000333354FC04F50B7407250BFA7B001204B5
:101B4000B28A0C8B0DAC0CAD0DEC4D7003029C2FCA
:101B50008C828D837401F0A374FFF0EC2402F8ED05
:101B60003400F9880C890DEC2404F8ED3400F98573
:101B70000C82850D83E8F0A3E9129C507404129C3A
:101B800050A37413129C5FE50B129C5FA3E50AF04F
:101B9000750B00029C19850B8285820E750F00E57E
:101BA0000EC333FAE433FBEE2AF8EF3BF9881089D1
:101BB000117402780E1216BBA80EA90F851082852B
:101BC0001183E0F50EC00E129C39D0E0F085108232
:101BD000851183A3E0F50EC00E129C34D0E0F0E531
:101BE000082AFAE5093BFB8A828B83E0F50EC00EDA
:101BF000129C34A3D0E0129FEEA3E0C0E0850C82DB
:101C0000850D83E028FAA3E0398A82F583A3A3A394
:101C1000A3A3A3A3D0E0F0050BE50BC3950A5003E3
:101C2000029B96ECFAEDFB900943E0F91204BE7FAB
:101C30000A0217F7129C39A322850C82850D83E0D6
:101C400028F50EA3E039850E82F583A3A3A3A32272
:101C5000129C5422F0850C82850D8312A03322122F
:101C60009C54A3A32274EE1217258A088B09890BB2
