:020000040000FA
:0600000002011D0221EBCC
:03002B00021AAC0A
:0300530002225E28
:03006B00021A7AFC
:10008300022057E5C754F84401F5C779012200005F
:100093000080FB120086B90003020107E47921788E
:1000A30008B800028004F709D8FCE479297802B87B
:1000B30000028004F709D8FCE490028178C779072D
:1000C3008002F0A3D8FCD9FA781A90014D7A01BACC
:1000D30000028007E493A3F608DAF9900947AA829D
:1000E300AB8390014E783B79048015E493A3AC82F3
:1000F300AD838A828B83F0A3AA82AB838C828D83A8
:10010300D8E9D9E77582627583A6740312012F7546
:100113008291758300740012012F75D00075813FA1
:10012300751881751902759F00020096C09FF59F8F
:10013300E473D09F22D083D082C09FE493C0E07445
:100143000193C0E0740293F59F2201FFFF020202B4
:10015300020202020202010D000000100102D0811E
:10016300010000A68102B881010000490902DE8175
:100173000100009E0202B8810100004A0902EC81DD
:10018300010000158102B8810100004B0902E681DC
:10019300010000078102B8810100004C0902EA81D5
:1001A300010000818002B8810100004D0902E8814D
:1001B300010000A58002B8810100004E0902E4811C
:1001C300010000938002B8810100004F0902E2811F
:1001D300010000B78002B881010000500902E081EC
:1001E300010000F98002B881010000510902DA819F
:1001F300010000520901E803053F100AFF00013026
:10020300750302010600000000000000000000006A
:1002130000000000000000000000000000000000DB
:1002230000FFFF0600800CE8031409424C45342EFE
:10023300302046696E642056302E3031202005125E
:1002430050002003020A000201050302F0FF536974
:100253006D706C6520424C4520506572697068650D
:1002630072616CE8070000EE070A4368617261631C
:100273007465726973746963203100024368617243
:10028300616374657269737469632032000843683B
:1002930061726163746572697374696320330010FA
:1002A300436861726163746572697374696320344E
:1002B3000002436861726163746572697374696390
:1002C30020350002D081010000AC8102B881010019
:1002D30000650A02BC81030000720402B6810100BA
:1002E30000660A02B881010000770A02BE8101009C
:1002F30000730402B681010000780A02B88101008C
:1003030000890A02D881020000740402B681010048
:10031300008A0A02B8810100009B0A02C281000020
:1003230000750402B481030000760402B681010063
:10033300009C0A02B881010000AD0A02C4810400D6
:10034300007C0402B681010000AE0A104B657920DF
:1003530050726573732053746174650002D0810118
:100363000000A98102B881010000470B02CC810083
:100373000000810402B481030000820402B68101FB
:100383000000480BFF0000B40000280028002830BC
:1003930075A000A000A000A00000080008E001F084
:1003A300001000100010001000100010005000504A
:1003B30000500010001000D0070000000000000FE4
:1003C3000001000500307507001000010081FF00E7
:1003D300000000FF340A520A3A0AFF02020208022E
:1003E3005000A0000000E80302D081010000AF81AB
:1003F30002B881010000D70B02B281010000BA04E8
:1004030002B881010000D80B022281010000D00450
:1004130002B881010000D90B02C081010000D2049F
:1004230002B881010000DA0B02C681080000D30480
:1004330002B881010000DB0B02CE81010000DC0B5E
:10044300FF0100FF2002D081010000A38102B881D7
:10045300010000400C02D681000000000002B481BC
:1004630003000020050A100A100A100A100A100AD5
:10047300100A100A100A100A100A100A100A109E15
:1004830012B612981212013832D2021201383CD23B
:10049300021201387AD202120138C3D20212013891
:1004A300FDD20212013857D30212013878D3021257
:1004B300013881D302120138CED302120138F7D3A7
:1004C3000212013801D4021201386DD4021201382C
:1004D300FFD40212013849D5021201387FD5021226
:1004E30001380BD6021201384CD60212013883D6DA
:1004F3000212013895D602120138B4D6021201381D
:10050300BDD6021201388AD702120138F7A00312AE
:100513000138EB93031201382194031201385794E5
:1005230003120138A2950312013846A503120138BC
:100533005CA50312013866A503120138B0A50312A6
:1005430001388F7F0012013892EB02120138A7EBBA
:100553000212013857EC0212013897EC02120138EB
:10056300B0EC02120138EBEC0212013838ED021242
:1005730001386AED02120138ACED02120138ADEF19
:10058300021201381FF002120138EEA103120138E2
:1005930017A20312013846A2031201385EA2031206
:1005A3000138A0A203120138008A03120138258AF8
:1005B300031201384F8A03120138BAA60312013815
:1005C3008D5B00120138F25D00120138935F001257
:1005D3000138476000120138DA60001201385F61A8
:1005E30000120138846100120138DA640012013804
:1005F300606500120138936600120138CD6600125F
:100603000138026700120138C268001201381F69FD
:1006130000120138686900120138D36900120138E9
:10062300446A00120138766A001201388E6A001299
:100633000138D76B00120138E76B00120138026DE5
:1006430000120138246D001201385A6D001201386E
:100653000E6F001201389B6F00120138DA6F00121F
:100663000138FE70001201382EA703120138ADFFC6
:1006730002120138ECFF02120138E7FF01120138C0
:10068300E5A203120138F5A2031201380AA30312EB
:100693000138BEA303120138F39F0312013878A077
:1006A30003120138DEA003120138B19D0312013891
:1006B300D89D031201382E9E03120138409E031267
:1006C3000138909E03120138CE9E03120138D19E49
:1006D30003120138CC8C03120138D98C0312013870
:1006E300DE8C031201389D8E03120138F68E03123D
:1006F30001384D8F03120138F87F00120138618FE2
:1007030003120138FC90031201385D910312013882
:10071300A391031201383B99031201388D990312F7
:100723000138179A031201387E9A03120138A691F1
:1007330003120138D091031201389E92031201383B
:1007430079930312013853BB021201381ABC021207
:10075300013851BC021201387BBC02120138DBBCE8
:100763000212013831BD0212013896BD021201385E
:100773002EBE021201383DBF02120138D4C002124C
:10078300013861C102120138C8C102120138DFC148
:1007930002120138F9C20212013837C302120138BA
:1007A30082E70112013803EB011201388BEC0112CD
:1007B3000138E2EC0112013801ED011201387FED3D
:1007C3000112013815EF01120138FAEF0112013855
:1007D30008F401120138DEF401120138B8D702120D
:1007E3000138A2DA02120138CEDB0212013878DCBA
:1007F30002120138998303120138DE830312013890
:10080300FB8303120138B1840312013804850312F8
:100813000138DA8503120138F48603120138DD9AB0
:1008230003120138229B03120138A59B03120138DE
:100833001D9C03120138DC9503120138F395031252
:1008430001382496031201385F9603120138899602
:1008530003120138B39603120138CA960312013802
:10086300E19603120138F896031201382197031217
:1008730001383497031201384A97031201385D9700
:100883000312013884970312013881F501120138EC
:1008930085F601120138BDF601120138E0F60112A6
:1008A3000138EBF6011201380EF7011201381DF879
:1008B30001120138F2F8011201386DF90112013801
:1008C300F5F90112013830FA0112013867FA011201
:1008D3000138F5FA01120138CEFB011201382EFC62
:1008E3000112013839FC01120138B8FC0112013838
:1008F300BBFC01120138BEFC011201384DFD01128F
:10090300013850FD0112013880FD01120138AAFDA2
:100913000112013898FE011201384AFF0112013811
:100923002CE20212013854E20212013882E202126E
:100933000138B9E20212013817E30212013862E307
:1009430002120138ADE302120138EDE3021201385D
:1009530033E40212013861E4021201381EE5021287
:10096300013828E50212013835E50212013868E53D
:100973000212013834E60212013840E6021201384D
:1009830058E60212013862E602120138C4A30312C8
:100993000138D2A303120138EAA30312013802A4D7
:1009A3000312013862CA011201380ECB0112013859
:1009B30089CB01120138AACC01120138E6CC01120D
:1009C30001388FCD0112013876CE01120138DACF0A
:1009D3000112013831D001120138B2D001120138AD
:1009E300A2D101120138EFD10112013875D20112DF
:1009F3000138A7D201120138BBD401120138FDD44A
:100A0300011201381BD5011201389ED5011201389C
:100A130072D6011201383AD7011201380FCB0212F4
:100A23000138E2CB021201388BCC02120138DECC42
:100A3300021201388ECD021201381ACE0212013889
:100A430006CF0212013835CF0212013848D0021204
:100A5300013890D00212013865D102120138A1D1B8
:100A630002120138BDD102120138DEA5031201388A
:100A73000080031201381680031201383C800312F0
:100A830001385881031201386281031201389782B9
:100A9300031201388F830312013805DD0212013876
:100AA30035DE0212013868DE02120138B2DE0212AC
:100AB300013879E00212013811AB011201387BAB26
:100AC30001120138DAAC01120138EAAC0112013823
:100AD30017AD011201386EAD0112013817AE0112C4
:100AE30001381EAF01120138E8AF0112013848B1D5
:100AF300011201388BB10112013830B201120138F1
:100B03007DB201120138A3B201120138B1B401124E
:100B13000138B6B401120138BBB60112013808B767
:100B2300011201387BB701120138AEB70112013847
:100B330050B801120138F9B80112013831B9011264
:100B4300013834B9011201387CB901120138BCB93A
:100B53000112013813BA011201382D87031201382B
:100B63004587031201388D8703120138A3870312C7
:100B73000138EA8703120138FE88031201388B8992
:100B830003120138D68903120138242900120138CF
:100B93003029001201386B2900120138B0290012E4
:100BA3000138702A00120138F62A001201385B2B33
:100BB30000120138872B00120138C02B00120138B4
:100BC300FE2D00120138E22F00120138C831001245
:100BD30001380B33001201385935001201386B36D6
:100BE30000120138B63700120138C6380012013836
:100BF300E338001201381E3900120138403900125F
:100C03000138A33900120138643E00120138F93E5D
:100C1300001201384A3F00120138713F00120138B7
:100C2300C33F00120138E13F001201383B4000127C
:100C330001382441001201389A42001201381E4340
:100C430000120138E9E602120138F3E60212013814
:100C530036E70212013851E702120138E1E70212C6
:100C6300013809E80212013846E8021201387DE82A
:100C730002120138A6E8021201381BE902120138F8
:100C830030E90212013845E90212013876E902120D
:100C930001388AE902120138AFE902120138E9E9A1
:100CA3000212013815EA021201384DEA0212013824
:100CB300CCEA0212013815EB021201383FEB0212A3
:100CC30001386AEB02120138DA9E03120138E99AFD
:100CD30002120138179B02120138659C0212013877
:100CE300459D02120138649D02120138E19D0212F2
:100CF3000138249E021201387A9F021201383BA068
:100D030002120138C2A20212013863A3021201388F
:100D130059A40212013856A502120138B0A60212D4
:100D230001383BA702120138569C03120138BF9CBD
:100D330003120138139D031201383A9D031201383F
:100D43006B9D031201382CF00212013899F0021244
:100D53000138E0F002120138F8F102120138F4F21E
:100D630002120138D7F302120138EAB20212013833
:100D73002CB302120138FEB302120138D7B40212A7
:100D83000138D1B502120138B3B6021201381CB7CB
:100D930002120138D2B70212013846B802120138E2
:100DA300B2B802120138DBB80212013855B9021287
:100DB3000138EEB90212013853BA0212013868BA87
:100DC30002120138AEBA02120138C7BA0212013850
:100DD3002CBB021201382FBB02120138B4FC0212E1
:100DE3000138DCFC021201381AFD02120138D8FD69
:100DF300021201383FFE021201385BFE0212013873
:100E030083FE02120138B3FE02120138C2FE02123F
:100E130001383FFF0212013865FF0212013800BB9F
:100E230001120138DEBC0112013810BF0112013872
:100E33004CBF0112013879BF0112013863C001129E
:100E43000138AEC001120138F9C0011201380BC1DB
:100E5300011201384BC10112013880C1011201385E
:100E6300CEC101120138FDC10112013820C20112A5
:100E730001386DC201120138F2C2011201380CC5EA
:100E8300011201384BC7011201388CC70112013816
:100E93002EC9011201386FC901120138E2C90112CA
:100EA300013838CA01120138D48D02120138D28EAA
:100EB300021201386B95021201388C970212013825
:100EC300579902120138BF9A021201388543001262
:100ED3000138344400120138614400120138A74438
:100EE30000120138E745001201387D47001201382E
:100EF300F747001201381248001201388D480012DA
:100F03000138E74900120138474B001201384D4CB4
:100F130000120138AE4D00120138C74D00120138DE
:100F2300254E00120138134F00120138464F0012AC
:100F33000138B64F001201383050001201387A5090
:100F430000120138445100120138195200120138BD
:100F5300F85200120138835300120138F153001282
:100F630001386554001201389054001201384F556E
:100F730000120138B45600120138D156001201385C
:100F8300F05600120138E1570012013806580012DA
:100F93000138305800120138AB5800120138055996
:100FA300001201386E5A001201381C5B001201381E
:100FB3005D5B001201380080021201384E8002127C
:100FC30001385A80021201383881021201386981CE
:100FD300021201389A81021201381A820212013870
:100FE300528202120138A48202120138E1820212F3
:100FF3000138FE84021201382487021201380F8956
:1010030002120138F98A0212013819290012013833
:10101300FE96011201382E9701120138079E011224
:1010230001388C9F0112013889A50112013871A67C
:1010330001120138AEA601120138D1A601120138FE
:1010430002A7011201380BA70112013815A70112DB
:10105300013803A801120138F9A801120138EF8100
:1010630001120138EE8501120138F48501120138AD
:101073002F8D01120138489201120138E6F802124D
:1010830001387CF90212013892F90212013808FA88
:10109300021201387CFA02120138BAFA021201383C
:1010A3002EFB02120138A7FB02120138B0FB021219
:1010B3000138BCFB02120138D1FB021201380FFCCC
:1010C3000212013825FC0212013884FC0212013895
:1010D30099F402120138A6F402120138C0F4021284
:1010E3000138FFF4021201383DF502120138A2F56E
:1010F30002120138B7F502120138C2F502120138A3
:10110300CFF502120138E6F502120138F4F50212A6
:101113000138FFF5021201380BF6021201381AF6F4
:101123000212013825F60212013848F6021201387C
:10113300EFF602120138FFF60212013819F7021214
:10114300013836F70212013852F70212013877F7E5
:101153000212013882F70212013897F7021201389E
:10116300ABF7021201380CF80212013812F802121E
:10117300013818F8021201381EF80212013836F845
:101183000212013869F80212013858D901120138E4
:10119300DCD9011201388BDA01120138EADB0112C2
:1011A30001380BDE01120138F7DE011201382CDFA2
:1011B300011201384EDF01120138FDDF011201383F
:1011C300F5E1011201381EE201120138B0E2011209
:1011D3000138E2E201120138EFE20112013846E37D
:1011E300011201386CE301120138D9E5011201380B
:1011F300DCE60112013834E70112013823710012D1
:1012030001382D72001201381473001201381E7355
:10121300001201384073001201384C730012013878
:10122300E57400120138147500120138307600128B
:101233000138897600120138EF7700120138CE7831
:10124300001201382A790012013897790012013807
:10125300D27900120138117A00120138CA7C0012C7
:101263000138E47C00120138707D001201387E7D64
:1012730000120138D77D00120138E57D00120138D4
:10128300587E00120138BC7E00120138067F00121E
:101293000138BCA702120138DEA70212013804AAE2
:1012A3000212013819AD0212013831AE02120138AF
:1012B300E4AE02120138C6AF021201389697031248
:1012C3000138BB97031201382D980312013895C3D7
:1012D300021201389EC302120138A7C30212013859
:1012E3007EC4021201382FC60212013865C60212EB
:1012F30001389FC602120138D5C6021201380FC742
:101303000212013843C7021201386FC702120138B3
:10131300B8C702120138F2C7021201383BC80212E1
:10132300013893C802120138C8C80212013823C910
:10133300021201385DC902120138AEC90212013826
:10134300E4C9021201381ECA021201384CCA021241
:1013530001386FCA021201389BA403120138C7A4D3
:101363000312013822A5031201382CA503120138F8
:101373003CA503120138BBFF0112013810A703E09B
:1013830066701008A3E066700A08A3E0667004089C
:10139300A3E06622C3E7960809E7960809E79608DB
:1013A30009E79622C3E09608A3E09608A3E096080F
:1013B300A3E09622C008C3E096F50808A3E096428E
:1013C3000808A3E096420808A3E09645087001D3F5
:1013D300D00822080808EAC0E0EBC0E086F0E7A4E2
:1013E300FA180986F0E7A42AFA180986F0E7A42A6E
:1013F300FA180986F0E7A42AFA1986F0E7A4FBE5B0
:10140300F02AFA190886F0E7A42BFBE5F03AFA195B
:101413000886F0E7A42BFBE5F03AFA18180986F0E2
:10142300E7A4C5F02BFBE43AFA1908E7C5F0C6A414
:1014330026F6E5F03BFBE43AFA1886F0E7A4F6E576
:10144300F00826F6E43B08F6E43A08F6D0E0FBD0D1
:10145300E0FA22E4CFC0E0E4CEC0E0E4CDC0E0E4B3
:10146300CCC0E075F020C3E633F608E633F608E6B1
:1014730033F608E633F6181818EC33FCED33FDEEBB
:1014830033FEEF33FFC3EC9709ED9709EE9709EFAE
:1014930097191919400FFFEC97FC09ED97FD09EE19
:1014A30097FE191906D5F0BEECF709EDF709EEF72B
:1014B30009EFF7191919D0E0FCD0E0FDD0E0FED018
:1014C300E0FF226016080808C6C313C618C613C671
:1014D30018C613C618C613C6D5E0EA227009080851
:1014E30008226016181818C6C333C608C633C608C0
:1014F300C633C608C633C6D5E0EA22E627F608098E
:10150300E637F60809E637F60809E637F622E02655
:10151300F608A3E036F608A3E036F608A3E036F6AD
:1015230022E026F008A3E036F008A3E036F008A393
:10153300E036F022C3E697F60809E697F60809E6CF
:1015430097F60809E697F622C3E096F008A3E0961B
:10155300F008A3E096F008A3E096F022E657F60819
:1015630009E657F60809E657F60809E657F622E0B2
:1015730056F608A3E056F608A3E056F608A3E0568D
:10158300F622E056F008A3E056F008A3E056F00870
:10159300A3E056F022E0F608A3E0F608A3E0F6087D
:1015A300A3E0F622E6F008A3E6F008A3E6F008A31A
:1015B300E6F022E0FAA3E0FBA3E0FCA3E0FD22EACD
:1015C300F0A3EBF0A3ECF0A3EDF022CAC0E0E6F049
:1015D300A308DAFAD0E0FA22CAC0E0E0A3C582CCBD
:1015E300C582C583CDC583F0A3C582CCC582C5831F
:1015F300CDC583DAE6D0E0CA22C3E498F8E499F9CA
:1016030012163D8026C3E49AFAE49BFBE920E7E93E
:1016130012163DE498F8E499F922C3E498F8E499A2
:10162300F912163DE498F8E499F9C3E49AFAE49BB5
:10163300FB22EB20E7CFE920E7E0B90010BB00086D
:10164300E88AF084F8AAF022E4FBC8FA22EB7022BD
:101653007B10C833C8C933C9335007C39AC3DBF2FD
:1016630080069A50012ADBEAC833F4C8C933F4C9A7
:10167300FA2275F008E4C833C8C933C933C99AC913
:101683009B5004C92AC93BD5F0ECFBC833F4C8E42A
:10169300C9FA22600D08C6A2E713C618C613C6D539
:1016A300E0F322600C08C6C313C618C613C6D5E000
:1016B300F422700422600D18C6C333C608C633C6AD
:1016C300D5E0F41822251810AF08F51840021519B3
:1016D3008008F51840021519D2AF22C0D025181082
:1016E300AF08F518500205198008F51850020519BE
:1016F300D2AFD0D0222518F58210AF08F5184002DA
:1017030015198008F51840021519D2AF85198322DF
:101713002518F582E43519F58322E4732518C5826B
:10172300C0E0E51934FFC583C0E0E518C395822402
:10173300F810AF0885831985821880088583198579
:101743008218D2AFCEF0A3E520F0A37808E608F024
:10175300A3DEFAEFF0A3E58124FAF8E608F0A3E6A6
:1017630008F0A3E608F0A30808E608F0A3E608F0EB
:10177300A315811581D0E0FED0E0F8158115811500
:1017830081E8C0E0EEC0E0222518C582C0E0E5197B
:1017930034FFC583C0E0E518C3958224F910AF0870
:1017A3008583198582188008858319858218D2AFAD
:1017B300CEF0A3E520F0A37808E608F0A3DEFAEF65
:1017C300F0A3E58124FBF8E608F0A3E608F0A308FC
:1017D30008E608F0A3E608F0A315811581D0E0FE22
:1017E300D0E0F815811581E8C0E0EEC0E02285194C
:1017F30083851882E0A3FEE0A3F5207808E0A3F632
:1018030008DFFAE0A3FFE0A3C0E0E0A3C0E0E0A3A9
:10181300C0E0E0A3C0E0E0A3C0E010AF08858218F9
:101823008583198008858218858319D2AFD083D028
:1018330082020135851983851882E0A3FEE0A3F5B2
:10184300207808E0A3F608DFFAE0A3FFE0A3C0E0F6
:10185300E0A3C0E0E0A3C0E0E0A3C0E010AF0885D0
:1018630082188583198008858218858319D2AFD0A1
:1018730083D08222C0D02518C582C0E0E51934FF89
:10188300C583C0E0E518C3958224F310AF088583B0
:10189300198582188008858319858218D2AFC8F00C
:1018A300A3E9F0A3EAF0A3EBF0A37908E709F0A317
:1018B300D8FAECF0A3EDF0A3EEF0A3EFF0A3D0E0A1
:1018C300F0A3D0E0F0A3D0E0F0A3E520F0A3E5F08F
:1018D300F0A322851983851882E0C0E0A3E0F9A371
:1018E300E0FAA3E0FBA37808E0F608A3DFFAE0FC44
:1018F300A3E0FDA3E0FEA3E0FFA3E0C0E0A3E0C0FC
:10190300E0A3E0F5D0A3E0F520A3E0A3F5F010AF4A
:10191300088583198582188008858319858218D2E2
:10192300AFD082D083D0E0F8D0E032740480067464
:101933000280027401C0E0F4041216F8D0E012151C
:10194300CE227404800474028000CCC0E0EDC0E0B9
:10195300E518C39CCCAD1950011D10AF068C188D32
:101963001980068C188D19D2AF1215DBD0E0FDD08B
:10197300E0FC22D083D082E9C0E0E493A3C386F0E5
:10198300C5F095F0F908E493A386F0C5F095F070DF
:101993000BE493A3C3994005E9048002A3E475F023
:1019A30002A42582F582E5F03583F583D0E0F9E4DE
:1019B30093A3C0E0E493C0E022D083D082ECC0E0E4
:1019C300EDC0E0E493A3FCE493A3FDED4C600D12A2
:1019D3001A08EC24FFFCED34FFFD80EFE493A3FC35
:1019E300E493A3FDED4C600D121A47EC24FFFCEDCC
:1019F30034FFFD80EFD0E0FDD0E0FCE493A3C0E032
:101A0300E493C0E022C0E0C3E49396087401939684
:101A130018400FE493667008087401936618700009
:101A23007019A3A3C3E49396087401939618A3A310
:101A3300400DD0E0D0E0D0E00219F8A3A3A3A3A304
:101A4300A3D0E022C0E0C0F088F0E49366700808F9
:101A530074019366187000A8F0A3A3700BD0F0D0A4
:0F1A6300E0D0E0D0E00219F8A3A3D0F0D0E02249
:101A7400C2AF02000022C0E074F2121877A2AFE4F1
:101A840033FED2AFE589A2E04006E589A2E1500326
:101A94001206C2758900758900C2C5751A00EEA2C6
:101AA400E092AF7F010218D6C0E0C0D0E8C0E0E900
:101AB400C0E0E5A8D2AFC2C7751A00A2E7A2E792B8
:101AC400AFD0E0F9D0E0F8D0D0D0E03274F51217FE
:101AD4008BEAFEEBFFEE2434F8EF3400F988088932
:101AE40009EE2435F582EF3400F583E0F8EE24376F
:101AF400F582EF3400F583E0F50AEC850AF0A4FCE6
:101B0400AAF0850AF0EDA42AFDE82CF8E43DF97A60
:101B1400257B0012163DEA850882850983F0F87456
:101B24000758F97401B900028004C333D9FCFAE8F8
:101B3400131313541FF8EE28F8EF3400F9E8245D6A
:101B4400F582E93400F583E05A6008EE2434F58226
:101B5400EF802CEE2434F582EF3400F583E0C0E00E
:101B6400EE2436F582EF3400F583E0F5F0D0E0841E
:101B7400A8F0EE28F8EF3400F9E82438F582E934C7
:101B840000F583E0F97F0402183774F512178BEA25
:101B9400FEEBFFEE2434F582EF3400F583E0C0E081
:101BA400EE2435F582EF3400F583D0E0F08E828F99
:101BB40083A3A3A3A3A3A3A3C082C0838E828F8382
:101BC400A3A3A3A3A3E0F8A3E0F9D083D082E0C346
:101BD40098F508A3E099F509EE247FF582EF340027
:101BE400F583E064017069EE2480F582EF3400F53A
:101BF40083E0F8A3E0F98E828F83A3A3A3A3A3A316
:101C0400A3E0FCA3E0FD8E828F83A3A3A3A3A3E0A0
:101C1400FAA3E0FBC3EA9CEB9D5010C3EC98ED994A
:101C2400402EC3EA98EB995027800EC3EA98EB99AB
:101C34004007C3EC98ED9940177CE37D06EEFAEF7C
:101C4400FB120F68EE247FF582EF3400F583E4F095
:101C5400EE2434F8EF3400F9E8FCE9FDEE2435F520
:101C640082EF3400F583E0F8EE2437F582EF340098
:101C7400F583E0F50AE508850AF0A4F508AAF085DD
:101C84000AF0E509A42AF509E82508F8E43509F974
:101C94007A257B0012163DEA8C828D83F0F8740756
:101CA40058F97401B900028004C333D9FCFAE8136B
:101CB4001313541FF8EE28F8EF3400F9E8245DF507
:101CC40082E93400F583E05A6008EE2434F582EFAB
:101CD400802CEE2434F582EF3400F583E0C0E0EE8E
:101CE4002436F582EF3400F583E0F5F0D0E084A8E3
:101CF400F0EE28F8EF3400F9E82438F582E93400EE
:101D0400F583E0F912290B021B89C082C083851870
:101D140082851983E0F8A3E0F9C3EA9CEB9D501097
:101D2400C3EC98ED99401BC3EA98EB995014800ECC
:101D3400C3EA98EB994007C3EC98ED994004790104
:101D440080027900D083D08222EAC39CFAEB9DFB07
:101D54002274EF12178B9005A9E064086005E06413
:101D640007702A9061C8E060249005D7E0F4601DF4
:101D7400E0F875F003A4C8AAF02AF974D928FE740F
:101D84000539FF8E828F83A3A3A3E07003021E850F
:101D9400906060E0C0E0EE2468F582EF3400F583E3
:101DA400D0E0F0750C4C750D07750800750900E559
:101DB400D914F50AE5D95403F50E60177403650EBA
:101DC400605CE50A6010EE2467F582EF3400F58369
:101DD400E07003021E6A900747E06401602AEE2463
:101DE40082F582EF3400F583E060047804800278A1
:101DF40000850A08E508C398FA95E0FB120E308ABC
:101E0400088B09EA4509700512116C8074EE24826E
:101E1400F582EF3400F583E070048A0C8B0DE50A3B
:101E24006012850C82850D83F50BE5D9F0A3150BA3
:101E3400E50B70F6EE2482F582EF3400F583E06062
:101E44004474FC250AF50A780C121932AC0AA90E5E
:101E5400EEFAEFFB12100474021216DEE97026AAE1
:101E640008AB0912071C793D8E828F83A3A3A3A319
:101E7400E0FA7B00120D04EEFAEFFB120F80121051
:101E840016790080747403650E6056850A10751106
:101E9400007810121932AC0CAD0DAA08AB09120F60
:101EA400E074021216DEEE2468F582EF3400F58346
:101EB400E064807004747F8001E0F50C780C1219E2
:101EC40036E50EF50C780C121936A90AAC08AD09E2
:101ED4009005D7E0FA7B00120CC874021216DE805B
:101EE400139005A9E06408600BAC0CAD0DEEFAEF9D
:101EF400FB12107012117879017F0A02183774F5F9
:101F040012178B74FC1216C8EAFEEBFF8908A2AF05
:101F1400E433F509C2AF806AEE2463F8EF3400F9C4
:101F24007A007B00A2AFE433F50AC2AF88828983CA
:101F3400E0FCA3E0FDEC4D603A88828983E0FAA3DB
:101F4400E0FB8A828B83E0FCA3E0FD88828983EC3A
:101F5400F0A3EDF08A828B83E4F0A3F08882898376
:101F6400E0FCA3E0FDEC4D700A88828983A3A3E41E
:101F7400F0A3F0E50AA2E092AF12071C9006EAE093
:101F840004F0EE2463F582EF3400F583E0F8A3E077
:101F9400F9E849603DEE2463F582EF3400F583E00F
:101FA4002402FAA3E03400FBEA2402F50AEB34002D
:101FB400F50B780A1219328A828B83E0FCA3E0F9CC
:101FC400EEFAEFFB120FA474021216DEE97003029C
:101FD4001F1C9006EAE060639006EBE0F89006EAC6
:101FE400E0C398500C7402650870509006ECE060F1
:101FF4004A8E828F83A3A3A3A3E0851882851983C5
:10200400F0A3E4F09006EAE0F87402121713E8F083
:10201400A3E4F09006EAE0F89006E9E028F0740200
:10202400121713AC82AD83851882851983AA82ABFB
:10203400837901120CD49006EAE4F0E509A2E09257
:10204400AF74041216DE021B890000008521878507
:1020540022C622C0E0C0D0E8C0E0E9C0E0EAC0E0A7
:10206400EBC0E0ECC0E0EDC0E0EEC0E0C008C009A9
:10207400C00AC00BC082C083C0F0A2AFE433FEC26A
:10208400AF759B00906182E0A2E05012E591A2E05E
:10209400500C7591FE740165217003121D55E0A268
:1020A400E55051E591A2E5504B7591DF9005A9E00B
:1020B40064076005E0640870237401652170357954
:1020C400019005D7E0FA75F003A4CAA8F028FB74C0
:1020D400D92AFA74053BFB121F028018E0640D70C4
:1020E400139005CBE004F064287002E4F07A00E079
:1020F400F912117E906182E0A2E6400302219EE57E
:1021040091A2E6400302219E7591BF9005A9E06467
:102114000570081210A61210B280031210AC7521BB
:102124000012110CE99005AAF07900121100120EA8
:10213400DE7A017B009005A8E0F91204E2907803AE
:10214400E06442705590074BE014F0704DC2AF123A
:10215400215600782AD0E0F618D0E0F6E59F54071F
:1021640070057509FF800375097FC4C0E07829E60E
:10217400F50808E65509F509740B78081216A6D077
:10218400E02508F8906270E0A2E740F8E8C33390D5
:102194006272F0906270E0D2E0F0906181E0A2E3BC
:1021A4005009E5E9A2E3500375E9F7A3E0A2E7507B
:1021B40009E591A2E7500375917FEEA2E092AFD0BA
:1021C400F0D083D082D00BD00AD009D008D0E0FE62
:1021D400D0E0FDD0E0FCD0E0FBD0E0FAD0E0F9D0D4
:1021E400E0F8D0D0D0E032C0E0C0D0C082C083904C
:1021F4006183E0A2E05009E5BFA2E0500375BFFE91
:10220400E0A2E15009E5BFA2E1500375BFFDE0A2E1
:10221400E25009E5BFA2E2500375BFFBE0A2E35020
:1022240009E5BFA2E3500375BFF7E0A2E45009E556
:10223400BFA2E4500375BFEFE0A2E55009E5BFA2D9
:10224400E5500375BFDFE0A2E65009E5BFA2E65002
:102254000375BFBFD083D0828088C0E0C0D0E8C0FF
:10226400E0E9C0E0EAC0E0EBC0E0ECC0E0EDC0E0D3
:10227400C0F0E5A7A2E6500FE5A1A2E6500953A7D6
:10228400BF75A1BF1222C3E5A7A2E5500CE5A1A228
:10229400E5500653A7DF75A1DFE5A7A2E15009E5E4
:1022A400A1A2E1500375A1FDE5A7A2E2500CE5A1AE
:1022B400A2E2500653A7FB75A1FBD0F00221D4740F
:1022C400F812178B7521019005A9E06406701512A8
:1022D40010348A828B83A3A3A3A3A3A3E0FAA3E06D
:1022E400FB121094A2AFE433FED2AF9005AFE064CA
:1022F4000170187A207B009005A8E0F912056C7A29
:10230400207B009005A8E0F91204E8906182E0D2F5
:10231400E6F0900748E0602185C62280169005AE5D
:10232400E064017008E5C654F84405F5C653BEFCE4
:102334001220507401652160E4EEA2E092AF7F01A7
:10234400021837008E238F248582288583278518D9
:1023540082851983E0CEA3E0CF852882852783EB8D
:10236400C9EAC8EDCBECCA75F010C3E833C8E93349
:10237400C9EA33CAEB33CBC3EA9EF526EB9FF525B6
:10238400B35004AB25AA26EC33CCED33CDD5F0DA2B
:10239400AE23AF242274E912178B74F81216C88581
:1023A4001882851983ECF0A3EDF08A088B09900557
:1023B400A9E024F7C39405500675080102253012DC
:1023C40010348A0A8B0BAE0AAF0BEE4F7003022552
:1023D4002DAC08AD097402121713AA82AB83121034
:1023E400C48E828F83A3A3750CFF750DFF750EFF3A
:1023F400750F00780C12157274021217137510FF02
:102404007511FF7512FF7513007810121572780C90
:102414007910121397502A780C7910121537750811
:10242400017509C8750A00750B007808790C121338
:10243400975052850C08850D09850E0A850F0B806F
:10244400507514017515C8751600751700851008A8
:1024540085110985120A85130B7808790C12153732
:1024640078147908121397401C75080075090075D3
:102474000A00750B01780879101215377808790C61
:102484001214FE800C750801750900750A00750B9D
:1024940000740978081214DF750C19F50DF50EF5A2
:1024A4000F7808790C1214568E828F83A3A3A3A3EA
:1024B400A3A3E0F8A3E0F97AD07B0312163D880CBD
:1024C400890DE4F50EF50F7808790C1214FE7406E4
:1024D400121713E0F8A3E0F97AD07B0312163DE853
:1024E400FA8A0CE4F50D7808790C121397500778E2
:1024F40008790C1215379005A9E06408600AE064B5
:10250400066005E06405702D750C0D780C790812D1
:1025140013974021750CF4750DFF750EFF750FFFB1
:102524007808790C1214FE800C7508007509007582
:102534000A00750B00851882851983E0F8A3E0F57D
:1025440083888278081215A774081216DE7F100299
:10255400183774F712178B1210D6900746E06401EF
:102564007010906245E4F0A3F053F4F343FE0C536F
:1025740090F3121082E5C654804449F5C6E59E5492
:102584007F644970F8906185740FF0900744E0F41B
:102594007002A3E0604E900745E0600814601B14CD
:1025A400602E8040750801750900900744E07808A2
:1025B4001216B5E508F45280802A750801750900E1
:1025C400900744E078081216B5E508F45290801498
:1025D400750801750900900744E078081216B5E5FE
:1025E40008F452A079007F0202183774F712178B8F
:1025F400E9FEEAFF74016E700C7A807B009005A8F6
:10260400E0F91204E290291CE493F46008E493F9DD
:10261400120ED2800953C680E59E547F70FA1210C0
:1026240088900746E064017003120EEA900744E0C4
:10263400F47002A3E0604B900745E0600814601A50
:1026440014602C803D750801750900900744E078FA
:10265400081216B5E508428080287508017509003E
:10266400900744E078081216B5E508429080137587
:102674000801750900900744E078081216B5E508CA
:1026840042A01210D61210348A088B09A808A9098E
:10269400E8496015E5E170FCE82414F582E93400AA
:1026A400F583E0F46003E0F5E174016F700A7A01E8
:1026B4009005A8E0F91205360225EA74ED12178B8D
:1026C4008A088B098C0A8D0B7413121713780C1259
:1026D40015987808790C1213977510017511C8753F
:1026E400120075130050127808790C1215377810FF
:1026F400790812139750168010780C790812153740
:102704007810790C12139740047901800279007FC4
:102714000C02183774ED12178B8A088B098C0A8DFA
:102724000B7413121713780C121598780C7908127D
:10273400139740117808790C121537AA08AB09AC25
:102744000AAD0B8022751000751100751200751307
:10275400017810790C121537781079081214FEAA32
:1027640010AB11AC12AD1380A68A828B837508FF5F
:102774007509FF750AFF750B0078081215857F042B
:1027840002183774F512178B8C828D837808121512
:10279400988A828B83780812154BEA2404F8EB3468
:1027A40000F98C828D83A3A3A3A3E0FCA3E0FD889E
:1027B400828983C3E09CF0A3E09DF088828983C36F
:1027C400E09420A3E0944E40268A828B837508FF10
:1027D4007509FF750AFF750BFF78081215248A82A4
:1027E4008B83A3A3A3A3E02420F0A3E0344EF00240
:1027F400276D74F512178BE9FE9006FEE0FAA3E04C
:10280400FBEEC333F8E433F974C928F582748039D4
:10281400F583E02AF508A3E03BF50978081219329C
:102824007A407B427C0F7D0012234874021216DE2C
:102834008A088B098C0A8D0B741078081214C6AAA6
:1028440008AB097F0402183774F112178B8A0C8BBA
:102854000D8C0E8D0F740F121713E0FAA3E0FB74A6
:1028640011121713E0F508A3E0F5097808121932DC
:10287400EA2401F508EB3400F509E4F50AF50B78D0
:102884000C79081213D6750871750902780C790849
:102894001213D6AA0CAB0DAC0EAD0F122348740262
:1028A4001216DE8B09EA450960047A0180027A0077
:1028B400EC2AFCED3400FD7413121713E0F8A3E0C6
:1028C400F9E8FEE9FFECF8EDF97A717B0212163DA6
:1028D400880889098E828F8378081215A7ECF8ED91
:1028E400F97A717B0212163D8A088B0974057808FF
:1028F4001216B58E828F83A3A3A3A3E508F0A3E5E4
:1029040009F07F08021837C082C083E9906000F0A4
:10291400D083D08222020135FFFFFFFFFFFFFFFFBC
:10292400C082C083E9900C3FF0022BB374F71217F6
:102934001FE99004E8F07C207D057AFF7BFF120CF0
:102944001A9004E974FFF0A3F0A3E4F0A3F079056E
:10295400120BA29004E8E0F9120AC47A387B0C1234
:102964000DE27F010217F174F412171F8A088B0914
:10297400EB548060309004E8E0F91204CA8A0A8BB0
:102984000BAE0AAF0BEE4F60138E828F83E064B000
:102994007003120BBAEEFAEFFB1204B8AA08E509A9
:1029A4006480FB80047A007B00022B8274F212178D
:1029B4001F74FC1216C8EAFEEBFFEE4F6038740277
:1029C400121713EEF0A3EF122DE7ECF0A3ED122D86
:1029D400E7AA82AB83120ABEE9F508707374121277
:1029E400171312399BE50A450B60658E828F83129B
:1029F4002A5EEE4F700575080280557A067B001238
:102A0400051E8A0C8B0DA80CA90DE84970057508E4
:102A140013803D88828983E4122A68A3A3EEF0A37D
:102A2400EF123E34E50AF0A3E50BF09004EE122A0F
:102A3400F09004EE6017E0FCA3E08003EAFCEBFDF9
:102A44008C828D83122AF070F38C828D831238C0AD
:102A5400A90874041216DE024036A3A3A3A3E0FE61
:102A6400A3E0FF22F0A3F0888289832274F2121774
:102A74001F890AE975F017A4FEAFF09004EDE4F0A5
:102A84009004EB122AF0600A1205249004EBE4F09F
:102A9400A3F0EEFAEFFB12051E8A088B09EA45093A
:102AA400602FEEFCEFFD79001204A69004EBE5081C
:102AB400F0A3E509F07B008008122ADAE4F0A3F021
:102AC4000BEBC3950A40F2E50A9004EDF07900801F
:102AD400027913024036EB75F017A4F8A9F09004BC
:102AE400EBE028FAA3E0398A82F58322123656EA0B
:102AF4004B2274F412171F750800750900740C1228
:102B04001713123E08FEE9FF800CE5082401F508BE
:102B1400E5093400F509C3E5089CE5099D503285B3
:102B2400080A85090B7403780A1216B5EA250AF80F
:102B3400EB350BF988828983A3A3A3A3A3A312393A
:102B44009BEE650A7003EF650B70BFE8FAE9FB8042
:102B5400047A007B00802774F412171F7900EAA21C
:102B6400E0501B75083275098178081219327C040B
:102B74007D007A417B0C120B9C74021216DE7F04DA
:102B84000217F1C082C0839004EE122BBA601C8835
:102B9400828983A3A3E06A7003A3E06B888289839C
:102BA40070E8A3A3A3A312365280047A007B00D05A
:102BB40083D082020135124109E8492274EE1217CA
:102BC4001F74FC1216C8EAFEEBFF85188285198370
:102BD400E4F0A3F0EE24021238A4EE2405122DD55D
:102BE400EE2404F50EEF1231BAE024FE603924FC21
:102BF400604624FE605224FE605E24FE7003022CB4
:102C0400DA24FE7003022D5224FE7003022D612487
:102C1400FE7003022D7024FC7003022D7F24FE70CD
:102C240003022D8E022DCB9005077417F0A3E41236
:102C34002DEF12083C022DCB851882851983AC82B6
:102C4400AD83120BC0022D9B851882851983AC823B
:102C5400AD83120BC6022D9B850C08850D097402E9
:102C6400121713AC82AD838508828509831236520C
:102C7400120AE28A0C8B0DAC0CAD0DEC4D6042E4F3
:102C8400F50CF50D780C121932750C07750D0578D5
:102C94000C121932750C08750D05780C1219327462
:102CA40008121713121949791612364C120C0274B1
:102CB400081216DEE9F50C700B123648120854801F
:102CC4000F750C01850882850983122DDD1238C029
:102CD400850C08022D9E7402121713AC82AD8385F5
:102CE4000C82850D83123652120AE28A108B11ACC3
:102CF40010AD11EC4D6043850C82850D83A3A312A6
:102D040019497510077511057810121932751008D4
:102D14007511057810121932740812171312194913
:102D2400791612364C120C0274081216DEE9F509F3
:102D3400700B12364812085A800F750901850C82EF
:102D4400850D83122DDD1238C0850908804C851845
:102D540082851983AC82AD83120BCC803A851882AC
:102D6400851983AC82AD83120BD2802B85188285A2
:102D74001983AC82AD83120BD8801C851882851907
:102D840083AC82AD83120BDE800D85188285198396
:102D9400AC82AD83120BE4E9F508E50860298E8264
:102DA4008F83A3E06414601F850E82850F83E090F7
:102DB4000507122DE71241059005081238C0E508F1
:102DC400A3122DEF120836EEFAEFFB120B60023756
:102DD400ACF50CEF3400F50D2212410985188285FB
:102DE400198322F085188285198322F07C077D05DA
:102DF400850A82850B831236562274EE12171F74CD
:102E0400FC1216C88A0A8B0B8C0E8D0FEA2405F56A
:102E140008EB3400F5097C157D0079007A077B0501
:102E24001204A6E5082402F50CE509122DD885182C
:102E34008285198385821085831178101219328551
:102E44000882850983A3A3A3A3123302121932E5CE
:102E5400082405F510E5093400F51178101219322B
:102E6400850C82850D8312365C120ADC74061216F8
:102E7400DE8A108B11AE10AF11E50A2402F50AE5C3
:102E84000B1238A7EE4F7003022FC480177402127E
:102E9400171312365288828983EAF0A3EBF0900567
:102EA40007E004F0900507E0C394054003022FC433
:102EB400E4F510F51178101219327510F07511043B
:102EC40078101219327510F1751104781012193234
:102ED40074061217131219497910EEFCEFFD12361D
:102EE4004C120C0274081216DEE9705E85088285A5
:102EF4000983A3A3A3A3A3A3A3E0F89004F0E06829
:102F040070481233021219327CF17D04E50824085A
:102F1400FAE5093400FB1204A074021216DEE9601B
:102F2400298E828F83A3A3A3A3123652900507E0B0
:102F3400F510740278101216B574082510F5827411
:102F4400053511F583EAF0A3EBF07402121713852B
:102F54008210858311781012193274021217131219
:102F64001949850C82850D8312411A120AE87404EA
:102F74001216DE8A108B11AE10AF11900507E0F522
:102F840010751100740278101216B574072510F824
:102F940074053511F988828983A3122AF07003021B
:102FA4002E88E82403F8E93400F9EE4F6003022E7A
:102FB400918882898374FFF0A3F0900507E004F000
:102FC400900507E0600A1236481208487900800B21
:102FD4008508828509831238B7790A0237AC74EA06
:102FE40012171F74FE1216C88C128D13EA2405F5ED
:102FF4000CEB124284122A62750800750900EA2457
:1030040002F510EB3400F511851882851983858249
:103014000A85830B780A121932850C82850D83A3E5
:10302400A3A3A31231C4121932E50C2405F50AE551
:103034000D1238A7780A121932850C82850D831275
:103044004118120ADC74061216DE8A0A8B0BEA4552
:103054000B7003023175EA2404F50EEB1231BA1237
:103064002A628A828B83A3A3A3E0F9851082851147
:1030740083123652120ACAE9F5096003023175E473
:10308400F514F51578141219327514F075150478C1
:10309400141219327514F175150478141219327456
:1030A400061217131219497913AC0AAD0B85108255
:1030B400851183123652120C0274081216DEE9F5D9
:1030C4000960030231759004F0E0F8E5087009E046
:1030D4002402900508F08017900508E0FCE824021B
:1030E400FAE43400FBEA6C7001EB60030231798589
:1030F4000882AA821232F994141232F15073850EA6
:1031040082850F83E0C0E074092A1231B1D0E0F067
:103114000508850E82850F83A3E0C0E085080A7444
:1031240009250A1231B1D0E0F005089004F01231FB
:10313400C41219327CF17D0485080A7409250AFA3F
:1031440074053400FB12048E74021216DE9004F02F
:10315400E02508F50874FF6E700374FF6F6012EECB
:1031640024010EEF3400FFE508C394145003023029
:103174000CE508601312353D8510828511831236E3
:103184005212084E79008014E509700375090A8506
:103194001282851383EEF0A3EFF0A90974021216CC
:1031A400DE7F0E0217F185080C7409250CF5827474
:1031B400053400F583223400F50F850E82F5832251
:1031C400123E472274EE12171F74FE1216C88C0E9C
:1031D4008D0FEA2405F50CEB122DD8750B00900524
:1031E40007E4F0F50AEA2402F508EB3400F5098057
:1031F40049900507E0FA9004F0E0F81232F99417C8
:103204001232F1400D900507E0F87416C39890044B
:10321400F0F01233021219327CF17D0474082AFA98
:1032240074053400FB12048E74021216DE9004F04E
:10323400E0F8900507E028F0050AE50C2416F5826D
:10324400E50D1231B5E0F8E50AC39840030232DA1D
:10325400900507E0C39416507DE50AC333F8E433C0
:10326400F9E50C28FEE50D39FF851882851983AC34
:1032740082AD838E828F83123652120AE28A108BB9
:1032840011AC10AD11EC4D7005750B018043E4F5E4
:1032940010F51178101219327510F07511047810A8
:1032A4001219327510F1751104781012193274065E
:1032B4001217131219497916850882850983123663
:1032C40052120C0274081216DEE9F50B7003023177
:1032D400F51238B380107C077D0585088285098343
:1032E400123652120860A90B74020237AEE9940038
:1032F400C365D03322EA28F8E43400F9E822E0F583
:103304001075110078102274EA12171F74FC12163B
:10331400C88A0C8B0D8C128D13EA2405F50AEB1266
:1033240038A7750800750900E50A2402F510E50BB5
:103334003400F511740212171385820E85830F78F9
:103344000E121932850A82850B83A3A3A3A3123D0F
:10335400F3121932E50A2405F50EE50B3400F50FD6
:10336400780E1219328510828511831238AD123607
:103374004C120ADC74061216DE8A0E8B0FAE0EAFE8
:103384000FE50C2402F50EE50D3400F50F8040889E
:1033940082898374FFF005081231AA74FFF00508CE
:1033A4009004F0E0F50C750D00780C1219327CF1E4
:1033B4007D0485080C7409250CFA74053400FB128D
:1033C400048E74021216DE9004F0E02508F508EE6F
:1033D4004F60718E828F83A3A3A3E0F9850E82854B
:1033E4000F83123652120ACAE9F509EE2404122D8B
:1033F400D5E97044E4F514F51578141219327514EE
:10340400F075150478141219327514F175150478D1
:103414001412193274081217131219497911EEFC97
:10342400EFFD850E82850F83123652120C0274084A
:103434001216DEE9F5096027850C82850D831235A5
:10344400331238C0E508700302351912353D850E74
:1034540082850F83123652120866790002352E8552
:103464000882AA82EA9004F07009E0240490050816
:10347400F08022E0F8900508E0F514E82404FCE468
:103484003400FDEC65147001ED70C01232F9941231
:103494001232F150B6850C82850D83E0C0E07409C8
:1034A4002A1231B1D0E0F00508850C82850D83A382
:1034B400E0C0E01231AAD0E012354F85820C85833A
:1034C4000D780C121932740412171312194985104D
:1034D4008285118312411A120AE874041216DE8AD4
:1034E4000C8B0DAE0CAF0D85080C7409250CF8740B
:1034F400053400F9EE4F7003023393851882851961
:1035040083E08882898312354FA3E0C0E01231AA98
:10351400D0E00233A1E509700375090A850A8285A2
:103524000B831235331238C0A90974040231A21274
:10353400410985128285138322900508E0F5F0E5A0
:103544000884900507F07C077D0522F0050885189E
:10355400828519832274EC12171F74FE1216C88A0E
:10356400088B098C0E8D0FEA2405FEEB3400FF85D1
:103574001882851983AC82AD838E828F8312365272
:10358400120AE28A0A8B0BEE2418122DD5EA450B97
:1035940070030236231237955032851882851983B9
:1035A400123652120BF68A108B11EA4511606B79B0
:1035B40012AC0AAD0B850882850983123652851038
:1035C4008285118312171DE9F50A7058E4F50AF58E
:1035D4000B780A1219328E828F83A3A3E0F50A783E
:1035E4000A121932EE24031238A4780A1219328E00
:1035F400828F8312365C120C0874061216DEE9F50B
:103604000A7021850C82850D83E0701F85088285F0
:10361400098312365212086C8011750A0E800975DE
:103624000A018004E50A60031238B3850C82850D13
:1036340083E0600479008002A90A74021216DE7F16
:103644000C0217F17C077D05850A82850B831236EF
:103654005622E0FAA3E0FB22E0FCA3E0FD85088209
:103664008509831236562274EE12171F74FE121641
:10367400C88A088B098C0C8D0DEA2405FEEB3400F6
:10368400FF750E00851882851983AC82AD838E8206
:103694008F83123652120AE28A0A8B0BEA450B70A8
:1036A40003023781123795503585188285198312A4
:1036B4003652120BF68A0E8B0FEA450F605E7912B2
:1036C400AC0AAD0B850882850983123652850E82B9
:1036D400850F8312171DE9F50E60030237848508F0
:1036E4008285098312399BAA0AFB120BEA8A108B82
:1036F40011A810A911E849701E7AFF7BFF120BEA8A
:103704008A108B11A810A911E849606C88828983FA
:10371400E50AF0A3E50BF0750A008007750E0E802C
:103724005F050A9004EDE0FAE50AC39A504AE50AF7
:1037340075F017A4FAABF088828983A3A3E02AFA70
:10374400A3E03BFB8A828B831238ADEC4D70D275BB
:103754000A17750B00780A121932EEFCEFFD1204F9
:103764008E74021216DEEEFCEFFD85088285098355
:103774001236521208728014750E098003750E01F8
:10378400124101850C82850D831238C0A90E0232C4
:10379400ECE5082402F508E5093400F5098A828B72
:1037A40083A3A3A3E0A2E52274041216DE7F0A0217
:1037B40017F174EC12171F8C108D11EA2405F50C07
:1037C400EB122DD8750F00EA2402F50AEB1238A784
:1037D400850A82F583123652120BEA8A088B09EAAB
:1037E40045097003023899750E008071850C828535
:1037F4000D83E06401704F8E828F83A3A312194955
:103804008E828F83A3A3A3A3E0F51275130078120D
:10381400121932EE2405F512EF3400F51378121262
:10382400193212364C120C0874061216DEE9F50F22
:103834006014850C82850D83E4F0124101851082A9
:103844008511831238C07C177D007900EEFAEFFBF6
:103854001204A68E828F83E4F0A3F0050E9004ED8B
:10386400E0F8E50EC398501EE50E75F017A4F8A90C
:10387400F0850882850983A3A312428E1238ADEC29
:103884004D60030237F085088285098374FFF0A335
:10389400F0E50F700612364C120878A90F02364371
:1038A400F50AEF3400F50B22A3E0FCA3E0FD228E21
:1038B400828F83124109850E82850F83E8F0A3E984
:1038C400F022C082C0839004E9E06A7003A3E06B35
:1038D40070067AE97B0480047A007B00022BB3C073
:1038E40082C08378008C828D83E06A7003A3E06BCE
:1038F4007010E875F003A4F8A9F0EC28FAED39FB90
:103904008015088C828D83A3A3A3E06A7003A3E0CF
:103914006B60DF7A007B00022BB374F612171F1260
:103924000BB48A828B83E582458370067A007B0020
:103934008007A3A3A3A3123652023FB274F2121754
:103944001FE9FE740E12171312399B741012171309
:10395400123E138C828D83E064027036A312410FF1
:10396400F50CA3E0F9A80C7402687003742969705B
:1039740021750C02750D00780C1219327808121991
:1039840032780A121932EEF9120C2C74061216DE71
:1039940080027901024036E0F50AA3E0F50B2274B7
:1039A400E812171F74FB1216C8E98518828519835B
:1039B400F08A168B17ECFEEDFF751000741D1217BC
:1039C40013124105741D1217131238C08E828F838F
:1039D400A3A3A3E0A2E4502D741D121713123652B0
:1039E400120BF68A828B83E58245837003023DE4E1
:1039F400790AEEFCEFFDAA16AB1712171DE9F510B4
:103A04006003023DE7741F121713123E1374211250
:103A1400171312399B7423121713E0F50EA3E0F564
:103A24000F8E828F83E064026003023D92A31241F1
:103A340005850882850983A3858212858313EE2474
:103A440006122DD588828983E0FAA3E0F9EA2400DE
:103A5400F514E439F51578141219BC010000280195
:103A640028873A070002284C3B0328B93A002983E7
:103A74003C0129AE3C02294F3C0329833C04292DF7
:103A84003D923DE50E450F6003023D8D850C828518
:103A94000D83123E08FAE9FB8A828B83E0850A8251
:103AA400850B83123E3E1219328A828B83A3E0FC7B
:103AB400A3E0023D17E50E450F6003023D8D850A24
:103AC40082850B837401F0123E1B8508828509836D
:103AD400F07C007D008E828F83A3A3A3A3E0240146
:103AE400FAA3E03400FB120AE2EA4B60418A828BBB
:103AF40083E02402F8850A82850B83E028F0EA2417
:103B040004F8EB3400F988828983E08512828513F6
:103B140083123E50123E3E1219328A828B8312382F
:103B2400ACE5082403FAE5093400FB023D1C850AD0
:103B340082850B83E02404F07C047D007900AA12C2
:103B4400AB131204A6023DE7E50E450F6003023DE8
:103B54008D123E1BFEA3E0FF850A82850B8374044D
:103B6400F0EE850882850983F0EF85128285138340
:103B7400F07403121713AC82AD83EEFAEFFB120A52
:103B8400E28A0C8B0DEA450D7003023C308A828B6D
:103B940083A3A3122A5E740112171385820E8583F0
:103BA4000F780E12193274051217131219497CFF7B
:103BB4007DFF120AE874041216DE8B0FEA450F70BB
:103BC40033850C82850D83123DF3121932850C82E4
:103BD400850D83A31219497C027D007AC87B81126A
:103BE400091474041216DEE9700A740112171374AE
:103BF400FFF0A3F08E828F83E064027039750C02AB
:103C0400750D00780C1219328E828F831238ACE550
:103C1400082404FAE5093400FB12048E7402121617
:103C2400DE850A82850B83E0240280097401121761
:103C340013EEF0A3EFF07401121713123E04F074A4
:103C440001121713A3123DFC023D87E50E450F60D8
:103C540003023D8D850C82850D831238ADAA16AB07
:103C640017120C20850A82850B837402F0EA8508FA
:103C740082850983F0851282851383EB023D8AE5F0
:103C84000E450F6003023D8D123E1BF8A3E0F9853B
:103C94000A82850B837402F0E8850882850983F023
:103CA400E9851282851383023D8A850C82850D8302
:103CB400123652120488EAFC8C82A882C3950EE460
:103CC400950F405FE8650E7002E50F70047C00807C
:103CD40022851882851983E0FAE50E2AFAE50F3465
:103CE40000FBC3EA98EB94005003E08005E50ECC9A
:103CF400C39CFCEC850A82850B83F08C0A750B004F
:103D0400780A121932850C82850D83E0250EFCA3F6
:103D1400E0350FFDAA08AB0912048E74021216DEF8
:103D2400023DE7751007023DE7E50E450F705A8521
:103D34000C82850D83124105850A82850B837407E5
:103D4400122A6A123DFC122A6AA3E08512828513A4
:103D540083F0E82402FAE93400FB8A828B83123D63
:103D6400FC123E2B123E04A3123E34123E0DF0E828
:103D74002405F8E93400F988828983123E0DA312E0
:103D84003E50A3A3A3A3F0805A75100B8055741D55
:103D9400121713123652120BB48A828B83E58245B2
:103DA40083603D124105880C890DE8450D6031782A
:103DB4000E121932780A121932780812193274065E
:103DC400121713E0F9EEFCEFFDAA16AB17850C826F
:103DD400850D8312171D74061216DEE9F510800393
:103DE40075100EA91074051216DE7F100217F1E08B
:103DF400F50E750F00780E22E0850882850983226E
:103E0400123E5A22124109E822123E5AA3A322E08A
:103E1400F508A3E0F50922850C82850D83E0F8A35B
:103E2400E0F5838882E022A3A3F08A828B83A32215
:103E3400F088828983A3A3A3A322F08A828B8312AE
:103E44003E4722E0F50A750B00780A22F088828941
:103E540083A3123E5A22E0850882850983A3A32204
:103E640074EE12171F74FE1216C88A0A8B0BECFA32
:103E7400EDFB7414121713E0F510A3E0F51174169A
:103E8400121713E0FE7418121713E0F50EA3E0F5F1
:103E94000F851882851983AC82AD83120AE28A0CDD
:103EA4008B0DEA450D6049851882851983123652B7
:103EB400120BB48A828B83E5824583602FA3A312FD
:103EC4003E13E50845096024780E12193278101261
:103ED4001932EEF9AC0CAD0DAA0AAB0B850882853C
:103EE400098312171D74041216DE8006790E8002EF
:103EF40079010232EC74F612171F74FE1216C8749C
:103F04000C121713123E08851882851983F0740168
:103F1400121713E9F0E4F508F50978081219327557
:103F2400080278081219327404121713858208855E
:103F340083097808121932120C0874061216DE74FA
:103F4400021216DE806874F712171FEAFEEBFF896F
:103F5400087C207D05120C20EA5402600BA908EEAF
:103F6400FAEFFB120AD68002790102296674F6126E
:103F7400171F74FF6A700374FF6B70168C828D8335
:103F8400123FB7E4F08C828D83A3A3A3123FB7A39F
:103F94008018120BF08A088B09A808A909E849605F
:103FA4000D8882898374FF122A68A3A3E4F07F0238
:103FB4000217F174FFF0A3F08C828D83A3A3227403
:103FC400F612171F120BF08A828B83E582458360F9
:103FD40006A3A3E0FA80027A007B0080D174F21277
:103FE400171F8A088B09ECFEEDFF740E121713E0FD
:103FF400F50A120BF08A0C8B0DA80CA90DE8497078
:1040040026EEFCEFFD7AFF7BFF120BF08A0C8B0D82
:10401400A80CA90DE8497004791180168882898357
:10402400E508F0A3E509F088828983A3A3E50AF0F3
:1040340079007F060217F174EE12171FEAFEEBFFF8
:104044008C088D09890C7414121713124105741607
:10405400121713123652750D00E84960030240F935
:104064007402650C60030240F474121217131241B7
:104074000FFCA3E0F9EC2400F50EE439F50FEAF4A3
:10408400F8EBF4F9EC58F8E50F59F9E849705CE5F8
:10409400082406F8ED3400F9880A890B8882F58330
:1040A40012411A120C208A108B11E50E651070044F
:1040B400E50F65116042780E121932850A82850B6C
:1040C4008312411A120C2674021216DEE9F50D70E1
:1040D40027780E121932850882850983A3A3124119
:1040E40018120C3E74021216DE800D750D808008C5
:1040F400750D0D8003750D0BA90D0237B18E828FDE
:104104008312410922E0F8A3E0F9221241098882CE
:104114008983E022A3A3E0FCA3E0FDEEFAEFFB22F7
:1041240074E812171F74E71216C88518828519835C
:10413400EAF0A3EBF08C168D17890E75080075094B
:10414400007431121713E0F512A3E0F5137433125F
:104154001713E0F514A3E0F5157435121713E0F501
:104164000FE50975F003A4F8A9F085188285198371
:1041740012428EE0F47003A3E0F47003024271EE85
:104184002402F50CEF124284E0700302427185169A
:104194000A85170B780A121932AC14AD15AA12ABA2
:1041A40013120BA874021216DE8A0A8B0BEA450B53
:1041B4007003024271E4F510F5117810121932748B
:1041C4000612171385821085831178101219327420
:1041D40009121713858210858311781012193285FC
:1041E4001282851383A3A3A3A31219497914AC0AD9
:1041F400AD0B8E828F83123652120C027408121683
:10420400DEE97069850A82850B83A3A3A3A3124107
:104214000574021217131238C0850C82850D83E0D1
:10422400A2E05018A90E7402121713AC82AD838E4B
:10423400828F83123652120AFAE94208850C82856B
:104244000D83E0A2E15026E50FF50A780A1219362B
:10425400A90E7403121713AC82AD838E828F83125E
:104264003652120AF474011216DEE942080509E511
:1042740009C394025003024165A9087419023DEB75
:104284003400F50D850C82F58322E028FEA3E03985
:10429400FF8E828F832274F212171FEAFEEBFF89CE
:1042A4000B7401650B600E7402650B706A79011260
:1042B4000E00E97062EEFAEFFB120BEA8A088B0932
:1042C400EA45096047750A00800B7C177D00790078
:1042D4001204A6050A9004EDE0F8E50AC3985021FB
:1042E400E50A75F017A4F8A9F0850882850983A367
:1042F400A3E028FAA3E039FB8A828B83122BBA70DD
:10430400C985088285098374FFF0A3F07C207D05AC
:10431400EEFAEFFB120C1A02403674F212171F8ADF
:10432400088B09ECFEEDFF740E12171312399B90E3
:104334000C3FE0F4603D7A097B001204B2EA4B6062
:10434400328A828B8374B1F0A3E4123E2DA3123E11
:104354002BA3E508F0A3E50912437AEEF0A3EF12CC
:10436400437AA3A3E50AF0A3E50BF0900C3FE0F930
:104374001204BE024036F08A828B83A3A3A3A3A3B4
:1043840022C082C0839061907404F0A37448F0A3A7
:104394007402F09061807440F09061BC7403F090FA
:1043A40061877419F0906265741BF0906249E0C3F0
:1043B400941390619C400A7409F0906066740180C3
:1043C40007740DF0906066E4F090619A7433F0A382
:1043D4007455F09061A0743AF0900746E06401705F
:1043E40009C2919005AD746780059005AD7461F0C4
:1043F400902922E493906186F090291CE493F46060
:1044040027E493540FF8906185E0686012E5C65480
:10441400804449F5C6E59E547F644970F8E8F0533A
:10442400C680E59E547F70FA79051211600245E05A
:10443400C082C083E9540FF9906185E0696012E598
:10444400C654804449F5C6E59E547F644970F8E932
:10445400F053C680E59E547F70FA0245E0C082C0E6
:1044640083E5A8F853A87E906181E4F0A3F0A3F05B
:10447400C2BA539AFEC289759B00C2C275E900751F
:10448400910075BF0075A91175B905906181F0A3FC
:1044940074C0F0A3E4F0D2BA439A0174805842A8DD
:1044A4000245E0C082C08374F81216C89005ABE0E0
:1044B400F8A3E0F9E84970030245D59005ABE05450
:1044C4004060237908851882851983AA82AB8312F8
:1044D4000FC2851882851983AA82AB83120CB0900F
:1044E40005ABE054BFF0E054806010790C7A6C7B2B
:1044F40007120FC29005ABE0547FF0E0A2E0503108
:1045040090619A7433F0A37455F09061A0743AF0FA
:10451400900746E064017009C2919005AD7467800C
:10452400059005AD7461F0120CB69005ABE054FE35
:10453400F0E05402603190619A743FF0A3745AF031
:104544009061A0747FF0900746E064017009D291F5
:104554009005AD747180059005AD746AF0120CB6C7
:104564009005ABE054FDF0E054046013902920E47E
:1045740093906186F0120CBC9005ABE054FBF0E024
:1045840054086013902921E493906186F0120CBCC6
:104594009005ABE054F7F0E054106013902922E446
:1045A40093906186F0120CBC9005ABE054EFF0E000
:1045B4005420600A120CBC9005ABE054DFF0A3E079
:1045C4005401600D120EEA120CC29005ACE054FEC8
:1045D400F074081216DE0245E0F0A3F0D083D08216
:1045E40002013574EC12171F74F41216C885188270
:1045F400851983AC82AD83758381758267740412D7
:1046040015DB90292093F46003024773907808E047
:10461400C3940250030247537404121713AC82ADBF
:104624008375838175822A74081215DB8518828547
:1046340019838582128583137404121713AC82AD17
:1046440083750EFF750FFF7FFF7E00750C48750D97
:1046540078801574086E70030246E774096E70035F
:104664000246E7740A6E607B850C82850D837808A8
:104674001215988C828D83A909E50AC9F8881074EB
:104684001878081214C6E5104508F8C3E098A3E0AA
:1046940099850C82850D83780812159840188C82B0
:1046A4008D83741878081214C6E5104508F8E0C321
:1046B40098F8A3E0801C741878081214C6E5104515
:1046C40008FAE9FB8C828D83E0F8A3E0F9EAC39849
:1046D400F8EB99F9C3E8950EE9950F5006880E8911
:1046E4000FEEFF0EE50C2404F50CE50D3400F50D7A
:1046F400EEC39413500302465774FF650E7004749E
:10470400FF650F60238F08740278081216B5744889
:104714002508F58274783509F5837808121598858B
:104724001282851383E508F0EC2402FCED3400FDCD
:10473400851282851383A3858212858313740C12D8
:104744001713E5826C7003E5836D600302464575BB
:10475400080175090078081219327402121713AC93
:1047640082AD837A487B0A12069E74021216DE74A6
:104774000C1216DE7F0C0217F1C082C0839061AE6A
:104784007468F0A3746AF090624574FBF0A304F0BB
:1047940053F4FD43FE029007467401F09061A0E0DB
:1047A400643A90619A70237433F0A37455F0906165
:1047B400A0743AF0740164017009C2919005AD745B
:1047C4006780289005AD74618021743FF0A3745A0A
:1047D400F09061A0747FF0740164017009D291902B
:1047E40005AD747180059005AD746A0245DF7F08DC
:1047F4000217F1C082C0839006F8E06401700A9049
:1048040006FDE06004790C800279000245E0C08274
:10481400C08375E1F19006FBE0605B1460091460ED
:104824005F14605714705E120EFC9006F1E0F97A82
:10483400F27B061210E27AD67BBE7C897D8E121141
:10484400187A557B557C557D001210EE9006FCE0DD
:10485400F91210FA79011211549006EFE0F8A3E06E
:10486400C82416F582E83400F5837414F0A3740F99
:10487400F079000245E0120F0280AF120F0880AAFF
:10488400120F0E80A5791280EA74F012171F75D9E1
:104894000D9006DCE0A2E0E4331313F89006F1E097
:1048A400C4333354C0484401F5D978EF790688827B
:1048B4008983A3A3A3E0F5D988828983A3A882A9C5
:1048C40083E864F57003E9640670E378DC790688AC
:1048D400828983A3E0F5D988828983A3A882A983E6
:1048E400E864E27003E9640670E575E1959006DC1E
:1048F400E0F97ADD7B061210E8900C6174A8F0A34D
:10490400740EF0A3740AF0A37410F0A3740AF0A355
:104914007410F0A3740AF0A37410F0A374AEF0A39F
:10492400740EF0A3740AF0A37410F0A374C6F0A379
:10493400740EF0900C6F740AF0A37410F0A3740A50
:10494400F0A37410F0A3740AF0A37410F0A3740A13
:10495400F0A37410F0A3740AF0A37410F0A3740A03
:10496400F0A37410F09006FBE064019006EF70125F
:10497400E0F8A3E0F5838882A3A37508007509080D
:104984008010E0F8A3E0F5838882A3A3750804757A
:104994000900750A00750B007808121511750CFFD3
:1049A400750DFF750EFF750F007808790C12155FF1
:1049B4009006EFE0F8A3E0C8240EF582E83400F591
:1049C4008378081215A79006EFE0F8A3E0C8241432
:1049D400F582E83400F5837413F09005A97402F0AD
:1049E4000247F274F712171F900701E02407F5D964
:1049F4009006F1E0C4333354C0F5D978EF790688D2
:104A0400828983A3A3A3E0F5D988828983A3A8829A
:104A1400A983E864F57003E9640670E3900701E094
:104A2400601F78EF7906FAE82413F582E93400F57B
:104A340083E0F5D988828983A3A882A9831AEA70BE
:104A4400E6900721E02407F5D99006F1E0C433335A
:104A540054C04404F5D978EF790688828983A3A3E6
:104A6400A3E0F5D988828983A3A882A983E864F5A1
:104A74007003E9640670E3900721E0601F78EF7922
:104A840006FAE82433F582E93400F583E0F5D988A1
:104A9400828983A3A882A9831AEA70E675E19590B6
:104AA4000C6174B4F0A3740EF0A3740AF0A3741030
:104AB400F0A3740AF0A37410F0A3740AF0A37410A2
:104AC400F0A374AEF0A3740EF0A3740AF0A37410F0
:104AD400F0A374C6F0A3740EF0900C6F740AF0A3E4
:104AE4007410F0A3740AF0A37410F0A3740AF0A372
:104AF4007410F0A3740AF0A37410F0A3740AF0A362
:104B04007410F0A3740AF0A37410F09006EFE0F8A8
:104B1400A3E0C8240EF582E83400F58374FFF0A303
:104B2400F0A3F0A3F09006EFE0F8A3E0C82414F596
:104B340082E83400F5837412F09005A97401F0FF43
:104B44000217F174F712171F900701E02407F5D933
:104B54009006F1E0C4333354C04402F5D978EF79B8
:104B64000688828983A3A3A3E0F5D988828983A3D5
:104B7400A882A983E864F57003E9640670E39007EA
:104B840001E0601F78EF7906FAE82413F582E9342E
:104B940000F583E0F5D988828983A3A882A9831AC2
:104BA400EA70E675E195900C6174C0F0A3740EF0A0
:104BB400A374C0F0A3740EF0A374C0F0A3740EF039
:104BC400A374C0F0A3740EF0A374C0F0A3740EF029
:104BD400A374C0F0A3740EF0A374C6F0A3740EF013
:104BE400900C6F740AF0A37410F0A3740AF0A37409
:104BF40010F0A3740AF0A37410F0A3740AF0A37461
:104C040010F0A3740AF0A37410F0A3740AF0A37450
:104C140010F09006EFE0F8A3E0C8240EF582E83423
:104C240000F58374FFF0A3F0A3F0A3F09006EFE087
:104C3400F8A3E0C82414F582E83400F5837414F072
:104C44009005A97404F0024F0E74F712171F900711
:104C540001E02407F5D99006F1E0C4333354C0448D
:104C640006F5D978EF790688828983A3A3A3E0F5B2
:104C7400D988828983A3A882A983E864F57003E9AB
:104C8400640670E3900701E0601F78EF7906FAE8A4
:104C94002413F582E93400F583E0F5D98882898309
:104CA400A3A882A9831AEA70E6900721E02407F5F5
:104CB400D99006F1E0C4333354C04404F5D978EFF5
:104CC400790688828983A3A3A3E0F5D9888289839E
:104CD400A3A882A983E864F57003E9640670E390ED
:104CE4000721E0601F78EF7906FAE82433F582E9BA
:104CF4003400F583E0F5D988828983A3A882A98347
:104D04001AEA70E675E195900C6174BAF0A3740E1A
:104D1400F0A3740AF0A37410F0A3740AF0A374103F
:104D2400F0A3740AF0A37410F0A3740AF0A374102F
:104D3400F0A3740AF0A37410F0A374C6F0A3740E65
:104D4400F0900C6F740AF0A37410F0A3740AF0A32B
:104D54007410F0A3740AF0A37410F0A3740AF0A3FF
:104D64007410F0A3740AF0A37410F0A3740AF0A3EF
:104D74007410F09006EFE0F8A3E0C8240EF582E882
:104D84003400F58374FFF0A3F0A3F0A3F09006EFD2
:104D9400E0F8A3E0C82414F582E83400F583741520
:104DA400F09005A97403F0024F0EC082C0839006F0
:104DB400EFE0F8A3E0C82406F582E83400F583E4C4
:104DC4000245DD74F712171F9005D7E0F875F0035C
:104DD400A4C8AAF02AF974D928F8740539F9E82482
:104DE40005FAE93400FB8A828B83E0FCA3E0FD88AA
:104DF400828983A3A3A3A3A3A3A3A3A3ECF0A3EDFA
:104E0400F088828983A3A3A3A3A3A3A3E024FFF828
:104E1400A3E034FFF98A828B83E8F0A3E9F0024F20
:104E24000E74F712171FEAFEEBFF9061D0E06003E7
:104E3400024F0275D90E75D90375D904EE248BF58A
:104E440082EF3400F583E5822408F8E5833400F921
:104E5400E0F5D9A3E865827003E9658370F2EE2476
:104E640083F582EF3400F583E5822404F8E5833486
:104E740000F9E0F5D9A3E865827003E9658370F26F
:104E840075E1957908EE248BFAEF3400FB120FB626
:104E94007904EE2483FAEF3400FB120FB67C00EEA3
:104EA400F8EFF9ECFAC3E49AFA95E0FBEE2AFAEF8C
:104EB4003BFBEA248AF582EB3400F583E0C0E0E8AA
:104EC40024AAF582E93400F583D0E0F00C888289C5
:104ED40083A3A882A983ECC3940840C7EE246FF58A
:104EE40082EF3400F583E0F8A3E0F9EE2471F58253
:104EF400EF3400F583E8F0A3E9F07901800279004A
:104F04008008F0EEA2E092AF79007F010217F1C0B1
:104F140082C08375D90275D90375D90575E195EAFF
:104F2400246FF582EB3400F583E0F8A3E0F9EA247A
:104F340071F582EB3400F583E8F0A3E9F07901021E
:104F440045E074F612171FEAFEEBFF90074C740657
:104F5400F075084C75090778081219327C01790339
:104F6400120FFE74021216DE75D90675D903758206
:104F74004C758307E0F5D9A3E58264517004E58399
:104F8400640770F075E1959005A9E06408701EEE61
:104F9400246FF582EF3400F583E0F8A3E0F9EE2402
:104FA40071F582EF3400F583E8F0A3E9F0790102AA
:104FB400521474F612171FEAFEEBFF9061D0E070F2
:104FC40066780190074C740BF09005A9E0640770B3
:104FD4001975084C75090778081219327C01790390
:104FE400120FFE74021216DE7805740128F5D975C5
:104FF400D90375824C758307E8FAE0F5D9A31AEA58
:1050040070F875E195EE246FF582EF3400F583E0D6
:10501400F8A3E0F9EE2471F582EF3400F583E8F0AB
:10502400A3E9F079018002790002521474F712178F
:105034001FEAFEEBFF75D90375D90375D90DEE246C
:10504400DDF582EF3400F583E0F5D975E195790457
:1050540012111EEE246FF582EF3400F583E0F8A3FD
:10506400E0F9EE2471F582EF3400F583E8F0A3E96A
:10507400F07901024F0E74F612171FEAFEEBFF904F
:1050840061D0E0F87480C398FAEE2482F582EF349C
:1050940000F583E06004780480027800E8240BF8CB
:1050A400EAC398500302513F7D0990074CEDF0EE9E
:1050B40024E2F8EF3400F97A4D7B077C0888828972
:1050C40083E08A828B83F088828983A3A882A98360
:1050D4008A828B83A3AA82AB831CEC70E0EE2482C9
:1050E400F582EF3400F583E0601D75084C750907FF
:1050F40078081219327C097903EEFAEFFB120FFEDD
:1051040074021216DE7D0D74012DF5D975D903755F
:10511400824C7583078D08E0F5D9A31508E508705E
:10512400F675E195790412111EEE241DF582EF3413
:1051340000F583E4F0A3F0790180027900025214AF
:1051440074F612171FEAFEEBFF9061D0E0F874804A
:10515400C398FAEE2482F582EF3400F583E060040C
:10516400780480027800E82408F8EAC3985003021F
:105174005212780690074C740CF09005C6E0900724
:105184004DF09005C7E090074EF09005C8E09007F9
:105194004FF09005C9E0900750F09005CAE09007E1
:1051A40051F0EE2482F582EF3400F583E0601B7544
:1051B400084C75090778081219327C067903EEFA4F
:1051C400120FFE74021216DE780A740128F5D975DE
:1051D400D90375824C7583078808E0F5D9A31508AF
:1051E400E50870F675E195790412111EEE246FF549
:1051F40082EF3400F583E0F8A3E0F9EE2471F58240
:10520400EF3400F583E8F0A3E9F079018002790036
:105214007F020217F174F612171FEAFEEBFF90618A
:10522400D0E0F87480C398FAEE2482F582EF34005B
:10523400F583E06004780480027800E82404F8EA46
:10524400C39850030252F3780290074CE8F0EE241E
:10525400F4F582EF3400F583E090074DF0EE2482FC
:10526400F582EF3400F583E0601B75084C7509077F
:1052740078081219327C027903EEFA120FFE7402D6
:105284001216DE7806740128F5D975D90375824C97
:105294007583078808E0F5D9A31508E50870F67545
:1052A400E195EE2473F582EF3400F583E4F0EE2407
:1052B4007FF582EF3400F583E4F0EE241DF582EFF0
:1052C4003400F583E4F0A3F0790412111EEE240DEA
:1052D400F582EF3400F583E0F8A3E0F9EE2471F5EC
:1052E40082EF3400F583E8F0A3E9F07901800279D4
:1052F4000002521474F612171F9061D0E0F8748003
:10530400C398FCEA2482F582EB3400F583E0600460
:10531400780480027800E82404F8ECC398405B79B0
:105324000290074C7407F0EA24F5F582EB3400F59B
:1053340083E090074DF0EA2482F582EB3400F58394
:10534400E0601875084C75090778081219327C0258
:1053540009120FFE74021216DE7906740129F5D9BA
:1053640075D90375824C758307E9F8E0F5D9A3185C
:10537400E870F875E195790180027900025214749D
:10538400F512171FE9FCA2AFE433F50AC2AF7D00A2
:1053940080010DEA246EF582EB3400F583E0F8ED2C
:1053A400C398501A8D08EA2508F8EB3400F9E8246C
:1053B4006AF582E93400F583E06C70D68024EA242F
:1053C4006EF8EB3400F9E0FEEA2EFAEB3400FBEA67
:1053D400246AF582EB3400F583ECF088828983E05B
:1053E40004F0E50AA2E092AF7F030217F174F6120B
:1053F400171FA2AFE433FDC2AFEA246EF582EB348B
:1054040000F583E014F07C0060368C08EA2508F887
:10541400EB3400F9E8246BF582E93400F583E0C04D
:10542400E0E8246AF582E93400F583D0E0F00CEA80
:10543400246EF582EB3400F583E0F8ECC39840CA9F
:10544400EA246DF582EB3400F58374FFF0EA2469F5
:10545400F582EB3400F583E4F0EDA2E092AF025262
:1054640014C082C083E5A8F8C2AFEA246AF582EBCF
:105474003400F583E9F0EA2469F582EB3400F5831E
:10548400E4F0E8A2E7A2E792AF0245E074F3121752
:105494001FEAFEEBFFECFAEDFB8A828B83A3A3A346
:1054A400A3E0541FF0EE2436F582EF3400F583E4D4
:1054B400F0F50AEEFCEFFD8A828B83E0C0E0EC2479
:1054C4005DF582ED3400F583D0E0F0750B00E50A5C
:1054D40033333354F8F50C8A828B83E0F50875096D
:1054E40000E50B7808121696E508A2E0502FEE248A
:1054F40036F8EF3400F988828983E0F508EE250850
:10550400F508EF3400F509E5082438F582E5093497
:1055140000F583E50CF088828983E004F0050B052F
:105524000CE50BC3940840AF050A8A828B83A3AAB7
:1055340082AB838C828D83A3AC82AD83E50AC39452
:105544000550030254BB7F050217F174F712171FAD
:105554009005D5E0640170030256AD7A009005DB36
:10556400E060030256AD7401F0A3E4F0A3F09006EA
:105574003B04F0900640F09005DEE4F0A3F0A3F0C5
:10558400A3F09005E804F090060EE4F09005F1F025
:10559400A3F0A3F0A3F0A3F0A3F0A3F0900658F0B7
:1055A40090064CF09006417480F0A3E4F090064716
:1055B400F09006C3F0A3F0A3F0A3F0A3F0A3F0A32C
:1055C400F0A3F09006CCF090065BF09006ABF0A34D
:1055D400F0A3F0A3F0A3F0A3F0A3F0A3F0A3F0A32F
:1055E400F09006B7F09006B9F09006B5F09006CFAB
:1055F400F0A3F0A3F0A3F0A3F0A3F0A3F0A3F0783A
:10560400D57905E8246EF582E93400F58374FFF05A
:105614000A88828983A3A882A983EAC3940440E305
:105624007AD57B0578E3790688828983E0C0E0EA4D
:105634002461F582EB3400F583D0E0F0888289831D
:10564400A3A882A9838A828B83A3AA82AB83E864FA
:10565400E87003E9640670D07AD57B0578BC7905D7
:1056640088828983A3E0C0E0EA24E6F582EB340073
:10567400F583D0E0F088828983A3A882A9838A82F3
:105684008B83A3AA82AB83E864C47003E9640570C6
:10569400CF9005D5E004F0640170089005DDE0903A
:1056A40005D7F07AD97B0580047A007B00024F0E7F
:1056B400C082C0839005DCE4F09005DBF09005D552
:1056C400F0A3F0A374FFF075E1F10245E0C082C0DD
:1056D40083780079009005DCE0600478D979058846
:1056E400828983A3A3A3A3E0F90245E074F6121709
:1056F4001FEAFEEBFFEE2463F582EF3400F583E04E
:10570400F8A3E0F9E8497003025795EE2463F8EF33
:105714003400F97A007B00A2AFE433F508C2AF8805
:10572400828983E0FCA3E0FDEC4D603A88828983A2
:10573400E0FAA3E0FB8A828B83E0FCA3E0FD88828D
:105744008983ECF0A3EDF08A828B83E4F0A3F088E4
:10575400828983E0FCA3E0FDEC4D700A8882898392
:10576400A3A3E4F0A3F0E508A2E092AF12071C9013
:1057740006E9E004F09006EAE004F0EE2463F58222
:10578400EF3400F583E0F8A3E0F9E8496003025739
:105794000F8E828F83A3A3A3E0600F8E828F83A3D7
:1057A400A3A3E4F09005D6E014F09005D5E014F03E
:1057B40070069005D774FFF08E828F83A3A3E4F064
:1057C4009006E8E0700D9005D6E06401700579005C
:1057D400121100EEFAEFFB12102E02521474F7129B
:1057E400171FEAFEEBFF8E828F83A3A3A3A3E0FA25
:1057F4007B00120D04EEFAEFFB120F80121016025A
:105804004F0EC082C08378BC790588828983A3E463
:10581400F088828983A3A882A983E864C47003E919
:10582400640570E69005BD74010245DF74F6121735
:105834001FEAFEEBFFEC2403F8ED3400F988088935
:1058440009EC2407F8ED3400F9E8FCE9FD8C828DBD
:1058540083E0F8A3E0F9850882850983E0FAA3E0F0
:10586400FB12163DEE240DF582EF3400F583E8F0CB
:10587400A3E9F08C828D83E0F8A3E0F985088285A2
:105884000983E0FAA3E0FB12163D8B09EA4509609F
:1058940013EE240DF582EF3400F583E02401F0A328
:1058A400E03400F002521474F612171FEAFEEBFF04
:1058B400EE242EF582EF3400F583E0FCA3E0FD78BE
:1058C4000079FAECFAEDFB12163DEE246FF582EF47
:1058D4003400F583E8F0A3E9F0780079FAECFAED06
:1058E400FB12163D8B09EA45096013EE246FF5821D
:1058F400EF3400F583E02401F0A3E03400F0025219
:105904001474EC12171FEAFEEBFF741412171378C9
:10591400081215981210BE8A0C8B0D8C0E8D0F7503
:105924001002751100751200751300780C791012AD
:1059340014FE7510FF7511FF7512FF780C791012A3
:10594400155F780C12192E8E828F83E0F8A3E0F590
:10595400838882A3A31215B61226BF74041216DE1E
:10596400E96003025A698E828F83E02402F8A3E07F
:105974003400F9E8FAE9FB8A828B8378081215244B
:105984008A828B837508FF7509FF750AFF750B0002
:105994007808121585EE240BF582EF3400F583C0E8
:1059A40082C0838E828F83A3A3A3A3A3E02401F8E0
:1059B400A3E03400F9D083D082E0687003A3E069E7
:1059C40070057901025A6B8E828F83A3A3A3A3A3CC
:1059D400A3A3E02401F0A3E03400F0EE2473F582E5
:1059E400EF3400F583E064017036EE2474F582EF41
:1059F4003400F583E0F8A3E0F98E828F83A3A3A398
:105A0400A3A3A3A3E0687003A3E0697013EE247456
:105A1400F582EF3400F583E02401F0A3E03400F0D4
:105A2400EE247FF582EF3400F583E064017036EEF6
:105A34002480F582EF3400F583E0F8A3E0F98E8248
:105A44008F83A3A3A3A3A3A3A3E0687003A3E06924
:105A54007013EE2480F582EF3400F583E02401F026
:105A6400A3E03400F0790002477874F612171FE9B6
:105A7400FEECFFEA2462F582EB3400F583E0640176
:105A84006003025B179061D0E0F508EA2482F58296
:105A9400EB3400F583E060047804800278007480BD
:105AA400C39508FC95E0FDEF28F8E43400F9E824F8
:105AB40002F8E93400F9EC98ED99A2D265D03340AC
:105AC4004E740A121713E0F508A3E0F509EA2482DC
:105AD400F582EB3400F583E060157808121932EF93
:105AE400FCEEF9120FFE74021216DE74042FFF741A
:105AF400012FF5D98ED9EF600F850882850983F8C7
:105B0400E0F5D9A318E870F875E195790080067975
:105B140007800279FF02521474F712171FA2AFE430
:105B240033FEC2AF8A828B83E0F8A3E0F9E8498AA6
:105B3400828B83600AA3A3E0F8A3E0F5838882EC58
:105B4400F0A3EDF08A828B83A3A3ECF0A3EDF08C99
:105B5400828D83E4F0A3024F0674F712171FE960E5
:105B640021F88C828D83E08A828B83F08C828D83F2
:105B7400A3AC82AD838A828B83A3AA82AB8318E809
:105B840070E0ECFAEDFB024F0E74F012171F74FA7A
:105B94001216C8890BECFEEDFF750A008A088B0902
:105BA4007808121976000410C05DD05BEE5B085CC7
:105BB400205C3E5C565C795C915CA55CCF5C575D77
:105BC400685D7F5D9A5DC05DC05DE55C7401650BD9
:105BD4006003025DBB8E828F83E0F8C394034003AD
:105BE400025DBBE89009F1025D977402650B6003E6
:105BF400025DBB8E828F831264BD9009F2E8F0A32C
:105C0400E9025D977401650B6003025DBB125DE8F8
:105C14004003025DBBE89002A7025D977401650B27
:105C24006003025DBB8E828F83E0F8C3940540035A
:105C3400025DBBE89002A8025D977401650B6003E6
:105C4400025DBB125DE84003025DBBE89002A9025D
:105C54005D977410650B6003025DBB7508107509D0
:105C64000078081219327AAA7B0212048E74021286
:105C740016DE025DE17401650B6003025DBB125D1B
:105C8400E84003025DBBE89002BA025D97740165C7
:105C94000B6003025DBB8E828F83E09009F5025D89
:105CA400977404650B6003025DBB8E828F83780C4E
:105CB40012159890815F780C1213B75003025DBBE4
:105CC4009002BC780C1215A7025DE1E96003025D45
:105CD400BB120A82E97005120626806090034F8089
:105CE4006E7407650B6003025DBB750806750900D9
:105CF40078081219328E828F83A3AC82AD8374022A
:105D0400121713AA82AB8312049474021216DE7C57
:105D1400007D00851882851983AA82AB838E828FC9
:105D240083E0F91205CCE9F508C3940A4003025D47
:105D3400DE120A82E9700CA90812062C79501207A7
:105D44009A806F74502508F58274033400F58374C7
:105D54000180407401650B705E125DE85059E89053
:105D640002BB802F7401650B704D8E828F83E0F827
:105D7400C3940A5042E89009F480187401650B70CA
:105D8400368E828F83E0F874F928C3940A5028E889
:105D94009009F6F080477401650B701B90034EE088
:105DA400F88E828F83E090034EF0E87030E0640157
:105DB400702B12061A8026750A188021C3EA9427CC
:105DC400EB940050157402650B700F8E828F831252
:105DD40068BC120920E9F50A8003750A02A90A744D
:105DE400060264B28E828F83E0F8C394022274F0B8
:105DF40012171F74CC1216C88C0A8D0B742012173C
:105E040013AC82AD8375838175824A74061215DBE7
:105E14007420121713AC82AD831205CCE9F5087413
:105E240044121713E0FEE9C3940A4003025F60754D
:105E3400F006E9A4F5097426121713AC82AD837A2F
:105E44000E74202509F9120794E9700974321217A7
:105E540013E0FF80027F009009F1E0640270047493
:105E6400018001E4F50D780D121936EEFDEFFCA961
:105E740008AA0AAB0B12065074011216DE7C147DBC
:105E8400007900740C121713AA82AB831204A6744F
:105E94000C121713AC82AD837A1074242509F912FD
:105EA4000794E9703C7C1079FF740C121713AA82D2
:105EB400AB83120506E97029741C121713AC82AD6A
:105EC400837A0474252509F9120794740C121713A4
:105ED400AC82AD83EFA2E0E433F9AA0AAB0B12095A
:105EE400AA851882851983AC82AD837A0C747025D7
:105EF40008F9120794E97053851882851983AA82D8
:105F0400AB831205FC750800E50875F003A4F8A935
:105F1400F0851882851983E58228F8E5831266C620
:105F24001268B6601D88828983A3A3E0F50E750FFD
:105F340000780E121932AA0AAB0B120C0E7402125C
:105F440016DE0508E508C3940440BDEFA2E1500C39
:105F54009002A6E0F9AA0AAB0B120C1474046E703A
:105F6400279009F1E06402701F7A009002BAE060A1
:105F7400010A9002A7E06004780480027800E84AED
:105F8400F9AA0AAB0B120A6A790074340264B27477
:105F9400F012171FEAFEEBFF8C088D09750A0AE957
:105FA400600C1460091460371460790260421206B0
:105FB4000EE9F50AC3940A4003026042E508450964
:105FC400607C750E06750F00780E121932EEFCEF28
:105FD400FDAA08AB0912048E74021216DE805F75E6
:105FE4000B00750E06750F00780E121932EEFCEFD9
:105FF400FDE50B75F00EA4F8A9F074C828FA740234
:1060040039FB1204A074021216DEE9600C850B0A37
:10601400E50AC3940A50278016050BE50BC3940ABE
:10602400501C80BE120614E9F50AC3940A500FE509
:106034000845096009AA08AB09A90A120608A90AB1
:106044000264B574F412171F890875091574FF6A80
:10605400700374FF6B70277E00AC087A027B00EE3D
:10606400F91205EAE960037509000EEEC3940A40CB
:10607400E8E50860537A3E7B06120E12804A120D40
:10608400F48A0A8B0BAE0AAF0BEE4F60387C007DAE
:1060940000EE2405FAEF3400FB8E828F83A3A3A3C2
:1060A400A3E0F91205CCE9C3940A500CAC087A02B7
:1060B4007B001205EA750900E508600CEEFAEFFBB7
:1060C40012063E8003750914A9098005740E121680
:1060D400DE7F040217F174F212171FECFEEDFF7558
:1060E4000815740E121713E0F50AA3E0F50B74FFFC
:1060F4006A700374FF6B7021750900AC0AAD0BEE76
:10610400FAEFFBA9091205F0E96003750800050917
:10611400E509C3940A503F80E2120DF48A828B830E
:10612400E5824583602D7C007D00E5822405FAE547
:10613400833400FBA3A3A3A3E0F91205CCE9C39421
:106144000A5013AC0AAD0BEEFAEFFB1205F075081A
:10615400008003750814A908026EF8C082C08390F9
:1061640002C0EAF0A3EBF09002A6E0FC7D007A26E0
:106174007B001209209002A6E0F9120B8A026D53EB
:1061840074F012171F74EC1216C8EAFEEBFFEE242B
:106194000CF50CEF3400F50DEE2405F50EEF34008C
:1061A400F50FEE2409F50AEF3400F50BEE2403F5A0
:1061B40008EF3400F5098E828F83A3A3E024FA70DC
:1061C4000302645624FD70030263711470030262B7
:1061D4005D14601024FD70030263481470030263AD
:1061E400A50264AE1270F36048E0F58388821264FD
:1061F400BD880E890FE8450F6037850C82850D83B5
:10620400E0F50C780C121936EE240BF582EF1266C9
:106214008DF9850A82850B831268BC0A0A0AAB09C8
:10622400850E82850F8312171D74011216DE026417
:10623400AE850A82850B831219499002BC1215B6E9
:106244001209BC74021216DEE970030264AE79010D
:10625400850A82850B830264218E828F83A38582C3
:106264000A85830BE0600302632B850E82850F830E
:10627400E0A2E0400302632B90035A1270F660031D
:1062840002632B7C0E7D007900851882851983AA10
:1062940082AB831204A6850C82850D83126D1EEADF
:1062A4004B6010750C06750D00780C121932EA2437
:1062B40010801B126D18120DF4EA4B70030264AEC9
:1062C400750C06750D00780C121932EA2405FCEBE6
:1062D4003400FD7402121713AA82AB8312048E7465
:1062E400021216DE850E82850F83E0A2E25004D2EC
:1062F400F08002C2F0A2F0E433F8740C121713E039
:1063040048F0EEFCEFFD851882851983AA82AB83E1
:10631400120602E970117A027B009002A6E0F912DB
:1063240004E279000264B01270F370030264AE12E6
:1063340064C370030264AE850A82850B83E0FC7932
:106344000102644A1270F370030264AE1264BA89E3
:106354000BE8450B70030264AE8E828F83A3E0FCCE
:106364007902126D188882850B830264517C007D4A
:1063740000EE2404FAEF3400FB850882850983E0EB
:10638400F91205CCE9F8C3940A40030264AEEE2482
:106394000AFCEF126892E8A42425F912078E02641D
:1063A400AE126D189002BBE060079009F4E0F9802A
:1063B4006F9009F1E0700479058065120DF48A0C80
:1063C4008B0DA80CA90DE82404F50CE93400F50D97
:1063D4008E828F83A3A3A3A3A3A3A3E0A2E050462A
:1063E400E84970030264AE850C82850D83E0FE608B
:1063F40035850A82850B83E05410702A740E1217B7
:1064040013AC82AD83E82405FAE93400FBEEF912FB
:1064140005CCE970117903850882850983126D1E04
:106424001209B60264AEAC0EAD0F850C82850D83E5
:10643400E0F9126D1812064A1270F3606D1264C30B
:1064440060687C007900126D188E828F8312171D8C
:106454008058120A82E9705290034FE0640170156B
:1064640012062690034FE4F07C0AFDF97A507B0370
:106474001204A6802D750A00850A0874502508FEAA
:1064840074033400FF8E828F83E06401700BA90AC9
:1064940012062C8E828F83E4F0050AE50AC3940A5F
:1064A40040D6795012079A12061A790174141216FA
:1064B400DE7F080217F11264D2E0F8A3E0F9221299
:1064C40064D2E0F8A3E0F9E8FEE9FFEE4F22E0F53C
:1064D400838882A3A32274F412171F74F21216C8BD
:1064E400EAFE8C0B75F006E9A42420F508851882D1
:1064F400851983AC82AD837A0EF9120794E970573B
:106504007C0679FF851882851983AA82AB831205DC
:1065140006E97043740C1217131264BDE8F509E51B
:106524000B6005EE42098004EEF45209850982AA43
:1065340082E86A7001E9601B740C121713EAF0A375
:10654400E4F0851882851983AC82AD837A0EA9089C
:1065540012078E7901800279000260D074F212175A
:106564001F74E61216C8890A8A088B09ECFEEDFF2F
:10657400740C121713AC82AD837A0E75F006E9A47D
:106584002420F9120794E960030266807C0679FFEF
:10659400740C121713AA82AB83120506E960030276
:1065A40066807470250AF50B851882851983AC8280
:1065B400AD837A0CF9120794E9600302667C8518AE
:1065C40082851983AA82AB831205FCE5084509700C
:1065D4002C7C0C7900851882851983AA82AB8312DE
:1065E4000506E9600302667C7C0C7D007900851851
:1065F40082851983AA82AB831204A6805D851882E2
:10660400851983AC82AD83AA08AB091205F68A0CFE
:106614008B0DA80CA90DE8497028EE4F605E851813
:1066240082851983AC82AD837A007B001205F6EA79
:10663400F8EBF9EA4B604588828983E508F0A3E525
:1066440009F0126687FAEE6A7001EF602BEEF04FE4
:10665400700888828983E4F0A3F085188285198301
:10666400AA82AB831205FC851882851983AC82AD9E
:10667400837A0CA90B12078E790180027900741AAF
:10668400026EF5E82402F582E93400F583E0227411
:10669400F712171F7F00EF75F003A4F8A9F0EC2898
:1066A400F8ED1266C6E06A7003A3E06B7006E8FAC0
:1066B400E9FB800B0FEFC3940440DB7A007B0002FC
:1066C4006A7139F9888289832274F712171F7E0050
:1066D400EE75F003A4F8A9F0EA28F8EB1266C6E018
:1066E400F4FCA3E0F4FD88828983ECF0A3EDF012BE
:1066F4006687F4F00EEEC3940440D5026A7174F216
:1067040012171F74F41216C8EAFEEBFF8C088D09E9
:1067140090035A1270F67051EE4F700302688BECBE
:106724004509700302688B12060EE99009F7F0C35D
:10673400940A4035750B007C0679FFE50B75F00E65
:10674400A4FAABF074C22AFA74023BFB120506E900
:106754006005850B0A800C050BE50BC3940A40D732
:10676400750A0AE50A9009F7F09009F7E0C3940A5C
:10677400400302688B75F006E0A4FB90035A127084
:10678400F6706FEEFCEFFD7A0E74202BF912078E73
:106794007C0C7D0079FF851882851983AA82AB83DE
:1067A4001204A6851882851983AC82AD837A0C9075
:1067B40009F7E02470F912078E750C0E750D007838
:1067C4000C121932EEFCEFFD9009F7E075F00EA4FF
:1067D400F8A9F074C228FA740239FB12048E740208
:1067E4001216DE90035AE508F0A3E509F0790002D9
:1067F400688DE0C824061268AF601A7A1B74212BD6
:10680400F912078E12689B2406F582E83400F5839A
:10681400E4F0A380D712689B240A1268AF60107A50
:106824001B74222BF912078E12689B240A80DA1239
:10683400689B240C1268AF60107A1074232BF91231
:10684400078E12689B240C80C01268A41268AF6083
:106854002A7A1074242BF912078E1268A4F582E8A0
:1068640012668D2410FCA3E01268929009F7E0A44C
:106874002425F912078E1268A4808E90034EE060DE
:10688400031206561206447901740C026EF53400A4
:10689400FD7A0475F0062290035AE0F8A3E0C822BA
:1068A40090035AE0F8A3E0C8240822F582E83400F3
:1068B400F5831268BCEC4D22E0FCA3E0FD2274F4E5
:1068C40012171F74F21216C8EAFEEBFFE9C3940A0A
:1068D4005004EE4F70047902803E85188285198336
:1068E400AC82AD837A0E75F006E9A42420F9120770
:1068F40094E9F5087020750A06750B00780A1219D8
:10690400327402121713AC82AD83EEFAEFFB120459
:106914008E74021216DEA9080260D074F412171FD6
:10692400EAFEEBFF750800750A06750B00780A127B
:106934001932EEFCEFFDE50875F00EA4F8A9F07429
:10694400C228FA740239FB1204A074021216DEE99A
:106954006004A908800B0508E508C3940A40C879B7
:106964000A0260D574F712171F74F01216C8EAFEF3
:10697400EBFF750800851882851983AC82AD837A94
:106984001075F006E508A42423F9120794E9702C85
:106994007C1079FF851882851983AA82AB8312053E
:1069A40006E97018EEFCEFFD851882851983AA822A
:1069B400AB8312098CE97004A908800B0508E5086B
:1069C400C3940A40B0790A74101216DE026A717414
:1069D400F712171F750800E50875F00EA4F8A9F062
:1069E40074C228FE740239FFEEFCEFFD7A0E75F0D6
:1069F40006E508A42420F9120794E9602C7C067D9E
:106A04000079FFEEFAEFFB1204A67C067D0079FF05
:106A1400EE2406FAEF3400FB1204A6EE240CF582F1
:106A2400EF3400F583E4F0A3F00508E508C3940A05
:106A340040A590034EE06003120656120644802DD2
:106A440074F712171F7E007F007C0679FFEF75F044
:106A54000EA4FAABF074C22AFA74023BFB120506C8
:106A6400E970010E0FEFC3940A40DEEEF97F0102D4
:106A740017F174F712171F7E00EEF912062C0EEEB2
:106A8400C3940A5003E960F180E374F312171F748E
:106A9400CB1216C8E9FE9009F7E06E701B7A017BF1
:106AA400009002A6E0F91204E87A027B009002A6A4
:106AB400E0F91204E812066275F006EEA4FF7420F1
:106AC4002FF5087427121713AC82AD837A0EA90828
:106AD400120794E96003026BC87C0679FF742712DD
:106AE4001713AA82AB83120506E96003026BC87C04
:106AF4000E7D0079FF7427121713AA82AB83120448
:106B0400A67C1B7D0079FF740C121713AA82AB8339
:106B14001204A67C0C7D0079FF851882851983AA4E
:106B240082AB831204A67427121713AC82AD837A46
:106B34000EA90812078EE9F508740C121713AC821B
:106B4400AD837A1B74212FF912078EE9F509740CB1
:106B5400121713AC82AD837A1B74222FF912078E9D
:106B6400E9F50A740C121713AC82AD837A107423FE
:106B74002FF912078EE9F50B740C121713AC82ADC2
:106B8400837A1074242FF912078EE9F50C740C1211
:106B94001713AC82AD837A0474252FF912078EE99A
:106BA400FF851882851983AC82AD837A0C74702EAC
:106BB400F912078EE9F8E509450A450B450C4F48DB
:106BC40042088003750800A90874351216DE7F0593
:106BD4000217F174F712171FE99002A6F012061AB1
:106BE400026A7174F412171FEAFEEBFF54807003FB
:106BF400026C7F9002A6E0F91204CA8A088B09EAA3
:106C04004509607078018A828B83E02450603D14CA
:106C1400600624E1604F8052A3A3A3A3E0704E8AD0
:106C2400828B83A3A3A3A3A3A3A31219498A828B50
:106C340083A3A3A3A3A31268BC8A828B83A3A312F6
:106C44006D1E1205D874021216DE8021A3A3A3A31D
:106C5400E0641E701879008A828B83A3A3126D1ED0
:106C64001205D280081205E4E9F8E86007AA08AB27
:106C7400091204B8EEFAEF64808065EE54026023D2
:106C84007C007D007A007B00120602E960117A0123
:106C94007B009002A6E0F91204E2EE6402803F7ADF
:106CA400028046EEA2E0503F126CF2126D1E1206F4
:106CB4005CE9602F1270F3601F1264BA88088909B6
:106CC400E8450960137C007901126CF2126D1E858F
:106CD400088285098312171D120662EE6401FAEF19
:106CE400FB80087A0180027A007B000260D5900361
:106CF4005AE0F8A31264D2A3227F020217F1C082E1
:106D0400C0839002A6E0F98A828B83A3126D1E12BF
:106D14000C14803B850882850983E0FAA3E0FB22FA
:106D2400C082C08374FF1216C8120620E9C39402FD
:106D3400851882851983400474028002740AF0ACB9
:106D440082AD837A017905120A9A74011216DED093
:106D540083D08202013574F212171F74E81216C828
:106D6400EAFEEBFF890A8C088D097C187D00790006
:106D7400851882851983AA82AB831204A68518829A
:106D8400851983EEF0A3EFF09002A8E0C0E074024E
:106D9400121713D0E0F09002A9E0C0E074031217B8
:106DA40013D0E0F09009F6E0C0E07417121713D086
:106DB400E0F07415121713E054FEF8A3E0F99009FB
:106DC400F5E0A2E0E433FAE84AF874151217131256
:106DD4006F04A2E15004D2F08002C2F0E854FDFA3C
:106DE400A2F0E43333F8EA48F87415121713126F5B
:106DF40004A2E35004D2F08002C2F0E854F7FAA2ED
:106E0400F0E433F50C750D007403780C1216B5120A
:106E14006EFD121713126F04A2E45004D2F0800224
:106E2400C2F0E854EFFAA2F0E433F50C7404780CE1
:106E34001216B5126EFD121713126F04A2E5500458
:106E4400D2F08002C2F0E854DFFAA2F0E433F50C89
:106E54007405780C1216B5126EFD121713126F0416
:106E6400A2E25004D2F08002C2F0E854FBFAA2F08D
:106E7400E433F50C7402780C1216B5126EFD121779
:106E840013E8F0A3E9F09002A9E0601D750C1078F6
:106E94000C1219327CAA7D027406121713AA82AB53
:106EA4008312048E74021216DE9002BAE06011E5B9
:106EB4000A60097415121713E04402F07801800285
:106EC40078007414121713E048F09002A7E06004ED
:106ED4007804800278007414121713E048F0AC08A8
:106EE400AD09851882851983AA82AB831209B0740F
:106EF400181216DE7F060217F1EA450CF874152203
:106F0400E8F0A3E9F09009F5E02274F312171F7476
:106F1400E51216C8EAFEEBFF8C098D0A74281217D5
:106F240013E0F50C75F006E9A4F87408650A70041A
:106F340074228002742128F50B7C1B7D0079008566
:106F44001882851983AA82AB831204A685188285C8
:106F54001983AC82AD837A1BA90B120794E97032B2
:106F6400741A121713E024F9C3940A5025E50CF59A
:106F74000B780B1219367401121713AC82AD83E52A
:106F840009A2E0E433F9EEFAEFFB1209C27401122C
:106F940016DE741B026BCF74F712171F120C8C755C
:106FA4000800E50875F00EA4F8A9F074C228FE7470
:106FB4000239FF7C0679FFEEFAEFFB120506E97051
:106FC40009EEFAEFFB7900120C920508E508C39468
:106FD4000A40CF026A7174F612171F74FD1216C8A4
:106FE400EAFEEBFF90035C1270F6703975085E756B
:106FF4000903780812193275080275090078081215
:1070040019327508B475098178081219327CFF7D2C
:10701400FF7A017B00120ADC74061216DE90035C10
:10702400EAF0A3EBF090035C1270F670030270DDDB
:10703400E4F508F509780812193274041217138557
:10704400820885830978081219327404121713858B
:107054008208858309780812193290035E1219494F
:10706400790290035C1270EB120C0274081216DEA3
:10707400E97034851882851983E0FA7401121713B4
:10708400E0F9EA2400F508E439F509EA450960174E
:10709400780812193290035C126CF5A31270EB128B
:1070A40005D874021216DEE4F508F50978081219F9
:1070B4003290035E1219497CFF7DFF90035C126DD0
:1070C4001E120AE874041216DE90035CEAF0A3EBC5
:1070D400F090035C1270F6700479018002790074F8
:1070E400031216DE026CFD1268BCEEFAEFFB22906E
:1070F40002C0E0F8A3E0F9E84922C082C08390030B
:107104005A1270F6601090035A126D1E1204B89051
:10711400035AE4F0A3F09009F7740AF0026D537473
:10712400EE12171F890B8A0C8C0E8D0F750A001234
:107134007224600579110272067412121713E0F5B5
:1071440008A3E0F509E5084509603C7A217B0012B3
:1071540009268A108B11A810A911E5082415FEE54B
:10716400093400FF8E828F83E0C398E49940187A33
:10717400227B001209268A108E828F83E0FAC3E5EF
:10718400109AEB94005004790280777A637B0012A2
:10719400051E90093AEAF0A3EBF012722470047908
:1071A40013805F7C637D0079001204A6127212E4DE
:1071B400F090093A1277D6E50BF0127212A3E50C9F
:1071C400F090093A127926E50EF0A3E50FF0127C4F
:1071D400AEE508F0A3E509F0127E44241812720B00
:1071E400E4F0A3F0127CB4E4F0E50B600612124460
:1071F400E9F50A1272127401F0E50A600312127AB8
:10720400A90A7F0A0217F1F582E8127CC5221272DC
:10721400162290093A12721D221277DAA322E9FE8D
:1072240090093A127677E8492274F612171F7E0005
:107234001272246019E0C8241AF582E812762A74BE
:107244000268600F740368600A7404686005791248
:107254000272F81273096C7003A3E06D6005790281
:107264000272F87508108E097808121932EAFCEBDC
:107274001272FB12048E74021216DE791090093A0F
:10728400E0242BFAA3E03400FB1211CC90093AE07D
:10729400241BF508A3E03400F5097808121932120A
:1072A4007A051272FB12123274021216DE90093A37
:1072B400E02401127CA3E0FA90093AE0FBA3E0F594
:1072C400838B82E0600D74036A70278882898374DB
:1072D40002801974046A7009888289837402F080B8
:1072E4001174036A700C888289837405F012124A3F
:1072F400E9FEEEF9027D6BFD90093AE02407FAA35A
:10730400E03400FB2290093AE0F8A3127F88E022DF
:10731400C082C08390093C02767D74F712171F1255
:107324007222601312730F6A7003A3E06B70087407
:10733400016E700312127A7F010217F1C082C083BA
:10734400791712128002768274F412171F74ED12E8
:1073540016C8EAF8EBF9851882851983E4F0888267
:107364008983A3A3A3A3A3A31278C88A828B83E0EF
:10737400F50AE82402F8E93400F9E8FEE9FFE50A31
:1073840014603314603014604B14607214607D1404
:10739400700302741E14700302742C1470030274BC
:1073A4003A14700302744814700302745614700380
:1073B4000274640274737401121713AC82AD8312E5
:1073C40012E0E9F8741268701985188285198374BB
:1073D4000602747B7401121713AC82AD831212EC93
:1073E400E9F8E860030274C3750B071278C4120D40
:1073F400F4EA4B600302747E7508080274BA7401DF
:10740400121713AC82AD831212F880D474011217D0
:1074140013AC82AD8312130480C67401121713AC2B
:1074240082AD8312131080B87401121713AC82ADAD
:107434008312131C80AA7401121713AC82AD831239
:10744400132E809C7401121713AC82AD8312133473
:10745400808E7401121713AC82AD831213408080A6
:107464007401121713AC82AD8312134C0273E485BA
:1074740018828519837407F0804E900488E0A2E393
:10748400500590093E800390093C12722760241233
:107494007980F8A3E0F98909E845096016740112B6
:1074A4001713AC82AD83A90A888285098312171D3C
:1074B400E9F50B850B08851882851983E508F085A5
:1074C4001882851983E0600CAC82AD831278C412F3
:1074D400122080031211A874131216DE7F040217FF
:1074E400F174F612171FECFEEDFF7508FE75091214
:1074F4007808121932790212135274021216DEE954
:10750400F5088E828F83E0F9121280A908027D6B40
:1075140074F412171FEAFEEBFF8908127224700339
:1075240002760012730F6E7003A3E06F600302769D
:107534000090093AE0240108A3E03400F9E8FAE9EC
:10754400FB8A828B83E0F874066860030275ED128F
:1075540077CE607C90093B127F8212767790093A4D
:10756400E0FCA3E0CC2418F582EC127EB7FCA3E087
:10757400FDE82413F582E912762AA2E050168C82E3
:107584008D83A3A3A3A3A3E0A2E050088A828B83E4
:1075940074078034E8540260168C828D83A3A3A3FD
:1075A400A3A3E0540260088A828B8374098019E8DB
:1075B400540460178C828D83A3A3A3A3A3E0540473
:1075C40060098A828B83740BF0801590093E8003D6
:1075D40090093C1272276008127666600312171D28
:1075E40012765F703C7900800E741168700EE508A5
:1075F4006003750832A9081212808025E508701806
:10760400EEFAEFFB120DF48A828B83E582458360E8
:1076140007A3A3A3E0D2E4F0EEFAEFFBA908120A51
:107624000479010274E0127CC5E0F822C082C083B0
:107634001272246024127980700590093C800390B2
:10764400093E1272276008127666600312171D1233
:10765400765F700579001212808023127216E0643E
:1076640012221278C0A3A312767788828983E582D6
:10767400458322E0F8A3E0F922EAF0A3EBF0D083FB
:10768400D08202013574E812171F74E91216C885F6
:107694001882851983EAF0A3EBF08C168D17742FEA
:1076A400121713E0F514A3E0F5151272247005798E
:1076B400120277C4127985120DF48A088B09AE0878
:1076C400AF09EE4F700579140277C47402121713D0
:1076D400AA82AB8312128CEE2405F512EF3400F566
:1076E40013EE2404F510EF3400F5111277CE603256
:1076F400740212171385820C85830D1277E3FEA39F
:10770400E0FF120974E9F50E790012097A8A0A8BEE
:107714000B851082851183E0F50F85120885130906
:1077240080301277E3F50CA3E0F50D740212171301
:10773400AE82AF83120974E9F50F790012097A8ACF
:10774400088B09851082851183E0F50E85120A8560
:10775400130B7410121713AC82AD83EEFAEFFB1205
:1077640012D47409121713AC82AD83AA0CAB0D1298
:1077740012CE78141219327808121932E50FF5086E
:107784007808121936780A121932741012171385F0
:10779400820885830978081219327419121713851F
:1077A40082088583097808121932A90EAC16AD1720
:1077B400740B1217131278C81211BA740B1216DE56
:1077C40074171216DE7F100217F190093A1277D659
:1077D400E0221277DA22E0F8A3E0F583888222908F
:1077E400093BE0C82418127CC2E02274F612171F69
:1077F40074F71216C8EAFEEBFF8C088D0990093C59
:1078040012722770030278BB1278C01272277003B9
:107814000278BB8C828D83E0C0E07402121713D00F
:10782400E0F08C828D83A3E0C0E07403121713D0C0
:10783400E0F08C828D83A3A3E0F97404121713AAD9
:1078440082AB831211D8850882850983A3A3A3E0A0
:10785400C0E07406121713D0E0F08508828509830E
:10786400A3A3A3A3C082C0837407121713AC82AD71
:1078740083D083D08274021215DB7402121713AC06
:1078840082AD837901EEFAEFFB90093C1277D1F8CF
:10789400A31278C012171DE9851882851983F06038
:1078A400167401121713E9F0AC82AD838E828F83B4
:1078B400A31278C81212207409027D681277DD229F
:1078C4008E828F83E0FAA3E0FB2274F212171F89E1
:1078D40008740E121713E0F50AA3E0F50B741012E6
:1078E4001713E0F50CA3E0F50D90093E1272276022
:1078F4002A90093E127926A3E0FEA3E0FFEE4F6032
:107904001A780C121932780A121932A9088E828F49
:107914008312171D74041216DE800279027F060298
:1079240017F11279912274F612171F74F91216C8FE
:10793400127224603D851882851983AA82AB831252
:10794400128C12798512797D60087508CE7509123A
:1079540080067508D4750912780812193274021257
:107964001713AC82AD83790712135274021216DE18
:10797400800279017407027D6890093B1278C0E0A7
:107984002212798EE0FAA3E0FB2290093A12721DCA
:10799400A3A32274F612171F74F01216C8750810E8
:1079A400750900780812193290093AE0241BFCA3E7
:1079B400E03400FD7402121713AA82AB8312048E02
:1079C40074021216DE7508E6750912027D4B74F610
:1079D40012171F74F01216C875081075090078087C
:1079E400121932127A05FD7402121713AA82AB839C
:1079F40012048E74021216DE7508F2750912027DE5
:107A04004B90093AE0242BFCA3E034002274F012DA
:107A1400171F8A088B09750A007A077B0012051E56
:107A240090093AE02418127CA3EAF0A3EBF08882D0
:107A34008983E0FA4B7003027C75127CAEE0FEA3EE
:107A4400E0FF750C07750D00780C121932AC08AD07
:107A54000912048E74021216DE1277CE6003027BC2
:107A6400E9EE2413FCEF3400FD1277E32405F50C52
:107A7400A3E03400F50D8C828D83127677850C8219
:107A8400850D83E0A2E092F0E8A2E020F001B3507B
:107A940007A2E0E433FA80027A00E854FE4AF88C44
:107AA400828D83127C91C313A2E092F0E8C313A2E7
:107AB400E020F001B35012E854026004D2F08002D6
:107AC400C2F0A2F0E433FA80027A00E854FDF8EA46
:107AD400C333FAE433FBE84AF8E94B127C9D543F84
:107AE400A2E092F0E81313543FA2E020F001B35057
:107AF40013E854046004D2F08002C2F0A2F0E4332C
:107B0400F50E8003750E00750F00E854FBFAE9FBCF
:107B14007402780E1216B5EA450EF8EB450F127C86
:107B24009D13541FA2E092F0E8131313541FA2E014
:107B340020F001B35013E854086004D2F08002C26C
:107B4400F0A2F0E433F50E8003750E00750F00E823
:107B540054F7FAE9FB7403780E1216B5127C7F54BD
:107B64000FA2E092F0E8C4540FA2E020F001B35059
:107B740013E854106004D2F08002C2F0A2F0E4339F
:107B8400F50E8003750E00750F00E854EFFAE9FB5B
:107B94007404780E1216B5127C7F135407A2E09277
:107BA400F0E8C4135407A2E020F001B35013E854E2
:107BB400206004D2F08002C2F0A2F0E433F50C801D
:107BC40003750C00750D00E854DFFAE9FB740578C1
:107BD4000C1216B5EA450CF8EB450DF98C828D8331
:107BE400E8F0A3E9F0850882850983A3E0600F8E9D
:107BF400828F83A3E06007127CB47405806B8508D0
:107C040082850983A3A3E054047014EE2412F58240
:107C1400EF127EB7A2E24007127CB47401804A12CC
:107C240077CE8E828F83600CE0F885088285098385
:107C3400E0F9800AE0F9850882850983E0F8E8C361
:107C440094055028E9C3940550228808E975F00585
:107C5400A4F8A9F0745028F8748039F9E8250812BA
:107C64007EB4C0E0127CB4D0E0F08008750A1880BD
:107C740003750A13A90A7F080217F1EA450EF8EB07
:107C8400450F127C8BC422F98C828D83E8F0A3E922
:107C9400F0850C82850D83E022127C8B131322F86D
:107CA400A3E03400F9888289832212798EA3A32267
:107CB40090093AE0F8A3E0C8241A127CC222F582A3
:107CC400E83400F5832274F612171F75080A750943
:107CD40013780812193279111213527402027D6852
:107CE40074F612171F74EE1216C8EAFEEBFF741C2A
:107CF4001217131278C8851882851983ECF0A3ED46
:107D0400F07508087509007808121932EAFCEBFDD1
:107D14007404121713AA82AB8312048E740212160F
:107D2400DE750816750913780812193274021217D1
:107D340013AC82AD83790BEEFAEFFB12135274028B
:107D44001216DE7412801D7808121932740212178A
:107D540013AC82AD83791112798512135274021215
:107D640016DE74101216DE7F020217F174F6121773
:107D74001F750822750913027CD574F412171F7439
:107D8400F91216C8EAFEEBFF851882851983E9F01B
:107D9400750A06750B00780A121932740312171348
:107DA400AA82AB8312048E74021216DE750A287539
:107DB4000B13780A1219327402121713AC82AD83B2
:107DC4007908EEFAEFFB12135274021216DE7407EE
:107DD4000274DD74F612171F75083A750913027CD4
:107DE400D5C082C0831272246050E0C82418127E69
:107DF4004D6003120524127E44245B127E4D600301
:107E0400120524127E44245D127E4D600312052463
:107E1400127E44245F127E4D6003120524127E44B8
:107E24002461127E4D600312052490093A1278C829
:107E340012052490093AE4F0A3F01211AE027682FE
:107E440090093AE0F8A3E0C822127CC2E0FAA3E069
:107E5400FBEA4B2274F712171F127222604FE0C81C
:107E6400246112720B121949127E44245F12720BA0
:107E7400121949127E44245D12720B121949127EA2
:107E840044245B12720B121949127E442417F582A2
:107E9400E8127EB7FB127309FCA3E0FD12797DFAA8
:107EA400EEF9120A1674081216DE12127A02733BE5
:107EB400F582E9127CC5E022C082C0837910900962
:107EC4003A127E50603990093AE0F8A31277E6FA44
:107ED400A3E0FBEAFCEBFDEC4D6024127CAE127EC9
:107EE40050601CEA2415F582EB12762A8C828D836D
:107EF400A3A3A3A3E0FAC3985003EA8001E8F9021C
:107F0400768274F612171FEAFEEBFF127224606287
:107F1400127F82127227605A8808890988828983AD
:107F2400E08E828F83F088828983A3E08E828F83A0
:107F3400A3F0E82412127EB4F9EE2402FAEF34001E
:107F4400FB1211D8E5082415F582E509127EB78ED7
:107F5400828F83A3A3A3A3F0E5082413F582E50984
:107F640012720EEE2405FCEF3400FD74021215DBD0
:107F740080097C077D0079001204A6027D6B127FC4
:107F840088A3A3221277DDA3A3A322C082C0837A8D
:107F9400187B0012051E900295EAF0A3EBF07C1802
:107FA4007D0079001204A67900120E1E79011206D2
:107FB400807902121358790312072E7904120D46A0
:107FC4007905120A767906120B6679071212BC79C2
:107FD400081207B87909120632790A120B90790B44
:0A7FE4001207DCD083D082020135C1
:087FF800851A87C2AF020135B2
:1080000096080C0BA208120BAE08180BBA081E0B30
:10801000C608240BD808240BE4082A0BBA08300B36
:10802000D208360B00000000F608360B02093C0BA4
:108030000000000000000000000000000000000040
:108040000000000000000000000000000000000030
:108050000101020102010102010203030401030103
:10806000010101010303020103240E8C065E133497
:10807000074C0D7C0A6C0BC212BE073806960BE249
:10808000074669726D77617265205265766973691A
:108090006F6E00536F667477617265205265766902
:1080A00073696F6E00486172647761726520526512
:1080B000766973696F6E004D616E75666163747584
:1080C000726572204E616D6500F401FA00960064DD
:1080D000004B0032001E00140000000000000000F1
:1080E000000000000000000087FB349B5F80000060
:1080F000800010000000000000FE006578706572CE
:10810000696D656E74616C53657269616C204E7542
:108110006D626572004D6F64656C204E756D6265B1
:108120007200012A00000000001B7869E0AB50C318
:10813000F0D20000FC0B0000AC0AB20A00002408D8
:108140002A080000B4050000000000000000000044
:108150000C0812080000010203040560EA00004058
:10816000420F000100000031B1E1FF88130000C29E
:1081700001000032000000E80300000000FF00FFE3
:10818000FFFFFF00001000E7FFFFFF7D000000641D
:1081900000000019000000419C00004300000001A5
:1081A00000FF0002D28102DC8102CA8102BA810290
:1081B000D481002A022901290328F0FFF1FFF2FFF0
:1081C000022AF4FFF5FF032A0128E0FFE1FF042A59
:1081D000002801180018052AF3FF502A0A18232A3C
:1081E0002A2A292A282A252A272A262A242A0C74D8
:1081F000F412171F907803E06442705590074BE02B
:1082000014F0704DC2AF12820900782AD0E0F6183F
:10821000D0E0F6E59F540770057509FF80037509E6
:108220007FC4C0E07829E6F50808E65509F5097429
:108230000B78081216A6D0E02508F8906270E0A22C
:10824000E740F8E8C333906272F0906270E0D2E0E9
:10825000F09005D7E0F470030285E9E0F875F003CB
:10826000A4C8AAF02AF974D928FE740539FFEE24AF
:1082700001F582EF3401F583E0F8A3E0F9E8496005
:108280001EEE2401F582EF3401F583E0FAA3E0FB52
:10829000EE2400F582EF3401F583E0F91204E28E5A
:1082A000828F83A3A3A3A3A3A3A3E0F8A3E0F98EE3
:1082B000828F83A3A3A3A3A3E8F0A3E9F090605463
:1082C000E09005B0F0906055E09005B1F0906056F8
:1082D000E09005B2F0906057E09005B3F0906058E0
:1082E000E09005B4F0906059E09005B5F090605AC8
:1082F000E09005B6F090605BE09005B7F090605CB0
:10830000E0FC9005B8F090605DE0FB9005B9F0905E
:10831000605EE0FD9005BAF090605FE0FA9005BB0A
:10832000F09005B6E08C082508F8E43400F98D08D3
:10833000E82508F8E93400F98B08E82508F8E9345D
:1083400000F98A08E82508FAE93400FBEE24F6F57E
:1083500082EF3400F583E02AF0A3E03BF08C08EED6
:1083600024F8F582EF3400F583E02508F0A3E0342B
:1083700000F0EE24FAF582EF3400F583E02401F0FA
:10838000A3E03400F0EE24FEF582EF3400F583E044
:10839000F8A3E0F9E8496042906000E0C333FCE4F0
:1083A00033FDE82CF582E93DF583E02AF0A3E03BBC
:1083B000F0906000E0FA9005B8E0FCEAC333FAE41C
:1083C00033FBE82AF8E93BF9E8244AF582E934006E
:1083D000F583E02CF0A3E03400F09005B6E07011D6
:1083E0009005B9E0700BA3E07007A3E0700302846E
:1083F000E68E828F83A3A3A3A3A3E0F8A3E0F9EE04
:10840000240DF582EF3400F583E028F8A3E039F974
:10841000EE240BF582EF3400F583E8F0A3E9F0EEEB
:10842000240FF582EF3400F583E4F0EE241CF5828E
:10843000EF3400F583E06401701EEE2420F582EF36
:108440003400F583E0F8A3E0F9EE241DF582EF3463
:1084500000F583E8F0A3E9F09005B1E06052EE2466
:108460001CF582EF3400F5837401F0EE2469F58287
:10847000EF3400F583E07038EE2473F582EF3400BA
:10848000F583E0702BEE247FF582EF3400F583E076
:10849000701EEE2420F582EF3400F583E0F8A3E0AF
:1084A000F9EE241DF582EF3400F583E8F0A3E9F03E
:1084B000906062E070030285998E828F83E0F8A35A
:1084C000E0F9E82406FCE93400FDE82402FAE93486
:1084D00000FB1210B88E828F83E0F8A3E0C824124C
:1084E000F582E802859F9005B8E0603AEE240FF52A
:1084F00082EF3400F583E4F0EE241CF582EF3400C3
:10850000F583E064017040EE2420F582EF3400F53D
:1085100083E0F8A3E0F9EE241DF582EF3400F58343
:10852000E8F0A3E98020EE24FCF582EF3400F58327
:10853000E02401F0A3E03400F0EE241DF582EF34D6
:1085400000F583E4F0A3F0EE240BF582EF3400F5A0
:1085500083E0F8A3E0F98E828F83A3A3A3A3A3E013
:10856000687003A3E0696003028458EE240FF5826B
:10857000EF3400F583E060128E828F83A3A3A3A360
:10858000A3E064057002A3E0600479088002793EEC
:10859000EEFAEFFB120F868050EE241DF582EF34C9
:1085A00000F583E4F0A3F09061C8E06006121D5569
:1085B000E970F48E828F83A3A3A3E0602C9061C83E
:1085C000E070069060607480F0EEFAEFFB121076B7
:1085D000E9640160147902EEFAEFFB121F02121037
:1085E0006AE9640160031210167F040217F153BF99
:1085F000EF02013574EC12171F9005D7E0F875F003
:1086000003A4C8AAF02AF974D928FE740539FF908A
:1086100061D0E07013EE2463F582EF3400F583E05F
:10862000F8A3E0F9E849600FEE241DF582EF34006D
:10863000F583E4F0A38053EE2469F582EF3400F56E
:1086400083E07047EE2473F582EF3400F583E07029
:108650003AEE247FF582EF3400F583E0702DEE24AE
:108660001CF582EF3400F583E06401701EEE2420D7
:10867000F582EF3400F583E0F8A3E0F9EE241DF570
:1086800082EF3400F583E8F0A3E9F08E828F83A3B4
:10869000A3A3A3A3E0F8A3E0F9EE241DF582EF3431
:1086A00000F583E028F8A3E039F9E8240108E9346B
:1086B00000F9EE2407F50AEF3400F50B850A82F580
:1086C00083E8F0A3E9F0EE240BF582EF3400F583A4
:1086D000C3E098A3E09950358E828F83A3A3A3A310
:1086E000A3A3A3C082C083EE240BF582EF3400F570
:1086F00083E0F8A3E0F9D083D082E0C398F8A3E048
:1087000099F9C3E894AAE994105035803BEE240B04
:10871000F582EF3400F583C082C0838E828F83A3FD
:10872000A3A3A3A3A3A3E0F8A3E0F9D083D082E09E
:10873000C398F8A3E099F9C3E894ABE99410500802
:108740009006EEE064017030EE241DF582EF3400F7
:10875000F583E4F0A3F08E828F83A3A3A3A3A3E009
:108760002401F8A3E03400F98E828F83A3A3A3A38E
:10877000A3A3A3E8F0A3E9F0EE2473F582EF34009D
:10878000F583E0640160030289EFEE2474F582EF63
:108790003400F5831219498E828F83A3A3A3A3A368
:1087A000A3A3E0FCA3E0FD8E828F83A3A3A3A3A3D6
:1087B000E0FAA3E0FB121D0E74021216DEE970034C
:1087C0000289EFEE2474F8EF3400F98808890988EB
:1087D00082F583E0F8A3E0F9850A82850B83E8F04F
:1087E000A3E9F0EE2476FCEF3400FDEEFAEFFB1285
:1087F0000F92EE247BF582EF3400F583E0F8A3E0DE
:10880000F9EE2420F582EF3400F583E8F0A3E9F0D7
:10881000EE241CF582EF3400F583E4F0EE241DF520
:1088200082EF3400F583E4F0A3F0EE240FF582EF3D
:108830003400F5837401F0850A82850B83E0F8A388
:10884000E0F9EE240DF582EF3400F583E028F8A37B
:10885000E039F9EE240BF582EF3400F583E8F0A35C
:10886000E9F08E828F83A3A3A3A3A3E0FCA3E0FD82
:10887000850882850983E0FAA3E0FB121D4D8A0872
:108880008B09EE242EF582EF3400F583E0FAA3E0A5
:10889000FBE4F50AF50B8A0C8B0DF50EF50F780845
:1088A000790C1213D6EE2477F582EF3400F583E0CD
:1088B000F50CA3E0F50D7808790C1214FEEE24797E
:1088C000F582EF3400F583E06A7003A3E06B704437
:1088D000EE247DF582EF3400F583E0F8A3E0F9EEB5
:1088E0002432F582EF3400F583E0687003A3E06979
:1088F0007022EE247BF582EF3400F583E0F8A3E0EC
:10890000F9EE2430F582EF3400F583E0687003A3BC
:10891000E0696052EE247DF582EF3400F583E0F5E6
:108920000CA3E0F50D7404780C1216A6780C12193D
:1089300032EE247BF582EF3400F583121949EE24E0
:1089400079F582EF3400F583E0FCA3E0C313FDEC7E
:1089500013FC8E828F83A3A3A3A3E0FA7B00120DE6
:108960000A74041216DEEE2476F582EF3400F583E5
:10897000E0C0E0EE242BF582EF3400F583D0E0F088
:10898000EE2479F582EF3400F583E0F8A3E0F9EE08
:10899000242EF582EF3400F583E8F0A3E9F0EE240D
:1089A0007BF582EF3400F583E0F8A3E0F9EE2430A4
:1089B000F582EF3400F583E8F0A3E9F0EE247DF5CD
:1089C00082EF3400F583E0F8A3E0F9EE2432F5827B
:1089D000EF3400F583E8F0A3E9F0EEFAEFFB120FB5
:1089E00098EE2473F582EF3400F583E4F08016EE00
:1089F000242EF582EF3400F583E0F508A3E0F509B5
:108A0000E4F50AF50BEE2418F582EF3400F58378CF
:108A100008121382701EEE241FF582EF3400F583D6
:108A2000E0F8EE241DF582EF3400F583E068700273
:108A3000A3E06039EE2412F50CEF3400F50D780C4C
:108A4000121932EE2410F582EF3400F58312194921
:108A5000EE241DF582EF3400F583121949AA08AB04
:108A600009AC0AAD0B12284C74061216DEEE24185F
:108A7000F582EF3400F58378081215A7EE241DF572
:108A800082EF3400F583E0C0E0EE241FF582EF347E
:108A900000F583D0E0F0EE2412FCEF3400FD8E826E
:108AA0008F83E02402FAA3E03400FB122787906052
:108AB00062E060147C247D818E828F83E02402FA40
:108AC000A3E03400FB1227878E828F83E0F8A3E0B7
:108AD000F988828983A3A3E82408FCE93400FD74A3
:108AE000061215DB8E828F83E02402F8A3E03400A7
:108AF000F9E8FAE9FBEE241DF582EF3400F583E096
:108B0000F510A3E0F511E4F512F513750C01F50D60
:108B1000F50EF50F7810790C1214FE781079081202
:108B200013D68A828B8378101215248A828B8375E0
:108B30000CFF750DFF750EFF780C1215859006E879
:108B4000E064016003028C7C79011211008E828F37
:108B500083E0FAA3E0FB7508FF7509FF750AFF754E
:108B60000BFFEA240EF582EB3400F583780812152A
:108B7000A7EA2412F8EB3400F9E8FAE9FBEE241234
:108B8000F582EF3400F5837808121598E50875F042
:108B9000E2A4C508A8F075F004A428F875F0E2E591
:108BA00009A428F5098A828B83E02508F0A3E03523
:108BB00009F0EE2416F582EF3400F583E0F508A302
:108BC000E0F509740478081216A6E5082401F8E512
:108BD000093400F98A828B83E028F0A3E039F09011
:108BE0006062E08E828F837003028CF0E0F8A3E075
:108BF000C82412F582E83400F583E02410F0A3E0E5
:108C00003401F0EE240FF582EF3400F583E060329A
:108C1000EE242BF582EF3400F583E0F875F071A4B3
:108C2000C8AAF075F002A42AF98E828F83E0FAA315
:108C3000E0CA2412F582EA3400F583E028F0A3E0CC
:108C400039F08E828F83E0F8A3E0C82414F582E81F
:108C50003400F5837410F08E828F83E0F8A3E0C8AF
:108C60002416F582E83400F583741AF0A3740FF02B
:108C7000EEFAEFFB121B8E7900029243750C5075D1
:108C80000D00750E00780C79081213974003028BC3
:108C90004DEE241DF582EF3400F583E0F8A3E0F9F2
:108CA000E8496003028B4D780812192EEEFAEFFBAB
:108CB000120F9E74041216DEE964016003028B4DEC
:108CC000EE240FF582EF3400F583E060128E828F80
:108CD00083A3A3A3A3A3E064057002A3E0600479C7
:108CE000088002793EEEFAEFFB120F867901808947
:108CF000E0F8A3E0C82412F582E83400F583E0240C
:108D000010F8A3E034FFF97A717B0212163D88084F
:108D10008909EE242EF582EF3400F583E0F8A3E014
:108D2000F9C3E50898E509995003028C0380B074F3
:108D3000EC12171FEAFEEBFF8C828D83E0F8A3850F
:108D40008208858309603B147003028F1714700337
:108D500002920C147003028F9324FD70030290ACF6
:108D600014700302924314700302910324FE7003F3
:108D70000290B11470030290F314700302918F02F9
:108D80009232EE2476F510EF3400F511E085108272
:108D9000851183F0850882850983A38582088583F0
:108DA00009EE2477F50EEF3400F50F7902AC08AD2B
:108DB00009AA0EFB120FB08A088B09EE2479F50C74
:108DC000EF3400F50D7902AC08AD09AA0CFB120FC7
:108DD000B08A088B097902AC08AD09EE247BFAEF62
:108DE0003400FB120FB08A088B09EE247DF50AEFE0
:108DF0003400F50B7902AC08AD09AA0AFB120FB0DA
:108E00008A088B09851082851183E0C333F0850EB3
:108E100082850F83E0F8A3E0F9E8C333F8E933F97A
:108E2000850E82850F83E8F0A3E9F0850C82850D1D
:108E300083E0F8A3E0F9E8C333F8E933F9850C825D
:108E4000850D83E8F0A3E9F0850A82850B83E0F5C0
:108E50000CA3E0F50D7404780C1216B5850A828512
:108E60000B83E50CF0A3E50DF0EE2474F50AEF3466
:108E700000F50B7902AC08AD09AA0AFB120FB08508
:108E80000A82850B83C082C0838E828F83A3A3A3B3
:108E9000A3A3E0F8A3E0F9D083D082E0C398F8A3BD
:108EA000E099F9C3E894FFE9947F4003028F6DEEE7
:108EB000247DF582EF3400F583E0F508A3E0F509A1
:108EC000E4F50AF50BEE247BF582EF3400F583E040
:108ED0002401F50CA3E03400F50DE4F50EF50FEEDA
:108EE0002479F582EF3400F583E0F8A3E0F9E8C3D4
:108EF00033F8E933F988108911E4F512F513780C89
:108F000079101213D67808790C1213974004793B24
:108F1000805DEE24738062EE2480F50AEF3400F564
:108F20000B7402C0E07905AC08AD097AE37B061248
:108F30000FB0EAFCEBFDD0E0F9AA0AAB0B120FB0C0
:108F4000850A82850B83C082C0838E828F83A3A310
:108F5000A3A3A3E0F8A3E0F9D083D082E0C398F8FC
:108F6000A3E099F9C3E894FFE9947F40097928EEDA
:108F7000FAEFFB02922DEE247FF582EF3400F583A9
:108F80007401F0EE241DF582EF3400F583E4F0A3C4
:108F90000290FFEE24E1F582EF3400F583E07039B2
:108FA000EEF8EFF97ABC7B058A828B83A3E0C0E000
:108FB000E824E2F582E93400F583D0E0F08A828B80
:108FC00083A3AA82AB8388828983A3A882A983EA28
:108FD00064C47003EB640570CFEE24E2F582EF34D5
:108FE00000F583E0A2E0EE401124DDF582EF3400CD
:108FF000F583741AF0790D0292062462F582EF343B
:1090000000F583E4F0EE2467F582EF3400F583E4A5
:10901000F0EE24E0F582EF3400F5837401F0790876
:10902000AC08AD09EE249BFAEF3400FB120FB08AB6
:10903000088B097902AC08AD09EE24A3FAEF3400DD
:10904000FB120FB08A088B09EE2493F50AEF340067
:10905000F50B7908AC08AD09AA0AFB120FB08A0813
:109060008B097908AA0AAB0B120FB6EE2487F50A12
:10907000EF3400F50B7904AC08AD09AA0AFB120F16
:10908000B07904AA0AAB0B120FB6EE248BFAEF34B8
:1090900000FB120FC8EE2483FAEF3400FB120FCE50
:1090A0009005ABE04480F07904029206EE24DE8065
:1090B00045EE2462F582EF3400F583E4F0EE246798
:1090C000F582EF3400F583E4F0EE24D2F582EF343C
:1090D00000F583E4F0EE24DCF582EF3400F58374D0
:1090E00001F0EE24D3F582EF3400F583E4F0790B40
:1090F000029240EE24DFF582EF3400F5837401F034
:10910000029243EEF8EFF97ABC7B058A828B83A347
:10911000E0C0E0E824E2F582E93400F583D0E0F035
:109120008A828B83A3AA82AB8388828983A3A88245
:10913000A983EA64C47003EB640570CFEEF8EFF91D
:109140007ABC7B058A828B83A3E0FC850882850933
:1091500083E05CC0E0E824E2F582E93400F583D0E6
:10916000E0F0850882850983A38582088583098AC2
:10917000828B83A3AA82AB8388828983A3A882A9D6
:1091800083EA64C47003EB640570B979098077EEF3
:1091900024EAF582EF3400F583E064017003029263
:1091A00032850882850983E0C0E0EE24EDF582EF88
:1091B0003400F583D0E0F0850882850983A3858299
:1091C000088583097402C0E0F9AC08AD09EE24EE0D
:1091D000FAEF3400FB120FB0EAFCEBFDD0E0F9EE41
:1091E00024F0FAEF3400FB120FB0EE24EAF582EF20
:1091F0003400F5837401F0EE24ECF582EF3400F5D1
:1092000083E0703F790CEEFAEFFB8034EE24F4F843
:10921000EF3400F9E088828983F0EE24F3F582EFE1
:109220003400F5837401F088828983E0F9120F8697
:109230008011EE24F5F582EF3400F583E8F079072C
:10924000120F567F0C0217F174F612171FEAFEEB8D
:10925000FF02948EEEFAEFFB120F4A0296DAEE242A
:1092600069F582EF3400F583E06401703E9005B348
:10927000E0700302956AEEFAEFFB120F5CEE24A396
:10928000F508EF3400F5097808121932EE249BFC3A
:10929000EF3400FD8E828F83A3A3A3A3E0FA7B00AB
:1092A000120D1674021216DE02948EEEFAEFFB1205
:1092B0000F200296DAEE2469F582EF3400F583E0A0
:1092C000640170559005B3E06031EE2482F582EFC1
:1092D0003400F5837401F0EE24D4F582EF3400F508
:1092E00083E4F0A3F0A3F0A3F0EE24D8F582EF34EA
:1092F00000F583E4F0A3F0A3F0A3F0EE24DEF58202
:10930000EF3400F583E06401600302956A7906EEAC
:10931000FAEFFB120F6202948EEE24D2F582EF3444
:1093200000F583E06401702AEEFAEFFB120F26E9E4
:10933000640160030296F7EE24DEF582EF3400F557
:1093400083E4F0EE2469F582EF3400F583740102C2
:1093500096E5EE24D3F582EF3400F583E070030246
:1093600096F7EE24B2F508EF3400F50978081219E3
:1093700032EE248BFCEF3400FDEE24C2FAEF340011
:10938000FB120FD474021216DEEE24D2F582EF34F3
:1093900000F5837401029456EE2469F582EF3400DF
:1093A000F583E0640160030294599005B3E0700313
:1093B00002956AEE2420F582EF3400F583E0F8A3ED
:1093C000E0F9EE241DF582EF3400F583E8F0A3E91F
:1093D000F0EEFAEFFB120F5CEE2462F582EF340040
:1093E000F5837401F0EE2467F582EF3400F58374A1
:1093F00001F0EE24DCF582EF3400F583E0640170C7
:109400001379008E828F83A3A3A3A3E0FA7B0012BB
:109410000D2280137C0179008E828F83A3A3A3A3E6
:10942000E0FA7B00120D1CEE24DCF582EF3400F52F
:1094300083E4F0EE24E0F582EF3400F583E4F0EE0F
:1094400024DFF582EF3400F583E4F0EE24DEF582CC
:10945000EF3400F583E4F08035EEFAEFFB120F2CC9
:109460000296DAEE2469F582EF3400F583E06401B8
:1094700060030294F9EE24DFF582EF3400F583E017
:109480006401600302956AEEFAEFFB120F5CEE24B2
:109490006EF582EF3400F583E070030296F7EE2458
:1094A0006AF582EF3400F583E024FE602F24FE701D
:1094B0000302925E1470030292B514700302939833
:1094C0001470030296E824FE700302959C24FE604B
:1094D000921470030295E914604C80B2EE2469F591
:1094E00082EF3400F583E06401600302925490053A
:1094F000B2E0607679160296BBEEFAEFFB120F32FD
:10950000E9640160030296F7EE24DFF582EF340090
:10951000F583E4F0EE2482F582EF3400F583E4F085
:10952000EE246902938CEE2469F582EF3400F58312
:10953000E06401705D9005B3E06026EE2482F58260
:10954000EF3400F583E4F0EE2462F582EF3400F5A9
:10955000837401F0EE2467F582EF3400F583740123
:10956000F09005B2E06003029487EE2471F8EF34C6
:1095700000F988828983E024FFF0A3E034FFF088BB
:10958000828983E0F8A3E0F9E84960030296F702D4
:1095900096B9EEFAEFFB120F380296DAEE2469F56F
:1095A00082EF3400F583E0640170349005B3E0602D
:1095B000B9EE24E1F582EF3400F5837401F0EE2476
:1095C00020F582EF3400F583E0F8A3E0F9EE241DE6
:1095D000F582EF3400F583E8F0A3E9F0029487EE1A
:1095E000FAEFFB120F3E0296DAEE2469F582EF34B1
:1095F00000F583E0640160030296C6EE24EAF5827A
:10960000EF3400F583E064017051EE24EBF582EF56
:109610003400F583E064016003029487EE24F0F5E2
:1096200082EF3400F583121949EE24EEF582EF340F
:1096300000F583121949EE24EDF582EF3400F5832D
:10964000E0FC8E828F83A3A3A3A3E0FA7B007900C2
:10965000120D1074041216DE029487EE2471F8EFD6
:109660003400F988828983E024FFF0A3E034FFF01E
:1096700088828983E0F8A3E0F9E849707AEE24F063
:10968000F582EF3400F583121949EE24EEF582EFEE
:109690003400F583121949EE24EDF582EF3400F51C
:1096A00083E0FC8E828F83A3A3A3A3E0FA7B0079DF
:1096B00022120D1074041216DE7922EEFAEFFB125C
:1096C0000F8679018033EE24ECF582EF3400F583C8
:1096D0007401F0EEFAEFFB120F44EE2469F582EF0D
:1096E0003400F583E9F0800FEEFAEFFB120F50E93A
:1096F0006401700302948779007F020217F1C0822F
:10970000C08390077EE4F090077D74FFF090079689
:10971000E4F090079574FFF090077AF0900779E4F1
:10972000F0900778F090077BF0A3F002A6CA74E8E7
:1097300012171F74FE1216C890077BE0F514A3E001
:10974000F515E51445157006120EDE029DFD851413
:1097500082851583E014601814601524FE601124BE
:10976000C470030299D524C070030299D5029DFDEF
:10977000E0F91210228A088B09AE08AF099005D6CD
:10978000E07003029908120F7AE9F875F003A4C893
:10979000AAF02AF974D928F8740539F98518828550
:1097A0001983E8F0A3E9F0851882851983E0F8A30E
:1097B000E0F5838882E0F516A3E0F517EE4F70031D
:1097C0000298E21210BE8A088B098C0A8D0B750C68
:1097D00001750D00750E00750F007808790C1214D4
:1097E000FE750CFF750DFF750EFF7808790C1215CC
:1097F0005F75101A75110075120075130078081244
:10980000192E851682851783A3A31215B612271861
:1098100074041216DE8A0C8B0D8C0E8D0F78107965
:109820000C12139750030298E2851682851783A3C2
:10983000A3750CE7750DFF750EFF750FFF780C1201
:109840001511780C12192E8E828F83A3A31215B6D0
:109850001226BF74041216DEE960030298E2750C4A
:1098600007750D00750E00750F007808790C12143D
:10987000FE780812192E8E828F83A3A31215B612BA
:1098800026BF74041216DEE970537508008E828FAD
:1098900083E064016003029DFDEE65147003EF65D3
:1098A000156003120EF6E50870301210BE8A088BA0
:1098B000098C0A8D0B750C037808790C1214FE754F
:1098C0000CFF750DFF750EFF7808790C12155F8E71
:1098D000828F83A3A378081215A7029BF575080150
:1098E00080AB851882851983E02404FEA3E0340050
:1098F000FF8E828F83E0F91210588E828F83E09062
:1099000005D7F07902029CFEEE65147003EF651531
:109910007003029DFA8E828F83E064016003029DD2
:10992000FD120EF61210BE8A088B098C0A8D0B757B
:109930000C0A750D00750E00750F007808790C1271
:1099400014FE780812192E8E828F83A3A31215B6E7
:109950001226BF74041216DEE970771210BE8A0850
:109960008B098C0A8D0B750C037808790C1214FE88
:10997000750CFF750DFF750EFF7808790C12155FD9
:109980008E828F83A3A378081215A79005A9E0649F
:1099900002702C8E828F83A3A37508007509087549
:1099A0000A0078081215117808790C12155FEE2458
:1099B0000EF582EF3400F58378081215A78013EEB8
:1099C000240EF582EF3400F58374FFF0A3F0A3F0CA
:1099D000A3F0029DF09005D6E07003029D1A120FCD
:1099E0007AE9F875F003A4C8AAF02AF974D928F81E
:1099F000740539F9851882851983E8F0A3E9F085A3
:109A00001882851983E0F8A3E0F5838882E0F516D3
:109A1000A3E0F5179005D7E0F875F003A4C8AAF005
:109A20002AF974D928F514740539F515900779E0E9
:109A300054077003029C1AA3E0F91210228A088BC3
:109A400009AE08AF09EE4F7003029C1A1210BE8ACD
:109A5000088B098C0A8D0B750C01750D00750E00B5
:109A6000750F007808790C1214FE750CFF750DFF48
:109A7000750EFF7808790C12155F75101A751100B4
:109A8000751200751300780812192E851682851735
:109A900083A3A31215B612271874041216DE8A0CBB
:109AA0008B0D8C0E8D0F7810790C121397500302CA
:109AB0009C1A851682851783A3A3750CE7750DFF85
:109AC000750EFF750FFF780C121511780C12192EF8
:109AD0008E828F83A3A31215B61226BF74041216AA
:109AE000DEE96003029C1A750C07750D00750E0007
:109AF000750F007808790C1214FE780812192E8E52
:109B0000828F83A3A31215B61226BF74041216DE29
:109B1000E97005750A008003750A018514828515B0
:109B200083A3A3A3A3E0F875F08AA4C8AAF02AF936
:109B300074AD28F508740739F509AA08FB1210520C
:109B4000AA08AB0912104C750C80780C1219327CE3
:109B5000007D60E5082406FAE5093401FB120FE0F8
:109B600074021216DEA808A909906195E0C0E0E829
:109B70002486F582E93401F583D0E0F0906196E027
:109B8000C0E0E82487F582E93401F583D0E0F09065
:109B90006197E0C0E0E82488F582E93401F583D0DC
:109BA000E0F0906198E0C0E0E82489F582E93401B2
:109BB000F583D0E0F08E828F83E06401705C120E3A
:109BC000F6E50A70301210BE8A088B098C0A8D0BDC
:109BD000750C037808790C1214FE750CFF750DFFD7
:109BE000750EFF7808790C12155F8E828F83A3A300
:109BF00078081215A7851682851783A3A37508F127
:109C00007509FF750AFF750BFF7808121511750CA1
:109C1000FF750DFF750EFF029DC58518828519839E
:109C2000E0F8A3E0F9E514687003E5156970030234
:109C30009CF8851482851583A3A3A3E07003029C7E
:109C4000D7851482851583A3A3A3A3E0F875F08AB2
:109C5000A4C8AAF02AF974AD28FE740739FFEEFAF9
:109C6000EFFB121052EEFAEFFB12104C75088075E4
:109C7000090078081219327C007D60EE2406FAEFA4
:109C80003401FB120FE074021216DE906195E0C001
:109C9000E0EE2486F582EF3401F583D0E0F09061A8
:109CA00096E0C0E0EE2487F582EF3401F583D0E042
:109CB000F0906197E0C0E0EE2488F582EF3401F582
:109CC00083D0E0F0906198E0C0E0EE2489F582EF67
:109CD0003401F583D0E0F0851882851983E02404EF
:109CE000FEA3E03400FF8E828F83E0F91210588EBD
:109CF000828F83E09005D7F079029005D7E0FA755E
:109D0000F003A4CAA8F028FB74D92AFA74053BFB17
:109D1000121F02AA16AB17029DFA900779E05407AA
:109D20007003029DFDA3E0F91210228A088B09AE90
:109D300008AF098E828F83E064016003029DFD12EB
:109D40000EF61210BE8A088B098C0A8D0B750C0A50
:109D5000750D00750E00750F007808790C1214FE51
:109D6000780812192E8E828F83A3A31215B612269D
:109D7000BF74041216DEE970771210BE8A088B09D0
:109D80008C0A8D0B750C037808790C1214FE750C77
:109D9000FF750DFF750EFF7808790C12155F8E8226
:109DA0008F83A3A378081215A79005A9E064027019
:109DB0002C8E828F83A3A3750800750908750A008D
:109DC00078081215117808790C12155FEE240EF53B
:109DD00082EF3400F58378081215A78013EE240E65
:109DE000F582EF3400F58374FFF0A3F0A3F0A3F045
:109DF00090077A7401F0EEFAEFFB12101C74021255
:109E000016DE7F100217F174F012171FEAFEEBFF47
:109E1000EE2402F8EF3400F988088909EE2406F8E8
:109E2000EF3400F9880A890B8882F5831219498575
:109E300008828509831215B612109A74021216DE72
:109E4000850A82850B831219498508828509831248
:109E500015B612108E74021216DEEE240EF582EF85
:109E60003400F5831215B61210A08E828F83E06441
:109E700040701CEE2412F8EF3400F988828983E0E8
:109E8000906064F088828983A3E09060658006908A
:109E90006064E4F0A3F090077BEEF0A3EFF0EE2413
:109EA00016F582EF3400F583E0F8A3E0F5838882AD
:109EB00012171D906054E4F0A3F0A3F0A3F0A3F0F8
:109EC000A3F0A3F0A3F0A3F0A3F0A3F0A3F090619C
:109ED00082E0C2E6F07591BFEE2415F582EF340002
:109EE000F583E0640170031210D6E5E170FCEE2406
:109EF00014F582EF3400F583E0F46003E0F5E1EE61
:109F00002415F582EF3400F5837401F09005AFE07D
:109F1000640170731210BE8A088B098C0A8D0B784D
:109F20000812192E8E828F83A3A31215B61227183A
:109F300074041216DE8A088B098C0A8D0B750C05C9
:109F4000750D00750E00750F007808790C1213D688
:109F5000740378081214C6E50824F4F508E50934FA
:109F600001F509900748E0600312050CE4F50AF5D5
:109F70000B780812192E7A207B009005A8E0F912C0
:109F8000056074041216DE7F080217F174F01217D0
:109F90001F890874FF6508600302A0E4900779E058
:109FA0005407700302A582780090077DE064047076
:109FB0003CE875F018A4F8A9F0747E28F5827407BF
:109FC00039F583E06401702E7A0078787907888209
:109FD0008983A3A3A3A3A3E0640470768882898302
:109FE000A3A3A3A3A3A3E064017067805308900711
:109FF00095E0640460BB780090077DE064017067C1
:10A00000E875F018A4F8A9F0747E28F58274073971
:10A01000F583E0640170597A00787879078882893D
:10A0200083A3A3A3A3A3E06401600302A0C6888264
:10A030008983A3A3A3A3A3A3E06401600302A0C632
:10A04000EA75F018A4F8A9F0747D28FA74073902AB
:10A05000A57F0AE82418F8E93400F9EAC39402500D
:10A0600003029FCE02A58208900795E064016090EC
:10A07000780090077DE064027061E875F018A4F83C
:10A08000A9F0747E28F582740739F583E0640170C5
:10A09000537A007878790788828983A3A3A3A3A33E
:10A0A000E06402707488828983A3A3A3A3A3A3E0BE
:10A0B00064017065EA75F018A4F8A9F0747D28FAB7
:10A0C000740739FB80690AE82418F8E93400F9EAD2
:10A0D000C39402500302A01D02A58208900795E0D8
:10A0E000640260967A007878790788828983A3A3CE
:10A0F000A3A3A3E06508703A88828983A3A3A3A3DE
:10A10000A3A3E06401702BEA75F018A4F8A9F07419
:10A110007D28FE740739FF802C0AE82418F8E934FA
:10A1200000F9EAC39402500302A0977A007B000270
:10A13000A5860AE82418F8E93400F9EAC394024035
:10A14000A97E007F00780090077DE06508701BE81D
:10A1500075F018A4F8A9F0747E28F582740739F513
:10A1600083E06401700D7A01800B08900795E0652B
:10A170000860DC7A00E50814601014700302A2E99C
:10A1800024FE700302A3F302A582780090077DE00D
:10A1900064027055E875F018A4F8A9F0747E28F5EB
:10A1A00082740739F583E0640170477B0078787921
:10A1B0000788828983A3A3A3A3A3E06402600302A8
:10A1C000A25788828983A3A3A3A3A3A3E064016009
:10A1D0000302A257EB75F018A4F8A9F0747D28F5D6
:10A1E0000A740739F50B02A26F08900795E0640224
:10A1F00060A2780090077DE06404600302A2B0E8EA
:10A2000075F018A4F8A9F0747E28F582740739F562
:10A2100083E06401600302A2BC7B00787879078840
:10A22000828983A3A3A3A3A3E06404600302A2C75B
:10A2300088828983A3A3A3A3A3A3E064016003028C
:10A24000A2C7EB75F018A4F8A9F0747D28F50A747C
:10A250000739F50B02A2DF0BE82418F8E93400F9FE
:10A26000EBC39402500302A1B1750A00750B00EA1A
:10A27000A2E05035850A82850B83A3A3750CF67581
:10A280000DFF750EFF750FFF780C121511780C126B
:10A29000192E8E828F83A3A31215B61226BF7404C3
:10A2A0001216DEE9700302A57CAA0AAB0B02A58692
:10A2B00008900795E06404700302A1FFEAA2E05051
:10A2C00021EEFAEFFB801F0BE82418F8E93400F9BF
:10A2D000EBC39402500302A21F750A00750B000223
:10A2E000A4D57A007B0002A586780090077DE06403
:10A2F000047051E875F018A4F8A9F0747E28F5826E
:10A30000740739F583E0640170437B00787879073E
:10A3100088828983A3A3A3A3A3E06404600302A3A8
:10A32000A588828983A3A3A3A3A3A3E06401707576
:10A33000EB75F018A4F8A9F0747D28F50A740739B4
:10A34000F50B807908900795E0640460A67800908A
:10A35000077DE064017069E875F018A4F8A9F0744D
:10A360007E28F582740739F583E06401705B7B0019
:10A370007878790788828983A3A3A3A3A3E06401E3
:10A38000705288828983A3A3A3A3A3A3E06401706E
:10A3900043EB75F018A4F8A9F0747D28F50A74074A
:10A3A00039F50B80440BE82418F8E93400F9EBC3C5
:10A3B0009402500302A310750A00750B0002A4D585
:10A3C00008900795E06401608EEAA2E0501EEEFA64
:10A3D000EFFB801C0BE82418F8E93400F9EBC39478
:10A3E000024091750A00750B0002A4D57A007B002B
:10A3F00002A586780090077DE064017055E875F04D
:10A4000018A4F8A9F0747E28F582740739F583E062
:10A41000640170477B007878790788828983A3A3D9
:10A42000A3A3A3E06401600302A4BD88828983A37F
:10A43000A3A3A3A3A3E06401600302A4BDEB75F092
:10A4400018A4F8A9F0747D28F50A740739F50B02F1
:10A45000A4D508900795E0640160A2780090077D7C
:10A46000E06402600302A514E875F018A4F8A9F0EE
:10A47000747E28F582740739F583E0640160030275
:10A48000A5207B007878790788828983A3A3A3A37A
:10A49000A3E06402600302A52788828983A3A3A3A3
:10A4A000A3A3A3E06401707FEB75F018A4F8A9F0F2
:10A4B000747D28F50A740739F50B02A53F0BE824D3
:10A4C00018F8E93400F9EBC39402500302A41A759A
:10A4D0000A00750B00EAA2E0400302A2A9850A82E5
:10A4E000850B83A3A3750CF6750DFF750EFF750F15
:10A4F000FF780C121511780C12192E8E828F83A3FF
:10A50000A31215B61226BF74041216DEE960030208
:10A51000A2A9806808900795E06402700302A4680D
:10A52000EAA2E0505D80550BE82418F8E93400F900
:10A53000EBC39402500302A488750A00750B00EA6D
:10A54000A2E0400302A2A9850A82850B83A3A3751A
:10A550000CF6750DFF750EFF750FFF780C121511B7
:10A56000780C12192E8E828F83A3A31215B6122691
:10A57000BF74041216DEE9600302A2A9EEFAEFFB33
:10A5800080047A007B00029F8774F612171F8909E6
:10A5900075080090077EE0600302A65AE50875F092
:10A5A00018A4F8A9F0747D28FE740739FF8E828FF5
:10A5B00083A37401F08E828F83E509F01210BE8EA2
:10A5C000828F83A3A31215C28E828F83A3A3A3A31A
:10A5D000A3A3E4F0A3F0EE240EF582EF3400F5839C
:10A5E00074FFF0A3F0A3F0A3F0EE2414F582EF348F
:10A5F00000F5837401F0EE2415F582EF3400F58345
:10A600007401F0EE2416F582EF3400F583E4F0A334
:10A61000F0900779E04509F0900778E004F06401D4
:10A62000600C748065096006744065097019E5085E
:10A6300075F018A4F8A9F0747D28F8740739F9901A
:10A64000077BE8F0A3E9F0E50875F018A4F8A9F095
:10A65000747D28FA740739FB8010750801900796FD
:10A66000E0700302A59C7A007B0080007F02021745
:10A67000F1C082C0838A828B83E0F8A3E0F98A82EA
:10A680008B83E4F0A3F088828983A3F08882898396
:10A69000E0F4F8900779E058F0900778E014F07053
:10A6A0000B90077BE4F0A3F09005A9F0801CC0821A
:10A6B000C083900778E0600A90077BE0FAA3E0FB94
:10A6C00080047A007B008002E0F9D083D08202010E
:10A6D00035C082C083E9FB780090077DE06B70167F
:10A6E000E875F018A4F8A9F0747E28F5827407398B
:10A6F000F583E0F9800A08900795E06B60E2790045
:10A7000080C8C082C08390077980BDC082C083901A
:10A71000077802A6C874F612171FEAFEEBFF9061D5
:10A72000D0E0C0E0EE2400F582EF3401F583D0E004
:10A73000F09061D7E0F89061D5E0C398547FC0E015
:10A74000EE2401F582EF3401F583D0E0F09061D67C
:10A75000E0C398547FC0E0EE2402F582EF3401F5A7
:10A7600083D0E0F0701A9061C5E0A2E45012E0A23C
:10A77000E7500DEE2402F582EF3401F5837480F08A
:10A78000121166EE2401F582EF3401F583E0703496
:10A79000EE2402F582EF3401F583E070279061C565
:10A7A000E0A2E4501FE0A2E7501AEE2402F582EF87
:10A7B0003401F5837480F0EE2401F582EF3401F565
:10A7C000837480F075E1957800EE2400F582EF3413
:10A7D00001F583E060279061D3E0C0E08808EE25B2
:10A7E00008F582EF3400F583D0E0F008EE2400F5A0
:10A7F00082EF3401F583E0F9E8C39940D975E1911E
:10A8000002A66C74F612171FEAFEEBFF9061C8E017
:10A81000C0E0EE2403F582EF3401F583D0E0F09040
:10A8200061CFE0F89061CDE0C398547FC0E0EE24A2
:10A8300004F582EF3401F583D0E0F09061CEE0C3FF
:10A8400098547FC0E0EE2405F582EF3401F583D003
:10A85000E0F0701A9061C5E0A2E05012E0A2E3506F
:10A860000DEE2405F582EF3401F5837480F01211AA
:10A870006CEE2404F582EF3401F583E07034EE24AD
:10A8800005F582EF3401F583E070279061C5E0A201
:10A89000E0501FE0A2E3501AEE2405F582EF3401E8
:10A8A000F5837480F0EE2404F582EF3401F58374AF
:10A8B00080F01211727A00EE2403F582EF3401F574
:10A8C00083E0602F9061CBE0C0E08A08EE2508F8B5
:10A8D000EF3400F9E82480F582E93400F583D0E014
:10A8E000F00AEE2403F582EF3401F583E0F8EAC3C1
:10A8F0009840D175E18102A66C74F212171F890885
:10A90000A808E875F08AA4C8AAF02AF974AD28F856
:10A91000740739F99061C6E0FDE054F0F075E1810B
:10A920007C00E82403F582E93401F583E0602B8C98
:10A930000AE8250AFAE93400FBEA2480F582EB34C0
:10A9400000F583E09061CAF00CE82403F582E93455
:10A9500001F583E0FAECC39A40D5E82405F582E9D5
:10A960003401F583E060049061CEF0E82404F582C0
:10A97000E93401F583E060049061CDF0ED9061C6AB
:10A98000F0A808E875F08AA4C8AAF02AF974AD28DE
:10A99000F8740739F9E0FCE0540FF075E1917A00A2
:10A9A000E82400F582E93401F583E060238A0AE8AF
:10A9B000250AF582E93400F583E09061D2F00AE8D7
:10A9C0002400F582E93401F583E0FBEAC39B40DD16
:10A9D000E82402F582E93401F583E060049061D651
:10A9E000F0E82401F582E93401F583E06004906128
:10A9F000D5F0EC9061C6F0850882AE82EEF875F075
:10AA00008AA4C8AAF02AF974AD28F50A740739F5A2
:10AA10000B750C80750D00780C121932E50A2406AE
:10AA2000FCE50B3401FD7A007B60120FE07402122A
:10AA300016DEA80AA90BE82486F582E93401F5831D
:10AA4000E0906195F0E82487F582E93401F583E030
:10AA5000906196F0E82488F582E93401F583E0906E
:10AA60006197F0E82489F582E93401F583E090618B
:10AA700098F0EE75F003A4CEA8F028FF74D92EF557
:10AA80008274053FF583E0F8A3E0F5838882E064F3
:10AA90008070079005A97408803F900C61745EF087
:10AAA000A37410F0A3745EF0A37410F0A3745EF0AE
:10AAB000A37410F0A3745EF0A37410F0A3740AF0F2
:10AAC000A37410F0A3745EF0A37410F0A37464F088
:10AAD000A37410F09005A97407F0900C6F740AF03D
:10AAE000A37410F0A3740AF0A37410F0A3740AF016
:10AAF000A37410F0A3740AF0A37410F0A3740AF006
:10AB0000A37410F0A3740AF0A37410F07F06021768
:10AB1000F174F612171F9004D974FEF0A304F0909C
:10AB200004DCF09004DBF07A018A087509007402F5
:10AB300078081216B574D92508F874043509F9EAAD
:10AB400088828983700774FEF0A304800474FFF088
:10AB5000A3F088828983A3A3A3F088828983A3A317
:10AB6000F00AEAC3940240C17A067B0B120B5A7AB0
:10AB7000547B0B120DE2790002B75374F212171FC7
:10AB8000EAFEEBFF8E828F8312B183605212ACB06B
:10AB900012ACCF750B00780A1219328A828B83A30C
:10ABA0001219497C027D007AD07B81120914740449
:10ABB0001216DEE9702E85088285098312ACCF78E3
:10ABC0000A1219328A828B83A31219497C027D00F2
:10ABD0007AC87B8112091474041216DEE9700579B3
:10ABE0000202ACAB900C3D12B183600CC3E498FA46
:10ABF000E499FB12ACC05005790102ACAB7A067B3C
:10AC00000012051E8A0A8B0BEA450B7005791302A8
:10AC1000ACAB7A007B008040900C3D12B6948A0C5D
:10AC20008B0D7403780C1216B5850882850983E0B4
:10AC3000250CF8A3E0350D8882F583A3A3A3A3EC2C
:10AC4000F0A3EDF0900C3DE02401F0A3E03400F01F
:10AC5000EA24010AEB3400FB12ACC040BB850A8237
:10AC6000850B83E4F0A3F0750804F5097808121940
:10AC700032EEFCEFFD12B49D12048E74021216DE49
:10AC80009004E112B1839004E16017E0FAA3E08040
:10AC900003E8FAE9FB8A828B8312B18370F38A821C
:10ACA0008B83E50AF0A3E50BF079007F060217F12C
:10ACB000EE2402F508EF3400F509850882F58322B9
:10ACC0008E828F83E0F8A3E0F9C3EA98EB99221211
:10ACD000B6B58A828B83E0F50A22C082C083E990F0
:10ACE0000C3CF0D083D08202013574F712171FE9B3
:10ACF000FE74145E60047C018007EEA2E650097CBD
:10AD0000007910120E0C800AA2E040047902800241
:10AD100079007F010217F174F712171F8908ECFE02
:10AD2000EDFFE9A2E550097C017910120E0C803C80
:10AD300074885508602B74085508FC7910120E0CA5
:10AD4000E96027EE2418F582EF3400F583E0601CFB
:10AD5000EE2417F582EF3400F583E06401600B8088
:10AD60000BE9A2E1400479038002790080A474F425
:10AD700012171F74E91216C8EAFEEBFF8908E4F502
:10AD80000AF50B780A121932750A02780A1219327A
:10AD9000750AD6750B81780A1219327CFF7DFF7A0D
:10ADA000017B00120ADC74061216DE8A828B83E5B0
:10ADB000824583605612B836851882851983E8F07B
:10ADC000A3E9F074021217137404F0141217137429
:10ADD00001F07404121713E4F0740512171374FFD2
:10ADE000F0740612171374FFF0E508F509780912DC
:10ADF000193679007401121713AC82AD83EEFAEFA5
:10AE0000FB120AF474011216DE8002790174171223
:10AE100016DE7F040217F174EA12171F8A128B13D1
:10AE20008C108D119004E1E0F508A3E0F50974168B
:10AE3000121713E0F514A3E0F5157418121713E0B8
:10AE4000F50AA3E0F50B800D850882850983E0F5FE
:10AE500008A3E0F509E5084509700302AF157E0077
:10AE60007F00E5082404F50EE5093400F50F80089D
:10AE7000EE24010EEF3400FF85088285098312B8A5
:10AE800038C3EE98EF9950C08E0C8F0D7403780C78
:10AE90001216B5850E82850F83E0250CF50CA3E014
:10AEA000350DF50D850C82F58312B836C3E8951281
:10AEB000E9951340BBC3E51098E5119940B2E50A46
:10AEC000450B6023780A1219327814121932850C56
:10AED00082850D83E0FC7D00A312B6B112091474C3
:10AEE000041216DEE96089741A12171312B1836016
:10AEF0001E850E82850F83E0FAA3E0F5838A82A384
:10AF0000A3A3A312B6B188828983EAF0A3EBF0AAC7
:10AF10000CAB0D80047A007B007F0E0217F174EEFB
:10AF200012171FECFEEDFF9004E1E0FCA3E0800AA5
:10AF30008C828D8312B83AE8FCE9FDEC4D70030277
:10AF4000AFDF8C828D8312B836880889098882F534
:10AF500083A3A3A3A3E0F50CA3E0F50DC3EA950C2E
:10AF6000EB950D40CB8C828D83A3A3E0F50EA3E07F
:10AF7000F50FE50C250EF8E50D350FF9C3EA98EB52
:10AF80009950AD750A00750B00800CE50A2401F597
:10AF90000AE50B3400F50BC3E50A950EE50B950F9A
:10AFA000508E850A10850B11740378101216B5E5C2
:10AFB000082510F8E5093511F988828983A3A3A330
:10AFC000A3E06A7003A3E06B70C1EE4F600B8E824A
:10AFD0008F83E50CF0A3E50DF0E8FAE9FB80047A35
:10AFE000007B007F0A0217F174F012171F74FE1223
:10AFF00016C8EAFEEBFF7508007509008518828502
:10B000001983E4F0A3F0EE2404F50CEF3400F50D01
:10B01000850C82F58312B840A385820A85830B7460
:10B02000FF6A700374FF6B603D8518828519838504
:10B03000820885830978081219328E828F83E0F5A1
:10B04000087509007808121932850A82850B831267
:10B050001949EA24010AEB3400FB120ADC740612D7
:10B0600016DE8A088B098E828F8312B8F01219328D
:10B07000850A82850B831219497C027D007AD07B78
:10B080008112091474041216DEE970288E828F83EF
:10B09000E0F50E780E121932850A82850B8312199B
:10B0A000497C027D007AC87B81120914740412164F
:10B0B000DEE9600B850C82850D8312B6B180458E6A
:10B0C000828F83E0F50E780E121932850A82850B85
:10B0D000831219497C027D007AB87B8112091474AD
:10B0E000041216DEE96036741212171312B6B1E5B7
:10B0F000084509600F851882851983E06A7003A3EB
:10B10000E06B6005120B00801F850882850983A310
:10B11000A3A3A3E024FFFAA3E034FF800A850C82F6
:10B12000850D83E0FAA3E0FB741412171312B83AEA
:10B1300088828983E58245836005EAF0A3EBF0AA63
:10B1400008AB09740202B848C082C0839004E112BF
:10B15000B183602888828983A3A3A3A3E0FCA3E032
:10B16000F5838C82A3A3A3A3E06A7003A3E06B889A
:10B1700082898370DAA3A312B6B180047A007B00BF
:10B1800002ACE3E0F8A3E0F9E8492274F212171FD9
:10B1900074FE1216C8EAFEEBFF8C088D09890A8539
:10B1A0001882851983AC82AD83120B42E9F50B70CE
:10B1B0006FE50A60107C017910EEFAEFFB120E0CBD
:10B1C000E9F50B705BAC08AD09EEFAEFFB120884F1
:10B1D000E9F50B704B85188285198312B22A741019
:10B1E000121713E0F50874FF65086034EE2402F5C9
:10B1F0000CEF3400F50D780C121932750C1E750D1C
:10B2000000780C121932EEFCEFFD7A4E7B0B120B1C
:10B210007E74041216DE8E828F83A3A3A3E508F04A
:10B22000A90B74021216DE02ACABE0FEA3E0FF2213
:10B2300074F512171F74FE1216C8EAFEEBFF8C0895
:10B240008D09890A851882851983AC82AD83120B1A
:10B2500042741769601DE50A600E7C017910EEFAF0
:10B26000EFFB120E0CE9700BAC08AD09EEFAEFFB28
:10B2700012087E74021216DE7F030217F174F612B2
:10B28000171FEAFEEBFF120AEEEA4B600FEE24FFF7
:10B29000F8EF34FFF9EA28FAEB398003EEFAEFFB16
:10B2A00002B75374F012171F74E31216C88A088B82
:10B2B0000912B683E0F50F741E650F7054120B4827
:10B2C0008A0A8B0BEA450B700302B496EA2403F555
:10B2D0000CEB3400F50DE4F50EF50F780E12193273
:10B2E0008E828F83E0FD7C00AA08AB09850C8285E5
:10B2F0000D83E0F9120B7874021216DEE9F50E12D6
:10B30000B49D120B84850C82850D8374FFF002B40A
:10B3100096900C3CE0F4606BE50FC394195064E523
:10B320000FC313F50A750B007402780A1216B57470
:10B3300000250AF87480350BF9E824FCFAE934FF9B
:10B34000FB8A0C8B0D8A82F58312B6B1EA4B60330F
:10B35000E824FEF582E934FFF58312B18360248C82
:10B36000828D83A385820A85830B8C828D83E0F98D
:10B37000700B850A82850B83E06401700B74126583
:10B380000F6005790602B498740412171385820EB3
:10B3900085830F780E1219328C828D83A3A3A3129A
:10B3A00019498C828D83A3A3A3A3A312B694850A03
:10B3B00082850B83E0FA850C82850D8312B4A81276
:10B3C000171D74041216DEE9F50E600302B49674BC
:10B3D00004121713AC82AD83AA08AB098E828F8347
:10B3E000E0C313F50C750D007402780C1216B574D9
:10B3F000FE250CF582747F350DF58312B4A8121763
:10B400001DE9F50E70368E828F83E0FD74046D7039
:10B410000302B496740412171385820A85830B788D
:10B420000A1219327C00AA08AB09900C3CE0F91210
:10B430000B7874021216DEE9F50E805A850A8285B1
:10B440000B83E070518E828F83E08518828519838B
:10B45000F07403121713E9F08E828F83E0F87404FE
:10B4600068600D740668600874086860037410688A
:10B47000740412171312B83A7401121713E8F0A3E8
:10B48000E9F0851882851983AC82AD83AA08AB09DF
:10B49000120836750E00A90E741D02B848E50A247C
:10B4A00002FAE50B3400FB22E0F8A3E0F583888282
:10B4B00022790002013574F012171F74EA1216C8BF
:10B4C0008A0C8B0D8C828D8312B6B1750A0012B670
:10B4D00083C3E09AA3E09B4004EA4B700579010224
:10B4E000B67E851882851983E4F0E4F508F50978BD
:10B4F00008121932780812193278081219328E821D
:10B500008F8312B694120ADC74061216DE8A088B38
:10B5100009A808A909E849700302B5DD8882898372
:10B52000A3AA82AB83E82404F508E93400F5098571
:10B530001882851983E0600302B5EE88828983E072
:10B540006402700B74011217137401F002B5FB74DE
:10B55000011217137402F012B69A75F012A4F8854E
:10B56000F00BA90BE58228F582E58339F583A3A3C7
:10B57000ECF0A3EDF0750E10750F00780E12193275
:10B5800012B6907402121713E075F012A4F8A9F025
:10B59000E58228F8E58339F9E82404FAE93400FB68
:10B5A00012048E74021216DE851882851983E00457
:10B5B000F0700F850882850983E0F47003A3E0F43E
:10B5C0007003750A01850882850983E02401FAA3C6
:10B5D000E03400FBE50AA2E0400302B4EA851882E9
:10B5E000851983E0600302B671790A02B67E7401A0
:10B5F000121713E06401600302B55788828983E063
:10B60000640270D912B69AF50E750F007402780EA6
:10B610001216B5E582250EF582E583350FF583A375
:10B62000A3ECF0A3EDF0750E02750F00780E121961
:10B630003212B6907402121713E0F50E7402780EEF
:10B640001216B5E582250EF8E583350FF9E82404D6
:10B65000FAE93400FB12048E74021216DE85188299
:10B66000851983E004F0C39405400302B5C202B516
:10B67000B3AC82AD83AA0CAB0D12084279007416EC
:10B6800002B848EC2402FEED3400FF8E828F832244
:10B690008A828B83E0FCA3E0FD22850882850983F2
:10B6A000E0FCA3E0FD851882851983E0228E828F5D
:10B6B0008312B6B522E0FAA3E0FB2274F612171F3C
:10B6C00012B7654004EA4B700479018039E4F5084B
:10B6D000F50978081219328C828D83A3A3A3A3E005
:10B6E000F508780812193212B758121932EEFCEF29
:10B6F000FD120ADC74061216DE8B09EA4509700495
:10B70000790A80027900804B74F612171F12B76510
:10B710004004EA4B700479018039E4F508F50978B2
:10B72000081219328C828D83A3A3A3A3E0F50878B5
:10B730000812193212B758121932EEFCEFFD120A34
:10B74000DC74061216DE8B09EA45097004790A805A
:10B750000279007F020217F1EC2405F508ED3400B0
:10B76000F5097808228C828D83A3A312B22A8C82D9
:10B770008D8312B6B5C3EE9AEF9B2274F612171F93
:10B78000EAFEEBFF8C828D837C007D0012B6B11245
:10B790000AE28A828B83E582458370047901800CFA
:10B7A000A3A3A3E0F9EEFAEFFB120ACA80A574F096
:10B7B00012171F8A0A8B0BECFEEDFF750C0080023E
:10B7C000050CEE2416F582EF3400F583E0F8E50C65
:10B7D000C398505EE50CC333F8E433F9EE28F5085E
:10B7E000EF39F5097C007D00850882F58312B6B13A
:10B7F000120AE28A828B83E582458370168508826D
:10B8000085098312B83A8E828F83E8F0A3E9F07934
:10B81000018021A3A3A3E0F9AA0AAB0B120ACAE98B
:10B82000609E85088285098312B840EAF0A3EBF098
:10B83000800279008015A3A3A3A3E0F8A3E0F92276
:10B8400012B6B58E828F83221216DE7F080217F1A0
:10B8500074F012171FECFEEDFF8E828F8312B83A40
:10B8600012ACB0C3E098A3E0994004E849700479B1
:10B8700001807AEE2405F50CEF3400F50DEE24047A
:10B88000F50AEF3400F50B850A82F58312B8F01241
:10B890001932780C1219327C027D007AD07B811229
:10B8A000091474041216DEE970047910803FE4F57F
:10B8B0000E780E121932850A82850B83E0F50A751F
:10B8C0000B00780A121932780C1219328508828519
:10B8D000098312B69412B6AD120ADC74061216DE93
:10B8E0008B09EA45097004790A8002790002B84B95
:10B8F000E0F50E750F00780E2274F412171F8A08F7
:10B900008B09ECFEEDFF7C007D0012B6AD120AE261
:10B910008A828B83E5824583700479018010EEFC76
:10B92000EFFDA3A3A3E0F9AA08AB09120AD002AE67
:10B930001202B4B174F612171FECFEEDFF120B48A1
:10B940008A088B09A808A909E849602BEE4F60090D
:10B950008E828F83E8F0A3E9F088828983A3A3E035
:10B96000F874FE6870047917800F74FF68700479AA
:10B9700000800679168002790202B75374F6121716
:10B980001F7508009004D9E06A7003A3E06B70167D
:10B99000750900740278081216B574D92508FA746E
:10B9A000043509FB80137508019004DDE06A70031B
:10B9B000A3E06B60DB7A007B0002B75374F41217CC
:10B9C0001FEA4B604BEA2402F508EB12ACB6E0F834
:10B9D00074FF68603B74FE686036EA2403FEEB3453
:10B9E00000FFE4F50AF50B780A1219327D1E7C1768
:10B9F0008A828B8312B840E0F9120B787402121617
:10BA0000DE85088285098374FEF08E828F8304F0C0
:10BA100002AE1274F012171F8A0A8B0B890C74FE87
:10BA2000650A700474FF650B700302BAFDE970309B
:10BA3000120B488B09EA4509600302BAFD7AFF7BC5
:10BA4000FF120B488A088B09A808A909E849700366
:10BA500002BAFD88828983E50AF0A3E50B02BAFCED
:10BA60007401650C701D120B488A088B09A808A97F
:10BA700009E849700302BAFD8882898374FFF0A344
:10BA8000F080217402650C70747901120E00E97067
:10BA90006CAA0AAB0B120B488A088B09A808A909E3
:10BAA000E8496059E82402FEE93400FF8E828F8362
:10BAB000E0FA74FF6A6046E82403F508E93400F50B
:10BAC0000974FE6A6022E4F50EF50F780E12193241
:10BAD0007D1E7C14AA0AAB0B850882850983E0F9D8
:10BAE000120B7874021216DEEEFAEFFB120B84854D
:10BAF000088285098374FFF08E828F83F002B84B31
:10BB000074F412171FE99005A8F01210D090780075
:10BB1000E0C4540F540764037004793F8002797FB6
:10BB200075080675090078081219327C967D057A29
:10BB3000EA7B0712069874021216DE900596E0F46E
:10BB40007049A3E0F47044A3E0F4703FA3E0F47004
:10BB50003AA3E0F47035A3E0F4703090780EE090F2
:10BB60000596F090780FE0900597F0907810E090AF
:10BB70000598F0907811E0900599F0907812E09097
:10BB8000059AF0907813E090059BF090059C74FF67
:10BB9000F0A3F0A3F0A3F0A3F0A3F0900596E0903B
:10BBA00005A2F0900597E09005A3F0900598E0902D
:10BBB00005A4F0900599E09005A5F090059AE09015
:10BBC00005A6F090059BE09005A7F09005C67406C9
:10BBD000F0A3740DF0A3E4F0A37440F0A37401F09B
:10BBE0009006F274FFF0A3F0A3F0A3F0A3F0A3F08B
:10BBF0009006F1E4F09006F8F0A374A0F0A3E4F04E
:10BC0000A37403F0A37407F0A3E4F0A37428F0A3D3
:10BC1000E4F0A304F0A3E4F0900721F0900744744B
:10BC2000FFF0A3E4F0900746F090074804F0900777
:10BC3000497490F0A37401F0120EE4120E36121043
:10BC40007C79017A4B7B07120FC290074BE075F0AD
:10BC50001484E5F004F0790C7A6C7B07120FC212A1
:10BC60000FDA7A009005A8E0F9120536907803E023
:10BC70006442705590074BE014F0704DC2AF12BC97
:10BC80008100782AD0E0F618D0E0F6E59F540770DE
:10BC9000057509FF800375097FC4C0E07829E6F5C2
:10BCA0000808E65509F509740B78081216A6D0E0C5
:10BCB0002508F8906270E0A2E740F8E8C33390628C
:10BCC00072F0906270E0D2E0F09005D3E4F0A3F05F
:10BCD0007A80FB9005A8E0F91204E202C1C974F46D
:10BCE00012171FEAFEEBFFEEA2E050459005AAE016
:10BCF000C39480E0500FC333F8E433F9746128F53E
:10BD000082740C800EF4C333F8E433F9746F28F5B1
:10BD100082740C39F583E0F8A3E0F583888212176A
:10BD20001D7A009005A8E0F9120536EE640102BF05
:10BD300004540260407508007808121936E4F509C9
:10BD400078081219327808121932780812193275E7
:10BD500008DD75090678081219329006DCE0FD7CD2
:10BD6000017A007B00793C120CFE74091216DEEE9B
:10BD7000640202BF04EE5404700302BE1A9005D799
:10BD8000E0F875F003A4C8AAF02AF974D928FA7467
:10BD90000539FBEA242AF582EB3400F583E0F50847
:10BDA0007808121936EA2432F582EB3400F583E084
:10BDB000F508A3E0F509740478081216A6780812AD
:10BDC0001932EA2420F582EB3400F583121949EA8E
:10BDD000242EF582EB3400F583E0F508A3E0C313CD
:10BDE000F509E50813F50878081219327508DD75AC
:10BDF000090678081219329006DCE0FD7C018A827F
:10BE00008B83A3A3A3A3E0FA7B007900120CFE743A
:10BE1000091216DEEE640402BF04EE544060407561
:10BE200008007808121936E4F509780812193278F2
:10BE30000812193278081219327508DD750906786A
:10BE4000081219329006DCE0FD7C017A007B007953
:10BE50003B120CFE74091216DEEE644002BF04EEC3
:10BE60005480603B900749E0F8A3E0F9E849602A74
:10BE70007900120530900749E0F508A3E0F509E4E0
:10BE8000F50AF50B780812192E7A007B019005A8A7
:10BE9000E0F912056074041216DEEE64808065EF2E
:10BEA0005401600C7901120530EEFAEF64018056FE
:10BEB000EF5402600AC2AF75C9AB75C95B80FEEF73
:10BEC0005404600A121A74EEFAEF64048038900584
:10BED000AFE064017033EE5420602E9005A9E02499
:10BEE000F9600314701B793F9005D7E0FA75F003F1
:10BEF000A4CAA8F028FB74D92AFA74053BFB120FD8
:10BF000086EE6420FAEFFB80047A007B0002C1C950
:10BF100074F612171FC3EA9411EB940050047A10C0
:10BF200080027A20EA2408FAE43400FB1207168A19
:10BF3000088B09A808A909E849600AE82404FAE975
:10BF40003400FB80047A007B0002C50774F61217E8
:10BF50001FEA2405FAEB3400FB1207168A088B0946
:10BF6000A808A909E849600AE82405FAE93400FBB1
:10BF700080047A007B0002C507C082C083C2AF1272
:10BF800010ACE5E170FC75E101120ED875E1F1121B
:10BF900010DC120ECC790712114E7901121154796E
:10BFA000021211061211241211427900121148795D
:10BFB000011211487A557B557C557D001210EE9088
:10BFC00006DCE4F0A3F0A3F0A3F0A3F0A3F0A3F049
:10BFD0009006F8F0A3F0A3F09006FC7407F090062A
:10BFE000FB7403F0900701E4F0900700F090072144
:10BFF000F0120F74121010120F8C790012115A9057
:10C0000006E374FFF0A3F0A3F0A3F0A3741FF09075
:10C010006012E4F0A3F0906063F07521009005A930
:10C02000F09006E8F09006E9740CF09006EAE4F06F
:10C030009006EB04F09006ECE4F09006ED04F0902E
:10C0400006EEE4F09005ABF0A3F09005AEF090059D
:10C05000AF04F09005C504F0900747E4F0D2AFF9C3
:10C0600002CA31C082C083900596E08A828B83F039
:10C07000900597E08A828B83A3F0900598E08A82EE
:10C080008B83A3A3F0900599E08A828B83A3A3A35B
:10C09000F090059AE08A828B83A3A3A3A3F0900576
:10C0A0009BE08A828B83A3A3A3A3A302CA2EC08290
:10C0B000C0838A828B83E090059CF08A828B83A365
:10C0C000E090059DF08A828B83A3A3E090059EF00B
:10C0D0008A828B83A3A3A3E090059FF08A828B833F
:10C0E000A3A3A3A3E09005A0F08A828B83A3A3A3BC
:10C0F000A3A3E09005A102CA2EC082C083120EF055
:10C10000E97005121124790002CA3174F712171F61
:10C11000EAFEEBFF8908120EF0E9702CE508600AD0
:10C1200074016508600A7912801E7C007900800421
:10C130007C007901EEFAEFFB12112AE9F87403682A
:10C14000700479078002790002C50274F612171F85
:10C15000EA4B6016EC4D6012740A121713E0F508F2
:10C16000A3E0F509E508450970047912800F780805
:10C17000121932120FD474021216DE790002C507AA
:10C1800074F412171FEAFEEBFF89089005A9E0641A
:10C19000096014E0640A600FE0640B600AE0640C5C
:10C1A0006005E0640D7004790C801E1210348B0B56
:10C1B000EA450B700BA908EEFAEFFB120FC28009DB
:10C1C0009005ABE04440F0790D7F040217F174F65E
:10C1D00012171FEA4B6003E970047912801CEAFE13
:10C1E000EBFF8908120FBCE98E828F83F0A3AE8229
:10C1F000AF831508E50870EC790002C507C082C05E
:10C2000083E9F8740168700B9007477401F07900B6
:10C2100002CA31E87006900747E480F1791280F095
:10C22000C082C0839005A9E0640C701290618EE01A
:10C23000F974806970258C828D83747F8029C3EBAB
:10C24000940F5013EA4B700F9005DCE070047902F4
:10C25000801890064180D87912800F9005ADE0F8E3
:10C26000E9C3988C828D83F0790002CA3174F71289
:10C27000171FE9FE74056E601E74136E6019741446
:10C280006E601474156E600F741A6E600A74296EF5
:10C290006005743B6E7026C3EB940F5020EA4B7020
:10C2A0001C9005DCE0700479028044900642E06452
:10C2B000017025A3E064027008793A803279128017
:10C2C0002EEE9006CDF09005F6E4F0A3F079027A18
:10C2D000D97B05120F628015EE9006CDF09005F621
:10C2E000E4F0A3F079027AD97B05120F56790002A7
:10C2F000C50274EA12171FEC4D6014E9C3941C5078
:10C300000E7416121713E0F8600A7401686005795C
:10C310001202C4FDC3EB940F5019EA4B701590053F
:10C32000DCE070047902800D9006E9E0700A79077C
:10C3300002C4FD791202C4FDEC24FEFCED34FFFDC5
:10C340008C828D83E9F0E87004740280027401A38A
:10C35000F0EC24FEFCED34FFFD7A3C7B06120FAAC4
:10C360009006E9E014F09005A9E064086008E06434
:10C3700007600302C4FB9005D7E0600302C4FB79A9
:10C38000007AD97B05121F029061D0E0700302C4CD
:10C39000FB9006EDE06401600302C4FB9005F6E04B
:10C3A000F8A3E0F9E849700302C4FBA2AFE433F557
:10C3B00014C2AF1210348A088B09AE08AF091210EC
:10C3C000BE8A108B118C128D138A088B098C0A8DF2
:10C3D0000B750C01750D00750E00750F007808794E
:10C3E0000C1214FE780812192E8E828F83A3A312CA
:10C3F00015B61226BF74041216DEE964016003024A
:10C40000C4F5900607E02406F508A3E03400F5091A
:10C41000E4F50AF50B781079081214FE7810121959
:10C420002E8E828F83A3A31215B61226BF74041218
:10C4300016DEE96401600302C4F5EE2408F50CEF92
:10C440003400F50D850C82F583121945AA10AB1145
:10C45000AC12AD1312271874041216DE90060712E0
:10C46000194912234874021216DE8A088B098C0AB5
:10C470008D0B741078081214C69005E2E0F8A3E062
:10C48000F99005DEE8F0A3E9F0E82508F8E93509B8
:10C49000F9A3E8F0A3E9F0850C82850D83C082C082
:10C4A00083900607E0F50CA3E0F50D7808790C12EF
:10C4B00013D6D083D0827808121511750CFF750D34
:10C4C000FF750EFF7808790C12155F8E828F83A39B
:10C4D000A3E508F0A3E509F0A3E50AF0A3E4F090D2
:10C4E000060EE090060DF07AD97B05121B8EEEFA4F
:10C4F000EFFB12101CE514A2E092AF79007F0E0250
:10C5000017F17F010217F17F020217F174F612177B
:10C510001FEAFEEBFF8908740B121713E0F509748C
:10C520000C121713E0F8A3E0F9E508605F740165E9
:10C5300008601574036508602F740265086029742B
:10C54000046508600302C5E7E849700302C5E7E532
:10C5500009600974016509600302C5E77403650891
:10C560006006740265087046EE2460FAEF34FFFB43
:10C57000C3EA9461EB943F506EEC2460FAED34FF13
:10C58000FBC3EA9461EB943F4024805BEE24E0FA25
:10C59000EF34FFFBC3EA94E1EB943F504AEC24E014
:10C5A000FAED34FFFBC3EA94E1EB943F5039C3EC5E
:10C5B0009EED9F4032740A121713E0FA6005740171
:10C5C0006A7024740F121713E0FC600F74016C6022
:10C5D0000A74026C600574036C700C740E121713ED
:10C5E000E0FB74075B7005791202C7489006F8E01B
:10C5F00064017005790C02C748E5089006FBF074E9
:10C60000075BA3F0ECA3F0EA9006F1702FE4F09042
:10C610000596E09006F2F0900597E09006F3F09012
:10C620000598E09006F4F0900599E09006F5F090FA
:10C63000059AE09006F6F090059B802E7401F0902C
:10C64000059CE09006F2F090059DE09006F3F090D6
:10C65000059EE09006F4F090059FE09006F5F090BE
:10C6600005A0E09006F6F09005A1E09006F7F074C2
:10C670000165087053E5099006DCF088828983E043
:10C680009006DDF088828983A3E09006DEF0888240
:10C690008983A3A3E09006DFF088828983A3A3A304
:10C6A000E09006E0F088828983A3A3A3A3E090062C
:10C6B000E1F088828983A3A3A3A3A3E09006E2F01C
:10C6C0009006F9E4F0A3807D74046508704DE509D7
:10C6D0009006DCF088828983E09006DDF08882890C
:10C6E00083A3E09006DEF088828983A3A3E090060E
:10C6F000DFF088828983A3A3A3E09006E0F088821C
:10C700008983A3A3A3A3E09006E1F088828983A391
:10C71000A3A3A3A3E09006E2F08023EC70047900C9
:10C72000801974016C70047901801074026C7004BB
:10C730007902800774036C7005790312113090063A
:10C74000F9EEF0A3EFF0790002C50774F612171F97
:10C75000E9FEC39420500BEE900701F06023EA4BF2
:10C76000700479128023E0F5087509007808121921
:10C7700032EAFCEBFD7A027B0712048E7402121679
:10C78000DE9007007401F0790002C50774F01217FB
:10C790001FE9FE9005A9E06409700302C8B5E064D2
:10C7A0000A700302C8B5E0640B700302C8B5E06408
:10C7B0000C700302C8B5E0640D700302C8B59006A2
:10C7C000FBE0601664016012E06403600DE0640247
:10C7D0006008E06404600302C92A9006F1E0600783
:10C7E0006401600302C92A9006FBE064036005E06F
:10C7F000640270109006F9C3E094A0A3E094005086
:10C800000302C92AEE700302C8C314600302C92AD6
:10C810009006F8E06401700302C8B59006FBE06082
:10C820000964016005E06404700B121040E954FDD6
:10C83000600302C8B579011210289006EFEAF0A350
:10C84000EBF09006F87401F09005A9E0706E1210FC
:10C85000BE8A088B098C0A8D0B750C03750D00754B
:10C860000E00750F007808790C1214FE750CFF7518
:10C870000DFF750EFF7808790C12155F9006EFE03A
:10C88000F8A3E0F5838882A3A378081215A7900681
:10C89000EFE0F8A3E0C82406F582E83400F583E46D
:10C8A000F0A3F0120EF6E960107AEF7B0612102E5C
:10C8B0009006F8E4F07921800512101679007F08BF
:10C8C0000217F19006F8E060ECA2AFE433FFC2AFCC
:10C8D0007AEF7B0612102E9006F8E4F0121046E96B
:10C8E00070411210AC906182E0C2E6F0E5E170FCAC
:10C8F00075E1017591BF75E1F19005AFE0640170DC
:10C90000187A207B009005A8E0F912056C7A207B4C
:10C91000009005A8E0F91204E87A009005A8E0F973
:10C92000120536EFA2E092AF80927912809074F6F1
:10C9300012171FE9FEC39420500BEE900721F06000
:10C9400023EA4B700479128023E0F508750900781A
:10C9500008121932EAFCEBFD7A227B0712048E746E
:10C96000021216DE9007007401F0790002C507C0BC
:10C9700082C0839005A9E064076004790C805CECB8
:10C980004D605BC3EB940F5055EA4B70519005DC42
:10C99000E07004790280447A008C828D83E0C0E0EC
:10C9A000EAF8C3E498F895E0F974A628F5827406CD
:10C9B00039F583A3A3A3A3D0E0F00A8C828D83A3CF
:10C9C000AC82AD83EAC3941040CF9006AC7401F002
:10C9D00079057AD97B05120F56790002CA3179128E
:10C9E00080F9C082C0839005A9E064076004790CD7
:10C9F0008039C3EB940F5020EA4B701C9005DCE0AB
:10CA00007004790280259006B5E06401700E9006EE
:10CA1000CD7406F07902800A7912800FA37406F0B3
:10CA2000790D7AD97B05120F56790002CA31F07957
:10CA300000D083D082020135C082C083E9F890071C
:10CA400048E07004790C800EE8600D1470109005B9
:10CA5000AE7401F0790080D99005AEE480F57912CA
:10CA600080F474F212171F8908EAFEEBFF8C097537
:10CA70000A1274FE6E700374FF6F70189004A9128E
:10CA8000D4B3607212CAFB606D7AFE7BFFA90812F4
:10CA9000171D805A74FF6E700374FF6F7035900419
:10CAA000A912D4B3601312CAFB600E7AFF7BFFA9F0
:10CAB0000812171DE9F50A600CAA09A9081209EC69
:10CAC000E9F50A7031E5089004ABF0E5099004AC93
:10CAD000F08023120DF48A828B83E58245836016F1
:10CAE000E06508700EA909EEFAEFFB120C50E9F5AB
:10CAF0000A8003750A03A90A02CC8DE0F5838882B7
:10CB0000E0F8A3E0F988828983E58245832274F204
:10CB100012171F890AECFEEDFF900488E0640260A2
:10CB200005E0640170047912805CEE4F70047902B4
:10CB30008054120DF48A088B09EA450970047914AF
:10CB40008044E50A600B8A828B83A3A3A3E0D2E131
:10CB5000F0750C10750D00780C121932EEFCEFFD1B
:10CB6000EA240DFAEB3400FB12048E74021216DE76
:10CB700012D19B1215B6E508241DF582E50912D9DC
:10CB8000371215C2790002CC8D74F212171F8A0871
:10CB90008B09ECFEEDFF900488E06402600EE06417
:10CBA000016009E064087009EE4F6005791202CC5B
:10CBB0008DEA45097005790202CC8D9004A712D444
:10CBC000B36005791102CC8D8A828B8312D2A112B7
:10CBD0000DF48A0A8B0BEA450B7005791402CC8D93
:10CBE0007A1F7B0012051E9004A712D94D9004A74E
:10CBF00012D4B37005791302CC8D7C1F7D007900AF
:10CC00001204A612D29B12CC92A312D94D750C1607
:10CC1000750D00780C121932E5082402FCE5093480
:10CC200000FD9004A7E02403FAA3E03400FB120403
:10CC30008E74021216DE12CC927402F0900488E018
:10CC4000A2E35004D2F08002C2F09004A7E02403D3
:10CC5000F50CA3E03400F50D780C12193212CC9EBD
:10CC60009004B3E0FAA2F0E433F91211FC7402125A
:10CC700016DEE9F508EE4F600BEEFCEFFDAA0AABFD
:10CC80000B121238E50860031209F8A9087F0602A2
:10CC900017F19004A7E0F8A3E0F5838882228508C5
:10CCA00082850983E0FCA3E0FD2274F412171F744F
:10CCB000FF1216C8EAFEEBFF8908120DF48B0BEA8F
:10CCC000450B700479148014851882851983E50852
:10CCD000F0AC82AD83EEFAEFFB1212207401121653
:10CCE000DE7F040217F174F012171F74F01216C8D9
:10CCF0008A0C8B0D8C0E8D0F7420121713E0FEA37F
:10CD0000E0FFEEFAEFFB120DF48B09EA450970041F
:10CD10007912807190815F780C1213B750047902F8
:10CD200080637C107D007900851882851983AA8232
:10CD3000AB831204A6851882851983E50CF0850D56
:10CD400009E509F5087401121713E508F0850C08C8
:10CD5000850E0A850F0B741078081214C67402121F
:10CD60001713E508F07418780C1214C67403121720
:10CD700013E50CF0EEFCEFFD851882851983AA827D
:10CD8000AB8312120274101216DE7F080217F174C0
:10CD9000F012171F8A0A8B0B890E8C0C8D0D7410E4
:10CDA000121713E0F50F900488E064026005E06458
:10CDB000017005791202CE5FEC450D700579020213
:10CDC000CE5F120DF48A088B09AE08AF09EE4F70E2
:10CDD00005791402CE5FEE2421F508EF3400F50941
:10CDE00085088212CE6C60031205247C1B7D00AA8C
:10CDF0000CAB0D12049A85088285098312D94D1255
:10CE0000CC9EEC4D700479138055900488E0A2E329
:10CE10005037E50F6033EC2412F508ED3400F509C6
:10CE20007808121932EC2410F582ED12D937121954
:10CE300049EC241AF582ED12CFD5F9AA0AAB0B12F0
:10CE4000123E74041216DE80027900EE2403F5828D
:10CE5000EF12CFD5D2E2F0E50E6004E0D2E1F002AD
:10CE6000CD8A12D92B241BF582E83400F583E0FA31
:10CE7000A3E0FBEA4B2274EA12171F8A0E8B0FEA1B
:10CE8000450F700302CFD09004A512D4B3600512F1
:10CE9000CC988003900B80E0F50C9004B412D4B3CE
:10CEA000600F12CC98A3A312CB0060057900121773
:10CEB0001DE50E2407F50AE50F3400F50BE50E24F9
:10CEC00008F508E50F3400F509AA08FB850A8285F4
:10CED0000B83E0F9120950E9FB850A82850B83F088
:10CEE000E50E2403FEE50F3400FFE50E2404F512E1
:10CEF000E50F3400F513E50E240EF510E50F3400B0
:10CF0000F511E50E2414F582E50F12CFD5F5147551
:10CF100015007814121932E50E2412F582E50F126D
:10CF2000D937121949E50E2410F582E50F12D937C9
:10CF3000121949851082851183121949851282853B
:10CF40001383121949AC08AD09AA0C8E828F83E0B5
:10CF5000F91209DA740A1216DE8E828F83E07031BC
:10CF60008510828511831219497808121932850AB1
:10CF700082850B83E0FD7C0185128285138312D2AA
:10CF8000A1A90C120DE874041216DEE98E828F83BB
:10CF9000F09004A512D4B360371209FE9004ABE000
:10CFA000602E9004ACE0FA9004ABE0F91209ECE9D1
:10CFB000601E8E828F83E0FB85128285138312CCE4
:10CFC000A49004ABE0FAEBF91209E09004ABE4F0B2
:10CFD0007F0E0217F112D735E02274F712171FEAFD
:10CFE000F8EBF988828983A3A3A3A3A3A3A3A3A394
:10CFF000A312194988828983A3A3A3A3A3A3A3A3EC
:10D0000012194988828983A3A3A3A3A3A312CCA442
:10D0100088828983A3A3A3A312D2A188828983A330
:10D02000A3A3E0F91209E674041216DE7F010217C9
:10D03000F174F212171FEAFEEBFF750A00EE2403EB
:10D04000F8EF3400F9880889098882F58312D2A1A3
:10D05000120DF48A828B83E58245836009E0F50A2C
:10D0600012D29B120DEE9004ABE06019650A7015A8
:10D070009004ACE0FA9004ABE0F91209ECE960240A
:10D080009004ABE4F0E50A601B8E828F83A3A3A318
:10D09000A3A3E0FB12CC9EAA0A8E828F83A3A3E0F7
:10D0A000F91209E09004A712D4B360031209F80240
:10D0B000CC8D74E812171F890B8A0E8B0A8C0C8D8D
:10D0C0000D741A121713E0F516A3E0F517741C126D
:10D0D0001713E0F514A3E0F515741E121713E0F50D
:10D0E00010A3E0F5117420121713E0F5087A137BF2
:10D0F000001204B28A128B13AE12AF13EE4F7003FC
:10D1000002D1968E828F8374D012D5988E828F83AF
:10D11000A3A3740512D450EE2404FAEF3400FBE507
:10D120000C450D601975120675130078121219322C
:10D13000AC0CAD0D12048E74021216DE80097C0652
:10D140007D0079001204A67418121713E0F8A3E00A
:10D15000F98E828F83A3A3A3A3A3A3A3A3A3A3E86E
:10D16000F0A3E912D72AE516F0A3E517F0EE240E96
:10D1700012D934E514F0A3E515F012D19BE510F0B7
:10D18000A3E511F0EE241212D934E508F0EEFAEF1F
:10D19000FBA90E1204BE7F100217F1EE241012D765
:10D1A000322274F212171F89098A08ECFEEDFF8BF8
:10D1B0000A7A067B001204B2EA4B60278A828B83CC
:10D1C00074D0F0A3E509F08A828B83A3A3740612BE
:10D1D000D1E6EEF0A3EF12D1E6A3A3E50AF0A90889
:10D1E0001204BE02CC8DF08A828B83A3A3A3227487
:10D1F000EC12171F89108A088B098C0A8D0B741486
:10D2000012171312D4747416121713E0F50EA3E05C
:10D21000F50F7A0C7B001204B28A128B13AE12AF98
:10D2200013EE4F604DAA08AB09120DF48A828B836E
:10D23000E58245837003900B80E0F98E828F8374C2
:10D24000D0F0A3E51012D653740712D457E508F0B6
:10D2500012D65BA3E50B12D665E50CF0A3E50D1223
:10D26000D665A3A3E50EF0A3E50FF0EEFAEFFB12EF
:10D2700004BE02D44B74F612171FEAFE120DFA8A8E
:10D28000828B83E5824583600BEEF9A312D2A11253
:10D290000C50800279127F020217F18508828509FD
:10D2A00083E0FAA3E0FB2274EC12171F89118A0AAB
:10D2B0008B0B8C10120DF48A0E8B0FEA450F700346
:10D2C00002D44B9004A712D4B3700302D44B7A0E4D
:10D2D0007B00E0C8241912D4AD60027A2912D4A8C8
:10D2E0006008EA2414FAE43400FB741412171312D1
:10D2F000D474E50C450D6008EA241BFAEB3400FBFE
:10D3000012D94112D4AD6008EA2416FAEB3400FBBE
:10D310001204B28A088B09AE08AF09EE4F700302FF
:10D32000D44B7C0E7D0079001204A67A267B001275
:10D3300009268A088B09EA45097009850E82850F3E
:10D3400083E0F5088E828F8374D0F0A3E51112D6A6
:10D3500053740A12D450A3E50B12D457A3E510F06E
:10D36000EE240EF50AEF3400F50B9004A7E0241923
:10D3700012D46912D4B36018EE240612D47C1219A8
:10D38000328C828D8312CCA412048E74021216DEAB
:10D390009004A7E0241D12D46912D4B3603AEE249D
:10D3A00008F8EF3400F98882898312D5968882893B
:10D3B0008312D2A1EA2414F50AEB3400F50B750EA2
:10D3C00014750F00780E1219328C828D8312CCA442
:10D3D00012048E74021216DEE50C450D6015EE2463
:10D3E0000A12D47C121932AC0CAD0D12048E7402E8
:10D3F0001216DE9004A7E0241BF8A3E03400F9E83D
:10D40000FAE9FB8A828B8312D4B36033EE240CF8E2
:10D41000EF3400F9880C8882F58312D596750A16C8
:10D42000750B00780A1219328A828B8312CCA4857C
:10D430000C82898312D2A112048E74021216DEEEBF
:10D44000FAEFFBA9081204BE1209F87F0C0217F1CB
:10D4500012D45CE50AF02212D45CA32212D460221A
:10D46000F08E828F83A3A3A322FCA3E03400FD8C63
:10D47000828D8322E0F50CA3E0F50D22F8EF340055
:10D48000F988828983E50AF0A3E50BF08882898315
:10D49000E0FAA3E0FBEA241BF50AEB3400F50B7578
:10D4A0000E1B750F00780E2212D92B241DF582E871
:10D4B00012D735E0F8A3E0F9E84922C082C0839092
:10D4C00004A712D4B3602FE0C8241912CE676003FA
:10D4D00012052412CE62600312052412D93B12CE2B
:10D4E0006760031205249004A712D2A112052490AC
:10D4F00004A7E4F0A3F0D083D082020135C082C03B
:10D50000839004A512D4B360109004A512D2A11286
:10D5100005249004A5E4F0A3F080DB74F012171F3B
:10D52000890C8A0A8B0B120DF48A088B09EA4509CB
:10D53000605E7A267B001209268A0E8B0FAE0EAF34
:10D540000FEE4F7008850882850983E0FE7A057B1F
:10D55000001204B28A088B09EA450960337C057D14
:10D560000079001204A685088285098374D0F0A38F
:10D57000E50CF0850882850983A3A3740EF0850865
:10D580008285098312D593AA08AB09EEF91204BE6D
:10D5900002CD8AA3A3A3E50AF0A3E50BF02274EC65
:10D5A00012171F89088A0E8B0F8C098D0A741412AA
:10D5B0001713E0F50C7415121713E0F50B120DF4A8
:10D5C0008A128B13EA4513700302D6507A0B7B0044
:10D5D0001204B28A108B11AE10AF11EE4F60717C45
:10D5E0000B7D0079001204A67A267B001209268A98
:10D5F000108B11A810A911E84970088512828513B3
:10D6000083E0F88E828F8374D0F0A3E50812D6539E
:10D61000740F12D653A3E50EF0A3E50F12D45712E0
:10D62000D65B8E828F83A3A3A3A3A3A3A3E50C122F
:10D63000D665E50BF07416121713EE2409FCEF34CF
:10D6400000FD74021215DBEEFAEFFBE8F91204BEDE
:10D6500002D44BF08E828F83A3A322A3E50912D6B6
:10D660006BE50AF02212D66BA3A32212D460A3A307
:10D67000A32274EE12171F8A0A8B0B890E120DF467
:10D680008A0C8B0DEA450D700302D7257A0D7B00BD
:10D690001204B28A088B09AE08AF09EE4F7003027C
:10D6A000D7257A267B001209268A088B09EA4509C4
:10D6B0007009850C82850D83E0F5088E828F837456
:10D6C000D0F0A3E412D653740BF075100675110058
:10D6D0007810121932E50C2405FCE50D3400FDEE3E
:10D6E0002403FAEF3400FB12048E74021216DE8E4D
:10D6F000828F83A3A3A3A3A3A312D593EE240B121B
:10D70000D934E50EA2E0500474018001E412D72A56
:10D71000E50EA2E1500474018001E4F0EEFAEFFBA3
:10D72000A9081204BE7F0A0217F1F0EE240C12D7EA
:10D730003222F582EF3400F5832274E812171F8934
:10D74000108A0F8C088D098B0EAA08AB09120DF4F4
:10D750008A0A8B0B741812171312D474741A1217C6
:10D7600013E0F514A3E0F515741C121713E0F51679
:10D77000A3E0F517741E121713E0FEA3E0FFEA45BD
:10D780000B700302D85DE510600302D85DEA240344
:10D79000F582EB12CFD5D2E4F0E50EA2E2E0500420
:10D7A000D2E18002C2E1F0E50C450D7010E51445B0
:10D7B00015700AE51645177004EE4F606BE0D2E273
:10D7C000F0EE4F603512D19B1215B6E50A241DF517
:10D7D00082E50B12D9371215C27512107513007835
:10D7E00012121932EEFCEFFDE50A240DFAE50B34B6
:10D7F00000FB12048E74021216DEE50A2421F50ADB
:10D80000E50B3400F50BE50C450D6021E50F701DAF
:10D81000850A82850B8312CE6E60031205247C1B61
:10D820007D00AA0CAB0D8027E0C2E2802FE51445F5
:10D8300015602A7401650F7024850A82850B831296
:10D84000CE6E60031205247C1B7D00AA14AB15125A
:10D85000049A850A82850B83EAF0A3EBF09004A773
:10D8600012D4B3700302D928E50C450D6039E0C825
:10D87000241912D4AD700F7A1B7B0012051E12D929
:10D880002B241912D94712D92B241912CE676017ED
:10D89000750A1B750B00780A121932AC0CAD0D120B
:10D8A000048E74021216DEE5164517603112D94156
:10D8B00012D4AD700D7A167B0012051E12D94112DA
:10D8C000D94712CE626017750A16750B00780A12D6
:10D8D0001932AC16AD1712048E74021216DEEE4F1A
:10D8E000603112D4A8700D7A147B0012051E12D973
:10D8F0003B12D94712D93B12CE676017750A1475CF
:10D900000B00780A121932EEFCEFFD12048E74023D
:10D910001216DE7814121932AC0EAA08AB09A9103F
:10D920001209F274021216DE02D1969004A7E0F8F2
:10D93000A3E0C822F582EF12D7352212D92B241D7D
:10D940002212D92B241B22F582E812D735EAF0A344
:10D95000EBF0227F010217F174F412171F74FD120D
:10D9600016C8EAFEEBFF8C088D09EE4F6005EC450A
:10D97000097004790280607903851882851983AA69
:10D9800082AB831211CC7402121713E0543F44404F
:10D99000F078081219327402121713AC82AD83EEBC
:10D9A000FAEFFB1211B474021216DEE9FE7026754E
:10D9B0000A03750B00780A1219327402121713AC9D
:10D9C00082AD83E5082403FAE5093400FB12048ED6
:10D9D00074021216DEEEF9740302DA8374F412177D
:10D9E0001F74FA1216C88A088B09ECFEEDFFEA458F
:10D9F000096004EE4F7005790202DA7E750A03753C
:10DA00000B00780A121932EE2403FCEF3400FD7487
:10DA100002121713AA82AB8312048E74021216DE4E
:10DA20007402121713E0543F4440F07403121713AA
:10DA300085820A85830B780A121932740212171331
:10DA4000AC82AD83AA08AB091211B474021216DEBF
:10DA5000E9702B7508037509007808121932EEFC7D
:10DA6000EFFD7405121713AA82AB831204A074028F
:10DA70001216DEE9640170047900800279017406EF
:10DA800002DA831216DE7F040217F174E812171F00
:10DA900074E81216C88A0A8B0B89178C088D09EA5C
:10DAA000450B6005EC45097005790202DBDB740467
:10DAB0002517F516FA7B0012051E8A0C8B0DAE0C8D
:10DAC000AF0DEE4F700302DBD61209628A0C8B0D8C
:10DAD0008C0E8D0F8517107511007810121932AC4D
:10DAE0000AAD0BEE2404FAEF3400FB120494740226
:10DAF0001216DE8E828F83A3A3A3E50CF0E50DF54D
:10DB0000158E828F83A3A3F0850C10F511850E125C
:10DB1000850F13741078101214C6E510F5148E8258
:10DB20008F83A3F0850C10850D11F512850F1374EA
:10DB30001878101214C6E510F50A8E828F83F075DE
:10DB40001010781012193212095CEAFCEBFD740A0D
:10DB5000121713AA82AB8312049474021216DE8584
:10DB600018828519838582108583117810121932E5
:10DB7000A916EEFCEFFD740A121713AA82AB8312EA
:10DB800011E474021216DEE9F50B704185088285F6
:10DB90000983E50CF0A3E51512DBE0E51412DBE0E8
:10DBA000A3E50AF0750C08750D00780C1219327493
:10DBB00002121713AC82AD83E5082404FAE5093498
:10DBC00000FB12049474021216DE120968EEFAEFDA
:10DBD000FB1205248003750B13A90B741802E1E5F1
:10DBE000F0850882850983A3A32274E812171F74A5
:10DBF000DD1216C87401121713EAF0A3EB12E5CF79
:10DC00008C168D17EC4517700302DCB5743C1217A7
:10DC10001312DE03700302DCB5740112171312DE57
:10DC2000E5120DF48A148B15EA4515700579140276
:10DC3000DDFE850882850983E0F510E4F511F51213
:10DC4000F513A3E0F50CE4F50DF50EF50F74087867
:10DC50000C1214DF7810790C1214FE8508828509E5
:10DC600083A3A3E0F50CE4F50D7410780C1214DF17
:10DC70007810790C1214FE850882850983A3A3A36A
:10DC8000E0F50CE4F50E7418780C1214DF781079B6
:10DC90000C1214FEEA241DF582EB12E726780C1212
:10DCA00015987810790C121397400F90817F780C9B
:10DCB0001213826005790202DDFE851882851983C0
:10DCC000E060118A828B83A3A3A3E0A2E1400579DF
:10DCD0000102DDFE7C087D0079007403121713AA8F
:10DCE00082AB831204A6743B121713E0F50E740482
:10DCF000250EF50AFA7B0012051E8A0C8B0DAE0C60
:10DD0000AF0DEE4F7005791302DDFE750F00780E32
:10DD1000121932AC16AD17EE2404FAEF3400FB12E0
:10DD2000049474021216DE750C04750D00780C1242
:10DD30001932AC08AD09EEFAEFFB1204947402122A
:10DD400016DE750C10780C121932E514240DFCE562
:10DD5000153400FD7415121713AA82AB83120494B4
:10DD600074021216DE740312171385820C85830D5C
:10DD7000780C121932A90AEEFCEFFD741512171374
:10DD8000AA82AB831211E474021216DEE9F50A705E
:10DD900064750C08750D00780C1219327405121791
:10DDA00013AC82AD83740D121713AA82AB831204D5
:10DDB0009474021216DE780C121932E5082404FC61
:10DDC000E5093400FD740D121713AA82AB83120407
:10DDD000A074021216DEE964016005750A0180155F
:10DDE000781012192E740512171312DEE512096E3F
:10DDF00074041216DEEEFAEFFB120524A90A74234E
:10DE000002E1E512E1EDE50845092274F412171F5D
:10DE1000890812DF43700302DEE0E508705C12DE61
:10DE2000F1E0750A08750B00780A702E121932EAB3
:10DE3000FCEBFD900938E02402FAA3E03400FB1269
:10DE4000048E74021216DE120C98E9700812DEEBD2
:10DE5000740102DEDB750801801B121932EAFCEB4B
:10DE6000FD900938E0240AFAA3E03400FB12048E86
:10DE700074021216DE12DF4360627A127B00120413
:10DE8000B28A0A8B0BAE0AAF0BEE4F603F8E828FC9
:10DE90008374C1F0A3E508F0750A10750B00780AC9
:10DEA000121932900938E02402FCA3E03400FDEEA0
:10DEB0002402FAEF3400FB12048E74021216DEEE16
:10DEC000FAEFFB12DEEBA3E0F91204BE9009381260
:10DED000DEE5120524900938E4F0A3F07901800210
:10DEE000790002DA86E0FAA3E0FB22900938E0F834
:10DEF000A3E0F58388822274F212171F7A207B0038
:10DF00001209268A088B09E4F50AF50B8B0DEA4500
:10DF10000D6016780812192E7A017B00900940E0F6
:10DF2000F912056074041216DE02DFF8C082C083A5
:10DF30007A017B00900940E0F912056CD083D08211
:10DF4000020135900938E0F8A3E0F9E8492274F2BB
:10DF500012171F74D01216C88A0A8B0BECFEEDFF45
:10DF6000743E12171312DFC31204A6750C10750D40
:10DF700000780C121932AC0AAD0B7402121713AAF6
:10DF800082AB8312049474021216DE750A03750BB9
:10DF900000780A121932EEFCEFFD741F121713AA53
:10DFA00082AB8312049474021216DE8518828519DE
:10DFB00083AA82AB831211DEE9FE780A1219327449
:10DFC0002F801B12E1ED7C307D0079008518828561
:10DFD0001983AA82AB8322780A121932742212178B
:10DFE00013AC82AD83AA08AB091204947402121612
:10DFF000DEEEF974301216DE7F060217F174E812B5
:10E00000171F74B01216C8EAFEEBFF8C168D178925
:10E010000A746812171312E1ED746A121713E0F50F
:10E020000CA3E0F50D746C121713E0F510A3E0F5E6
:10E0300011746E121713E0F50B746F121713E0F5DD
:10E0400014A3E0F5157471121713E0F50EA3E0F5B3
:10E050000F7C307D0079007420121713AA82AB83E5
:10E060001204A67512107513007812121932EEFC04
:10E07000EFFD7422121713AA82AB83120494740268
:10E080001216DE7C107D007900851882851983AA1E
:10E0900082AB831204A67512077812121932AC08EB
:10E0A000AD097402121713AA82AB8312049474028E
:10E0B0001216DE7508077509007808121932AC0CC3
:10E0C000AD0D7409121713AA82AB83120494740263
:10E0D0001216DEE50B6009740E1217137401800628
:10E0E000740E121713E4F0E50A6009740F12171387
:10E0F00074018006740F121713E4F07C107D007910
:10E1000000EC121713AA82AB831204A675080678D6
:10E1100008121932AC10AD117416121713AA82AB83
:10E120008312049474021216DE7808121932AC14A9
:10E13000AD15741C121713AA82AB831204947402D7
:10E140001216DE7508107808121932AC16AD177465
:10E1500032121713AA82AB8312049474021216DED1
:10E16000851882851983AC82AD837430121713AA87
:10E1700082AB831211C07420121713AA82AB8312D0
:10E1800011DEE9FE78081219327442121713AC82BC
:10E19000AD837432121713AA82AB8312048E7402F9
:10E1A0001216DE7410121713AC82AD83743012177E
:10E1B00013AA82AB831211C07420121713AA82AB68
:10E1C000831211DEE9FF7808121932744212171314
:10E1D000AC82AD83AA0EAB0F12049474021216DE49
:10E1E000EE4FF974501216DE7F100217F1E0F508B9
:10E1F000A3E0F5092274F712171F79108C828D8322
:10E20000E0F88A828B83E068F0A3AA82AB838C82D9
:10E210008D83A3AC82AD8319E970E102D95374F206
:10E2200012171F74D01216C88C0A8D0B743E121769
:10E2300013E0FEA3E0FF744012171312E1ED750C1A
:10E2400010750D00780C121932EAFCEBFD74021205
:10E250001713AA82AB8312049474021216DE750C93
:10E2600008780C121932AC0AAD0B7412121713AAEB
:10E2700082AB8312049474021216DE750A08750BC1
:10E2800000780A121932EEFCEFFD741A121713AA65
:10E2900082AB8312049474021216DE8518828519EB
:10E2A00083AA82AB831211DEE9FE750A1002DFD762
:10E2B00074F412171FEAFEEBFF890B750A00801831
:10E2C0001204AC12E71DEBF0050AE50AC3950B50EA
:10E2D0000712E71DEAF0050AE50AC3950B40E102C3
:10E2E000DA86C082C0838A828B83E0F902DF3C74C5
:10E2F000F612171F8982AE82E9A2E25004D2F080A2
:10E3000002C2F08A828B83E054FCFCA3E0FDEC4E59
:10E310005403FCA2F0E433F5087509007402780890
:10E320001216B5EC4508FCE9131313541FF50874D5
:10E330000378081216B5EC45088A828B83F0A3EDAA
:10E34000F07F020217F174F612171FEA2420F50875
:10E35000EB3400F5097808121932EA2410FCEB348A
:10E3600000FD120E5474021216DE80D574E81217E6
:10E370001F74ED1216C87401121713ECF0A3ED12FE
:10E38000E5CF8A168B177A107B0012051E8A128B36
:10E39000137A107B0012051E8A108B11E5124513AB
:10E3A000700302E5ABEA4511700302E5AB78101289
:10E3B0001932AC12AD13AA16AB171211EA7402127D
:10E3C00016DEE9F50A600302E5B47A107B00120557
:10E3D0001E8A0C8B0D7A107B0012051E8A0E8B0F85
:10E3E000E50C450D700302E58CEA450F700302E56C
:10E3F0008C851882851983E0240FF8E43400F97ABB
:10E40000107B0012163588088909AE08AF09E05460
:10E410000FFCEE4F70067E017F008007EC700478E1
:10E420000180027800EE14C454F0FA74011217133C
:10E43000E02AFAA3E03400FBE8A2E0500B780E12C9
:10E440001932AC12AD1380538C0B7508008508820D
:10E45000AC827403121713E5822CF8E5833400F9BB
:10E46000ECC3950B500FEA2CF582EB12E726E088FF
:10E47000828983800FE50B65088882898370047424
:10E48000808001E412E72B40C4780E121932AC10E0
:10E49000AD117405121713AA82AB831211F0740226
:10E4A0001216DE7C107D007900AA0CAB0D1204A6BA
:10E4B00075080075090080587403121713858214BB
:10E4C0008583157814121932E508C454F0F87403E2
:10E4D000121713E028FCA3E03400FDAA0CAB0D12C8
:10E4E00011F074021216DE780C121932740512172C
:10E4F00013AC82AD83AA16AB17120E547402121617
:10E50000DEE9F50AE5082401F508E5093400F50916
:10E51000EE24FFF8EF34FFF9C3E50898E50999A266
:10E52000D265D0335004E50A608EE50A7067740343
:10E530001217138582088583097808121932AC0EE8
:10E54000AD0FAA0CAB0D1211F074021216DE780C8E
:10E550001219327405121713AC82AD83AA16AB17C9
:10E56000120E5474021216DEE9F50A7508087509D0
:10E57000007808121932AC0CAD0D742D121713125D
:10E58000DEE512048E74021216DE8009750A13E5A8
:10E590000C450D6007AA0CAB0D120524E50E450FC6
:10E5A0006012AA0EAB0F1205248009750A13E5123A
:10E5B00045136007AA12AB13120524E5104511603C
:10E5C00007AA10AB11120524A90A741302E1E5F0A1
:10E5D000E9851882851983F02274EE12171F8A08C4
:10E5E0008B098C0E8D0F7A107B0012051E8A0C8B06
:10E5F0000D7A107B0012051E8A0A8B0BAE0AAF0B38
:10E60000E50C450D700302E6BAEE4F700302E6BA60
:10E610007C107D0079001204A6780C121932EEFCF1
:10E62000EFFDAA08AB09120E5474021216DEE9F5CA
:10E630000A600302E6C37508D9750980850C8285D6
:10E640000D83E0A2E7400DAC0EAD0FAA0CAB0D128E
:10E6500011F68020EEFCEFFDAA0CAB0D1211F6783E
:10E660000E121932AC08AD09EEFAEFFB1211F0747C
:10E67000021216DE7412121713E0F510A3E0F51162
:10E68000850E82850F83E0A2E7400DAC10AD11AA84
:10E690000EAB0F1211F6802BEEFCEFFDAA0EAB0FA6
:10E6A0001211F67810121932AC08AD09EEFAEFFB30
:10E6B0001211F074021216DE8009750A13E50C457A
:10E6C0000D6007AA0CAB0D120524EE4F6007EEFAA1
:10E6D000EFFB120524A90A7F0A0217F174F612173C
:10E6E0001F750800740A121713E0F8A3E0F98508F3
:10E6F00082AE82EC2EF582ED12E726E0F509EA2ED5
:10E70000F582EB12E726E06509C0E0E82EF582E924
:10E7100012E726D0E012E72B40D402E341850A0835
:10E72000EE2508F582EF3400F58322F00508E508B0
:10E73000C394102274F512171F75090075080FE5B0
:10E7400008F83395E0F9EA28FEEB39FF8E828F83D3
:10E75000E0C3334509C0E0EC28F582ED39F583D0FC
:10E76000E0F08E828F83E0A2E7E433F50974FF25A1
:10E7700008F508C39400A2D265D03350C27F0302CB
:10E7800017F174F012171F8908ECFEEDFF750900F0
:10E79000898285820A750B008A0C8B0D780C121900
:10E7A00076010318B9EAD8E7F0E708E8B9EA21E802
:10E7B00090E8A2E8DCE81FE93DE95BE97BE999E93B
:10E7C000B9EAB7E903EA20EA35EA44EA5FEAB9EAD6
:10E7D000B9EAB9EAB9EA7BEA74106508600302EAAB
:10E7E000B4750A10780A1219327AFE7B0302E970B6
:10E7F00074106508600302EAB4750A10780A1219E9
:10E80000327A0E7B0402E97074046508600302EA40
:10E81000B48E828F831215B690041E1215C202EABE
:10E82000DA74016508600302EAB49009FAE0F88E30
:10E83000828F83E09009FAF0E86026E0600302EA44
:10E84000DA9003FCE06402600DE064066008E064B6
:10E8500004600302EADA9003FBE0F9120A2802EAF4
:10E86000DAE0700302EADA9003FCE064016012E08F
:10E870006403600DE064056008E06404600302EA7C
:10E88000DA7A017B009003FBE0F91204E202EADA93
:10E8900074026508600302EAB412F3B59009FB0242
:10E8A000EA59E9C39420400302EAB47C1F7D007951
:10E8B000007AFE7B091204A6780A121932EEFCEFE8
:10E8C000FD7AFE7B0912048E74021216DEE50890B2
:10E8D00009FDF07CFE7D09FB7A018038E9C39420B4
:10E8E000400302EAB47C1F7D0079007A297B041280
:10E8F00004A6780A121932EEFCEFFD7A297B041285
:10E90000048E74021216DEE508900428F07C297D3E
:10E9100004FB7A009003FBE0F9120A2202EAD274A7
:10E92000016508600302EAB48E828F83E0F8C39425
:10E9300005400302EAB4E890044802EA78740165ED
:10E9400008600302EAB48E828F83E0F8C394044027
:10E950000302EAB4E890044902EA787406650860A4
:10E960000302EAB4750A06780A1219327A4A7B045D
:10E9700012048E74021216DE02EADA74016508606F
:10E980000302EAB48E828F83E0F8C3940840030246
:10E99000EAB4E890045002EA787401650860030262
:10E9A000EAB48E828F83E0F8C39404400302EAB491
:10E9B000E890045102EA7874026508600302EAB440
:10E9C00012F3B590045212F39AE849700302EADA9E
:10E9D0009003FCE06405600302EADA900452E0F57B
:10E9E0000CA3E0F50DE4F50EF50F780C12192E7A54
:10E9F000027B009003FBE0F912056074041216DE3E
:10EA000002EADA74016508600302EAB48E828F8339
:10EA1000E0F8C39402400302EAB4E890045A805834
:10EA200012EAF5600302EAB412EAE9400302EAB42A
:10EA3000900A1F803F12EAF5707A12EAE950759049
:10EA40000A21803012F3B5740265087067C3E89438
:10EA5000F4E99401505E90045BE8F0A3E980191298
:10EA6000EAF57050EA24F612EAE19477E9940C5042
:10EA700043900A23EAF0A3EBF0805F74016508700D
:10EA8000338E828F83E06401702A7A087B009003C2
:10EA9000FBE0F9120572EA4B4C4D70137900120736
:10EAA000D07A047B009003FBE0F912056C802B7593
:10EAB000091680267509188021C3EA9427EB940073
:10EAC000501574026508700F8E828F8312EF0F123B
:10EAD0000920E9F5098003750902A9097F080217D1
:10EAE000F1F8EB34FFF9C3E822EA24FA12EAE194E0
:10EAF0007BE9940C228E828F83E0FAA3E0FB740200
:10EB000065082274F412171FECFEEDFF7508008AE9
:10EB10000A8B0B780A12197600031A5CEC53EB5936
:10EB2000EB6BEB7DEB8DEB9FEBA5EBABEBBAEBC9A6
:10EB3000EBCFEBD5EBE6EBEBEBF0EBF5EBFAEB0722
:10EB4000EC0CEC11EC16EC1BEC38EC3DEC42EC5C04
:10EB5000EC52EC9003FD02EC55750A10750B007831
:10EB60000A1219327CFE7D0302EC2A750A10750B1D
:10EB700000780A1219327C0E7D0402EC2A90041EE1
:10EB80001215B68E828F831215C202EC76750A06B4
:10EB9000750B00780A1219327C227D0402EC2A904F
:10EBA00009FA02EC559009FB02EC459009FD12ECC4
:10EBB0007A1219327CFE7D09807090042812EC7A5A
:10EBC0001219327C297D04806190044802EC559032
:10EBD000044902EC55750A06750B00780A121932C1
:10EBE0007C4A7D048044900450806A900451806582
:10EBF000900A1D8050900452804B90045AE08E82FF
:10EC00008F83F0A3E48069900A1F8039900A2180E5
:10EC10003490045B802F900A23802A750A06750BB6
:10EC200000780A1219327C547D04EEFAEFFB1204CC
:10EC30008E74021216DE803E90045D800890045FA0
:10EC4000800390046112F3B98E828F83E8F0A3E908
:10EC5000801E9003FCE08E828F838014C3EA942789
:10EC6000EB9400500E1209268E828F83EAF0A3EBFC
:10EC7000F08003750802A908800CE0F50A750B0006
:10EC8000780A221216DE7F040217F174F612171F9B
:10EC90009003FCE0703EEA4B6008900464EAF0A345
:10ECA000EBF075081E750904780812193275080E04
:10ECB00075090478081219327CFE7D037B009003ED
:10ECC000FDE0FA9003FBE0F91205BA74041216DEB7
:10ECD0007900800279117F020217F1D083D082027D
:10ECE0000135C082C0839003FCE06405700F7C1383
:10ECF00012F3F69003FBE0F91209A4800279128066
:10ED0000DA74F712171FE99003FBF09003FCE4F0AC
:10ED1000900A1D74FFF0A3F0120A709003FD7404B2
:10ED2000F07C107D0079007AFE7B031204A67C1033
:10ED30007D0079007A0E7B041204A690041EE4F094
:10ED4000A3F0A3F0A3F0900448F0900449F09004DD
:10ED5000507407F0900451E4F07CFE7D037A107942
:10ED6000021207947C0E7D047A1079031207947CBA
:10ED70001E7D047A0479041207947F010217F1744E
:10ED8000F412171F74F61216C8EAFEEBFF548060E7
:10ED9000239003FBE0F91204CA8A088B09EA4509AB
:10EDA000600A1207C4AA08AB091204B8EEFAEF64AD
:10EDB0008002EF03EF544060137C1E7D047A0479D7
:10EDC0000412078EEEFAEF644002EF03EEA2E04079
:10EDD0000302EE809009FAE0700302EE7A9003FCE1
:10EDE000E06405700B8518828519837403F08039FF
:10EDF000900448E0851882851983F0900449E0C0AA
:10EE0000E07401121713D0E0F07508067509007858
:10EE1000081219327C4A7D047404121713AA82ABBB
:10EE20008312048E74021216DE900450E0C0E07467
:10EE300008121713D0E0F0900451E0C0E0740912FA
:10EE40001713D0E0F0851882851983AA82AB8390CE
:10EE500003FBE0F9120A1CE960209003FC7407F040
:10EE600012F3FF601512F3AF12F3B988828983E5BC
:10EE70008245836005790712171DEE640102EF01D8
:10EE8000540260359003FCE06405702812F3F6121A
:10EE90000C6290045212F402601A90045212F3E7CA
:10EEA00012192E7A027B009003FBE0F912056074C0
:10EEB000041216DEEE64028048EE5404600A790003
:10EEC0001207D0EE64048039EE5408603990046370
:10EED000E01460081470271207B28022900A2312EF
:10EEE000194990045B1219497901900A2112EF0F18
:10EEF000900A1F12F3F91207D674041216DEEE649C
:10EF000008FAEFFB80047A007B00740A02EC83E0CD
:10EF1000FCA3E0FD2274F412171FEA2405F8EB3479
:10EF200000F98A828B83E0246F600B24EF606D24EC
:10EF3000D2606402EFF7A3E0640E600302EFF78A89
:10EF4000828B83A3A3A3E064057004A3E064146030
:10EF50000302EFF78882898312F3ACA3A3A3E0F93D
:10EF60009003FCE06405600302EFF7747F697003AF
:10EF700002EFF790046412F3F9EA4B607A900464AC
:10EF800012F3ACA3A312F3F98A828B83E582458343
:10EF9000606512171D80601207CA805B88828983B2
:10EFA000E0641370528A828B83A3A3A3A3A3A3E07C
:10EFB00064017002A3E07019900463E064027011B0
:10EFC0007A087B009003FBE0F912056C1207B2800F
:10EFD000267A057B001209268A088B09E4F50AF5D2
:10EFE0000B780812192E7A087B009003FBE0F912C7
:10EFF000056074041216DE02EC8674EC12171FEA28
:10F00000FEEBFF8E828F83A3A3E0F8EE2403F50CC2
:10F01000EF3400F50DEE240AF50AEF3400F50B8EFF
:10F02000828F83A3858208858309E8602724FE7088
:10F030000302F0C814700302F12914700302F129CD
:10F0400014700302F18E14700302F2A5147003020F
:10F05000F317806FE0704B7CFE7D037A107902120B
:10F06000078E7C0E7D047A10790312078E750806D0
:10F070007509007808121932AC0CAD0D7A227B04A8
:10F0800012048E74021216DE9003FC7401F07CFEF2
:10F090007D099009FDE0FB7A019003FBE0F9120A7B
:10F0A00022E9707C12F3FF601A12F3AF12F3B9E891
:10F0B000FAE9FBEA4B600C9003FCE0F98A828B834F
:10F0C00012171D7F0C0217F1E0704C850C82850D24
:10F0D00083E0601D7C297D04900428E0FB7A009089
:10F0E00003FBE0F9120A22E9850882850983F08092
:10F0F000269003FCE06402601E7A017B009003FB13
:10F10000E0F9120572EA4B4C4D700C7A017B0090CD
:10F1100003FBE0F91204E2850882850983E060A31D
:10F120009003FC7407F002F0A4E070F474036870BC
:10F13000109003FCE064057004740680E87402809B
:10F14000E49009FB12F4029009FA601FE0601E903F
:10F1500009FB12F3E712192E7A017B009003FBE002
:10F16000F912056074041216DE8002E4F09003FCCC
:10F17000E064067004740580ACE06404700C9009CF
:10F18000FA12F3A01204E202F0A474038097E0F8EC
:10F19000600302F292EE2404F508EF3400F50975DD
:10F1A0000E06750F00780E121932AC08AD097A54AC
:10F1B0007B0412048E74021216DE850A82850B838C
:10F1C00012F3B9900A1D12F39A9003FC7405F090A3
:10F1D000045212F4026025900452E0F510A3E0F509
:10F1E00011E4F512F513781012192E7A027B0090B3
:10F1F00003FBE0F912056074041216DEEE240CF530
:10F2000082EF3400F58312F3DBEE240EF582EF3447
:10F2100000F58312F3CFEE2410F582EF3400F5836E
:10F2200012F3C390045AE06401703B7A1F7B001212
:10F2300009268A10EA75F0E8A4C510A8F075F00355
:10F24000A428F875F0E8EBA428F511E4F512F513FD
:10F25000781012192E7A047B009003FBE0F9120556
:10F260006074041216DE750E04780E121936850AC3
:10F2700082850B8312EF0FAA08AB09850C82850DDE
:10F2800083E0F91205C674011216DE9009FAE40251
:10F29000F125743168600302F1209009FAE4F090DE
:10F2A00003FC02F18A1205E47C067D0079007A54A1
:10F2B0007B041204A690045DE4F0A3F090045FF0D8
:10F2C000A3F0900461F0A3F07A04FB9003FBE0F953
:10F2D00012056C7A087B009003FBE0F912056C8E36
:10F2E000828F83A3A3A3A3A3E064089003FC70040C
:10F2F000740480027403F09009FAE0600A9003FB42
:10F30000E0F9120A28800612F3A01204E2900A1D06
:10F3100074FFF0A302F1257A087B009003FBE0F96B
:10F3200012056C850882850983E0600302F0C38EB4
:10F33000828F83A3A3A3A3A3A312F3DB8E828F8365
:10F34000A3A3A3A3A3A3A3A312F3CF850A82850B30
:10F350008312F3C37A047B009003FBE0F912057279
:10F36000EA4B4C4D600302F0C390046612F4027045
:10F370000302F0C390046112194990045F12EF0F69
:10F3800090045D12F3F990046612F3AC12F3AC1220
:10F39000171D74021216DE02F0C3E8F0A3E9F02292
:10F3A0007401F0FA7B009003FBE0F922E0F8A3E09F
:10F3B000F5838882228E828F8312F3BD22E0F8A328
:10F3C000E0F92212F3BD900461E8F0A3E9F0221203
:10F3D000F3BD90045FE8F0A3E9F02212F3BD9004BE
:10F3E0005DE8F0A3E9F022E0F508A3E0F509E4F513
:10F3F0000AF50B780822900A1DE0FAA3E0FB2290A0
:10F40000046412F3BDE8492274F412171F74F81251
:10F4100016C8E9FE900A1F12F3B975830475825D60
:10F42000C3E098A3E099403890045D12F3B9758366
:10F430000A758221C3E098A3E099402490045F12EA
:10F44000F3B990045BE0687003A3E0697012900464
:10F450006112F3B9900A23E0687003A3E069607950
:10F460007A057B001209268A088B09900A1F12F37D
:10F47000B985188285198312F39A900A2112F3B97B
:10F48000740212171312F39A90045B12F3B9740406
:10F4900012171312F39A900A2312F3B97406121773
:10F4A0001312F39A9003FBE0F9851882851983AC57
:10F4B00082AD8312F3F6120D3AEE900463F0E4F598
:10F4C0000AF50B780812192E7A087B009003FBE0EE
:10F4D000F912056074041216DE740802EC8374F4E9
:10F4E00012171FE9FE9003FCE06405600579140221
:10F4F000F575EA24FAF8EB12F5785077EC24FAF86F
:10F50000ED12F578506D740C121713E0F50AA3E0B4
:10F51000F50BC3E50A94F4E50B94015056740E12F2
:10F520001713E0F508A3E0F509E50824F6F8E50966
:10F5300012EAE39476E9940C5039900A1FEAF0A39A
:10F54000EBF0900A21ECF0A3EDF090045BE50AF0FB
:10F55000A3E50BF0900A23E508F0A3E509F0EEF926
:10F560001207D07A047B009003FBE0F912056C7956
:10F57000008002791802EC8612EAE3947AE9940C8E
:10F580002274F212171FECFEEDFF8A828B83A3A375
:10F59000A3A3A3A3A3A3E0F50A700302F67EEA24C3
:10F5A00006F8EB3400F9880889098882F583E0FCC5
:10F5B000A3E0FD8C828D83E0F50BA2E7504CE50AB9
:10F5C000C3940D500302F67E74F4250AF50AF50C77
:10F5D000EC250CF50CED3400F50D780C121932E524
:10F5E0000AF50C780C12193679018A828B83A3A351
:10F5F00012FA5B12119C74031216DEE98E828F835D
:10F60000700474018009740280058E828F83E4F097
:10F61000E50BA2E65004D2F08002C2F0A2F0E4337F
:10F62000A3F0743F550B8E828F83A3A3F0EE2403C7
:10F63000F8EF3400F9E50A24FFFAE434FFFB88828E
:10F640008983EAF0A3EBF0EE2405FAEF3400FB889F
:10F6500082898312FCB3496019850882850983E099
:10F660002401F8A3E03400F98A828B83E8F0A3E94F
:10F6700080078A828B83E4F0A3F07900800279010D
:10F680007F060217F174F712171F8C828D8312F90F
:10F69000528C828D83A3A882A98312F95B8C828D00
:10F6A00083A3A312F6AD7A047B0002F709A312FB31
:10F6B000C722C082C08312FBAE7A02802574F71283
:10F6C000171F740912171312FA5B740B1217131217
:10F6D000FA547001EB700512FA61800279048029F6
:10F6E00080D07B00D083D08202013574F712171FBF
:10F6F000740912171312FBEF7001E9700A740B12F0
:10F70000171312FBF6800279047F010217F174EEE1
:10F7100012171FEAFEEBFF8C0C8D0D7508017509A1
:10F72000008C828D83A385820E85830F12F8147559
:10F730000A00803BE51075F012A4F510E5F0F51114
:10F7400012F7DB751010751100781012193212F7CC
:10F75000CF12048E74021216DEEE2410FEEF340077
:10F76000FFE5082412F508E5093400F509050A85C6
:10F770000C82850D83E0F8E50AC398504B8E828F8A
:10F7800083A3AA82AB83850A8285821075110085C6
:10F790000E82850F83E06401709A7402781012164D
:10F7A000B512F7DB751002751100781012193212BC
:10F7B000F7CF12048E74021216DEEE2402FEEF342E
:10F7C00000FFE5082404809DAA08AB0902FE93EC23
:10F7D0002404FCED3400FD0AEFFB22E50C2510FCAF
:10F7E000E50D3511FD12F7F712F80DEAFEEBFF8873
:10F7F00082898312F80422EC2402F8ED3400F9889F
:10F8000082898322A312F80DA30EAF8322E08E8299
:10F810008F83F02212F80DA3AE82AF832274F2120E
:10F82000171FECFEEDFF740E121713E0F50AA3E0AC
:10F83000F50BC3E50A9406E50B9400500302F8E7C4
:10F84000741012171312F8EC8E828F83E0FAA3E083
:10F85000F9EA850882850983F0A3E9F08E828F8317
:10F86000A3A3E0FA8E828F83A3A3A3E0F8E4C8F9F0
:10F87000EA850882850983A3A3F0A3E912FFAAA35E
:10F88000A3A37402F0F50C880D780C121932EE2443
:10F8900004FCEF3400FDE5082405FAE5093400FB1B
:10F8A00012048E74021216DEE50A24FAF50A85089F
:10F8B00082850983A3A3A3A3A3A3A3F0C394115098
:10F8C00026750B00780A121932EE2406FCEF34007C
:10F8D000FDE5082408FAE5093400FB12048E7402E1
:10F8E0001216DE79008002790402F68012FD9AF584
:10F8F000092274F512171F750A008035850A0875EC
:10F900000900740278081216B5EC2508F8ED3509DF
:10F91000F988828983A3AE82AF8312F9528E828FD7
:10F920008312FC31E82403F8E912F7FC12F95B05B5
:10F930000A8C828D83E0F508E50AC3950840BD7501
:10F940000900740278081216B5AA08AB097F0302F1
:10F9500017F112F6AEA3AA82AB832212FAE6A30A2B
:10F96000AB832274101216DE7F040217F174F612B4
:10F97000171F740C12171312FA5BEA2404F8EB3405
:10F9800000F9740A121713E0FEA3E0FF74066E700C
:10F9900001EF7046888289837402F08C828D831215
:10F9A000F9EE8A828B83F0A3EF12FD3AFEE4CEFFDC
:10F9B000E5088A828B83A3A3F0A3EFF08882898372
:10F9C000E0F5088E09780812193212FD2912048E0A
:10F9D00074021216DE790002FAC174146E7001EF1F
:10F9E000700888828983741080B0790480E912FDE0
:10F9F0009AFFE5082274F612171F8C828D83A3E00C
:10FA0000F8F5F08C828D83E0A4FEE88A828B83F087
:10FA1000A3AA82AB838E08750900780812193212E6
:10FA2000FCAA12048E74021216DEEE240102FABC45
:10FA300074F712171F740912171312FA5B740B1262
:10FA4000171312FA547001EB700512FA61800279F3
:10FA50000402F70912FB7974026A22E0FAA3E0FBC0
:10FA60002212FC1B79002274F612171FECFEED1215
:10FA7000FACA1219328E828F83A3AC82AD8312042C
:10FA80008E74021216DE8E828F83E0FA7B00803144
:10FA900074F612171F12FAD8A30AAB83EC240412CF
:10FAA000FAC6121932EC2405FCED3400FD12048E66
:10FAB00074021216DE8E828F83E02404FAE434008E
:10FAC000FB7F020217F1FEED3400FF8E828F83E090
:10FAD000F50875090078082212FBB2A30AAB83125D
:10FAE000F7F712FAE62212FBC7A30AAB83888289D2
:10FAF0008312FBC62274F412171F89088A09740C3A
:10FB000012171312FB75C3E89402E9940040617464
:10FB10000E12171312FA5B8C828D83E0F50AA3E0B4
:10FB2000FFE50A8A828B83F0A3EFF0EA241712FF25
:10FB3000B3E508F0EA241812FFB3E509F0E5087010
:10FB4000047E1480027E08E824FEF50A8A828B83F4
:10FB5000A3A3F0EEC3950A4017750B00780A12199B
:10FB60003212FD8312048E74021216DE79008002B6
:10FB7000790402F96812FB7922E0F8A3E0F9227413
:10FB8000F612171F12FBAEA30AAB83EC240212FA83
:10FB9000C6121932EC2403FCED3400FD12048E74FD
:10FBA000021216DE8E828F83E0240202FABC12FB60
:10FBB000B2228C828D8312FBC7A3AA82AB838C8274
:10FBC0008D8312FBC622A3E08A828B83F02274F716
:10FBD00012171F740912171312FBEF7001E9700A54
:10FBE000740B12171312FBF68002790402F7091244
:10FBF000FB797404682212FB7912FC1B8C828D83C2
:10FC0000A3A3E0FE8C828D83A3A3A3E0FBEE8882F6
:10FC10008983A3A3F0A3EBF07900228C828D83E08B
:10FC2000FEA3E0FBEE88828983F0A3EBF02202FAC8
:10FC30006712F6ADA30AAB832274F612171F740A7B
:10FC400012171312FCB3A2E0405BE9C313E813F5EB
:10FC50000974FE2509C3940A504B740C1217131231
:10FC6000FCB32416F582E912FFB6E509F075080029
:10FC700080288C828D83E0FEA3E0FBEE2400E43B31
:10FC8000FFE50833FAE433FBE82AF582E93BF58324
:10FC9000EEF0A3EFF012FCAA0508E508C3950940B1
:10FCA000D179008002790402FAC1EC2402FCED341F
:10FCB00000FD2212FB79E82202FA6702F9F574F6D8
:10FCC00012171F740A121713E0FEA3E0FFC3EE948D
:10FCD00004EF9400404E740C12171312FD8FF9E5D7
:10FCE000088A828B83F0A3E912FD3AF8E4C8F9E5AB
:10FCF000088A828B83A3A3F0A3E9F0EE24FCF50825
:10FD00008A828B83A3A3A3A3F0C3941350168809FC
:10FD1000780812193212FD2912048E74021216DEAE
:10FD200079008002790402FAC1EC2404FCED34006D
:10FD3000FDEA2405FAEB3400FB22F08C828D83A3CC
:10FD4000A3E0F5088C828D83A3A3A3E02202FA909E
:10FD5000C082C08385188285198312FA5B740212EF
:10FD6000171312FB7574016A7001EB700E8C828D93
:10FD700083E088828983F079008002790402F6E4C6
:10FD800002FB7F12FCAAEA2403FAEB3400FB2212E6
:10FD9000FDA08C828D8312FD9A22E0F508A3E0225B
:10FDA000E0F8A3E0F9E8FAE9FB2274EE12171F74F9
:10FDB000FA1216C88A0E8B0F8C0A8D0B890C7418D8
:10FDC000121713E0F510A3E0F5117A177B00120D5E
:10FDD000D68A088B09AE08AF09EE4F700302FE8980
:10FDE0008E828F83750801750900E50CF0A3E50A82
:10FDF000450B601BAC10AD11AA82AB83850A8285CE
:10FE00000B8312171DEA2401F508EB3400F509E510
:10FE10000CA2E7502E7910AA0EAB0F120E00E9705B
:10FE200063EE2508FCEF3509FDA908EEFAEFFB1299
:10FE30001196E9F50A7044E508240CF508E5093443
:10FE400000F5098518828519837404F0A3E4F07421
:10FE500002121713EEF0A3EFF07404121713E50863
:10FE6000F0A3E509F0851882851983AC82AD83AAD9
:10FE70000EAB0F120D2EE9F50A6011EEFAEFFB1230
:10FE8000071C8008750A1980F2750A13A90A7406FE
:10FE90001216DE7F0A0217F174F412171F74F012A3
:10FEA00016C8EAFEEBFF74026C7001ED6008741076
:10FEB0006C7001ED7018741E12171312FB7574022A
:10FEC000687001E9600C7410687001E960047900E1
:10FED0008075741C12171312F8ECE86C7002E96D4F
:10FEE000700F8C0A8D0B780A121932AC08AD09809C
:10FEF0004E74106C7001ED851882851983AC82AD4B
:10FF0000837021AA08AB0912091A75081075090037
:10FF100078081219327402121713AC82AD83EEFA0C
:10FF2000EFFB801B12091A750A10750B00780A1274
:10FF300019327402121713AC82AD83AA08AB0912EE
:10FF400004A074021216DE02F96374F412171F8AF9
:10FF5000088B09ECFEEDFFEA45096049EE4F60456C
:10FF6000750A10750B00780A1219327CE97D80EE53
:10FF7000FAEFFB12048E74021216DE8508828509E0
:10FF800083E0C0E0EE240CF582EF12FFB6D0E01261
:10FF9000FFAAE0C0E0EE240DF582EF12FFB6D0E03C
:10FFA000F079018002790002F968F08508828509FC
:10FFB00083A322F582EB3400F58322C082C08385BF
:10FFC0001882851983E0F8A3E0F9E84960128A8273
:10FFD0008B83ECF0A3E824FF18E934FFF94870F2B2
:10FFE000D083D0820201357403F5D575D4617403D2
:08FFF000F5D375D26902013559
:020000040001F9
:1000000074F612171FE9FE74FF2EF50804C313FEE1
:100010006039EA2508FCEB3400FDEAF8EBF9EEFF65
:1000200088828983E0FA8C828D83E088828983F0DC
:10003000EA8C828D83F088828983A3A882A983ECCD
:1000400024FFED34FF1CFD1FEF70D50284F9C08240
:10005000C08390618FE0F902821374F712171F7446
:10006000FE1216C8E9FE7005791202812E53B4F310
:1000700090619A743FF0A3745AF09061A0E4F090FC
:100080006184F0E5E170FC75E1027F009061BFE002
:1000900070070FEFC394FA40F374FA6F603E7F006D
:1000A0009061BFE0851882851983F09061BFE0F808
:1000B0007401121713E8F0851882851983E0FCE8B3
:1000C000F9ECF849600A740368700374806970077A
:1000D0000FEFC394FA40C974FA6F7004791F804E11
:1000E000EAF8EBF9EEFF9061BFE0F5BDE0F5BDE0A9
:1000F000F5BDE0F5BDE0F5BDE0F5BDE0F5BDE0F531
:10010000BDE5BC88828983F0A3A882A9831FEF7014
:10011000D5E5E170FC75E1017401121713E0F5BC3F
:10012000851882851983E0F5BC120ECC7900740223
:100130001216DE7F010217F1C082C083786C790746
:1001400088828983E08A828B83F088828983A3A84E
:1001500082A9838A828B83A3AA82AB83E8647470AA
:1001600003E9640770DA028213C082C0837874796D
:100170000788828983E08A828B83F088828983A3BF
:10018000A882A9838A828B83A3AA82AB83E864783E
:100190007003E9640770DA028213C082C083E5B39A
:1001A000548F4440F5B3EB900369F0EAA3F0900359
:1001B0006E7410F090036DE054E0F053D1FD75D6ED
:1001C00002E5B354F84404F5B343B301E5B3A2E345
:1001D00050FAED900369F0ECA3F08518828519833D
:1001E000E0F8A3E0900373F0E8A3F09003767410B6
:1001F000F0900375E054E0F053D1FD53D1FB75D678
:100200000275D60453B3F843B301E5B3A2E350FA41
:100210008001F0D083D082020135C082C083900378
:100220006B7470F0A374B1F0A3E0541FF090036FEF
:10023000741DF0A37442F0A37470F0A374B2F09034
:100240000375E0541FF0900377741EF0A37412023C
:100250008212C082C083EA6C7002EB6D604390032F
:1002600065E0541FF09003677420F0A37452F0ED22
:10027000900361F0ECA3F0EBA3F0EAA3F085188201
:10028000851983E0F8A3E0F9E8900366F0E99003AC
:1002900065F053D1FE75D60175D701E5D1A2E050C6
:1002A000FA028213C082C083E5B3548F4450F5B381
:1002B0007480900369F07430A3F090036E7410F0B2
:1002C00090036DE054E0F053D1FD75D602E5B354D0
:1002D000F84406F5B343B301E5B3A2E350FA028252
:1002E0001374F612171F74E01216C8E9FE740F5E3D
:1002F0006004780180027800EEC4540F28FF85184E
:1003000082851983E58264307004E58364806047E8
:10031000900365E0541FF09003677420F0A37452BB
:10032000F07480900361F07430A3F0851983E58345
:10033000900363F0851882E582900364F090036671
:100340007410F0900365E4F053D1FE75D60175D7B3
:1003500001E5D1A2E050FA8518828519837401F075
:10036000121713E5826A7003E5836B604990036599
:10037000E0541FF09003677420F0A37452F0EB90E8
:100380000361F0EAA3F07401121713E5839003638D
:10039000F07401121713E582900364F09003667401
:1003A0000DF0900365E4F053D1FE75D60175D701C9
:1003B000E5D1A2E050FAE5B3548F4410F5B38519A6
:1003C00083E583900369F0851882E58290036AF0E3
:1003D00090036E7410F090036DE054E0F053D1FD83
:1003E00075D602E5B354F84406F5B343B301E5B35B
:1003F000A2E350FA742A121713E0F8A3E0900369FD
:10040000F0E8A3F07410121713E583900373F074EF
:1004100010121713E582900374F09003767410F0B5
:10042000900375E054E0F053D1FD53D1FB75D60233
:1004300075D60453B3F843B301E5B3A2E350FA749D
:100440000F1217137401F0E5B3548F4430F5B385E0
:100450001983E583900369F0851882E58290036A29
:10046000F053D1FD75D602E5B354F84406F5B34315
:10047000B301E5B3A2E350FAEDF8900369F0ECF9AB
:10048000A3F0EFC454F0FA90036EF0E8900373F019
:10049000E9A3F0EA900376F053D1FD53D1FB75D672
:1004A0000275D604EF6011FA53B3F843B3011AE5AD
:1004B000B3A2E350FAEA70F08E08EC2508F8ED34A8
:1004C00000F97410121713E088828983F0741112F6
:1004D0001713E088828983A3F07412121713E0883F
:1004E000828983A3A3F07413121713E0888289838F
:1004F000A3A3A3F074201216DE7F020217F174F694
:1005000012171F74E01216C8E9FE740F5E600478BB
:100510000180027800EEC4540F28FF8518828519E7
:1005200083E58264307004E58364806047900365EE
:10053000E0541FF09003677420F0A37452F07480AD
:10054000900361F07430A3F0851983E58390036311
:10055000F0851882E582900364F09003667410F0D1
:10056000900365E4F053D1FE75D60175D701E5D14E
:10057000A2E050FA8518828519837401F0121713CE
:10058000E5826A7003E5836B6049900365E0541F60
:10059000F09003677420F0A37452F0EB900361F0C5
:1005A000EAA3F07401121713E583900363F074015A
:1005B000121713E582900364F0900366740DF090B7
:1005C0000365E4F053D1FE75D60175D701E5D1A2DC
:1005D000E050FAE5B3548F4410F5B3851983E583F1
:1005E000900369F0851882E58290036AF090036EAB
:1005F0007410F090036DE054E0F053D1FD75D60215
:10060000E5B354F84406F5B343B301E5B3A2E350B0
:10061000FA742A121713E0F8A3E0F9900369F0E8DE
:10062000A3F07410121713E583900373F074101283
:100630001713E582900374F09003767410F0900322
:1006400075E054E0F053D1FD53D1FB75D60275D659
:100650000453B3F843B301E5B3A2E350FA741012A4
:100660001713E088828983F07411121713E08882CF
:100670008983A3F07412121713E088828983A3A3DD
:10068000F07413121713E088828983A3A3A3F07474
:100690000F1217137401F0E5B3548F4430F5B3858E
:1006A0001983E583900369F0851882E58290036AD7
:1006B000F090036E7410F090036DE054E0F053D1AD
:1006C000FD75D602E5B354F84406F5B343B301E52E
:1006D000B3A2E350FAEDF8900369F0ECF9A3F0EF60
:1006E000C454F0FA90036EF0E8900373F0E9A3F0BD
:1006F000EA900376F0900375E054E0F053D1FD5397
:10070000D1FB75D60275D604EF6016F8E5B354F840
:100710004402F5B343B30118E5B3A2E350FAE8701D
:10072000EB0284F474F512171F74E01216C8EAFE87
:10073000EBFF89088C09740F550960047801800269
:100740007800ECC4540F28F50A120FE6851882854C
:100750001983E58264307004E58364806047900308
:1007600065E0541FF09003677420F0A37452F07496
:1007700080900361F07430A3F0851983E5839003C2
:1007800063F0851882E582900364F090036674201C
:10079000F0900365E4F053D1FE75D60175D701E5FD
:1007A000D1A2E050FA8518828519837449F074014A
:1007B000121713E5826E7003E5836F60499003653D
:1007C000E0541FF09003677420F0A37452F0EF9090
:1007D0000361F0EEA3F07401121713E58390036335
:1007E000F07401121713E582900364F090036674AD
:1007F0000DF0900365E4F053D1FE75D60175D70175
:10080000E5D1A2E050FA740F121713E509F0741144
:100810001217137401F07412121713E508F08519FA
:1008200083E583900369F0851882E58290036AF07E
:1008300090036E7420F090036DE054E0F053D1FD0E
:1008400075D60253B3F843B301E5B3A2E350FA53AC
:10085000B3F843B301E5B3A2E350FA742B121713B4
:10086000E0F8A3E0900369F0E8A3F0E50AC454F0CF
:1008700090036EF0851983E583900373F0851882E9
:10088000E582900374F09003767410F0900375E0A5
:1008900054E0F053D1FD53D1FB75D60275D604E573
:1008A0000A6025E5B3FA150AE50A6004785080026B
:1008B0007800748F5A48F5B353B3F843B301E5B3E6
:1008C000A2E350FAE50A70DB742D121713E0F8A3C7
:1008D000E0F9851882851983E088828983F07401A4
:1008E000121713E088828983A3F07402121713E0B1
:1008F00088828983A3A3F07403121713E088828986
:1009000083A3A3A3F074201216DE7F030217F174F1
:10091000F012171F74F81216C8EAFEEBFF89098C53
:1009200008EE24B2F8EF3400F9E5B3548F4440F5F3
:10093000B3E9900369F0E8A3F090036E7410F090AF
:10094000036DE054E0F053D1FD75D602E5B354F8E1
:100950004404F5B343B301E5B3A2E350FA9005A90B
:10096000E06408705DEE24A5F8EF3400F9EE24D4BD
:10097000F582EF3400F5831215B685188285198348
:100980001215C2851882851983E088828983F074E4
:1009900001121713E088828983A3F07402121713DF
:1009A000E088828983A3A3F07403121713E088827E
:1009B0008983A3A3A3F088828983A3A3A3A37480BC
:1009C000805AEE24A5F8EF3400F9EE24D4F582EF36
:1009D0003400F5831215B68518828519831215C265
:1009E000851882851983E088828983F07401121743
:1009F00013E088828983A3F07402121713E08882BF
:100A00008983A3A3F07403121713E088828983A358
:100A1000A3A3F088828983A3A3A3A3E4F0E508C37A
:100A2000941185080A5004741080027420C3950A3A
:100A3000F895E0F97418121713E0F50CA3E0F50D22
:100A4000E50C250AFCE50D3400FDEC64307003ED87
:100A50006480603A900365E0541FF090036774204F
:100A6000F0A37452F07480900361F07430A3F0ED41
:100A7000A3F0ECA3F0E8900366F0E9900365F0536F
:100A8000D1FE75D60175D701E5D1A2E050FAEE246A
:100A9000A5F50AEF3400F50B740412171385820EC6
:100AA00085830F780E121932780C121932AC08A90E
:100AB00009AA0AAB0B120FF874041216DE780E1294
:100AC0001932AC0CAD0DA908AA0AAB0B120FEC74CD
:100AD000021216DEEE24D4F582EF3400F583750C95
:100AE00001750D00750E00750F00780C1215247439
:100AF000081216DE7F080217F174F012171F74F443
:100B00001216C88A088B09890B8C0AEA24B2F8EB02
:100B10003400F9E5B3548F4440F5B3E9900369F02C
:100B2000E8A3F090036E7410F090036DE054E0F0D1
:100B300053D1FD75D602E5B354F84404F5B343B37D
:100B400001E5B3A2E350FA9005A9E06408705CEAFD
:100B500024A5F8EB3400F9EA24D8F582EB3400F54B
:100B6000831215B68518828519831215C2851882DD
:100B7000851983E088828983F07401121713E08855
:100B8000828983A3F07402121713E088828983A3F9
:100B9000A3F07403121713E088828983A3A3A3F040
:100BA00088828983A3A3A3A3E4805BEA24A5F8EB4E
:100BB0003400F9EA24D8F582EB3400F5831215B637
:100BC0008518828519831215C2851882851983E0DC
:100BD00088828983F07401121713E088828983A3C5
:100BE000F07402121713E088828983A3A3F07403C0
:100BF000121713E088828983A3A3A3F088828983D4
:100C0000A3A3A3A37480F0741C121713E0F50CA324
:100C1000E0F50D850A0EE50C250EF8E50D3400F91A
:100C200088828983E0C0E07404121713D0E0F08852
:100C3000828983A3E0C0E07405121713D0E0F08826
:100C4000828983A3A3E0C0E07406121713D0E0F0FA
:100C500088828983A3A3A3E0C0E07407121713D08E
:100C6000E0F0E50AC394115004741080027420C3AC
:100C7000950EFE95E0FFE50C250EFAE50D3400FB20
:100C8000EA64307003EB6480603A900365E0541FBF
:100C9000F09003677420F0A37452F07480900361A5
:100CA000F07430A3F0EBA3F0EAA3F0EE900366F04B
:100CB000EF900365F053D1FE75D60175D701E5D1EC
:100CC000A2E050FA740412171385820E85830F7800
:100CD0000E121932AC0CAD0DA90AE50824A5FAE5EF
:100CE000093400FB120FF274021216DEEEFAEFFB6B
:100CF000850A0EE50C250EFCE50D3400FDEC643094
:100D00007003ED6480603A900365E0541FF0900337
:100D1000677420F0A37452F07480900361F0743013
:100D2000A3F0EDA3F0ECA3F0EA900366F0EB9003E0
:100D300065F053D1FE75D60175D701E5D1A2E0501B
:100D4000FA740812171385820E85830F780E121914
:100D500032780C121932AC0AA90BE50824A5FAE581
:100D6000093400FB120FF874041216DE7404121713
:100D700013E0F87408121713E06870307405121746
:100D800013E0F87409121713E06870207406121744
:100D900013E0F8740A121713E06870107407121742
:100DA00013E0F8740B121713E06860047900801FD9
:100DB000E50824D8F582E5093400F583750C017542
:100DC0000D00750E00750F00780C12152479017452
:100DD0000C028AF174F012171F790112103AE964BB
:100DE000016003028ECF9006FBE0640170201210B8
:100DF000AC7AEF7B0612102E9006F8E4F075E1F164
:100E00007A02FB9005A8E0F91204E2028ECF120FDD
:100E1000BCE9FC9006EFE02402F8A3E03400F9E816
:100E2000FAE9FB8A828B83EC75F0118485F00885E2
:100E3000080CE4F50DF50EF50F780C12151190065F
:100E4000F9E0F508A3E0F509E4F50AF50B780C796B
:100E5000081214FE7508FF7509FF750AFF780C79F2
:100E60000812155F8A828B83780C1215A775080407
:100E7000750900750A00780C79081214FE7508FFD0
:100E80007509FF750AFF780C790812155F9006EF57
:100E9000E0F8A3E0C8240EF582E83400F583780C6E
:100EA0001215A79006EFE0F8A3E0C82414F582E835
:100EB0003400F5837413F09006EFE0F8A3E0C82443
:100EC00016F582E83400F5837414F0A3740FF00271
:100ED000994F74EC12171F790112103AE9640160FE
:100EE000030295639006F8E4F07AEF7B0612102E69
:100EF000120F6E8A088B09AE08AF098E828F83A30A
:100F0000A3A37401F09005D6E004F07940121028F4
:100F10008A088B09A808A9098E828F83E8F0A3E9C3
:100F2000F0E82406FCE93400FDE82402FAE9340084
:100F3000FB1210B8E5D9E5D9A2E6E4339006DCF05F
:100F400078DC7906E5D988828983A3F08882898351
:100F5000A3A882A983E864E27003E9640670E578D7
:100F600006E5D918E870FAEE2422F8EF3400F9E823
:100F700049700A7804E5D918E8603080F8EEF8EF97
:100F8000F9E82404FAE93400FBE5D9C0E0E82422BA
:100F9000F582E93400F583D0E0F088828983A3A844
:100FA00082A983EA687002EB6970DEEE2422F58282
:100FB000EF3400F5831215B6121118EE2426F8EF5F
:100FC0003400F9E849700A7803E5D918E860308000
:100FD000F8EEF8EFF9E82403FAE93400FBE5D9C0AC
:100FE000E0E82426F582E93400F583D0E0F0888239
:100FF0008983A3A882A983EA687002EB6970DEEE98
:101000002426F582EF3400F5837508FF7509FF7516
:101010000AFF750B007808121572AA08AB09AC0A12
:101020007D001210EEE5D9C0E0EE242BF582EF34FE
:1010300000F583D0E0F0EE242CF8EF3400F9E84915
:101040007006E5D9E5D98022E5D9C0E0EE242CF57B
:1010500082EF3400F583D0E0F0E5D9C0E0EE242D36
:10106000F582EF3400F583D0E0F0EE242EF8EF3473
:1010700000F9E8497006E5D9E5D98022E5D9C0E054
:10108000EE242EF582EF3400F583D0E0F0E5D9C0F0
:10109000E0EE242FF582EF3400F583D0E0F0EE246B
:1010A0002BF582EF3400F583E0C333F0EE242CF807
:1010B000EF3400F988828983E0FAA3E0FBEAC333C6
:1010C000FAEB33FB88828983EAF0A3EBF0EE242E5F
:1010D000F8EF3400F988828983E0FAA3E0FBEAC3E1
:1010E00033FAEB33FB88828983EAF0A3EBF0EE243A
:1010F00020F8EF3400F9E8497006E5D9E5D98022F7
:10110000E5D9C0E0EE2420F582EF3400F583D0E08D
:10111000F0E5D9C0E0EE2421F582EF3400F583D06C
:10112000E0F0EE2432F8EF3400F9E8497006E5D932
:10113000E5D98022E5D9C0E0EE2432F582EF340013
:10114000F583D0E0F0E5D9C0E0EE2433F582EF344A
:1011500000F583D0E0F0E8FAE9FB8A828B83E0F5C2
:101160000AA3E0F50B7404780A1216B5850A0885FF
:101170000B098A828B83E508F0A3E509F0E4F50A00
:10118000F50BEE2420F582EF3400F583E02401F521
:101190000CA3E03400F50DE4F50EF50FEE242EF56A
:1011A00082EF3400F583E0F8A3E0F9E8C333F8E90F
:1011B00033F988108911E4F512F513780C791012BF
:1011C00013D67808790C1213975013EE242EF5825B
:1011D000EF3400F583E0F8A3E0F9E84970167A40AF
:1011E0007B009005A8E0F91204E2EEFAEFFB120F83
:1011F00080029563EE242BFCEF3400FDEEFAEFFB4A
:10120000120F92EE240BF582EF3400F5837405F093
:10121000A3E4F0EEFAEFFB120F98EE245DF8EF3442
:1012200000F9E849700A7805E5D918E8603080F8D7
:10123000EEF8EFF9E82405FAE93400FBE5D9C0E05F
:10124000E8245DF582E93400F583D0E0F0888289F6
:1012500083A3A882A983EA687002EB6970DEE5D9EE
:10126000F50CC4135407F9EE242AF582EF3400F587
:1012700083E9F01227F6EE2410F582EF3400F583AF
:10128000EAF0A3EBF0E50C541FC0E0EE2437F58242
:10129000EF3400F583D0E0F0EE245DFCEF3400FD88
:1012A000EEFAEFFB120F6812117812111279041284
:1012B000111E79011211549060607480F075E1F193
:1012C000900C61745EF0A37410F0A3745EF0A374CC
:1012D00010F0A3745EF0A37410F0A3745EF0A37416
:1012E00010F0A3740AF0A37410F0A3745EF0A3745A
:1012F00010F0A37464F0A37410F0900C6F740AF0F3
:10130000A37410F0A3740AF0A37410F0A3740AF08D
:10131000A37410F0A3740AF0A37410F0A3740AF07D
:10132000A37410F0A3740AF0A37410F07A047B0085
:101330009005A8E0F91204E2EE242CF8EF3400F94D
:1013400088828983E0FAA3E0FB8A0C8B0DE4F50E1A
:10135000F50F750802F509780C79081214FEEA4BAE
:101360006013EE242CF582EF3400F583E064027004
:1013700002A3E0704EEE242EF582EF3400F583E0F8
:10138000F508A3E0F509780C79081214FE7C027DBB
:1013900000EEFAEFFB121AD012290B8E828F83A374
:1013A000A3A3A3A3E02401F0A3E03400F08E828F76
:1013B00083A3A3A3A3A3A3A3E02401F0A3E0340089
:1013C000F0800E7C017D00EEFAEFFB121AD012299C
:1013D0000B8E828F83E02402F8A3E03400F9E8FA50
:1013E000E9FB8A828B83780C1215248A828B8375A1
:1013F00008FF7509FF750AFF7808121585EE24129B
:10140000F508EF3400F5097808121932EE2410F5CA
:1014100082EF3400F583121949EE241DF582EF3472
:1014200000F583121949AA0CAB0DAC0EAD0F1228B2
:101430004C74061216DEEE2418F582EF3400F583A4
:10144000780C1215A7AC08AD098E828F83E02402B8
:10145000FAA3E03400FB1227877C247D818E828FE3
:1014600083E02402FAA3E03400FB1227878E828FE8
:1014700083E0F8A3E0F988828983A3A3E82408FC29
:10148000E93400FD74061215DB8E828F83E0F50AC5
:10149000A3E0F50BE50A240EF582E50B3400F58395
:1014A00074FFF0A3F0A3F0A3F0E50A2412F8E50B13
:1014B0003400F9E8FAE9FBEE242BF582EF3400F56D
:1014C00083E0FC850882850983780C1215987401E5
:1014D000780C1216B5EC250CF8E4350DF9E875F02A
:1014E00071A4C8ACF075F002A42CFC75F071E9A4ED
:1014F0002CF98A828B83E8F0A3E9F0EE2416F582BA
:10150000EF3400F583E0F508A3E0F50974047808EA
:101510001216A6E5082401F8E5093400F98A828B41
:1015200083E028F0A3E039F08A828B83E02410F076
:10153000A3E03401F0E50A2414F582E50B3400F54C
:10154000837410F08E828F83E0F8A3E0C82416F530
:1015500082E83400F583741AF0A3740FF09005A9A3
:101560007407F01210167F0C0217F174F012171F97
:101570001210F4E970089006FCE0F91210FA75E117
:1015800081907803E06442705590074BE014F0704E
:101590004DC2AF12959600782AD0E0F618D0E0F64A
:1015A000E59F540770057509FF800375097FC4C066
:1015B000E07829E6F50808E65509F509740B78087E
:1015C0001216A6D0E02508F8906270E0A2E740F875
:1015D000E8C333906272F0906270E0D2E0F079017B
:1015E00012103AE964016003029789900742E0F81B
:1015F000A3E0F9E8496010900742E0FAA3E0FB900D
:101600000741E0F91204E2900700E0640160030280
:1016100096CF75E191A3E02407F5D99006F1E0C4D7
:10162000333354C0F5D978EF790688828983A3A330
:10163000A3E0F5D988828983A3A882A983E864F509
:101640007003E9640670E3900701E0601F78EF79AA
:1016500006FAE82413F582E93400F583E0F5D98829
:10166000828983A3A882A9831AEA70E6900721E001
:101670002407F5D99006F1E0C4333354C04404F58F
:10168000D978EF790688828983A3A3A3E0F5D98866
:10169000828983A3A882A983E864F57003E96406BC
:1016A00070E3900721E0601F78EF7906FAE82433B1
:1016B000F582E93400F583E0F5D988828983A3A80F
:1016C00082A9831AEA70E675E195900700E4F012AA
:1016D0000FBCE9FC9006EFE02402F8A3E03400F927
:1016E000E8FAE9FB8A828B83EC75F0118485F008B7
:1016F00085080CE4F50DF50EF50F780C1215119018
:1017000006F9E0F508A3E0F509E4F50AF50B780C15
:1017100079081214FE7508FF7509FF750AFF780C29
:10172000790812155F8A828B83780C1215A79006B0
:10173000EFE0F8A3E0C82406F582E83400F583E47E
:10174000F0A3F09006EFE0F8A3E0C8240EF582E8DD
:101750003400F58374FFF0A3F0A3F0A3F09006EF3C
:10176000E0F8A3E0C82414F582E83400F58374128D
:10177000F09006EFE0F8A3E0C82416F582E8340004
:10178000F5837414F0A3740FF002994F74F01217DC
:101790001F75E1811210F4E970089006FCE0F9125F
:1017A00010FA790112103AE96401600302994F902E
:1017B0000742E0F8A3E0F9E8496010900742E0FA38
:1017C000A3E0FB900741E0F91204E2900700E06417
:1017D00001600302989575E191A3E02407F5D99083
:1017E00006F1E0C4333354C04406F5D978EF7906E6
:1017F00088828983A3A3A3E0F5D988828983A3A8DB
:1018000082A983E864F57003E9640670E390070138
:10181000E0601F78EF7906FAE82413F582E93400D6
:10182000F583E0F5D988828983A3A882A9831AEA7F
:1018300070E6900721E02407F5D99006F1E0C43363
:101840003354C04404F5D978EF790688828983A39C
:10185000A3A3E0F5D988828983A3A882A983E86439
:10186000F57003E9640670E3900721E0601F78EFEC
:101870007906FAE82433F582E93400F583E0F5D9F6
:1018800088828983A3A882A9831AEA70E675E19504
:10189000900700E4F0120FBCE9FC9006EFE0240290
:1018A000F8A3E03400F9E8FAE9FB8A828B83EC754F
:1018B000F0118485F00885080CE4F50DF50EF50FA0
:1018C000780C1215119006F9E0F508A3E0F509E48B
:1018D000F50AF50B780C79081214FE7508FF7509E6
:1018E000FF750AFF780C790812155F8A828B83785E
:1018F0000C1215A79006EFE0F8A3E0C82406F582C5
:10190000E83400F583E4F0A3F09006EFE0F8A3E0FC
:10191000C8240EF582E83400F58374FFF0A3F0A329
:10192000F0A3F09006EFE0F8A3E0C82414F582E8F5
:101930003400F5837415F09006EFE0F8A3E0C824B6
:1019400016F582E83400F5837414F0A3740FF012D6
:1019500010167F080217F174F012171F75E181123B
:1019600010F4E970089006FCE0F91210FA790112FF
:10197000103AE964016003029ABC900742E0F8A3C0
:10198000E0F9E8496010900742E0FAA3E0FB900715
:1019900041E0F91204E2900700E06401706475E12F
:1019A00091A3E02407F5D99006F1E0C4333354C085
:1019B0004402F5D978EF790688828983A3A3A3E04E
:1019C000F5D988828983A3A882A983E864F5700386
:1019D000E9640670E3900701E0601F78EF7906FA8A
:1019E000E82413F582E93400F583E0F5D98882898B
:1019F00083A3A882A9831AEA70E675E1959007008F
:101A0000E4F0120FBCE9FC9006EFE02402F8A3E03A
:101A10003400F9E8FAE9FB8A828B83EC75F01184D3
:101A200085F00885080CE4F50DF50EF50F780C121D
:101A300015119006F9E0F508A3E0F509E4F50AF5BB
:101A40000B780C79081214FE7508FF7509FF750AEA
:101A5000FF780C790812155F8A828B83780C121537
:101A6000A79006EFE0F8A3E0C82406F582E834006A
:101A7000F583E4F0A3F09006EFE0F8A3E0C8240EAD
:101A8000F582E83400F58374FFF0A3F0A3F0A3F02F
:101A90009006EFE0F8A3E0C82414F582E83400F5DE
:101AA000837414F09006EFE0F8A3E0C82416F582E2
:101AB000E83400F5837414F0A3740FF002994FC05A
:101AC00082C08353BFEF790112103AE96401700CB0
:101AD0007AEF7B0612102E9006F8E4F075E1F11211
:101AE0001016D083D082020135C082C08390052CAD
:101AF00074FFF0A3F0A3F0A3F0A3F0A3749FF0A3EE
:101B0000E4F0A37420F090052B14F0D083D082026F
:101B100001357F020217F174EE12171F890AEAFEDF
:101B2000EBFF8C088D09900944E06003029C2FE9CB
:101B3000333354FC04F50B7407250BFA7B001204B5
:101B4000B28A0C8B0DAC0CAD0DEC4D7003029C2FCA
:101B50008C828D837401F0A374FFF0EC2402F8ED05
:101B60003400F9880C890DEC2404F8ED3400F98573
:101B70000C82850D83E8F0A3E9129C507404129C3A
:101B800050A37413129C5FE50B129C5FA3E50AF04F
:101B9000750B00029C19850B8285820E750F00E57E
:101BA0000EC333FAE433FBEE2AF8EF3BF9881089D1
:101BB000117402780E1216B5A80EA90F8510828531
:101BC0001183E0F50EC00E129C39D0E0F085108232
:101BD000851183A3E0F50EC00E129C34D0E0F0E531
:101BE000082AFAE5093BFB8A828B83E0F50EC00EDA
:101BF000129C34A3D0E0129FEEA3E0C0E0850C82DB
:101C0000850D83E028FAA3E0398A82F583A3A3A394
:101C1000A3A3A3A3D0E0F0050BE50BC3950A5003E3
:101C2000029B96ECFAEDFB900941E0F91204BE7FAD
:101C30000A0217F1129C39A322850C82850D83E0DC
:101C400028F50EA3E039850E82F583A3A3A3A32272
:101C5000129C5422F0850C82850D8312A03322122F
:101C60009C54A3A32274EE12171F8A088B09890BB8
:101C70008C0E8D0F900943E07009900945E07003C8
