:020000040000FA
:0600000002011D0220C8F0
:03002B00021B4075
:0300530002213E49
:03006B00021B0E67
:10008300021F77E5C754F84401F5C7790122000040
:100093000080FB120086B90003020107E47921788E
:1000A30008B800028004F709D8FCE479297802B87B
:1000B30000028004F709D8FCE490028178C979072B
:1000C3008002F0A3D8FCD9FA781A90014D7A01BACC
:1000D30000028007E493A3F608DAF9900949AA829B
:1000E300AB8390014E783B79048015E493A3AC82F3
:1000F300AD838A828B83F0A3AA82AB838C828D83A8
:10010300D8E9D9E775828E75839F740312012F7521
:100113008291758300740012012F75D00075813FA1
:10012300751881751902759F00020096C09FF59F8F
:10013300E473D09F22D083D082C09FE493C0E07445
:100143000193C0E0740293F59F2201FFFF020202B4
:10015300020202020202010D0000001001022290BD
:10016300010000F38F021E900100004B09023A9038
:100173000100009E02021E900100004C090238900B
:10018300010000138F021E900100004D09023690FA
:10019300010000F78E021E900100004E0902349008
:1001A300010000B58E021E900100004F090232903B
:1001B300010000A38E021E9001000050090230903E
:1001C300010000918E021E900100005109022E9041
:1001D3000100007F8E021E900100005209022C9044
:1001E300010000058F021E900100005309022A90AE
:1001F300010000540901E803053F100AFF00013024
:10020300750302010600000000000000000000006A
:1002130000000000000000000000000000000000DB
:1002230000FFFF0600800CE80314094C6162656C53
:100233002D56303420204261743D302E3056051245
:1002430020032003020A000201050302F0FF5369A1
:100253006D706C6520424C4520506572697068650D
:1002630072616CEE070000F4070A43686172616310
:100273007465726973746963203100024368617243
:10028300616374657269737469632032000843683B
:1002930061726163746572697374696320330010FA
:1002A300436861726163746572697374696320344E
:1002B3000002436861726163746572697374696390
:1002C300203500022290010000F98F021E900100E8
:1002D30000670A0208900300007404021C900100E6
:1002E30000680A021E90010000790A0204900100CE
:1002F300007504021C900100007A0A021E9001009E
:10030300008B0A0202900200007604021C90010096
:10031300008C0A021E900100009D0A020690000054
:10032300007704021A900300007804021C90010075
:10033300009E0A021E90010000AF0A020C90040006
:10034300007E04021C90010000B00A104B65792066
:1003530050726573732053746174650002229001B7
:100363000000F68F021E90010000490B021090005E
:1003730000008304021A900300008404021C90010D
:1003830000004A0BFF0000B40000280028002830BA
:1003930075A000A000A000A00000080008E001F084
:1003A300001000100010001000100010005000504A
:1003B30000500010001000D0070000000000000FE4
:1003C3000001000500307507001000010081FF00E7
:1003D300000000FF3A0A580A400AFF02020208021C
:1003E3005000A0000000E803022290010000FF8FEC
:1003F300021E90010000D90B021890010000BC04FA
:10040300021E90010000DA0B021690010000D204D4
:10041300021E90010000DB0B021490010000D404C3
:10042300021E90010000DC0B021290080000D504AC
:10043300021E90010000DD0B022890010000DE0B7C
:10044300FF0100FF20022290010000FC8F021E909A
:10045300010000420C020E900000000000021A90FE
:1004630003000022056A106A106A106A106A106A93
:10047300106A106A106A106A106A106A106A1046CD
:10048300135E13401312013894D2021201389ED224
:1004930002120138DCD20212013825D302120138CC
:1004A3005FD302120138B9D302120138DAD3021230
:1004B3000138E3D30212013830D40212013859D47F
:1004C3000212013863D402120138CFD40212013868
:1004D30061D502120138ABD502120138E1D50212FF
:1004E30001386DD602120138AED602120138E5D6B4
:1004F30002120138F7D60212013816D70212013858
:100503001FD702120138ECD7021201382B9A0312BB
:1005130001381F8D03120138558D031201388B8D5D
:1005230003120138D68E0312013862FF011201381B
:1005330078FF0112013882FF01120138CCFF01124A
:1005430001382F9F031201386AEB021201387FEB47
:10055300021201382FEC021201386FEC021201383B
:1005630088EC02120138C3EC0212013810ED0212BA
:10057300013842ED0212013884ED0212013885EF91
:1005830002120138F7EF02120138229B03120138DD
:100593004B9B031201387A9B03120138929B03127F
:1005A3000138D49B03120138CC8503120138F1853D
:1005B300031201381B8603120138E69F0312013828
:1005C300A541001201380A4400120138AB4500125C
:1005D30001385F4600120138F246001201387747AE
:1005E300001201389C4700120138F24A0012013808
:1005F300784B00120138AB4C00120138E54C001265
:1006030001381A4D00120138DA4E00120138374F03
:1006130000120138804F00120138EB4F00120138ED
:100623005C50001201388E5000120138A65000129F
:100633000138EF5100120138FF51001201381A53EB
:10064300001201383C530012013872530012013872
:10065300265500120138B35500120138F255001225
:100663000138165700120138CF9D03120138DF9D60
:10067300031201383CA0031201387BA00312013896
:10068300EAFF02120138199C03120138299C031254
:1006930001383E9C03120138F29C0312013827995A
:1006A30003120138AC9903120138129A031201386C
:1006B300E596031201380C9703120138629703126F
:1006C3000138749703120138C49703120138029852
:1006D3000312013805980312013871F4021201382C
:1006E30085F402120138FFF402120138E3F5021215
:1006F3000138BAF7021201381FF802120138F87FE5
:1007030000120138DD8A03120138758C0312013897
:10071300D68C031201381C8D031201386F92031219
:100723000138C192031201384B9303120138B2937B
:1007330003120138988803120138C2880312013862
:100743009089031201386B8A031201387EB50212B5
:10075300013845B6021201387CB602120138A6B63A
:100763000212013806B7021201385CB702120138CF
:10077300C1B70212013859B80212013868B902121E
:100783000138FFBA021201388CBB02120138F3BBE5
:10079300021201380ABC0212013824BD02120138C8
:1007A30062BD02120138C3DB0112013844DF0112BA
:1007B3000138CCE00112013823E10112013842E192
:1007C30001120138C0E10112013856E30112013868
:1007D3003BE40112013849E8011201381FE9011213
:1007E30001385DCC021201384BCF021201385DD1C2
:1007F3000212013807D202120138617C001201385B
:10080300A67C00120138C37C00120138797D0012E6
:100813000138CC7D00120138A27E00120138BC7F62
:10082300001201381194031201385694031201384F
:10083300D99403120138519503120138108F031212
:100843000138278F03120138588F03120138938F11
:1008530003120138BD8F03120138E78F03120138E9
:10086300FE8F031201381590031201382C900312E6
:1008730001385590031201386890031201387E90B5
:1008830003120138919003120138B8900312013812
:100893000198021201380599021201383D9902129A
:1008A30001386099021201386B99021201388E994E
:1008B300021201389D9A02120138729B021201380A
:1008C300ED9B02120138759C02120138B09C021292
:1008D3000138E79C02120138759D021201384E9EC1
:1008E30002120138AE9E02120138B99E021201387B
:1008F300389F021201383B9F021201383E9F0212B9
:100903000138CD9F02120138D09F0212013800A096
:10091300021201382AA00212013818A1021201386A
:10092300CAA10212013804E2021201382CE20212B7
:1009330001385AE20212013891E202120138EFE261
:10094300021201383AE30212013885E30212013838
:10095300C5E3021201380BE40212013839E4021232
:100963000138F6E40212013800E5021201380DE500
:100973000212013840E5021201380CE60212013876
:1009830018E60212013830E6021201383AE6021282
:100993000138F89C03120138069D031201381E9D8D
:1009A30003120138369D0312013837B001120138A2
:1009B300E3B0011201385EB1011201387FB20112B6
:1009C3000138BBB20112013864B3011201384BB4D0
:1009D30001120138AFB50112013806B60112013810
:1009E30087B60112013877B701120138C4B7011273
:1009F30001384AB8011201387CB80112013890BAA3
:100A030001120138D2BA01120138F0BA01120138C9
:100A130073BB0112013847BC011201380FBD01122B
:100A230001383AC5021201380DC602120138B6C6A2
:100A33000212013809C702120138B9C7021201387C
:100A430045C80212013831C90212013860C90212C5
:100A5300013873CA02120138BBCA0212013890CBA3
:100A630002120138CCCB02120138E8CB0212013852
:100A730066FF02120138CDFB02120138E3FB0212BA
:100A8300013809FC0212013825FD021201382FFD3D
:100A93000212013864FE021201385CFF02120138AF
:100AA3001AD8021201384AD9021201387DD902122A
:100AB3000138C7D9021201388EDB0212013848A06F
:100AC30001120138B2A00112013811A2011201383A
:100AD30021A2011201384EA201120138A5A201126E
:100AE30001384EA30112013855A4011201381FA584
:100AF300011201387FA601120138C2A60112013882
:100B030067A701120138B4A701120138DAA701124D
:100B13000138E8A901120138EDA901120138F2AB3D
:100B2300011201383FAC01120138B2AC0112013895
:100B3300E5AC0112013887AD0112013830AE011264
:100B4300013868AE011201386BAE01120138B3AE41
:100B530001120138F3AE011201384AAF0112013814
:100B6300F9820312013811830312013859830312E6
:100B730001386F8303120138B68303120138CA8424
:100B830003120138578503120138A2850312013875
:100B93004427001201385027001201388B27001216
:100BA3000138D02700120138902800120138162985
:100BB300001201387B2900120138A72900120138DD
:100BC300E029001201381E2C00120138022E0012F7
:100BD3000138E82F001201382B3100120138793324
:100BE300001201388B3400120138D6350012013857
:100BF300E636001201380337001201383E3700127F
:100C03000138603700120138C33700120138843CC1
:100C130000120138193D001201386A3D00120138F3
:100C2300913D00120138E33D00120138013E0012EC
:100C330001385B3E00120138443F00120138BA40CC
:100C4300001201383E4100120138C1E60212013898
:100C5300CBE6021201380EE70212013829E702122D
:100C63000138B9E702120138E1E7021201381EE840
:100C73000212013855E8021201387EE802120138E7
:100C8300F3E80212013808E9021201381DE90212E1
:100C930001384EE90212013862E90212013887E98C
:100CA30002120138C1E902120138EDE902120138DA
:100CB30025EA02120138A4EA02120138EDEA02120F
:100CC300013817EB0212013842EB021201380E9879
:100CD300031201380080021201382E8002120138FB
:100CE3007C81021201385C82021201387B8202127B
:100CF3000138F882021201383B83021201389184D1
:100D030002120138528502120138D98702120138C2
:100D13007A88021201387089021201386D8A021230
:100D23000138C78B02120138528C021201388A959E
:100D330003120138F3950312013847960312013861
:100D43006E96031201389F960312013804F00212C3
:100D5300013871F002120138B8F002120138D0F1F3
:100D630002120138CCF202120138AFF30212013839
:100D7300F9F6011201383BF7011201380DF801129F
:100D83000138E6F801120138E0F901120138C2FA1C
:100D9300011201382BFB01120138E1FB011201386A
:100DA30055FC01120138C1FC01120138EAFC0112A1
:100DB300013864FD01120138FDFD0112013862FEA4
:100DC3000112013877FE01120138BDFE011201380C
:100DD300D6FE011201383BFF011201383EFF01121A
:100DE300013800800312013828800312013866801D
:100DF300031201382481031201388B810312013855
:100E0300A78103120138CF8103120138FF81031236
:100E130001380E82031201388B8203120138B1822A
:100E230003120138419001120138DF910112013898
:100E3300FA930112013836940112013863940112B6
:100E430001384895011201388F9501120138D39565
:100E530001120138E5950112013825960112013876
:100E63005296011201389D9601120138DD96011246
:100E730001380B97011201385D9701120138ED9784
:100E8300011201388B9A01120138A19C0112013819
:100E9300DF9C01120138709E01120138B59E0112C8
:100EA30001382C9F01120138769F01120138A19F4E
:100EB3000112013805AC0212013884AC0212013868
:100EC30046B20212013855B302120138BDB4021200
:100ED300013854B5021201383B57001201388457C8
:100EE30000120138B15700120138E45700120138DB
:100EF300F15700120138FD57001201380F58001244
:100F03000138F65800120138545900120138895932
:100F130000120138CC5A00120138195B0012013853
:100F23003D5B00120138AA5B00120138685C0012B5
:100F33000138215D001201388E5D00120138405ED8
:100F430000120138505E00120138D75E00120138DA
:100F5300965F00120138C35F001201383C60001233
:100F63000138996000120138E36000120138796199
:100F730000120138446200120138F962001201388C
:100F83006E6300120138CF63001201383964001216
:100F930001387264001201381465001201382466A6
:100FA30000120138646600120138816600120138AC
:100FB300A06600120138E766001201380C670012C0
:100FC3000138396700120138B36700120138F4673A
:100FD30000120138186900120138C869001201387B
:100FE3001F6A00120138896A00120138A26A0012CE
:100FF30001383BA2021201388EA2021201389AA2D2
:10100300021201386FA30212013896A302120138AB
:10101300D1A3021201383DA40212013879A40212AD
:101023000138B2A402120138CAA4021201381FA562
:101033000212013838A50212013881A502120138C3
:1010430094A502120138AEA502120138C4A50212FA
:101053000138F7A6021201383EA80212013840A94E
:10106300021201383AAA02120138F57F0012013840
:10107300C2E901120138F2E901120138BAED011295
:10108300013811EF01120138DAEF011201385AF178
:10109300011201382BF20112013868F201120138F2
:1010A3008BF201120138C9F201120138D2F2011296
:1010B30001381CF30112013826F301120138D0F371
:1010C30001120138A9F401120138FDF401120138AB
:1010D3005FF501120138B2F501120138E1F5011291
:1010E30001381EF601120138D46A001201383B6E32
:1010F30000120138416E00120138C3730012013827
:101103003C7800120138127C0012013833F80212C5
:101113000138A9F802120138BFF80212013800F9A8
:10112300021201383AF902120138B3F902120138F6
:10113300EEF90212013861FA021201389FFA021223
:101143000138A8FA02120138B4FA02120138D0FAAF
:1011530002120138FBFA0212013811FB02120138A4
:101163003AFB021201389DFB0212013841DD0212E3
:10117300013854DD021201386EDD0212013897DDA9
:1011830002120138DADD0212013819DE02120138C7
:1011930057DE02120138BCDE02120138D1DE021220
:1011A3000138DCDE02120138E9DE0212013800DF09
:1011B300021201380EDF0212013819DF0212013860
:1011C30025DF0212013838DF0212013843DF021231
:1011D300013866DF021201380DE0021201381DE00A
:1011E3000212013837E00212013854E002120138CA
:1011F30070E00212013895E002120138A0E00212F9
:101203000138B5E002120138C9E0021201382AE1BF
:101213000212013830E10212013836E102120138BC
:101223003CE10212013854E10212013887E1021253
:10123300013899CD011201381DCE01120138CCCEEF
:10124300011201382BD0011201384CD2011201389E
:1012530038D3011201386DD3011201388FD3011233
:1012630001383ED40112013836D6011201385FD657
:1012730001120138F1D60112013823D701120138C6
:1012830030D70112013887D701120138ADD70112C7
:1012930001381ADA011201381DDB0112013875DB3E
:1012A3000112013828BF0112013832C0011201387E
:1012B30019C10112013823C10112013845C10112BC
:1012C300013851C101120138EAC20112013819C3B0
:1012D3000112013835C4011201388EC401120138DC
:1012E300F4C501120138D3C6011201382FC7011208
:1012F30001389CC701120138D7C70112013816C83B
:1013030001120138CFCA01120138E9CA01120138AA
:1013130075CB0112013883CB01120138DCCB0112EA
:101323000138EACB011201385DCC01120138C1CC7E
:10133300011201380BCD01120138D38C021201388E
:10134300F58C021201381B8F0212013830920212FF
:101353000138489302120138FB9302120138DD94DD
:1013630002120138CA9003120138EF9003120138B8
:10137300619103120138C0BD02120138C9BD0212C6
:101383000138D2BD02120138A9BE021201385AC077
:101393000212013890C002120138CAC00212013889
:1013A30000C1021201383AC1021201386EC10212A1
:1013B30001389AC102120138E3C1021201381DC279
:1013C3000212013866C202120138BEC2021201388B
:1013D300F3C2021201384EC30212013888C302124B
:1013E3000138D9C3021201380FC40212013849C4AB
:1013F3000212013877C4021201389AC4021201386A
:10140300849E03120138B09E031201380B9F03120E
:101413000138159F03120138259F0312013885A057
:1014230003120138B1A003E066701008A3E06670F0
:101433000A08A3E066700408A3E06622C3E79608DF
:1014430009E7960809E7960809E79622C3E0960894
:10145300A3E09608A3E09608A3E09622C008C3E0A1
:1014630096F50808A3E096420808A3E09642080808
:10147300A3E09645087001D3D00822080808EAC003
:10148300E0EBC0E086F0E7A4FA180986F0E7A42AA7
:10149300FA180986F0E7A42AFA180986F0E7A42ABD
:1014A300FA1986F0E7A4FBE5F02AFA190886F0E7B3
:1014B300A42BFBE5F03AFA190886F0E7A42BFBE529
:1014C300F03AFA18180986F0E7A4C5F02BFBE43AC2
:1014D300FA1908E7C5F0C6A426F6E5F03BFBE43AA3
:1014E300FA1886F0E7A4F6E5F00826F6E43B08F6DA
:1014F300E43A08F6D0E0FBD0E0FA22E4CFC0E0E41F
:10150300CEC0E0E4CDC0E0E4CCC0E075F020C3E69B
:1015130033F608E633F608E633F608E633F618182A
:1015230018EC33FCED33FDEE33FEEF33FFC3EC97E2
:1015330009ED9709EE9709EF97191919400FFFEC79
:1015430097FC09ED97FD09EE97FE191906D5F0BE34
:10155300ECF709EDF709EEF709EFF7191919D0E0E0
:10156300FCD0E0FDD0E0FED0E0FF226016080808C2
:10157300C6C313C618C613C618C613C618C613C6E1
:10158300D5E0EA227009080808226016181818C660
:10159300C333C608C633C608C633C608C633C6D562
:1015A300E0EA22E627F60809E637F60809E637F601
:1015B3000809E637F622E026F608A3E036F608A384
:1015C300E036F608A3E036F622E026F008A3E0367C
:1015D300F008A3E036F008A3E036F022C3E697F65E
:1015E3000809E697F60809E697F60809E697F6224A
:1015F300C3E096F008A3E096F008A3E096F008A3F2
:10160300E096F022E056F608A3E056F608A3E0566B
:10161300F608A3E056F622E056F008A3E056F008D9
:10162300A3E056F008A3E056F022E0F608A3E0F6A4
:1016330008A3E0F608A3E0F622E6F008A3E6F00824
:10164300A3E6F008A3E6F022E0FAA3E0FBA3E0FCA4
:10165300A3E0FD22EAF0A3EBF0A3ECF0A3EDF0226C
:10166300CAC0E0E6F0A308DAFAD0E0FA22CAC0E082
:10167300E0A3C582CCC582C583CDC583F0A3C58253
:10168300CCC582C583CDC583DAE6D0E0CA22C3E4E4
:1016930098F8E499F91216D28026C3E49AFAE49BE7
:1016A300FBE920E7E91216D2E498F8E499F922C39A
:1016B300E498F8E499F91216D2E498F8E499F9C396
:1016C300E49AFAE49BFB22EB20E7CFE920E7E0B9B9
:1016D3000010BB0008E88AF084F8AAF022E4FBC8F3
:1016E300FA22EB70227B10C833C8C933C9335007C1
:1016F300C39AC3DBF280069A50012ADBEAC833F4AB
:10170300C8C933F4C9FA2275F008E4C833C8C93329
:10171300C933C99AC99B5004C92AC93BD5F0ECFB0C
:10172300C833F4C8E4C9FA22600D08C6A2E713C699
:1017330018C613C6D5E0F322600C08C6C313C61837
:10174300C613C6D5E0F422700422600D18C6C33355
:10175300C608C633C6D5E0F41822251810AF08F51D
:1017630018400215198008F51840021519D2AF2246
:10177300C0D0251810AF08F518500205198008F5D8
:101783001850020519D2AFD0D0222518F58210AF18
:1017930008F518400215198008F51840021519D2EA
:1017A300AF851983222518F582E43519F58322E4E0
:1017B300732518C582C0E0E51934FFC583C0E0E591
:1017C30018C3958224F810AF088583198582188081
:1017D30008858319858218D2AFCEF0A3E520F0A344
:1017E3007808E608F0A3DEFAEFF0A3E58124FAF81F
:1017F300E608F0A3E608F0A3E608F0A30808E60865
:10180300F0A3E608F0A315811581D0E0FED0E0F83F
:10181300158115811581E8C0E0EEC0E0222518C5C9
:1018230082C0E0E51934FFC583C0E0E518C39582A3
:1018330024F910AF088583198582188008858319D8
:10184300858218D2AFCEF0A3E520F0A37808E6088E
:10185300F0A3DEFAEFF0A3E58124FBF8E608F0A39A
:10186300E608F0A30808E608F0A3E608F0A315814C
:101873001581D0E0FED0E0F815811581E8C0E0EED7
:10188300C0E022851983851882E0A3FEE0A3F5203A
:101893007808E0A3F608DFFAE0A3FFE0A3C0E0E0E6
:1018A300A3C0E0E0A3C0E0E0A3C0E0E0A3C0E01079
:1018B300AF08858218858319800885821885831966
:1018C300D2AFD083D082020135851983851882E097
:1018D300A3FEE0A3F5207808E0A3F608DFFAE0A36F
:1018E300FFE0A3C0E0E0A3C0E0E0A3C0E0E0A3C04A
:1018F300E010AF08858218858319800885821885D2
:101903008319D2AFD083D08222C0D02518C582C01C
:10191300E0E51934FFC583C0E0E518C3958224F3DD
:1019230010AF0885831985821880088583198582FD
:1019330018D2AFC8F0A3E9F0A3EAF0A3EBF0A379C0
:1019430008E709F0A3D8FAECF0A3EDF0A3EEF0A3B7
:10195300EFF0A3D0E0F0A3D0E0F0A3D0E0F0A3E554
:1019630020F0A3E5F0F0A322851983851882E0C057
:10197300E0A3E0F9A3E0FAA3E0FBA37808E0F6080C
:10198300A3DFFAE0FCA3E0FDA3E0FEA3E0FFA3E0F6
:10199300C0E0A3E0C0E0A3E0F5D0A3E0F520A3E01E
:1019A300A3F5F010AF088583198582188008858315
:1019B30019858218D2AFD082D083D0E0F8D0E0323C
:1019C30074048006740280027401C0E0F4041217E8
:1019D3008DD0E0121663227404800474028000CC5C
:1019E300C0E0EDC0E0E518C39CCCAD1950011D105B
:1019F300AF068C188D1980068C188D19D2AF12166C
:101A030070D0E0FDD0E0FC22D083D082E9C0E0E4D6
:101A130093A3C386F0C5F095F0F908E493A386F089
:101A2300C5F095F0700BE493A3C3994005E90480D6
:101A330002A3E475F002A42582F582E5F03583F56F
:101A430083D0E0F9E493A3C0E0E493C0E022D08321
:101A5300D082ECC0E0EDC0E0E493A3FCE493A3FDEB
:101A6300ED4C600D121A9DEC24FFFCED34FFFD805C
:101A7300EFE493A3FCE493A3FDED4C600D121ADC99
:101A8300EC24FFFCED34FFFD80EFD0E0FDD0E0FC63
:101A9300E493A3C0E0E493C0E022C0E0C3E49396E0
:101AA300087401939618400FE49366700808740154
:101AB30093661870007019A3A3C3E4939608740186
:101AC300939618A3A3400DD0E0D0E0D0E0021A8D86
:101AD300A3A3A3A3A3A3D0E022C0E0C0F088F0E4B3
:101AE300936670080874019366187000A8F0A3A3A6
:101AF300700BD0F0D0E0D0E0D0E0021A8DA3A3D0D9
:041B0300F0D0E0221C
:101B0800C2AF02000022C0E074F212190CA2AFE4C6
:101B180033FED2AFE589A2E04006E589A2E1500391
:101B28001206C8758900758900C2C5751A00EEA22B
:101B3800E092AF7F0102196BC0E0C0D0E8C0E0E9D5
:101B4800C0E0E5A8D2AFC2C7751A00A2E7A2E79223
:101B5800AFD0E0F9D0E0F8D0D0D0E03274F5121868
:101B680020EAFEEBFFEE2434F8EF3400F988088908
:101B780009EE2435121C90F8EE2437121C90F50A51
:101B8800EC850AF0A4FCAAF0850AF0EDA42AFDE889
:101B98002CF8E43DF97A257B001216D2EA850882F2
:101BA800850983F074075AF87401B800028004C3E9
:101BB80033D8FCFBEA131313541FF8EE28F8EF345C
:101BC80000F9E8245DF582E9121C935B6003EA8062
:101BD8001CEE2436121C90F5F0EA84A8F0EE28F8E2
:101BE800EF3400F9E82438F582E9121C93F97F04F0
:101BF8000218CC74F5121820EAFEEBFFEE2434121A
:101C08001C90C0E0EE2435F582EF3400F583D0E077
:101C1800F08E828F83A3A3A3A3A3E0FAA3E0FB8E95
:101C2800828F83A3A3A3A3A3A3A3E0FCA3E0FDEC5B
:101C3800C39AF50AED9BF50BEE247FF508EF340007
:101C4800F509850882F583E06401702BEE2480F5A0
:101C580082EF3400F5831219DE121C9974021217F0
:101C680073E960137CE57D06EEFAEFFB120F9285AF
:101C78000882850983E4F0AC0AAD0BEEFAEFFB129B
:101C88001B6412272D021BF6F582EF3400F583E062
:101C980022C082C083851882851983E0F8A3E0F901
:101CA800C3EA9CEB9D5010C3EC98ED99401BC3EA26
:101CB80098EB995014800EC3EA98EB994007C3EC4F
:101CC80098ED994004790180027900D083D082226E
:101CD800EAC39CFAEB9DFB2274ED1218209005AB29
:101CE800E064086005E06407702C9061C8E0602635
:101CF8009005D9E0F874FF68601CE875F003A4C883
:101D0800AAF02AF974DB28FE740539FF8E828F83C6
:101D1800A3A3A3E070057900021E80EE2468F510E5
:101D2800EF3400F511906060E0851082851183F032
:101D3800750A4E750B07750800750900E5D914F585
:101D48000EE5D95403F50F601CEE2482F50CEF3430
:101D580000F50D7403650F6058E50E6013EE2467F7
:101D6800121C90700B793DEEFAEFFB120FB680A6AD
:101D7800900749E064016026850C82850D83E06048
:101D880004780480027800850E08E508C398FA955F
:101D9800E0FB120E368A088B09EA45097006121212
:101DA80014021D1E850C82850D83E070048A0A8B3F
:101DB8000B78008016E5D9C0E08812E50A2512F5EF
:101DC80082E50B3400F583D0E0F008E8C3950E40B7
:101DD800E4850C82850D83E0602874FC250EF50EE1
:101DE800780A1219C7AC0EA90FEEFAEFFB121064AD
:101DF8007402121773E9700AAA08AB0912072202C3
:101E08001D6D7403650F6058850E0C750D00780CF8
:101E18001219C7AC0AAD0BAA08AB09121028740234
:101E2800121773851082851183E0F8748068700535
:101E3800750C7F8002880CE50CF50A780A1219CB1C
:101E4800E50FF50A780A1219CBA90EAC08AD09906E
:101E580005D9E0FA7B00120CCE74021217738013B6
:101E68009005ABE06408600BAC0AAD0BEEFAEFFB33
:101E78001210FA12122079017F0C0218CC74F31296
:101E8800182074FC12175DEAFEEBFF8908A2AFE484
:101E980033F509C2AFEE2463F50AEF3400F50B8081
:101EA80010AA0AAB0B120FE01207229006ECE0040E
:101EB800F0850A82850B83E0F8A3E0F9E849602FF2
:101EC800E82402FAE93400FBEA2402F50CEB3400BA
:101ED800F50D780C1219C78A828B83E0FCA3E0F910
:101EE800EEFAEFFB120FD47402121773E960B29086
:101EF80006ECE060579006EDE0F89006ECE0C39839
:101F0800500C7402650870449006EEE0603E8E82C4
:101F18008F83A3A3A3A3E0851882851983121F6466
:101F280074021217A8E8121F649006EBE028F074F8
:101F3800021217A8AC82AD83851882851983AA82FC
:101F4800AB837901120CDA9006ECE4F0E509A2E023
:101F580092AF74041217737F060218CCF0A3E4F052
:101F68009006ECE0F82200008521878522C622C071
:101F7800E074EF12190CA2AFE433FEC2AF759B00F8
:101F8800906182E0A2E05012E591A2E0500C7591B8
:101F9800FE740165217003121CE0E0A2E55051E5D2
:101FA80091A2E5504B7591DF9005ABE064076005A1
:101FB800E06408702374016521703579019005D9B2
:101FC800E0FA75F003A4CAA8F028FB74DB2AFA74B7
:101FD800053BFB121E858018E0640D70139005CD3B
:101FE800E004F064287002E4F07A00E0F9121226A6
:101FF800906182E0A2E6400302209EE591A2E640BD
:102008000302209E7591BF9005ABE064057008122D
:10201800113C12114880031211427521001211B4AB
:10202800E99005ACF079001211A8120EFC7A017B38
:10203800009005AAE0F91204E2907803E064427087
:102048005590074DE014F0704DC2AF12205600783D
:102058002AD0E0F618D0E0F6E59F54077005750918
:10206800FF800375097FC4C0E07829E6F50808E613
:102078005509F509740B780812173BD0E02508F8C4
:10208800906270E0A2E740F8E8C333906272F09083
:102098006270E0D2E0F0906181E0A2E35009E5E9E6
:1020A800A2E3500375E9F7A3E0A2E75009E591A27E
:1020B800E7500375917FEEA2E092AF7F0402196B9F
:1020C800C0E0C0D0C082C083906183E0A2E0500924
:1020D800E5BFA2E0500375BFFEE0A2E15009E5BFED
:1020E800A2E1500375BFFDE0A2E25009E5BFA2E2FC
:1020F800500375BFFBE0A2E35009E5BFA2E350031C
:1021080075BFF7E0A2E45009E5BFA2E4500375BF2C
:10211800EFE0A2E55009E5BFA2E5500375BFDFE097
:10212800A2E65009E5BFA2E6500375BFBFD083D031
:1021380082D0D0D0E032C0E074F212190CE5A7A228
:10214800E4500FE5A1A2E4500953A7EF75A1EF12DF
:102158002192E5A7A2E5500CE5A1A2E5500653A7F8
:10216800DF75A1DFE5A7A2E15009E5A1A2E15003CF
:1021780075A1FDE5A7A2E2500CE5A1A2E250065325
:10218800A7FB75A1FB7F0102196B74F81218207563
:1021980021019005ABE0640670077A007B001211FC
:1021A80024A2AFE433FED2AF9005B1E06401701809
:1021B8007A207B009005AAE0F912056C7A207B0052
:1021C8009005AAE0F91204E8906182E0D2E6F09066
:1021D800074AE0602185C62280169005B0E06401B8
:1021E8007008E5C654F84405F5C653BEFC121F70C6
:1021F8007401652160E4EEA2E092AF7F010218CC81
:102208008E238F24858228858327851882851983C4
:10221800E0CEA3E0CF852882852783EBC9EAC8ED05
:10222800CBECCA75F010C3E833C8E933C9EA33CA3E
:10223800EB33CBC3EA9EF526EB9FF525B35004ABF1
:1022480025AA26EC33CCED33CDD5F0DAAE23AF2476
:102258002274E912182074FA12175DEAFEEBFF8C5B
:10226800088D099005ABE024F7C394055006751056
:102278000102238412109A8A0A8B0BEA450B700319
:1022880002238112115A8A0C8B0D12115AEA650C1D
:102298007003EB650D60ECEEFCEFFD851882851987
:1022A80083AA82AB83121160850A82850B83A3A35C
:1022B800780C12162D908F7F780C121607851882CD
:1022C800851983781412162D908F7F7814121607AB
:1022D800780C791412143F501F780C79141215DFFA
:1022E800908F63780C12145F4047850C10850D1190
:1022F800850E12850F138045908F63851410851500
:10230800118516128517137810790C1215DF7810BD
:1023180012145F501C7510007511007512007513AA
:1023280001781079141215DF7810790C1215A6802F
:102338000C75100175110075120075130074097879
:1023480010121587908F8F780C12162D7810790C33
:102358001214FE9005ABE06408600AE064066005AC
:10236800E064057020908F73781012145F501690F7
:102378008FCF78101215B9800C7510007511007583
:102388001200751300850882850983781012163C9F
:1023980074061217737F100218CC74F712182012E3
:1023A8001172900748E064017010906245E4F0A350
:1023B800F053F4F343FE0C5390F3121112E5C65494
:1023C800804449F5C6E59E547F644970F89061855C
:1023D800740FF0900746E0F47002A3E0602C7508D3
:1023E80001750900900746E0780812174AE508F4D5
:1023F800FAA3E0600814600A14600C800DEA5280A9
:102408008008EA52908003EA52A079007F020218FD
:10241800CC74F7121820E9FEEAFF74016E700C7A8A
:10242800807B009005AAE0F91204E290273CE4932F
:10243800F46008E493F9120EDE800953C680E59E25
:10244800547F70FA121118900748E0640170031263
:102458000F14900746E0F47002A3E0602A750801A3
:10246800750900900746E0780812174AAA08A3E001
:10247800600814600A14600C800DEA42808008EA43
:1024880042908003EA42A012109A8A088B09A80891
:10249800A909E8496017E5E170FCE82414F582E928
:1024A8003400F583E0F874FF68600288E174016F16
:1024B800700A7A019005AAE0F9120536022414740C
:1024C800F11218208A088B098C0A8D0B908F7F785F
:1024D80008121607740F1217A8780C12162D908F71
:1024E8007F780C1216077808790C12143F908F63C6
:1024F80050107808790C1215DF780812145F401410
:10250800800E780C79081215DF780C12145F5004CD
:102518007901800279007F080218CC74ED12182026
:102528008A088B098C0A8D0B908F7F780812160702
:1025380074131217A8780C12162D908F7F780C122E
:102548001607780C790812143F40117808790C1294
:1025580015DFAA08AB09AC0AAD0B8022751000750F
:1025680011007512007513017810790C1215DF78B7
:102578001079081215A6AA10AB11AC12AD137F0C76
:102588000218CC908F7F780812162D8A828B837858
:102598000812161A7F040218CC74F51218208C82BF
:1025A8008D83780812162D8A828B8378081215F38A
:1025B8001225F5C3E098F0A3E0991225E7401E9094
:1025C8008FAF780812162D8A828B8378081215CC63
:1025D8008E828F83E02420F0A3E0344EF080A4F0B4
:1025E8008E828F83C3E09420A3E0944E22EA2404D1
:1025F800F8EB3400F9E8FEE9FF8C828D83A3A3A3EE
:10260800A3E0F8A3E0F98E828F832274F5121820D4
:10261800E9FE900700E0FAA3E0FBEEC333F8E433E9
:10262800F974E728F582748E39F583E02AF508A352
:10263800E03BF50978081219C7908FB312164B12B0
:10264800220874021217738A088B098C0A8D0B747E
:1026580010780812156EAA08AB097F040218CC740A
:10266800F11218208A0C8B0D8C0E8D0F740F121717
:10267800A8E0FAA3E0FB74111217A8E0F508A3E09C
:10268800F50978081219C7EA2401F508EB3400F5B2
:1026980009E4F50AF50B780C790812147E908FE39B
:1026A800780812162D780C790812147EAA0CAB0D36
:1026B800AC0EAD0F12220874021217738B09EA458B
:1026C8000960047A0180027A00EC2AFCED3400FDEE
:1026D80074131217A8E0F8A3E0F9E8FEE9FFECF894
:1026E800EDF97A717B021216D288088909E4F50A95
:1026F800F50B8E828F83780812163CECF8EDF97A88
:10270800717B021216D28A088B0974057808121791
:102718004A8E828F83A3A3A3A3E508F0A3E509F05B
:102728007F080218CCC082C083E9906000F0D08393
:03273800D082222A
:10273C00FFFFFFFFFFFFFFFFC082C083E9900C414A
:10274C00F00229D374F71217B4E99004EAF07C2252
:10275C007D057AFF7BFF120C209004EB74FFF0A335
:10276C00F0A3E4F0A3F07905120BA89004EAE0F9C9
:10277C00120ACA7A3E7B0C120DE87F01021886748D
:10278C00F41217B48A088B09EB548060309004EA79
:10279C00E0F91204CA8A0A8B0BAE0AAF0BEE4F603B
:1027AC00138E828F83E064B07003120BC0EEFAEFCD
:1027BC00FB1204B8AA08E5096480FB80047A007B4C
:1027CC00000229A274F21217B474FC12175DEAFE0F
:1027DC00EBFFEE4F603874021217A8EEF0A3EF1265
:1027EC002C07ECF0A3ED122C07AA82AB83120AC4BF
:1027FC00E9F508707374121217A81237BBE50A4575
:10280C000B60658E828F8312287EEE4F70057508E3
:10281C000280557A067B0012051E8A0C8B0DA80CC3
:10282C00A90DE8497005750813803D88828983E4F9
:10283C00122888A3A3EEF0A3EF123C54E50AF0A3F0
:10284C00E50BF09004F01229109004F06017E0FCF6
:10285C00A3E08003EAFCEBFD8C828D8312291070BF
:10286C00F38C828D831236E0A9087404121773025C
:10287C003E56A3A3A3A3E0FEA3E0FF22F0A3F0889F
:10288C008289832274F21217B4890AE975F017A4AD
:10289C00FEAFF09004EFE4F09004ED122910600A02
:1028AC001205249004EDE4F0A3F0EEFAEFFB120510
:1028BC001E8A088B09EA4509602FEEFCEFFD7900B2
:1028CC001204A69004EDE508F0A3E509F07B008066
:1028DC00081228FAE4F0A3F00BEBC3950A40F2E5DA
:1028EC000A9004EFF0790080027913023E56EB75E2
:1028FC00F017A4F8A9F09004EDE028FAA3E0398AC7
:10290C0082F58322123476EA4B2274F41217B475D2
:10291C000800750900740C1217A8123C28FEE9FF78
:10292C00800CE5082401F508E5093400F509C3E538
:10293C00089CE5099D503285080A85090B740378BB
:10294C000A12174AEA250AF8EB350BF988828983B3
:10295C00A3A3A3A3A3A31237BBEE650A7003EF6571
:10296C000B70BFE8FAE9FB80047A007B00802774C7
:10297C00F41217B47900EAA2E0501B7508407509EF
:10298C008F78081219C77C047D007A437B0C120BDC
:10299C00A274021217737F04021886C082C083903F
:1029AC0004F01229DA601C88828983A3A3E06A7080
:1029BC0003A3E06B8882898370E8A3A3A3A31234DA
:1029CC007280047A007B00D083D082020135123FE2
:1029DC0029E8492274EE1217B474FC12175DEAFE52
:1029EC00EBFF851882851983E4F0A3F0EE24021224
:1029FC0036C4EE2405122BF5EE2404F50EEF122F3F
:102A0C00DAE024FE603924FC604624FE605224FE89
:102A1C00605E24FE7003022AFA24FE7003022B72FD
:102A2C0024FE7003022B8124FE7003022B9024FCE5
:102A3C007003022B9F24FE7003022BAE022BEB9033
:102A4C0005097417F0A3E4122C0F120842022BEBA9
:102A5C00851882851983AC82AD83120BC6022BBB01
:102A6C00851882851983AC82AD83120BCC022BBBEB
:102A7C00850C08850D0974021217A8AC82AD8385EC
:102A8C000882850983123472120AE88A0C8B0DAC09
:102A9C000CAD0DEC4D6042E4F50CF50D780C1219F3
:102AAC00C7750C09750D05780C1219C7750C0A75CC
:102ABC000D05780C1219C774081217A81219DE79B3
:102ACC001612346C120C087408121773E9F50C709A
:102ADC000B12346812085A800F750C018508828518
:102AEC000983122BFD1236E0850C08022BBE7402F2
:102AFC001217A8AC82AD83850C82850D83123472BB
:102B0C00120AE88A108B11AC10AD11EC4D604385A4
:102B1C000C82850D83A3A31219DE7510097511059E
:102B2C0078101219C775100A75110578101219C78B
:102B3C0074081217A81219DE791612346C120C08CC
:102B4C007408121773E9F509700B123468120860D7
:102B5C00800F750901850C82850D83122BFD1236B1
:102B6C00E0850908804C851882851983AC82AD8379
:102B7C00120BD2803A851882851983AC82AD8312F0
:102B8C000BD8802B851882851983AC82AD83120BF0
:102B9C00DE801C851882851983AC82AD83120BE410
:102BAC00800D851882851983AC82AD83120BEAE9FE
:102BBC00F508E50860298E828F83A3E06414601FFA
:102BCC00850E82850F83E0900509122C07123F2594
:102BDC0090050A1236E0E508A3122C0F12083CEE01
:102BEC00FAEFFB120B660235CCF50CEF3400F50D49
:102BFC0022123F2985188285198322F08518828537
:102C0C00198322F07C097D05850A82850B83123499
:102C1C00762274EE1217B474FC12175D8A0A8B0BB1
:102C2C008C0E8D0FEA2405F508EB3400F5097C15A4
:102C3C007D0079007A097B051204A6E5082402F5CB
:102C4C000CE509122BF8851882851983858210856D
:102C5C00831178101219C7850882850983A3A3A351
:102C6C00A31231221219C7E5082405F510E5093421
:102C7C0000F51178101219C7850C82850D8312345A
:102C8C007C120AE274061217738A108B11AE10AF05
:102C9C0011E50A2402F50AE50B1236C7EE4F700354
:102CAC00022DE4801774021217A8123472888289DC
:102CBC0083EAF0A3EBF0900509E004F0900509E03D
:102CCC00C394054003022DE4E4F510F511781012BD
:102CDC0019C77510F275110478101219C77510F315
:102CEC0075110478101219C774061217A81219DE80
:102CFC007910EEFCEFFD12346C120C0874081217EC
:102D0C0073E9705E850882850983A3A3A3A3A3A39B
:102D1C00A3E0F89004F2E06870481231221219C74F
:102D2C007CF37D04E5082408FAE5093400FB120461
:102D3C00A07402121773E960298E828F83A3A3A358
:102D4C00A3123472900509E0F51074027810121772
:102D5C004A740A2510F58274053511F583EAF0A33F
:102D6C00EBF074021217A88582108583117810126B
:102D7C0019C774021217A81219DE850C82850D83EF
:102D8C00123F3A120AEE74041217738A108B11AEAA
:102D9C0010AF11900509E0F5107511007402781050
:102DAC0012174A74092510F874053511F9888289AF
:102DBC0083A31229107003022CA8E82403F8E93429
:102DCC0000F9EE4F6003022CB18882898374FFF006
:102DDC00A3F0900509E004F0900509E0600A1234B4
:102DEC006812084E7900800B85088285098312369B
:102DFC00D7790A0235CC74EA1217B474FE12175D37
:102E0C008C128D13EA2405F50CEB1240A4122882C7
:102E1C00750800750900EA2402F510EB3400F51171
:102E2C0085188285198385820A85830B780A121985
:102E3C00C7850C82850D83A3A3A3A3122FE41219BB
:102E4C00C7E50C2405F50AE50D1236C7780A1219E8
:102E5C00C7850C82850D83123F38120AE274061264
:102E6C0017738A0A8B0BEA450B7003022F95EA2421
:102E7C0004F50EEB122FDA1228828A828B83A3A31D
:102E8C00A3E0F9851082851183123472120AD0E9FD
:102E9C00F5096003022F95E4F514F5157814121951
:102EAC00C77514F275150478141219C77514F375D7
:102EBC00150478141219C774061217A81219DE79A2
:102ECC0013AC0AAD0B851082851183123472120C6F
:102EDC00087408121773E9F5096003022F95900422
:102EEC00F2E0F8E5087009E0240290050AF080177A
:102EFC0090050AE0FCE82402FAE43400FBEA6C706A
:102F0C0001EB6003022F99850882AA821231199471
:102F1C00141231115073850E82850F83E0C0E0745A
:102F2C000B2A122FD1D0E0F00508850E82850F8375
:102F3C00A3E0C0E085080A740B250A122FD1D0E05B
:102F4C00F005089004F2122FE41219C77CF37D04EB
:102F5C0085080A740B250AFA74053400FB12048EDA
:102F6C0074021217739004F2E02508F50874FF6ED2
:102F7C00700374FF6F6012EE24010EEF3400FFE556
:102F8C0008C394145003022E2CE508601312335D11
:102F9C0085108285118312347212085479008014C2
:102FAC00E509700375090A851282851383EEF0A377
:102FBC00EFF0A90974021217737F0E0218868508A8
:102FCC000C740B250CF58274053400F58322340047
:102FDC00F50F850E82F58322123C672274EE1217D0
:102FEC00B474FE12175D8C0E8D0FEA2405F50CEBF4
:102FFC00122BF8750B00900509E4F0F50AEA24028F
:10300C00F508EB3400F5098049900509E0FA9004C5
:10301C00F2E0F81231199417123111400D90050994
:10302C00E0F87416C3989004F2F01231221219C70A
:10303C007CF37D04740A2AFA74053400FB12048EA6
:10304C0074021217739004F2E0F8900509E028F06E
:10305C00050AE50C2416F582E50D122FD5E0F8E5EE
:10306C000AC39840030230FA900509E0C394165045
:10307C007DE50AC333F8E433F9E50C28FEE50D3998
:10308C00FF851882851983AC82AD838E828F831263
:10309C003472120AE88A108B11AC10AD11EC4D7021
:1030AC0005750B018043E4F510F51178101219C762
:1030BC007510F275110478101219C77510F375118B
:1030CC000478101219C774061217A81219DE791693
:1030DC00850882850983123472120C087408121741
:1030EC0073E9F50B70030230151236D380107C098E
:1030FC007D05850882850983123472120866A90B36
:10310C0074020235CEE99400C365D03322EA28F864
:10311C00E43400F9E822E0F51075110078102274FF
:10312C00EA1217B474FC12175D8A0C8B0D8C128D7D
:10313C0013EA2405F50AEB1236C775080075090069
:10314C00E50A2402F510E50B3400F5117402121790
:10315C00A885820E85830F780E1219C7850A828581
:10316C000B83A3A3A3A3123C131219C7E50A2405CE
:10317C00F50EE50B3400F50F780E1219C785108289
:10318C008511831236CD12346C120AE274061217B2
:10319C00738A0E8B0FAE0EAF0FE50C2402F50EE505
:1031AC000D3400F50F80408882898374FFF0050888
:1031BC00122FCA74FFF005089004F2E0F50C750D9F
:1031CC0000780C1219C77CF37D0485080C740B2550
:1031DC000CFA74053400FB12048E740212177390EF
:1031EC0004F2E02508F508EE4F60718E828F83A300
:1031FC00A3A3E0F9850E82850F83123472120AD0D4
:10320C00E9F509EE2404122BF5E97044E4F514F504
:10321C001578141219C77514F2751504781412194F
:10322C00C77514F375150478141219C7740812179E
:10323C00A81219DE7911EEFCEFFD850E82850F8345
:10324C00123472120C087408121773E9F50960270E
:10325C00850C82850D831233531236E0E50870031A
:10326C0002333912335D850E82850F83123472124C
:10327C00086C790002334E850882AA82EA9004F227
:10328C007009E0240490050AF08022E0F890050A09
:10329C00E0F514E82404FCE43400FDEC6514700142
:1032AC00ED70C0123119941212311150B6850C8286
:1032BC00850D83E0C0E0740B2A122FD1D0E0F0050D
:1032CC0008850C82850D83A3E0C0E0122FCAD0E0E4
:1032DC0012336F85820C85830D780C1219C7740418
:1032EC001217A81219DE851082851183123F3A122B
:1032FC000AEE74041217738A0C8B0DAE0CAF0D858D
:10330C00080C740B250CF874053400F9EE4F70039F
:10331C000231B3851882851983E088828983123340
:10332C006FA3E0C0E0122FCAD0E00231C1E50970F2
:10333C000375090A850A82850B831233531236E012
:10334C00A9097404022FC2123F29851282851383A6
:10335C002290050AE0F5F0E50884900509F07C0957
:10336C007D0522F005088518828519832274EC12DC
:10337C0017B474FE12175D8A088B098C0E8D0FEA38
:10338C002405FEEB3400FF851882851983AC82ADD1
:10339C00838E828F83123472120AE88A0A8B0BEEA8
:1033AC002418122BF5EA450B70030234431235B581
:1033BC005032851882851983123472120BFC8A10D4
:1033CC008B11EA4511606B7912AC0AAD0B85088242
:1033DC008509831234728510828511831217B2E924
:1033EC00F50A7058E4F50AF50B780A1219C78E82A3
:1033FC008F83A3A3E0F50A780A1219C7EE240312EF
:10340C0036C4780A1219C78E828F8312347C120C40
:10341C000E7406121773E9F50A7021850C82850D5E
:10342C0083E0701F8508828509831234721208723A
:10343C008011750A0E8009750A018004E50A600383
:10344C001236D3850C82850D83E0600479008002EE
:10345C00A90A74021217737F0C0218867C097D0569
:10346C00850A82850B8312347622E0FAA3E0FB22D4
:10347C00E0FCA3E0FD850882850983123476227472
:10348C00EE1217B474FE12175D8A088B098C0C8D22
:10349C000DEA2405FEEB3400FF750E0085188285BD
:1034AC001983AC82AD838E828F83123472120AE838
:1034BC008A0A8B0BEA450B70030235A11235B55005
:1034CC0035851882851983123472120BFC8A0E8B87
:1034DC000FEA450F605E7912AC0AAD0B8508828548
:1034EC000983123472850E82850F831217B2E9F5A7
:1034FC000E60030235A48508828509831237BBAAA6
:10350C000AFB120BF08A108B11A810A911E8497054
:10351C001E7AFF7BFF120BF08A108B11A810A911D9
:10352C00E849606C88828983E50AF0A3E50BF075A5
:10353C000A008007750E0E805F050A9004EFE0FA12
:10354C00E50AC39A504AE50A75F017A4FAABF0885D
:10355C00828983A3A3E02AFAA3E03BFB8A828B83B4
:10356C001236CDEC4D70D2750A17750B00780A1215
:10357C0019C7EEFCEFFD12048E7402121773EEFCE9
:10358C00EFFD850882850983123472120878801445
:10359C00750E098003750E01123F21850C82850D75
:1035AC00831236E0A90E02310CE5082402F508E579
:1035BC00093400F5098A828B83A3A3A3E0A2E52238
:1035CC0074041217737F0A02188674EC1217B48CE9
:1035DC00108D11EA2405F50CEB122BF8750F00EA8F
:1035EC002402F50AEB1236C7850A82F5831234726F
:1035FC00120BF08A088B09EA450970030236B9757B
:10360C000E008071850C82850D83E06401704F8EF5
:10361C00828F83A3A31219DE8E828F83A3A3A3A30D
:10362C00E0F51275130078121219C7EE2405F51285
:10363C00EF3400F51378121219C712346C120C0EF9
:10364C007406121773E9F50F6014850C82850D83CF
:10365C00E4F0123F218510828511831236E07C172D
:10366C007D007900EEFAEFFB1204A68E828F83E4C4
:10367C00F0A3F0050E9004EFE0F8E50EC398501E91
:10368C00E50E75F017A4F8A9F0850882850983A3C7
:10369C00A31240AE1236CDEC4D60030236108508F5
:1036AC008285098374FFF0A3F0E50F700612346C69
:1036BC0012087EA90F023463F50AEF3400F50B22D1
:1036CC00A3E0FCA3E0FD228E828F83123F29850E9E
:1036DC0082850F83E8F0A3E9F022C082C0839004B6
:1036EC00EBE06A7003A3E06B70067AEB7B0480045A
:1036FC007A007B000229D3C082C08378008C828D33
:10370C0083E06A7003A3E06B7010E875F003A4F813
:10371C00A9F0EC28FAED39FB8015088C828D83A377
:10372C00A3A3E06A7003A3E06B60DF7A007B000266
:10373C0029D374F61217B4120BBA8A828B83E582E2
:10374C00458370067A007B008007A3A3A3A31234E1
:10375C0072023DD274F21217B4E9FE740E1217A85D
:10376C001237BB74101217A8123C338C828D83E075
:10377C0064027036A3123F2FF50CA3E0F9A80C7469
:10378C00026870037429697021750C02750D00783C
:10379C000C1219C778081219C7780A1219C7EEF952
:1037AC00120C32740612177380027901023E56E035
:1037BC00F50AA3E0F50B2274E81217B474FB121788
:1037CC005DE9851882851983F08A168B17ECFEED5E
:1037DC00FF751000741D1217A8123F25741D1217C7
:1037EC00A81236E08E828F83A3A3A3E0A2E4502D0F
:1037FC00741D1217A8123472120BFC8A828B83E58B
:10380C008245837003023C04790AEEFCEFFDAA1694
:10381C00AB171217B2E9F5106003023C07741F12C4
:10382C0017A8123C3374211217A81237BB74231239
:10383C0017A8E0F50EA3E0F50F8E828F83E06402EB
:10384C006003023BB2A3123F25850882850983A33E
:10385C00858212858313EE2406122BF588828983C8
:10386C00E0FAA3E0F9EA2400F514E439F51578142C
:10387C00121A51010000280128A738070002286CF1
:10388C00390328D9380029A33A0129CE3A02296FE5
:10389C003A0329A33A04294D3BB23BE50E450F6090
:1038AC0003023BAD850C82850D83123C28FAE9FBA3
:1038BC008A828B83E0850A82850B83123C5E121907
:1038CC00C78A828B83A3E0FCA3E0023B37E50E455D
:1038DC000F6003023BAD850A82850B837401F012E5
:1038EC003C3B850882850983F07C007D008E828FAD
:1038FC0083A3A3A3A3E02401FAA3E03400FB120AE0
:10390C00E8EA4B60418A828B83E02402F8850A82C4
:10391C00850B83E028F0EA2404F8EB3400F9888264
:10392C008983E0851282851383123C70123C5E12EF
:10393C0019C78A828B831236CCE5082403FAE50971
:10394C003400FB023B3C850A82850B83E02404F0A7
:10395C007C047D007900AA12AB131204A6023C076A
:10396C00E50E450F6003023BAD123C3BFEA3E0FFAE
:10397C00850A82850B837404F0EE850882850983A1
:10398C00F0EF851282851383F074031217A8AC82B2
:10399C00AD83EEFAEFFB120AE88A0C8B0DEA450DAB
:1039AC007003023A508A828B83A3A312287E74017F
:1039BC001217A885820E85830F780E1219C774050D
:1039CC001217A81219DE7CFF7DFF120AEE74041286
:1039DC0017738B0FEA450F7033850C82850D83129C
:1039EC003C131219C7850C82850D83A31219DE7C3A
:1039FC00027D007A207B9012091A7404121773E965
:103A0C00700A74011217A874FFF0A3F08E828F83D2
:103A1C00E064027039750C02750D00780C1219C730
:103A2C008E828F831236CCE5082404FAE509340023
:103A3C00FB12048E7402121773850A82850B83E0C5
:103A4C002402800974011217A8EEF0A3EFF07401A0
:103A5C001217A8123C24F074011217A8A3123C1CD4
:103A6C00023BA7E50E450F6003023BAD850C82853A
:103A7C000D831236CDAA16AB17120C26850A828539
:103A8C000B837402F0EA850882850983F085128223
:103A9C00851383EB023BAAE50E450F6003023BAD99
:103AAC00123C3BF8A3E0F9850A82850B837402F083
:103ABC00E8850882850983F0E985128285138302E3
:103ACC003BAA850C82850D83123472120488EAFCA1
:103ADC008C82A882C3950EE4950F405FE8650E704A
:103AEC0002E50F70047C008022851882851983E022
:103AFC00FAE50E2AFAE50F3400FBC3EA98EB9400C2
:103B0C005003E08005E50ECCC39CFCEC850A828555
:103B1C000B83F08C0A750B00780A1219C7850C827E
:103B2C00850D83E0250EFCA3E0350FFDAA08AB093B
:103B3C0012048E7402121773023C07751007023CB4
:103B4C0007E50E450F705A850C82850D83123F25B3
:103B5C00850A82850B83740712288A123C1C122852
:103B6C008AA3E0851282851383F0E82402FAE934F3
:103B7C0000FB8A828B83123C1C123C4B123C24A30C
:103B8C00123C54123C2DF0E82405F8E93400F98875
:103B9C00828983123C2DA3123C70A3A3A3A3F080B3
:103BAC005A75100B8055741D1217A8123472120B13
:103BBC00BA8A828B83E5824583603D123F25880C4F
:103BCC00890DE8450D6031780E1219C7780A121963
:103BDC00C778081219C774061217A8E0F9EEFCEFA3
:103BEC00FDAA16AB17850C82850D831217B27406CD
:103BFC00121773E9F510800375100EA910740512D5
:103C0C0017737F10021886E0F50E750F00780E22E0
:103C1C00E085088285098322123C7A22123F29E82A
:103C2C0022123C7AA3A322E0F508A3E0F509228531
:103C3C000C82850D83E0F8A3E0F5838882E022A353
:103C4C00A3F08A828B83A322F088828983A3A3A307
:103C5C00A322F08A828B83123C6722E0F50A750B53
:103C6C0000780A22F088828983A3123C7A22E085AC
:103C7C000882850983A3A32274EE1217B474FE1272
:103C8C00175D8A0A8B0BECFAEDFB74141217A8E083
:103C9C00F510A3E0F51174161217A8E0FE741812B3
:103CAC0017A8E0F50EA3E0F50F851882851983ACF3
:103CBC0082AD83120AE88A0C8B0DEA450D604985AA
:103CCC001882851983123472120BBA8A828B83E59F
:103CDC00824583602FA3A3123C33E5084509602479
:103CEC00780E1219C778101219C7EEF9AC0CAD0D7D
:103CFC00AA0AAB0B8508828509831217B2740412C9
:103D0C0017738006790E8002790102310C74F61259
:103D1C0017B474FE12175D740C1217A8123C288588
:103D2C001882851983F074011217A8E9F0E4F508DC
:103D3C00F50978081219C775080278081219C774A2
:103D4C00041217A885820885830978081219C712EE
:103D5C000C0E74061217737402121773806874F7C2
:103D6C001217B4EAFEEBFF89087C227D05120C26A3
:103D7C00EA5402600BA908EEFAEFFB120ADC80028F
:103D8C00790102278674F61217B474FF6A700374F3
:103D9C00FF6B70168C828D83123DD7E4F08C828D74
:103DAC0083A3A3A3123DD7A38018120BF68A088B0A
:103DBC0009A808A909E849600D8882898374FF1253
:103DCC002888A3A3E4F07F0202188674FFF0A3F006
:103DDC008C828D83A3A32274F61217B4120BF68A6D
:103DEC00828B83E58245836006A3A3E0FA80027A86
:103DFC00007B0080D174F21217B48A088B09ECFE98
:103E0C00EDFF740E1217A8E0F50A120BF68A0C8B54
:103E1C000DA80CA90DE8497026EEFCEFFD7AFF7B8E
:103E2C00FF120BF68A0C8B0DA80CA90DE849700437
:103E3C007911801688828983E508F0A3E509F0885A
:103E4C00828983A3A3E50AF079007F0602188674A1
:103E5C00EE1217B4EAFEEBFF8C088D09890C741472
:103E6C001217A8123F2574161217A8123472750D6A
:103E7C0000E8496003023F197402650C6003023FBD
:103E8C001474121217A8123F2FFCA3E0F9EC2400B3
:103E9C00F50EE439F50FEAF4F8EBF4F9EC58F8E523
:103EAC000F59F9E849705CE5082406F8ED3400F97F
:103EBC00880A890B8882F583123F3A120C268A10E5
:103ECC008B11E50E65107004E50F65116042780EDC
:103EDC001219C7850A82850B83123F3A120C2C7477
:103EEC0002121773E9F50D7027780E1219C78508A1
:103EFC0082850983A3A3123F38120C447402121753
:103F0C0073800D750D808008750D0D8003750D0B7C
:103F1C00A90D0235D18E828F83123F2922E0F8A39E
:103F2C00E0F922123F2988828983E022A3A3E0FCD6
:103F3C00A3E0FDEEFAEFFB2274E81217B474E7125B
:103F4C00175D851882851983EAF0A3EBF08C168D2A
:103F5C0017890E75080075090074311217A8E0F561
:103F6C0012A3E0F51374331217A8E0F514A3E0F5CF
:103F7C001574351217A8E0F50FE50975F003A4F8D0
:103F8C00A9F08518828519831240AEE0F47003A362
:103F9C00E0F47003024091EE2402F50CEF1240A401
:103FAC00E0700302409185160A85170B780A1219E6
:103FBC00C7AC14AD15AA12AB13120BAE74021217C8
:103FCC00738A0A8B0BEA450B7003024091E4F510DF
:103FDC00F51178101219C774061217A8858210856E
:103FEC00831178101219C774091217A885821085CD
:103FFC00831178101219C7851282851383A3A3A38A
:10400C00A31219DE7914AC0AAD0B8E828F83123495
:10401C0072120C087408121773E97069850A82858C
:10402C000B83A3A3A3A3123F2574021217A8123665
:10403C00E0850C82850D83E0A2E05018A90E740275
:10404C001217A8AC82AD838E828F83123472120B3E
:10405C0000E94208850C82850D83E0A2E15026E53B
:10406C000FF50A780A1219CBA90E74031217A8AC13
:10407C0082AD838E828F83123472120AFA7401120B
:10408C001773E942080509E509C394025003023F7E
:10409C0085A9087419023C0B3400F50D850C82F5CA
:1040AC008322E028FEA3E039FF8E828F832274F2F4
:1040BC001217B4EAFEEBFF890B7401650B600E74EA
:1040CC0002650B706A7901120E06E97062EEFAEF66
:1040DC00FB120BF08A088B09EA45096047750A0048
:1040EC00800B7C177D0079001204A6050A9004EF62
:1040FC00E0F8E50AC3985021E50A75F017A4F8A971
:10410C00F0850882850983A3A3E028FAA3E039FB94
:10411C008A828B831229DA70C98508828509837497
:10412C00FFF0A3F07C227D05EEFAEFFB120C2002CF
:10413C003E5674F21217B48A088B09ECFEEDFF742C
:10414C000E1217A81237BB900C41E0F4603D7A09AF
:10415C007B001204B2EA4B60328A828B8374B1F01A
:10416C00A3E4123C4DA3123C4BA3E508F0A3E509D4
:10417C0012419AEEF0A3EF12419AA3A3E50AF0A321
:10418C00E50BF0900C41E0F91204BE023E56F08AA9
:10419C00828B83A3A3A3A3A32274F01217B474FA83
:1041AC0012175D890BECFEEDFF750A008A088B096E
:1041BC007808121A0B000410D843E841064220423A
:1041CC00384256426E429142A942BD42E7426F4389
:1041DC0080439743B243D843D843FD427401650BE7
:1041EC0060030243D38E828F83E0F8C394034003B1
:1041FC000243D3E89009F30243AF7402650B6003EA
:10420C000243D38E828F83124AD59009F4E8F0A32F
:10421C00E90243AF7401650B60030243D3124400FF
:10422C0040030243D3E89002A70243AF7401650B2D
:10423C0060030243D38E828F83E0F8C3940540035E
:10424C000243D3E89002A80243AF7401650B6003EC
:10425C000243D312440040030243D3E89002A90264
:10426C0043AF7410650B60030243D37508107509D6
:10427C000078081219C77AAA7B0212048E740212F3
:10428C0017730243F97401650B60030243D31244A4
:10429C000040030243D3E89002BA0243AF740165B5
:1042AC000B60030243D38E828F83E09009F70243A5
:1042BC00AF7404650B60030243D38E828F83780C3A
:1042CC0012162D908FB3780C12145F50030243D347
:1042DC009002BC780C12163C0243F9E960030243CD
:1042EC00D3120A88E97005120626806090034F806D
:1042FC006E7407650B60030243D3750806750900DD
:10430C0078081219C78E828F83A3AC82AD83740296
:10431C001217A8AA82AB8312049474021217737C2E
:10432C00007D00851882851983AA82AB838E828FCB
:10433C0083E0F91205CCE9F508C3940A4003024363
:10434C00F6120A88E9700CA90812062C795012078B
:10435C00A0806F74502508F58274033400F58374C3
:10436C000180407401650B705E1244005059E89056
:10437C0002BB802F7401650B704D8E828F83E0F829
:10438C00C3940A5042E89009F680187401650B70CA
:10439C00368E828F83E0F874F928C3940A5028E88B
:1043AC009009F8F080477401650B701B90034EE088
:1043BC00F88E828F83E090034EF0E87030E0640159
:1043CC00702B12061A8026750A188021C3EA9427CE
:1043DC00EB940050157402650B700F8E828F831254
:1043EC004ED4120926E9F50A8003750A02A90A744B
:1043FC0006024ACA8E828F83E0F8C394022274F0BC
:10440C001217B474CC12175D8C0A8D0B7420121712
:10441C00A8AC82AD8375838F75824C7406121670AE
:10442C0074201217A8AC82AD831205CCE9F5087480
:10443C00441217A8E0FEE9C3940A400302457875BC
:10444C00F006E9A4F50974261217A8AC82AD837A9C
:10445C000E74202509F912079AE9700974321217A3
:10446C00A8E0FF80027F009009F3E06402700474FE
:10447C00018001E4F50D780D1219CBEEFDEFFCA9CE
:10448C0008AA0AAB0B12065074011217737C147D28
:10449C00007900740C1217A8AA82AB831204A674BC
:1044AC000C1217A8AC82AD837A1074242509F9126A
:1044BC00079AE9703C7C1079FF740C1217A8AA8239
:1044CC00AB83120506E97029741C1217A8AC82ADD7
:1044DC00837A0474252509F912079A740C1217A80B
:1044EC00AC82AD83EFA2E0E433F9AA0AAB0B12095C
:1044FC00B0851882851983AC82AD837A0C747025D3
:10450C0008F912079AE97053851882851983AA82D3
:10451C00AB831205FC750800E50875F003A4F8A937
:10452C00F0851882851983E58228F8E583124CDE24
:10453C00124ECE601D88828983A3A3E0F50E750F01
:10454C0000780E1219C7AA0AAB0B120C14740212C3
:10455C0017730508E508C3940440BDEFA2E1500CA5
:10456C009002A6E0F9AA0AAB0B120C1A74046E7036
:10457C00279009F3E06402701F7A009002BAE060A1
:10458C00010A9002A7E06004780480027800E84AEF
:10459C00F9AA0AAB0B120A7079007434024ACA7475
:1045AC00F01217B4EAFEEBFF8C088D09750A0AE9C4
:1045BC00600C14600914603714607902465A1206B4
:1045CC000EE9F50AC3940A400302465AE508450968
:1045DC00607C750E06750F00780E1219C7EEFCEF95
:1045EC00FDAA08AB0912048E7402121773805F7552
:1045FC000B00750E06750F00780E1219C7EEFCEF46
:10460C00FDE50B75F00EA4F8A9F074C828FA740235
:10461C0039FB1204A07402121773E9600C850B0AA3
:10462C00E50AC3940A50278016050BE50BC3940AC0
:10463C00501C80BE120614E9F50AC3940A500FE50B
:10464C000845096009AA08AB09A90A120608A90AB3
:10465C00024ACD74F41217B4890875091574FF6AEF
:10466C00700374FF6B70277E00AC087A027B00EE3F
:10467C00F91205EAE960037509000EEEC3940A40CD
:10468C00E8E50860537A3E7B06120E18804A120D3C
:10469C00FA8A0A8B0BAE0AAF0BEE4F60387C007DAA
:1046AC0000EE2405FAEF3400FB8E828F83A3A3A3C4
:1046BC00A3E0F91205CCE9C3940A500CAC087A02B9
:1046CC007B001205EA750900E508600CEEFAEFFBB9
:1046DC0012063E8003750914A9098005740E121781
:1046EC00737F0402188674F21217B4ECFEEDFF759A
:1046FC000815740E1217A8E0F50AA3E0F50B74FF69
:10470C006A700374FF6B7021750900AC0AAD0BEE77
:10471C00FAEFFBA9091205F0E96003750800050919
:10472C00E509C3940A503F80E2120DFA8A828B830A
:10473C00E5824583602D7C007D00E5822405FAE549
:10474C00833400FBA3A3A3A3E0F91205CCE9C39423
:10475C000A5013AC0AAD0BEEFAEFFB1205F075081C
:10476C00008003750814A908025510C082C08390FC
:10477C0002C0EAF0A3EBF09002A6E0FC7D007A26E2
:10478C007B001209269002A6E0F9120B9002536BE3
:10479C0074F01217B474EC12175DEAFEEBFFEE2402
:1047AC000CF50CEF3400F50DEE2405F50EEF34008E
:1047BC00F50FEE2409F50AEF3400F50BEE2403F5A2
:1047CC0008EF3400F5098E828F83A3A3E024FA70DE
:1047DC0003024A6E24FD70030249891470030248D7
:1047EC007514601024FD70030249601470030249B3
:1047FC00BD024AC612570B6048E0F5838882124A04
:10480C00D5880E890FE8450F6037850C82850D839E
:10481C00E0F50C780C1219CBEE240BF582EF124C50
:10482C00A5F9850A82850B83124ED40A0A0AAB09B4
:10483C00850E82850F831217B27401121773024A08
:10484C00C6850A82850B831219DE9002BC12164BA8
:10485C001209C27402121773E97003024AC6790175
:10486C00850A82850B83024A398E828F83A38582C7
:10487C000A85830BE06003024943850E82850F8312
:10488C00E0A2E0400302494390035A12570E600322
:10489C000249437C0E7D007900851882851983AA14
:1048AC0082AB831204A6850C82850D83125336EAE3
:1048BC004B6010750C06750D00780C1219C7EA24A4
:1048CC0010801B125330120DFAEA4B7003024AC6C9
:1048DC00750C06750D00780C1219C7EA2405FCEB53
:1048EC003400FD74021217A8AA82AB8312048E74D2
:1048FC0002121773850E82850F83E0A2E25004D258
:10490C00F08002C2F0A2F0E433F8740C1217A8E0A5
:10491C0048F0EEFCEFFD851882851983AA82AB83E3
:10492C00120602E970117A027B009002A6E0F912DD
:10493C0004E27900024AC812570B7003024AC612ED
:10494C004ADB7003024AC6850A82850B83E0FC7938
:10495C0001024A6212570B7003024AC6124AD289EC
:10496C000BE8450B7003024AC68E828F83A3E0FCD2
:10497C0079021253308882850B83024A697C007D50
:10498C0000EE2404FAEF3400FB850882850983E0ED
:10499C00F91205CCE9F8C3940A4003024AC6EE2486
:1049AC000AFCEF124EAAE8A42425F9120794024A35
:1049BC00C61253309002BBE060079009F6E0F98014
:1049CC006F9009F3E0700479058065120DFA8A0C7A
:1049DC008B0DA80CA90DE82404F50CE93400F50D99
:1049EC008E828F83A3A3A3A3A3A3A3E0A2E050462C
:1049FC00E8497003024AC6850C82850D83E0FE608F
:104A0C0035850A82850B83E05410702A740E1217B8
:104A1C00A8AC82AD83E82405FAE93400FBEEF91268
:104A2C0005CCE97011790385088285098312533608
:104A3C001209BC024AC6AC0EAD0F850C82850D83E3
:104A4C00E0F912533012064A12570B606D124ADB12
:104A5C0060687C0079001253308E828F831217B2FB
:104A6C008058120A88E9705290034FE06401701567
:104A7C0012062690034FE4F07C0AFDF97A507B0372
:104A8C001204A6802D750A00850A0874502508FEAC
:104A9C0074033400FF8E828F83E06401700BA90ACB
:104AAC0012062C8E828F83E4F0050AE50AC3940A61
:104ABC0040D679501207A012061A790174141217F5
:104ACC00737F08021886124AEAE0F8A3E0F9221272
:104ADC004AEAE0F8A3E0F9E8FEE9FFEE4F22E0F540
:104AEC00838882A3A32274F41217B474F212175D94
:104AFC00EAFE8C0B75F006E9A42420F508851882D3
:104B0C00851983AC82AD837A0EF912079AE9705736
:104B1C007C0679FF851882851983AA82AB831205DE
:104B2C0006E97043740C1217A8124AD5E8F509E58A
:104B3C000B6005EE42098004EEF45209850982AA45
:104B4C0082E86A7001E9601B740C1217A8EAF0A3E2
:104B5C00E4F0851882851983AC82AD837A0EA9089E
:104B6C001207947901800279000246E874F2121758
:104B7C00B474E612175D890A8A088B09ECFEEDFF06
:104B8C00740C1217A8AC82AD837A0E75F006E9A4EA
:104B9C002420F912079AE96003024C987C0679FFED
:104BAC00740C1217A8AA82AB83120506E9600302E3
:104BBC004C987470250AF50B851882851983AC8284
:104BCC00AD837A0CF912079AE96003024C948518AC
:104BDC0082851983AA82AB831205FCE5084509700E
:104BEC002C7C0C7900851882851983AA82AB8312E0
:104BFC000506E96003024C947C0C7D007900851855
:104C0C0082851983AA82AB831204A6805D851882E3
:104C1C00851983AC82AD83AA08AB091205F68A0C00
:104C2C008B0DA80CA90DE8497028EE4F605E851815
:104C3C0082851983AC82AD837A007B001205F6EA7B
:104C4C00F8EBF9EA4B604588828983E508F0A3E527
:104C5C0009F0124C9FFAEE6A7001EF602BEEF04FE8
:104C6C00700888828983E4F0A3F085188285198303
:104C7C00AA82AB831205FC851882851983AC82ADA0
:104C8C00837A0CA90B120794790180027900741AAB
:104C9C0002550DE82402F582E93400F583E0227414
:104CAC00F71217B47F00EF75F003A4F8A9F0EC2805
:104CBC00F8ED124CDEE06A7003A3E06B7006E8FAC4
:104CCC00E9FB800B0FEFC3940440DB7A007B0002FE
:104CDC00508939F9888289832274F71217B47E00BF
:104CEC00EE75F003A4F8A9F0EA28F8EB124CDEE01C
:104CFC00F4FCA3E0F4FD88828983ECF0A3EDF012C0
:104D0C004C9FF4F00EEEC3940440D502508974F21B
:104D1C001217B474F412175DEAFEEBFF8C088D09C0
:104D2C0090035A12570E7051EE4F7003024EA3ECC3
:104D3C0045097003024EA312060EE99009F9F0C35F
:104D4C00940A4035750B007C0679FFE50B75F00E67
:104D5C00A4FAABF074C22AFA74023BFB120506E902
:104D6C006005850B0A800C050BE50BC3940A40D734
:104D7C00750A0AE50A9009F9F09009F9E0C3940A5A
:104D8C004003024EA375F006E0A4FB90035A1257A1
:104D9C000E706FEEFCEFFD7A0E74202BF912079457
:104DAC007C0C7D0079FF851882851983AA82AB83E0
:104DBC001204A6851882851983AC82AD837A0C9077
:104DCC0009F9E02470F9120794750C0E750D007832
:104DDC000C1219C7EEFCEFFD9009F9E075F00EA46A
:104DEC00F8A9F074C228FA740239FB12048E74020A
:104DFC0012177390035AE508F0A3E509F079000245
:104E0C004EA5E0C82406124EC7601A7A1B74212BDB
:104E1C00F9120794124EB32406F582E83400F58398
:104E2C00E4F0A380D7124EB3240A124EC760107A56
:104E3C001B74222BF9120794124EB3240A80DA1237
:104E4C004EB3240C124EC760107A1074232BF91237
:104E5C000794124EB3240C80C0124EBC124EC76085
:104E6C002A7A1074242BF9120794124EBCF582E89E
:104E7C00124CA52410FCA3E0124EAA9009F9E0A450
:104E8C002425F9120794124EBC808E90034EE060DC
:104E9C00031206561206447901740C02550D3400A7
:104EAC00FD7A0475F0062290035AE0F8A3E0C822BC
:104EBC0090035AE0F8A3E0C8240822F582E83400F5
:104ECC00F583124ED4EC4D22E0FCA3E0FD2274F4E9
:104EDC001217B474F212175DEAFEEBFFE9C3940AE1
:104EEC005004EE4F70047902803E85188285198338
:104EFC00AC82AD837A0E75F006E9A42420F9120772
:104F0C009AE9F5087020750A06750B00780A1219D3
:104F1C00C774021217A8AC82AD83EEFAEFFB120431
:104F2C008E7402121773A9080246E874F41217B4AF
:104F3C00EAFEEBFF750800750A06750B00780A127D
:104F4C0019C7EEFCEFFDE50875F00EA4F8A9F07496
:104F5C00C228FA740239FB1204A07402121773E906
:104F6C006004A908800B0508E508C3940A40C879B9
:104F7C000A0246ED74F71217B474F012175DEAFECC
:104F8C00EBFF750800851882851983AC82AD837A96
:104F9C001075F006E508A42423F912079AE9702C81
:104FAC007C1079FF851882851983AA82AB83120540
:104FBC0006E97018EEFCEFFD851882851983AA822C
:104FCC00AB83120992E97004A908800B0508E50867
:104FDC00C3940A40B0790A74101217730250897482
:104FEC00F71217B4750800E50875F00EA4F8A9F0CF
:104FFC0074C228FE740239FFEEFCEFFD7A0E75F0D8
:10500C0006E508A42420F912079AE9602C7C067D99
:10501C000079FFEEFAEFFB1204A67C067D0079FF07
:10502C00EE2406FAEF3400FB1204A6EE240CF582F3
:10503C00EF3400F583E4F0A3F00508E508C3940A07
:10504C0040A590034EE06003120656120644802DD4
:10505C0074F71217B47E007F007C0679FFEF75F0B1
:10506C000EA4FAABF074C22AFA74023BFB120506CA
:10507C00E970010E0FEFC3940A40DEEEF97F0102D6
:10508C00188674F71217B47E00EEF912062C0EEE89
:10509C00C3940A5003E960F180E374F31217B474FB
:1050AC00CB12175DE9FE9009F9E06E701B7A017B5B
:1050BC00009002A6E0F91204E87A027B009002A6A6
:1050CC00E0F91204E812066275F006EEA4FF7420F3
:1050DC002FF50874271217A8AC82AD837A0EA90895
:1050EC0012079AE960030251E07C0679FF742712DB
:1050FC0017A8AA82AB83120506E960030251E07C73
:10510C000E7D0079FF74271217A8AA82AB831204B4
:10511C00A67C1B7D0079FF740C1217A8AA82AB83A6
:10512C001204A67C0C7D0079FF851882851983AA50
:10513C0082AB831204A674271217A8AC82AD837AB3
:10514C000EA908120794E9F508740C1217A8AC8282
:10515C00AD837A1B74212FF9120794E9F509740CAD
:10516C001217A8AC82AD837A1B74222FF912079404
:10517C00E9F50A740C1217A8AC82AD837A1074236B
:10518C002FF9120794E9F50B740C1217A8AC82AD29
:10519C00837A1074242FF9120794E9F50C740C120D
:1051AC0017A8AC82AD837A0474252FF9120794E901
:1051BC00FF851882851983AC82AD837A0C74702EAE
:1051CC00F9120794E9F8E509450A450B450C4F48D7
:1051DC0042088003750800A90874351217737F05FF
:1051EC0002188674F71217B4E99002A6F012061A88
:1051FC0002508974F41217B4EAFEEBFF548070036A
:10520C000252979002A6E0F91204CA8A088B09EAA6
:10521C004509607078018A828B83E02450603D14CC
:10522C00600624E1604F8052A3A3A3A3E0704E8AD2
:10523C00828B83A3A3A3A3A3A3A31219DE8A828BBD
:10524C0083A3A3A3A3A3124ED48A828B83A3A312FA
:10525C0053361205D874021217738021A3A3A3A38B
:10526C00E0641E701879008A828B83A3A3125336D4
:10527C001205D280081205E4E9F8E86007AA08AB29
:10528C00091204B8EEFAEF64808065EE54026023D4
:10529C007C007D007A007B00120602E960117A0125
:1052AC007B009002A6E0F91204E2EE6402803F7AE1
:1052BC00028046EEA2E0503F12530A1253361206F9
:1052CC005CE9602F12570B601F124AD288088909BB
:1052DC00E8450960137C00790112530A1253368594
:1052EC0008828509831217B2120662EE6401FAEF86
:1052FC00FB80087A0180027A007B000246ED900365
:10530C005AE0F8A3124AEAA3227F02021886C0824E
:10531C00C0839002A6E0F98A828B83A312533612C3
:10532C000C1A803B850882850983E0FAA3E0FB22F6
:10533C00C082C08374FF12175D120620E9C3940269
:10534C00851882851983400474028002740AF0ACBB
:10535C0082AD837A017905120AA07401121773D0F9
:10536C0083D08202013574F21217B474E812175DFF
:10537C00EAFEEBFF890A8C088D097C187D00790008
:10538C00851882851983AA82AB831204A68518829C
:10539C00851983EEF0A3EFF09002A8E0C0E0740250
:1053AC001217A8D0E0F09002A9E0C0E07403121725
:1053BC00A8D0E0F09009F8E0C0E074171217A8D05C
:1053CC00E0F074151217A8E054FEF8A3E0F9900968
:1053DC00F7E0A2E0E433FAE84AF874151217A812C1
:1053EC00551CA2E15004D2F08002C2F0E854FDFA40
:1053FC00A2F0E43333F8EA48F874151217A81255E2
:10540C001CA2E35004D2F08002C2F0E854F7FAA2D6
:10541C00F0E433F50C750D007403780C12174A1276
:10542C0055151217A812551CA2E45004D2F0800294
:10543C00C2F0E854EFFAA2F0E433F50C7404780CE3
:10544C0012174A1255151217A812551CA2E5500432
:10545C00D2F08002C2F0E854DFFAA2F0E433F50C8B
:10546C007405780C12174A1255151217A812551CF0
:10547C00A2E25004D2F08002C2F0E854FBFAA2F08F
:10548C00E433F50C7402780C12174A1255151217E6
:10549C00A8E8F0A3E9F09002A9E0601D750C107863
:1054AC000C1219C77CAA7D0274061217A8AA82AB2B
:1054BC008312048E74021217739002BAE06011E525
:1054CC000A600974151217A8E04402F078018002F2
:1054DC00780074141217A8E048F09002A7E060045A
:1054EC0078048002780074141217A8E048F0AC0815
:1054FC00AD09851882851983AA82AB831209B6740B
:10550C00181217737F06021886EA450CF8741522D8
:10551C00E8F0A3E9F09009F7E02274F31217B474E1
:10552C00E512175DEAFEEBFF8C098D0A7428121741
:10553C00A8E0F50C75F006E9A4F87408650A700487
:10554C0074228002742128F50B7C1B7D0079008568
:10555C001882851983AA82AB831204A685188285CA
:10556C001983AC82AD837A1BA90B12079AE97032AE
:10557C00741A1217A8E024F9C3940A5025E50CF507
:10558C000B780B1219CB74011217A8AC82AD83E502
:10559C0009A2E0E433F9EEFAEFFB1209C874011228
:1055AC001773741B0251E774F71217B4120C92752F
:1055BC000800E50875F00EA4F8A9F074C228FE7472
:1055CC000239FF7C0679FFEEFAEFFB120506E97053
:1055DC0009EEFAEFFB7900120C980508E508C39464
:1055EC000A40CF02508974F61217B474FD12175D7D
:1055FC00EAFEEBFF90035C12570E703975085E756E
:10560C00090378081219C775080275090078081281
:10561C0019C775081A75099078081219C77CFF7D8F
:10562C00FF7A017B00120AE2740612177390035C76
:10563C00EAF0A3EBF090035C12570E70030256F5E0
:10564C00E4F508F50978081219C774041217A8852F
:10565C00820885830978081219C774041217A88563
:10566C00820885830978081219C790035E1219DE27
:10567C00790290035C125703120C0874081217730A
:10568C00E97034851882851983E0FA74011217A821
:10569C00E0F9EA2400F508E439F509EA4509601750
:1056AC0078081219C790035C12530DA312570312FA
:1056BC0005D87402121773E4F508F5097808121965
:1056CC00C790035E1219DE7CFF7DFF90035C1253C2
:1056DC0036120AEE740412177390035CEAF0A3EB13
:1056EC00F090035C12570E700479018002790074FB
:1056FC0003121773025315124ED4EEFAEFFB2290DD
:10570C0002C0E0F8A3E0F9E84922C082C08390030C
:10571C005A12570E601090035A1253361204B89056
:10572C00035AE4F0A3F09009F9740AF002536BC029
:10573C0082C0839061907404F0A37448F0A3E4F0E9
:10574C009061807440F09061BC7407F09061877434
:10575C0069F09061B67416F07900120F027902129A
:10576C000F0890273CE493F46006E493F9120EDEE4
:10577C007905121208025B36C082C083E9540FF916
:10578C00906185E0696012E5C654804449F5C6E530
:10579C009E547F644970F8E9F053C680E59E547FAF
:1057AC0070FA025B3674F71217B4E5A8FE53A87EA4
:1057BC00120EEAC2BA539AFEC289759B00C2C2127B
:1057CC000EF075A91175B905120EF6D2BA439A01ED
:1057DC0074805E42A80260CDC082C083906181E477
:1057EC00F0A3025B3375E90075910075BF000201EF
:1057FC0035C082C083906181E4F0A374C0F0A3E44F
:10580C00025B35C082C08374F812175D9005AD122F
:10581C006A6670030258EE9005ADE054406023793F
:10582C0008851882851983AA82AB83120FFE85180E
:10583C0082851983AA82AB83120CB69005ADE05415
:10584C00BFF0E054806010790C7A6E7B07120FFE6B
:10585C009005ADE0547FF0E0A2E0500F7900120FFC
:10586C0002120CBC9005ADE054FEF0E05402600F47
:10587C007901120F02120CBC9005ADE054FDF0E062
:10588C005404600F7900120F08120CC29005ADE0A1
:10589C0054FBF0E05408600F7901120F08120CC28F
:1058AC009005ADE054F7F0E05410600F7902120F40
:1058BC0008120CC29005ADE054EFF0E05420600FDC
:1058CC007903120F08120CC29005ADE054DFF0A35F
:1058DC00E05401600D120F14120CC89005AEE05488
:1058EC00FEF07408121773025B36C082C083E96045
:1058FC000514602A804F90619A7433F0A37455F0AC
:10590C009061A0743AF0900748E064017009C2916C
:10591C009005AF7467802D9005AF746180269061FF
:10592C009A743FF0A3745AF09061A0747FF09007C2
:10593C0048E064017009D2919005AF7471800590B4
:10594C0005AF746AF0025B36C082C083E9600B1449
:10595C00600D14601714600C802090274080159007
:10596C0027418010900748E0640170059027428021
:10597C0003902743E493906186F0025B3674EE1239
:10598C0017B474F412175D851882851983AC82AD37
:10599C008375838F758277740412167090274093E9
:1059AC00F46003025AB3907808E0C39402500302E7
:1059BC005A9374041217A8AC82AD8375838F7582C9
:1059CC00207408121670FC7EFF7FFF8E0C7D008CFD
:1059DC008285820E800F74086D606D74096D60682D
:1059EC00740A6D60638D08750900740278081217CB
:1059FC004A125ABD12162DA909E50AC9F888107465
:105A0C0018780812156EE5104508FAE9FBE50EC387
:105A1C0033F8E433F974041217A8E58228F582E50B
:105A2C008339125FBDC3E89AE99B4008E8C39AF832
:105A3C00E99B8006EAC398F8EB99F9C3E89EE99FC5
:105A4C005006E8FEE9FF8D0C0DEDC39413408774EE
:105A5C00FF6E700374FF6F6024850C087402780865
:105A6C0012174A125ABD12162D851882851983E514
:105A7C0082250EF582E58312645CE508F00CECC31C
:105A8C00940450030259D375080175090078081263
:105A9C0019C774021217A8AC82AD837AD07B091295
:105AAC0006A47402121773740C1217737F0A02186F
:105ABC008674482508F58274783509F583780822B0
:105ACC00C082C083906186E0F8902743E4936870AD
:105ADC0009902742E493906186F09061AE7468F06F
:105AEC00A3746AF090624574FBF0A304F053F4FDC8
:105AFC0043FE029007487401F09061A0E0643A7094
:105B0C0004790080027901120F02025B36C082C058
:105B1C00839006FAE06401700A9006FFE060047955
:105B2C000C800279008003F0A3F0D083D0820201B4
:105B3C0035C082C08375E1F19006FDE0604D1460C4
:105B4C0009146051146049147050120F269006F31A
:105B5C00E0F97AF47B0612118A908F6F12164B12B1
:105B6C0011C0908F8312164B1211969006FEE0F91D
:105B7C001211A279011211FC125C592416126459EB
:105B8C00743EF0A3740FF07900809F120F2C80BD2F
:105B9C00120F3280B8120F3880B3791280EB74F484
:105BAC001217B475D90D9006DEE0A2E0E43313139E
:105BBC00F8125C4F484401F5D97800125CBC40FBEC
:105BCC007800880874DF1269BC7406125CC640F257
:105BDC0075E1959006DEE0F97ADF7B061211909064
:105BEC000C6374B4F0A3740E125CCC125D10125DD5
:105BFC0007125E249006FDE064019006F1700B1212
:105C0C005C6212162D908F6B8009125C6212162D3D
:105C1C00908F6778081215B9908F7F780812160745
:105C2C00125C59240E126459780812163C125C59F5
:105C3C0024141264597413F09005AB7402F07F04B1
:105C4C000218869006F3E0C4333354C0229006F158
:105C5C00E0F8A3E0C8221268F478082274F6121750
:105C6C00B4125DF58AD97800125CBC40FB780080D8
:105C7C0006125D6D125EAAE8C39940F5125DE7123B
:105C8C005CBC40FB780080081269B87407125EAAED
:105C9C00E8C39940F375E195900C6374C0F0A3745C
:105CAC000E125CCC125CD67412F09005AB026091B3
:105CBC00880874F42508F58274061260279406226D
:105CCC00125E0D74BAF0A3740E22125D10125D07F1
:105CDC00125E289006F1E0F8A3E0C8240E125CFFD7
:105CEC0074FF1267319006F1E0F8A3E0C824141297
:105CFC005CFF22F582E83400F58322F0A374D2F025
:105D0C00A3740E22125D1422125D1822F0A3746A81
:105D1C00F0A374102274F61217B4125D62125C4F69
:105D2C004402F5D97800125CBC40FB780080061266
:105D3C005D6D125EAAE8C39940F575E195900C6310
:105D4C00125D78F0A3125D78125CD97414F0900592
:105D5C00AB7404026093900703E0F9740729F5D93A
:105D6C0022880874042508F58274072274CC125D0D
:105D7C0085125D85F0A3740E22F0A3740EF0A3744B
:105D8C00CC2274F61217B4125DF574064AF5D97864
:105D9C0000125CBC40FB78008006125D6D125EAA9E
:105DAC00E8C39940F5125DE7125CBC40FB780080BB
:105DBC00081269B87407125EAAE8C39940F375E13A
:105DCC0095900C6374C6F0A3740E125E03125CD62D
:105DDC007415F09005AB7403026093900723125D69
:105DEC006574044AF5D9780022125D629006F3E0DE
:105DFC00C4333354C0FA22125E0D746AF0A37410CB
:105E0C0022125E1122125E1E746AF0A37410125ECE
:105E1C001E22125D18F0A322125E2822F0900C7143
:105E2C00746AF0A37410125E11746AF0A3741012E9
:105E3C005D14F022C082C083125C5924061264598E
:105E4C00E4025B3374F71217B49005D9E0F875F0DF
:105E5C0003A4C8AAF02AF974DB28F8740539F9E808
:105E6C002405FAE9126907A3A3A3A3A3A3A3A3A3DD
:105E7C00126A08A3A3A3A3A3A3A3E024FFF8A3E09F
:105E8C0034FFF98A828B83E8F0A3E9F00260CD7FBE
:105E9C00060218868808744E2508F5827407126469
:105EAC0033F5D90822EAFEEBFF9061D0E0F874805C
:105EBC00C398FAEE248222125EC9940422F582E978
:105ECC003400F583E0F5D90AEAC32274F61217B44C
:105EDC00EAFEEBFF9061D0E06003025F6B75D90EB8
:105EEC0075D90375D9047A008A08EE25081269C1A0
:105EFC00248B125F7040F17A008A08EE2508126933
:105F0C00C12483125EC340F175E1957908EE248BB0
:105F1C00FAEF3400FB120FF27904EE2483FAEF341B
:105F2C0000FB120FF27C008C82AA82C3E49AF895D3
:105F3C00E0F9EE28F8EF39F9E8248AF582E91264E1
:105F4C002FC0E0EE2A1269C124AAF582E912645C22
:105F5C00D0E0F00CECC3940840CD125F798002794C
:105F6C0000026094125EC994082275E195EE246FCC
:105F7C00F582EF125D02126A83EE2471F582EF1244
:105F8C005D02E8F0A3E9F0790122C082C08375D9E3
:105F9C000275D90375D90575E195EA246FF582EB85
:105FAC00125FBBEA2471F582EB125F8B025B363415
:105FBC0000F583126A832274F61217B4EAFEEBFF23
:105FCC0090074E74061260321219C77C01790312C5
:105FDC00105E740212177375D90675D90378001206
:105FEC00601740FB75E1959005ABE064087017EE07
:105FFC00246FF582EF125FBBEE2471F582EF126411
:10600C005CE8F0A3E9F079010260948808744E25ED
:10601C0008F58274071260279405223400F583E09A
:10602C00F5D908E8C322F075084E750907780822DF
:10603C0074F61217B4EAFEEBFF9061D0E07042796F
:10604C000190074E740BF09005ABE0640770197566
:10605C00084E75090778081219C77C010909121036
:10606C005E74021217737905740129F5D975D90379
:10607C0078008003125EA0E8C39940F8125F768026
:10608C0002790080037401F07F0202188674F71203
:10609C0017B4EAFEEBFF75D90375D90375D90DEE6C
:1060AC0024DD1260BE75E19579041211C6125F7978
:1060BC00800FF582EF126433F5D922A2E092AF790A
:1060CC00007F010218867F030218867401250AF5E9
:1060DC00D975D90378002274F51217B41261636074
:1060EC0004780480027800E8240BF8EAC398405541
:1060FC00750A0990074E7409F07908126156120F4F
:10610C00EC850882850983E0601E75084E750907C9
:10611C0078081219C77C097903EEFAEFFB12105EAE
:10612C007402121773750A0D1260D78003125EA0E9
:10613C00E8C3950A40F775E19579041211C612620D
:10614C00D67901800279000260D2EE24E2FCEF34B1
:10615C0000FD7A4F7B0722125EB1F8EF12616C22C0
:10616C003400F9880889098882F583E02274F312D7
:10617C0017B48A088B091262E2FAE5082482F50A40
:10618C00EB1262396004780480027800E82408F885
:10619C00EAC3985003026232750C0690074E740CD9
:1061AC00F09005C8E090074FF07402C0E0F97CC98C
:1061BC007D057A507B07120FECD0E0F97CCB7D0586
:1061CC00120FEC850A82850B83E0601E750A4E75F2
:1061DC000B07780A1219C77C067903AA08AB0912B7
:1061EC00105E7402121773750C0A7401250CF5D924
:1061FC0075D90378008009880A744E250A125EA6A8
:10620C00E8C3950C40F175E19579041211C6E508C7
:10621C00246FF582E509125FBBE5082471F582E570
:10622C0009125F8B800279007F050218863400F515
:10623C000B850A82F583E02274F61217B4EAFEEBA2
:10624C00FF1262E2FCEE2482F8EF12636560047ABE
:10625C000480027A00EA2404FAECC39A40607A02C1
:10626C0090074EEAF0EE24F4F582EF1262EC601B1C
:10627C0075084E75090778081219C77C027903EE68
:10628C00FA12105E74021217737A0674012AF5D989
:10629C0075D90378008003125EA0E8C39A40F875A4
:1062AC00E195EE24731262CFEE247F1262CF12625C
:1062BC00D679041211C6EE240D125F7C800279008F
:1062CC00026094F582EF12646B22EE241DF582EFCE
:1062DC0012646BA3F0229061D0E0F87480C3982212
:1062EC0012643390074FF088828983E02274F6128F
:1062FC0017B41262E2FEEA2482F8EB1263656004C2
:10630C007C0480027C00EC2404FCEEC39C40457CA5
:10631C000290074E7407F0EA24F5F582EB1262EC5A
:10632C00601775084E75090778081219C77903129A
:10633C00105E74021217737C0674012CF5D975D992
:10634C000378008003125EA0E8C39C40F875E195C9
:10635C007901800279000260943400F98882898383
:10636C00E02274F51217B4E9FEA2AFE433F50AC2C9
:10637C00AF7F00EA246EF8EB3400F980010F8882BD
:10638C008983E0F508EFC3950850188F08EA2508B3
:10639C00FCEB3400FDEC246AF582ED12642F6E7078
:1063AC00DC8017EA2508FAEB3400FBEA246AF58254
:1063BC00EB12645CEE1262F204F0E50AA2E092AF1A
:1063CC000260D274F61217B4A2AFE433FFC2AFEA84
:1063DC00246EF8EB126799E014F07E0080218E0891
:1063EC00EA2508F8EB1269C3246BF582E912642FD5
:1063FC00C0E0E8246AF582E912645CD0E0F00E8C0F
:10640C00828D83E0F8EEC39840D4EA246DF582EBDC
:10641C0012645C74FF126460EFA2E092AF026094AD
:10642C00F582EB126433223400F583E022C082C083
:10643C0083E5A8F8C2AFEA246AF582EB12645CE942
:10644C00126460E8A2E7A2E792AF025B36F582E83D
:10645C00125D0222F0EA2469F582EB12646B22349D
:10646C0000F583E4F02274F21217B48C828D83A3AE
:10647C00A3A3A3E0541FF0EA243612678F8E828FF9
:10648C0083E4F0F50C850C8285820AEC250AF8ED84
:10649C0012616CC0E0EA250AF8EB126507D0E0F057
:1064AC00750D00850882850983E0F50A750B00E5FA
:1064BC000D780A12172BE50AA2E0502AE50C3333AB
:1064CC003354F8250DC0E08E828F83E0F8EA28F86B
:1064DC00EB1269C32438F582E912645CD0E0F08ECB
:1064EC00828F83E004F0050DE50DC3940840B405DC
:1064FC000CE50CC39405408D025E9B3400F9E82436
:10650C005DF582E9125D022274F61217B49005D77C
:10651C00E0640170030266157A009005DDE060030B
:10652C000266157401F0A3E4F0A3F090063D04F0AC
:10653C00900642F09005E012672C9005EA04F0906A
:10654C000610E4F09005F312672DA3F0A3F0A3F06E
:10655C0090065AF090064EF09006437480F0A3E437
:10656C00F0900649F09006C512661C9006CEF0908D
:10657C00065DF09006AD12661CA3F0A3F09006B970
:10658C00F09006BBF09006B7F09006D112661C8A0C
:10659C000874451269BC740612645C74FFF00AEA54
:1065AC00C3940440EA7A008A82A88274E528F582B2
:1065BC00740612642FC0E0743828F58274061264D5
:1065CC005CD0E0F00AEAC3940540DC7A008A82A829
:1065DC008274BF28F582740512642FC0E074BD2844
:1065EC00F582740612645CD0E0F00AEAC3940840A9
:1065FC00DC9005D7E004F0640170089005DFE090B2
:10660C0005D9F07ADB7B0580047A007B000260946C
:10661C00126731A312673122C082C083EA240312AD
:10662C00642C6008E4F09005D8E014F09005D7E0F5
:10663C0014F070069005D974FFF08A828B83A3A3A3
:10664C00E4F09006EAE0700D9005D8E06401700566
:10665C0079001211A8025B36C082C0839005DEE47B
:10666C00F09005DDF09005D7F0A3F0A374FFF07562
:10667C00E1F1025B36C082C083780079009005DEC0
:10668C00E0600478DB790588828983A3A3A3A3E067
:10669C00F9025B3674F61217B4EAFEEBFFEE2463D4
:1066AC00F508EF3400F5098016AA08AB09120FE0C3
:1066BC001207229006EBE004F09006ECE004F08563
:1066CC000882850983126A6670DFEEFAEFFB120FFF
:1066DC009EEEFAEFFB12109402609474F71217B44A
:1066EC00EAFEEBFF8E828F83A3A3A3A3E0FA7B00C9
:1066FC00120D0AEEFAEFFB120FB01210760260CDFB
:10670C0074F61217B47800880874BF1269BC74054B
:10671C001262D208E8C3940840ED9005BF02609164
:10672C00E412673122F0A3F0A3F0A3F02274F61266
:10673C0017B4EA240D12678FEC2403F8ED3400F93A
:10674C0088088909EC2407F8ED126799125FBF8558
:10675C000882850983E0FAA3E0FB1216D28E828FA1
:10676C0083E8F0A3E9126A7A850882850983E0FA46
:10677C00A3E0FB1216D28B09EA450960031267A548
:10678C00026094F8EB3400F9E8FEE9FF223400F9DA
:10679C00E8FCE9FD8C828D83228E828F83E02401BC
:1067AC00F0A3E03400F02274F61217B4EA242E128F
:1067BC00642CFCA3E0FDEA246F12678F780079FA51
:1067CC00ECFAEDFB1216D28E828F83E8F0A3E9F07F
:1067DC00780079FAECFAEDFB1216D28B09EA45092E
:1067EC0060031267A502609474F01217B4EAFEEB12
:1067FC00FF74101217A8780812162D1211548A0C57
:10680C008B0D8C0E8D0F908FC3780C1215B9908F49
:10681C007F780C121607780C1219C38E828F831294
:10682C0068F012164B1224C77404121773E9600334
:10683C000268E08E828F83E02402F8A3E01269C321
:10684C00FAE9FB8A828B8378081215CC908F7F78BB
:10685C000812162D8A828B83780812161AEE240BD6
:10686C00F582EF12645CC082C0838E828F83A3A3F7
:10687C00A3A3A3E02401F8A3E03400F9D083D082D1
:10688C00E0687003A3E069700479018049EE240785
:10689C00F8EF3400F9888289831267A9EE24731209
:1068AC0068E77014EE24741268FF7003A3E06D7037
:1068BC00078A828B831267A9EE247F1268E7701413
:1068CC00EE24801268FF7003A3E06D70078A828B40
:1068DC00831267A979007F08021886F582EF12648B
:1068EC00336401221268F422E0F8A3E0F583888275
:1068FC00A3A322FAEF126907E06C223400FB8A8210
:10690C008B83E0FCA3E0FD888289832274F3121749
:10691C00B4E9FEECFFEA2462F582EB1268EA60034C
:10692C000269B39061D0E0F508EA248212642CF578
:10693C000C60047804800278007480C39508FC9580
:10694C00E0FDEF28F8E41269C32402F8E93400F9F9
:10695C00EC98ED99A2D265D0334048740D1217A86B
:10696C00E0F50AA3E0F50BE50C6015780A1219C7DF
:10697C00EFFCEEF912105E740212177374042FFF01
:10698C0074012FF5D98ED97800800C8808E50A128D
:10699C0069BCE50B125EAAE8C39F40EF75E19579DF
:1069AC000080067907800279FF026234880874241B
:1069BC002508F58222F8EF3400F9E82274F7121753
:1069CC00B4A2AFE433F508C2AFEA2402F8EB34000A
:1069DC00F98A828B83E0FEA3E0FFEE4F600E888283
:1069EC008983E0FAA3E0F5838A8280048A828B8310
:1069FC00126A08126A12F0E5080260C7ECF0A3ED07
:106A0C00F08882898322ECF0A3EDF08C828D83E4F4
:106A1C00F0A32274F71217B4EAFCEBFD7A007B00AA
:106A2C00A2AFE433FEC2AF8C828D83126A66602201
:106A3C00E8FAE9FB8A828B83125FBF126A6CE4F07E
:106A4C00A3126A7AE849700A8C828D83A3A3E4F0BE
:106A5C00A3F0EEA2E092AF0260CD126A83E8492265
:106A6C008C828D83E8F0A3E9F08A828B8322F08CF0
:106A7C00828D83126A8322E0F8A3E0F922C082C0DF
:106A8C00838003126AB7E9F874FF28190470F4ECD8
:106A9C00FAEDFB025B36C082C0838003126AB7E951
:106AAC00F874FF28190470F4025B368C828D83E035
:106ABC008A828B83F08C828D83A3AC82AD838A8295
:106ACC008B83A3AA82AB832274EE1217B490780343
:106ADC00E06442705590074DE014F0704DC2AF1257
:106AEC006AEE00782AD0E0F618D0E0F6E59F54075D
:106AFC0070057509FF800375097FC4C0E07829E62D
:106B0C00F50808E65509F509740B780812173BD0FF
:106B1C00E02508F8906270E0A2E740F8E8C33390F3
:106B2C006272F0906270E0D2E0F09005D9E0F874F7
:106B3C00FF687003026E00E81273302401F582EFD7
:106B4C00340112739DEA4B600FEE2400F582EF3492
:106B5C0001F583E0F91204E2EE2405F8EF3400F9B4
:106B6C00E8FAE9FB8E828F83A3A3A3A3A3A3A312AA
:106B7C0078128A828B8312735C906054E09005B219
:106B8C00F0906055E09005B3F0906056E09005B43D
:106B9C00F0906057E09005B5F0906058E09005B625
:106BAC00F0906059E09005B7F090605AE09005B80D
:106BBC00F090605BE09005B9F090605CE0FC9005B3
:106BCC00BAF090605DE0FD9005BBF090605EE0F582
:106BDC000C9005BCF090605FE0F50D9005BDF09059
:106BEC0005B8E0F50E8C082508F8E43400F9850C9E
:106BFC0008E82508F8E93400F98D08E82508F8E9D3
:106C0C003400F9850D08E82508F508E93400F50984
:106C1C00EE24F6F582EF3400126E2F8C82858210F2
:106C2C00EE24F8F582EF126E1BEE24FA126E0FEEC4
:106C3C0024FE127375496034906000E0C333F50A8A
:106C4C00E433F50BE8250AF582E9350B126E2F902B
:106C5C006000E0C333F508E433F509E82508F8E9EA
:106C6C003509F9E8244AF582E9126E1BEE240BF87B
:106C7C00EF3400F9880A890BEE241DF8EF3400F983
:106C8C0088088909EE241C18EF3400F9EE240FF55E
:106C9C0010EF3400F511E50E700EED700BE50C7075
:106CAC0007E50D7003026D4B8A828B8312739FEE86
:106CBC00240D1277D52AFAA3E03BFB850A82850BBB
:106CCC0083EAF0A3EB12734B126E057011EE2420C5
:106CDC00127398850882850983EAF0A3EBF090057E
:106CEC00B3E06025888289837401F01277D2701921
:106CFC00EE24731277D57011EE247F1277D57009BC
:106D0C00EE242012780F1273568E828F83127378B2
:106D1C002406FCE93400FD906062E07003026DB162
:106D2C00E82402FAE93400FB12114E8E828F83E0C4
:106D3C00F8A3E0C82412F582E812779CE48070EC8A
:106D4C006022851082851183126E057027EE242037
:106D5C00F582EF3400126E27850882850983ECF0EA
:106D6C00A3ED800FEE24FC126E0F8508828509833B
:106D7C00E4F0A3F08A828B831273A57003A3E06BFB
:106D8C006003026CEA851082851183E0600874054B
:106D9C006A7001EB600479088002793EEEFAEFFB31
:106DAC00120FB6804F8C828D83E4F0A3127343F0E4
:106DBC00A3F09061C8E06006121CE0E970F48E82CA
:106DCC008F83A3A3A3E0602C9061C8E07006906051
:106DDC00607480F0EEFAEFFB121100E964016014AC
:106DEC007902EEFAEFFB121E851210F4E9640160D1
:106DFC00031210767F0A021886E4F088828983E0F9
:106E0C006401221277D92401F0A3E03400F022129D
:106E1C0077DC2510F0A3E03400F022F583E0FCA32E
:106E2C00E0FD22F583E02508F0A3E03509F02253BC
:106E3C00BFEF02013574E81217B49005D9E0F812CF
:106E4C007330241DF510EF3400F511EE2420F50EEF
:106E5C00EF3400F50FEE241CF50CEF3400F50D901B
:106E6C0061D0E07009EE246312737549600B8510D4
:106E7C0082851183E4F0A3802D1277D27029EE2441
:106E8C00731277D57021EE247F1277D57019850C8B
:106E9C0082850D83E06401700E850E82850F83124E
:106EAC00738EE8F0A3E9F0EE2407F508EF3400F553
:106EBC00098E828F83A3A3A3A3A312738EE028F859
:106ECC00A3E039F9E8240108E9127353EEFAEFFB59
:106EDC00121106E9640160089006F0E06401701C70
:106EEC00851082851183E4F0A3F08E828F83A3A397
:106EFC00A3A3A3E02401F8A3E0127353EE247312AE
:106F0C007B9960030270A9EE24741277C51219DE06
:106F1C00850882850983126E298E828F83A3A3A391
:106F2C00A3A312739F121C997402121773E97003B6
:106F3C000270A9850A82850B831273B32476FCEF49
:106F4C003400FDEEFAEFFB120FC212780C850E82A4
:106F5C00850F8312735C850C82850D83E412734B51
:106F6C00F0A3F0EE240F1277B71273431273702450
:106F7C000D1277D528F8A3E039F9EE240B12779986
:106F8C0012735C8E828F83A3A3A3A3A3126E298595
:106F9C000A82850B8312739F121CD88A088B09EE08
:106FAC00242E127398E4F50AF50B8A0C8B0DF50E52
:106FBC00F50F7808790C12147EEE2477127383780F
:106FCC0008790C1215A685080C85090D850A0E8505
:106FDC000B0FEE247DF516EF3400F517851682F5B0
:106FEC00831273702479F512EF3400F51385128235
:106FFC00126E27EE243012778EEE2432F508EF3421
:10700C0000F509EA6C7002EB6D701C85088285092D
:10701C0083E0687003A3E069700D1277961273A574
:10702C007003A3E06B603188148915740478141212
:10703C00173B78141219C71277961219DEEDC31389
:10704C00FDEC13FC8E828F83A3A3A3A3E0FA7B0039
:10705C00120D107404121773EE24761277D5C0E05B
:10706C00EE242B127799D0E0F085128285138312CF
:10707C007370242E12779912735C12780C850A8225
:10708C00850B8312735C8516828517831273B3FA92
:10709C00EFFB120FC8EE24731277A0800BEE242E98
:1070AC00127383E4F50EF50F851082851183E0F5DC
:1070BC0014A3E0F515EE2412F508EF3400F509EEF3
:1070CC00241FF512EF3400F513EE24181277C5784F
:1070DC000C12142A7011851282851383E0F8E514C2
:1070EC00687002E515602378081219C7EE24101297
:1070FC0077991219DE78141219C7AA0CAB0DAC0EC5
:10710C00AD0F1226677406121773850A82850B83DE
:10711C00780C12163C851082851183E085128285CD
:10712C001383F0AC08AD091273621225A190606252
:10713C00E0600A7C287D8F1273621225A18E828FEB
:10714C008312781288828983A3A3E82408FCE9348B
:10715C0000FD740612167085108285118312739FC0
:10716C008E828F83E02402F8A3E03400F9E8FCE976
:10717C00FD8A108B11E4F512F513908FDB78101249
:10718C0015B97810790C12147E8C828D83781012BC
:10719C0015CC908F7F781012162D8C828D837810E1
:1071AC0012161A9006EAE0640160030272B07901CB
:1071BC001211A88E828F83E0F50AA3E0F50BE50A85
:1071CC00240EF582E50B12779C74FF127BBCE50A4A
:1071DC002412F8E50B3400F9E8FCE9FD85088285FA
:1071EC000983780C12162D850C08850D09E5087598
:1071FC00F0E2A4C508A8F075F004A428F875F0E234
:10720C00E509A428F5098C828D83126E31EE2416C3
:10721C001277D5F508A3E0F5097404780812173B2A
:10722C00E5082401F8E5093400F98C828D83E02807
:10723C00F0A3E039F0906062E08C828D83700302E1
:10724C007308E02410F0A3E03401F0EE240F127761
:10725C00D5601FEE242B1277D5F875F071A4C8AA4F
:10726C00F075F002A42AF98C828D83E028F0A3E05B
:10727C0039F0E50A2414F582E50B12779C7410F0B2
:10728C008E828F83E0F8A3E0C82416F582E812778B
:10729C009C7444F0A3740FF0EEFAEFFB121BFB7915
:1072AC0000027B8E908F87780C12145F5003027152
:1072BC00BFEA4B60030271BF780C1219C3EEFAEFF0
:1072CC00FB120FCE7404121773E964016003027190
:1072DC00BFEE240F1277D560128E828F83A3A3A3E7
:1072EC00A3A3E064057002A3E0600479088002792E
:1072FC003EEEFAEFFB120FB6790180A5E02410F8F0
:10730C00A3E034FFF97A717B021216D2880889093E
:10731C00EE242E12780FC3E50898E5099950030264
:10732C00725780C775F003A4C8AAF02AF974DB2839
:10733C00FE740539FFEE22F085088285098322F060
:10734C00851082851183223400F985088285098392
:10735C00E8F0A3E9F0228E828F83E02402FAA3E006
:10736C003400FB22127816EE22127BB012737C22B0
:10737C00E0F8A3E0F9E822127BB0E0F50CA3E0F50D
:10738C000D2212781685108285118322F582EF3436
:10739C0000F583E0FAA3E0FB22E0FAA3E0FB850A08
:1073AC0082850B83E06A2212781685088285098310
:1073BC00E8F0A3E9F0EE2274E81217B4EAFEEBFF52
:1073CC008C828D83E0F50CA3858208858309A3A8A4
:1073DC0082A983EE2405F516EF3400F517EE246729
:1073EC00FAEF3400FBEE2462FCEF3400FDE50C6098
:1073FC003B14700302756614700302774F1470030C
:10740C000275BB24FD700302768314700302778B24
:10741C001470030276B324FE700302768814700392
:10742C000276A91470030276F3027779EE2476F5CE
:10743C0010EF3400F511850882850983E0851082F0
:10744C00851183F088088909EE24771277A6120F2C
:10745C00E68A088B09EE2479F50EEF3400F50F79E6
:10746C0002AC08AD09AA0EFB120FE68A088B09EED6
:10747C00247BF512EF3400F5137902AC08AD09AAA0
:10748C0012FB120FE68A088B09EE247D12778E7997
:10749C0002AC08AD09AA0AFB120FE68A088B098513
:1074AC001082851183E0C333F0850C82850D831225
:1074BC007832850C82850D8312735C12782C850EC4
:1074CC0082850F8312735C850A82850B8312738607
:1074DC007404780C12174A850A82850B83E50CF02C
:1074EC00A3E50DF0EE24741277A6120FE6850C823C
:1074FC00850D83C082C0838516828517831278120E
:10750C00D083D08212781C40030275A7850A82852D
:10751C000B83E0F508A3E0F509E4F50AF50B8512F9
:10752C0082851383E02401F510A3E03400F511E407
:10753C00F512F51312782C880C890DE4F50EF50F65
:10754C007810790C12147E7808791012143F4005CB
:10755C00793B027770EE24738049EE248012778E8B
:10756C007402C0E07905AC08AD097AE57B06120F10
:10757C00E6EAFCEBFDD0E0F9AA0AAB0B120FE685AC
:10758C000A82850B83C082C083851682851783127D
:10759C007812D083D08212781C400579280277703B
:1075AC00EE247F127B93241D1277A0A30276AFEEFC
:1075BC0024E11277D57012750A001277E2C0E0123E
:1075CC0077F2D0E012780340F1EE24E21277D5A2E4
:1075DC00E0400EEE24DD127799741AF0790D0277E3
:1075EC00848C828D83E4F08A828B83127BA8740155
:1075FC00F07908AC08AD09EE249BFAEF3400FB12CD
:10760C000FE68A088B097902AC08AD09EE24A3FABF
:10761C00EF3400FB120FE68A088B09EE24931277E5
:10762C008E7908AC08AD09AA0AFB120FE68A088B02
:10763C00097908AA0AAB0B120FF2EE248712778E87
:10764C007904AC08AD09AA0AFB120FE67904AA0A60
:10765C00AB0B120FF2EE248BFAEF3400FB1210047A
:10766C00EE2483FAEF3400FB12100A9005ADE044CF
:10767C0080F07904027784EE24DE80248C828D8362
:10768C00E4F08A828B83F0EE24D21277A0EE24DC15
:10769C00127B9324D31277A0790B027784EE24DF2C
:1076AC001277B7F002778B750A001277E2C0E012FE
:1076BC0077F2D0E012780340F1750A001277E2FA03
:1076CC00850882850983E05AC0E01277F2D0E01277
:1076DC007343A3858208858309050AE50AC39408C8
:1076EC0040DA7909027784EE24EA1277C5E0640166
:1076FC00607B850882850983E0C0E0EE24ED12777B
:10770C0099D0E0F0880889097402C0E0F9AC08ADA2
:10771C0009EE24EEFAEF3400FB120FE6EAFCEBFD67
:10772C00D0E0F9EE24F0FAEF3400FB120FE6850AF4
:10773C0082850B837401F0EE24EC1277D5704079BE
:10774C000C8035EE24F4FAEF3400FB8508828509B1
:10775C0083E08A828B83F0EE24F31277B7F08A826F
:10776C008B83E0F9EEFAEFFB120FB68012EE24F5E4
:10777C00127799E50CF07907EEFAEFFB120F800205
:10778C007B8EF50AEF3400F50B22EE247BF582EFAD
:10779C00127BB322127BB0E4F022F50CEF3400F52F
:1077AC000D7902AC08AD09AA0CFB221277BB22F5AD
:1077BC0082EF3400F583740122F50AEF3400F50BE7
:1077CC00850A82F58322EE24691277D922F582EF9D
:1077DC003400F583E022850A82A88274BF28F582E2
:1077EC0074051277DC22EE28F8EF3400F9E824E275
:1077FC00F582E9127BB322F0050AE50AC39408224C
:10780C00EE247B127BB012781622E0F8A3E0F9226A
:10781C00E0C398F8A3E099F9C3E894FFE9947F22B8
:10782C00850E82850F8312737CC333F8E933F922FA
:10783C0074E81217B4EAFEEBFFEE24DEF510EF3419
:10784C0000F511EE24DFF50EEF3400F50FEE246297
:10785C00F516EF3400F517EE2482F50CEF3400F535
:10786C000DEE241DF512EF3400F513EE24041277FF
:10787C008EEE2469F508EF3400F509027A0EEEFA63
:10788C00EFFB120F74027B73850882850983E06419
:10789C0001703C9005B5E07003027AB9EEFAEFFB8B
:1078AC00120F86EE24A3F514EF3400F5157814129C
:1078BC0019C7EE249BFCEF3400FD850A82850B83EF
:1078CC00E0FA7B00120D1C7402121773027A0EEE92
:1078DC00FAEFFB120F4A027B73850882850983E05D
:1078EC00640170359005B5E06015850C82850D83BB
:1078FC007401F0EE24D4127BB8EE24D8127BB88538
:10790C001082851183E064016003027AB97906EE76
:10791C00FAEFFB120F8C027A0EEE24D2127B9970C6
:10792C001CEEFAEFFB120F50E964016003027B8C32
:10793C00851082851183E4127B9F027B7AEE24D31F
:10794C001277D57003027B8CEE24B2F514EF340061
:10795C00F51578141219C7EE248BFCEF3400FDEEEC
:10796C0024C2FAEF3400FB1210167402121773EED5
:10797C0024D21277B7805E850882850983E0640182
:10798C0070569005B5E07003027AB9127BDFEEFAFF
:10799C00EFFB120F868516828517837401127BC448
:1079AC00850A82850B83E0FA7B00EE24DC127B993E
:1079BC0070077900120D2880077C017900120D22C6
:1079CC00EE24DC127799E4127BA8E4F0850E828514
:1079DC000F8312734BF0802AEEFAEFFB120F560254
:1079EC007B73850882850983E064017071850E8242
:1079FC00850F83E064016003027AB9EEFAEFFB12A3
:107A0C000F86EE246E1277D57003027B8CEE246AFF
:107A1C001277D524FE602F24FE7003027894147024
:107A2C00030278E5147003027983147003027B7DE2
:107A3C0024FE7003027AD924FE60A7147003027B23
:107A4C000014603D80BC850882850983E064016078
:107A5C000302788A9005B4E0605379168059EEFAE7
:107A6C00EFFB120F5CE964016003027B8C850E82D4
:107A7C00850F83E4F0850C82850D83127B9F027940
:107A8C00E1850882850983E0640170379005B5E0D3
:107A9C006012850C82850D83E4F085168285178330
:107AAC0004127BC49005B4E06003027A07127BF4E5
:107ABC006003027B8C7922EEFAEFFB120FB6790190
:107ACC00027B8EEEFAEFFB120F62027B738508824B
:107ADC00850983E0640170139005B5E060CFEE2456
:107AEC00E11277B7F0127BDF027A07EEFAEFFB12A6
:107AFC000F688073850882850983E06401705CEEF1
:107B0C0024EA127B99702DEE24EB127B9960030210
:107B1C007A07EE24F01277991219DEEE24EE127722
:107B2C00991219DE127BCD7900120D1674041217FE
:107B3C0073027A07127BF47047EE24F012779912D5
:107B4C0019DEEE24EE1277991219DE127BCD792212
:107B5C00120D167404121773027AC1EE24EC127B08
:107B6C0093FAEFFB120F6EE9850882850983F0808A
:107B7C000FEEFAEFFB120F7AE964017003027A0739
:107B8C0079007F100218861277BBF0EE221277D99B
:107B9C00640122F08508828509830422F0EE24E03A
:107BAC00127BB022F582EF3400F58322127BB0E415
:107BBC00F0A3F0A3F0A3F022F0EE24671277BBF051
:107BCC0022EE24ED1277D9FC850A82850B83E0FA2C
:107BDC007B0022EE2420127BB0127816851282854F
:107BEC001383E8F0A3E9F022EE2471F8EF3400F9E6
:107BFC0088828983E024FFF0A3E034FFF088828937
:107C0C008312737C4922C082C0838A828B83A3A394
:107C1C00A3A3A3A3A3127812EA240BF582EB12738D
:107C2C009BC3EA98EB995019E8C39AF8E99BF9C3FE
:107C3C00E894AAE9941040197900D083D08202010B
:107C4C0035EAC398F8EB99F9C3E894ABE994104082
:107C5C00E7790180E574F41217B48A087E007C7809
:107C6C007D047AFF7BFF120C207A1E7B08120DE834
:107C7C00E508A2E0501D75082E75098F78081219B9
:107C8C00C77C117D007AC17B0A120BA274021217F9
:107C9C0073E9FEEEF97F04021886C082C083EA4BBA
:107CAC00600C900472EAF0A3EBF079008002791179
:107CBC00D083D08202013574F41217B4E98A087E9D
:107CCC0000600F14601F14602C14603A146077026B
:107CDC007D74740165086003027D708C828D83E075
:107CEC00900474801E7401650870798C828D83E019
:107CFC00900475800E7401650870698C828D83E028
:107D0C00900476F080647401650870588C828D83C1
:107D1C00E0900477F07509FF78091219CB750A11F8
:107D2C008E0B780A1219C7750AC1750B0A780A12DC
:107D3C0019C779007C777D047A787B04120C38742F
:107D4C00051217738024740565087018750A058E62
:107D5C000B780A1219C77A7E7B0412048E740212F5
:107D6C00177380067E1880020E0E027C9F74F6122A
:107D7C0017B4E97E00600E146010146012146014C5
:107D8C0014601C8032900474800D900475800890EF
:107D9C0004768003900477E08A828B83F0801A75D6
:107DAC0008058E0978081219C77C7E7D0412048E92
:107DBC00740212177380020E0EEEF97F02021886FF
:107DCC0074F21217B474121217A8127FAB75080054
:107DDC008C828D83A3A3A3E0A2E450057908027ED4
:107DEC009DE8496005790B027E9D74101217A8124C
:107DFC007FABE8FEE9FF8C828D83E06402600302B6
:107E0C007E92127FAA880A890BEC2406F8ED3400C6
:107E1C00F9E8FCE9FD740E1217A8E0FAA3E0FB8563
:107E2C000A82850B83127FB1F50AE439F50B780AC7
:107E3C00121A0BF1FF04877E4E7E4E7E877E4E7E9D
:107E4C00637E8E828F837401F08C828D83127FA06F
:107E5C008A828B83F080388E828F837405F0F50ACA
:107E6C00750B00780A1219C78C828D83E0FCA3E095
:107E7C00FD12048E740212177380148E828F83E4A9
:107E8C00F075080A80098E828F83E4F0750801A9C9
:107E9C00087F0602188674F11217B4E9FE7F008C75
:107EAC00828D83A3A3A3E0A2E550057908027F6E1F
:107EBC008C828D83E064026003027F9D127FAA7422
:107ECC000F1217A8E0F508A3E0F50974111217A812
:107EDC00E0F50AA3E0F50B88828983127FB1E439BF
:107EEC00F50D780C121A51000003000229777FF16E
:107EFC00FF057FF3FF057F997FE50A450B70097439
:107F0C00016E60087F0D80587F0B8054EC2406F8BE
:107F1C00ED3400F9850882850983E0C0E088828908
:107F2C0083E0FAA3E0F5838A82D0E0F0888289832B
:107F3C00E064747004A3E06404702C790090047203
:107F4C00E0FAA3E0FBEA4B6017900472127FA0FAF0
:107F5C00A3E0FB8A828B83E582458360031217B210
:107F6C00EFF97F07021886790280D2750C018F0D0C
:107F7C00780C1219C7780A1219C778081219C7EEAB
:107F8C00F9120C327406121773E9FF80D37F0A8042
:107F9C00CF0F80CCE0F8A3E0F5838882E022A3E049
:107FAC00F8A3E0F922E0F50CA3E0F9E50C2400229B
:107FBC0074F71217B4EAFEEBFF890874FE6E7003B7
:107FCC0074FF6F601F74016508600E7402650870A1
:107FDC00137901120E06E9700B7C787D04EEFAEF32
:107FEC00FB120C207F01021886020135851A87C20C
:047FFC00AF0201359A
:10800000033F0000030004280D9808900790019496
:10801000011B0195111B08F00939821F0EA4FECD2A
:1080200082210622FB381818162118F0EF3818F2B2
:10803000ED3828F2EB3868F003392A1FE73F08F0E3
:108040000428C33868F0393C08F1053C88F1173C36
:10805000A8F10E3CE09F2C1F0128104A291FD63F93
:1080600015D0033827D0093800900428A83F0128EC
:10807000154101980128014A25D01F38041F831F8C
:108080000EA4FECD042205381421202807A0083FA5
:108090000628711527D0E939202807D0F238832126
:1080A00078F10238042188F1083D0628A14001F04A
:1080B00004288D38042807A00528561528F1163CF9
:1080C00068F1143D77CF1240599202D80F3912D07F
:1080D0000739699222D00439799242D004380528B0
:1080E000F8151E3FC09F0428753F08F1233C88F116
:1080F000203D094028F1103D4540F7C759F2083DA1
:108100009303131183E1B9F00F3C23E00D3F09D82D
:10811000EA38F9C30B3F68F1033D59F2F23C09D844
:10812000F9390528C6150528F91501900128214AB5
:10813000051F48F00C3C08F10A3868F1033C98F13F
:1081400006390C96062802150228843F47A00C9693
:108150000528FC15531F0528EC1507288CED05286C
:10816000F51501280195711B01280CE40528EE1571
:10817000511F88F10B3808F1073868F109390128D7
:10818000214201F00B3947D009383521063F28F14B
:10819000033838F10339351F341F04280CE047D069
:1081A000033903280CE80528D115571F28F0063895
:1081B000561F811F021F38F0063930215B900528B9
:1081C0004415FD3F88F1033D0528001505288A1553
:1081D00047D0133808F10F392C470CF00C38C40382
:1081E000B4125C110C3E04F00A38C103802801A0CF
:1081F000411B063F3021043F07284CED4C1B5B9090
:1082000047D0173827D00328F1390EA4FECD02221B
:108210000D39002208381021002914E00328E63C1B
:108220004C1BF13F0528A715EE3F46181221033FCE
:1082300005280B1588F1303905281A150128FB414E
:10824000302100291BE00A3D0428FF1505281015E0
:10825000F6C35192166A3B906B080428F615052860
:1082600007150BF0FB3917D004382D1F0128C43F28
:108270000328214701F008390328314701F0043968
:10828000A2958090033FC29500920328BF15201B42
:1082900054900128B33F08F10539052111900128B8
:1082A000214A38F103390021023F302110216A03AD
:1082B0000428CB156B033141224128F1093D02F01E
:1082C0000239F29101F00B39FF28F191083F02F0D9
:1082D0000239529201F00339FF28F193F7CB1B06C4
:1082E000023907A4B20C073D47D003287738249001
:1082F00003287E3F1690B6080428BA15A603042862
:10830000B7153BE0F7CE28F1703C012807A0F090AC
:10831000A00668F1323D149030F0053938F1032899
:108320006738073F50F00328633958F10328603855
:1083300038F104380328B415033F032892150328A5
:108340007E15012807D0033907A1563F424130F07E
:108350000C3907A112D0033807D84E3887A0C14086
:1083600041D04A38F7CE483F38F1033822D044385C
:1083700007D8423907A1403F78F1123847D02D384D
:1083800000F0033860F00639C14011D0073887A0EB
:10839000113F10F0033820F0AB3977CF0B3F00F0DE
:1083A000033810F0A539414181D00439032859150B
:1083B000093F0328751568F10539414141D002395B
:1083C00007B810F0063903283A15012807D00338FA
:1083D00007D8123907A1103F40F0032805390328B8
:1083E0001D1507D8F838083FA10383403112310525
:1083F00011D0023907A14BF0063C042826150428A9
:108400003715FA3F042821151BF0FD3D38F10338DC
:108410000328AA15F7CD0328214701F005390328C1
:10842000314701F0033807A2F7CE224082D00A3844
:10843000060304281D1506937606261196040428C3
:10844000171571034112002871C021070438E7CFC6
:108450004198043F17D0043951980728214817D074
:108460000538F295202800901D3F07D20438C295A8
:108470000092183F07D10438D2950094133F07D4D7
:108480000438E29500980E3F809028F10A3D319023
:10849000A10631F0063903A4B2950228B31500A154
:1084A000A2950228AF15201B28F1633D08F10A3977
:1084B000012807D00739072851411128C14A01284E
:1084C00007A017D20539E3CF8AD0023813A007D20C
:1084D0000539B3CF4AD0023843A083D01E393103C7
:1084E0001112310521D00739319907282148002977
:1084F00015E0133F529502288515454003D10D39EB
:10850000429502287F15281F21990728214803D268
:10851000043862950228761573CF834808F109392B
:1085200077CF17D0063907D203390AD1023887A08E
:10853000349007D2073807D803383090543F07A843
:10854000023FF7C718F15A3927D04C39314011D0C2
:10855000493987D0073917D0453907D203390AD1AD
:10856000413805F04B39414001F0483850903B3FCD
:1085700068F1153878F13938149017D03D3907D2A1
:108580003D3987D003383490393F07D137391190BE
:108590000128214A409003287715253F47D01C38F1
:1085A000249007D30C3911900128214A87D008382C
:1085B0005144002911E0043A514C023877CF17D0CA
:1085C0001B3987D003383490193F07D31739C1407E
:1085D00021D01438073F17D00F3907D30338309014
:1085E000023F009044900A3F249017D0053907D3EA
:1085F00005393490033FA09F44900221C190511B44
:108600008121342124F0083927D004390C9CFD2B1A
:10861000AE3F10904490B7CF34F00E395321032869
:10862000E195711B541F0F28CC9506282141F1C0FC
:1086300081111C09143F0190511B0728F19F711BE8
:10864000802114F001288F3854F0FD2B0A380128BE
:10865000B63F541F03286D151028CCED032876155E
:1086600076217821501F0128A29A217001B2218021
:1086700001B221802CE30328691574210128ACE4A0
:1086800008F1073C88F1033D0228A01503282A15AC
:10869000011F0128349D03285915201F002168F06F
:1086A000093D069058F003390728364102289C15E9
:1086B000FA3F0728504078F10439331F321F042154
:1086C000500000DC0128853828F1103D8340F7CBAD
:1086D00031031112310521D0033903D1033900D8F8
:1086E000103807A41B901A90163F00D80128713942
:1086F00098F107394B700128E2412B0800288E3F82
:10870000102807A04B701BF0FC2BED3C4A70224157
:1087100028F1303D02F00239F29112E0B20CFC2B4C
:10872000E23C419031061111FF2BE29F32045200CE
:1087300022111A042A043240002862C018F10339B9
:1087400027D00D3922F0093907280141B109002944
:1087500021E0093A0AA1073F42F00339FACE033F6C
:1087600062F0F93818F1253977CF0AD1223887A07D
:10877000203F02F00239529212E0B20CFC2BB33CC3
:1087800068F1123D38F1153887D01339012831428C
:1087900001F00F38402807A00728914231C0C1A03E
:1087A0000728914A063F02280190710621121A04F7
:1087B000FF2BF29FB2084BE0A603022815152603F3
:1087C0000228121568F1293CFBF0273C62904670A4
:1087D00002280A15D2370428609662904670062D4A
:1087E00002280215C23778F11839D04000D8153860
:1087F000DBF0133C829046700128F615D2377644A0
:1088000000D40338060E023F060D41700128EC1516
:10881000417086120128E8153290B20C053D467071
:108820000128E215FB3F08F1063941721128C14ABF
:10883000012807A0EF28F7CF28F11E3D8340309094
:10884000A00631031112310521D003398295043F6E
:1088500030F0043972950028D51553C843D002383A
:1088600023A007D4023803A130F0023903A28348C1
:1088700092950028C71506900BF005380128B4150D
:10888000591FFB3F0EA4FECD0122043902287315A7
:10889000FA3F551F1121031F249008F10F390AD107
:1088A000033987D02438314011D0213905F02139DE
:1088B000414001F01E3850901B3F48F1073828F125
:1088C000033858F1063987D0143877CF1490113F08
:1088D00078F1053911900128214A093F98F10939A9
:1088E000829500289315281F5490033F00904490D0
:1088F0000EA4FECD0322043902283D15FA3F1321B0
:108900002C1801210321741FD1900000F13724F0AD
:10891000093800000190511B0728F19F711B80212D
:10892000063F4190511B0328E195711B3221072816
:10893000914231C00728914ABF28F7CF28F1063C61
:1089400088F1043D92955E15281F44F0383814F0E4
:108950000A3854F0FB2B853801280CE40128F61561
:10896000FB2BF93F01289015009027D0283902D819
:10897000083838F12439329001289215E237193F2E
:1089800019E089F2043C38F11A39599238F1033967
:108990000128861512409103002951E2120E12D0CF
:1089A000F038012886150128B915124001289115C3
:1089B0003199072821482C18FE2B4C3F0128104ADA
:1089C0000028A915FB2B223FF09F043FD09F023FB8
:1089D000B09F0028D0152C1FF23F28F1053C68F10C
:1089E000033D1490053F2090023F10904490419821
:1089F0000728214838F1FE2B01380028B515FD2B3A
:108A0000FD3F217011E0218002000128214107284B
:108A10002148217811E021880200F7C776157103FB
:108A20003112A10501D4023907A804286496311532
:108A30000238F7C70428C4F6FB3C0200FE28F7CF33
:108A4000641551417111A10501D80339012807A00E
:108A500064911F150338FE28F7CFC4F1FB3C0200D8
:108A6000F7C753155141022807A00AD40339FD283E
:108A7000F7CF5111A10501D4023907A8C4910428E8
:108A8000659607150238F7C7563124F2FB3C020001
:108A90000028DB150028EC15412D160C0200F7C745
:108AA0003415D032D332234268F109394141904024
:108AB00041D0043850000306023F0303314202282C
:108AC00007A00AD404395100FD28F7CF13064492B9
:108AD000042865960028B9150028CA155631FF28C4
:108AE000E19F4070060C023813068EA0810064E0FE
:108AF00044F5F83C0029F4E2A4F2ED3C03F002381E
:108B000007A8D32FD02F02009BF0023C020007A140
:108B10002DE0020098F10938102807D0033908F138
:108B2000043831990728214808F10C39012807D069
:108B30000938072851411128C042010C0338072881
:108B400050491190082807D005380628B148F72861
:108B5000F7CF042807D005380628A148FB28F7CF0F
:108B60003021291F0200311FFF28F19F411B301FB8
:108B70003121020002210121032153230938062853
:108B8000D14001D112384198072821480B3F542386
:108B90000C385021F1910000F137741FF190000062
:108BA000F13768F0023C2B1F0190511B81210728EF
:108BB000F19F711B80210728914231C00728914AFB
:108BC000BF28F7CF322134210200082807D0073907
:108BD0000628B14001F00438082807A00200042844
:108BE0000D98FE2BF43F402807D00D390EA4FECD82
:108BF000012204390028BF15FA3F661B1121002904
:108C00001BE002000728A64A0EA4FECD012204396B
:108C10000028B115FA3F01283142B10941E0053A77
:108C200008384BF00C38EA3D0728A142611BE73FAA
:108C30000728914271CF0728914AF73F07289142B0
:108C400081A20728914ADA3F0EA4FECD0222043900
:108C500000289115FA3F4618122100291BE01BF04D
:108C60000639581F0628E0400128004A020017D0A4
:108C70000A393122063817A0419807282148033FB6
:108C80000728A6480200124038F1093802D80739EF
:108C90009103002941E2120E120D1248020047A072
:108CA0007B280C9C10215215FF2B5E15B7CF0200BC
:108CB00059F203396391083F69F20339E392043FA3
:108CC00079F203394396020004280D98FA2B0B3FE2
:108CD00002D407389103002901E211700628614887
:108CE000020088F10A3C012831410728814AB14637
:108CF0000328314FA1460F3F0728894A28F1063D36
:108D000031440328314F5140053F552851950328E0
:108D1000314F81110328214F0200E3F3033CF1900E
:108D2000033F23E051920628614A06284348020087
:108D30007B21772141900000F137702175217A2144
:108D40008CEE0415521F801F02004C1B001F47D0E1
:108D5000033827D009390EA4FECD002203390B15A4
:108D6000F73F1021020004280D9838F1FE2B273818
:108D7000FE2B3C3FD23202180119210601D41A38C9
:108D80001218162162F003392A1F2D3F12F21538EE
:108D900022F22838FE2BEF1568F0063C619001287E
:108DA000114AFE2BB8153021280304280D98F92B01
:108DB0002E3F01D114381421202807D00D3878F126
:108DC000123904231038714401F00239814400291A
:108DD00011E0714C083F202807A0053F01D205385B
:108DE000152127A0D22F020011D006381021042807
:108DF0000D98FD2BF33FF2CE5200121BF43F9C085E
:108E0000120BA808180BB4081E0BC008240BCC08C2
:108E10002A0BDE082A0BEA08300BC008360BD808EC
:108E20003C0B00000000FC083C0B0809420B000052
:108E30000000000000000000000000000000000032
:108E40000000000000000000000000000000010120
:108E500002010201010201020303040103010101F5
:108E6000010103030201032A0E920606143A075277
:108E70000D820A720B6A13C40738069C0BE8074D73
:108E8000616E756661637475726572204E616D65A1
:108E900000536F66747761726520526576697369F5
:108EA0006F6E004861726477617265205265766901
:108EB00073696F6E004669726D77617265205265E5
:108EC000766973696F6E000000000000000000000A
:108ED00000000000000087FB349B5F8000008000E2
:108EE00010000000000000F401FA00960064004B3E
:108EF0000032001E00140053657269616C204E75CB
:108F00006D62657200FE006578706572696D656EF0
:108F100074616C4D6F64656C204E756D6265720096
:108F20007869E0AB50C3F0D200000000001B1208CB
:108F300018080000B20AB80A00002A083008000029
:108F40000000020C0000B40500000000000000005A
:108F5000000001020304051A00000005000000F1F2
:108F6000FFFFFF01C800000400000000080000D659
:108F7000BE898E060000000595D5F503000000FFB0
:108F8000FFFF005555550050000000640000001917
:108F9000000000F6FFFFFF430000000100FF00009B
:108FA00000FF007D000000DDFFFFFF00001000FF5C
:108FB000FFFFFF40420F00E803000032000000C244
:108FC00001000002000000C600000088130000FB42
:108FD000FFFFFF070000000A000000010000006022
:108FE000EA000071020000419C0000E7FFFFFF1053
:108FF000270000023C90023E90020A900224900258
:109000002690F3FFF2FFF4FFF1FFF0FFF5FF052AD2
:10901000E1FF032A022A012A002A02290129032842
:109020000128002801180018042A502A2A2A292A6F
:10903000282A272A262A252A242A232A0A18E0FF52
:109040000C74F41217B4E99005AAF012116C907820
:1090500000E0C4540F540764037004793F80027920
:109060007F75080675090078081219C77C987D0578
:109070007AEA7B0712069E7402121773900598E035
:10908000F47049A3E0F47044A3E0F4703FA3E0F46B
:10909000703AA3E0F47035A3E0F4703090780EE0FD
:1090A000900598F090780FE0900599F0907810E096
:1090B00090059AF0907811E090059BF0907812E07E
:1090C00090059CF0907813E090059DF090059E121D
:1090D00091D6129FE69005C87406F0A3740D129AFB
:1090E0007F7440F0A37401F09006F41291D69006BC
:1090F000F3E4F09006FAF0A374A0129A7F7403F0E0
:10910000A37407129A7F7428129A7F04F0A3E4F0E4
:10911000900723F090074674FFF0A3E4F09007480F
:10912000F090074A04F090074B7490F0A37401F09C
:10913000120F0E120E3C12110C79017A4D7B0712A0
:109140000FFE90074DE075F01484E5F004F0790C03
:109150007A6E7B07120FFE12101C7A009005AAE0AF
:10916000F9120536907803E06442705590074DE09F
:1091700014F0704DC2AF12917900782AD0E0F61841
:10918000D0E0F6E59F540770057509FF8003750967
:109190007FC4C0E07829E6F50808E65509F50974AA
:1091A0000B780812173BD0E02508F8906270E0A217
:1091B000E740F8E8C333906272F0906270E0D2E06A
:1091C000F09005D5E4F0A3F07A80FB9005AAE0F9D1
:1091D0001204E20296D274FF12953FF0A3F02274BB
:1091E000F41217B4EAFEEBFFEEA2E050409005AC9B
:1091F000E0C39480E0500FC333F8E433F97463287C
:10920000F582740C800EF4C333F8E433F9747128DA
:10921000F582740C39F583129E621217B27A0090AF
:1092200005AAE0F9120536EE64010293C954026002
:109230003875080078081219CBE4F5097808121976
:10924000C778081219C778081219C77508DF750999
:109250000678081219C71293EE793C120D047409AE
:10926000121773EE64020293C9EE5404607B9005FA
:10927000D9E0F875F003A4C8AAF0129700EA242AEE
:10928000129F25F50878081219CBEA24321293DDD3
:10929000F5097404780812173B78081219C7EA24F4
:1092A000201293D51219DEEA242E1293DDC313F592
:1092B00009E50813F50878081219C77508DF75095C
:1092C0000678081219C79006DEE0FD7C018A828BC1
:1092D00083A3A3A3A3E0FA7B007900120D04740911
:1092E000121773EE64040293C9EE54406038750897
:1092F0000078081219CBE4F50978081219C7780824
:109300001219C778081219C77508DF750906780899
:109310001219C71293EE793B120D047409121773D8
:10932000EE64400293C9EE5480603990074B129A64
:1093300079E849602A790012053090074BE0F5087A
:10934000A3E0F509E4F50AF50B78081219C37A00D1
:109350007B019005AAE0F91205607404121773EE00
:1093600064808065EF5401600C7901120530EEFADB
:10937000EF64018056EF5402600AC2AF75C9AB7545
:10938000C95B80FEEF5404600A121B08EEFAEF641A
:109390000480389005B1E064017033EE5420602EF3
:1093A0009005ABE024F9600314701B793F9005D958
:1093B000E0FA75F003A4CAA8F028FB74DB2AFA745B
:1093C000053BFB120FB6EE6420FAEFFB80047A0037
:1093D0007B000296D2F582EB3400F583221293E5EE
:1093E000F508A3E022F582EB3400F583E022900635
:1093F000DEE0FD7C017A007B002274F61217B4C314
:10940000EA9411EB940050047A1080027A20EA2446
:1094100008FAE43400FB12071C8A088B09A808A983
:1094200009E849600AE82404FAE93400FB80047A78
:10943000007B00029CDA74F61217B4EA2405FAEBFA
:109440003400FB12071C8A088B09A808A909E849FF
:10945000600AE82405FAE93400FB80047A007B0006
:10946000029CDAC082C083C2AF121142E5E170FCF7
:1094700075E101120EE475E1F1121184120ED87932
:10948000071211F679011211FC79021211AE1211B4
:10949000CC1211EA79001211F079011211F0908FBB
:1094A0008312164B1211969006DEE41291D8A3F0A7
:1094B0009006FAF0A3F0A3F09006FE7407F0900671
:1094C000FD7403F0900703E4F0900702F090072387
:1094D000F0120FA4121070120FBC79001212029039
:1094E00006E574FF12953F741FF0906012E4F0A33C
:1094F000F0906063F07521009005ABF09006EAF003
:109500009006EB740CF09006ECE4F09006ED04F09D
:109510009006EEE4F09006EF04F09006F0E4F09090
:1095200005ADF0A3F09005B0F09005B104F0900502
:10953000C77403F0900749E4F0D2AFF9029F9AF0A4
:10954000A3F0A3F0A3F0A322C082C08390059812D9
:109550009589F090059912957CF090059A12957C6A
:10956000A3F090059B12957CA3A3F090059C129507
:1095700081F090059D129581A3029F97129589A372
:1095800022129589A3A3A3A322E08A828B8322C0FF
:1095900082C0838A828B83E090059E1295CCE090F6
:1095A000059F1296D79005A01295C6E09005A112CE
:1095B00095C1E09005A21295C1A3E09005A3029F7A
:1095C000971295C6A3221295CCA3A322F08A828B70
:1095D00083A322C082C083120F1AE970051211CC36
:1095E0007900029F9A74F71217B4EAFEEBFF89081C
:1095F000120F1AE9702CE508600A74016508600A08
:109600007912801E7C00790080047C007901EEFADA
:10961000EFFB1211D2E9F874036870047907800235
:109620007900029E6B74F61217B4EA4B600EEC4D93
:10963000600A740A1217A8129FCB70047912800F67
:1096400078081219C71210167402121773790002E3
:109650009CDA74F41217B4EAFEEBFF89089005ABAC
:10966000E064096014E0640A600FE0640B600AE0E3
:10967000640C6005E0640D7004790C801E12109A71
:109680008B0BEA450B700BA908EEFAEFFB120FFEED
:1096900080099005ADE04440F0790D803574F412F6
:1096A00017B4EAFEEBFF890BEE4F6003E970047913
:1096B00012801F750A00120FF8850A08EE2508F5BA
:1096C00082EF1293D8E9F0050AE50AC3950B40E64C
:1096D00079007F040218861295CCA3E022C082C0D4
:1096E00083E9F8740168700B9007497401F0790000
:1096F000029F9AE87006900749E480F1791280F0A1
:109700002AF974DB28FA740539FB2274F61217B4AF
:10971000EAFEEBFF8C088D099005ABE0640C700548
:1097200090618E8013120EA8E9702F12A03274433C
:109730002EF58274063FF583E0F9748069700A851E
:109740000882850983747F800E9005AFE0F8E9C335
:1097500098850882850983F07900029CDA74F712F3
:1097600017B4EAFEEBFF89087405650860287413D6
:109770006508602274146508601C7415650860161D
:10978000741A6508601074296508600A743B6508DE
:1097900060047912803E120EA8E97038129F71247D
:1097A0001DF8EB3400F9EA24F4FCEB3400FDEA2464
:1097B000691297D77016EA246A129F256402700412
:1097C000793A80101297DD120F8C80061297DD1205
:1097D0000F807900029E6B1293E56401228C828DCA
:1097E00083E508129FE0E4F0A3F079022274E81206
:1097F00017B48A088B098C0A8D0B8917EC450B600E
:1098000016E9C3941C501074181217A8E0F50C60E8
:109810000B7401650C60057912029A74120EA8E9A6
:109820006003029A74A808E875F003A4C8AAF02A95
:10983000FA75F003E509A42AF974DB28FE740539EA
:10984000FF9006EBE070057907029A74E50A24FEA2
:10985000F50AE50B34FFF50B850A82F583E517F071
:10986000E50C7004740280027401A3F0E50A24FE82
:10987000FCE50B34FFFDEE2463FAEF3400FB120F1E
:10988000DA9006EBE014F09005ABE064086008E0C5
:1098900064076003029A729005D9E065087002E5DA
:1098A000096003029A727900EEFAEFFB121E8590AE
:1098B00061D0E07003029A729006EFE064016003E9
:1098C000029A72EE241DF582EF1293D8129A79E86B
:1098D000497003029A72A2AFE433F516C2AF1211B7
:1098E0005A8A088B0912115AEA65087003EB650958
:1098F0007003029A6C12109A8A088B091211548A0A
:109900000C8B0D8C0E8D0FE5082402F514E509343F
:1099100000F5158A108B118C128D13908FDB781047
:109920001215B978101219C3851482851583121681
:109930004B1224C77404121773E964016003029A7E
:109940006CEE242EF50AEF3400F50B850A82F583C0
:10995000E02406F510A3E03400F511E4F512F51348
:10996000780C79101215A6780C1219C3851482850B
:10997000158312164B1224C77404121773E964017D
:109980006003029A6CE5082408F510E5093400F537
:1099900011851082F5831219DAAA0CAB0DAC0EAD4D
:1099A0000F1225237404121773850A82850B831204
:1099B00019DE12220874021217738A0C8B0D8C0E9A
:1099C0008D0F7410780C12156EA80CA90D8E828F55
:1099D00083A3A3A3A3A3A3A3A3A3129A858E828F79
:1099E0008312A017EA28FAEB39FB8E828F83A3A398
:1099F00012A017851082851183C082C083850A82D8
:109A0000850B83E0F510A3E0F511780C79101214A2
:109A10007ED083D082780C1215B9908F7F780C128B
:109A20001607851482851583E50CF0A3E50DF0A3D8
:109A3000E50EF0A3E50FF0850882850983A3A3A3B3
:109A4000A3A3A3E4F0A3F0EE2435F582EF129F2840
:109A5000C0E0EE2434F582EF1293D8D0E0F0EEFAB5
:109A6000EFFB121BFBAA08AB0912107CE516A2E063
:109A700092AF79007F10021886E0F8A3E0F922F097
:109A8000A3E4F0A322E0FAA3E0FB2274EE1217B4E1
:109A9000EAFEEBFF890874131217A8E0F5097414A5
:109AA0001217A8129A79E508604B740165086015D1
:109AB00074036508602974026508602374046508EE
:109AC0006003029B47E849607EE509600674016512
:109AD00009707474036508600674026508702AEEE4
:109AE0002460FAEF129C5A505EEC2460FAED129C4E
:109AF0005A40168052EE24E0FAEF129C4F5048EC88
:109B000024E0FAED129C4F503EC3EC9EED9F40378F
:109B100074121217A8E0FA600574016A70297417AC
:109B20001217A8E0F50E60127401650E600C740245
:109B3000650E60067403650E700D74161217A8E0AA
:109B4000FB74075BFB70057912029C4A9006FAE0F1
:109B500064017005790C029C4AE5089006FDF0EB63
:109B6000A3F0E50EA3F0EA9006F3702FE4F0900561
:109B700098E09006F4F0900599E09006F5F09005D5
:109B80009AE09006F6F090059BE09006F7F09005BD
:109B90009CE09006F8F090059D802E7401F09005F1
:109BA0009EE09006F4F090059FE09006F5F0900599
:109BB000A0E09006F6F09005A1E09006F7F0900581
:109BC000A2E09006F8F09005A3E09006F9F0E824F2
:109BD00005FAE93400FBE82404FCE93400FDE8243C
:109BE00003F50AE93400F50BE82402F50CE934002A
:109BF000F50D88828983A3858210858311740165A0
:109C000008700B129C659006FBE4F0A38039740485
:109C100065087005129C658027E50E700479008048
:109C20001C7401650E7004790180127402650E7057
:109C300004790280087403650E700579031211D847
:109C40009006FBEEF0A3EFF079007F0A021886344D
:109C5000FFFBC3EA94E1EB943F2234FFFBC3EA9499
:109C600061EB943F22E5099006DE129FE0E090064A
:109C7000DFF0851082851183E09006E0F0850C828C
:109C8000850D83E09006E1129FD79006E2F08C826A
:109C90008D83E09006E3F08A828B83E09006E4F007
:109CA0002274F61217B4E9FEC39420500BEE90070D
:109CB00003F0601EEA4B70047912801E129EAC12F3
:109CC00019C7EAFCEBFD7A047B0712048E740212BA
:109CD00017739007027401F079007F0202188674EE
:109CE000F41217B4E9FE9005ABE064097003029D1D
:109CF000F9E0640A7003029DF9E0640B7003029DB1
:109D0000F9E0640C7003029DF9E0640D7003029D9C
:109D1000F99006FDE0F8601774016860127403683A
:109D2000600D74026860087404686003029E5E90AF
:109D300006F3E0F960087401696003029E5E740333
:109D400068600574026870109006FBC3E094A0A3DD
:109D5000E094005003029E5EEE7003029DF31460D7
:109D600003029E5E9006FAE064017003029DF9E82A
:109D7000600A740168600574046870081210A6E92E
:109D800054FD7075790112108E9006F112A01C908E
:109D900006FA7401F09005ABE070531211548A0872
:109DA0008B098C0A8D0B908F7B78081215B9908FD8
:109DB0007F78081216079006F1129E62A3A3780816
:109DC00012163C9006F1E0F8A3E0C82406F582E8FC
:109DD0001293D8E4F0A3F0120F20E9600E7AF17B21
:109DE000061210949006FAE4F0800E1210767900B4
:109DF0000296D29006FAE07004792180F3A2AFE4D3
:109E000033FFC2AF7AF17B061210949006FAE4F0A9
:109E10001210B2E97041121142906182E0C2E6F084
:109E2000E5E170FC75E1017591BF75E1F19005B157
:109E3000E0640170187A207B009005AAE0F9120511
:109E40006C7A207B009005AAE0F91204E87A009071
:109E500005AAE0F9120536EFA2E092AF80907912E0
:109E6000808EE0F8A3E0F5838882227F01021886C5
:109E700074F61217B4E9FEC39420500BEE9007233A
:109E8000F0601EEA4B70047912801E129EAC12190B
:109E9000C7EAFCEBFD7A247B0712048E74021217CA
:109EA000739007027401F07900029CDAE0F50875FE
:109EB000090078082274F61217B4EAFEEBFF8C084A
:109EC0008D099005ABE064076004790C8054EC4583
:109ED0000970047912804B120EA8E9704512A02275
:109EE0007E008E82AC82E5082CF582E509129F285F
:109EF000C0E0C3E49CF895E0F9EA28F8EB39F9E80A
:109F000024D1F582E91293D8D0E0F00EEEC394107C
:109F100040D0EA24D31293D57401F07905120F8052
:109F20007900029CDAF582EB1293E82274F712179B
:109F3000B4EAFEEBFF9005ABE064076004790C80A7
:109F40002D120EA8E97027129F7124DC1297D7708A
:109F50000DEA24F41293D57406F07902800BEA24FA
:109F6000DD1293D57406F0790D120F807900029EF0
:109F70006B12A026EA22C082C083C3EB940F500468
:109F8000EA4B60047912800C9005DEE070047902DF
:109F900080027900029F9AF07900D083D08202017A
:109FA00035C082C083E9F890074AE07004790C80DC
:109FB0000EE8600D1470109005B07401F079008007
:109FC000D99005B0E480F5791280F4E0F508A3E0BB
:109FD000F509E508450922F0850A82850B83E02210
:109FE000F08882898322900598E09005A4F090057E
:109FF00099E09005A5F090059AE09005A6F09005EF
:10A000009BE09005A7F090059CE09005A8F09005D6
:10A010009DE09005A9F022A3A3A3A3A3EAF0A3EBDC
:10A02000F02212A0262212A03674DB2EFA74053F0D
:10A03000FB2212A03622EE75F003A4CEA8F028F879
:10A0400075F003EFA428FF2274F61217B49004DB16
:10A0500074FEF0A304F09004DEF09004DDF07A01C9
:10A060008A087509007402780812174A74DB2508FB
:10A07000F874043509F9EA88828983700774FEF060
:10A08000A304800474FFF0A3F088828983A3A3A3B0
:10A09000F088828983A3A3F00AEAC3940240C17ABC
:10A0A0000C7B0B120B607A5A7B0B120DE8790002C5
:10A0B000AC8A74F21217B4EAFEEBFF8E828F831221
:10A0C000A6BA605212A1E712A206750B00780A1216
:10A0D00019C78A828B83A31219DE7C027D007A2243
:10A0E0007B9012091A7404121773E9702E85088286
:10A0F00085098312A206780A1219C78A828B83A364
:10A100001219DE7C027D007A207B9012091A7404F9
:10A11000121773E97005790202A1E2900C3F12A6B2
:10A12000BA600CC3E498FAE499FB12A1F7500579E0
:10A130000102A1E27A067B0012051E8A0A8B0BEA55
:10A14000450B7005791302A1E27A007B00804090F4
:10A150000C3F12ABCB8A0C8B0D7403780C12174A90
:10A16000850882850983E0250CF8A3E0350D8882F7
:10A17000F583A3A3A3A3ECF0A3EDF0900C3FE024A0
:10A1800001F0A3E03400F0EA24010AEB3400FB12F2
:10A19000A1F740BB850A82850B83E4F0A3F0750824
:10A1A00004F50978081219C7EEFCEFFD12A9D412C4
:10A1B000048E74021217739004E312A6BA9004E39B
:10A1C0006017E0FAA3E08003E8FAE9FB8A828B8358
:10A1D00012A6BA70F38A828B83E50AF0A3E50BF02E
:10A1E00079007F06021886EE2402F508EF3400F5A8
:10A1F00009850882F583228E828F83E0F8A3E0F937
:10A20000C3EA98EB992212ABEC8A828B83E0F50AC1
:10A2100022C082C083E9900C3EF0D083D08202013C
:10A220003574F71217B4E9FE74145E60047C018083
:10A2300007EEA2E650097C007910120E12800AA2E5
:10A24000E040047902800279007F0102188674F7E9
:10A250001217B48908ECFEEDFFE9A2E550097C0174
:10A260007910120E12803C74885508602B740855C2
:10A2700008FC7910120E12E96027EE2418F582EF1F
:10A280003400F583E0601CEE2417F582EF3400F50E
:10A2900083E06401600B800BE9A2E1400479038054
:10A2A00002790080A474F41217B474E912175DEAFD
:10A2B000FEEBFF8908E4F50AF50B780A1219C77559
:10A2C0000A02780A1219C7750A0E750B90780A12DD
:10A2D00019C77CFF7DFF7A017B00120AE274061227
:10A2E00017738A828B83E5824583605612AD6D8534
:10A2F0001882851983E8F0A3E9F074021217A87494
:10A3000004F0141217A87401F074041217A8E4F0F2
:10A3100074051217A874FFF074061217A874FFF0E2
:10A32000E508F50978091219CB790074011217A80C
:10A33000AC82AD83EEFAEFFB120AFA7401121773C6
:10A340008002790174171217737F0402188674EA69
:10A350001217B48A128B138C108D119004E3E0F560
:10A3600008A3E0F50974161217A8E0F514A3E0F5A8
:10A370001574181217A8E0F50AA3E0F50B800D85F7
:10A380000882850983E0F508A3E0F509E508450999
:10A39000700302A44C7E007F00E5082404F50EE55E
:10A3A000093400F50F8008EE24010EEF3400FF851C
:10A3B000088285098312AD6FC3EE98EF9950C08E65
:10A3C0000C8F0D7403780C12174A850E82850F834B
:10A3D000E0250CF50CA3E0350DF50D850C82F58319
:10A3E00012AD6DC3E89512E9951340BBC3E5109813
:10A3F000E5119940B2E50A450B6023780A1219C7A6
:10A4000078141219C7850C82850D83E0FC7D00A3AA
:10A4100012ABE812091A7404121773E96089741AEE
:10A420001217A812A6BA601E850E82850F83E0FA65
:10A43000A3E0F5838A82A3A3A3A312ABE888828951
:10A4400083EAF0A3EBF0AA0CAB0D80047A007B004A
:10A450007F0E02188674EE1217B4ECFEEDFF900426
:10A46000E3E0FCA3E0800A8C828D8312AD71E8FCEE
:10A47000E9FDEC4D700302A5168C828D8312AD6D43
:10A48000880889098882F583A3A3A3A3E0F50CA318
:10A49000E0F50DC3EA950CEB950D40CB8C828D83D6
:10A4A000A3A3E0F50EA3E0F50FE50C250EF8E50DEE
:10A4B000350FF9C3EA98EB9950AD750A00750B009A
:10A4C000800CE50A2401F50AE50B3400F50BC3E521
:10A4D0000A950EE50B950F508E850A10850B1174A9
:10A4E00003781012174AE5082510F8E5093511F927
:10A4F00088828983A3A3A3A3E06A7003A3E06B709F
:10A50000C1EE4F600B8E828F83E50CF0A3E50DF05A
:10A51000E8FAE9FB80047A007B007F0A021886745F
:10A52000F01217B474FE12175DEAFEEBFF75080017
:10A53000750900851882851983E4F0A3F0EE2404E0
:10A54000F50CEF3400F50D850C82F58312AD77A381
:10A5500085820A85830B74FF6A700374FF6B603D0C
:10A5600085188285198385820885830978081219E0
:10A57000C78E828F83E0F50875090078081219C725
:10A58000850A82850B831219DEEA24010AEB340066
:10A59000FB120AE274061217738A088B098E828FE7
:10A5A0008312AE271219C7850A82850B831219DE22
:10A5B0007C027D007A227B9012091A7404121773B0
:10A5C000E970288E828F83E0F50E780E1219C78508
:10A5D0000A82850B831219DE7C027D007A207B9033
:10A5E00012091A7404121773E9600B850C82850D29
:10A5F0008312ABE880458E828F83E0F50E780E12D1
:10A6000019C7850A82850B831219DE7C027D007AC8
:10A610001E7B9012091A7404121773E960367412C3
:10A620001217A812ABE8E5084509600F8518828566
:10A630001983E06A7003A3E06B6005120B06801FAC
:10A64000850882850983A3A3A3A3E024FFFAA3E0DE
:10A6500034FF800A850C82850D83E0FAA3E0FB7449
:10A66000141217A812AD7188828983E58245836030
:10A6700005EAF0A3EBF0AA08AB09740202AD7FC0B3
:10A6800082C0839004E312A6BA602888828983A3DB
:10A69000A3A3A3E0FCA3E0F5838C82A3A3A3A3E080
:10A6A0006A7003A3E06B8882898370DAA3A312AB7C
:10A6B000E880047A007B0002A21AE0F8A3E0F9E83F
:10A6C000492274F21217B474FE12175DEAFEEBFF12
:10A6D0008C088D09890A851882851983AC82AD831F
:10A6E000120B48E9F50B706FE50A60107C017910D8
:10A6F000EEFAEFFB120E12E9F50B705BAC08AD0938
:10A70000EEFAEFFB12088AE9F50B704B851882858B
:10A71000198312A76174101217A8E0F50874FF6579
:10A72000086034EE2402F50CEF3400F50D780C12BD
:10A7300019C7750C1E750D00780C1219C7EEFCEFC9
:10A74000FD7A547B0B120B8474041217738E828F64
:10A7500083A3A3A3E508F0A90B740212177302A147
:10A76000E2E0FEA3E0FF2274F51217B474FE1217A4
:10A770005DEAFEEBFF8C088D09890A851882851930
:10A7800083AC82AD83120B48741769601DE50A60C3
:10A790000E7C017910EEFAEFFB120E12E9700BAC91
:10A7A00008AD09EEFAEFFB12088474021217737FEA
:10A7B0000302188674F61217B4EAFEEBFF120AF4CD
:10A7C000EA4B600FEE24FFF8EF34FFF9EA28FAEBCA
:10A7D000398003EEFAEFFB02AC8A74F01217B474FE
:10A7E000E312175D8A088B0912ABBAE0F50F741EED
:10A7F000650F7054120B4E8A0A8B0BEA450B7003DF
:10A8000002A9CDEA2403F50CEB3400F50DE4F50EB6
:10A81000F50F780E1219C78E828F83E0FD7C00AA97
:10A8200008AB09850C82850D83E0F9120B7E74025A
:10A83000121773E9F50E12A9D4120B8A850C8285C2
:10A840000D8374FFF002A9CD900C3EE0F4606BE53F
:10A850000FC394195064E50FC313F50A750B007408
:10A8600002780A12174A74FE250AF8748D350BF91E
:10A87000E824FCFAE934FFFB8A0C8B0D8A82F5830D
:10A8800012ABE8EA4B6033E824FEF582E934FFF5C9
:10A890008312A6BA60248C828D83A385820A858365
:10A8A0000B8C828D83E0F9700B850A82850B83E027
:10A8B0006401700B7412650F6005790602A9CF74EC
:10A8C000041217A885820E85830F780E1219C78C83
:10A8D000828D83A3A3A31219DE8C828D83A3A3A3ED
:10A8E000A3A312ABCB850A82850B83E0FA850C8289
:10A8F000850D8312A9DF1217B27404121773E9F5DC
:10A900000E600302A9CD74041217A8AC82AD83AA0D
:10A9100008AB098E828F83E0C313F50C750D0074AC
:10A9200002780C12174A74FC250CF582748D350DD3
:10A93000F58312A9DF1217B2E9F50E70368E828FF9
:10A9400083E0FD74046D700302A9CD74041217A88E
:10A9500085820A85830B780A1219C77C00AA08AB86
:10A9600009900C3EE0F9120B7E7402121773E9F5A0
:10A970000E805A850A82850B83E070518E828F8308
:10A98000E0851882851983F074031217A8E9F08E08
:10A99000828F83E0F8740468600D74066860087440
:10A9A0000868600374106874041217A812AD7174FB
:10A9B000011217A8E8F0A3E9F0851882851983AC85
:10A9C00082AD83AA08AB0912083C750E00A90E746B
:10A9D0001D02AD7FE50A2402FAE50B3400FB22E0FC
:10A9E000F8A3E0F583888222790002013574F01221
:10A9F00017B474EA12175D8A0C8B0D8C828D83124A
:10AA0000ABE8750A0012ABBAC3E09AA3E09B40041E
:10AA1000EA4B7005790102ABB5851882851983E48C
:10AA2000F0E4F508F50978081219C778081219C773
:10AA300078081219C78E828F8312ABCB120AE27488
:10AA4000061217738A088B09A808A909E849700338
:10AA500002AB1488828983A3AA82AB83E82404F51D
:10AA600008E93400F509851882851983E06003023E
:10AA7000AB2588828983E06402700B74011217A8E9
:10AA80007401F002AB3274011217A87402F012AB19
:10AA9000D175F012A4F885F00BA90BE58228F58298
:10AAA000E58339F583A3A3ECF0A3EDF0750E1075E3
:10AAB0000F00780E1219C712ABC774021217A8E064
:10AAC00075F012A4F8A9F0E58228F8E58339F9E8D1
:10AAD0002404FAE93400FB12048E74021217738501
:10AAE0001882851983E004F0700F85088285098338
:10AAF000E0F47003A3E0F47003750A018508828511
:10AB00000983E02401FAA3E03400FBE50AA2E04057
:10AB10000302AA21851882851983E0600302ABA88D
:10AB2000790A02ABB574011217A8E0640160030250
:10AB3000AA8E88828983E0640270D912ABD1F50EA7
:10AB4000750F007402780E12174AE582250EF58201
:10AB5000E583350FF583A3A3ECF0A3EDF0750E02AA
:10AB6000750F00780E1219C712ABC774021217A81E
:10AB7000E0F50E7402780E12174AE582250EF8E50C
:10AB800083350FF9E82404FAE93400FB12048E74CB
:10AB900002121773851882851983E004F0C39405A7
:10ABA000400302AAF902AAEAAC82AD83AA0CAB0D5B
:10ABB0001208487900741602AD7FEC2402FEED34D1
:10ABC00000FF8E828F83228A828B83E0FCA3E0FDCC
:10ABD00022850882850983E0FCA3E0FD8518828533
:10ABE0001983E0228E828F8312ABEC22E0FAA3E07D
:10ABF000FB2274F61217B412AC9C4004EA4B7004AA
:10AC000079018039E4F508F50978081219C78C82B2
:10AC10008D83A3A3A3A3E0F50878081219C712AC8B
:10AC20008F1219C7EEFCEFFD120AE27406121773B9
:10AC30008B09EA45097004790A80027900804B7417
:10AC4000F61217B412AC9C4004EA4B7004790180F0
:10AC500039E4F508F50978081219C78C828D83A3A9
:10AC6000A3A3A3E0F50878081219C712AC8F121934
:10AC7000C7EEFCEFFD120AE274061217738B09EAA5
:10AC800045097004790A800279007F02021886EC77
:10AC90002405F508ED3400F5097808228C828D83AF
:10ACA000A3A312A7618C828D8312ABECC3EE9AEF43
:10ACB0009B2274F61217B4EAFEEBFF8C828D837C24
:10ACC000007D0012ABE8120AE88A828B83E5824598
:10ACD0008370047901800CA3A3A3E0F9EEFAEFFBE3
:10ACE000120AD080A574F01217B48A0A8B0BECFEFE
:10ACF000EDFF750C008002050CEE2416F582EF3492
:10AD000000F583E0F8E50CC398505EE50CC333F81A
:10AD1000E433F9EE28F508EF39F5097C007D00856C
:10AD20000882F58312ABE8120AE88A828B83E582F7
:10AD30004583701685088285098312AD718E828FD6
:10AD400083E8F0A3E9F079018021A3A3A3E0F9AAA5
:10AD50000AAB0B120AD0E9609E850882850983122E
:10AD6000AD77EAF0A3EBF0800279008015A3A3A3EE
:10AD7000A3E0F8A3E0F92212ABEC8E828F832212BB
:10AD800017737F0802188674F01217B4ECFEEDFFFB
:10AD90008E828F8312AD7112A1E7C3E098A3E09970
:10ADA0004004E84970047901807AEE2405F50CEF3F
:10ADB0003400F50DEE2404F50AEF3400F50B850A96
:10ADC00082F58312AE271219C7780C1219C77C02BC
:10ADD0007D007A227B9012091A7404121773E970AD
:10ADE000047910803FE4F50E780E1219C7850A82A7
:10ADF000850B83E0F50A750B00780A1219C7780CE9
:10AE00001219C785088285098312ABCB12ABE412F5
:10AE10000AE274061217738B09EA45097004790A6D
:10AE20008002790002AD82E0F50E750F00780E22E7
:10AE300074F41217B48A088B09ECFEEDFF7C007DD8
:10AE40000012ABE4120AE88A828B83E582458370A4
:10AE50000479018010EEFCEFFDA3A3A3E0F9AA089A
:10AE6000AB09120AD602A34902A9E874F61217B474
:10AE7000ECFEEDFF120B4E8A088B09A808A909E821
:10AE800049602BEE4F60098E828F83E8F0A3E9F0D2
:10AE900088828983A3A3E0F874FE68700479178020
:10AEA0000F74FF68700479008006791680027902B9
:10AEB00002AC8A74F61217B47508009004DBE06ADD
:10AEC0007003A3E06B7016750900740278081217FE
:10AED0004A74DB2508FA74043509FB8013750801F0
:10AEE0009004DFE06A7003A3E06B60DB7A007B0014
:10AEF00002AC8A74F41217B4EA4B604BEA2402F5F0
:10AF000008EB12A1EDE0F874FF68603B74FE686026
:10AF100036EA2403FEEB3400FFE4F50AF50B780A69
:10AF20001219C77D1E7C178A828B8312AD77E0F9D8
:10AF3000120B7E740212177385088285098374FED2
:10AF4000F08E828F8304F002A34974F01217B48A42
:10AF50000A8B0B890C74FE650A700474FF650B7014
:10AF60000302B034E97030120B4E8B09EA450960D8
:10AF70000302B0347AFF7BFF120B4E8A088B09A8BC
:10AF800008A909E849700302B03488828983E50A78
:10AF9000F0A3E50B02B0337401650C701D120B4E6B
:10AFA0008A088B09A808A909E849700302B0348807
:10AFB00082898374FFF0A3F080217402650C7074A1
:10AFC0007901120E06E9706CAA0AAB0B120B4E8ABD
:10AFD000088B09A808A909E8496059E82402FEE994
:10AFE0003400FF8E828F83E0FA74FF6A6046E824A3
:10AFF00003F508E93400F50974FE6A6022E4F50EF1
:10B00000F50F780E1219C77D1E7C14AA0AAB0B85AA
:10B010000882850983E0F9120B7E7402121773EE21
:10B02000FAEFFB120B8A85088285098374FFF08E84
:10B03000828F83F002AD8274F21217B48908EAFE9F
:10B04000EBFF8C09750A1274FE6E700374FF6F704B
:10B05000189004AB12BA88607212B0D0606D7AFE9C
:10B060007BFFA9081217B2805A74FF6E700374FF39
:10B070006F70359004AB12BA88601312B0D0600EB6
:10B080007AFF7BFFA9081217B2E9F50A600CAA093A
:10B09000A9081209F2E9F50A7031E5089004ADF04B
:10B0A000E5099004AEF08023120DFA8A828B83E5C5
:10B0B0008245836016E06508700EA909EEFAEFFB81
:10B0C000120C56E9F50A8003750A03A90A02B26256
:10B0D000E0F5838882E0F8A3E0F988828983E5823D
:10B0E00045832274F21217B4890AECFEEDFF900436
:10B0F0008AE064026005E0640170047912805CEE0D
:10B100004F700479028054120DFA8A088B09EA45BF
:10B1100009700479148044E50A600B8A828B83A34A
:10B12000A3A3E0D2E1F0750C10750D00780C121994
:10B13000C7EEFCEFFDEA240DFAEB3400FB12048E9F
:10B14000740212177312B77012164BE508241DF51E
:10B1500082E50912BF0C121657790002B26274F22E
:10B160001217B48A088B09ECFEEDFF90048AE064A4
:10B1700002600EE064016009E064087009EE4F604F
:10B1800005791202B262EA45097005790202B262DB
:10B190009004A912BA886005791102B2628A828B82
:10B1A0008312B876120DFA8A0A8B0BEA450B7005EA
:10B1B000791402B2627A1F7B0012051E9004A91254
:10B1C000BF229004A912BA887005791302B2627C7A
:10B1D0001F7D0079001204A612B87012B267A31284
:10B1E000BF22750C16750D00780C1219C7E50824DE
:10B1F00002FCE5093400FD9004A9E02403FAA3E071
:10B200003400FB12048E740212177312B2677402B8
:10B21000F090048AE0A2E35004D2F08002C2F090E1
:10B2200004A9E02403F50CA3E03400F50D780C121A
:10B2300019C712B2739004B5E0FAA2F0E433F91220
:10B2400012A47402121773E9F508EE4F600BEEFCBE
:10B25000EFFDAA0AAB0B1212E0E50860031209FE2B
:10B26000A9087F060218869004A9E0F8A3E0F583F8
:10B27000888222850882850983E0FCA3E0FD227490
:10B28000F41217B474FF12175DEAFEEBFF8908127F
:10B290000DFA8B0BEA450B70047914801485188223
:10B2A000851983E508F0AC82AD83EEFAEFFB12124C
:10B2B000C874011217737F0402188674F01217B451
:10B2C00074F012175D8A0C8B0D8C0E8D0F7420128A
:10B2D00017A8E0FEA3E0FFEEFAEFFB120DFA8B09D0
:10B2E000EA4509700479128071908FB3780C1214BA
:10B2F0005F5004790280637C107D0079008518829C
:10B30000851983AA82AB831204A6851882851983C6
:10B31000E50CF0850D09E509F50874011217A8E59B
:10B3200008F0850C08850E0A850F0B74107808123A
:10B33000156E74021217A8E508F07418780C12152F
:10B340006E74031217A8E50CF0EEFCEFFD85188271
:10B35000851983AA82AB831212AA74101217737F05
:10B360000802188674F01217B48A0A8B0B890E8CA7
:10B370000C8D0D74101217A8E0F50F90048AE0648C
:10B38000026005E064017005791202B434EC450DE9
:10B390007005790202B434120DFA8A088B09AE08DE
:10B3A000AF09EE4F7005791402B434EE2421F5088C
:10B3B000EF3400F50985088212B4416003120524B8
:10B3C0007C1B7D00AA0CAB0D12049A8508828509AE
:10B3D0008312BF2212B273EC4D7004791380559022
:10B3E000048AE0A2E35037E50F6033EC2412F5083D
:10B3F000ED3400F50978081219C7EC2410F582ED38
:10B4000012BF0C1219DEEC241AF582ED12B5AAF95E
:10B41000AA0AAB0B1212E6740412177380027900A9
:10B42000EE2403F582EF12B5AAD2E2F0E50E600435
:10B43000E0D2E1F002B35F12BF00241BF582E834D2
:10B4400000F583E0FAA3E0FBEA4B2274EA1217B49A
:10B450008A0E8B0FEA450F700302B5A59004A71260
:10B46000BA88600512B26D8003900B82E0F50C90F3
:10B4700004B612BA88600F12B26DA3A312B0D560E1
:10B480000579001217B2E50E2407F50AE50F34001E
:10B49000F50BE50E2408F508E50F3400F509AA08B8
:10B4A000FB850A82850B83E0F9120956E9FB850AC0
:10B4B00082850B83F0E50E2403FEE50F3400FFE5E3
:10B4C0000E2404F512E50F3400F513E50E240EF5F5
:10B4D00010E50F3400F511E50E2414F582E50F1286
:10B4E000B5AAF51475150078141219C7E50E2412C3
:10B4F000F582E50F12BF0C1219DEE50E2410F5825D
:10B50000E50F12BF0C1219DE851082851183121906
:10B51000DE8512828513831219DEAC08AD09AA0CF0
:10B520008E828F83E0F91209E0740A1217738E82FB
:10B530008F83E070318510828511831219DE7808BF
:10B540001219C7850A82850B83E0FD7C0185128272
:10B5500085138312B876A90C120DEE7404121773BA
:10B56000E98E828F83F09004A712BA886037120A9E
:10B57000049004ADE0602E9004AEE0FA9004ADE0DB
:10B58000F91209F2E9601E8E828F83E0FB85128238
:10B5900085138312B2799004ADE0FAEBF91209E653
:10B5A0009004ADE4F07F0E02188612BD0AE022740A
:10B5B000F71217B4EAF8EBF988828983A3A3A3A34F
:10B5C000A3A3A3A3A3A31219DE88828983A3A3A3A1
:10B5D000A3A3A3A3A31219DE88828983A3A3A3A391
:10B5E000A3A312B27988828983A3A3A3A312B876F6
:10B5F00088828983A3A3A3E0F91209EC74041217CB
:10B60000737F0102188674F21217B4EAFEEBFF751D
:10B610000A00EE2403F8EF3400F9880889098882CB
:10B62000F58312B876120DFA8A828B83E582458300
:10B630006009E0F50A12B870120DF49004ADE060F4
:10B6400019650A70159004AEE0FA9004ADE0F912A5
:10B6500009F2E960249004ADE4F0E50A601B8E82F3
:10B660008F83A3A3A3A3A3E0FB12B273AA0A8E82C3
:10B670008F83A3A3E0F91209E69004A912BA8860A7
:10B68000031209FE02B26274E81217B4890B8A0E23
:10B690008B0A8C0C8D0D741A1217A8E0F516A3E016
:10B6A000F517741C1217A8E0F514A3E0F515741E25
:10B6B0001217A8E0F510A3E0F51174201217A8E006
:10B6C000F5087A137B001204B28A128B13AE12AF04
:10B6D00013EE4F700302B76B8E828F8374D012BB50
:10B6E0006D8E828F83A3A3740512BA25EE2404FA0B
:10B6F000EF3400FBE50C450D60197512067513005B
:10B7000078121219C7AC0CAD0D12048E7402121708
:10B710007380097C067D0079001204A67418121744
:10B72000A8E0F8A3E0F98E828F83A3A3A3A3A3A329
:10B73000A3A3A3A3E8F0A3E912BCFFE516F0A3E5D9
:10B7400017F0EE240E12BF09E514F0A3E515F01270
:10B75000B770E510F0A3E511F0EE241212BF09E571
:10B7600008F0EEFAEFFBA90E1204BE7F1002188655
:10B77000EE241012BD072274F21217B489098A0848
:10B78000ECFEEDFF8B0A7A067B001204B2EA4B60F6
:10B79000278A828B8374D0F0A3E509F08A828B8399
:10B7A000A3A3740612B7BBEEF0A3EF12B7BBA3A31B
:10B7B000E50AF0A9081204BE02B262F08A828B8305
:10B7C000A3A3A32274EC1217B489108A088B098CE6
:10B7D0000A8D0B74141217A812BA4974161217A8FE
:10B7E000E0F50EA3E0F50F7A0C7B001204B28A128A
:10B7F0008B13AE12AF13EE4F604DAA08AB09120DBA
:10B80000FA8A828B83E58245837003900B82E0F98C
:10B810008E828F8374D0F0A3E51012BC28740712B7
:10B82000BA2CE508F012BC30A3E50B12BC3AE50CCB
:10B83000F0A3E50D12BC3AA3A3E50EF0A3E50FF0CB
:10B84000EEFAEFFB1204BE02BA2074F61217B4EA45
:10B85000FE120E008A828B83E5824583600BEEF92F
:10B86000A312B876120C56800279127F0202188653
:10B87000850882850983E0FAA3E0FB2274EC1217A5
:10B88000B489118A0A8B0B8C10120DFA8A0E8B0F59
:10B89000EA450F700302BA209004A912BA88700317
:10B8A00002BA207A0E7B00E0C8241912BA82600224
:10B8B0007A2912BA7D6008EA2414FAE43400FB7491
:10B8C000141217A812BA49E50C450D6008EA241BAA
:10B8D000FAEB3400FB12BF1612BA826008EA241693
:10B8E000FAEB3400FB1204B28A088B09AE08AF09E8
:10B8F000EE4F700302BA207C0E7D0079001204A680
:10B900007A267B0012092C8A088B09EA45097009FE
:10B91000850E82850F83E0F5088E828F8374D0F0C8
:10B92000A3E51112BC28740A12BA25A3E50B12BABA
:10B930002CA3E510F0EE240EF50AEF3400F50B9081
:10B9400004A9E0241912BA3E12BA886018EE24063F
:10B9500012BA511219C78C828D8312B27912048ED9
:10B9600074021217739004A9E0241D12BA3E12BA91
:10B9700088603AEE2408F8EF3400F988828983124F
:10B98000BB6B8882898312B876EA2414F50AEB34FB
:10B9900000F50B750E14750F00780E1219C78C8206
:10B9A0008D8312B27912048E7402121773E50C455E
:10B9B0000D6015EE240A12BA511219C7AC0CAD0D68
:10B9C00012048E74021217739004A9E0241BF8A3CA
:10B9D000E03400F9E8FAE9FB8A828B8312BA8860C6
:10B9E00033EE240CF8EF3400F9880C8882F58312CA
:10B9F000BB6B750A16750B00780A1219C78A828B01
:10BA00008312B279850C82898312B87612048E74FF
:10BA100002121773EEFAEFFBA9081204BE1209FE18
:10BA20007F0C02188612BA31E50AF02212BA31A34D
:10BA30002212BA3522F08E828F83A3A3A322FCA305
:10BA4000E03400FD8C828D8322E0F50CA3E0F50D3F
:10BA500022F8EF3400F988828983E50AF0A3E50B28
:10BA6000F088828983E0FAA3E0FBEA241BF50AEB65
:10BA70003400F50B750E1B750F00780E2212BF00F7
:10BA8000241DF582E812BD0AE0F8A3E0F9E8492296
:10BA9000C082C0839004A912BA88602FE0C824191C
:10BAA00012B43C600312052412B43760031205245B
:10BAB00012BF1012B43C60031205249004A912B8FE
:10BAC000761205249004A9E4F0A3F0D083D082027A
:10BAD0000135C082C0839004A712BA886010900418
:10BAE000A712B8761205249004A7E4F0A3F080DB37
:10BAF00074F01217B4890C8A0A8B0B120DFA8A089B
:10BB00008B09EA4509605E7A267B0012092C8A0EB1
:10BB10008B0FAE0EAF0FEE4F70088508828509833C
:10BB2000E0FE7A057B001204B28A088B09EA450917
:10BB300060337C057D0079001204A68508828509A2
:10BB40008374D0F0A3E50CF0850882850983A3A354
:10BB5000740EF085088285098312BB68AA08AB09B8
:10BB6000EEF91204BE02B35FA3A3A3E50AF0A3E5B6
:10BB70000BF02274EC1217B489088A0E8B0F8C0913
:10BB80008D0A74141217A8E0F50C74151217A8E0AA
:10BB9000F50B120DFA8A128B13EA4513700302BCDF
:10BBA000257A0B7B001204B28A108B11AE10AF11F4
:10BBB000EE4F60717C0B7D0079001204A67A267B23
:10BBC0000012092C8A108B11A810A911E8497008DD
:10BBD000851282851383E0F88E828F8374D0F0A360
:10BBE000E50812BC28740F12BC28A3E50EF0A3E5EB
:10BBF0000F12BA2C12BC308E828F83A3A3A3A3A3EF
:10BC0000A3A3E50C12BC3AE50BF074161217A8EECC
:10BC10002409FCEF3400FD7402121670EEFAEFFBFB
:10BC2000E8F91204BE02BA20F08E828F83A3A32209
:10BC3000A3E50912BC40E50AF02212BC40A3A322EE
:10BC400012BA35A3A3A32274EE1217B48A0A8B0B7F
:10BC5000890E120DFA8A0C8B0DEA450D700302BC99
:10BC6000FA7A0D7B001204B28A088B09AE08AF097C
:10BC7000EE4F700302BCFA7A267B0012092C8A0868
:10BC80008B09EA45097009850C82850D83E0F5086A
:10BC90008E828F8374D0F0A3E412BC28740BF075ED
:10BCA000100675110078101219C7E50C2405FCE583
:10BCB0000D3400FDEE2403FAEF3400FB12048E7401
:10BCC000021217738E828F83A3A3A3A3A3A312BB15
:10BCD00068EE240B12BF09E50EA2E0500474018047
:10BCE00001E412BCFFE50EA2E1500474018001E4FE
:10BCF000F0EEFAEFFBA9081204BE7F0A021886F0E4
:10BD0000EE240C12BD0722F582EF3400F583227475
:10BD1000E81217B489108A0F8C088D098B0EAA08B7
:10BD2000AB09120DFA8A0A8B0B74181217A812BAF3
:10BD300049741A1217A8E0F514A3E0F515741C1243
:10BD400017A8E0F516A3E0F517741E1217A8E0FE79
:10BD5000A3E0FFEA450B700302BE32E51060030268
:10BD6000BE32EA2403F582EB12B5AAD2E4F0E50E66
:10BD7000A2E2E05004D2E18002C2E1F0E50C450D00
:10BD80007010E5144515700AE51645177004EE4F5E
:10BD9000606BE0D2E2F0EE4F603512B77012164BD6
:10BDA000E50A241DF582E50B12BF0C121657751219
:10BDB0001075130078121219C7EEFCEFFDE50A2486
:10BDC0000DFAE50B3400FB12048E7402121773E5B2
:10BDD0000A2421F50AE50B3400F50BE50C450D604E
:10BDE00021E50F701D850A82850B8312B443600321
:10BDF0001205247C1B7D00AA0CAB0D8027E0C2E25B
:10BE0000802FE5144515602A7401650F7024850A9A
:10BE100082850B8312B44360031205247C1B7D00D2
:10BE2000AA14AB1512049A850A82850B83EAF0A343
:10BE3000EBF09004A912BA88700302BEFDE50C4530
:10BE40000D6039E0C8241912BA82700F7A1B7B008A
:10BE500012051E12BF00241912BF1C12BF002419A4
:10BE600012B43C6017750A1B750B00780A1219C7CB
:10BE7000AC0CAD0D12048E7402121773E516451743
:10BE8000603112BF1612BA82700D7A167B0012054D
:10BE90001E12BF1612BF1C12B4376017750A167532
:10BEA0000B00780A1219C7AC16AD1712048E740273
:10BEB000121773EE4F603112BA7D700D7A147B0049
:10BEC00012051E12BF1012BF1C12BF1012B43C602C
:10BED00017750A14750B00780A1219C7EEFCEFFDEE
:10BEE00012048E740212177378141219C7AC0EAABA
:10BEF00008AB09A9101209F8740212177302B76B84
:10BF00009004A9E0F8A3E0C822F582EF12BD0A224E
:10BF100012BF00241D2212BF00241B22F582E8124A
:10BF2000BD0AEAF0A3EBF02274EE1217B4890B8A73
:10BF30000C8C0E8D0F750A0012C029600579110254
:10BF4000C00B74121217A8E0F508A3E0F509E50884
:10BF50004509603C7A217B0012092C8A108B11A8BC
:10BF600010A911E5082415FEE5093400FF8E828F23
:10BF700083E0C398E49940187A227B0012092C8A46
:10BF8000108E828F83E0FAC3E5109AEB9400500480
:10BF9000790280777A637B0012051E90093CEAF0F3
:10BFA000A3EBF012C02970047913805F7C637D00DD
:10BFB00079001204A612C017E4F090093C12C5DB08
:10BFC000E50BF012C017A3E50CF090093C12C72B4B
:10BFD000E50EF0A3E50FF012CAB3E508F0A3E509FA
:10BFE000F012CC49241812C010E4F0A3F012CAB920
:10BFF000E4F0E50B60061212ECE9F50A12C01774C2
:10C0000001F0E50A6003121322A90A7F0A021886CA
:10C01000F582E812CACA2212C01B2290093C12C043
:10C02000222212C5DFA322E9FE90093C12C47CE85B
:10C03000492274F61217B47E0012C0296019E0C8B4
:10C04000241AF582E812C42F740268600F74036822
:10C05000600A7404686005791202C0FD12C10E6C9A
:10C060007003A3E06D6005790202C0FD7508108EB3
:10C070000978081219C7EAFCEB12C10012048E7489
:10C0800002121773791090093CE0242BFAA3E034D4
:10C0900000FB12127490093CE0241BF508A3E03465
:10C0A00000F50978081219C712C80A12C100121245
:10C0B000DA740212177390093CE0240112CAA8E056
:10C0C000FA90093CE0FBA3E0F5838B82E0600D74FD
:10C0D000036A7027888289837402801974046A70E5
:10C0E00009888289837402F0801174036A700C8855
:10C0F0008289837405F01212F2E9FEEEF902CB7028
:10C10000FD90093CE02407FAA3E03400FB229009EB
:10C110003CE0F8A312CD8DE022C082C08390093E9E
:10C1200002C48274F71217B412C027601312C1142C
:10C130006A7003A3E06B700874016E70031213221F
:10C140007F01021886C082C083791712132802C4A7
:10C150008774F41217B474ED12175DEAF8EBF985E1
:10C160001882851983E4F088828983A3A3A3A3A3FB
:10C17000A312C6CD8A828B83E0F50AE82402F8E98F
:10C180003400F9E8FEE9FFE50A1460331460301466
:10C19000604B14607214607D14700302C22314702B
:10C1A0000302C23114700302C23F14700302C24D75
:10C1B00014700302C25B14700302C26902C2787475
:10C1C000011217A8AC82AD83121388E9F8741268C3
:10C1D0007019851882851983740602C28074011251
:10C1E00017A8AC82AD83121394E9F8E8600302C289
:10C1F000C8750B0712C6C9120DFAEA4B600302C2DA
:10C200008375080802C2BF74011217A8AC82AD83FF
:10C210001213A080D474011217A8AC82AD8312133C
:10C22000AC80C674011217A8AC82AD831213B8801B
:10C23000B874011217A8AC82AD831213C480AA741B
:10C24000011217A8AC82AD831213D6809C74011220
:10C2500017A8AC82AD831213DC808E74011217A86C
:10C26000AC82AD831213E8808074011217A8AC82EF
:10C27000AD831213F402C1E985188285198374070E
:10C28000F0804E90048AE0A2E350059009408003BC
:10C2900090093E12C02C602412C785F8A3E0F989EA
:10C2A00009E84509601674011217A8AC82AD83A98C
:10C2B0000A88828509831217B2E9F50B850B088578
:10C2C0001882851983E508F0851882851983E06056
:10C2D0000CAC82AD8312C6C91212C8800312125070
:10C2E00074131217737F0402188674F61217B4ECD5
:10C2F000FEEDFF7508A675091378081219C77902B3
:10C300001213FA7402121773E9F5088E828F83E014
:10C31000F9121328A90802CB7074F41217B4EAFEBC
:10C32000EBFF890812C029700302C40512C1146E04
:10C330007003A3E06F600302C40590093CE0240190
:10C3400008A3E03400F9E8FAE9FB8A828B83E0F87D
:10C35000740668600302C3F212C5D3607C90093D85
:10C3600012CD8712C47C90093CE0FCA3E0CC2418D9
:10C37000F582EC12CCBCFCA3E0FDE82413F582E9C5
:10C3800012C42FA2E050168C828D83A3A3A3A3A373
:10C39000E0A2E050088A828B8374078034E854025C
:10C3A00060168C828D83A3A3A3A3A3E0540260082C
:10C3B0008A828B8374098019E8540460178C828DFB
:10C3C00083A3A3A3A3A3E0540460098A828B83748C
:10C3D0000BF08015900940800390093E12C02C603C
:10C3E0000812C46B60031217B212C464703C790067
:10C3F000800E741168700EE5086003750832A90894
:10C400001213288025E5087018EEFAEFFB120DFADA
:10C410008A828B83E58245836007A3A3A3E0D2E4ED
:10C42000F0EEFAEFFBA908120A0A790102C2E5123E
:10C43000CACAE0F822C082C08312C029602412C791
:10C4400085700590093E800390094012C02C600859
:10C4500012C46B60031217B212C464700579001223
:10C460001328802312C01BE064122212C6C5A3A3A6
:10C4700012C47C88828983E582458322E0F8A3E0A8
:10C48000F922EAF0A3EBF0D083D08202013574E800
:10C490001217B474E912175D851882851983EAF0C2
:10C4A000A3EBF08C168D17742F1217A8E0F514A3C8
:10C4B000E0F51512C0297005791202C5C912C78AA4
:10C4C000120DFA8A088B09AE08AF09EE4F70057994
:10C4D0001402C5C974021217A8AA82AB83121334BE
:10C4E000EE2405F512EF3400F513EE2404F510EFF9
:10C4F0003400F51112C5D3603274021217A8858278
:10C500000C85830D12C5E8FEA3E0FF12097AE9F558
:10C510000E79001209808A0A8B0B8510828511839F
:10C52000E0F50F851208851309803012C5E8F50C77
:10C53000A3E0F50D74021217A8AE82AF8312097A38
:10C54000E9F50F79001209808A088B098510828528
:10C550001183E0F50E85120A85130B74101217A8CB
:10C56000AC82AD83EEFAEFFB12137C74091217A8AC
:10C57000AC82AD83AA0CAB0D12137678141219C7D6
:10C5800078081219C7E50FF50878081219CB780A50
:10C590001219C774101217A88582088583097808B4
:10C5A0001219C774191217A885820885830978089B
:10C5B0001219C7A90EAC16AD17740B1217A812C624
:10C5C000CD121262740B12177374171217737F1047
:10C5D00002188690093C12C5DBE02212C5DF22E07A
:10C5E000F8A3E0F58388822290093DE0C824181260
:10C5F000CAC7E02274F61217B474F712175DEAFE88
:10C60000EBFF8C088D0990093E12C02C700302C606
:10C61000C012C6C512C02C700302C6C08C828D83A6
:10C62000E0C0E074021217A8D0E0F08C828D83A3E2
:10C63000E0C0E074031217A8D0E0F08C828D83A3D1
:10C64000A3E0F974041217A8AA82AB8312128085A2
:10C650000882850983A3A3A3E0C0E074061217A88B
:10C66000D0E0F0850882850983A3A3A3A3C082C07C
:10C670008374071217A8AC82AD83D083D082740272
:10C6800012167074021217A8AC82AD837901EEFA0B
:10C69000EFFB90093E12C5D6F8A312C6C51217B219
:10C6A000E9851882851983F0601674011217A8E9CC
:10C6B000F0AC82AD838E828F83A312C6CD1212C8D6
:10C6C000740902CB6D12C5E2228E828F83E0FAA339
:10C6D000E0FB2274F21217B48908740E1217A8E056
:10C6E000F50AA3E0F50B74101217A8E0F50CA3E00F
:10C6F000F50D90094012C02C602A90094012C72BFA
:10C70000A3E0FEA3E0FFEE4F601A780C1219C77881
:10C710000A1219C7A9088E828F831217B2740412E5
:10C720001773800279027F0602188612C796227458
:10C73000F61217B474F912175D12C029603D8518FE
:10C7400082851983AA82AB8312133412C78A12C757
:10C75000826008750876750913800675087C75096E
:10C760001378081219C774021217A8AC82AD837926
:10C77000071213FA74021217738002790174070208
:10C78000CB6D90093D12C6C5E02212C793E0FAA313
:10C79000E0FB2290093C12C022A3A32274F61217D8
:10C7A000B474F012175D7508107509007808121935
:10C7B000C790093CE0241BFCA3E03400FD74021286
:10C7C00017A8AA82AB8312048E740212177375081D
:10C7D0008E75091302CB5074F61217B474F0121749
:10C7E0005D75081075090078081219C712C80AFD8E
:10C7F00074021217A8AA82AB8312048E7402121755
:10C800007375089A75091302CB5090093CE0242BEC
:10C81000FCA3E034002274F01217B48A088B097567
:10C820000A007A077B0012051E90093CE0241812CA
:10C83000CAA8EAF0A3EBF088828983E0FA4B700380
:10C8400002CA7A12CAB3E0FEA3E0FF750C07750DA9
:10C8500000780C1219C7AC08AD0912048E740212CC
:10C86000177312C5D3600302C9EEEE2413FCEF3434
:10C8700000FD12C5E82405F50CA3E03400F50D8C8D
:10C88000828D8312C47C850C82850D83E0A2E092A8
:10C89000F0E8A2E020F001B35007A2E0E433FA8010
:10C8A000027A00E854FE4AF88C828D8312CA96C33D
:10C8B00013A2E092F0E8C313A2E020F001B35012FB
:10C8C000E854026004D2F08002C2F0A2F0E433FA2D
:10C8D00080027A00E854FDF8EAC333FAE433FBE857
:10C8E0004AF8E94B12CAA2543FA2E092F0E81313AF
:10C8F000543FA2E020F001B35013E854046004D286
:10C90000F08002C2F0A2F0E433F50E8003750E0051
:10C91000750F00E854FBFAE9FB7402780E12174A0F
:10C92000EA450EF8EB450F12CAA213541FA2E0927B
:10C93000F0E8131313541FA2E020F001B35013E8E2
:10C9400054086004D2F08002C2F0A2F0E433F50E85
:10C950008003750E00750F00E854F7FAE9FB7403C5
:10C96000780E12174A12CA84540FA2E092F0E8C45B
:10C97000540FA2E020F001B35013E854106004D229
:10C98000F08002C2F0A2F0E433F50E8003750E00D1
:10C99000750F00E854EFFAE9FB7404780E12174A99
:10C9A00012CA84135407A2E092F0E8C4135407A2F9
:10C9B000E020F001B35013E854206004D2F080026C
:10C9C000C2F0A2F0E433F50C8003750C00750D0085
:10C9D000E854DFFAE9FB7405780C12174AEA450CB3
:10C9E000F8EB450DF98C828D83E8F0A3E9F085081A
:10C9F00082850983A3E0600F8E828F83A3E06007A6
:10CA000012CAB97405806B850882850983A3A3E0E7
:10CA100054047014EE2412F582EF12CCBCA2E24052
:10CA20000712CAB97401804A12C5D38E828F8360FF
:10CA30000CE0F8850882850983E0F9800AE0F98531
:10CA40000882850983E0F8E8C394055028E9C39477
:10CA50000550228808E975F005A4F8A9F0744E285D
:10CA6000F8748E39F9E8250812CCB9C0E012CAB9B9
:10CA7000D0E0F08008750A188003750A13A90A7FB0
:10CA800008021886EA450EF8EB450F12CA90C42238
:10CA9000F98C828D83E8F0A3E9F0850C82850D8303
:10CAA000E02212CA90131322F8A3E03400F988821E
:10CAB00089832212C793A3A32290093CE0F8A3E044
:10CAC000C8241A12CAC722F582E83400F5832274FA
:10CAD000F61217B47508B275091378081219C779D8
:10CAE000111213FA740202CB6D74F61217B474EEBD
:10CAF00012175DEAFEEBFF741C1217A812C6CD8553
:10CB00001882851983ECF0A3EDF07508087509000B
:10CB100078081219C7EAFCEBFD74041217A8AA8260
:10CB2000AB8312048E74021217737508BE75091355
:10CB300078081219C774021217A8AC82AD83790B5A
:10CB4000EEFAEFFB1213FA74021217737412801DBF
:10CB500078081219C774021217A8AC82AD83791134
:10CB600012C78A1213FA7402121773741012177311
:10CB70007F0202188674F61217B47508CA75091375
:10CB800002CADA74F41217B474F912175DEAFEEBF4
:10CB9000FF851882851983E9F0750A06750B007800
:10CBA0000A1219C774031217A8AA82AB8312048E43
:10CBB0007402121773750AD0750B13780A1219C70D
:10CBC00074021217A8AC82AD837908EEFAEFFB125B
:10CBD00013FA7402121773740702C2E274F6121782
:10CBE000B47508E275091302CADAC082C08312C0A4
:10CBF000296050E0C8241812CC5260031205241298
:10CC0000CC49245B12CC52600312052412CC492477
:10CC10005D12CC52600312052412CC49245F12CC61
:10CC200052600312052412CC49246112CC526003D5
:10CC300012052490093C12C6CD12052490093CE44B
:10CC4000F0A3F012125602C48790093CE0F8A3E06A
:10CC5000C82212CAC7E0FAA3E0FBEA4B2274F7121B
:10CC600017B412C027604FE0C8246112C010121917
:10CC7000DE12CC49245F12C0101219DE12CC4924F6
:10CC80005D12C0101219DE12CC49245B12C01012C2
:10CC900019DE12CC492417F582E812CCBCFB12C174
:10CCA0000EFCA3E0FD12C782FAEEF9120A1C74080A
:10CCB00012177312132202C140F582E912CACAE0A8
:10CCC00022C082C083791090093C12CC5560399003
:10CCD000093CE0F8A312C5EBFAA3E0FBEAFCEBFD8C
:10CCE000EC4D602412CAB312CC55601CEA2415F531
:10CCF00082EB12C42F8C828D83A3A3A3A3E0FAC37B
:10CD0000985003EA8001E8F902C48774F61217B458
:10CD1000EAFEEBFF12C029606212CD8712C02C60C0
:10CD20005A8808890988828983E08E828F83F088F7
:10CD3000828983A3E08E828F83A3F0E8241212CC31
:10CD4000B9F9EE2402FAEF3400FB121280E5082450
:10CD500015F582E50912CCBC8E828F83A3A3A3A311
:10CD6000F0E5082413F582E50912C013EE2405FC52
:10CD7000EF3400FD740212167080097C077D007983
:10CD8000001204A602CB7012CD8DA3A32212C5E21D
:10CD9000A3A3A3227F0102188674F41217B474FDB2
:10CDA00012175DEAFEEBFF8C088D09EE4F6005EC73
:10CDB000450970047902806079038518828519839A
:10CDC000AA82AB8312127474021217A8E0543F4473
:10CDD00040F078081219C774021217A8AC82AD830C
:10CDE000EEFAEFFB12125C7402121773E9FE702662
:10CDF000750A03750B00780A1219C774021217A876
:10CE0000AC82AD83E5082403FAE5093400FB120483
:10CE10008E7402121773EEF9740302CEC474F41206
:10CE200017B474FA12175D8A088B09ECFEEDFFEA5D
:10CE300045096004EE4F7005790202CEBF750A0302
:10CE4000750B00780A1219C7EE2403FCEF3400FDBD
:10CE500074021217A8AA82AB8312048E74021217EE
:10CE60007374021217A8E0543F4440F07403121781
:10CE7000A885820A85830B780A1219C774021217D3
:10CE8000A8AC82AD83AA08AB0912125C7402121717
:10CE900073E9702B75080375090078081219C7EE3D
:10CEA000FCEFFD74051217A8AA82AB831204A074CC
:10CEB00002121773E9640170047900800279017429
:10CEC0000602CEC41217737F0402188674E8121784
:10CED000B474E812175D8A0A8B0B89178C088D09C8
:10CEE000EA450B6005EC45097005790202D01C7417
:10CEF000042517F516FA7B0012051E8A0C8B0DAE61
:10CF00000CAF0DEE4F700302D0171209688A0C8B1C
:10CF10000D8C0E8D0F85171075110078101219C722
:10CF2000AC0AAD0BEE2404FAEF3400FB1204947447
:10CF3000021217738E828F83A3A3A3E50CF0E50D75
:10CF4000F5158E828F83A3A3F0850C10F511850E45
:10CF500012850F137410781012156EE510F5148EEB
:10CF6000828F83A3F0850C10850D11F512850F13A8
:10CF70007418781012156EE510F50A8E828F83F002
:10CF800075101078101219C7120962EAFCEBFD74D3
:10CF90000A1217A8AA82AB831204947402121773A0
:10CFA000851882851983858210858311781012195E
:10CFB000C7A916EEFCEFFD740A1217A8AA82AB836C
:10CFC00012128C7402121773E9F50B7041850882F6
:10CFD000850983E50CF0A3E51512D021E51412D0E4
:10CFE00021A3E50AF0750C08750D00780C1219C71D
:10CFF00074021217A8AC82AD83E5082404FAE5098F
:10D000003400FB120494740212177312096EEEFAC4
:10D01000EFFB1205248003750B13A90B741802D6BD
:10D0200026F0850882850983A3A32274E81217B429
:10D0300074DD12175D74011217A8EAF0A3EB12DA7F
:10D04000108C168D17EC4517700302D0F6743C1245
:10D0500017A812D244700302D0F674011217A81256
:10D06000D326120DFA8A148B15EA4515700579142A
:10D0700002D23F850882850983E0F510E4F511F5B9
:10D0800012F513A3E0F50CE4F50DF50EF50F740899
:10D09000780C1215877810790C1215A685088285F0
:10D0A0000983A3A3E0F50CE4F50D7410780C1215B8
:10D0B000877810790C1215A6850882850983A3A3A9
:10D0C000A3E0F50CE4F50E7418780C1215877810AF
:10D0D000790C1215A6EA241DF582EB12DB67780C99
:10D0E00012162D7810790C12143F400F908FAF78E4
:10D0F0000C12142A6005790202D23F851882851924
:10D1000083E060118A828B83A3A3A3E0A2E14005A0
:10D11000790102D23F7C087D00790074031217A8C0
:10D12000AA82AB831204A6743B1217A8E0F50E7412
:10D1300004250EF50AFA7B0012051E8A0C8B0DAE33
:10D140000CAF0DEE4F7005791302D23F750F0078CA
:10D150000E1219C7AC16AD17EE2404FAEF3400FB1B
:10D160001204947402121773750C04750D00780C78
:10D170001219C7AC08AD09EEFAEFFB120494740261
:10D18000121773750C10780C1219C7E514240DFCD6
:10D19000E5153400FD74151217A8AA82AB8312049A
:10D1A00094740212177374031217A885820C858376
:10D1B0000D780C1219C7A90AEEFCEFFD74151217B1
:10D1C000A8AA82AB8312128C7402121773E9F50AB3
:10D1D0007064750C08750D00780C1219C77405126F
:10D1E00017A8AC82AD83740D1217A8AA82AB831264
:10D1F00004947402121773780C1219C7E5082404FA
:10D20000FCE5093400FD740D1217A8AA82AB831245
:10D2100004A07402121773E964016005750A0180A5
:10D220001578101219C374051217A812D326120903
:10D23000747404121773EEFAEFFB120524A90A7432
:10D240002302D62612D62EE50845092274F41217B9
:10D25000B4890812D384700302D321E508705C12EC
:10D26000D332E0750A08750B00780A702E1219C7C0
:10D27000EAFCEBFD90093AE02402FAA3E03400FB5B
:10D2800012048E7402121773120C9EE9700812D3E6
:10D290002C740102D31C750801801B1219C7EAFC0B
:10D2A000EBFD90093AE0240AFAA3E03400FB1204F3
:10D2B0008E740212177312D38460627A127B00128A
:10D2C00004B28A0A8B0BAE0AAF0BEE4F603F8E8220
:10D2D0008F8374C1F0A3E508F0750A10750B007810
:10D2E0000A1219C790093AE02402FCA3E03400FDB9
:10D2F000EE2402FAEF3400FB12048E74021217734C
:10D30000EEFAEFFB12D32CA3E0F91204BE90093A17
:10D3100012D32612052490093AE4F0A3F079018093
:10D3200002790002CEC7E0FAA3E0FB2290093AE0BE
:10D33000F8A3E0F58388822274F21217B47A207B76
:10D340000012092C8A088B09E4F50AF50B8B0DEA0B
:10D35000450D601678081219C37A017B00900942C6
:10D36000E0F9120560740412177302D439C082C048
:10D37000837A017B00900942E0F912056CD083D0DA
:10D380008202013590093AE0F8A3E0F9E8492274F5
:10D39000F21217B474D012175D8A0A8B0BECFEEDF3
:10D3A000FF743E1217A812D4041204A6750C10754F
:10D3B0000D00780C1219C7AC0AAD0B74021217A835
:10D3C000AA82AB831204947402121773750A037550
:10D3D0000B00780A1219C7EEFCEFFD741F1217A894
:10D3E000AA82AB8312049474021217738518828583
:10D3F0001983AA82AB83121286E9FE780A1219C732
:10D40000742F801B12D62E7C307D00790085188207
:10D41000851983AA82AB8322780A1219C774221253
:10D4200017A8AC82AD83AA08AB0912049474021247
:10D430001773EEF974301217737F0602188674E8BA
:10D440001217B474B012175DEAFEEBFF8C168D173D
:10D45000890A74681217A812D62E746A1217A8E0E7
:10D46000F50CA3E0F50D746C1217A8E0F510A3E01D
:10D47000F511746E1217A8E0F50B746F1217A8E07F
:10D48000F514A3E0F51574711217A8E0F50EA3E0EA
:10D49000F50F7C307D00790074201217A8AA82ABAA
:10D4A000831204A675121075130078121219C7EEB4
:10D4B000FCEFFD74221217A8AA82AB8312049474A5
:10D4C000021217737C107D007900851882851983FC
:10D4D000AA82AB831204A675120778121219C7AC80
:10D4E00008AD0974021217A8AA82AB8312049474BF
:10D4F0000212177375080775090078081219C7AC6E
:10D500000CAD0D74091217A8AA82AB83120494748F
:10D5100002121773E50B6009740E1217A8740180CC
:10D5200006740E1217A8E4F0E50A6009740F1217CA
:10D53000A874018006740F1217A8E4F07C107D0017
:10D540007900EC1217A8AA82AB831204A67508060C
:10D5500078081219C7AC10AD1174161217A8AA8258
:10D56000AB83120494740212177378081219C7ACB3
:10D5700014AD15741C1217A8AA82AB8312049474FC
:10D580000212177375081078081219C7AC16AD1778
:10D5900074321217A8AA82AB831204947402121771
:10D5A00073851882851983AC82AD8374301217A8F5
:10D5B000AA82AB8312126874201217A8AA82AB83C6
:10D5C000121286E9FE78081219C774421217A8AC25
:10D5D00082AD8374321217A8AA82AB8312048E74B0
:10D5E0000212177374101217A8AC82AD8374301234
:10D5F00017A8AA82AB8312126874201217A8AA82F5
:10D60000AB83121286E9FF78081219C77442121709
:10D61000A8AC82AD83AA0EAB0F1204947402121749
:10D6200073EE4FF974501217737F10021886E0F5ED
:10D6300008A3E0F5092274F71217B479108C828DD3
:10D6400083E0F88A828B83E068F0A3AA82AB838CA4
:10D65000828D83A3AC82AD8319E970E102CD94740D
:10D66000F21217B474D012175D8C0A8D0B743E122F
:10D6700017A8E0FEA3E0FF74401217A812D62E757B
:10D680000C10750D00780C1219C7EAFCEBFD740242
:10D690001217A8AA82AB831204947402121773752E
:10D6A0000C08780C1219C7AC0AAD0B74121217A82B
:10D6B000AA82AB831204947402121773750A087558
:10D6C0000B00780A1219C7EEFCEFFD741A1217A8A6
:10D6D000AA82AB8312049474021217738518828590
:10D6E0001983AA82AB83121286E9FE750A1002D44E
:10D6F0001874F41217B4EAFEEBFF890B750A008068
:10D70000181204AC12DB5EEBF0050AE50AC3950BB8
:10D71000500712DB5EEAF0050AE50AC3950B40E10B
:10D7200002CEC7C082C0838A828B83E0F902D37D98
:10D7300074F61217B48982AE82E9A2E25004D2F0E4
:10D740008002C2F08A828B83E054FCFCA3E0FDECF3
:10D750004E5403FCA2F0E433F50875090074027816
:10D760000812174AEC4508FCE9131313541FF50877
:10D770007403780812174AEC45088A828B83F0A359
:10D78000EDF07F0202188674F61217B4EA2420F531
:10D7900008EB3400F50978081219C7EA2410FCEBED
:10D7A0003400FD120E5A740212177380D574E812F9
:10D7B00017B474ED12175D74011217A8ECF0A3ED05
:10D7C00012DA108A168B177A107B0012051E8A1245
:10D7D0008B137A107B0012051E8A108B11E51245FF
:10D7E00013700302D9ECEA4511700302D9EC7810EA
:10D7F0001219C7AC12AD13AA16AB1712129274020B
:10D80000121773E9F50A600302D9F57A107B00124A
:10D81000051E8A0C8B0D7A107B0012051E8A0E8B5A
:10D820000FE50C450D700302D9CDEA450F700302D8
:10D83000D9CD851882851983E0240FF8E43400F9E6
:10D840007A107B001216CA88088909AE08AF09E071
:10D85000540FFCEE4F70067E017F008007EC7004D1
:10D86000780180027800EE14C454F0FA74011217A3
:10D87000A8E02AFAA3E03400FBE8A2E0500B780EFF
:10D880001219C7AC12AD1380538C0B7508008508B4
:10D8900082AC8274031217A8E5822CF8E583340069
:10D8A000F9ECC3950B500FEA2CF582EB12DB67E025
:10D8B00088828983800FE50B6508888289837004DC
:10D8C00074808001E412DB6C40C4780E1219C7AC7E
:10D8D00010AD1174051217A8AA82AB8312129874A6
:10D8E000021217737C107D007900AA0CAB0D120494
:10D8F000A6750800750900805874031217A8858260
:10D900001485831578141219C7E508C454F0F87407
:10D91000031217A8E028FCA3E03400FDAA0CAB0D0D
:10D920001212987402121773780C1219C774051228
:10D9300017A8AC82AD83AA16AB17120E5A74021246
:10D940001773E9F50AE5082401F508E5093400F53F
:10D9500009EE24FFF8EF34FFF9C3E50898E50999CB
:10D96000A2D265D0335004E50A608EE50A70677470
:10D97000031217A885820885830978081219C7AC95
:10D980000EAD0FAA0CAB0D12129874021217737819
:10D990000C1219C774051217A8AC82AD83AA16AB76
:10D9A00017120E5A7402121773E9F50A75080875F2
:10D9B000090078081219C7AC0CAD0D742D1217A808
:10D9C00012D32612048E74021217738009750A137B
:10D9D000E50C450D6007AA0CAB0D120524E50E45BC
:10D9E0000F6012AA0EAB0F1205248009750A13E509
:10D9F0001245136007AA12AB13120524E510451156
:10DA00006007AA10AB11120524A90A741302D626C6
:10DA1000F0E9851882851983F02274EE1217B48A12
:10DA2000088B098C0E8D0F7A107B0012051E8A0C54
:10DA30008B0D7A107B0012051E8A0A8B0BAE0AAF83
:10DA40000BE50C450D700302DAFBEE4F700302DAB2
:10DA5000FB7C107D0079001204A6780C1219C7EE29
:10DA6000FCEFFDAA08AB09120E5A7402121773E9F3
:10DA7000F50A600302DB047508C775098E850C8200
:10DA8000850D83E0A2E7400DAC0EAD0FAA0CAB0DE7
:10DA900012129E8020EEFCEFFDAA0CAB0D12129E1E
:10DAA000780E1219C7AC08AD09EEFAEFFB12129806
:10DAB000740212177374121217A8E0F510A3E0F5A0
:10DAC00011850E82850F83E0A2E7400DAC10AD11E9
:10DAD000AA0EAB0F12129E802BEEFCEFFDAA0EAB2E
:10DAE0000F12129E78101219C7AC08AD09EEFAEFAA
:10DAF000FB12129874021217738009750A13E50C51
:10DB0000450D6007AA0CAB0D120524EE4F6007EE21
:10DB1000FAEFFB120524A90A7F0A02188674F6128E
:10DB200017B4750800740A1217A8E0F8A3E0F98585
:10DB30000882AE82EC2EF582ED12DB67E0F509EA91
:10DB40002EF582EB12DB67E06509C0E0E82EF58276
:10DB5000E912DB67D0E012DB6C40D402D782850A81
:10DB600008EE2508F582EF3400F58322F00508E57C
:10DB700008C394102274F51217B475090075080FC4
:10DB8000E508F83395E0F9EA28FEEB39FF8E828F3D
:10DB900083E0C3334509C0E0EC28F582ED39F58315
:10DBA000D0E0F08E828F83E0A2E7E433F50974FFC2
:10DBB0002508F508C39400A2D265D03350C27F0374
:10DBC00002188674F01217B48908ECFEEDFF75098F
:10DBD00000898285820A750B008A0C8B0D780C12E5
:10DBE0001A0B010318FADE19DC31DC49DCFADE62BB
:10DBF000DCD1DCE3DC1DDD60DD7EDD9CDDBCDDDA5F
:10DC0000DDFADEF8DD44DE61DE76DE85DEA0DEFAFA
:10DC1000DEFADEFADEFADEBCDE74106508600302AE
:10DC2000DEF5750A10780A1219C77AFE7B0302DD49
:10DC3000B174106508600302DEF5750A10780A12E7
:10DC400019C77A0E7B0402DDB17404650860030213
:10DC5000DEF58E828F8312164B90041E1216570229
:10DC6000DF1B74016508600302DEF59009FCE0F833
:10DC70008E828F83E09009FCF0E86026E06003026A
:10DC8000DF1B9003FCE06402600DE064066008E0C6
:10DC90006404600302DF1B9003FBE0F9120A2E020A
:10DCA000DF1BE0700302DF1B9003FCE064016012E5
:10DCB000E06403600DE064056008E0640460030252
:10DCC000DF1B7A017B009003FBE0F91204E202DF24
:10DCD0001B74026508600302DEF512E7F69009FD89
:10DCE00002DE9AE9C39420400302DEF57C1F7D002A
:10DCF00079007A007B0A1204A6780A1219C7EEFC92
:10DD0000EFFD7A007B0A12048E7402121773E50885
:10DD10009009FFF07C007D0AFB7A018038E9C3940A
:10DD200020400302DEF57C1F7D0079007A297B0408
:10DD30001204A6780A1219C7EEFCEFFD7A297B04BB
:10DD400012048E7402121773E508900428F07C29DF
:10DD50007D04FB7A009003FBE0F9120A2802DF132E
:10DD600074016508600302DEF58E828F83E0F8C3DC
:10DD70009405400302DEF5E890044802DEB9740120
:10DD80006508600302DEF58E828F83E0F8C3940499
:10DD9000400302DEF5E890044902DEB97406650826
:10DDA000600302DEF5750A06780A1219C77A4A7B03
:10DDB0000412048E740212177302DF1B74016508CB
:10DDC000600302DEF58E828F83E0F8C3940840037F
:10DDD00002DEF5E890045002DEB9740165086003C4
:10DDE00002DEF58E828F83E0F8C39404400302DEE6
:10DDF000F5E890045102DEB974026508600302DEA2
:10DE0000F512E7F690045212E7DBE849700302DFEF
:10DE10001B9003FCE06405600302DF1B900452E0EA
:10DE2000F50CA3E0F50DE4F50EF50F780C1219C30F
:10DE30007A027B009003FBE0F9120560740412176C
:10DE40007302DF1B74016508600302DEF58E828FAA
:10DE500083E0F8C39402400302DEF5E890045A80A0
:10DE60005812DF36600302DEF512DF2A400302DEBD
:10DE7000F5900A21803F12DF36707A12DF2A507542
:10DE8000900A23803012E7F6740265087067C3E8D1
:10DE900094F4E99401505E90045BE8F0A3E98019E2
:10DEA00012DF367050EA24F612DF229477E9940CE0
:10DEB0005043900A25EAF0A3EBF0805F74016508F7
:10DEC00070338E828F83E06401702A7A087B009021
:10DED00003FBE0F9120572EA4B4C4D701379001206
:10DEE00007D67A047B009003FBE0F912056C802BC7
:10DEF00075091680267509188021C3EA9427EB94CA
:10DF000000501574026508700F8E828F8312E350E3
:10DF1000120926E9F5098003750902A9097F08029B
:10DF20001886F8EB34FFF9C3E822EA24FA12DF225C
:10DF3000947BE9940C228E828F83E0FAA3E0FB7439
:10DF40000265082274F41217B4ECFEEDFF750800A8
:10DF50008A0A8B0B780A121A0B00031A9DE094DFD1
:10DF60009ADFACDFBEDFCEDFE0DFE6DFECDFFBDF3A
:10DF70000AE010E016E027E02CE031E036E03BE07C
:10DF800048E04DE052E057E05CE079E07EE083E07D
:10DF90009DE093E09003FD02E096750A10750B007A
:10DFA000780A1219C77CFE7D0302E06B750A1075B2
:10DFB0000B00780A1219C77C0E7D0402E06B9004F6
:10DFC0001E12164B8E828F8312165702E0B7750A07
:10DFD00006750B00780A1219C77C227D0402E06BDB
:10DFE0009009FC02E0969009FD02E0869009FF127C
:10DFF000E0BB1219C77C007D0A807090042812E0F3
:10E00000BB1219C77C297D04806190044802E09608
:10E0100090044902E096750A06750B00780A1219F9
:10E02000C77C4A7D048044900450806A90045180EB
:10E0300065900A1F8050900452804B90045AE08EE5
:10E04000828F83F0A3E48069900A218039900A23AB
:10E05000803490045B802F900A25802A750A06750B
:10E060000B00780A1219C77C547D04EEFAEFFB12FC
:10E07000048E7402121773803E90045D8008900431
:10E080005F800390046112E7FA8E828F83E8F0A329
:10E09000E9801E9003FCE08E828F838014C3EA9493
:10E0A00027EB9400500E12092C8E828F83EAF0A386
:10E0B000EBF08003750802A908800CE0F50A750BE7
:10E0C00000780A221217737F0402188674F612175A
:10E0D000B49003FCE0703EEA4B6008900464EAF000
:10E0E000A3EBF075081E75090478081219C77508A6
:10E0F0000E75090478081219C77CFE7D037B009019
:10E1000003FDE0FA9003FBE0F91205BA740412175C
:10E11000737900800279117F02021886D083D08241
:10E12000020135C082C0839003FCE06405700F7C5F
:10E130001312E8379003FBE0F91209AA8002791262
:10E1400080DA74F71217B4E99003FBF09003FCE453
:10E15000F0900A1F74FFF0A3F0120A769003FD748A
:10E1600004F07C107D0079007AFE7B031204A67C0B
:10E17000107D0079007A0E7B041204A690041EE440
:10E18000F0A3F0A3F0A3F0900448F0900449F090BD
:10E1900004507407F0900451E4F07CFE7D037A1083
:10E1A000790212079A7C0E7D047A10790312079A7D
:10E1B0007C1E7D047A04790412079A7F0102188676
:10E1C00074F41217B474F612175DEAFEEBFF548074
:10E1D00060239003FBE0F91204CA8A088B09EA4520
:10E1E00009600A1207CAAA08AB091204B8EEFAEFCE
:10E1F000648002E344EF544060137C1E7D047A0483
:10E200007904120794EEFAEF644002E344EEA2E0D0
:10E21000400302E2C19009FCE0700302E2BB9003FC
:10E22000FCE06405700B8518828519837403F08007
:10E2300039900448E0851882851983F0900449E0FC
:10E24000C0E074011217A8D0E0F075080675090047
:10E2500078081219C77C4A7D0474041217A8AA8290
:10E26000AB8312048E7402121773900450E0C0E066
:10E2700074081217A8D0E0F0900451E0C0E07409CF
:10E280001217A8D0E0F0851882851983AA82AB8383
:10E290009003FBE0F9120A22E960209003FC740766
:10E2A000F012E840601512E7F012E7FA88828983DD
:10E2B000E5824583600579071217B2EE640102E337
:10E2C00042540260359003FCE06405702812E83780
:10E2D000120C6890045212E843601A90045212E83B
:10E2E000281219C37A027B009003FBE0F912056043
:10E2F0007404121773EE64028048EE5404600A79C5
:10E30000001207D6EE64048039EE54086039900498
:10E3100063E01460081470271207B88022900A2561
:10E320001219DE90045B1219DE7901900A2312E3C0
:10E3300050900A2112E83A1207DC7404121773EEA7
:10E340006408FAEFFB80047A007B00740A02E0C4E0
:10E35000E0FCA3E0FD2274F41217B4EA2405F8EB04
:10E360003400F98A828B83E0246F600B24EF606DA8
:10E3700024D2606402E438A3E0640E600302E4384F
:10E380008A828B83A3A3A3E064057004A3E06414D2
:10E39000600302E4388882898312E7EDA3A3A3E037
:10E3A000F99003FCE06405600302E438747F69704F
:10E3B0000302E43890046412E83AEA4B607A90046D
:10E3C0006412E7EDA3A312E83A8A828B83E58245C3
:10E3D0008360651217B280601207D0805B888289E3
:10E3E00083E0641370528A828B83A3A3A3A3A3A3A5
:10E3F000E064017002A3E07019900463E0640270AD
:10E40000117A087B009003FBE0F912056C1207B843
:10E4100080267A057B0012092C8A088B09E4F50A0C
:10E42000F50B78081219C37A087B009003FBE0F91A
:10E43000120560740412177302E0C774EC1217B46B
:10E44000EAFEEBFF8E828F83A3A3E0F8EE2403F5B0
:10E450000CEF3400F50DEE240AF50AEF3400F50B4D
:10E460008E828F83A3858208858309E8602724FE36
:10E47000700302E50914700302E56A14700302E5F3
:10E480006A14700302E5CF14700302E6E614700309
:10E4900002E758806FE0704B7CFE7D037A107902B2
:10E4A0001207947C0E7D047A107903120794750884
:10E4B0000675090078081219C7AC0CAD0D7A227BDD
:10E4C0000412048E74021217739003FC7401F07C22
:10E4D000007D0A9009FFE0FB7A019003FBE0F9124E
:10E4E0000A28E9707C12E840601A12E7F012E7FA95
:10E4F000E8FAE9FBEA4B600C9003FCE0F98A828BB6
:10E50000831217B27F0C021886E0704C850C82854E
:10E510000D83E0601D7C297D04900428E0FB7A00D7
:10E520009003FBE0F9120A28E9850882850983F047
:10E5300080269003FCE06402601E7A017B00900359
:10E54000FBE0F9120572EA4B4C4D700C7A017B002E
:10E550009003FBE0F91204E2850882850983E060FC
:10E56000A39003FC7407F002E4E5E070F474036820
:10E5700070109003FCE064057004740680E8740277
:10E5800080E49009FD12E8439009FC601FE0601EE2
:10E590009009FD12E8281219C37A017B009003FB51
:10E5A000E0F912056074041217738002E4F090031E
:10E5B000FCE064067004740580ACE06404700C90A8
:10E5C00009FC12E7E11204E202E4E574038097E03B
:10E5D000F8600302E6D3EE2404F508EF3400F509F1
:10E5E000750E06750F00780E1219C7AC08AD097AC2
:10E5F000547B0412048E7402121773850A82850BF1
:10E600008312E7FA900A1F12E7DB9003FC7405F00F
:10E6100090045212E8436025900452E0F510A3E004
:10E62000F511E4F512F51378101219C37A027B0084
:10E630009003FBE0F91205607404121773EE240CCA
:10E64000F582EF3400F58312E81CEE240EF582EF1C
:10E650003400F58312E810EE2410F582EF3400F553
:10E660008312E80490045AE06401703B7A1F7B0037
:10E6700012092C8A10EA75F0E8A4C510A8F075F00C
:10E6800003A428F875F0E8EBA428F511E4F512F5D9
:10E690001378101219C37A047B009003FBE0F9127F
:10E6A00005607404121773750E04780E1219CB8569
:10E6B0000A82850B8312E350AA08AB09850C828578
:10E6C0000D83E0F91205C674011217739009FCE47A
:10E6D00002E566743168600302E5619009FCE4F0CC
:10E6E0009003FC02E5CB1205E47C067D0079007AFC
:10E6F000547B041204A690045DE4F0A3F090045F40
:10E70000F0A3F0900461F0A3F07A04FB9003FBE027
:10E71000F912056C7A087B009003FBE0F912056C96
:10E720008E828F83A3A3A3A3A3E064089003FC704D
:10E7300004740480027403F09009FCE0600A900302
:10E74000FBE0F9120A2E800612E7E11204E2900AB9
:10E750001F74FFF0A302E5667A087B009003FBE0DC
:10E76000F912056C850882850983E0600302E504DF
:10E770008E828F83A3A3A3A3A3A312E81C8E828FF0
:10E7800083A3A3A3A3A3A3A3A312E810850A82854E
:10E790000B8312E8047A047B009003FBE0F9120576
:10E7A00072EA4B4C4D600302E50490046612E843A4
:10E7B000700302E5049004611219DE90045F12E315
:10E7C0005090045D12E83A90046612E7ED12E7ED0E
:10E7D0001217B2740212177302E504E8F0A3E9F00D
:10E7E000227401F0FA7B009003FBE0F922E0F8A329
:10E7F000E0F5838882228E828F8312E7FE22E0F882
:10E80000A3E0F92212E7FE900461E8F0A3E9F02208
:10E8100012E7FE90045FE8F0A3E9F02212E7FE9011
:10E82000045DE8F0A3E9F022E0F508A3E0F509E4CF
:10E83000F50AF50B780822900A1FE0FAA3E0FB2204
:10E8400090046412E7FEE8492274F41217B474F8D5
:10E8500012175DE9FE900A2112E7FA7583047582AA
:10E860005DC3E098A3E099403890045D12E7FA7523
:10E87000830A758223C3E098A3E099402490045F43
:10E8800012E7FA90045BE0687003A3E069701290ED
:10E89000046112E7FA900A25E0687003A3E069605A
:10E8A000797A057B0012092C8A088B09900A2112BB
:10E8B000E7FA85188285198312E7DB900A2312E7AD
:10E8C000FA74021217A812E7DB90045B12E7FA74DD
:10E8D000041217A812E7DB900A2512E7FA74061251
:10E8E00017A812E7DB9003FBE0F9851882851983EE
:10E8F000AC82AD8312E837120D40EE900463F0E471
:10E90000F50AF50B78081219C37A087B009003FB0F
:10E91000E0F91205607404121773740802E0C474FD
:10E92000F41217B4E9FE9003FCE064056005791465
:10E9300002E9B6EA24FAF8EB12E9B95077EC24FAC6
:10E94000F8ED12E9B9506D740C1217A8E0F50AA39E
:10E95000E0F50BC3E50A94F4E50B94015056740EF0
:10E960001217A8E0F508A3E0F509E50824F6F8E594
:10E970000912DF249476E9940C5039900A21EAF0C8
:10E98000A3EBF0900A23ECF0A3EDF090045BE50A12
:10E99000F0A3E50BF0900A25E508F0A3E509F0EEF9
:10E9A000F91207D67A047B009003FBE0F912056C9C
:10E9B00079008002791802E0C712DF24947AE99482
:10E9C0000C22C082C083900780E4F090077F74FF20
:10E9D000F0900798E4F090079774FFF090077CF0B0
:10E9E00090077BE4F090077AF090077DF0A3F002A7
:10E9F000F28474EC1217B490077DE0F50AA3E0F5F9
:10EA00000BE50A450B7006120EFC02ED6B850A82BF
:10EA1000850B83E0F914601814601524FE6011243E
:10EA2000C4700302EB9124C0700302EB9102ED6B02
:10EA30001210888A088B09EA240EF512EB3400F5CF
:10EA400013EA2402FEEB3400FF9005D8E0700302C5
:10EA5000EAE7120FAA12ED9EF510A3E0F511AC1033
:10EA6000FDAA08AB09121082E9F50E7402650E606A
:10EA700058850882850983E06401600302ED6BE537
:10EA800008650A7004E509650B6003120F20E50EA6
:10EA900070241211548A0C8B0D8C0E8D0F908F7B6D
:10EAA000780C1215B9908F7F780C1216078E828F12
:10EAB00083780C12163C851082851183A3A3780CF1
:10EAC00012162D908F5F02EB6512ED8D1210E28E03
:10EAD000828F83E09005D9F0790212ED7A121E85BB
:10EAE000AA10AB1102ED68EA650A7003EB650B70C2
:10EAF0000302ED688A828B83E06401600302ED6BA0
:10EB0000120F201211548A0C8B0D8C0E8D0F908FCA
:10EB1000D7780C1215B9780C1219C38E828F831214
:10EB2000164B1224C77404121773E9705B12115448
:10EB30008A0C8B0D8C0E8D0F908F7B780C1215B973
:10EB4000908F7F780C1216078E828F83780C1216A6
:10EB50003C9005ABE0640270268E828F83780C12A5
:10EB6000162D908F6B780C1215B9908F7F780C1240
:10EB70001607851282851383780C12163C8009854E
:10EB8000128285138312ED7090077C7401F002EC01
:10EB9000959005D8E0700302EC9C120FAA12ED9E2E
:10EBA000F508A3E0F5099005D9E0F875F003A4C8CD
:10EBB000AAF02AF974DB28F50A740539F50BE50A81
:10EBC0002404F50EE50B3400F50F90077BE05407A5
:10EBD000700302EC57A3E0F91210888A108B11AE73
:10EBE00010AF11AC08AD09121082E9F5107402657E
:10EBF000106064850E82850F83E0F91210DC8E822E
:10EC00008F83E064017050120F20E51070261211FE
:10EC1000548A0C8B0D8C0E8D0F908F7B780C1215F7
:10EC2000B9908F7F780C1216078E828F83A3A378FA
:10EC30000C12163C850882850983A3A37808121656
:10EC40002D908F5F78081215B9908F7F7808121673
:10EC50000712EF0202ED59E50C650A7004E50D6537
:10EC60000B6026850A82850B83A3A3A3E0600B8536
:10EC70000E82850F83E0F91210DC12ED8D1210E286
:10EC80008E828F83E09005D9F079029005D9E01249
:10EC9000ED7A121E85AA08AB0902ED6890077BE0A9
:10ECA0005407700302ED6BA3E0F91210888A088BF9
:10ECB00009AE08AF098E828F83E06401600302ED24
:10ECC0006B120F201211548A0C8B0D8C0E8D0F12AB
:10ECD000EEF5908FD7780C1215B9780C1219C38500
:10ECE0000882898312164B1224C77404121773E921
:10ECF000706C1211548A0C8B0D8C0E8D0F908F7BC3
:10ED0000780C1215B9908F7F780C1216078508823F
:10ED1000850983780C12163CEE240EF8EF3400F9C6
:10ED2000E8FAE9FB9005ABE06402701D8508828576
:10ED30000983780812162D908F6B78081215B990F8
:10ED40008F7F7808121607800C7508FF7509FF750C
:10ED50000AFF750BFF8A828B83780812163C900796
:10ED60007C7401F0EEFAEFFB12107C7F0C02188627
:10ED700074FFF0A3F0A3F0A3F022FA75F003A4CA85
:10ED8000A8F028FB74DB2AFA74053BFB22E50C246F
:10ED900004FEE50D3400FF8E828F83E0F922E9F84E
:10EDA00075F003A4C8AAF02AF974DB28F50C7405E1
:10EDB00039F50D850C82F583E02274F01217B4EA60
:10EDC000FEEBFF8E828F83A3A3A3A3A3A3E0FAA3EA
:10EDD000E0FB12113612EEF58882F58312164B1203
:10EDE000112A85088285098312164B12111E12EF13
:10EDF0000212164B1211308E828F83E06440701C19
:10EE0000EE2412F8EF3400F988828983E090606480
:10EE1000F088828983A3E09060658006906064E456
:10EE2000F0A3F090077DEEF0A3EF12F22312F6C8E4
:10EE30001217B2906054E412EF09A312EF09906127
:10EE400082E0C2E6F07591BFEE2415F8EF3400F9C8
:10EE5000880A890B8882F583E064017003121172BD
:10EE6000E5E170FC12F214E0F874FF68600288E1DA
:10EE7000850A82850B837401F09005B1E06401700E
:10EE80006F1211548A0C8B0D8C0E8D0F780C121989
:10EE9000C385088285098312164B12252374041238
:10EEA00017738A088B098C0A8D0B908F5B780C1274
:10EEB000162D7808790C12147E7403780812156EDA
:10EEC000E50824F4F508E5093401F50990074AE05E
:10EED000600312050CE4F50AF50B78081219C37AE1
:10EEE000207B009005AAE0F91205607404121773E4
:10EEF0007F08021886EE2402F8EF3400F9880889AA
:10EF00000922EE240E12F21B2212ED72A3F0A3F0DE
:10EF10002274EC1217B4EAFEEBFF8C088D09EE4F59
:10EF2000700302EFD51211548A0C8B0D8C0E8D0FCD
:10EF3000908FDB780C1215B9908F7F780C12160722
:10EF4000E5082402F508E5093400F509908F57C05B
:10EF500082C083780C1219C3850882850983121632
:10EF60004B12252374041217738A108B118C128D87
:10EF700013D083D082781012145F5059EE2402FE11
:10EF8000EF3400FF850882850983780812162D90DA
:10EF90008FEB78081215B978081219C38E828F8307
:10EFA00012164B1224C77404121773E97027908F3E
:10EFB000D3780C1215B9780C1219C38E828F831274
:10EFC000164B1224C77404121773E9700479008079
:10EFD0000679018002790202ED6B74EE1217B48992
:10EFE0000874FF6508703990077BE05407700302CE
:10EFF000F15179041210A0E9640170047904801AB7
:10F0000079011210A0E9640170047901800C790281
:10F010001210A0E96401700879021210AC02F155D7
:10F02000A9081210AC8A108B11A9081210A0E9646B
:10F030000170057509018003750900E5102402F5CA
:10F040000AE5113400F50BE50814600D14607A240C
:10F05000FE700302F0E902F15179021210A0E96496
:10F0600001704979021210AC8A0C8B0DAE0CAF0DF9
:10F07000E509A2E0502F8E828F83A3A3780C12168D
:10F080002D908F93780C1215B9780C1219C3850A3C
:10F0900082850B8312164B1224C77404121773E96E
:10F0A000700302F14BEEFAEFFB02F15579041210F6
:10F0B000A0E96401601DE509A2E05006AA10AB11A9
:10F0C00080047A007B0002F15579041210A0E964F3
:10F0D0000170047904802C79011210A0E9640160A8
:10F0E00012E509A2E0506A806279011210A0E96479
:10F0F0000170047901800C79021210A0E96401709A
:10F100004479021210AC8A0C8B0DAE0CAF0DE509E0
:10F11000A2E050918E828F83A3A3780C12162D90BB
:10F120008F93780C1215B9780C1219C3850A828551
:10F130000B8312164B1224C77404121773E9600371
:10F1400002F0A58006E509A2E05006AA10AB1180E6
:10F15000047A007B007F0A02188674F41217B489BF
:10F16000087B00EB75F018A4F8A9F0747A28F50A6A
:10F17000740739F50B850A82F583A3A3A3A3A3A380
:10F18000E0707E747F28FE740739FF8E828F83A320
:10F190007401F08E828F83E508F01211548E828FF5
:10F1A00083A3A31216578E828F83A3A3A3A3A3A323
:10F1B000E4F0A3F012EF0212ED7012F2147401F0F9
:10F1C000EE241512F21B740112F223E4F0A3F09066
:10F1D000077BE04508F090077AE004F0E50A240593
:10F1E000FAE50B3400FBE06401600C748065086094
:10F1F0000674406508701890077DEAF0A3EBF08074
:10F200000E0BEBC39402500302F1637A007B007F84
:10F2100004021886EE241412F21B22F582EF340049
:10F22000F58322F0EE241612F21B22C082C0838ADC
:10F23000828B83E0F8A3E0F98A828B83E4F0A3F069
:10F2400088828983A3F088828983E0F4F890077B21
:10F25000E058F090077AE014F0700B90077DE4F02E
:10F26000A3F09005ABF0801CC082C08390077AE0C9
:10F27000600A90077DE0FAA3E0FB80047A007B003F
:10F280008002E0F9D083D082020135C082C083E9D8
:10F29000FC7B00EB75F018A4F8A9F0747A28F874D8
:10F2A0000739F988828983A3A3A3A3A3E06C700E16
:10F2B00088828983A3A3A3A3A3A3E0F980090BEB0E
:10F2C000C3940240CE790080BBC082C08390077B8C
:10F2D00080B074F71217B47E00EE75F018A4FAAB84
:10F2E000F0747A2AFA74073BFBEAFCEBFDEC240588
:10F2F000FAED3400FB8A828B83E069700F8C828D7B
:10F3000083A3A3A3A3A3A3E06401600B0EEEC394A5
:10F310000240C67A007B007F01021886C082C0834B
:10F3200090077A02F28274F21217B4EAFEEBFFEE53
:10F330002400F8EF3401F989099061D0E0888289CE
:10F3400083F09061D7E0FAEE240108EF3401F988E8
:10F350000A890B9061D512F48D9061D6E0C39A545E
:10F360007FFAEE240212F47D70149061C5E0A2E4ED
:10F37000500CE0A2E75007888289837480F0121253
:10F380000E850A82850B83E07019850C82850D83BA
:10F39000E070109061C5E0A2E45008E0A2E75003DD
:10F3A00012F49875E195780080129061D3E0C0E086
:10F3B000880AEE250A12F21BD0E0F0088E82850939
:10F3C00083E0F9E8C39940E275E1917F060218866F
:10F3D00074F21217B4EAFEEBFFEE2403F8EF3401E7
:10F3E000F9880889099061C8E088828983F0906172
:10F3F000CFE0FAEE240408EF3401F9880A890B9073
:10F4000061CD12F48D9061CEE0C39A547FFAEE2460
:10F410000512F47D70149061C5E0A2E0500CE0A2EA
:10F42000E35007888289837480F0121214850A825F
:10F43000850B83E07019850C82850D83E070109038
:10F4400061C5E0A2E05008E0A2E3500312F4981274
:10F45000121A7A0080149061CBE0C0E08A0AEE258F
:10F460000AF8EF12F552D0E0F00A85088285098388
:10F47000E0F8EAC39840DF75E18102F3CB08EF348E
:10F4800001F9880C890DEA88828983F022E0C39A09
:10F49000547F88828983F022850C82850D83748055
:10F4A000F0850A82850B83F02274F61217B49061FE
:10F4B000C6E0FCE0540FF075E191780080118808F7
:10F4C000EA2508F582EB12F21EE09061D2F008EA1C
:10F4D000240012F549F9E8C39940E3EA240212F541
:10F4E0004960049061D6F0EA240112F54960049065
:10F4F00061D5F0EC9061C6F07F0202188674F612B6
:10F5000017B49061C6E0FDE054F0F075E1817C0035
:10F5100080108C08EA2508F8EB12F552E09061CAD9
:10F52000F00CEA240312F549F8ECC39840E4EA240D
:10F530000512F54960049061CEF0EA240412F54901
:10F5400060049061CDF0ED80ABF582EB3401F58382
:10F55000E0223400F9E82480F582E912F21E22C08C
:10F5600082C083906195E0C0E0EA2486F582EB34A6
:10F5700001F583D0E0F0906196E0C0E0EA2487F5E1
:10F5800082EB3401F583D0E0F0906197E0C0E0EACF
:10F590002488F582EB3401F583D0E0F0906198E0A7
:10F5A000C0E0EA2489F582EB3401F583D0E0F00273
:10F5B000F284C082C083EA248612F549906195F0F6
:10F5C000EA248712F549906196F0EA248812F549F9
:10F5D000906197F0EA248912F549906198F002F25F
:10F5E0008474F41217B4890812F6AF1210BEEEFA42
:10F5F000EFFB1210B8750A80750B00780A1219C754
:10F600007C007D60EE2406FAEF3401FB12102874B2
:10F6100002121773EEFAEFFB1210D002F20F74F21F
:10F620001217B4898285820812F6AF1210CAEEFA58
:10F63000EFFB1210C4750C80750D00780C1219C701
:10F64000EE2406FCEF3401FD7A007B601210287472
:10F6500002121773EEFAEFFB1210D6E50875F003ED
:10F66000A4C508A8F028F50974DB2508F5827405FF
:10F670003509F58312F6C8E0648070079005AB7415
:10F6800008801E900C6312F6D112F6D1746AF0A3B2
:10F69000741012F6D774EEF0A37410F09005AB74EA
:10F6A00007F0900C7112F6E2A312F6E202F3CBA877
:10F6B00008E875F08AA4C8AAF02AF974AF28FE7485
:10F6C0000739FFEEFAEFFB22E0F8A3E0F58388822A
:10F6D0002274E8F0A37410F0A374E8F0A37410F09F
:10F6E000A322746A12F6F012F6F0F0A37410F0225E
:10F6F000F0A37410F0A3746A2274F71217B48C820A
:10F700008D8312FB188C828D83A3E08A828B8312F7
:10F71000F721E0FE8C828D8312F72AF0A3E902FC28
:10F720004FA3F08C828D83A3A322A3A312F73022D0
:10F73000A3E0F9EE8A828B83A3A32274EE1217B49E
:10F740008A088B09890A8C0E8D0F74121217A81261
:10F75000F8DE74141217A8E0F50B74151217A8E060
:10F76000FE7901120E06E96033EEF9120DB88A1027
:10F770008B11AE10AF11EE4F601D8E828F83A3A34D
:10F78000A3A3E50812FDF3E50BF090055CE004F09F
:10F79000700F7401F0800A750815806A750814806E
:10F7A00065F8EE2403FAEF3400FBE88A828B83F0DD
:10F7B000780C1219C7780E1219C78A828B83E0FC65
:10F7C000A90AAA08AB09120D7C7404121773E9F593
:10F7D00008702CEE2407F50CEF3400F50D780C12B0
:10F7E00019C7750C30750D75780C1219C7EEFCEF42
:10F7F000FD7AD07B0D12074074041217738007EE58
:10F80000FAEFFB120DBEA9087F0A02188674F012E7
:10F8100017B474FA12175D8A088B09890A8C0B7465
:10F82000161217A812F8DE7A177B00120DDC8A0E6A
:10F830008B0FAE0EAF0FEE4F700302F8CF7418129D
:10F8400017A812FC9288828983E58245836019ACEF
:10F850000CAD0DEE2404FAEF3400FB1217B28A0C43
:10F860008B0DA80CA90D8004780079008E828F83FF
:10F87000E50AF0A3E50BF0E88E828F83A3A3F0E9FD
:10F880008E828F83A3A3A3F08518828519837405C4
:10F89000F0A3E4F074021217A8EEF0A3EFF0E8244E
:10F8A00004F8E93400F974041217A8E8F0A3E9F0A9
:10F8B000851882851983AC82AD83AA08AB09120D25
:10F8C00082E9F508600CEEFAEFFB1207228003755F
:10F8D0000813A90874061217737F08021886E0F54A
:10F8E0000CA3E0F50D2274F21217B48A0A8B0BEC0C
:10F8F000FEEDFF7C047D008E828F83A3A3E0FAA33C
:10F90000E0FB1207288A0C8B0DEE2404F8EF34007C
:10F91000F98882898312FB18A38582088583098868
:10F92000828983A312F9C812F9C8A312F9D7888271
:10F930008983E02404F8C3941C400302F9C188823F
:10F94000AE8274FE650A700474FF650B70457A0917
:10F950007B001204B2EA4B60368A828B837490F08B
:10F96000A3A3A3A3740212FD5C74FEF0A30412FE11
:10F9700056A3E50CF0A3E50D12FD5CA3A3A3EEF0E6
:10F98000A3E4F0900537E0F91204BE7900803479E1
:10F99000138030780C1219C7EEFC7D007900AA0A9A
:10F9A000AB0B120C507402121773E924FE600A2488
:10F9B000FB600A24F5600A800A79148006790480C5
:10F9C0000279027F0602188612F9D7A3858208857C
:10F9D00083098E828F8322E0850882850983F02245
:10F9E00074F21217B48A088B09EA240212FAB8E4F6
:10F9F000F012F721A3A3E06402600302FAB38C8241
:10FA00008D83A3A3A3A3A3E0F50AA3E0F50BC3E5AD
:10FA10000A9404E50B9400500302FAB38C828D83A0
:10FA2000A3A3A3A3A3A3A3E0FAA3E0FB8A828B83EF
:10FA3000E0FCA3E0F9EC2400E439FD8A828B83A387
:10FA4000A3E0F50C8A828B83A3A3A3E0F9A80CECB6
:10FA50002404F50CED3400F50DE50A650C7004E5A1
:10FA60000B650D704E7407687001E96018740568C5
:10FA70007001E960107404687001E9600874066838
:10FA80007001E9702E850882850983A3A3A3A3ECE6
:10FA9000F0A3EDF0850882850983E8F0A3E9F07C06
:10FAA000FC7DFF1207288E828F83EAF0A3EBF079AA
:10FAB000008002790102F9C3FEEB3400FF8E828FD1
:10FAC000832274F41217B475080275090012FC1A27
:10FAD000A3A983EC2402FEED3400FF8C828D83E029
:10FAE000F50AA3E0F50B7401650A7002E50B700BD3
:10FAF00012FB1C12FB1775080480137402650A7050
:10FB000002E50B700912FB1C12FC36750806AA08E8
:10FB1000AB097F04021886A312FC44228E828F83D5
:10FB200012FC440AE9FB8E828F832274F61217B40A
:10FB3000740A1217A812FBBC9402E99400406712E1
:10FB4000FCAAEA2402F8EB3400F98A828B83E06491
:10FB5000017002A3E070148C828D8312FBABA3E0D2
:10FB6000FBEE88828983F0A3EB80368A828B83E068
:10FB700064027002A3E0702A8C828D83A3A3E0F557
:10FB8000088C828D83A3A3A3E0FFE5088882898384
:10FB9000F0A3EF12F72212FBAB12F72AA3A3F0A3F4
:10FBA000E9F079008002790102FBD2A3A3E0FE8C88
:10FBB000828D83A3A322E0FCA3E0FD2212FC92C36A
:10FBC000E822D083D08202013512FC48A3AA82AB7E
:10FBD00083227F02021886F0EC2402FCED3400FD43
:10FBE0002274F71217B412FC1AEC240212FC05124C
:10FBF000FC36A30AAB83EC240612FC0512FB177A31
:10FC0000087B00804B12FC0922F8ED3400F9888251
:10FC1000898312FC2E88828983228C828D8312FB39
:10FC2000C98C828D8312FC2922A312FC2E2212FC85
:10FC300048A30AAB832212FC29EC240412FC09A37A
:10FC400012FC442212FC4822E08A828B83F022F0CC
:10FC50007F0102188674F71217B474091217A812DC
:10FC6000FC927408687001E9702412FCAAEC24026A
:10FC7000FCED3400FD8C828D83E0FE12F72C12FC2B
:10FC80009812FC98A3A3F0A3E9F07900800279010F
:10FC900080BEE0F8A3E0F922F0A3E912FBD78C8242
:10FCA0008D83E0FE12F730A3A32212FCAE228C82D9
:10FCB0008D83E0FEA3E0F9EE8A828B83F0A3E9F066
:10FCC0002274F71217B474091217A812FCDD700120
:10FCD000E9700512FCE48002790102FC5012FC92EA
:10FCE0007402682212FCAE79002274F01217B489F3
:10FCF0000A8A0C8B0DECFEEDFF7A0A7B001204B22F
:10FD00008A088B09EA4509604E8A828B8374A0F0C9
:10FD1000A3E412FD5CE50CF0A3E50DF0EA2404FA7F
:10FD2000EB3400FBEE4F6019750C06750D00780C76
:10FD30001219C7EEFCEFFD12048E740212177380C5
:10FD4000097C067D0079001204A6AA08AB09A90A5D
:10FD50001204BE79008002790102F8D9F08A828B00
:10FD600083A3A32274F01217B489088A0C8B0D8C1C
:10FD7000098D0A74101217A8E0F50B7A127B001295
:10FD800004B28A0E8B0FAE0EAF0FEE4F60588E820C
:10FD90008F8374A212FDF3A3A3E50CF0A3E50D126B
:10FDA000FDE9E50B12FDE9A3E50AF0EE2406FAEF02
:10FDB0003400FB74111217A812FBB6EC4D601575D8
:10FDC0000C0C750D00780C1219C712048E740212F7
:10FDD000177380097C0C7D0079001204A6EEFAEFFF
:10FDE000FBA9081204BE02F8D9F08E828F83A3A368
:10FDF000A3A322F0A3E509F08E828F832274F4126C
:10FE000017B4890A750B00850B82AC828C087509C2
:10FE1000007403780812174A12FEADA882A983E085
:10FE2000FEA3E0FFEE4F701E8A828B83E4F0EC2489
:10FE300040FCE43400FD88828983ECF0A3ED12FEDF
:10FE400056E50AF0800D050BE50BC3940340B87A24
:10FE5000007B0002FB12F08A828B83A3A3A3A3A3DF
:10FE6000A322C082C0838A828B83A3E4F0A3F08A9A
:10FE7000828B83F002FBC274F61217B47E008E08E8
:10FE80007509007403780812174A12FEAD12FBB60A
:10FE9000EC4D600B8A828B83A3A3A3E069600B0EF9
:10FEA000EEC3940340D87A007B0002FBD274442551
:10FEB00008FA74053509FB8A828B83A32274F71232
:10FEC00017B4EA240712FAB8E0F91207468E828FB7
:10FED0008374FF02FC4F74F61217B4EAFEEBFFEED8
:10FEE0004F60558E828F83A312FC92E8496049E4EB
:10FEF000F508F50978081219C778081219CB7D138F
:10FF00007C178E828F83A3A3A3A3E0FAA3E0FB8ECA
:10FF1000828F83A3A3A3A3A3A3E0F9120DB274035A
:10FF20001217738E828F83A3A3A3A3A3A3A374FF2B
:10FF3000F0EEFAEFFB120DBE02FBD202013574F6B1
:10FF40001217B4EA2404FAEB3400FB120C4AEA4B11
:10FF500060097CFC7DFF12072880047A007B000288
:10FF6000FBD2C082C083900294E4F090028EF0A392
:10FF7000F0D083D082020135C082C083E990029420
:10FF800080EE74F61217B4E9FB909040E0F8EBC3F2
:10FF900098400479038030750801750900EB7808F2
:10FFA00012174AAC08AD09EA7011ECF4F8EDF4F957
:10FFB00090028EE058F0A3E059800990028EE04C48
:10FFC000F0A3E04DF079007F0202188674F4121756
:10FFD000B4900294E0601E90028EE0F8A3E0F9E88D
:10FFE000497012E5A8FEC2AF12057EEEA2E7A2E7B5
:0AFFF00092AF1207047F0402188686
:020000040001F9
:10000000C082C08390052E74FFF0A3F0A3F0A3F08C
:10001000A3F0A3749FF0A3E4F0A37420F090052D47
:1000200014F0D083D0820201357F0202188674EE6C
:100030001217B4890AEAFEEBFF8C088D0990094675
:10004000E06003028146E9333354FC04F50B740786
:10005000250BFA7B001204B28A0C8B0DAC0CAD0D93
:10006000EC4D70030281468C828D837401F0A37481
:10007000FFF0EC2402F8ED3400F9880C890DEC2433
:1000800004F8ED3400F9850C82850D83E8F0A3E9CE
:100090001281677404128167A37413128176E50BD1
:1000A000128176A3E50AF0750B00028130850B8280
:1000B00085820E750F00E50EC333FAE433FBEE2A9A
:1000C000F8EF3BF9881089117402780E12174AA8CC
:1000D0000EA90F851082851183E0F50EC00E1281E6
:1000E00050D0E0F0851082851183A3E0F50EC00E9C
:1000F00012814BD0E0F0E5082AFAE5093BFB8A8241
:100100008B83E0F50EC00E12814BA3D0E012850563
:10011000A3E0C0E0850C82850D83E028FAA3E039D6
:100120008A82F583A3A3A3A3A3A3A3D0E0F0050B26
:10013000E50BC3950A50030280ADECFAEDFB900984
:1001400043E0F91204BE7F0A021886128150A322EE
:10015000850C82850D83E028F50EA3E039850E829B
:10016000F583A3A3A3A32212816B22F0850C8285C1
:100170000D8312854A2212816BA3A32274EE1217FB
:10018000B48A088B09890B8C0E8D0F900945E0709D
:1001900009900947E07003028248900528E0600357
:1001A000028248898285820C750D00E92407FAE4F1
:1001B0003400FB1204B28A108B11AE10AF11EE4F57
:1001C0007003028259741865087004742065096010
:1001D0000C74176508700474206509701090094745
:1001E000E0600AF50A8E828F837492800C90094534
:1001F000E0F50A8E828F837491F0A3740E1283351A
:100200008E828F83A3A3F08E828F83128965EE2462
:1002100005F8EF3400F9E8FAE9FBEE2407F8EF12ED
:10022000851FF0780C1219C7AC0EAD0F8A828B8334
:10023000E0FAA3E0FB12048E7402121773EEFAEFD9
:10024000FBA90A1204BE8011780E1219C7AC0B79F3
:100250000E120CF8740212177302814674F612170C
:10026000B4E9FE8C088D0978081219C7EEFC79FFF5
:10027000120CF8740212177302802974F51217B465
:10028000890AEAFEEBFF900945E0603C900528E012
:1002900070367A067B001204B2EA4B603A8A828B8F
:1002A000837491F0A3740F12885FE50A1283358A74
:1002B000828B83A3A3A312893BEEF0A3EFF09009F6
:1002C00045E0F91204BE800FEEFCEFFD8908AA0894
:1002D0007B00790F120CF27F03021886128C2FFC20
:1002E000A3E0F5838C8274041282F4FCA3E0F5830E
:1002F0008C82A322128C4B2274F71217B474FC1256
:10030000175DEA851882851983128335C0E0740170
:100310001217A8D0E0F074021217A8ECF0740312C0
:1003200017A8ED128CC77A04120CFE74041217730E
:100330007F01021886F090052CE02274F21217B4A7
:1003400089098A0A8B0B8C0874072508FA74FF65E3
:10035000096004780380027802E82AFA7B0012041C
:10036000B28A0C8B0DAE0CAF0DEE4F700302845DA4
:100370008E828F837401F0A374FFF0EE2402FAEFF3
:100380003400FBEE2404F8EF12850FE50912850511
:10039000E02402F8A3E03400F9890DA90B740E12D1
:1003A00017A812876074FF650960327403250888F6
:1003B00082850D83128335C0E0128462D0E01284FE
:1003C0008AE50A12848AA3E9F085080A750B007889
:1003D0000A1219C78A828B83E0240680667402257C
:1003E000088882850D83F08C828D83E0C0E01284C2
:1003F00062D0E0F08C828D83A3E0C0E0128476D0DE
:10040000E0F08C828D83A3A3E0C0E0128476A3D0B9
:10041000E0128485240612847B128485128A33E9D3
:10042000F085080AE50A24FDF50AE434FFF50B78A7
:100430000A1219C7EC2403FCED3400FD8A828B8379
:10044000E02408FAA3E03400FB12048E74021217B1
:1004500073EEFAEFFB900943E0F91204BE7F060247
:100460001886128466228A828B83E0F8A3E0F583E3
:100470008882A3A3A322128466A322F582E8340013
:10048000F583E50A2212852BC822128538A3A3A37F
:100490002274F21217B4890A8A0BECFEEDFF74077E
:1004A000250BFA7B001204B28A088B09EA45096021
:1004B000511287ADEB34000A0AFBE5082404F8E585
:1004C0000912850FE50A128505128546A3A3E50BDF
:1004D000F06023F50C750D00780C1219C7EEFCEFD7
:1004E000FD8A828B83E02403FAA3E03400FB12042C
:1004F0008E7402121773AA08AB09900943E0F9122F
:1005000004BE02845D12850922F08A828B83221246
:10051000851F12852BF58388827404128538223456
:1005200000F98A828B83E8F0A3E92212852F22F05A
:100530008A828B831287D42212852FF5838882A327
:10054000227F1002188612854A221287D4F58388EA
:10055000822274E81217B48917EAFEEBFF8C168D1D
:100560001374181217A81287D4F974181217A8E870
:10057000F0A3E9F0741A1217A8E0F50CA3E0F50D4A
:10058000741C1217A8E0F508A3E0F509741E1217F1
:10059000A812893374201217A8E0F512900945E0DB
:1005A000700302865D7A157B001204B28A0E8B0FEF
:1005B000EA450F700302875D1287997401F0EA24FF
:1005C00008FAEB3400FBE50E2403F582E50F128AEE
:1005D00038E517701EE4F0751006F5117810121941
:1005E000C7741A1217A812876012048E74021217A9
:1005F00073800C7431F07C067D0079001204A685AE
:100600000E82850F83A3A3A3A3EEF0A3EF12876F3F
:10061000E51612876FA3E513F0E50E240EF582E5CB
:100620000F128A38128944E50E2410F582E50F1264
:100630008A38128968E50E2412F582E50F12847E4D
:10064000F0A3E50BF0E50E2414F582E50F128A38CD
:10065000E512F0AA0EAB0F900945028758900535B8
:10066000E0A2E5400302875D90052DE0A2E0400393
:1006700002875D7A1A7B001204B28A108B11EA4558
:1006800011700302875D1287ADF50EEB3400F50F94
:10069000128766850E82850F83E8F0A3E912877DB5
:1006A000740412877DA3743E1287857413128785A4
:1006B000A37401128793E517128793A3EE1287C0E4
:1006C0002406128A35EF1287C0128A33E516128784
:1006D000C02408128A35E513F075140675150078E4
:1006E000141219C7741A1217A8128760850E828512
:1006F0000F83E02409FAA3E03400FB12048E740295
:10070000121773128A28240F128A35E50CF0E50DB2
:10071000F50C128A282410128A35E50C1287C024A1
:1007200011128855F0E509F508128A28241212885A
:10073000551287C0241312847BF0E50BF50A128A48
:1007400028241412847B1287C02415128A35E512DE
:10075000F0AA10AB11900943E0F91204BE028541E2
:10076000E0FCA3E0FD22EA2404F8EB3400F922F0D7
:10077000850E82850F83A3A3A3A3A3A3221287C5FB
:10078000F583888222128789221287C9F58388829D
:10079000A3A322128789A3A3228A828B8374911236
:1007A00087A322F0A3743E128509A3A3221287B166
:1007B000228A828B837401F0A374FFF0EA24022260
:1007C0001287C5C8221287C922F0850E82850F8341
:1007D0001287D422E0F8A3E02274F41217B4EAFEE0
:1007E000EBFF8908900945E060277A067B00120438
:1007F000B2EA4B605D8A828B837491F0A374051218
:10080000885FE412850512894CE508F0900945805F
:100810003C90052EE0A2E450397A0B7B001204B222
:10082000EA4B602E1282DC7405128863740412880D
:1008300063A3E4128874EE128874A3EFF0888289AF
:1008400083128A2E2406128855F0900943E0F9128B
:1008500004BE028C1AF582E83400F583E508221202
:1008600087A72212886722128C4BFCA3E0F5838CA9
:1008700082A3A322128867A3A32274F01217B48A5A
:10088000088B09ECFEEDFF74101217A8128933745F
:10089000121217A8E0F50CA3E0F50D900945E060F1
:1008A0004590052DE0A2E2400302892E7A0C7B00E0
:1008B0001204B2EA4B6077128799740312885FA31F
:1008C000E4F01289608A828B83A3A3A312894CA3CC
:1008D000A3A3E50AF0A3E50B12893BA3A3A3128906
:1008E000419009458043900535E0A2E550409005D0
:1008F0002DE0A2E250387A117B001204B2EA4B607C
:100900002D128C1F743EF0A3740AF0A37403F0A39D
:10091000E4F0128967A3EEF0A3EFF0A3E50AF0A3D9
:10092000E50BF0128943900943E0F91204BE7F08F9
:10093000021886E0F50AA3E0F50B221287A7A3A30D
:1009400022A3A3A3E50CF0A3E50DF0221289502207
:10095000A3A3A3EEF0A3EF128509A3A3A3A3A3224D
:100960008A828B83A3A3A3A3E508F0A3E509F02261
:1009700074F41217B48908EAFEEBFF8C0990052F76
:10098000E0A2E34003028A257A0F7B001204B2EA58
:100990004B7003028A251287ADF50AEB3400F50B84
:1009A000128766850A82850B83E8F0A3E9128A3DE7
:1009B0007404128A3DA3740C128A457408128A4585
:1009C000A3E508128A53EE128A53A3EF128A592420
:1009D00006128A35E509F0740C1217A81287608593
:1009E0000A82850B83128A2E128A33EC128A5924CA
:1009F00008128A35EDF0740E1217A81287D4F98503
:100A00000A82850B83E0FCA3E0CC2409F582EC127A
:100A10008A38E8128A59240A128A35E9F090094383
:100A2000E0F91204BE028C1A850E82850F831287AC
:100A3000D4C8222407F582E83400F58322128A5EA6
:100A4000F583888222128A4922128A62F58388827B
:100A5000A3A322128A49A3A322128A5EC822128A61
:100A60006222F0850A82850B831287D42274EC12ED
:100A700017B48A0C8B0D8C0E8D0F74141217A812DC
:100A80008933850A82F583A38582108583119009B5
:100A900047E0607A7A0F7B001204B28A088B09AEB5
:100AA00008AF09EE4F7003028BC28E828F8374925F
:100AB000F0A3743EF08E828F83A3A37405F08E8220
:100AC0008F8312894175080875090078081219C7C3
:100AD000AC0EAD0FEE2405FAEF3400FB12048E7459
:100AE00002121773850A82850B83E0FA85108285CE
:100AF0001183E0F9EAF8EE240DF582EF128A38E866
:100B0000F0A3E9F0EEFAEFFB900947028BBD9005E8
:100B100035E0A2E5500890052DE0A2E44006120E53
:100B2000A2028BC27A147B001204B28A088B09EAF3
:100B300045097003028BC21287ADF8EB3400F9EA65
:100B40002404FAEB3400FB88828983EAF0A3EB12D9
:100B500082F4FEA3E0FF8E828F837404F0A3743EC0
:100B6000F0A3740DF0A37405F0128943A3AE82AF15
:100B700083750C08750D00780C1219C7AC0EAD0FFB
:100B8000EEFAEFFB12048E7402121773EE2408FEC5
:100B9000EF3400FF850A82850B83E08E828F83F01D
:100BA00085100A85110BA30EAF83850A82850B83FE
:100BB000E08E828F83F0AA08AB09900943E0F91216
:100BC00004BE7F0C02188674F41217B4EAFEEBFF21
:100BD00089088C09900947E060167A077B001204A7
:100BE000B2EA4B6035128CAFE509F09009478025D9
:100BF00090052EE0A2E750227A0B7B001204B2EAA5
:100C00004B6017128C1F7408F0A37404128CA4128A
:100C1000896A900943E0F91204BE7F040218861223
:100C20008C2FF8A3E0F9888289837404F0A3221240
:100C300087B1F8EB3400F9EA2404FCEB3400FD88BA
:100C4000828983ECF0A3ED128C4B22F08882898399
:100C5000E02274F41217B4EAFEEBFF89089009470A
:100C6000E060167A077B001204B2EA4B6033128C04
:100C7000AF7401F09009478023900533E0A2E7505C
:100C8000207A0A7B001204B2EA4B6015128C1F74A2
:100C900030F0A37403128CA4F0900943E0F912041D
:100CA000BE028C1AF0A3E508F0A3EEF0A3EF228AAF
:100CB000828B8374921287A374081285091289505B
:100CC000E508128957A322F0851882851983AC8222
:100CD000AD8322C082C08390048AE0A2E250067AEB
:100CE0007D7B0C80047A007B001212B07900D083E7
:100CF000D08202013574F21217B474E012175D8AC3
:100D0000088B09ECFEEDFF7C107D007900851882D0
:100D1000851983AA82AB831204A6742E1217A8E049
:100D2000F50AA3E0F50B90093C1292287003028D9E
:100D3000FE12921465087004A3E065096003028D39
:100D4000FE90093D12920D6003028DFE129219F879
:100D5000740668704B74101217A885820C85830D79
:100D6000780C1219C790093CE0244BF50CA3E03431
:100D700000F50D780C1219C7128F0212126E74044E
:100D8000121773E9707812132EE9F50A750B0078C3
:100D90000A1219C774121217A8AC82AD83028E72A0
:100DA00090093CE0F9A3E0C9245BF582E91297E0E1
:100DB000604C1294A412979A7411686003028E9684
:100DC000E0650A7004A3E0650B702E750C08750DC4
:100DD00000780C1219C7128EE81204A074021217C0
:100DE00073E96401701312132EE9F50A750B00788C
:100DF0000A1219C7128EF580797932121328AA08BF
:100E0000AB09120DFA8A0C8B0DA80CA90DE84970DC
:100E100003028ED5E82421F50CE93400F50D850C8C
:100E2000821297E27003028ED51294A41291ED659E
:100E30000A7004A3E0650B6003028ED5750A08757D
:100E40000B00780A1219C7128EE81204A07402125D
:100E50001773E96401707E850C82850D83E0FCA325
:100E6000E0FDEC241AF582ED1291EDF50A780A12F4
:100E700019C774021217A8AA82AB8312048E7402D7
:100E8000121773AA08AB09851882851983AC82AD45
:100E900083120CA48046E0650A7004A3E0650B6031
:100EA00003028DFE750C08750D00780C1219C7121F
:100EB0008EE81204A07402121773E9640160030241
:100EC0008DFE128EF5EC241AF582ED1291EDF50AE5
:100ED000750B008098AA08AB09120CAA790174203E
:100EE0001217737F06021886EA2412FCEB3400FD09
:100EF000EEFAEFFB2212933F245B1294BAFCA3E0BC
:100F0000FD2290093CE0242BFCA3E03400FD900975
:100F10003CE02407FAA3E03400FB2274F21217B479
:100F2000890DECFEEDFF750C008A828B83A3858210
:100F30000A85830B8E828F83A3858208858309901F
:100F4000093C129228705F7401650D7054EE240202
:100F5000FAEF3400FB12127A8E828F83A3A3A3A32D
:100F6000A374021219E28E828F83A3A3A3A3E0F5D8
:100F70000C780C1219CBE9F50C780C1219CB8508FA
:100F800082850983E0FD8E828F83E0FC850A82855D
:100F90000B83E0FAA3E0FB7900120A107404121725
:100FA0007379000291E7129214F8A3E0F9850A829E
:100FB000850B83E0687003A3E069600579080291FE
:100FC000E71292076401700579070291E7E50D14B5
:100FD000603124FE603714700302907114700302B4
:100FE00091DC14700302907A1470030290DB147089
:100FF000030290E814700302913214700302916F9F
:101000000290D5EEFAEFFB12134C0290E275080045
:10101000750A10750B00780A1219C790093CE02474
:101020003B1293DF12048E740212177390093CE096
:1010300024011291F1E0640470047403802C90097F
:101040003CE0241BF50AA3E03400F50B780A1219E2
:10105000C7128F021212DA74021217731212F2E917
:1010600060037508081293E67405F085080C029178
:10107000E5EEFAEFFB1213528068129219640C70BD
:101080005490093DE0C8245D129221700F7A1B7BB9
:101090000012051E1291FC245D12979F1297D860D2
:1010A0003475081075090078081219C7EEFCEFFDB9
:1010B00012048E740212177312132E129323245DDE
:1010C000129797129326241A129797E9F01293E633
:1010D000740D02916C750C070291E5EEFAEFFB12AC
:1010E0001358E9F50C0291E5129219640E70E6901E
:1010F000093DE0C8245F129221700F7A167B00121E
:10110000051E1291FC245F12979F129323245F12F5
:1011100097DD601775081075090078081219C7EE79
:10112000FCEFFD12048E74021217731293E6740F13
:10113000803A129219640F709C750A06750B00783C
:101140000A1219C7AC08AD09129323245F1291EA61
:1011500024101293DF12048E74021217731294ABD0
:10116000542060741294C3606F1297C2F08076901E
:10117000093DE0C8246112922170237A147B001289
:10118000051E90093CE024611291F1EAF0A3EBF016
:10119000888289831292287005750C088047129303
:1011A0002324611297DD60307508107509007808F6
:1011B0001219C7EEFCEFFD12048E7402121773129F
:1011C00093232461129797129326241012979774F1
:1011D000FFF0A3F0A3F0A3F0790080068E828F8346
:1011E000E0F9121328A90C028EE3F582E81294BDEF
:1011F00022F8A3E03400F988828983228A089009C2
:101200003CE0FAA3E0CA2290093CE0F8A3E0F583B1
:101210008882E0221297D2E02290093D1293F4E0F6
:1012200022F582E83400F583E0F8A3E0F9E84922EA
:1012300074F61217B47E001212FEE9F860030292EF
:10124000FD1212EC90093CE0F8A31297C8C82412D2
:101250001291EAA2E0501D129323241812979712BC
:101260009310E054036401700B129323241712911E
:10127000EAD2E0F012932AF8740268601D740368E1
:101280006005740468701779011297F4120A161237
:1012900093331293E67404F0806F790280EB74014B
:1012A00068600574056870611293E67402F0129329
:1012B0002A640170147C107D00790090093CE024C0
:1012C000071293DF1204A680247508108E0978088F
:1012D0001219C790093C129310A3A3A3E024021291
:1012E0008F0812048E7402121773129333791090C0
:1012F000093CE0242B1293DF121274800C741868DE
:1013000070050E0E0E80027E08EEF97F020218862E
:101310001293142212931822E0F8A3E0F583888236
:10132000A3A32290093C1293422212933F241A1243
:1013300094BA2212933F24171294BAD2E2F0229068
:10134000093CE0F8A3E0C82274F61217B474F01256
:10135000175D7E007508108E0978081219C7EAFC1F
:10136000EBFD90093CE0244B1293DF12048E7402D3
:1013700012177385188285198385820885830978F9
:10138000081219C790093CE0244B128F081212DA98
:1013900074021217737508108E0978081219C79015
:1013A000093CE0243BFCA3E03400FD74021217A8C2
:1013B000AA82AB831204A07402121773E96401704D
:1013C000121212F8E960047E08800A1293E674068D
:1013D000F080027E04EEF9741012177302930BFA78
:1013E000A3E03400FB221293EA2290093CE0F8A328
:1013F0001293F422E0F5838882A32274F61217B4C4
:10140000EAFCEBFD1297D8700302949F1297B76421
:101410000D600302949F8C828D83E0F8A3E0F912A3
:1014200094A412979AE8F0A3E9F0750808750900EA
:1014300078081219C7EC2402FCED3400FDEA2412EE
:10144000FAEB3400FB12048E74021217731294AB81
:10145000F890093CE024011293DFE85410602490D6
:10146000093CE0FCA3E0CC2418F582EC12979A1218
:1014700097ADA3A3A3A3E0541060088A828B837462
:101480000E8010E85420600E1294C360098A828B8B
:10149000837410F080057900121328790080027996
:1014A0000702930BEA2410F582EB2290093C129478
:1014B000D612934224131294BA22F582E83400F52E
:1014C00083E02212933F2418F582E83400F583125A
:1014D00094D6E0542022129318A3A3A32274F012EE
:1014E00017B4129207600302979290093D1297C8B1
:1014F000F91291FE2418F582EA1291EDFAA3E0FBAD
:1015000090093C1297ADE0F50AEA2405FEEB3400A1
:10151000FFE82413F50CE93400F50D7406650A7034
:1015200067850C82850D83E0F8A2E0500E8E828FD5
:1015300083E0A2E05005750A078067E8540260174F
:101540008E828F83E05402600E750A09120986129A
:1015500097EC1213108020E8540470030296C88E92
:10156000828F83E0540470030296C8750A0B120937
:10157000621297EC12131C7407650A6003029679D5
:101580001293E67408029711E50A24F960141470A6
:101590000302961D1460B514700302964B1460CEBE
:1015A00080D51297BC129221700F7A1B7B00120516
:1015B0001E1291FC245B12979F1297BC1291EAF5C0
:1015C00008A3E0F509E508450960AC7C107D0079C9
:1015D00000AA08AB091204A612132EAA08AB09121E
:1015E00012741204ACE5082410F582E50912979AEA
:1015F000EAF0A3EBF07908E5082412FAE5093400D3
:10160000FB12127412132EE508241AF582E5091252
:10161000979AE9F01297F01213040295771297BC8B
:101620001297DD605AEA2412F508EB3400F50978C8
:10163000081219C71294A41291EDFCA3E0FD1297B1
:10164000F412130A74021217738034750901120917
:101650007AE9F5087401650870057509008003755D
:101660000800A9091209808A0A8B0BAC0AAD0BA9E4
:10167000081297F412131680347408650A701B85DB
:101680000C82850D83E0540260238E828F83E054A8
:1016900002601A1293E6740980777409650A70076C
:1016A0001293E6740A806A740A650A701B850C82BC
:1016B000850D83E0540460108E828F83E0540460B3
:1016C000071293E6740B8049850C82850D83E0F840
:1016D000540860108E828F83E0540860071293E6EE
:1016E000740C802DE8541060108E828F83E05410AB
:1016F00060071293E6740E8018E85420600E8E8204
:101700008F83E0542060051297C280051293E6741F
:1017100012F01297B7F87407686014740868600FC5
:10172000740968600A740A686005740B6870631253
:1017300097F4120DFA8A088B09A808A909E84960EC
:101740002FE8240BF582E91291EDF8A3E0F9880C5B
:10175000890DE4F50EF50FE9C313F9E813F88808CD
:101760008909E4F50AF50B780C79081215A6800CA6
:10177000750CF4750D01750E00750F00780C1219BB
:10178000C37A027B00900942E0F9120560740412EA
:1017900017737F08021886F582E83400F58322F576
:1017A00082EA3400F583E508F0A3EBF022E0FCA325
:1017B000E0F5838C82A3221293EAE02212933F2465
:1017C0005B221293EA7410221297D2A3A3E0F8A32B
:1017D000E0221293F4A3A32212933F245DF582E842
:1017E0003400F583E0FAA3E0FBEA4B228A088B0978
:1017F000AC08AD0990093C129314A3E0FAA3E0FBF6
:101800002274F21217B4ECFEEDFF8A828B83A3A33D
:10181000A3A3A3A3A3A3E0F50A70030298FEEA24FE
:1018200006F8EB3400F9880889098882F583E0FC22
:10183000A3E0FD8C828D83E0F50BA2E7504CE50A16
:10184000C3940D50030298FE74F4250AF50AF50CB2
:10185000EC250CF50CED3400F50D780C1219C7E5EC
:101860000AF50C780C1219CB79018A828B83A3A319
:10187000129CDB1212447403121773E98E828F8359
:10188000700474018009740280058E828F83E4F0F5
:10189000E50BA2E65004D2F08002C2F0A2F0E433DD
:1018A000A3F0743F550B8E828F83A3A3F0EE240325
:1018B000F8EF3400F9E50A24FFFAE434FFFB8882EC
:1018C0008983EAF0A3EBF0EE2405FAEF3400FB88FD
:1018D000828983129F33496019850882850983E0D4
:1018E0002401F8A3E03400F98A828B83E8F0A3E9AD
:1018F00080078A828B83E4F0A3F07900800279016B
:101900007F0602188674F71217B48C828D83129B9F
:10191000D28C828D83A3A882A983129BDB8C828DBB
:1019200083A3A312992D7A047B00029989A3129EA6
:101930004722C082C083129E2E7A02802574F7123D
:1019400017B474091217A8129CDB740B1217A81293
:101950009CD47001EB7005129CE18002790480290F
:1019600080D07B00D083D08202013574F71217B487
:1019700074091217A8129E6F7001E9700A740B1295
:1019800017A8129E76800279047F0102188674EEF1
:101990001217B4EAFEEBFF8C0C8D0D75080175096A
:1019A000008C828D83A385820E85830F129A947595
:1019B0000A00803BE51075F012A4F510E5F0F51172
:1019C000129A5B75101075110078101219C7129ACF
:1019D0004F12048E7402121773EE2410FEEF3400BF
:1019E000FFE5082412F508E5093400F509050A8524
:1019F0000C82850D83E0F8E50AC398504B8E828FE8
:101A000083A3AA82AB83850A828582107511008523
:101A10000E82850F83E06401709A740278101217A9
:101A20004A129A5B75100275110078101219C712CC
:101A30009A4F12048E7402121773EE2402FEEF34D2
:101A400000FFE5082404809DAA08AB0902A113EC5D
:101A50002404FCED3400FD0AEFFB22E50C2510FC0C
:101A6000E50D3511FD129A77129A8DEAFEEBFF888B
:101A7000828983129A8422EC2402F8ED3400F988DA
:101A800082898322A3129A8DA30EAF8322E08E82D5
:101A90008F83F022129A8DA3AE82AF832274F2124A
:101AA00017B4ECFEEDFF740E1217A8E0F50AA3E0E0
:101AB000F50BC3E50A9406E50B94005003029B67FF
:101AC00074101217A8129B6C8E828F83E0FAA3E029
:101AD000F9EA850882850983F0A3E9F08E828F8375
:101AE000A3A3E0FA8E828F83A3A3A3E0F8E4C8F94E
:101AF000EA850882850983A3A3F0A3E912A22AA399
:101B0000A3A37402F0F50C880D780C1219C7EE240B
:101B100004FCEF3400FDE5082405FAE5093400FB78
:101B200012048E7402121773E50A24FAF50A850866
:101B300082850983A3A3A3A3A3A3A3F0C3941150F5
:101B400026750B00780A1219C7EE2406FCEF340044
:101B5000FDE5082408FAE5093400FB12048E74023E
:101B600012177379008002790402990012A01AF505
:101B7000092274F51217B4750A008035850A0875B4
:101B800009007402780812174AEC2508F8ED3509A7
:101B9000F988828983A3AE82AF83129BD28E828F13
:101BA00083129EB1E82403F8E9129A7C129BDB05AC
:101BB0000A8C828D83E0F508E50AC3950840BD755F
:101BC00009007402780812174AAA08AB097F0302B9
:101BD000188612992EA3AA82AB8322129D66A30AAD
:101BE000AB832274101217737F0402188674F612E6
:101BF00017B4740C1217A8129CDBEA2404F8EB3417
:101C000000F9740A1217A8E0FEA3E0FF74066E70D4
:101C100001EF7046888289837402F08C828D831272
:101C20009C6E8A828B83F0A3EF129FBAFEE4CEFFF4
:101C3000E5088A828B83A3A3F0A3EFF088828983CF
:101C4000E0F5088E0978081219C7129FA912048EB0
:101C500074021217737900029D4174146E7001EFC3
