:020000040000FA
:0600000002011D0220C4F4
:03002B00021B3C79
:0300530002213A4D
:03006B00021B0A6B
:10008300021F73E5C754F84401F5C7790122000044
:100093000080FB120086B90003020107E47921788E
:1000A30008B800028004F709D8FCE479297802B87B
:1000B30000028004F709D8FCE490028178C779072D
:1000C3008002F0A3D8FCD9FA781A90014D7A01BACC
:1000D30000028007E493A3F608DAF9900947AA829D
:1000E300AB8390014E783B79048015E493A3AC82F3
:1000F300AD838A828B83F0A3AA82AB838C828D83A8
:10010300D8E9D9E77582E475839D740312012F75CD
:100113008291758300740012012F75D00075813FA1
:10012300751881751902759F00020096C09FF59F8F
:10013300E473D09F22D083D082C09FE493C0E07445
:100143000193C0E0740293F59F2201FFFF020202B4
:10015300020202020202010D0000001001021E90C1
:10016300010000EF8F021A90010000490902369046
:100173000100009E02021A900100004A0902349015
:10018300010000138F021A900100004B0902329004
:10019300010000F78E021A900100004C0902309012
:1001A300010000918E021A900100004D09022E9069
:1001B300010000B58E021A900100004E09022C9036
:1001C300010000A38E021A900100004F09022A9039
:1001D3000100007F8E021A9001000050090228904E
:1001E300010000058F021A900100005109022690B8
:1001F300010000520901E803053F100AFF00013026
:10020300750302010600000000000000000000006A
:1002130000000000000000000000000000000000DB
:1002230000FFFF0600800CE8031409424C45342EFE
:10023300302046696E642056302E3032202005125D
:1002430020032003020A000201050302F0FF5369A1
:100253006D706C6520424C4520506572697068650D
:1002630072616CE8070000EE070A4368617261631C
:100273007465726973746963203100024368617243
:10028300616374657269737469632032000843683B
:1002930061726163746572697374696320330010FA
:1002A300436861726163746572697374696320344E
:1002B3000002436861726163746572697374696390
:1002C300203500021E90010000F58F021A900100F4
:1002D30000650A0204900300007204023A900100D0
:1002E30000660A021A90010000770A0202900100D8
:1002F300007304023A90010000780A021A90010088
:1003030000890A02FE8F0200007404023A90010081
:10031300008A0A021A900100009B0A020090000062
:100323000075040216900300007604023A9001005F
:10033300009C0A021A90010000AD0A020690040014
:10034300007C04023A90010000AE0A104B6579204C
:10035300507265737320537461746500021E9001BB
:100363000000F28F021A90010000470B0224900054
:10037300000081040216900300008204023A9001F7
:100383000000480BFF0000B40000280028002830BC
:1003930075A000A000A000A00000080008E001F084
:1003A300001000100010001000100010005000504A
:1003B30000500010001000D0070000000000000FE4
:1003C3000001000500307507001000010081FF00E7
:1003D300000000FF340A520A3A0AFF02020208022E
:1003E3005000A0000000E803021E90010000FB8FF4
:1003F300021A90010000D70B021490010000BA0406
:10040300021A90010000D80B021290010000D004E0
:10041300021A90010000D90B021090010000D204CF
:10042300021A90010000DA0B020E90080000D304B8
:10043300021A90010000DB0B020C90010000DC0BA0
:10044300FF0100FF20021E90010000F88F021A90A6
:10045300010000400C020A90000000000002169008
:1004630003000020056410641064106410641064B9
:1004730010641064106410641064106410641040FD
:100483001358133A131201385DCC0212013867CCAA
:1004930002120138A5CC02120138EECC0212013847
:1004A30028CD0212013882CD02120138A3CD0212E7
:1004B3000138ACCD02120138F9CD0212013822CE37
:1004C300021201382CCE0212013898CE02120138E2
:1004D3002ACF0212013874CF02120138AACF0212B6
:1004E300013836D00212013877D002120138AED06B
:1004F30002120138C0D002120138DFD002120138D3
:10050300E8D002120138B5D102120138B2980312B1
:1005130001381F8D03120138558D031201388B8D5D
:1005230003120138D68E031201385EFF011201381F
:1005330074FF011201387EFF01120138C8FF011256
:100543000138859D031201386BEA0212013880EAF3
:100553000212013830EB0212013870EB021201383B
:1005630089EB02120138C4EB0212013811EC0212BA
:10057300013843EC0212013885EC0212013886EE91
:1005830002120138F8EE02120138A9990312013858
:10059300D29903120138019A03120138199A0312EE
:1005A30001385B9A03120138CC8503120138F185B7
:1005B300031201381B86031201383C9E03120138D3
:1005C300A14100120138064400120138A745001268
:1005D30001385B4600120138EE46001201387347BA
:1005E30000120138984700120138EE4A0012013810
:1005F300744B00120138A74C00120138E14C001271
:100603000138164D00120138D64E00120138334F0F
:10061300001201387C4F00120138E74F00120138F5
:100623005850001201388A5000120138A2500012AB
:100633000138EB5100120138FB51001201381653F7
:10064300001201383853001201386E53001201387A
:10065300225500120138AF5500120138EE55001231
:100663000138125700120138189F03120138929E65
:1006730003120138D19E03120138079F0312013878
:10068300A09A03120138B09A03120138C59A0312D3
:100693000138799B03120138AE970312013833985E
:1006A300031201389998031201386C95031201382B
:1006B300939503120138E99503120138FB95031250
:1006C30001384B96031201388996031201388C9630
:1006D3000312013872F30212013886F30212013851
:1006E30000F402120138E4F402120138BBF60212DC
:1006F300013820F702120138F87F00120138DD8A31
:1007030003120138758C03120138D68C0312013899
:100713001C8D031201386F9203120138C192031228
:1007230001384B9303120138B293031201389888AE
:1007330003120138C2880312013890890312013869
:100743006B8A031201387EB50212013845B60212D4
:1007530001387CB602120138A6B60212013806B778
:10076300021201385CB702120138C1B70212013814
:1007730059B80212013868B902120138FFBA0212DD
:1007830001388CBB02120138F3BB021201380ABCD8
:100793000212013824BD0212013862BD021201386F
:1007A300BFDB0112013840DF01120138C8E001123A
:1007B30001381FE1011201383EE101120138BCE1A9
:1007C3000112013852E30112013837E401120138F2
:1007D30045E8011201381BE901120138E3D1021285
:1007E30001389DD402120138E4D5021201388ED6A5
:1007F30002120138CDFA0212013812FB021201383B
:100803002FFB02120138E5FB0212013838FC0212F9
:1008130001380EFD0212013828FE0212013861FE72
:1008230002120138A6FE0212013829FF0212013812
:10083300A1FF02120138108F03120138278F031210
:100843000138588F03120138938F03120138BD8F7B
:1008530003120138E78F03120138FE8F03120138A8
:100863001590031201382C9003120138559003128E
:1008730001386890031201387E9003120138919079
:1008830003120138B890031201380198021201389B
:100893000599021201383D9902120138609902123A
:1008A30001386B99021201388E99021201389D9A10
:1008B30002120138729B02120138ED9B02120138B9
:1008C300759C02120138B09C02120138E79C021297
:1008D3000138759D021201384E9E02120138AE9EF8
:1008E30002120138B99E02120138389F02120138F0
:1008F3003B9F021201383E9F02120138CD9F021224
:100903000138D09F0212013800A0021201382AA038
:100913000212013818A102120138CAA102120138C9
:1009230005E1021201382DE1021201385BE10212E6
:10093300013892E102120138F0E1021201383BE280
:100943000212013886E202120138C6E202120138AD
:100953000CE3021201383AE302120138F7E3021200
:10096300013801E4021201380EE40212013841E4B5
:10097300021201380DE50212013819E5021201389D
:1009830031E5021201383BE5021201387F9B031265
:1009930001388D9B03120138A59B03120138BD9BBF
:1009A3000312013833B001120138DFB001120138EC
:1009B3005AB1011201387BB201120138B7B20112E8
:1009C300013860B30112013847B401120138ABB5E5
:1009D3000112013802B60112013883B6011201383F
:1009E30073B701120138C0B70112013846B80112BA
:1009F300013878B8011201388CBA01120138CEBA25
:100A030001120138ECBA011201386FBB011201382F
:100A130043BC011201380BBD011201383AC5021261
:100A230001380DC602120138B6C60212013809C7D1
:100A330002120138B9C70212013845C8021201383F
:100A430031C90212013860C90212013873CA021295
:100A53000138BBCA0212013890CB02120138CCCB49
:100A630002120138E8CB02120138019D031201384A
:100A730034F7021201384AF70212013870F70212F2
:100A830001388CF80212013896F802120138CBF9BA
:100A930002120138C3FA021201381BD702120138BD
:100AA3004BD8021201387ED802120138C8D802127C
:100AB30001388FDA0212013844A001120138AEA0C6
:100AC300011201380DA2011201381DA201120138D1
:100AD3004AA201120138A1A2011201384AA301124C
:100AE300013851A4011201381BA5011201387BA65C
:100AF30001120138BEA60112013863A701120138A1
:100B0300B0A701120138D6A701120138E4A90112D6
:100B13000138E9A901120138EEAB011201383BACEF
:100B230001120138AEAC01120138E1AC01120138F7
:100B330083AD011201382CAE0112013864AE0112EB
:100B4300013867AE01120138AFAE01120138EFAEC2
:100B53000112013846AF01120138F982031201383C
:100B63001183031201385983031201386F8303126F
:100B73000138B68303120138CA840312013857853A
:100B830003120138A28503120138402700120138ED
:100B93004C2700120138872700120138CC27001296
:100BA30001388C28001201381229001201387729E4
:100BB30000120138A32900120138DC290012013880
:100BC3001A2C00120138FE2D00120138E42F0012F6
:100BD3000138273100120138753300120138873488
:100BE30000120138D23500120138E2360012013802
:100BF300FF36001201383A37001201385C37001211
:100C03000138BF3700120138803C00120138153D0E
:100C130000120138663D001201388D3D0012013883
:100C2300DF3D00120138FD3D00120138573E00122E
:100C33000138403F00120138B640001201383A41F2
:100C430000120138C2E502120138CCE50212013864
:100C53000FE6021201382AE602120138BAE602123E
:100C63000138E2E6021201381FE70212013856E7A3
:100C7300021201387FE702120138F4E70212013849
:100C830009E8021201381EE8021201384FE8021285
:100C9300013863E80212013888E802120138C2E819
:100CA30002120138EEE80212013826E90212013875
:100CB300A5E902120138EEE90212013818EA02121C
:100CC300013843EA02120138959603120138008075
:100CD300021201382E80021201387C81021201387F
:100CE3005C82021201387B8202120138F8820212FE
:100CF30001383B8302120138918402120138528574
:100D030002120138D987021201387A880212013897
:100D13007089021201386D8A02120138C78B0212E0
:100D23000138528C021201381194031201387A945B
:100D330003120138CE9403120138F59403120138DB
:100D430026950312013805EF0212013872EF0212E1
:100D53000138B9EF02120138D1F002120138CDF196
:100D630002120138B0F202120138F5F6011201380D
:100D730037F70112013809F801120138E2F80112BC
:100D83000138DCF901120138BEFA0112013827FBE0
:100D930001120138DDFB0112013851FC0112013847
:100DA300BDFC01120138E6FC0112013860FD01129D
:100DB3000138F9FD011201385EFE0112013873FE9C
:100DC30001120138B9FE01120138D2FE01120138B5
:100DD30037FF011201383AFF011201380080031274
:100DE30001382880031201386680031201382481F8
:100DF300031201388B8103120138A78103120138D2
:100E0300CF8103120138FF81031201380E820312CE
:100E130001388B8203120138B182031201383D90ED
:100E230001120138DB9101120138F69301120138E6
:100E33003294011201385F94011201384495011272
:100E430001388B9501120138CF9501120138E195D4
:100E5300011201382196011201384E960112013810
:100E6300999601120138D996011201380797011298
:100E73000138599701120138E99701120138879A0D
:100E8300011201389D9C01120138DB9C01120138CB
:100E93006C9E01120138B19E01120138289F011284
:100EA3000138729F011201389D9F0112013805AC70
:100EB3000212013884AC0212013846B20212013820
:100EC30055B302120138BDB40212013854B50212EF
:100ED3000138375700120138805700120138AD57D7
:100EE30000120138E05700120138ED5700120138A3
:100EF300F957001201380B5800120138F25800124A
:100F03000138505900120138855900120138C85A66
:100F130000120138155B00120138395B00120138E9
:100F2300A65B00120138645C001201381D5D0012DB
:100F330001388A5D001201383C5E001201384C5EB4
:100F430000120138D35E00120138925F001201389B
:100F5300BF5F00120138386000120138956000123B
:100F63000138DF60001201387561001201384062F8
:100F730000120138F562001201386A630012013869
:100F8300CB63001201383564001201386E6400121D
:100F930001381065001201382066001201386066BE
:100FA300001201387D66001201389C660012013878
:100FB300E366001201380867001201383567001232
:100FC3000138AF6700120138F06700120138146965
:100FD30000120138C469001201381B6A001201387B
:100FE300856A001201389E6A001201383BA2021280
:100FF30001388EA2021201389AA2021201386FA39D
:101003000212013896A302120138D1A30212013849
:101013003DA40212013879A402120138B2A40212CB
:101023000138CAA4021201381FA50212013838A5DB
:101033000212013881A50212013894A50212013867
:10104300AEA502120138C4A502120138F7A6021296
:1010530001383EA80212013840A9021201383AAA07
:1010630002120138F6FF01120138BEE901120138FC
:10107300EEE901120138B6ED011201380DEF01124C
:101083000138D6EF0112013856F10112013827F267
:101093000112013864F20112013887F2011201389A
:1010A300C5F201120138CEF20112013818F3011210
:1010B300013822F301120138CCF301120138A5F4EF
:1010C30001120138F9F4011201385BF501120138FC
:1010D300AEF501120138DDF5011201381AF60112DD
:1010E3000138D06A00120138376E001201383D6EA4
:1010F30000120138BF73001201383878001201382A
:101103000E7C001201385D7C00120138D37C001282
:101113000138E97C001201382A7D00120138647D10
:1011230000120138DD7D00120138187E00120138EB
:101133008B7E00120138C97E00120138D27E001264
:101143000138DE7E00120138FA7E00120138257F55
:10115300001201383B7F00120138647F001201380E
:10116300C77F0012013842DC0212013855DC02123B
:1011730001386FDC0212013898DC02120138DBDC23
:10118300021201381ADD0212013858DD0212013849
:10119300BDDD02120138D2DD02120138DDDD02129B
:1011A3000138EADD0212013801DE021201380FDED6
:1011B300021201381ADE0212013826DE0212013849
:1011C30039DE0212013844DE0212013867DE0212F0
:1011D30001380EDF021201381EDF0212013838DF38
:1011E3000212013855DF0212013871DF0212013891
:1011F30096DF02120138A1DF02120138B6DF0212B4
:101203000138CADF021201382BE00212013831E043
:101213000212013837E0021201383DE002120138B0
:1012230055E00212013888E00212013895CD01120F
:10123300013819CE01120138C8CE0112013827D066
:101243000112013848D20112013834D30112013896
:1012530069D3011201388BD3011201383AD4011238
:10126300013832D6011201385BD601120138EDD6AE
:10127300011201381FD7011201382CD7011201388E
:1012830083D701120138A9D70112013816DA0112E6
:10129300013819DB0112013871DB0112013824BF57
:1012A300011201382EC00112013815C10112013893
:1012B3001FC10112013841C1011201384DC1011290
:1012C3000138E6C20112013815C30112013831C4D5
:1012D300011201388AC401120138F0C50112013824
:1012E300CFC6011201382BC70112013898C701126A
:1012F3000138D3C70112013812C801120138CBCA11
:1013030001120138E5CA0112013871CB011201380B
:101313007FCB01120138D8CB01120138E6CB011281
:10132300013859CC01120138BDCC0112013807CD67
:1013330001120138D38C02120138F58C02120138E4
:101343001B8F0212013830920212013848930212A5
:101353000138FB9302120138DD9402120138CA905E
:1013630003120138EF90031201386191031201381F
:10137300C0BD02120138C9BD02120138D2BD02122A
:101383000138A9BE021201385AC00212013890C0B6
:1013930002120138CAC00212013800C10212013818
:1013A3003AC1021201386EC1021201389AC1021207
:1013B3000138E3C1021201381DC20212013866C2AC
:1013C30002120138BEC202120138F3C202120138FE
:1013D3004EC30212013888C302120138D9C3021264
:1013E30001380FC40212013849C40212013877C40C
:1013F300021201389AC402120138569C03120138B2
:10140300829C03120138DD9C03120138E79C03120E
:101413000138F79C03120138DB9E03120138DAFF0F
:1014230002E066701008A3E066700A08A3E0667025
:101433000408A3E06622C3E7960809E7960809E7CC
:10144300960809E79622C3E09608A3E09608A3E06E
:101453009608A3E09622C008C3E096F50808A3E027
:1014630096420808A3E096420808A3E09645087050
:1014730001D3D00822080808EAC0E0EBC0E086F0F8
:10148300E7A4FA180986F0E7A42AFA180986F0E710
:10149300A42AFA180986F0E7A42AFA1986F0E7A421
:1014A300FBE5F02AFA190886F0E7A42BFBE5F03AEE
:1014B300FA190886F0E7A42BFBE5F03AFA181809A5
:1014C30086F0E7A4C5F02BFBE43AFA1908E7C5F068
:1014D300C6A426F6E5F03BFBE43AFA1886F0E7A447
:1014E300F6E5F00826F6E43B08F6E43A08F6D0E021
:1014F300FBD0E0FA22E4CFC0E0E4CEC0E0E4CDC00C
:10150300E0E4CCC0E075F020C3E633F608E633F63A
:1015130008E633F608E633F6181818EC33FCED3317
:10152300FDEE33FEEF33FFC3EC9709ED9709EE971A
:1015330009EF97191919400FFFEC97FC09ED97FD77
:1015430009EE97FE191906D5F0BEECF709EDF70978
:10155300EEF709EFF7191919D0E0FCD0E0FDD0E060
:10156300FED0E0FF226016080808C6C313C618C6DB
:1015730013C618C613C618C613C6D5E0EA227009E7
:10158300080808226016181818C6C333C608C633DD
:10159300C608C633C608C633C6D5E0EA22E627F630
:1015A3000809E637F60809E637F60809E637F622AA
:1015B300E026F608A3E036F608A3E036F608A3E033
:1015C30036F622E026F008A3E036F008A3E036F072
:1015D30008A3E036F022C3E697F60809E697F60873
:1015E30009E697F60809E697F622C3E096F008A302
:1015F300E096F008A3E096F008A3E096F022E05608
:10160300F608A3E056F608A3E056F608A3E056F65C
:1016130022E056F008A3E056F008A3E056F008A332
:10162300E056F022E0F608A3E0F608A3E0F608A3EC
:10163300E0F622E6F008A3E6F008A3E6F008A3E646
:10164300F022E0FAA3E0FBA3E0FCA3E0FD22EAF032
:10165300A3EBF0A3ECF0A3EDF022CAC0E0E6F0A305
:1016630008DAFAD0E0FA22CAC0E0E0A3C582CCC50A
:1016730082C583CDC583F0A3C582CCC582C583CD86
:10168300C583DAE6D0E0CA22C3E498F8E499F912F4
:1016930016CC8026C3E49AFAE49BFBE920E7E9121F
:1016A30016CCE498F8E499F922C3E498F8E499F99C
:1016B3001216CCE498F8E499F9C3E49AFAE49BFB94
:1016C30022EB20E7CFE920E7E0B90010BB0008E8F0
:1016D3008AF084F8AAF022E4FBC8FA22EB70227B9A
:1016E30010C833C8C933C9335007C39AC3DBF28068
:1016F300069A50012ADBEAC833F4C8C933F4C9FA9D
:101703002275F008E4C833C8C933C933C99AC99BE1
:101713005004C92AC93BD5F0ECFBC833F4C8E4C96B
:10172300FA22600D08C6A2E713C618C613C6D5E091
:10173300F322600C08C6C313C618C613C6D5E0F45B
:1017430022700422600D18C6C333C608C633C6D53B
:10175300E0F41822251810AF08F518400215198077
:1017630008F51840021519D2AF22C0D0251810AFC2
:1017730008F518500205198008F51850020519D20A
:10178300AFD0D0222518F58210AF08F51840021506
:10179300198008F51840021519D2AF85198322253F
:1017A30018F582E43519F58322E4732518C582C040
:1017B300E0E51934FFC583C0E0E518C3958224F83A
:1017C30010AF08858319858218800885831985825F
:1017D30018D2AFCEF0A3E520F0A37808E608F0A373
:1017E300DEFAEFF0A3E58124FAF8E608F0A3E608B1
:1017F300F0A3E608F0A30808E608F0A3E608F0A3C0
:1018030015811581D0E0FED0E0F815811581158191
:10181300E8C0E0EEC0E0222518C582C0E0E5193437
:10182300FFC583C0E0E518C3958224F910AF08858E
:1018330083198582188008858319858218D2AFCED3
:10184300F0A3E520F0A37808E608F0A3DEFAEFF0B2
:10185300A3E58124FBF8E608F0A3E608F0A3080853
:10186300E608F0A3E608F0A315811581D0E0FED0C9
:10187300E0F815811581E8C0E0EEC0E02285198308
:10188300851882E0A3FEE0A3F5207808E0A3F6081C
:10189300DFFAE0A3FFE0A3C0E0E0A3C0E0E0A3C061
:1018A300E0E0A3C0E0E0A3C0E010AF0885821885A4
:1018B30083198008858218858319D2AFD083D0829B
:1018C300020135851983851882E0A3FEE0A3F52084
:1018D3007808E0A3F608DFFAE0A3FFE0A3C0E0E0A6
:1018E300A3C0E0E0A3C0E0E0A3C0E010AF0885829E
:1018F300188583198008858218858319D2AFD08310
:10190300D08222C0D02518C582C0E0E51934FFC5B6
:1019130083C0E0E518C3958224F310AF08858319CB
:101923008582188008858319858218D2AFC8F0A3F1
:10193300E9F0A3EAF0A3EBF0A37908E709F0A3D851
:10194300FAECF0A3EDF0A3EEF0A3EFF0A3D0E0F0F8
:10195300A3D0E0F0A3D0E0F0A3E520F0A3E5F0F0FE
:10196300A322851983851882E0C0E0A3E0F9A3E0F0
:10197300FAA3E0FBA37808E0F608A3DFFAE0FCA3F0
:10198300E0FDA3E0FEA3E0FFA3E0C0E0A3E0C0E02E
:10199300A3E0F5D0A3E0F520A3E0A3F5F010AF0892
:1019A3008583198582188008858319858218D2AFAB
:1019B300D082D083D0E0F8D0E03274048006740281
:1019C30080027401C0E0F404121787D0E012165DA0
:1019D300227404800474028000CCC0E0EDC0E0E512
:1019E30018C39CCCAD1950011D10AF068C188D196E
:1019F30080068C188D19D2AF12166AD0E0FDD0E0A4
:101A0300FC22D083D082E9C0E0E493A3C386F0C56F
:101A1300F095F0F908E493A386F0C5F095F0700B08
:101A2300E493A3C3994005E9048002A3E475F0029B
:101A3300A42582F582E5F03583F583D0E0F9E493BC
:101A4300A3C0E0E493C0E022D083D082ECC0E0EDF9
:101A5300C0E0E493A3FCE493A3FDED4C600D121AE4
:101A630097EC24FFFCED34FFFD80EFE493A3FCE44B
:101A730093A3FDED4C600D121AD6EC24FFFCED345C
:101A8300FFFD80EFD0E0FDD0E0FCE493A3C0E0E4F1
:101A930093C0E022C0E0C3E49396087401939618C0
:101AA300400FE49366700808740193661870007021
:101AB30019A3A3C3E49396087401939618A3A340B0
:101AC3000DD0E0D0E0D0E0021A87A3A3A3A3A3A381
:101AD300D0E022C0E0C0F088F0E493667008087498
:101AE300019366187000A8F0A3A3700BD0F0D0E0A8
:0E1AF300D0E0D0E0021A87A3A3D0F0D0E0220A
:101B0400C2AF02000022C0E074F2121906A2AFE4D0
:101B140033FED2AFE589A2E04006E589A2E1500395
:101B24001206C2758900758900C2C5751A00EEA235
:101B3400E092AF7F01021965C0E0C0D0E8C0E0E9DF
:101B4400C0E0E5A8D2AFC2C7751A00A2E7A2E79227
:101B5400AFD0E0F9D0E0F8D0D0D0E03274F512186C
:101B64001AEAFEEBFFEE2434F8EF3400F988088912
:101B740009EE2435121C8CF8EE2437121C8CF50A5D
:101B8400EC850AF0A4FCAAF0850AF0EDA42AFDE88D
:101B94002CF8E43DF97A257B001216CCEA850882FC
:101BA400850983F074075AF87401B800028004C3ED
:101BB40033D8FCFBEA131313541FF8EE28F8EF3460
:101BC40000F9E8245DF582E9121C8F5B6003EA806A
:101BD4001CEE2436121C8CF5F0EA84A8F0EE28F8EA
:101BE400EF3400F9E82438F582E9121C8FF97F04F8
:101BF4000218C674F512181AEAFEEBFFEE2434122A
:101C04001C8CC0E0EE2435F582EF3400F583D0E07F
:101C1400F08E828F83A3A3A3A3A3E0FAA3E0FB8E99
:101C2400828F83A3A3A3A3A3A3A3E0FCA3E0FDEC5F
:101C3400C39AF50AED9BF50BEE247FF508EF34000B
:101C4400F509850882F583E06401702BEE2480F5A4
:101C540082EF3400F5831219D8121C9574021217FE
:101C64006DE960137CE37D06EEFAEFFB120F8C85C1
:101C74000882850983E4F0AC0AAD0BEEFAEFFB129F
:101C84001B60122729021BF2F582EF3400F583E072
:101C940022C082C083851882851983E0F8A3E0F905
:101CA400C3EA9CEB9D5010C3EC98ED99401BC3EA2A
:101CB40098EB995014800EC3EA98EB994007C3EC53
:101CC40098ED994004790180027900D083D0822272
:101CD400EAC39CFAEB9DFB2274ED12181A9005A935
:101CE400E064086005E06407702C9061C8E0602639
:101CF4009005D7E0F874FF68601CE875F003A4C889
:101D0400AAF02AF974D928FE740539FF8E828F83CC
:101D1400A3A3A3E070057900021E7CEE2468F510ED
:101D2400EF3400F511906060E0851082851183F036
:101D3400750A4C750B07750800750900E5D914F58B
:101D44000EE5D95403F50F601CEE2482F50CEF3434
:101D540000F50D7403650F6058E50E6013EE2467FB
:101D6400121C8C700B793DEEFAEFFB120FB080A6BB
:101D7400900747E064016026850C82850D83E0604E
:101D840004780480027800850E08E508C398FA9563
:101D9400E0FB120E308A088B09EA4509700612121C
:101DA4000E021D1A850C82850D83E070048A0A8B4D
:101DB4000B78008016E5D9C0E08812E50A2512F5F3
:101DC40082E50B3400F583D0E0F008E8C3950E40BB
:101DD400E4850C82850D83E0602874FC250EF50EE5
:101DE400780A1219C1AC0EA90FEEFAEFFB12105EBD
:101DF400740212176DE9700AAA08AB0912071C02D3
:101E04001D697403650F6058850E0C750D00780C00
:101E14001219C1AC0AAD0BAA08AB09121022740244
:101E240012176D851082851183E0F874806870053F
:101E3400750C7F8002880CE50CF50A780A1219C526
:101E4400E50FF50A780A1219C5A90EAC08AD099078
:101E540005D7E0FA7B00120CC8740212176D8013C8
:101E64009005A9E06408600BAC0AAD0BEEFAEFFB39
:101E74001210F412121A79017F0C0218C674F312AC
:101E8400181A74FC121757EAFEEBFF8908A2AFE494
:101E940033F509C2AFEE2463F50AEF3400F50B8085
:101EA40010AA0AAB0B120FDA12071C9006EAE00420
:101EB400F0850A82850B83E0F8A3E0F9E849602FF6
:101EC400E82402FAE93400FBEA2402F50CEB3400BE
:101ED400F50D780C1219C18A828B83E0FCA3E0F91A
:101EE400EEFAEFFB120FCE740212176DE960B29096
:101EF40006EAE060579006EBE0F89006EAE0C39843
:101F0400500C7402650870449006ECE0603E8E82CA
:101F14008F83A3A3A3A3E0851882851983121F606E
:101F240074021217A2E8121F609006E9E028F07408
:101F3400021217A2AC82AD83851882851983AA8206
:101F4400AB837901120CD49006EAE4F0E509A2E02F
:101F540092AF740412176D7F060218C6F0A3E4F062
:101F64009006EAE0F82200008521878522C622C077
:101F7400E074EF121906A2AFE433FEC2AF759B0002
:101F8400906182E0A2E05012E591A2E0500C7591BC
:101F9400FE740165217003121CDCE0A2E55051E5DA
:101FA40091A2E5504B7591DF9005A9E064076005A7
:101FB400E06408702374016521703579019005D7B8
:101FC400E0FA75F003A4CAA8F028FB74D92AFA74BD
:101FD400053BFB121E818018E0640D70139005CB45
:101FE400E004F064287002E4F07A00E0F9121220B0
:101FF400906182E0A2E6400302209AE591A2E640C5
:102004000302209A7591BF9005A9E0640570081237
:102014001136121142800312113C7521001211AEC7
:10202400E99005AAF079001211A2120EF67A017B4A
:10203400009005A8E0F91204E2907803E06442708D
:102044005590074BE014F0704DC2AF122052007847
:102054002AD0E0F618D0E0F6E59F5407700575091C
:10206400FF800375097FC4C0E07829E6F50808E617
:102074005509F509740B7808121735D0E02508F8CE
:10208400906270E0A2E740F8E8C333906272F09087
:102094006270E0D2E0F0906181E0A2E35009E5E9EA
:1020A400A2E3500375E9F7A3E0A2E75009E591A282
:1020B400E7500375917FEEA2E092AF7F04021965A9
:1020C400C0E0C0D0C082C083906183E0A2E0500928
:1020D400E5BFA2E0500375BFFEE0A2E15009E5BFF1
:1020E400A2E1500375BFFDE0A2E25009E5BFA2E200
:1020F400500375BFFBE0A2E35009E5BFA2E3500320
:1021040075BFF7E0A2E45009E5BFA2E4500375BF30
:10211400EFE0A2E55009E5BFA2E5500375BFDFE09B
:10212400A2E65009E5BFA2E6500375BFBFD083D035
:1021340082D0D0D0E032C0E074F2121906E5A7A232
:10214400E4500FE5A1A2E4500953A7EF75A1EF12E3
:10215400218EE5A7A2E5500CE5A1A2E5500653A700
:10216400DF75A1DFE5A7A2E15009E5A1A2E15003D3
:1021740075A1FDE5A7A2E2500CE5A1A2E250065329
:10218400A7FB75A1FB7F0102196574F812181A7573
:1021940021019005A9E0640670077A007B00121102
:1021A4001EA2AFE433FED2AF9005AFE06401701815
:1021B4007A207B009005A8E0F912056C7A207B0058
:1021C4009005A8E0F91204E8906182E0D2E6F0906C
:1021D4000748E0602185C62280169005AEE06401C0
:1021E4007008E5C654F84405F5C653BEFC121F6CCE
:1021F4007401652160E4EEA2E092AF7F010218C68B
:102204008E238F24858228858327851882851983C8
:10221400E0CEA3E0CF852882852783EBC9EAC8ED09
:10222400CBECCA75F010C3E833C8E933C9EA33CA42
:10223400EB33CBC3EA9EF526EB9FF525B35004ABF5
:1022440025AA26EC33CCED33CDD5F0DAAE23AF247A
:102254002274E912181A74FA121757EAFEEBFF8C6B
:10226400088D099005A9E024F7C39405500675105C
:10227400010223801210948A0A8B0BEA450B700327
:1022840002237D1211548A0C8B0D121154EA650C31
:102294007003EB650D60ECEEFCEFFD85188285198B
:1022A40083AA82AB8312115A850A82850B83A3A366
:1022B400780C121627908F83780C121601851882D9
:1022C4008519837814121627908F837814121601B7
:1022D400780C7914121439501F780C79141215D90A
:1022E400908FC7780C1214594047850C10850D1136
:1022F400850E12850F138045908FC78514108515A0
:10230400118516128517137810790C1215D97810C7
:10231400121459501C7510007511007512007513B4
:1023240001781079141215D97810790C1215A0803F
:102334000C7510017511007512007513007409787D
:1023440010121581908F8F780C1216277810790C43
:102354001214F89005A9E06408600AE064066005B8
:10236400E064057020908FCB7810121459501690A9
:102374008FDF78101215B3800C751000751100757D
:1023840012007513008508828509837810121636A9
:10239400740612176D7F100218C674F712181A12F9
:1023A400116C900746E064017010906245E4F0A35C
:1023B400F053F4F343FE0C5390F312110CE5C6549E
:1023C400804449F5C6E59E547F644970F890618560
:1023D400740FF0900744E0F47002A3E0602C7508D9
:1023E40001750900900744E07808121744E508F4E1
:1023F400FAA3E0600814600A14600C800DEA5280AD
:102404008008EA52908003EA52A079007F02021801
:10241400C674F712181AE9FEEAFF74016E700C7A9A
:10242400807B009005A8E0F91204E2902738E49339
:10243400F46008E493F9120ED8800953C680E59E2F
:10244400547F70FA121112900746E064017003126F
:102454000F0E900744E0F47002A3E0602A750801AF
:10246400750900900744E07808121744AA08A3E00D
:10247400600814600A14600C800DEA42808008EA47
:1024840042908003EA42A01210948A088B09A8089B
:10249400A909E8496017E5E170FCE82414F582E92C
:1024A4003400F583E0F874FF68600288E174016F1A
:1024B400700A7A019005A8E0F91205360224107416
:1024C400F112181A8A088B098C0A8D0B908F837865
:1024D40008121601740F1217A2780C121627908F87
:1024E40083780C1216017808790C121439908FC76E
:1024F40050107808790C1215D97808121459401420
:10250400800E780C79081215D9780C1214595004DD
:102514007901800279007F080218C674ED12181A36
:102524008A088B098C0A8D0B908F83780812160108
:1025340074131217A2780C121627908F83780C123A
:102544001601780C790812143940117808790C12A4
:1025540015D9AA08AB09AC0AAD0B80227510007519
:1025640011007512007513017810790C1215D978C1
:102574001079081215A0AA10AB11AC12AD137F0C80
:102584000218C6908F8378081216278A828B837864
:10259400081216147F040218C674F512181A8C82D5
:1025A4008D8378081216278A828B8378081215ED9A
:1025B4001225F1C3E098F0A3E0991225E3401E90A0
:1025C4008FAF78081216278A828B8378081215C673
:1025D4008E828F83E02420F0A3E0344EF080A4F0B8
:1025E4008E828F83C3E09420A3E0944E22EA2404D5
:1025F400F8EB3400F9E8FEE9FF8C828D83A3A3A3F2
:10260400A3E0F8A3E0F98E828F832274F512181ADE
:10261400E9FE9006FEE0FAA3E0FBEEC333F8E433F0
:10262400F974D728F582748E39F583E02AF508A366
:10263400E03BF50978081219C1908FB312164512C0
:102644002204740212176D8A088B098C0A8D0B748C
:10265400107808121568AA08AB097F040218C6741A
:10266400F112181A8A0C8B0D8C0E8D0F740F121721
:10267400A2E0FAA3E0FB74111217A2E0F508A3E0AC
:10268400F50978081219C1EA2401F508EB3400F5BC
:1026940009E4F50AF50B780C7908121478908FE3A5
:1026A4007808121627780C7908121478AA0CAB0D46
:1026B400AC0EAD0F122204740212176D8B09EA4599
:1026C4000960047A0180027A00EC2AFCED3400FDF2
:1026D40074131217A2E0F8A3E0F9E8FEE9FFECF89E
:1026E400EDF97A717B021216CC88088909E4F50A9F
:1026F400F50B8E828F837808121636ECF8EDF97A92
:10270400717B021216CC8A088B097405780812179B
:10271400448E828F83A3A3A3A3E508F0A3E509F065
:102724007F080218C6C082C083E9906000F0D0839D
:03273400D082222E
:10273800FFFFFFFFFFFFFFFFC082C083E9900C3F50
:10274800F00229CF74F71217AEE99004E8F07C2064
:102758007D057AFF7BFF120C1A9004E974FFF0A341
:10276800F0A3E4F0A3F07905120BA29004E8E0F9D5
:10277800120AC47A387B0C120DE27F0102188074A9
:10278800F41217AE8A088B09EB548060309004E885
:10279800E0F91204CA8A0A8B0BAE0AAF0BEE4F603F
:1027A800138E828F83E064B07003120BBAEEFAEFD7
:1027B800FB1204B8AA08E5096480FB80047A007B50
:1027C8000002299E74F21217AE74FC121757EAFE23
:1027D800EBFFEE4F603874021217A2EEF0A3EF126F
:1027E8002C03ECF0A3ED122C03AA82AB83120ABED1
:1027F800E9F508707374121217A21237B7E50A4583
:102808000B60658E828F8312287AEE4F70057508EB
:102818000280557A067B0012051E8A0C8B0DA80CC7
:10282800A90DE8497005750813803D88828983E4FD
:10283800122884A3A3EEF0A3EF123C50E50AF0A3FC
:10284800E50BF09004EE12290C9004EE6017E0FC02
:10285800A3E08003EAFCEBFD8C828D8312290C70C7
:10286800F38C828D831236DCA908740412176D026A
:102878003E52A3A3A3A3E0FEA3E0FF22F0A3F088A7
:102888008289832274F21217AE890AE975F017A4B7
:10289800FEAFF09004EDE4F09004EB12290C600A0E
:1028A8001205249004EBE4F0A3F0EEFAEFFB120516
:1028B8001E8A088B09EA4509602FEEFCEFFD7900B6
:1028C8001204A69004EBE508F0A3E509F07B00806C
:1028D800081228F6E4F0A3F00BEBC3950A40F2E5E2
:1028E8000A9004EDF0790080027913023E52EB75EC
:1028F800F017A4F8A9F09004EBE028FAA3E0398ACD
:1029080082F58322123472EA4B2274F41217AE75E0
:102918000800750900740C1217A2123C24FEE9FF86
:10292800800CE5082401F508E5093400F509C3E53C
:10293800089CE5099D503285080A85090B740378BF
:102948000A121744EA250AF8EB350BF988828983BD
:10295800A3A3A3A3A3A31237B7EE650A7003EF6579
:102968000B70BFE8FAE9FB80047A007B00802774CB
:10297800F41217AE7900EAA2E0501B75083A7509FF
:102988008F78081219C17C047D007A417B0C120BE8
:102998009C740212176D7F04021880C082C0839055
:1029A80004EE1229D6601C88828983A3A3E06A708A
:1029B80003A3E06B8882898370E8A3A3A3A31234DE
:1029C8006E80047A007B00D083D082020135123FEA
:1029D80025E8492274EE1217AE74FC121757EAFE66
:1029E800EBFF851882851983E4F0A3F0EE24021228
:1029F80036C0EE2405122BF1EE2404F50EEF122F4B
:102A0800D6E024FE603924FC604624FE605224FE91
:102A1800605E24FE7003022AF624FE7003022B6E09
:102A280024FE7003022B7D24FE7003022B8C24FCF1
:102A38007003022B9B24FE7003022BAA022BE79043
:102A480005077417F0A3E4122C0B12083C022BE7BD
:102A5800851882851983AC82AD83120BC0022BB70F
:102A6800851882851983AC82AD83120BC6022BB7F9
:102A7800850C08850D0974021217A2AC82AD8385F6
:102A8800088285098312346E120AE28A0C8B0DAC17
:102A98000CAD0DEC4D6042E4F50CF50D780C1219F7
:102AA800C1750C07750D05780C1219C1750C0875E0
:102AB8000D05780C1219C174081217A21219D879C9
:102AC80016123468120C02740812176DE9F50C70AE
:102AD8000B123464120854800F750C018508828526
:102AE8000983122BF91236DC850C08022BBA740202
:102AF8001217A2AC82AD83850C82850D8312346EC9
:102B0800120AE28A108B11AC10AD11EC4D604385AE
:102B18000C82850D83A3A31219D8751007751105AA
:102B280078101219C175100875110578101219C19D
:102B380074081217A21219D87916123468120C02E6
:102B4800740812176DE9F509700B12346412085AEB
:102B5800800F750901850C82850D83122BF91236B9
:102B6800DC850908804C851882851983AC82AD8381
:102B7800120BCC803A851882851983AC82AD8312FA
:102B88000BD2802B851882851983AC82AD83120BFA
:102B9800D8801C851882851983AC82AD83120BDE20
:102BA800800D851882851983AC82AD83120BE4E908
:102BB800F508E50860298E828F83A3E06414601FFE
:102BC800850E82850F83E0900507122C03123F21A2
:102BD8009005081236DCE508A3122C0B120836EE15
:102BE800FAEFFB120B600235C8F50CEF3400F50D57
:102BF80022123F2585188285198322F0851882853F
:102C0800198322F07C077D05850A82850B8312349F
:102C1800722274EE1217AE74FC1217578A0A8B0BC5
:102C28008C0E8D0FEA2405F508EB3400F5097C15A8
:102C38007D0079007A077B051204A6E5082402F5D1
:102C48000CE509122BF48518828519838582108575
:102C5800831178101219C1850882850983A3A3A35B
:102C6800A312311E1219C1E5082405F510E509342F
:102C780000F51178101219C1850C82850D83123464
:102C880078120ADC740612176D8A108B11AE10AF19
:102C980011E50A2402F50AE50B1236C3EE4F70035C
:102CA800022DE0801774021217A212346E888289EE
:102CB80083EAF0A3EBF0900507E004F0900507E045
:102CC800C394054003022DE0E4F510F511781012C5
:102CD80019C17510F075110478101219C17510F129
:102CE80075110478101219C174061217A21219D896
:102CF8007910EEFCEFFD123468120C0274081217FA
:102D08006DE9705E850882850983A3A3A3A3A3A3A5
:102D1800A3E0F89004F0E068704812311E1219C15F
:102D28007CF17D04E5082408FAE5093400FB120467
:102D3800A0740212176DE960298E828F83A3A3A362
:102D4800A312346E900507E0F5107402781012177C
:102D58004474082510F58274053511F583EAF0A34B
:102D6800EBF074021217A285821085831178101275
:102D780019C174021217A21219D8850C82850D8305
:102D8800123F36120AE8740412176D8A108B11AEBE
:102D980010AF11900507E0F5107511007402781056
:102DA80012174474072510F874053511F9888289BB
:102DB80083A312290C7003022CA4E82403F8E93435
:102DC80000F9EE4F6003022CAD8882898374FFF00E
:102DD800A3F0900507E004F0900507E0600A1234BC
:102DE800641208487900800B8508828509831236A9
:102DF800D3790A0235C874EA1217AE74FE1217574F
:102E08008C128D13EA2405F50CEB1240A012287ED3
:102E1800750800750900EA2402F510EB3400F51175
:102E280085188285198385820A85830B780A121989
:102E3800C1850C82850D83A3A3A3A3122FE01219C9
:102E4800C1E50C2405F50AE50D1236C3780A1219F6
:102E5800C1850C82850D83123F34120ADC74061278
:102E6800176D8A0A8B0BEA450B7003022F91EA242F
:102E780004F50EEB122FD612287E8A828B83A3A329
:102E8800A3E0F985108285118312346E120ACAE90B
:102E9800F5096003022F91E4F514F5157814121959
:102EA800C17514F075150478141219C17514F175EB
:102EB800150478141219C174061217A21219D879B8
:102EC80013AC0AAD0B85108285118312346E120C77
:102ED80002740812176DE9F5096003022F91900436
:102EE800F0E0F8E5087009E02402900508F0801782
:102EF800900508E0FCE82402FAE43400FBEA6C7070
:102F080001EB6003022F95850882AA82123115947D
:102F18001412310D5073850E82850F83E0C0E07462
:102F2800092A122FCDD0E0F00508850E82850F837F
:102F3800A3E0C0E085080A7409250A122FCDD0E065
:102F4800F005089004F0122FE01219C17CF17D04FD
:102F580085080A7409250AFA74053400FB12048EE0
:102F6800740212176D9004F0E02508F50874FF6EDE
:102F7800700374FF6F6012EE24010EEF3400FFE55A
:102F880008C394145003022E28E50860131233591D
:102F980085108285118312346E12084E79008014D0
:102FA800E509700375090A851282851383EEF0A37B
:102FB800EFF0A909740212176D7F0E0218808508B8
:102FC8000C7409250CF58274053400F5832234004D
:102FD800F50F850E82F58322123C632274EE1217D8
:102FE800AE74FE1217578C0E8D0FEA2405F50CEB04
:102FF800122BF4750B00900507E4F0F50AEA240299
:10300800F508EB3400F5098049900507E0FA9004CB
:10301800F0E0F8123115941712310D400D900507A4
:10302800E0F87416C3989004F0F012311E1219C11A
:103038007CF17D0474082AFA74053400FB12048EAE
:10304800740212176D9004F0E0F8900507E028F07C
:10305800050AE50C2416F582E50D122FD1E0F8E5F6
:103068000AC39840030230F6900507E0C39416504F
:103078007DE50AC333F8E433F9E50C28FEE50D399C
:10308800FF851882851983AC82AD838E828F831267
:10309800346E120AE28A108B11AC10AD11EC4D702F
:1030A80005750B018043E4F510F51178101219C16C
:1030B8007510F075110478101219C17510F1751199
:1030C8000478101219C174061217A21219D87916A9
:1030D80085088285098312346E120C02740812174F
:1030E8006DE9F50B70030230111236CF80107C07A2
:1030F8007D0585088285098312346E120860A90B44
:1031080074020235CAE99400C365D03322EA28F86C
:10311800E43400F9E822E0F5107511007810227403
:10312800EA1217AE74FC1217578A0C8B0D8C128D8D
:1031380013EA2405F50AEB1236C375080075090071
:10314800E50A2402F510E50B3400F5117402121794
:10315800A285820E85830F780E1219C1850A828591
:103168000B83A3A3A3A3123C0F1219C1E50A2405DC
:10317800F50EE50B3400F50F780E1219C185108293
:103188008511831236C9123468120ADC74061217C4
:103198006D8A0E8B0FAE0EAF0FE50C2402F50EE50F
:1031A8000D3400F50F80408882898374FFF005088C
:1031B800122FC674FFF005089004F0E0F50C750DA9
:1031C80000780C1219C17CF17D0485080C7409255E
:1031D8000CFA74053400FB12048E740212176D90F9
:1031E80004F0E02508F508EE4F60718E828F83A306
:1031F800A3A3E0F9850E82850F8312346E120ACAE2
:10320800E9F509EE2404122BF1E97044E4F514F50C
:103218001578141219C17514F0751504781412195B
:10322800C17514F175150478141219C174081217B0
:10323800A21219D87911EEFCEFFD850E82850F8355
:1032480012346E120C02740812176DE9F509602722
:10325800850C82850D8312334F1236DCE508700326
:10326800023335123359850E82850F8312346E125C
:103278000866790002334A850882AA82EA9004F037
:103288007009E02404900508F08022E0F890050811
:10329800E0F514E82404FCE43400FDEC6514700146
:1032A800ED70C0123115941212310D50B6850C8292
:1032B800850D83E0C0E074092A122FCDD0E0F00517
:1032C80008850C82850D83A3E0C0E0122FC6D0E0EC
:1032D80012336B85820C85830D780C1219C1740426
:1032E8001217A21219D8851082851183123F36123F
:1032F8000AE8740412176D8A0C8B0DAE0CAF0D859D
:10330800080C7409250CF874053400F9EE4F7003A5
:103318000231AF851882851983E088828983123348
:103328006BA3E0C0E0122FC6D0E00231BDE5097002
:103338000375090A850A82850B8312334F1236DC1E
:10334800A9097404022FBE123F25851282851383B2
:1033580022900508E0F5F0E50884900507F07C0761
:103368007D0522F005088518828519832274EC12E0
:1033780017AE74FE1217578A088B098C0E8D0FEA48
:103388002405FEEB3400FF851882851983AC82ADD5
:10339800838E828F8312346E120AE28A0A8B0BEEB6
:1033A8002418122BF1EA450B700302343F1235B191
:1033B800503285188285198312346E120BF68A10E2
:1033C8008B11EA4511606B7912AC0AAD0B85088246
:1033D80085098312346E8510828511831217ACE932
:1033E800F50A7058E4F50AF50B780A1219C18E82AD
:1033F8008F83A3A3E0F50A780A1219C1EE240312F9
:1034080036C0780A1219C18E828F83123478120C52
:1034180008740612176DE9F50A7021850C82850D6E
:1034280083E0701F85088285098312346E12086C48
:103438008011750A0E8009750A018004E50A600387
:103448001236CF850C82850D83E0600479008002F6
:10345800A90A740212176D7F0C0218807C077D057B
:10346800850A82850B8312347222E0FAA3E0FB22DC
:10347800E0FCA3E0FD85088285098312347222747A
:10348800EE1217AE74FE1217578A088B098C0C8D32
:103498000DEA2405FEEB3400FF750E0085188285C1
:1034A8001983AC82AD838E828F8312346E120AE246
:1034B8008A0A8B0BEA450B700302359D1235B15011
:1034C8003585188285198312346E120BF68A0E8B95
:1034D8000FEA450F605E7912AC0AAD0B850882854C
:1034E800098312346E850E82850F831217ACE9F5B5
:1034F8000E60030235A08508828509831237B7AAB2
:103508000AFB120BEA8A108B11A810A911E849705E
:103518001E7AFF7BFF120BEA8A108B11A810A911E3
:10352800E849606C88828983E50AF0A3E50BF075A9
:103538000A008007750E0E805F050A9004EDE0FA18
:10354800E50AC39A504AE50A75F017A4FAABF08861
:10355800828983A3A3E02AFAA3E03BFB8A828B83B8
:103568001236C9EC4D70D2750A17750B00780A121D
:1035780019C1EEFCEFFD12048E740212176DEEFCF9
:10358800EFFD85088285098312346E120872801453
:10359800750E098003750E01123F1D850C82850D7D
:1035A800831236DCA90E023108E5082402F508E585
:1035B800093400F5098A828B83A3A3A3E0A2E5223C
:1035C800740412176D7F0A02188074EC1217AE8CFF
:1035D800108D11EA2405F50CEB122BF4750F00EA97
:1035E8002402F50AEB1236C3850A82F58312346E7B
:1035F800120BEA8A088B09EA450970030236B57589
:103608000E008071850C82850D83E06401704F8EF9
:10361800828F83A3A31219D88E828F83A3A3A3A317
:10362800E0F51275130078121219C1EE2405F5128F
:10363800EF3400F51378121219C1123468120C080D
:10364800740612176DE9F50F6014850C82850D83D9
:10365800E4F0123F1D8510828511831236DC7C1739
:103668007D007900EEFAEFFB1204A68E828F83E4C8
:10367800F0A3F0050E9004EDE0F8E50EC398501E97
:10368800E50E75F017A4F8A9F0850882850983A3CB
:10369800A31240AA1236C9EC4D600302360C850805
:1036A8008285098374FFF0A3F0E50F700612346871
:1036B800120878A90F02345FF50AEF3400F50B22DF
:1036C800A3E0FCA3E0FD228E828F83123F25850EA6
:1036D80082850F83E8F0A3E9F022C082C0839004BA
:1036E800E9E06A7003A3E06B70067AE97B04800462
:1036F8007A007B000229CFC082C08378008C828D3B
:1037080083E06A7003A3E06B7010E875F003A4F817
:10371800A9F0EC28FAED39FB8015088C828D83A37B
:10372800A3A3E06A7003A3E06B60DF7A007B00026A
:1037380029CF74F61217AE120BB48A828B83E582F6
:10374800458370067A007B008007A3A3A3A31234E5
:103758006E023DCE74F21217AEE9FE740E1217A275
:103768001237B774101217A2123C2F8C828D83E087
:1037780064027036A3123F2BF50CA3E0F9A80C7471
:10378800026870037429697021750C02750D007840
:103798000C1219C178081219C1780A1219C1EEF968
:1037A800120C2C740612176D80027901023E52E049
:1037B800F50AA3E0F50B2274E81217AE74FB121792
:1037C80057E9851882851983F08A168B17ECFEED68
:1037D800FF751000741D1217A2123F21741D1217D5
:1037E800A21236DC8E828F83A3A3A3E0A2E4502D1D
:1037F800741D1217A212346E120BF68A828B83E59F
:103808008245837003023C00790AEEFCEFFDAA169C
:10381800AB171217ACE9F5106003023C03741F12D2
:1038280017A2123C2F74211217A21237B774231251
:1038380017A2E0F50EA3E0F50F8E828F83E06402F5
:103848006003023BAEA3123F21850882850983A34A
:10385800858212858313EE2406122BF188828983D0
:10386800E0FAA3E0F9EA2400F514E439F515781430
:10387800121A4B010000280128A338070002286803
:10388800390328D53800299F3A0129CA3A02296BF9
:103898003A03299F3A0429493BAE3BE50E450F60A0
:1038A80003023BA9850C82850D83123C24FAE9FBAF
:1038B8008A828B83E0850A82850B83123C5A12190F
:1038C800C18A828B83A3E0FCA3E0023B33E50E456B
:1038D8000F6003023BA9850A82850B837401F012ED
:1038E8003C37850882850983F07C007D008E828FB5
:1038F80083A3A3A3A3E02401FAA3E03400FB120AE4
:10390800E2EA4B60418A828B83E02402F8850A82CE
:10391800850B83E028F0EA2404F8EB3400F9888268
:103928008983E0851282851383123C6C123C5A12FB
:1039380019C18A828B831236C8E5082403FAE5097F
:103948003400FB023B38850A82850B83E02404F0AF
:103958007C047D007900AA12AB131204A6023C0372
:10396800E50E450F6003023BA9123C37FEA3E0FFBA
:10397800850A82850B837404F0EE850882850983A5
:10398800F0EF851282851383F074031217A2AC82BC
:10399800AD83EEFAEFFB120AE28A0C8B0DEA450DB5
:1039A8007003023A4C8A828B83A3A312287A74018B
:1039B8001217A285820E85830F780E1219C174051D
:1039C8001217A21219D87CFF7DFF120AE87404129C
:1039D800176D8B0FEA450F7033850C82850D8312A6
:1039E8003C0F1219C1850C82850D83A31219D87C4E
:1039F800027D007A1C7B90120914740412176DE979
:103A0800700A74011217A274FFF0A3F08E828F83DC
:103A1800E064027039750C02750D00780C1219C13A
:103A28008E828F831236C8E5082404FAE50934002B
:103A3800FB12048E740212176D850A82850B83E0CF
:103A48002402800974011217A2EEF0A3EFF07401AA
:103A58001217A2123C20F074011217A2A3123C18EC
:103A6800023BA3E50E450F6003023BA9850C828546
:103A78000D831236C9AA16AB17120C20850A828547
:103A88000B837402F0EA850882850983F085128227
:103A9800851383EB023BA6E50E450F6003023BA9A5
:103AA800123C37F8A3E0F9850A82850B837402F08B
:103AB800E8850882850983F0E985128285138302E7
:103AC8003BA6850C82850D8312346E120488EAFCAD
:103AD8008C82A882C3950EE4950F405FE8650E704E
:103AE80002E50F70047C008022851882851983E026
:103AF800FAE50E2AFAE50F3400FBC3EA98EB9400C6
:103B08005003E08005E50ECCC39CFCEC850A828559
:103B18000B83F08C0A750B00780A1219C1850C8288
:103B2800850D83E0250EFCA3E0350FFDAA08AB093F
:103B380012048E740212176D023C03751007023CC2
:103B480003E50E450F705A850C82850D83123F21BF
:103B5800850A82850B837407122886123C1812285E
:103B680086A3E0851282851383F0E82402FAE934FB
:103B780000FB8A828B83123C18123C47123C20A31C
:103B8800123C50123C29F0E82405F8E93400F98881
:103B9800828983123C29A3123C6CA3A3A3A3F080BF
:103BA8005A75100B8055741D1217A212346E120B21
:103BB800B48A828B83E5824583603D123F21880C5D
:103BC800890DE8450D6031780E1219C1780A12196D
:103BD800C178081219C174061217A2E0F9EEFCEFB9
:103BE800FDAA16AB17850C82850D831217AC7406D7
:103BF80012176DE9F510800375100EA910740512DF
:103C0800176D7F10021880E0F50E750F00780E22F0
:103C1800E085088285098322123C7622123F25E836
:103C280022123C76A3A322E0F508A3E0F509228539
:103C38000C82850D83E0F8A3E0F5838882E022A357
:103C4800A3F08A828B83A322F088828983A3A3A30B
:103C5800A322F08A828B83123C6322E0F50A750B5B
:103C680000780A22F088828983A3123C7622E085B4
:103C78000882850983A3A32274EE1217AE74FE127C
:103C880017578A0A8B0BECFAEDFB74141217A2E093
:103C9800F510A3E0F51174161217A2E0FE741812BD
:103CA80017A2E0F50EA3E0F50F851882851983ACFD
:103CB80082AD83120AE28A0C8B0DEA450D604985B4
:103CC800188285198312346E120BB48A828B83E5AD
:103CD800824583602FA3A3123C2FE5084509602481
:103CE800780E1219C178101219C1EEF9AC0CAD0D8D
:103CF800AA0AAB0B8508828509831217AC740412D3
:103D0800176D8006790E8002790102310874F61267
:103D180017AE74FE121757740C1217A2123C2485A2
:103D28001882851983F074011217A2E9F0E4F508E6
:103D3800F50978081219C175080278081219C174B2
:103D4800041217A285820885830978081219C112FE
:103D58000C08740612176D740212176D806874F7D8
:103D68001217AEEAFEEBFF89087C207D05120C20B5
:103D7800EA5402600BA908EEFAEFFB120AD6800299
:103D8800790102278274F61217AE74FF6A70037401
:103D9800FF6B70168C828D83123DD3E4F08C828D7C
:103DA80083A3A3A3123DD3A38018120BF08A088B18
:103DB80009A808A909E849600D8882898374FF1257
:103DC8002884A3A3E4F07F0202188074FFF0A3F014
:103DD8008C828D83A3A32274F61217AE120BF08A7D
:103DE800828B83E58245836006A3A3E0FA80027A8A
:103DF800007B0080D174F21217AE8A088B09ECFEA2
:103E0800EDFF740E1217A2E0F50A120BF08A0C8B64
:103E18000DA80CA90DE8497026EEFCEFFD7AFF7B92
:103E2800FF120BF08A0C8B0DA80CA90DE849700441
:103E38007911801688828983E508F0A3E509F0885E
:103E4800828983A3A3E50AF079007F0602188074AB
:103E5800EE1217AEEAFEEBFF8C088D09890C74147C
:103E68001217A2123F2174161217A212346E750D82
:103E780000E8496003023F157402650C6003023FC5
:103E88001074121217A2123F2BFCA3E0F9EC2400C5
:103E9800F50EE439F50FEAF4F8EBF4F9EC58F8E527
:103EA8000F59F9E849705CE5082406F8ED3400F983
:103EB800880A890B8882F583123F36120C208A10F3
:103EC8008B11E50E65107004E50F65116042780EE0
:103ED8001219C1850A82850B83123F36120C26748B
:103EE8000212176DE9F50D7027780E1219C18508B1
:103EF80082850983A3A3123F34120C3E7402121761
:103F08006D800D750D808008750D0D8003750D0B86
:103F1800A90D0235CD8E828F83123F2522E0F8A3AA
:103F2800E0F922123F2588828983E022A3A3E0FCDE
:103F3800A3E0FDEEFAEFFB2274E81217AE74E71265
:103F48001757851882851983EAF0A3EBF08C168D34
:103F580017890E75080075090074311217A2E0F56B
:103F680012A3E0F51374331217A2E0F514A3E0F5D9
:103F78001574351217A2E0F50FE50975F003A4F8DA
:103F8800A9F08518828519831240AAE0F47003A36A
:103F9800E0F4700302408DEE2402F50CEF1240A00D
:103FA800E0700302408D85160A85170B780A1219EE
:103FB800C1AC14AD15AA12AB13120BA874021217D8
:103FC8006D8A0A8B0BEA450B700302408DE4F510ED
:103FD800F51178101219C174061217A2858210857E
:103FE800831178101219C174091217A285821085DD
:103FF800831178101219C1851282851383A3A3A394
:10400800A31219D87914AC0AAD0B8E828F8312349F
:104018006E120C02740812176DE97069850A8285A0
:104028000B83A3A3A3A3123F2174021217A2123673
:10403800DC850C82850D83E0A2E05018A90E74027D
:104048001217A2AC82AD838E828F8312346E120A4D
:10405800FAE94208850C82850D83E0A2E15026E545
:104068000FF50A780A1219C5A90E74031217A2AC23
:1040780082AD838E828F8312346E120AF474011219
:10408800176DE942080509E509C394025003023F88
:1040980081A9087419023C073400F50D850C82F5D6
:1040A8008322E028FEA3E039FF8E828F832274F2F8
:1040B8001217AEEAFEEBFF890B7401650B600E74F4
:1040C80002650B706A7901120E00E97062EEFAEF70
:1040D800FB120BEA8A088B09EA45096047750A0052
:1040E800800B7C177D0079001204A6050A9004ED68
:1040F800E0F8E50AC3985021E50A75F017A4F8A975
:10410800F0850882850983A3A3E028FAA3E039FB98
:104118008A828B831229D670C9850882850983749F
:10412800FFF0A3F07C207D05EEFAEFFB120C1A02DB
:104138003E5274F21217AE8A088B09ECFEEDFF743A
:104148000E1217A21237B7900C3FE0F4603D7A09BF
:104158007B001204B2EA4B60328A828B8374B1F01E
:10416800A3E4123C49A3123C47A3E508F0A3E509E0
:10417800124196EEF0A3EF124196A3A3E50AF0A32D
:10418800E50BF0900C3FE0F91204BE023E52F08AB3
:10419800828B83A3A3A3A3A32274F01217AE74FA8D
:1041A800121757890BECFEEDFF750A008A088B0978
:1041B8007808121A05000410D443E44102421C4254
:1041C800344252426A428D42A542B942E3426B43AD
:1041D8007C439343AE43D443D443F9427401650B03
:1041E80060030243CF8E828F83E0F8C394034003B9
:1041F8000243CFE89009F10243AB7402650B6003F8
:104208000243CF8E828F83124AD19009F2E8F0A33D
:10421800E90243AB7401650B60030243CF1243FC10
:1042280040030243CFE89002A70243AB7401650B39
:1042380060030243CF8E828F83E0F8C39405400366
:104248000243CFE89002A80243AB7401650B6003F8
:104258000243CF1243FC40030243CFE89002A90275
:1042680043AB7410650B60030243CF7508107509E2
:104278000078081219C17AAA7B0212048E740212FD
:10428800176D0243F57401650B60030243CF1243B7
:10429800FC40030243CFE89002BA0243AB740165C5
:1042A8000B60030243CF8E828F83E09009F50243AF
:1042B800AB7404650B60030243CF8E828F83780C46
:1042C800121627908FB3780C12145950030243CF5B
:1042D8009002BC780C1216360243F5E960030243DB
:1042E800CF120A82E97005120626806090034F807B
:1042F8006E7407650B60030243CF750806750900E5
:1043080078081219C18E828F83A3AC82AD837402A0
:104318001217A2AA82AB83120494740212176D7C3E
:10432800007D00851882851983AA82AB838E828FCF
:1043380083E0F91205CCE9F508C3940A4003024367
:10434800F2120A82E9700CA90812062C7950120799
:104358009A806F74502508F58274033400F58374CD
:104368000180407401650B705E1243FC5059E8905F
:1043780002BB802F7401650B704D8E828F83E0F82D
:10438800C3940A5042E89009F480187401650B70D0
:10439800368E828F83E0F874F928C3940A5028E88F
:1043A8009009F6F080477401650B701B90034EE08E
:1043B800F88E828F83E090034EF0E87030E064015D
:1043C800702B12061A8026750A188021C3EA9427D2
:1043D800EB940050157402650B700F8E828F831258
:1043E8004ED0120920E9F50A8003750A02A90A7459
:1043F80006024AC68E828F83E0F8C394022274F0C4
:104408001217AE74CC1217578C0A8D0B7420121722
:10441800A2AC82AD8375838F75824C740612166ABE
:1044280074201217A2AC82AD831205CCE9F508748A
:10443800441217A2E0FEE9C3940A400302457475CA
:10444800F006E9A4F50974261217A2AC82AD837AA6
:104458000E74202509F9120794E9700974321217AD
:10446800A2E0FF80027F009009F1E064027004740A
:10447800018001E4F50D780D1219C5EEFDEFFCA9D8
:1044880008AA0AAB0B120650740112176D7C147D32
:10449800007900740C1217A2AA82AB831204A674C6
:1044A8000C1217A2AC82AD837A1074242509F91274
:1044B8000794E9703C7C1079FF740C1217A2AA8249
:1044C800AB83120506E97029741C1217A2AC82ADE1
:1044D800837A0474252509F9120794740C1217A21B
:1044E800AC82AD83EFA2E0E433F9AA0AAB0B120960
:1044F800AA851882851983AC82AD837A0C747025DD
:1045080008F9120794E97053851882851983AA82DD
:10451800AB831205FC750800E50875F003A4F8A93B
:10452800F0851882851983E58228F8E583124CDA2C
:10453800124ECA601D88828983A3A3E0F50E750F09
:1045480000780E1219C1AA0AAB0B120C0E740212D3
:10455800176D0508E508C3940440BDEFA2E1500CAF
:104568009002A6E0F9AA0AAB0B120C1474046E7040
:10457800279009F1E06402701F7A009002BAE060A7
:10458800010A9002A7E06004780480027800E84AF3
:10459800F9AA0AAB0B120A6A79007434024AC67483
:1045A800F01217AEEAFEEBFF8C088D09750A0AE9CE
:1045B800600C1460091460371460790246561206BC
:1045C8000EE9F50AC3940A4003024656E508450970
:1045D800607C750E06750F00780E1219C1EEFCEF9F
:1045E800FDAA08AB0912048E740212176D805F755C
:1045F8000B00750E06750F00780E1219C1EEFCEF50
:10460800FDE50B75F00EA4F8A9F074C828FA740239
:1046180039FB1204A0740212176DE9600C850B0AAD
:10462800E50AC3940A50278016050BE50BC3940AC4
:10463800501C80BE120614E9F50AC3940A500FE50F
:104648000845096009AA08AB09A90A120608A90AB7
:10465800024AC974F41217AE890875091574FF6AFD
:10466800700374FF6B70277E00AC087A027B00EE43
:10467800F91205EAE960037509000EEEC3940A40D1
:10468800E8E50860537A3E7B06120E12804A120D46
:10469800F48A0A8B0BAE0AAF0BEE4F60387C007DB4
:1046A80000EE2405FAEF3400FB8E828F83A3A3A3C8
:1046B800A3E0F91205CCE9C3940A500CAC087A02BD
:1046C8007B001205EA750900E508600CEEFAEFFBBD
:1046D80012063E8003750914A9098005740E121785
:1046E8006D7F0402188074F21217AEECFEEDFF75B0
:1046F8000815740E1217A2E0F50AA3E0F50B74FF73
:104708006A700374FF6B7021750900AC0AAD0BEE7B
:10471800FAEFFBA9091205F0E9600375080005091D
:10472800E509C3940A503F80E2120DF48A828B8314
:10473800E5824583602D7C007D00E5822405FAE54D
:10474800833400FBA3A3A3A3E0F91205CCE9C39427
:104758000A5013AC0AAD0BEEFAEFFB1205F0750820
:10476800008003750814A90802550CC082C0839004
:1047780002C0EAF0A3EBF09002A6E0FC7D007A26E6
:104788007B001209209002A6E0F9120B8A025367F7
:1047980074F01217AE74EC121757EAFEEBFFEE2412
:1047A8000CF50CEF3400F50DEE2405F50EEF340092
:1047B800F50FEE2409F50AEF3400F50BEE2403F5A6
:1047C80008EF3400F5098E828F83A3A3E024FA70E2
:1047D80003024A6A24FD70030249851470030248E3
:1047E8007114601024FD700302495C1470030249BF
:1047F800B9024AC21257076048E0F5838882124A14
:10480800D1880E890FE8450F6037850C82850D83A6
:10481800E0F50C780C1219C5EE240BF582EF124C5A
:10482800A1F9850A82850B83124ED00A0A0AAB09C0
:10483800850E82850F831217AC740112176D024A18
:10484800C2850A82850B831219D89002BC121645BC
:104858001209BC740212176DE97003024AC2790189
:10486800850A82850B83024A358E828F83A38582CF
:104878000A85830BE0600302493F850E82850F831A
:10488800E0A2E0400302493F90035A12570A60032E
:1048980002493F7C0E7D007900851882851983AA1C
:1048A80082AB831204A6850C82850D83125332EAEB
:1048B8004B6010750C06750D00780C1219C1EA24AE
:1048C80010801B12532C120DF4EA4B7003024AC2DB
:1048D800750C06750D00780C1219C1EA2405FCEB5D
:1048E8003400FD74021217A2AA82AB8312048E74DC
:1048F8000212176D850E82850F83E0A2E25004D262
:10490800F08002C2F0A2F0E433F8740C1217A2E0AF
:1049180048F0EEFCEFFD851882851983AA82AB83E7
:10492800120602E970117A027B009002A6E0F912E1
:1049380004E27900024AC41257077003024AC212FD
:104948004AD77003024AC2850A82850B83E0FC7944
:1049580001024A5E1257077003024AC2124ACE8900
:104968000BE8450B7003024AC28E828F83A3E0FCDA
:10497800790212532C8882850B83024A657C007D5C
:1049880000EE2404FAEF3400FB850882850983E0F1
:10499800F91205CCE9F8C3940A4003024AC2EE248E
:1049A8000AFCEF124EA6E8A42425F912078E024A43
:1049B800C212532C9002BBE060079009F4E0F98022
:1049C8006F9009F1E0700479058065120DF48A0C86
:1049D8008B0DA80CA90DE82404F50CE93400F50D9D
:1049E8008E828F83A3A3A3A3A3A3A3E0A2E0504630
:1049F800E8497003024AC2850C82850D83E0FE6097
:104A080035850A82850B83E05410702A740E1217BC
:104A1800A2AC82AD83E82405FAE93400FBEEF91272
:104A280005CCE97011790385088285098312533210
:104A38001209B6024AC2AC0EAD0F850C82850D83F1
:104A4800E0F912532C12064A125707606D124AD722
:104A580060687C00790012532C8E828F831217AC09
:104A68008058120A82E9705290034FE06401701571
:104A780012062690034FE4F07C0AFDF97A507B0376
:104A88001204A6802D750A00850A0874502508FEB0
:104A980074033400FF8E828F83E06401700BA90ACF
:104AA80012062C8E828F83E4F0050AE50AC3940A65
:104AB80040D6795012079A12061A790174141217FF
:104AC8006D7F08021880124AE6E0F8A3E0F9221286
:104AD8004AE6E0F8A3E0F9E8FEE9FFEE4F22E0F548
:104AE800838882A3A32274F41217AE74F2121757A4
:104AF800EAFE8C0B75F006E9A42420F508851882D7
:104B0800851983AC82AD837A0EF9120794E9705740
:104B18007C0679FF851882851983AA82AB831205E2
:104B280006E97043740C1217A2124AD1E8F509E598
:104B38000B6005EE42098004EEF45209850982AA49
:104B480082E86A7001E9601B740C1217A2EAF0A3EC
:104B5800E4F0851882851983AC82AD837A0EA908A2
:104B680012078E7901800279000246E474F2121766
:104B7800AE74E6121757890A8A088B09ECFEEDFF16
:104B8800740C1217A2AC82AD837A0E75F006E9A4F4
:104B98002420F9120794E96003024C947C0679FFFB
:104BA800740C1217A2AA82AB83120506E9600302ED
:104BB8004C947470250AF50B851882851983AC828C
:104BC800AD837A0CF9120794E96003024C908518BA
:104BD80082851983AA82AB831205FCE50845097012
:104BE8002C7C0C7900851882851983AA82AB8312E4
:104BF8000506E96003024C907C0C7D00790085185D
:104C080082851983AA82AB831204A6805D851882E7
:104C1800851983AC82AD83AA08AB091205F68A0C04
:104C28008B0DA80CA90DE8497028EE4F605E851819
:104C380082851983AC82AD837A007B001205F6EA7F
:104C4800F8EBF9EA4B604588828983E508F0A3E52B
:104C580009F0124C9BFAEE6A7001EF602BEEF04FF0
:104C6800700888828983E4F0A3F085188285198307
:104C7800AA82AB831205FC851882851983AC82ADA4
:104C8800837A0CA90B12078E790180027900741AB5
:104C9800025509E82402F582E93400F583E022741C
:104CA800F71217AE7F00EF75F003A4F8A9F0EC280F
:104CB800F8ED124CDAE06A7003A3E06B7006E8FACC
:104CC800E9FB800B0FEFC3940440DB7A007B000202
:104CD800508539F9888289832274F71217AE7E00CD
:104CE800EE75F003A4F8A9F0EA28F8EB124CDAE024
:104CF800F4FCA3E0F4FD88828983ECF0A3EDF012C4
:104D08004C9BF4F00EEEC3940440D502508574F227
:104D18001217AE74F4121757EAFEEBFF8C088D09D0
:104D280090035A12570A7051EE4F7003024E9FECCF
:104D380045097003024E9F12060EE99009F7F0C369
:104D4800940A4035750B007C0679FFE50B75F00E6B
:104D5800A4FAABF074C22AFA74023BFB120506E906
:104D68006005850B0A800C050BE50BC3940A40D738
:104D7800750A0AE50A9009F7F09009F7E0C3940A62
:104D88004003024E9F75F006E0A4FB90035A1257A9
:104D98000A706FEEFCEFFD7A0E74202BF912078E65
:104DA8007C0C7D0079FF851882851983AA82AB83E4
:104DB8001204A6851882851983AC82AD837A0C907B
:104DC80009F7E02470F912078E750C0E750D00783E
:104DD8000C1219C1EEFCEFFD9009F7E075F00EA476
:104DE800F8A9F074C228FA740239FB12048E74020E
:104DF80012176D90035AE508F0A3E509F07900024F
:104E08004EA1E0C82406124EC3601A7A1B74212BE7
:104E1800F912078E124EAF2406F582E83400F583A6
:104E2800E4F0A380D7124EAF240A124EC360107A62
:104E38001B74222BF912078E124EAF240A80DA1245
:104E48004EAF240C124EC360107A1074232BF91243
:104E5800078E124EAF240C80C0124EB8124EC3609B
:104E68002A7A1074242BF912078E124EB8F582E8AC
:104E7800124CA12410FCA3E0124EA69009F7E0A45E
:104E88002425F912078E124EB8808E90034EE060EA
:104E9800031206561206447901740C0255093400AF
:104EA800FD7A0475F0062290035AE0F8A3E0C822C0
:104EB80090035AE0F8A3E0C8240822F582E83400F9
:104EC800F583124ED0EC4D22E0FCA3E0FD2274F4F1
:104ED8001217AE74F2121757EAFEEBFFE9C3940AF1
:104EE8005004EE4F70047902803E8518828519833C
:104EF800AC82AD837A0E75F006E9A42420F9120776
:104F080094E9F5087020750A06750B00780A1219DD
:104F1800C174021217A2AC82AD83EEFAEFFB120441
:104F28008E740212176DA9080246E474F41217AEC3
:104F3800EAFEEBFF750800750A06750B00780A1281
:104F480019C1EEFCEFFDE50875F00EA4F8A9F074A0
:104F5800C228FA740239FB1204A0740212176DE910
:104F68006004A908800B0508E508C3940A40C879BD
:104F78000A0246E974F71217AE74F0121757EAFEE0
:104F8800EBFF750800851882851983AC82AD837A9A
:104F98001075F006E508A42423F9120794E9702C8B
:104FA8007C1079FF851882851983AA82AB83120544
:104FB80006E97018EEFCEFFD851882851983AA8230
:104FC800AB8312098CE97004A908800B0508E50871
:104FD800C3940A40B0790A741012176D0250857490
:104FE800F71217AE750800E50875F00EA4F8A9F0D9
:104FF80074C228FE740239FFEEFCEFFD7A0E75F0DC
:1050080006E508A42420F9120794E9602C7C067DA3
:105018000079FFEEFAEFFB1204A67C067D0079FF0B
:10502800EE2406FAEF3400FB1204A6EE240CF582F7
:10503800EF3400F583E4F0A3F00508E508C3940A0B
:1050480040A590034EE06003120656120644802DD8
:1050580074F71217AE7E007F007C0679FFEF75F0BB
:105068000EA4FAABF074C22AFA74023BFB120506CE
:10507800E970010E0FEFC3940A40DEEEF97F0102DA
:10508800188074F71217AE7E00EEF912062C0EEE99
:10509800C3940A5003E960F180E374F31217AE7405
:1050A800CB121757E9FE9009F7E06E701B7A017B67
:1050B800009002A6E0F91204E87A027B009002A6AA
:1050C800E0F91204E812066275F006EEA4FF7420F7
:1050D8002FF50874271217A2AC82AD837A0EA9089F
:1050E800120794E960030251DC7C0679FF742712E9
:1050F80017A2AA82AB83120506E960030251DC7C81
:105108000E7D0079FF74271217A2AA82AB831204BE
:10511800A67C1B7D0079FF740C1217A2AA82AB83B0
:105128001204A67C0C7D0079FF851882851983AA54
:1051380082AB831204A674271217A2AC82AD837ABD
:105148000EA90812078EE9F508740C1217A2AC8292
:10515800AD837A1B74212FF912078EE9F509740CB7
:105168001217A2AC82AD837A1B74222FF912078E14
:10517800E9F50A740C1217A2AC82AD837A10742375
:105188002FF912078EE9F50B740C1217A2AC82AD39
:10519800837A1074242FF912078EE9F50C740C1217
:1051A80017A2AC82AD837A0474252FF912078EE911
:1051B800FF851882851983AC82AD837A0C74702EB2
:1051C800F912078EE9F8E509450A450B450C4F48E1
:1051D80042088003750800A908743512176D7F0509
:1051E80002188074F71217AEE99002A6F012061A98
:1051F80002508574F41217AEEAFEEBFF5480700378
:105208000252939002A6E0F91204CA8A088B09EAAE
:105218004509607078018A828B83E02450603D14D0
:10522800600624E1604F8052A3A3A3A3E0704E8AD6
:10523800828B83A3A3A3A3A3A3A31219D88A828BC7
:1052480083A3A3A3A3A3124ED08A828B83A3A31202
:1052580053321205D8740212176D8021A3A3A3A399
:10526800E0641E701879008A828B83A3A3125332DC
:105278001205D280081205E4E9F8E86007AA08AB2D
:10528800091204B8EEFAEF64808065EE54026023D8
:105298007C007D007A007B00120602E960117A0129
:1052A8007B009002A6E0F91204E2EE6402803F7AE5
:1052B800028046EEA2E0503F125306125332120605
:1052C8005CE9602F125707601F124ACE88088909C7
:1052D800E8450960137C00790112530612533285A0
:1052E80008828509831217AC120662EE6401FAEF90
:1052F800FB80087A0180027A007B000246E990036D
:105308005AE0F8A3124AE6A3227F02021880C0825C
:10531800C0839002A6E0F98A828B83A312533212CB
:105328000C14803B850882850983E0FAA3E0FB2200
:10533800C082C08374FF121757120620E9C3940273
:10534800851882851983400474028002740AF0ACBF
:1053580082AD837A017905120A9A740112176DD009
:1053680083D08202013574F21217AE74E81217570F
:10537800EAFEEBFF890A8C088D097C187D0079000C
:10538800851882851983AA82AB831204A6851882A0
:10539800851983EEF0A3EFF09002A8E0C0E0740254
:1053A8001217A2D0E0F09002A9E0C0E0740312172F
:1053B800A2D0E0F09009F6E0C0E074171217A2D06E
:1053C800E0F074151217A2E054FEF8A3E0F9900972
:1053D800F5E0A2E0E433FAE84AF874151217A212CD
:1053E8005518A2E15004D2F08002C2F0E854FDFA48
:1053F800A2F0E43333F8EA48F874151217A21255EC
:1054080018A2E35004D2F08002C2F0E854F7FAA2DE
:10541800F0E433F50C750D007403780C1217441280
:1054280055111217A2125518A2E45004D2F08002A6
:10543800C2F0E854EFFAA2F0E433F50C7404780CE7
:105448001217441255111217A2125518A2E550044A
:10545800D2F08002C2F0E854DFFAA2F0E433F50C8F
:105468007405780C1217441255111217A212551808
:10547800A2E25004D2F08002C2F0E854FBFAA2F093
:10548800E433F50C7402780C1217441255111217F4
:10549800A2E8F0A3E9F09002A9E0601D750C10786D
:1054A8000C1219C17CAA7D0274061217A2AA82AB3B
:1054B8008312048E740212176D9002BAE06011E52F
:1054C8000A600974151217A2E04402F078018002FC
:1054D800780074141217A2E048F09002A7E0600464
:1054E80078048002780074141217A2E048F0AC081F
:1054F800AD09851882851983AA82AB831209B07415
:105508001812176D7F06021880EA450CF8741522E8
:10551800E8F0A3E9F09009F5E02274F31217AE74ED
:10552800E5121757EAFEEBFF8C098D0A742812174B
:10553800A2E0F50C75F006E9A4F87408650A700491
:1055480074228002742128F50B7C1B7D007900856C
:105558001882851983AA82AB831204A685188285CE
:105568001983AC82AD837A1BA90B120794E97032B8
:10557800741A1217A2E024F9C3940A5025E50CF511
:105588000B780B1219C574011217A2AC82AD83E512
:1055980009A2E0E433F9EEFAEFFB1209C274011232
:1055A800176D741B0251E374F71217AE120C8C7549
:1055B8000800E50875F00EA4F8A9F074C228FE7476
:1055C8000239FF7C0679FFEEFAEFFB120506E97057
:1055D80009EEFAEFFB7900120C920508E508C3946E
:1055E8000A40CF02508574F61217AE74FD12175791
:1055F800EAFEEBFF90035C12570A703975085E7576
:10560800090378081219C17508027509007808128B
:1056180019C175081675099078081219C17CFF7DA3
:10562800FF7A017B00120ADC740612176D90035C86
:10563800EAF0A3EBF090035C12570A70030256F1EC
:10564800E4F508F50978081219C174041217A2853F
:10565800820885830978081219C174041217A28573
:10566800820885830978081219C190035E1219D837
:10567800790290035C1256FF120C02740812176D1F
:10568800E97034851882851983E0FA74011217A22B
:10569800E0F9EA2400F508E439F509EA4509601754
:1056A80078081219C190035C125309A31256FF120D
:1056B80005D8740212176DE4F508F509780812196F
:1056C800C190035E1219D87CFF7DFF90035C1253D2
:1056D80032120AE8740412176D90035CEAF0A3EB27
:1056E800F090035C12570A70047901800279007403
:1056F8000312176D025311124ED0EEFAEFFB2290EF
:1057080002C0E0F8A3E0F9E84922C082C083900310
:105718005A12570A601090035A1253321204B89062
:10572800035AE4F0A3F09009F7740AF0025367C033
:1057380082C0839061907404F0A37448F0A3E4F0ED
:105748009061807440F09061BC7407F09061877438
:1057580069F09061B67416F07900120EFC790212A5
:105768000F02902738E493F46006E493F9120ED8F8
:105778007905121202025B32C082C083E9540FF924
:10578800906185E0696012E5C654804449F5C6E534
:105798009E547F644970F8E9F053C680E59E547FB3
:1057A80070FA025B3274F71217AEE5A8FE53A87EB2
:1057B800120EE4C2BA539AFEC289759B00C2C21285
:1057C8000EEA75A91175B905120EF0D2BA439A01FD
:1057D80074805E42A80260C9C082C083906181E47F
:1057E800F0A3025B2F75E90075910075BF000201F7
:1057F80035C082C083906181E4F0A374C0F0A3E453
:10580800025B31C082C08374F81217579005AB123F
:105818006A6270030258EA9005ABE054406023794D
:1058280008851882851983AA82AB83120FF8851818
:1058380082851983AA82AB83120CB09005ABE05421
:10584800BFF0E054806010790C7A6C7B07120FF877
:105858009005ABE0547FF0E0A2E0500F7900120E03
:10586800FC120CB69005ABE054FEF0E05402600F59
:105878007901120EFC120CB69005ABE054FDF0E075
:105888005404600F7900120F02120CBC9005ABE0B3
:1058980054FBF0E05408600F7901120F02120CBC9F
:1058A8009005ABE054F7F0E05410600F7902120F46
:1058B80002120CBC9005ABE054EFF0E05420600FEE
:1058C8007903120F02120CBC9005ABE054DFF0A371
:1058D800E05401600D120F0E120CC29005ACE0549A
:1058E800FEF0740812176D025B32C082C083E96053
:1058F8000514602A804F90619A7433F0A37455F0B0
:105908009061A0743AF0900746E064017009C29172
:105918009005AD7467802D9005AD74618026906107
:105928009A743FF0A3745AF09061A0747FF09007C6
:1059380046E064017009D2919005AD7471800590BC
:1059480005AD746AF0025B32C082C083E9600B1453
:10595800600D14601714600C802090273C8015900F
:10596800273D8010900746E06401700590273E802F
:105978000390273FE493906186F0025B3274EE1245
:1059880017AE74F4121757851882851983AC82AD47
:105998008375838F75827B740412166A90273C93F3
:1059A800F46003025AAF907808E0C39402500302EF
:1059B8005A8F74041217A2AC82AD8375838F7582D7
:1059C80020740812166AFC7EFF7FFF8E0C7D008C07
:1059D8008285820E800F74086D606D74096D606831
:1059E800740A6D60638D08750900740278081217CF
:1059F80044125AB9121627A909E50AC9F888107479
:105A0800187808121568E5104508FAE9FBE50EC391
:105A180033F8E433F974041217A2E58228F582E515
:105A28008339125FB9C3E89AE99B4008E8C39AF83A
:105A3800E99B8006EAC398F8EB99F9C3E89EE99FC9
:105A48005006E8FEE9FF8D0C0DEDC39413408774F2
:105A5800FF6E700374FF6F6024850C087402780869
:105A6800121744125AB9121627851882851983E528
:105A780082250EF582E583126458E508F00CECC324
:105A8800940450030259CF7508017509007808126B
:105A980019C174021217A2AC82AD837ACF7B0912A6
:105AA800069E740212176D740C12176D7F0A021885
:105AB8008074482508F58274783509F583780822BA
:105AC800C082C083906186E0F890273FE4936870B5
:105AD8000990273EE493906186F09061AE7468F077
:105AE800A3746AF090624574FBF0A304F053F4FDCC
:105AF80043FE029007467401F09061A0E0643A709A
:105B080004790080027901120EFC025B32C082C067
:105B1800839006F8E06401700A9006FDE06004795D
:105B28000C800279008003F0A3F0D083D0820201B8
:105B380035C082C08375E1F19006FBE0604D1460CA
:105B480009146051146049147050120F209006F126
:105B5800E0F97AF27B06121184908F7312164512BF
:105B680011BA908F871216451211909006FCE0F931
:105B780012119C79011211F6125C55241612645503
:105B88007438F0A3740FF07900809F120F2680BD3F
:105B9800120F2C80B8120F3280B3791280EB74F494
:105BA8001217AE75D90D9006DCE0A2E0E4331313AA
:105BB800F8125C4B484401F5D97800125CB840FBF8
:105BC8007800880874DD1269B87406125CC240F265
:105BD80075E1959006DCE0F97ADD7B0612118A9072
:105BE8000C6174AEF0A3740E125CC8125D0C125DE9
:105BF80003125E209006FBE064019006EF700B1222
:105C08005C5E121627908FE78009125C5E121627D9
:105C1800908F6B78081215B3908F8378081216014D
:105C2800125C55240E1264557808121636125C550B
:105C380024141264557413F09005A97402F07F04BB
:105C48000218809006F1E0C4333354C0229006EF66
:105C5800E0F8A3E0C8221268F078082274F6121758
:105C6800AE125DF18AD97800125CB840FB780080EA
:105C780006125D69125EA6E8C39940F5125DE3124B
:105C88005CB840FB780080081269B47407125EA6FD
:105C9800E8C39940F375E195900C6174BAF0A37468
:105CA8000E125CC8125CD27412F09005A902608DC5
:105CB800880874F22508F582740612602394062277
:105CC800125E0974B4F0A3740E22125D0C125D0307
:105CD800125E249006EFE0F8A3E0C8240E125CFBE5
:105CE80074FF12672D9006EFE0F8A3E0C8241412A1
:105CF8005CFB22F582E83400F58322F0A374CCF033
:105D0800A3740E22125D1022125D1422F0A3746493
:105D1800F0A374102274F61217AE125D5E125C4B7B
:105D28004402F5D97800125CB840FB78008006126E
:105D38005D69125EA6E8C39940F575E195900C611E
:105D4800125D74F0A3125D74125CD57414F09005A2
:105D5800A9740402608F900701E0F9740729F5D946
:105D680022880874022508F58274072274C6125D19
:105D780081125D81F0A3740E22F0A3740EF0A37457
:105D8800C62274F61217AE125DF174064AF5D97878
:105D980000125CB840FB78008006125D69125EA6AE
:105DA800E8C39940F5125DE3125CB840FB780080C7
:105DB800081269B47407125EA6E8C39940F375E146
:105DC80095900C6174C0F0A3740E125DFF125CD242
:105DD8007415F09005A9740302608F900721125D75
:105DE8006174044AF5D9780022125D5E9006F1E0EC
:105DF800C4333354C0FA22125E097464F0A37410D9
:105E080022125E0D22125E1A7464F0A37410125EE0
:105E18001A22125D14F0A322125E2422F0900C6F55
:105E28007464F0A37410125E0D7464F0A3741012FD
:105E38005D10F022C082C083125C5524061264559E
:105E4800E4025B2F74F71217AE9005D7E0F875F0EF
:105E580003A4C8AAF02AF974D928F8740539F9E80E
:105E68002405FAE9126903A3A3A3A3A3A3A3A3A3E5
:105E7800126A04A3A3A3A3A3A3A3E024FFF8A3E0A7
:105E880034FFF98A828B83E8F0A3E9F00260C97FC6
:105E9800060218808808744C2508F5827407126475
:105EA8002FF5D90822EAFEEBFF9061D0E0F8748064
:105EB800C398FAEE248222125EC5940422F582E980
:105EC8003400F583E0F5D90AEAC32274F61217AE56
:105ED800EAFEEBFF9061D0E06003025F6775D90EC0
:105EE80075D90375D9047A008A08EE25081269BDA8
:105EF800248B125F6C40F17A008A08EE250812693B
:105F0800BD2483125EBF40F175E1957908EE248BBC
:105F1800FAEF3400FB120FEC7904EE2483FAEF3425
:105F280000FB120FEC7C008C82AA82C3E49AF895DD
:105F3800E0F9EE28F8EF39F9E8248AF582E91264E5
:105F48002BC0E0EE2A1269BD24AAF582E912645832
:105F5800D0E0F00CECC3940840CD125F7580027954
:105F680000026090125EC594082275E195EE246FD8
:105F7800F582EF125CFE126A7FEE2471F582EF1251
:105F88005CFEE8F0A3E9F0790122C082C08375D9EC
:105F98000275D90375D90575E195EA246FF582EB89
:105FA800125FB7EA2471F582EB125F87025B323425
:105FB80000F583126A7F2274F61217AEEAFEEBFF31
:105FC80090074C740612602E1219C17C01790312D5
:105FD8001058740212176D75D90675D90378001216
:105FE800601340FB75E1959005A9E064087017EE11
:105FF800246FF582EF125FB7EE2471F582EF126419
:1060080058E8F0A3E9F079010260908808744C25FB
:1060180008F58274071260239405223400F583E0A2
:10602800F5D908E8C322F075084C750907780822E5
:1060380074F61217AEEAFEEBFF9061D0E070427979
:106048000190074C740BF09005A9E064077019756E
:10605800084C75090778081219C17C010909121042
:1060680058740212176D7905740129F5D975D90389
:1060780078008003125E9CE8C39940F8125F728032
:1060880002790080037401F07F0202188074F7120D
:1060980017AEEAFEEBFF75D90375D90375D90DEE76
:1060A80024DD1260BA75E19579041211C0125F758A
:1060B800800FF582EF12642FF5D922A2E092AF7912
:1060C800007F010218807F030218807401250AF5F9
:1060D800D975D90378002274F51217AE12615F6082
:1060E80004780480027800E8240BF8EAC398405545
:1060F800750A0990074C7409F07908126152120F59
:10610800E6850882850983E0601E75084C750907D5
:1061180078081219C17C097903EEFAEFFB121058BE
:10612800740212176D750A0D1260D38003125E9CFB
:10613800E8C3950A40F775E19579041211C0126217
:10614800D27901800279000260CEEE24E2FCEF34BD
:1061580000FD7A4D7B0722125EADF8EF12616822CE
:106168003400F9880889098882F583E02274F312DB
:1061780017AE8A088B091262DEFAE5082482F50A4E
:10618800EB1262356004780480027800E82408F88D
:10619800EAC398500302622E750C0690074C740CE3
:1061A800F09005C6E090074DF07402C0E0F97CC796
:1061B8007D057A4E7B07120FE6D0E0F97CC97D0594
:1061C800120FE6850A82850B83E0601E750A4C75FE
:1061D8000B07780A1219C17C067903AA08AB0912C1
:1061E8001058740212176D750C0A7401250CF5D934
:1061F80075D90378008009880A744C250A125EA2B2
:10620800E8C3950C40F175E19579041211C0E508D1
:10621800246FF582E509125FB7E5082471F582E578
:1062280009125F87800279007F050218803400F523
:106238000B850A82F583E02274F61217AEEAFEEBAC
:10624800FF1262DEFCEE2482F8EF12636160047ACA
:106258000480027A00EA2404FAECC39A40607A02C5
:1062680090074CEAF0EE24F4F582EF1262E8601B26
:1062780075084C75090778081219C17C027903EE74
:10628800FA121058740212176D7A0674012AF5D999
:1062980075D90378008003125E9CE8C39A40F875AC
:1062A800E195EE24731262CBEE247F1262CB126268
:1062B800D279041211C0EE240D125F7880027900A1
:1062C800026090F582EF12646722EE241DF582EFDA
:1062D800126467A3F0229061D0E0F87480C398221A
:1062E80012642F90074DF088828983E02274F61299
:1062F80017AE1262DEFEEA2482F8EB1263616004D4
:106308007C0480027C00EC2404FCEEC39C40457CA9
:106318000290074C7407F0EA24F5F582EB1262E864
:10632800601775084C75090778081219C1790312A6
:106338001058740212176D7C0674012CF5D975D9A2
:106348000378008003125E9CE8C39C40F875E195D1
:106358007901800279000260903400F9888289838B
:10636800E02274F51217AEE9FEA2AFE433F50AC2D3
:10637800AF7F00EA246EF8EB3400F980010F8882C1
:106388008983E0F508EFC3950850188F08EA2508B7
:10639800FCEB3400FDEC246AF582ED12642B6E7080
:1063A800DC8017EA2508FAEB3400FBEA246AF58258
:1063B800EB126458EE1262EE04F0E50AA2E092AF26
:1063C8000260CE74F61217AEA2AFE433FFC2AFEA92
:1063D800246EF8EB126795E014F07E0080218E0899
:1063E800EA2508F8EB1269BF246BF582E912642BE1
:1063F800C0E0E8246AF582E9126458D0E0F00E8C17
:10640800828D83E0F8EEC39840D4EA246DF582EBE0
:1064180012645874FF12645CEFA2E092AF026090BD
:10642800F582EB12642F223400F583E022C082C08B
:1064380083E5A8F8C2AFEA246AF582EB126458E94A
:1064480012645CE8A2E7A2E792AF025B32F582E849
:10645800125CFE22F0EA2469F582EB1264672234AA
:1064680000F583E4F02274F21217AE8C828D83A3B8
:10647800A3A3A3E0541FF0EA243612678B8E828F01
:1064880083E4F0F50C850C8285820AEC250AF8ED88
:10649800126168C0E0EA250AF8EB126503D0E0F063
:1064A800750D00850882850983E0F50A750B00E5FE
:1064B8000D780A121725E50AA2E0502AE50C3333B5
:1064C8003354F8250DC0E08E828F83E0F8EA28F86F
:1064D800EB1269BF2438F582E9126458D0E0F08ED7
:1064E800828F83E004F0050DE50DC3940840B405E0
:1064F8000CE50CC39405408D025E973400F9E8243E
:106508005DF582E9125CFE2274F61217AE9005D58D
:10651800E0640170030266117A009005DBE0600315
:106528000266117401F0A3E4F0A3F090063B04F0B6
:10653800900640F09005DE1267289005E804F09078
:10654800060EE4F09005F1126729A3F0A3F0A3F07A
:10655800900658F090064CF09006417480F0A3E441
:10656800F0900647F09006C31266189006CCF0909B
:10657800065BF09006AB126618A3F0A3F09006B77E
:10658800F09006B9F09006B5F09006CF1266188A1A
:106598000874431269B8740612645874FFF00AEA62
:1065A800C3940440EA7A008A82A88274E328F582B8
:1065B800740612642BC0E0743628F58274061264DF
:1065C80058D0E0F00AEAC3940540DC7A008A82A831
:1065D8008274BD28F582740512642BC0E074BB2850
:1065E800F5827406126458D0E0F00AEAC3940840B1
:1065F800DC9005D5E004F0640170089005DDE090BA
:1066080005D7F07AD97B0580047A007B0002609078
:1066180012672DA312672D22C082C083EA240312B9
:1066280064286008E4F09005D6E014F09005D5E001
:1066380014F070069005D774FFF08A828B83A3A3A9
:10664800E4F09006E8E0700D9005D6E0640170056E
:1066580079001211A2025B32C082C0839005DCE48B
:10666800F09005DBF09005D5F0A3F0A374FFF0756A
:10667800E1F1025B32C082C083780079009005DCCA
:10668800E0600478D9790588828983A3A3A3A3E06D
:10669800F9025B3274F61217AEEAFEEBFFEE2463E2
:1066A800F508EF3400F5098016AA08AB09120FDACD
:1066B80012071C9006E9E004F09006EAE004F08571
:1066C8000882850983126A6270DFEEFAEFFB120F07
:1066D80098EEFAEFFB12108E02609074F71217AE64
:1066E800EAFEEBFF8E828F83A3A3A3A3E0FA7B00CD
:1066F800120D04EEFAEFFB120FAA1210700260C915
:1067080074F61217AE7800880874BD1269B874055B
:106718001262CE08E8C3940840ED9005BD02608D72
:10672800E412672D22F0A3F0A3F0A3F02274F6126E
:1067380017AEEA240D12678BEC2403F8ED3400F948
:1067480088088909EC2407F8ED126795125FBB8564
:106758000882850983E0FAA3E0FB1216CC8E828FAB
:1067680083E8F0A3E9126A76850882850983E0FA4E
:10677800A3E0FB1216CC8B09EA450960031267A156
:10678800026090F8EB3400F9E8FEE9FF223400F9E2
:10679800E8FCE9FD8C828D83228E828F83E02401C0
:1067A800F0A3E03400F02274F61217AEEA242E1299
:1067B8006428FCA3E0FDEA246F12678B780079FA5D
:1067C800ECFAEDFB1216CC8E828F83E8F0A3E9F089
:1067D800780079FAECFAEDFB1216CC8B09EA450938
:1067E80060031267A102609074F01217AEEAFEEB24
:1067F800FF74101217A2780812162712114E8A0C6D
:106808008B0D8C0E8D0F908F67780C1215B3908FAF
:1068180083780C121601780C1219BD8E828F8312A0
:1068280068EC1216451224C3740412176DE960034C
:106838000268DC8E828F83E02402F8A3E01269BF2D
:10684800FAE9FB8A828B8378081215C6908F8378C1
:10685800081216278A828B837808121614EE240BE6
:10686800F582EF126458C082C0838E828F83A3A3FF
:10687800A3A3A3E02401F8A3E03400F9D083D082D5
:10688800E0687003A3E069700479018049EE240789
:10689800F8EF3400F9888289831267A5EE24731211
:1068A80068E37014EE24741268FB7003A3E06D7043
:1068B800078A828B831267A5EE247F1268E370141F
:1068C800EE24801268FB7003A3E06D70078A828B48
:1068D800831267A579007F08021880F582EF126499
:1068E8002F6401221268F022E0F8A3E0F583888281
:1068F800A3A322FAEF126903E06C223400FB8A8218
:106908008B83E0FCA3E0FD888289832274F312174D
:10691800AEE9FEECFFEA2462F582EB1268E660035A
:106928000269AF9061D0E0F508EA2482126428F584
:106938000C60047804800278007480C39508FC9584
:10694800E0FDEF28F8E41269BF2402F8E93400F901
:10695800EC98ED99A2D265D0334048740D1217A275
:10696800E0F50AA3E0F50BE50C6015780A1219C1E9
:10697800EFFCEEF9121058740212176D74042FFF11
:1069880074012FF5D98ED97800800C8808E50A1291
:1069980069B8E50B125EA6E8C39F40EF75E19579EB
:1069A8000080067907800279FF0262308808742225
:1069B8002508F58222F8EF3400F9E82274F7121757
:1069C800AEA2AFE433F508C2AFEA2402F8EB340014
:1069D800F98A828B83E0FEA3E0FFEE4F600E888287
:1069E8008983E0FAA3E0F5838A8280048A828B8314
:1069F800126A04126A0EF0E5080260C3ECF0A3ED17
:106A0800F08882898322ECF0A3EDF08C828D83E4F8
:106A1800F0A32274F71217AEEAFCEBFD7A007B00B4
:106A2800A2AFE433FEC2AF8C828D83126A62602209
:106A3800E8FAE9FB8A828B83125FBB126A68E4F08A
:106A4800A3126A76E849700A8C828D83A3A3E4F0C6
:106A5800A3F0EEA2E092AF0260C9126A7FE8492271
:106A68008C828D83E8F0A3E9F08A828B8322F08CF4
:106A7800828D83126A7F22E0F8A3E0F922C082C0E7
:106A8800838003126AB3E9F874FF28190470F4ECE0
:106A9800FAEDFB025B32C082C0838003126AB3E95D
:106AA800F874FF28190470F4025B328C828D83E03D
:106AB8008A828B83F08C828D83A3AC82AD838A8299
:106AC8008B83A3AA82AB832274EE1217AE9078034D
:106AD800E06442705590074BE014F0704DC2AF125D
:106AE8006AEA00782AD0E0F618D0E0F6E59F540765
:106AF80070057509FF800375097FC4C0E07829E631
:106B0800F50808E65509F509740B7808121735D009
:106B1800E02508F8906270E0A2E740F8E8C33390F7
:106B28006272F0906270E0D2E0F09005D7E0F874FD
:106B3800FF687003026DFCE812732C2401F582EFE4
:106B48003401127399EA4B600FEE2400F582EF349A
:106B580001F583E0F91204E2EE2405F8EF3400F9B8
:106B6800E8FAE9FB8E828F83A3A3A3A3A3A3A312AE
:106B7800780E8A828B83127358906054E09005B027
:106B8800F0906055E09005B1F0906056E09005B245
:106B9800F0906057E09005B3F0906058E09005B42D
:106BA800F0906059E09005B5F090605AE09005B615
:106BB800F090605BE09005B7F090605CE0FC9005B9
:106BC800B8F090605DE0FD9005B9F090605EE0F58A
:106BD8000C9005BAF090605FE0F50D9005BBF09061
:106BE80005B6E0F50E8C082508F8E43400F9850CA4
:106BF80008E82508F8E93400F98D08E82508F8E9D7
:106C08003400F9850D08E82508F508E93400F50988
:106C1800EE24F6F582EF3400126E2B8C82858210FA
:106C2800EE24F8F582EF126E17EE24FA126E0BEED0
:106C380024FE127371496034906000E0C333F50A92
:106C4800E433F50BE8250AF582E9350B126E2B9033
:106C58006000E0C333F508E433F509E82508F8E9EE
:106C68003509F9E8244AF582E9126E17EE240BF883
:106C7800EF3400F9880A890BEE241DF8EF3400F987
:106C880088088909EE241C18EF3400F9EE240FF562
:106C980010EF3400F511E50E700EED700BE50C7079
:106CA80007E50D7003026D478A828B8312739BEE92
:106CB800240D1277D12AFAA3E03BFB850A82850BC3
:106CC80083EAF0A3EB127347126E017011EE2420D1
:106CD800127394850882850983EAF0A3EBF0900586
:106CE800B1E06025888289837401F01277CE70192B
:106CF800EE24731277D17011EE247F1277D17009C8
:106D0800EE242012780B1273528E828F83127374C2
:106D18002406FCE93400FD906062E07003026DAD6A
:106D2800E82402FAE93400FB1211488E828F83E0CE
:106D3800F8A3E0C82412F582E8127798E48070EC92
:106D48006022851082851183126E017027EE24203F
:106D5800F582EF3400126E23850882850983ECF0F2
:106D6800A3ED800FEE24FC126E0B85088285098343
:106D7800E4F0A3F08A828B831273A17003A3E06B03
:106D88006003026CE6851082851183E06008740553
:106D98006A7001EB600479088002793EEEFAEFFB35
:106DA800120FB0804F8C828D83E4F0A312733FF0F2
:106DB800A3F09061C8E06006121CDCE970F48E82D2
:106DC8008F83A3A3A3E0602C9061C8E07006906055
:106DD800607480F0EEFAEFFB1210FAE964016014B7
:106DE8007902EEFAEFFB121E811210EEE9640160DF
:106DF800031210707F0A021880E4F088828983E009
:106E08006401221277D52401F0A3E03400F02212A5
:106E180077D82510F0A3E03400F022F583E0FCA336
:106E2800E0FD22F583E02508F0A3E03509F02253C0
:106E3800BFEF02013574E81217AE9005D7E0F812DB
:106E4800732C241DF510EF3400F511EE2420F50EF7
:106E5800EF3400F50FEE241CF50CEF3400F50D901F
:106E680061D0E07009EE246312737149600B8510DC
:106E780082851183E4F0A3802D1277CE7029EE2449
:106E8800731277D17021EE247F1277D17019850C97
:106E980082850D83E06401700E850E82850F831252
:106EA800738AE8F0A3E9F0EE2407F508EF3400F55B
:106EB800098E828F83A3A3A3A3A312738AE028F861
:106EC800A3E039F9E8240108E912734FEEFAEFFB61
:106ED800121100E9640160089006EEE06401701C7C
:106EE800851082851183E4F0A3F08E828F83A3A39B
:106EF800A3A3A3E02401F8A3E012734FEE247312B6
:106F08007B9560030270A5EE24741277C11219D81C
:106F1800850882850983126E258E828F83A3A3A399
:106F2800A3A312739B121C95740212176DE97003C8
:106F38000270A5850A82850B831273AF2476FCEF55
:106F48003400FDEEFAEFFB120FBC127808850E82B2
:106F5800850F83127358850C82850D83E41273475D
:106F6800F0A3F0EE240F1277B312733F12736C2460
:106F78000D1277D128F8A3E039F9EE240B12779592
:106F88001273588E828F83A3A3A3A3A3126E2585A1
:106F98000A82850B8312739B121CD48A088B09EE14
:106FA800242E127394E4F50AF50B8A0C8B0DF50E5A
:106FB800F50F7808790C121478EE247712737F781D
:106FC80008790C1215A085080C85090D850A0E850F
:106FD8000B0FEE247DF516EF3400F517851682F5B4
:106FE8008312736C2479F512EF3400F5138512823D
:106FF800126E23EE243012778AEE2432F508EF342D
:1070080000F509EA6C7002EB6D701C850882850931
:1070180083E0687003A3E069700D1277921273A180
:107028007003A3E06B603188148915740478141216
:10703800173578141219C11277921219D8EDC313A3
:10704800FDEC13FC8E828F83A3A3A3A3E0FA7B003D
:10705800120D0A740412176DEE24761277D1C0E06F
:10706800EE242B127795D0E0F085128285138312D7
:10707800736C242E127795127358127808850A8239
:10708800850B831273588516828517831273AFFA9E
:10709800EFFB120FC2EE247312779C800BEE242EA6
:1070A80012737FE4F50EF50F851082851183E0F5E4
:1070B80014A3E0F515EE2412F508EF3400F509EEF7
:1070C800241FF512EF3400F513EE24181277C17857
:1070D8000C1214247011851282851383E0F8E514CC
:1070E800687002E515602378081219C1EE241012A1
:1070F80077951219D878141219C1AA0CAB0DAC0ED9
:10710800AD0F122663740612176D850A82850B83EC
:10711800780C121636851082851183E085128285D7
:107128001383F0AC08AD0912735E12259D9060625E
:10713800E0600A7C287D8F12735E12259D8E828FF7
:107148008312780E88828983A3A3E82408FCE93493
:1071580000FD740612166A85108285118312739BCE
:107168008E828F83E02402F8A3E03400F9E8FCE97A
:10717800FD8A108B11E4F512F513908FD778101251
:1071880015B37810790C1214788C828D83781012CC
:1071980015C6908F8378101216278C828D837810ED
:1071A8001216149006E8E0640160030272AC7901DB
:1071B8001211A28E828F83E0F50AA3E0F50BE50A8F
:1071C800240EF582E50B12779874FF127BB8E50A56
:1071D8002412F8E50B3400F9E8FCE9FD85088285FE
:1071E8000983780C121627850C08850D09E50875A2
:1071F800F0E2A4C508A8F075F004A428F875F0E238
:10720800E509A428F5098C828D83126E2DEE2416CB
:107218001277D1F508A3E0F5097404780812173538
:10722800E5082401F8E5093400F98C828D83E0280B
:10723800F0A3E039F0906062E08C828D83700302E5
:107248007304E02410F0A3E03401F0EE240F127769
:10725800D1601FEE242B1277D1F875F071A4C8AA5B
:10726800F075F002A42AF98C828D83E028F0A3E05F
:1072780039F0E50A2414F582E50B1277987410F0BA
:107288008E828F83E0F8A3E0C82416F582E812778F
:1072980098743EF0A3740FF0EEFAEFFB121BF77927
:1072A80000027B8A908FC3780C1214595003027124
:1072B800BBEA4B60030271BB780C1219BDEEFAEF02
:1072C800FB120FC8740412176DE9640160030271A0
:1072D800BBEE240F1277D160128E828F83A3A3A3F3
:1072E800A3A3E064057002A3E06004790880027932
:1072F8003EEEFAEFFB120FB0790180A5E02410F8FA
:10730800A3E034FFF97A717B021216CC8808890948
:10731800EE242E12780BC3E50898E509995003026C
:10732800725380C775F003A4C8AAF02AF974D92843
:10733800FE740539FFEE22F085088285098322F064
:10734800851082851183223400F985088285098396
:10735800E8F0A3E9F0228E828F83E02402FAA3E00A
:107368003400FB22127812EE22127BAC12737822C0
:10737800E0F8A3E0F9E822127BACE0F50CA3E0F515
:107388000D2212781285108285118322F582EF343E
:1073980000F583E0FAA3E0FB22E0FAA3E0FB850A0C
:1073A80082850B83E06A2212781285088285098318
:1073B800E8F0A3E9F0EE2274E81217AEEAFEEBFF5C
:1073C8008C828D83E0F50CA3858208858309A3A8A8
:1073D80082A983EE2405F516EF3400F517EE24672D
:1073E800FAEF3400FBEE2462FCEF3400FDE50C609C
:1073F8003B14700302756214700302774B14700318
:107408000275B724FD700302767F14700302778734
:107418001470030276AF24FE70030276841470039E
:107428000276A51470030276EF027775EE2476F5DE
:1074380010EF3400F511850882850983E0851082F4
:10744800851183F088088909EE24771277A2120F34
:10745800E08A088B09EE2479F50EEF3400F50F79F0
:1074680002AC08AD09AA0EFB120FE08A088B09EEE0
:10747800247BF512EF3400F5137902AC08AD09AAA4
:1074880012FB120FE08A088B09EE247D12778A79A5
:1074980002AC08AD09AA0AFB120FE08A088B09851D
:1074A8001082851183E0C333F0850C82850D831229
:1074B800782E850C82850D83127358127828850ED4
:1074C80082850F83127358850A82850B8312738213
:1074D8007404780C121744850A82850B83E50CF036
:1074E800A3E50DF0EE24741277A2120FE0850C824A
:1074F800850D83C082C08385168285178312780E16
:10750800D083D08212781840030275A3850A828539
:107518000B83E0F508A3E0F509E4F50AF50B8512FD
:1075280082851383E02401F510A3E03400F511E40B
:10753800F512F513127828880C890DE4F50EF50F6D
:107548007810790C121478780879101214394005DB
:10755800793B02776CEE24738049EE248012778A97
:107568007402C0E07905AC08AD097AE37B06120F16
:10757800E0EAFCEBFDD0E0F9AA0AAB0B120FE085BC
:107588000A82850B83C082C0838516828517831281
:10759800780ED083D0821278184005792802776C4B
:1075A800EE247F127B8F241D12779CA30276ABEE0C
:1075B80024E11277D17012750A001277DEC0E0124A
:1075C80077EED0E01277FF40F1EE24E21277D1A2F5
:1075D800E0400EEE24DD127795741AF0790D0277EB
:1075E800808C828D83E4F08A828B83127BA4740161
:1075F800F07908AC08AD09EE249BFAEF3400FB12D1
:107608000FE08A088B097902AC08AD09EE24A3FAC9
:10761800EF3400FB120FE08A088B09EE24931277EF
:107628008A7908AC08AD09AA0AFB120FE08A088B10
:10763800097908AA0AAB0B120FECEE248712778A95
:107648007904AC08AD09AA0AFB120FE07904AA0A6A
:10765800AB0B120FECEE248BFAEF3400FB120FFE8B
:10766800EE2483FAEF3400FB1210049005ABE044DB
:1076780080F07904027780EE24DE80248C828D836A
:10768800E4F08A828B83F0EE24D212779CEE24DC1D
:10769800127B8F24D312779C790B027780EE24DF3C
:1076A8001277B3F0027787750A001277DEC0E0120E
:1076B80077EED0E01277FF40F1750A001277DEFA14
:1076C800850882850983E05AC0E01277EED0E0127F
:1076D800733FA3858208858309050AE50AC39408D0
:1076E80040DA7909027780EE24EA1277C1E0640172
:1076F800607B850882850983E0C0E0EE24ED12777F
:1077080095D0E0F0880889097402C0E0F9AC08ADAA
:1077180009EE24EEFAEF3400FB120FE0EAFCEBFD71
:10772800D0E0F9EE24F0FAEF3400FB120FE0850AFE
:1077380082850B837401F0EE24EC1277D1704079C6
:107748000C8035EE24F4FAEF3400FB8508828509B5
:1077580083E08A828B83F0EE24F31277B3F08A8277
:107768008B83E0F9EEFAEFFB120FB08012EE24F5EE
:10777800127795E50CF07907EEFAEFFB120F7A0213
:107788007B8AF50AEF3400F50B22EE247BF582EFB5
:10779800127BAF22127BACE4F022F50CEF3400F53B
:1077A8000D7902AC08AD09AA0CFB221277B722F5B5
:1077B80082EF3400F583740122F50AEF3400F50BEB
:1077C800850A82F58322EE24691277D522F582EFA5
:1077D8003400F583E022850A82A88274BD28F582E8
:1077E80074051277D822EE28F8EF3400F9E824E27D
:1077F800F582E9127BAF22F0050AE50AC394082254
:10780800EE247B127BAC12781222E0F8A3E0F92276
:10781800E0C398F8A3E099F9C3E894FFE9947F22BC
:10782800850E82850F83127378C333F8E933F92202
:1078380074E81217AEEAFEEBFFEE24DEF510EF3423
:1078480000F511EE24DFF50EEF3400F50FEE24629B
:10785800F516EF3400F517EE2482F50CEF3400F539
:107868000DEE241DF512EF3400F513EE2404127703
:107878008AEE2469F508EF3400F509027A0AEEFA6F
:10788800EFFB120F6E027B6F850882850983E06427
:1078980001703C9005B3E07003027AB5EEFAEFFB95
:1078A800120F80EE24A3F514EF3400F515781412A6
:1078B80019C1EE249BFCEF3400FD850A82850B83F9
:1078C800E0FA7B00120D16740212176D027A0AEEA6
:1078D800FAEFFB120F44027B6F850882850983E06B
:1078E800640170359005B3E06015850C82850D83C1
:1078F8007401F0EE24D4127BB4EE24D8127BB48544
:107908001082851183E064016003027AB57906EE7E
:10791800FAEFFB120F86027A0AEE24D2127B9570D8
:107928001CEEFAEFFB120F4AE964016003027B8840
:10793800851082851183E4127B9B027B76EE24D32B
:107948001277D17003027B88EE24B2F514EF34006D
:10795800F51578141219C1EE248BFCEF3400FDEEF6
:1079680024C2FAEF3400FB121010740212176DEEE5
:1079780024D21277B3805E850882850983E064018A
:1079880070569005B3E07003027AB5127BDBEEFA0D
:10799800EFFB120F808516828517837401127BC056
:1079A800850A82850B83E0FA7B00EE24DC127B9546
:1079B80070077900120D2280077C017900120D1CD6
:1079C800EE24DC127795E4127BA4E4F0850E828520
:1079D8000F83127347F0802AEEFAEFFB120F500262
:1079E8007B6F850882850983E064017071850E824A
:1079F800850F83E064016003027AB5EEFAEFFB12AB
:107A08000F80EE246E1277D17003027B88EE246A11
:107A18001277D124FE602F24FE7003027890147030
:107A2800030278E114700302797F147003027B79F2
:107A380024FE7003027AD524FE60A7147003027A2C
:107A4800FC14603D80BC850882850983E064016080
:107A5800030278869005B2E0605379168059EEFAF1
:107A6800EFFB120F56E964016003027B88850E82E2
:107A7800850F83E4F0850C82850D83127B9B027948
:107A8800DD850882850983E0640170379005B3E0DD
:107A98006012850C82850D83E4F085168285178334
:107AA80004127BC09005B2E06003027A03127BF0F7
:107AB8006003027B887922EEFAEFFB120FB079019E
:107AC800027B8AEEFAEFFB120F5C027B6F8508825D
:107AD800850983E0640170139005B3E060CFEE245C
:107AE800E11277B3F0127BDB027A03EEFAEFFB12B6
:107AF8000F628073850882850983E06401705CEEFB
:107B080024EA127B95702DEE24EB127B956003021C
:107B18007A03EE24F01277951219D8EE24EE127734
:107B2800951219D8127BC97900120D107404121716
:107B38006D027A03127BF07047EE24F012779512EB
:107B480019D8EE24EE1277951219D8127BC979222A
:107B5800120D10740412176D027ABDEE24EC127B1C
:107B68008FFAEFFB120F68E9850882850983F08098
:107B78000FEEFAEFFB120F74E964017003027A0347
:107B880079007F100218801277B7F0EE221277D5AD
:107B9800640122F08508828509830422F0EE24E03E
:107BA800127BAC22F582EF3400F58322127BACE421
:107BB800F0A3F0A3F0A3F022F0EE24671277B7F059
:107BC80022EE24ED1277D5FC850A82850B83E0FA34
:107BD8007B0022EE2420127BAC127812851282855B
:107BE8001383E8F0A3E9F022EE2471F8EF3400F9EA
:107BF80088828983E024FFF0A3E034FFF08882893B
:107C0800831273784922C082C0838A828B83A3A39C
:107C1800A3A3A3A3A312780EEA240BF582EB127395
:107C280097C3EA98EB995019E8C39AF8E99BF9C306
:107C3800E894AAE9941040197900D083D08202010F
:107C480035EAC398F8EB99F9C3E894ABE994104086
:107C5800E7790180E5C082C08312110C75A7007511
:107C6800A100759C7775C30075A20075A30075A463
:107C78000075A50075A60075C31175A20075A3004F
:107C880075A40075A50075A60075C33375A20075A7
:107C9800A30075A40075A50075A60075C34475A258
:107CA8000075A30075A40075A50075A60075C3220C
:107CB80075A22075A34E75A40075A50075A600755C
:107CC8009408121112439402027DD6A2AFE433F84D
:107CD800C2AF5394FEE594A2E240FAE8A2E0027E25
:107CE800F5A2AFE433F8C2AF439401E594A2E250A1
:107CF800FA80E8E8A2E7A2E792AF802175C303857E
:107D08001882851983E0F5A2740122E8A2E7A2E7A8
:107D180092AF851882851983E0FAA3E0FB7402020A
:107D28007DD3C082C08374FC121757127E0C127D5B
:107D3800551217A2127E061217A2E0F5A675A1EF3A
:107D480043A710E8A2E7A2E792AF027DD175C3303E
:107D5800851882851983E0F5A4740122C082C08346
:107D680074FE121757127D8775A1FD127D04121734
:107D7800A2E0F5A3E59C54F04401F59C027CFB12BB
:107D88007D8E53A7FD22851882851983EAF0A3EB1F
:107D9800F0E5A8F8C2AF22E5A4851882851983F01A
:107DA800E5A5C0E074011217A2D0E0F0E5A6C0E096
:107DB80074021217A2D0E0F074031217A2127F1BEC
:107DC800851882851983121645740412176DD0839D
:107DD800D082020135C082C08374FC121757127E0C
:107DE8000C75A1EF127D551217A2127E061217A26A
:107DF800E0F5A6E59C54F04404F59C027D4BE0F5C3
:107E0800A5740222127E79E5A8F8C2AF53A7EF2223
:107E180074F41217AE74FC121757127E75A2AFE4F1
:107E280033F9C2AF53A7DF75A1DF908FAF7808127F
:107E3800162785188285198378081214247005433B
:107E48009C70801A75C340127D581217A2127E06C4
:107E58001217A2E0F5A6E59C540F4450F59CE9A240
:107E6800E092AF740412176D7F04021880127E79B5
:107E780022851882851983EAF0A3EBF0A3ECF0A31E
:107E8800EDF022C082C08374FE12175785188285D0
:107E98001983EAF0A3EBF0851882851983E0F8A32B
:107EA800E0F9E8496018E5A8F8C2AF75C300127D8B
:107EB800071217A2E0F5A3E8A2E7A2E792AF027DB6
:107EC80025E5A8C2AF53A7C9801CE5A8C2AF53A730
:107ED800C9759C778010E5A8F8C2AFE59C54F044BA
:107EE80007F59CE8800375A1C9A2E7A2E792AF0253
:107EF8000135C082C083E5A8F8C2AF75C311E5A2F9
:107F08008C828D83F0E5A3127FACA3A3A3127F1B01
:107F1800027DD6E4F0E8A2E7A2E792AF22C082C0D1
:107F28008374FC121757E5A8F8C2AF75C300E5A221
:107F3800027D9FC082C08374FE121757E5A8F8C25D
:107F4800AF75C300E5A2851882851983F0E5A3C043
:107F5800E074011217A2D0E0F0027D13C082C08342
:107F6800E5A8F8C2AF75C300E5A28A828B83A3A3F4
:107F7800A3A3F0E5958C828D83F0E5A38A828B8399
:107F8800A3A3A3A3127FACA3A3A3E4F0E5968C82DA
:107F98008D83A3F0E5978C828D83A3A3F08C828DCB
:107FA80083027F12A3F0E5A48A828B83F0E5A5A360
:107FB800F0E5A68A828B83A3A3F08A828B8322C0F2
:107FC80082C08374FE121757E5A8F8C2AFE5C3F95B
:107FD80075C300E5A2E5A4851882851983F0E5A597
:0F7FE800C0E074011217A2D0E0F089C3027D132C
:087FF800851A87C2AF020135B2
:10800000033F0000030004280D9808900790019496
:10801000011B0195111B08F00939821F0EA4FECD2A
:1080200082210622FB381818162118F0EF3818F2B2
:10803000ED3828F2EB3868F003392A1FE73F08F0E3
:108040000428C33868F0393C08F1053C88F1173C36
:10805000A8F10E3CE09F2C1F0128104A291FD63F93
:1080600015D0033827D0093800900428A83F0128EC
:10807000154101980128014A25D01F38041F831F8C
:108080000EA4FECD042205381421202807A0083FA5
:108090000628711527D0E939202807D0F238832126
:1080A00078F10238042188F1083D0628A14001F04A
:1080B00004288D38042807A00528561528F1163CF9
:1080C00068F1143D77CF1240599202D80F3912D07F
:1080D0000739699222D00439799242D004380528B0
:1080E000F8151E3FC09F0428753F08F1233C88F116
:1080F000203D094028F1103D4540F7C759F2083DA1
:108100009303131183E1B9F00F3C23E00D3F09D82D
:10811000EA38F9C30B3F68F1033D59F2F23C09D844
:10812000F9390528C6150528F91501900128214AB5
:10813000051F48F00C3C08F10A3868F1033C98F13F
:1081400006390C96062802150228843F47A00C9693
:108150000528FC15531F0528EC1507288CED05286C
:10816000F51501280195711B01280CE40528EE1571
:10817000511F88F10B3808F1073868F109390128D7
:10818000214201F00B3947D009383521063F28F14B
:10819000033838F10339351F341F04280CE047D069
:1081A000033903280CE80528D115571F28F0063895
:1081B000561F811F021F38F0063930215B900528B9
:1081C0004415FD3F88F1033D0528001505288A1553
:1081D00047D0133808F10F392C470CF00C38C40382
:1081E000B4125C110C3E04F00A38C103802801A0CF
:1081F000411B063F3021043F07284CED4C1B5B9090
:1082000047D0173827D00328F1390EA4FECD02221B
:108210000D39002208381021002914E00328E63C1B
:108220004C1BF13F0528A715EE3F46181221033FCE
:1082300005280B1588F1303905281A150128FB414E
:10824000302100291BE00A3D0428FF1505281015E0
:10825000F6C35192166A3B906B080428F615052860
:1082600007150BF0FB3917D004382D1F0128C43F28
:108270000328214701F008390328314701F0043968
:10828000A2958090033FC29500920328BF15201B42
:1082900054900128B33F08F10539052111900128B8
:1082A000214A38F103390021023F302110216A03AD
:1082B0000428CB156B033141224128F1093D02F01E
:1082C0000239F29101F00B39FF28F191083F02F0D9
:1082D0000239529201F00339FF28F193F7CB1B06C4
:1082E000023907A4B20C073D47D003287738249001
:1082F00003287E3F1690B6080428BA15A603042862
:10830000B7153BE0F7CE28F1703C012807A0F090AC
:10831000A00668F1323D149030F0053938F1032899
:108320006738073F50F00328633958F10328603855
:1083300038F104380328B415033F032892150328A5
:108340007E15012807D0033907A1563F424130F07E
:108350000C3907A112D0033807D84E3887A0C14086
:1083600041D04A38F7CE483F38F1033822D044385C
:1083700007D8423907A1403F78F1123847D02D384D
:1083800000F0033860F00639C14011D0073887A0EB
:10839000113F10F0033820F0AB3977CF0B3F00F0DE
:1083A000033810F0A539414181D00439032859150B
:1083B000093F0328751568F10539414141D002395B
:1083C00007B810F0063903283A15012807D00338FA
:1083D00007D8123907A1103F40F0032805390328B8
:1083E0001D1507D8F838083FA10383403112310525
:1083F00011D0023907A14BF0063C042826150428A9
:108400003715FA3F042821151BF0FD3D38F10338DC
:108410000328AA15F7CD0328214701F005390328C1
:10842000314701F0033807A2F7CE224082D00A3844
:10843000060304281D1506937606261196040428C3
:10844000171571034112002871C021070438E7CFC6
:108450004198043F17D0043951980728214817D074
:108460000538F295202800901D3F07D20438C295A8
:108470000092183F07D10438D2950094133F07D4D7
:108480000438E29500980E3F809028F10A3D319023
:10849000A10631F0063903A4B2950228B31500A154
:1084A000A2950228AF15201B28F1633D08F10A3977
:1084B000012807D00739072851411128C14A01284E
:1084C00007A017D20539E3CF8AD0023813A007D20C
:1084D0000539B3CF4AD0023843A083D01E393103C7
:1084E0001112310521D00739319907282148002977
:1084F00015E0133F529502288515454003D10D39EB
:10850000429502287F15281F21990728214803D268
:10851000043862950228761573CF834808F109392B
:1085200077CF17D0063907D203390AD1023887A08E
:10853000349007D2073807D803383090543F07A843
:10854000023FF7C718F15A3927D04C39314011D0C2
:10855000493987D0073917D0453907D203390AD1AD
:10856000413805F04B39414001F0483850903B3FCD
:1085700068F1153878F13938149017D03D3907D2A1
:108580003D3987D003383490393F07D137391190BE
:108590000128214A409003287715253F47D01C38F1
:1085A000249007D30C3911900128214A87D008382C
:1085B0005144002911E0043A514C023877CF17D0CA
:1085C0001B3987D003383490193F07D31739C1407E
:1085D00021D01438073F17D00F3907D30338309014
:1085E000023F009044900A3F249017D0053907D3EA
:1085F00005393490033FA09F44900221C190511B44
:108600008121342124F0083927D004390C9CFD2B1A
:10861000AE3F10904490B7CF34F00E395321032869
:10862000E195711B541F0F28CC9506282141F1C0FC
:1086300081111C09143F0190511B0728F19F711BE8
:10864000802114F001288F3854F0FD2B0A380128BE
:10865000B63F541F03286D151028CCED032876155E
:1086600076217821501F0128A29A217001B2218021
:1086700001B221802CE30328691574210128ACE4A0
:1086800008F1073C88F1033D0228A01503282A15AC
:10869000011F0128349D03285915201F002168F06F
:1086A000093D069058F003390728364102289C15E9
:1086B000FA3F0728504078F10439331F321F042154
:1086C000500000DC0128853828F1103D8340F7CBAD
:1086D00031031112310521D0033903D1033900D8F8
:1086E000103807A41B901A90163F00D80128713942
:1086F00098F107394B700128E2412B0800288E3F82
:10870000102807A04B701BF0FC2BED3C4A70224157
:1087100028F1303D02F00239F29112E0B20CFC2B4C
:10872000E23C419031061111FF2BE29F32045200CE
:1087300022111A042A043240002862C018F10339B9
:1087400027D00D3922F0093907280141B109002944
:1087500021E0093A0AA1073F42F00339FACE033F6C
:1087600062F0F93818F1253977CF0AD1223887A07D
:10877000203F02F00239529212E0B20CFC2BB33CC3
:1087800068F1123D38F1153887D01339012831428C
:1087900001F00F38402807A00728914231C0C1A03E
:1087A0000728914A063F02280190710621121A04F7
:1087B000FF2BF29FB2084BE0A603022815152603F3
:1087C0000228121568F1293CFBF0273C62904670A4
:1087D00002280A15D2370428609662904670062D4A
:1087E00002280215C23778F11839D04000D8153860
:1087F000DBF0133C829046700128F615D2377644A0
:1088000000D40338060E023F060D41700128EC1516
:10881000417086120128E8153290B20C053D467071
:108820000128E215FB3F08F1063941721128C14ABF
:10883000012807A0EF28F7CF28F11E3D8340309094
:10884000A00631031112310521D003398295043F6E
:1088500030F0043972950028D51553C843D002383A
:1088600023A007D4023803A130F0023903A28348C1
:1088700092950028C71506900BF005380128B4150D
:10888000591FFB3F0EA4FECD0122043902287315A7
:10889000FA3F551F1121031F249008F10F390AD107
:1088A000033987D02438314011D0213905F02139DE
:1088B000414001F01E3850901B3F48F1073828F125
:1088C000033858F1063987D0143877CF1490113F08
:1088D00078F1053911900128214A093F98F10939A9
:1088E000829500289315281F5490033F00904490D0
:1088F0000EA4FECD0322043902283D15FA3F1321B0
:108900002C1801210321741FD1900000F13724F0AD
:10891000093800000190511B0728F19F711B80212D
:10892000063F4190511B0328E195711B3221072816
:10893000914231C00728914ABF28F7CF28F1063C61
:1089400088F1043D92955E15281F44F0383814F0E4
:108950000A3854F0FB2B853801280CE40128F61561
:10896000FB2BF93F01289015009027D0283902D819
:10897000083838F12439329001289215E237193F2E
:1089800019E089F2043C38F11A39599238F1033967
:108990000128861512409103002951E2120E12D0CF
:1089A000F038012886150128B915124001289115C3
:1089B0003199072821482C18FE2B4C3F0128104ADA
:1089C0000028A915FB2B223FF09F043FD09F023FB8
:1089D000B09F0028D0152C1FF23F28F1053C68F10C
:1089E000033D1490053F2090023F10904490419821
:1089F0000728214838F1FE2B01380028B515FD2B3A
:108A0000FD3F217011E0218002000128214107284B
:108A10002148217811E021880200F7C776157103FB
:108A20003112A10501D4023907A804286496311532
:108A30000238F7C70428C4F6FB3C0200FE28F7CF33
:108A4000641551417111A10501D80339012807A00E
:108A500064911F150338FE28F7CFC4F1FB3C0200D8
:108A6000F7C753155141022807A00AD40339FD283E
:108A7000F7CF5111A10501D4023907A8C4910428E8
:108A8000659607150238F7C7563124F2FB3C020001
:108A90000028DB150028EC15412D160C0200F7C745
:108AA0003415D032D332234268F109394141904024
:108AB00041D0043850000306023F0303314202282C
:108AC00007A00AD404395100FD28F7CF13064492B9
:108AD000042865960028B9150028CA155631FF28C4
:108AE000E19F4070060C023813068EA0810064E0FE
:108AF00044F5F83C0029F4E2A4F2ED3C03F002381E
:108B000007A8D32FD02F02009BF0023C020007A140
:108B10002DE0020098F10938102807D0033908F138
:108B2000043831990728214808F10C39012807D069
:108B30000938072851411128C042010C0338072881
:108B400050491190082807D005380628B148F72861
:108B5000F7CF042807D005380628A148FB28F7CF0F
:108B60003021291F0200311FFF28F19F411B301FB8
:108B70003121020002210121032153230938062853
:108B8000D14001D112384198072821480B3F542386
:108B90000C385021F1910000F137741FF190000062
:108BA000F13768F0023C2B1F0190511B81210728EF
:108BB000F19F711B80210728914231C00728914AFB
:108BC000BF28F7CF322134210200082807D0073907
:108BD0000628B14001F00438082807A00200042844
:108BE0000D98FE2BF43F402807D00D390EA4FECD82
:108BF000012204390028BF15FA3F661B1121002904
:108C00001BE002000728A64A0EA4FECD012204396B
:108C10000028B115FA3F01283142B10941E0053A77
:108C200008384BF00C38EA3D0728A142611BE73FAA
:108C30000728914271CF0728914AF73F07289142B0
:108C400081A20728914ADA3F0EA4FECD0222043900
:108C500000289115FA3F4618122100291BE01BF04D
:108C60000639581F0628E0400128004A020017D0A4
:108C70000A393122063817A0419807282148033FB6
:108C80000728A6480200124038F1093802D80739EF
:108C90009103002941E2120E120D1248020047A072
:108CA0007B280C9C10215215FF2B5E15B7CF0200BC
:108CB00059F203396391083F69F20339E392043FA3
:108CC00079F203394396020004280D98FA2B0B3FE2
:108CD00002D407389103002901E211700628614887
:108CE000020088F10A3C012831410728814AB14637
:108CF0000328314FA1460F3F0728894A28F1063D36
:108D000031440328314F5140053F552851950328E0
:108D1000314F81110328214F0200E3F3033CF1900E
:108D2000033F23E051920628614A06284348020087
:108D30007B21772141900000F137702175217A2144
:108D40008CEE0415521F801F02004C1B001F47D0E1
:108D5000033827D009390EA4FECD002203390B15A4
:108D6000F73F1021020004280D9838F1FE2B273818
:108D7000FE2B3C3FD23202180119210601D41A38C9
:108D80001218162162F003392A1F2D3F12F21538EE
:108D900022F22838FE2BEF1568F0063C619001287E
:108DA000114AFE2BB8153021280304280D98F92B01
:108DB0002E3F01D114381421202807D00D3878F126
:108DC000123904231038714401F00239814400291A
:108DD00011E0714C083F202807A0053F01D205385B
:108DE000152127A0D22F020011D006381021042807
:108DF0000D98FD2BF33FF2CE5200121BF43F960864
:108E00000C0BA208120BAE08180BBA081E0BC608F2
:108E1000240BD808240BE4082A0BBA08300BD2081C
:108E2000360B00000000F608360B02093C0B000070
:108E30000000000000000000000000000000000032
:108E40000000000000000000000000000000010120
:108E500002010201010201020303040103010101F5
:108E600001010303020103240E8C06001434074C95
:108E70000D7C0A6C0B6413BE073806960BE2074D97
:108E8000616E756661637475726572204E616D65A1
:108E9000004669726D776172652052657669736903
:108EA0006F6E00536F6674776172652052657669E4
:108EB00073696F6E004861726477617265205265F4
:108EC000766973696F6E00FB349B5F8000008000E1
:108ED00010000000000000F401FA00960064004B4E
:108EE0000032001E0014000000000000000000001E
:108EF0000000000000008753657269616C204E75A8
:108F00006D62657200FE006578706572696D656EF0
:108F100074616C4D6F64656C204E756D6265720096
:108F20007869E0AB50C3F0D200000000001B0C08D1
:108F300012080000AC0AB20A00000000FC0B00009E
:108F400024082A080000B40500000000000000000A
:108F5000000001020304051A00000005000000F1F2
:108F6000FFFFFFE7FFFFFF02000000040000000713
:108F7000000000D6BE898EF6FFFFFF0595D5F503EC
:108F8000000000FFFFFF0055555500640000001968
:108F9000000000419C0000430000000100FF0000B1
:108FA00000FF007D000000DDFFFFFF00001000FF5C
:108FB000FFFFFF40420F0032000000C201000088A6
:108FC0001300005000000001C8000006000000E887
:108FD0000300000A0000000100000060EA0000FB3E
:108FE000FFFFFF71020000000800001027000002D0
:108FF0003890021890020890022090022290F3FF0D
:10900000F4FFF2FFF1FFF5FFF0FF052A042A032A1F
:10901000022A012A002A0229E0FF03280128002849
:1090200001180018E1FF502A2A2A292A282A272A6B
:10903000262A252A242A232A0A1801290C74F41224
:1090400017AEE99005A8F0121166907800E0C454BC
:109050000F540764037004793F8002797F75080616
:1090600075090078081219C17C967D057AEA7B079C
:10907000120698740212176D900596E0F47049A3D9
:10908000E0F47044A3E0F4703FA3E0F4703AA3E08E
:10909000F47035A3E0F4703090780EE0900596F00F
:1090A00090780FE0900597F0907810E0900598F098
:1090B000907811E0900599F0907812E090059AF080
:1090C000907813E090059BF090059C1291D2129F2E
:1090D000E29005C67406F0A3740D129A7B7440F0FA
:1090E000A37401F09006F21291D29006F1E4F09090
:1090F00006F8F0A374A0129A7B7403F0A37407120D
:109100009A7B7428129A7B04F0A3E4F0900721F074
:1091100090074474FFF0A3E4F0900746F0900748EE
:1091200004F09007497490F0A37401F0120F081234
:109130000E3612110679017A4B7B07120FF8900751
:109140004BE075F01484E5F004F0790C7A6C7B0741
:10915000120FF81210167A009005A8E0F9120536E1
:10916000907803E06442705590074BE014F0704D26
:10917000C2AF12917500782AD0E0F618D0E0F6E57B
:109180009F540770057509FF800375097FC4C0E00F
:109190007829E6F50808E65509F509740B780812F0
:1091A0001735D0E02508F8906270E0A2E740F8E8B3
:1091B000C333906272F0906270E0D2E0F09005D319
:1091C000E4F0A3F07A80FB9005A8E0F91204E20233
:1091D00096CE74FF12953BF0A3F02274F41217AEF2
:1091E000EAFEEBFFEEA2E050409005AAE0C39480B7
:1091F000E0500FC333F8E433F9746128F582740C3E
:10920000800EF4C333F8E433F9746F28F582740CDC
:1092100039F583129E5E1217AC7A009005A8E0F92A
:10922000120536EE64010293C554026038750800D9
:1092300078081219C5E4F50978081219C1780812DE
:1092400019C178081219C17508DD75090678081268
:1092500019C11293EA793C120CFE740912176DEED3
:1092600064020293C5EE5404607B9005D7E0F87564
:10927000F003A4C8AAF01296FCEA242A129F21F552
:109280000878081219C5EA24321293D9F509740432
:10929000780812173578081219C1EA24201293D1E0
:1092A0001219D8EA242E1293D9C313F509E508132D
:1092B000F50878081219C17508DD750906780812D5
:1092C00019C19006DCE0FD7C018A828B83A3A3A3F5
:1092D000A3E0FA7B007900120CFE740912176DEE00
:1092E00064040293C5EE5440603875080078081293
:1092F00019C5E4F50978081219C178081219C1785E
:10930000081219C17508DD75090678081219C1120D
:1093100093EA793B120CFE740912176DEE64400259
:1093200093C5EE54806039900749129A75E84960F8
:109330002A7900120530900749E0F508A3E0F50905
:10934000E4F50AF50B78081219BD7A007B01900547
:10935000A8E0F9120560740412176DEE6480806550
:10936000EF5401600C7901120530EEFAEF640180D0
:1093700056EF5402600AC2AF75C9AB75C95B80FE77
:10938000EF5404600A121B04EEFAEF640480389074
:1093900005AFE064017033EE5420602E9005A9E023
:1093A00024F9600314701B793F9005D7E0FA75F03B
:1093B00003A4CAA8F028FB74D92AFA74053BFB124F
:1093C0000FB0EE6420FAEFFB80047A007B00029677
:1093D000CEF582EB3400F583221293E1F508A3E089
:1093E00022F582EB3400F583E0229006DCE0FD7C80
:1093F000017A007B002274F61217AEC3EA9411EBD7
:10940000940050047A1080027A20EA2408FAE434A6
:1094100000FB1207168A088B09A808A909E8496009
:109420000AE82404FAE93400FB80047A007B000295
:109430009CD674F61217AEEA2405FAEB3400FB1240
:1094400007168A088B09A808A909E849600AE824D0
:1094500005FAE93400FB80047A007B00029CD6C048
:1094600082C083C2AF12113CE5E170FC75E10112CC
:109470000EDE75E1F112117E120ED279071211F093
:1094800079011211F679021211A81211C61211E413
:1094900079001211EA79011211EA908F87121645AC
:1094A0001211909006DCE41291D4A3F09006F8F02B
:1094B000A3F0A3F09006FC7407F09006FB7403F091
:1094C000900701E4F0900700F0900721F0120F9E42
:1094D00012106A120FB679001211FC9006E374FFA5
:1094E00012953B741FF0906012E4F0A3F09060635B
:1094F000F07521009005A9F09006E8F09006E97457
:109500000CF09006EAE4F09006EB04F09006ECE430
:10951000F09006ED04F09006EEE4F09005ABF0A3B9
:10952000F09005AEF09005AF04F09005C57403F01F
:10953000900747E4F0D2AFF9029F96F0A3F0A3F0B2
:10954000A3F0A322C082C083900596129585F09067
:109550000597129578F0900598129578A3F09005EC
:1095600099129578A3A3F090059A12957DF0900535
:109570009B12957DA3029F93129585A32212958538
:10958000A3A3A3A322E08A828B8322C082C0838A02
:10959000828B83E090059C1295C8E090059D129601
:1095A000D390059E1295C2E090059F1295BDE09064
:1095B00005A01295BDA3E09005A1029F931295C24C
:1095C000A3221295C8A3A322F08A828B83A322C070
:1095D00082C083120F14E970051211C67900029F30
:1095E0009674F71217AEEAFEEBFF8908120F14E922
:1095F000702CE508600A74016508600A7912801E03
:109600007C00790080047C007901EEFAEFFB1211F6
:10961000CCE9F87403687004790780027900029E2F
:109620006774F61217AEEA4B600EEC4D600A740ACE
:109630001217A2129FC770047912800F78081219AE
:10964000C1121010740212176D7900029CD674F4C6
:109650001217AEEAFEEBFF89089005A9E0640960E5
:1096600014E0640A600FE0640B600AE0640C6005BB
:10967000E0640D7004790C801E1210948B0BEA4587
:109680000B700BA908EEFAEFFB120FF8800990059A
:10969000ABE04440F0790D803574F41217AEEAFE69
:1096A000EBFF890BEE4F6003E970047912801F75A0
:1096B0000A00120FF2850A08EE2508F582EF1293D0
:1096C000D4E9F0050AE50AC3950B40E679007F046A
:1096D0000218801295C8A3E022C082C083E9F87402
:1096E0000168700B9007477401F07900029F96E8BB
:1096F0007006900747E480F1791280F02AF974D956
:1097000028FA740539FB2274F61217AEEAFEEBFF55
:109710008C088D099005A9E0640C700590618E801D
:1097200013120EA2E9702F12A02E74412EF582742E
:10973000063FF583E0F9748069700A85088285091F
:1097400083747F800E9005ADE0F8E9C398850882A8
:10975000850983F07900029CD674F71217AEEAFEF1
:10976000EBFF89087405650860287413650860229A
:1097700074146508601C741565086016741A650811
:10978000601074296508600A743B650860047912EA
:10979000803E120EA2E97038129F6D241DF8EB3442
:1097A00000F9EA24F4FCEB3400FDEA24691297D3B3
:1097B0007016EA246A129F2164027004793A8010BC
:1097C0001297D9120F8680061297D9120F7A790054
:1097D000029E671293E16401228C828D83E5081258
:1097E0009FDCE4F0A3F079022274E81217AE8A0835
:1097F0008B098C0A8D0B8917EC450B6016E9C39415
:109800001C501074181217A2E0F50C600B7401655F
:109810000C60057912029A70120EA2E96003029A96
:1098200070A808E875F003A4C8AAF02AFA75F00336
:10983000E509A42AF974D928FE740539FF9006E9D0
:10984000E070057907029A70E50A24FEF50AE50B37
:1098500034FFF50B850A82F583E517F0E50C7004FB
:10986000740280027401A3F0E50A24FEFCE50B34C7
:10987000FFFDEE2463FAEF3400FB120FD49006E9EB
:10988000E014F09005A9E064086008E06407600354
:10989000029A6E9005D7E065087002E50960030240
:1098A0009A6E7900EEFAEFFB121E819061D0E070A3
:1098B00003029A6E9006EDE064016003029A6EEE78
:1098C000241DF582EF1293D4129A75E849700302B1
:1098D0009A6EA2AFE433F516C2AF1211548A088B08
:1098E00009121154EA65087003EB65097003029AC6
:1098F000681210948A088B0912114E8A0C8B0D8CF9
:109900000E8D0FE5082402F514E5093400F5158ADB
:10991000108B118C128D13908FD778101215B3788D
:10992000101219BD8514828515831216451224C3A1
:10993000740412176DE964016003029A68EE242E24
:10994000F50AEF3400F50B850A82F583E02406F56D
:1099500010A3E03400F511E4F512F513780C79103A
:109960001215A0780C1219BD851482851583121664
:10997000451224C3740412176DE964016003029A4E
:1099800068E5082408F510E5093400F51185108212
:10999000F5831219D4AA0CAB0DAC0EAD0F12251F16
:1099A000740412176D850A82850B831219D812224E
:1099B00004740212176D8A0C8B0D8C0E8D0F7410AF
:1099C000780C121568A80CA90D8E828F83A3A3A30F
:1099D000A3A3A3A3A3A3129A818E828F8312A013A1
:1099E000EA28FAEB39FB8E828F83A3A312A013859A
:1099F0001082851183C082C083850A82850B83E033
:109A0000F510A3E0F511780C7910121478D083D0FA
:109A100082780C1215B3908F83780C12160185147E
:109A200082851583E50CF0A3E50DF0A3E50EF0A308
:109A3000E50FF0850882850983A3A3A3A3A3A3E46C
:109A4000F0A3F0EE2435F582EF129F24C0E0EE245F
:109A500034F582EF1293D4D0E0F0EEFAEFFB121B54
:109A6000F7AA08AB09121076E516A2E092AF7900CA
:109A70007F10021880E0F8A3E0F922F0A3E4F0A33D
:109A800022E0FAA3E0FB2274EE1217AEEAFEEBFF2F
:109A9000890874131217A2E0F50974141217A212A0
:109AA0009A75E508604B74016508601574036508D4
:109AB0006029740265086023740465086003029BD2
:109AC00043E849607EE509600674016509707474B5
:109AD000036508600674026508702AEE2460FAEFD8
:109AE000129C56505EEC2460FAED129C5640168093
:109AF00052EE24E0FAEF129C4B5048EC24E0FAEDD1
:109B0000129C4B503EC3EC9EED9F403774121217CF
:109B1000A2E0FA600574016A702974171217A2E0B6
:109B2000F50E60127401650E600C7402650E60061D
:109B30007403650E700D74161217A2E0FB74075BB8
:109B4000FB70057912029C469006F8E064017005EE
:109B5000790C029C46E5089006FBF0EBA3F0E50EBD
:109B6000A3F0EA9006F1702FE4F0900596E09006DD
:109B7000F2F0900597E09006F3F0900598E09006DB
:109B8000F4F0900599E09006F5F090059AE09006C3
:109B9000F6F090059B802E7401F090059CE09006F5
:109BA000F2F090059DE09006F3F090059EE090069F
:109BB000F4F090059FE09006F5F09005A0E0900687
:109BC000F6F09005A1E09006F7F0E82405FAE934F4
:109BD00000FBE82404FCE93400FDE82403F50AE96D
:109BE0003400F50BE82402F50CE93400F50D888209
:109BF0008983A385821085831174016508700B1217
:109C00009C619006F9E4F0A380397404650870053E
:109C1000129C618027E50E70047900801C74016538
:109C20000E7004790180127402650E70047902804E
:109C3000087403650E700579031211D29006F9EECF
:109C4000F0A3EFF079007F0A02188034FFFBC3EA2B
:109C500094E1EB943F2234FFFBC3EA9461EB943F21
:109C600022E5099006DC129FDCE09006DDF085100D
:109C700082851183E09006DEF0850C82850D83E0FD
:109C80009006DF129FD39006E0F08C828D83E090E7
:109C900006E1F08A828B83E09006E2F02274F612ED
:109CA00017AEE9FEC39420500BEE900701F0601E42
:109CB000EA4B70047912801E129EA81219C1EAFCA8
:109CC000EBFD7A027B0712048E740212176D900767
:109CD000007401F079007F0202188074F41217AE4C
:109CE000E9FE9005A9E064097003029DF5E0640AAD
:109CF0007003029DF5E0640B7003029DF5E0640CB7
:109D00007003029DF5E0640D7003029DF59006FB63
:109D1000E0F860177401686012740368600D7402E3
:109D20006860087404686003029E5A9006F1E0F9C6
:109D300060087401696003029E5A740368600574C8
:109D4000026870109006F9C3E094A0A3E09400505C
:109D500003029E5AEE7003029DEF146003029E5AA6
:109D60009006F8E064017003029DF5E8600A740152
:109D700068600574046870081210A0E954FD7075DD
:109D800079011210889006EF12A0189006F874015D
:109D9000F09005A9E0705312114E8A088B098C0AC5
:109DA0008D0B908F7F78081215B3908F83780812EF
:109DB00016019006EF129E5EA3A378081216369045
:109DC00006EFE0F8A3E0C82406F582E81293D4E495
:109DD000F0A3F0120F1AE9600E7AEF7B0612108ED4
:109DE0009006F8E4F0800E12107079000296CE9082
:109DF00006F8E07004792180F3A2AFE433FFC2AF2C
:109E00007AEF7B0612108E9006F8E4F01210ACE99F
:109E1000704112113C906182E0C2E6F0E5E170FC15
:109E200075E1017591BF75E1F19005AFE0640170D6
:109E3000187A207B009005A8E0F912056C7A207B47
:109E4000009005A8E0F91204E87A009005A8E0F96E
:109E5000120536EFA2E092AF80907912808EE0F882
:109E6000A3E0F5838882227F0102188074F612171E
:109E7000AEE9FEC39420500BEE900721F0601EEA7D
:109E80004B70047912801E129EA81219C1EAFCEBD5
:109E9000FD7A227B0712048E740212176D90070060
:109EA0007401F07900029CD6E0F508750900780885
:109EB0002274F61217AEEAFEEBFF8C088D099005AE
:109EC000A9E064076004790C8054EC4509700479BA
:109ED00012804B120EA2E9704512A01E7E008E82E7
:109EE000AC82E5082CF582E509129F24C0E0C3E4AA
:109EF0009CF895E0F9EA28F8EB39F9E824D1F582E5
:109F0000E91293D4D0E0F00EEEC3941040D0EA24CE
:109F1000D31293D17401F07905120F7A7900029C63
:109F2000D6F582EB1293E42274F71217AEEAFEEB39
:109F3000FF9005A9E064076004790C802D120EA241
:109F4000E97027129F6D24DC1297D3700DEA24F478
:109F50001293D17406F07902800BEA24DD1293D1BA
:109F60007406F0790D120F7A7900029E6712A02212
:109F7000EA22C082C083C3EB940F5004EA4B600412
:109F80007912800C9005DCE070047902800279007F
:109F9000029F96F07900D083D082020135C082C042
:109FA00083E9F8900748E07004790C800EE8600DB2
:109FB0001470109005AE7401F0790080D99005AE50
:109FC000E480F5791280F4E0F508A3E0F509E508EE
:109FD000450922F0850A82850B83E022F088828978
:109FE0008322900596E09005A2F0900597E09005F9
:109FF000A3F0900598E09005A4F0900599E09005F5
:10A00000A5F090059AE09005A6F090059BE09005DC
:10A01000A7F022A3A3A3A3A3EAF0A3EBF02212A02C
:10A02000222212A03274D92EFA74053FFB2212A00C
:10A030003222EE75F003A4CEA8F028F875F003EFF5
:10A04000A428FF2274F61217AE9004D974FEF0A370
:10A0500004F09004DCF09004DBF07A018A087509C2
:10A06000007402780812174474D92508F87404356E
:10A0700009F9EA88828983700774FEF0A3048004DA
:10A0800074FFF0A3F088828983A3A3A3F088828958
:10A0900083A3A3F00AEAC3940240C17A067B0B12A1
:10A0A0000B5A7A547B0B120DE2790002AC8674F2E3
:10A0B0001217AEEAFEEBFF8E828F8312A6B66052B5
:10A0C00012A1E312A202750B00780A1219C18A824A
:10A0D0008B83A31219D87C027D007A1E7B90120913
:10A0E00014740412176DE9702E8508828509831295
:10A0F000A202780A1219C18A828B83A31219D87C12
:10A10000027D007A1C7B90120914740412176DE909
:10A110007005790202A1DE900C3D12A6B6600CC358
:10A12000E498FAE499FB12A1F35005790102A1DE4B
:10A130007A067B0012051E8A0A8B0BEA450B700516
:10A14000791302A1DE7A007B008040900C3D12ABB7
:10A15000C78A0C8B0D7403780C121744850882850E
:10A160000983E0250CF8A3E0350D8882F583A3A3CD
:10A17000A3A3ECF0A3EDF0900C3DE02401F0A3E0EC
:10A180003400F0EA24010AEB3400FB12A1F340BBD7
:10A19000850A82850B83E4F0A3F0750804F509783D
:10A1A000081219C1EEFCEFFD12A9D012048E740240
:10A1B00012176D9004E112A6B69004E16017E0FA60
:10A1C000A3E08003E8FAE9FB8A828B8312A6B670CB
:10A1D000F38A828B83E50AF0A3E50BF079007F0612
:10A1E000021880EE2402F508EF3400F50985088294
:10A1F000F583228E828F83E0F8A3E0F9C3EA98EB1F
:10A20000992212ABE88A828B83E0F50A22C082C0D1
:10A2100083E9900C3CF0D083D08202013574F712B0
:10A2200017AEE9FE74145E60047C018007EEA2E6BE
:10A2300050097C007910120E0C800AA2E0400479CB
:10A2400002800279007F0102188074F71217AE892C
:10A2500008ECFEEDFFE9A2E550097C017910120E31
:10A260000C803C74885508602B74085508FC7910E4
:10A27000120E0CE96027EE2418F582EF3400F58306
:10A28000E0601CEE2417F582EF3400F583E06401F2
:10A29000600B800BE9A2E140047903800279008021
:10A2A000A474F41217AE74E9121757EAFEEBFF8993
:10A2B00008E4F50AF50B780A1219C1750A02780A42
:10A2C0001219C1750A0A750B90780A1219C17CFF20
:10A2D0007DFF7A017B00120ADC740612176D8A82F8
:10A2E0008B83E5824583605612AD69851882851996
:10A2F00083E8F0A3E9F074021217A27404F01412B8
:10A3000017A27401F074041217A2E4F07405121776
:10A31000A274FFF074061217A274FFF0E508F509A5
:10A3200078091219C5790074011217A2AC82AD83A5
:10A33000EEFAEFFB120AF4740112176D8002790134
:10A34000741712176D7F0402188074EA1217AE8A10
:10A35000128B138C108D119004E1E0F508A3E0F549
:10A360000974161217A2E0F514A3E0F5157418127B
:10A3700017A2E0F50AA3E0F50B800D850882850998
:10A3800083E0F508A3E0F509E5084509700302A498
:10A39000487E007F00E5082404F50EE5093400F549
:10A3A0000F8008EE24010EEF3400FF850882850936
:10A3B0008312AD6BC3EE98EF9950C08E0C8F0D7465
:10A3C00003780C121744850E82850F83E0250CF567
:10A3D0000CA3E0350DF50D850C82F58312AD69C334
:10A3E000E89512E9951340BBC3E51098E511994033
:10A3F000B2E50A450B6023780A1219C178141219C4
:10A40000C1850C82850D83E0FC7D00A312ABE412B4
:10A410000914740412176DE96089741A1217A212D4
:10A42000A6B6601E850E82850F83E0FAA3E0F58351
:10A430008A82A3A3A3A312ABE488828983EAF0A350
:10A44000EBF0AA0CAB0D80047A007B007F0E0218A3
:10A450008074EE1217AEECFEEDFF9004E1E0FCA379
:10A46000E0800A8C828D8312AD6DE8FCE9FDEC4D35
:10A47000700302A5128C828D8312AD698808890948
:10A480008882F583A3A3A3A3E0F50CA3E0F50DC395
:10A49000EA950CEB950D40CB8C828D83A3A3E0F560
:10A4A0000EA3E0F50FE50C250EF8E50D350FF9C309
:10A4B000EA98EB9950AD750A00750B00800CE50A1F
:10A4C0002401F50AE50B3400F50BC3E50A950EE50A
:10A4D0000B950F508E850A10850B1174037810129E
:10A4E0001744E5082510F8E5093511F988828983B4
:10A4F000A3A3A3A3E06A7003A3E06B70C1EE4F6057
:10A500000B8E828F83E50CF0A3E50DF0E8FAE9FBF2
:10A5100080047A007B007F0A02188074F01217AE64
:10A5200074FE121757EAFEEBFF75080075090085E7
:10A530001882851983E4F0A3F0EE2404F50CEF34BF
:10A5400000F50D850C82F58312AD73A385820A8513
:10A55000830B74FF6A700374FF6B603D85188285FE
:10A56000198385820885830978081219C18E828F24
:10A5700083E0F50875090078081219C1850A8285FB
:10A580000B831219D8EA24010AEB3400FB120ADC0F
:10A59000740612176D8A088B098E828F8312AE2380
:10A5A0001219C1850A82850B831219D87C027D009D
:10A5B0007A1E7B90120914740412176DE970288EAC
:10A5C000828F83E0F50E780E1219C1850A82850B01
:10A5D000831219D87C027D007A1C7B9012091474B6
:10A5E0000412176DE9600B850C82850D8312ABE4B4
:10A5F00080458E828F83E0F50E780E1219C1850A90
:10A6000082850B831219D87C027D007A1A7B901206
:10A610000914740412176DE9603674121217A2122D
:10A62000ABE4E5084509600F851882851983E06A67
:10A630007003A3E06B6005120B00801F8508828504
:10A640000983A3A3A3A3E024FFFAA3E034FF800AB5
:10A65000850C82850D83E0FAA3E0FB74141217A227
:10A6600012AD6D88828983E58245836005EAF0A397
:10A67000EBF0AA08AB09740202AD7BC082C08390E4
:10A6800004E112A6B6602888828983A3A3A3A3E06D
:10A69000FCA3E0F5838C82A3A3A3A3E06A7003A3C9
:10A6A000E06B8882898370DAA3A312ABE480047A1A
:10A6B000007B0002A216E0F8A3E0F9E8492274F258
:10A6C0001217AE74FE121757EAFEEBFF8C088D09C5
:10A6D000890A851882851983AC82AD83120B42E901
:10A6E000F50B706FE50A60107C017910EEFAEFFB54
:10A6F000120E0CE9F50B705BAC08AD09EEFAEFFB3E
:10A70000120884E9F50B704B85188285198312A70E
:10A710005D74101217A2E0F50874FF65086034EE4E
:10A720002402F50CEF3400F50D780C1219C1750CEC
:10A730001E750D00780C1219C1EEFCEFFD7A4E7BF0
:10A740000B120B7E740412176D8E828F83A3A3A34A
:10A75000E508F0A90B740212176D02A1DEE0FEA35A
:10A76000E0FF2274F51217AE74FE121757EAFEEBE3
:10A77000FF8C088D09890A851882851983AC82AD02
:10A7800083120B42741769601DE50A600E7C017923
:10A7900010EEFAEFFB120E0CE9700BAC08AD09EEEF
:10A7A000FAEFFB12087E740212176D7F0302188005
:10A7B00074F61217AEEAFEEBFF120AEEEA4B600FD8
:10A7C000EE24FFF8EF34FFF9EA28FAEB398003EEC4
:10A7D000FAEFFB02AC8674F01217AE74E31217574F
:10A7E0008A088B0912ABB6E0F50F741E650F705422
:10A7F000120B488A0A8B0BEA450B700302A9C9EABF
:10A800002403F50CEB3400F50DE4F50EF50F780E8E
:10A810001219C18E828F83E0FD7C00AA08AB0985E6
:10A820000C82850D83E0F9120B78740212176DE922
:10A83000F50E12A9D0120B84850C82850D8374FF4E
:10A84000F002A9C9900C3CE0F4606BE50FC39419C9
:10A850005064E50FC313F50A750B007402780A12F1
:10A86000174474FE250AF8748D350BF9E824FCFAB8
:10A87000E934FFFB8A0C8B0D8A82F58312ABE4EA84
:10A880004B6033E824FEF582E934FFF58312A6B667
:10A8900060248C828D83A385820A85830B8C828DB4
:10A8A00083E0F9700B850A82850B83E06401700BED
:10A8B0007412650F6005790602A9CB74041217A201
:10A8C00085820E85830F780E1219C18C828D83A329
:10A8D000A3A31219D88C828D83A3A3A3A3A312AB25
:10A8E000C7850A82850B83E0FA850C82850D831269
:10A8F000A9DB1217AC740412176DE9F50E600302A0
:10A90000A9C974041217A2AC82AD83AA08AB098E40
:10A91000828F83E0C313F50C750D007402780C125E
:10A92000174474FC250CF582748D350DF58312A93E
:10A93000DB1217ACE9F50E70368E828F83E0FD7462
:10A94000046D700302A9C974041217A285820A85D6
:10A95000830B780A1219C17C00AA08AB09900C3C41
:10A96000E0F9120B78740212176DE9F50E805A8522
:10A970000A82850B83E070518E828F83E085188276
:10A98000851983F074031217A2E9F08E828F83E099
:10A99000F8740468600D74066860087408686003E1
:10A9A00074106874041217A212AD6D74011217A20C
:10A9B000E8F0A3E9F0851882851983AC82AD83AAFB
:10A9C00008AB09120836750E00A90E741D02AD7B86
:10A9D000E50A2402FAE50B3400FB22E0F8A3E0F5D7
:10A9E00083888222790002013574F01217AE74EA6E
:10A9F0001217578A0C8B0D8C828D8312ABE4750A6B
:10AA00000012ABB6C3E09AA3E09B4004EA4B70058A
:10AA1000790102ABB1851882851983E4F0E4F50869
:10AA2000F50978081219C178081219C178081219A5
:10AA3000C18E828F8312ABC7120ADC740612176DA7
:10AA40008A088B09A808A909E849700302AB108895
:10AA5000828983A3AA82AB83E82404F508E9340041
:10AA6000F509851882851983E0600302AB2188828D
:10AA70008983E06402700B74011217A27401F00262
:10AA8000AB2E74011217A27402F012ABCD75F01246
:10AA9000A4F885F00BA90BE58228F582E58339F54A
:10AAA00083A3A3ECF0A3EDF0750E10750F00780EE4
:10AAB0001219C112ABC374021217A2E075F012A4EE
:10AAC000F8A9F0E58228F8E58339F9E82404FAE9E1
:10AAD0003400FB12048E740212176D8518828519DA
:10AAE00083E004F0700F850882850983E0F4700329
:10AAF000A3E0F47003750A01850882850983E024C8
:10AB000001FAA3E03400FBE50AA2E0400302AA1D1B
:10AB1000851882851983E0600302ABA4790A02AB31
:10AB2000B174011217A2E06401600302AA8A88824C
:10AB30008983E0640270D912ABCDF50E750F0074F5
:10AB400002780E121744E582250EF582E583350F53
:10AB5000F583A3A3ECF0A3EDF0750E02750F00785A
:10AB60000E1219C112ABC374021217A2E0F50E74D3
:10AB700002780E121744E582250EF8E583350FF9A9
:10AB8000E82404FAE93400FB12048E740212176DF3
:10AB9000851882851983E004F0C39405400302AA56
:10ABA000F502AAE6AC82AD83AA0CAB0D120842797D
:10ABB00000741602AD7BEC2402FEED3400FF8E82A1
:10ABC0008F83228A828B83E0FCA3E0FD22850882AA
:10ABD000850983E0FCA3E0FD851882851983E022C6
:10ABE0008E828F8312ABE822E0FAA3E0FB2274F698
:10ABF0001217AE12AC984004EA4B70047901803908
:10AC0000E4F508F50978081219C18C828D83A3A395
:10AC1000A3A3E0F50878081219C112AC8B1219C170
:10AC2000EEFCEFFD120ADC740612176D8B09EA4583
:10AC3000097004790A80027900804B74F61217AE0D
:10AC400012AC984004EA4B700479018039E4F508AD
:10AC5000F50978081219C18C828D83A3A3A3A3E000
:10AC6000F50878081219C112AC8B1219C1EEFCEF6D
:10AC7000FD120ADC740612176D8B09EA450970048F
:10AC8000790A800279007F02021880EC2405F50819
:10AC9000ED3400F5097808228C828D83A3A312A7D6
:10ACA0005D8C828D8312ABE8C3EE9AEF9B2274F623
:10ACB0001217AEEAFEEBFF8C828D837C007D0012C2
:10ACC000ABE4120AE28A828B83E5824583700479C1
:10ACD00001800CA3A3A3E0F9EEFAEFFB120ACA80ED
:10ACE000A574F01217AE8A0A8B0BECFEEDFF750C03
:10ACF000008002050CEE2416F582EF3400F583E0A7
:10AD0000F8E50CC398505EE50CC333F8E433F9EE74
:10AD100028F508EF39F5097C007D00850882F58368
:10AD200012ABE4120AE28A828B83E58245837016B5
:10AD300085088285098312AD6D8E828F83E8F0A32A
:10AD4000E9F079018021A3A3A3E0F9AA0AAB0B12D1
:10AD50000ACAE9609E85088285098312AD73EAF00C
:10AD6000A3EBF0800279008015A3A3A3A3E0F8A3CE
:10AD7000E0F92212ABE88E828F832212176D7F08D2
:10AD800002188074F01217AEECFEEDFF8E828F83F6
:10AD900012AD6D12A1E3C3E098A3E0994004E84925
:10ADA00070047901807AEE2405F50CEF3400F50D7E
:10ADB000EE2404F50AEF3400F50B850A82F58312C0
:10ADC000AE231219C1780C1219C17C027D007A1EC3
:10ADD0007B90120914740412176DE97004791080C5
:10ADE0003FE4F50E780E1219C1850A82850B83E0C7
:10ADF000F50A750B00780A1219C1780C1219C18571
:10AE0000088285098312ABC712ABE0120ADC740614
:10AE100012176D8B09EA45097004790A80027900DE
:10AE200002AD7EE0F50E750F00780E2274F4121755
:10AE3000AE8A088B09ECFEEDFF7C007D0012ABE0D2
:10AE4000120AE28A828B83E582458370047901804D
:10AE500010EEFCEFFDA3A3A3E0F9AA08AB09120AC8
:10AE6000D002A34502A9E474F61217AEECFEEDFF82
:10AE7000120B488A088B09A808A909E849602BEE3B
:10AE80004F60098E828F83E8F0A3E9F0888289837E
:10AE9000A3A3E0F874FE6870047917800F74FF684C
:10AEA00070047900800679168002790202AC8674FB
:10AEB000F61217AE7508009004D9E06A7003A3E09B
:10AEC0006B70167509007402780812174474D9253E
:10AED00008FA74043509FB80137508019004DDE05D
:10AEE0006A7003A3E06B60DB7A007B0002AC8674BF
:10AEF000F41217AEEA4B604BEA2402F508EB12A1FC
:10AF0000E9E0F874FF68603B74FE686036EA240389
:10AF1000FEEB3400FFE4F50AF50B780A1219C17D47
:10AF20001E7C178A828B8312AD73E0F9120B787442
:10AF30000212176D85088285098374FEF08E828F58
:10AF40008304F002A34574F01217AE8A0A8B0B89B2
:10AF50000C74FE650A700474FF650B700302B03058
:10AF6000E97030120B488B09EA4509600302B030E2
:10AF70007AFF7BFF120B488A088B09A808A909E809
:10AF800049700302B03088828983E50AF0A3E50B9B
:10AF900002B02F7401650C701D120B488A088B09D2
:10AFA000A808A909E849700302B03088828983742F
:10AFB000FFF0A3F080217402650C70747901120E09
:10AFC00000E9706CAA0AAB0B120B488A088B09A81F
:10AFD00008A909E8496059E82402FEE93400FF8E17
:10AFE000828F83E0FA74FF6A6046E82403F508E97B
:10AFF0003400F50974FE6A6022E4F50EF50F780E50
:10B000001219C17D1E7C14AA0AAB0B850882850922
:10B0100083E0F9120B78740212176DEEFAEFFB124F
:10B020000B8485088285098374FFF08E828F83F0FC
:10B0300002AD7E74F21217AE8908EAFEEBFF8C09AE
:10B04000750A1274FE6E700374FF6F70189004A975
:10B0500012BA84607212B0CC606D7AFE7BFFA908D0
:10B060001217AC805A74FF6E700374FF6F703590C6
:10B0700004A912BA84601312B0CC600E7AFF7BFF71
:10B08000A9081217ACE9F50A600CAA09A908120967
:10B09000ECE9F50A7031E5089004ABF0E50990049D
:10B0A000ACF08023120DF48A828B83E582458360A5
:10B0B00016E06508700EA909EEFAEFFB120C50E9D4
:10B0C000F50A8003750A03A90A02B25EE0F58388D7
:10B0D00082E0F8A3E0F988828983E58245832274BF
:10B0E000F21217AE890AECFEEDFF900488E06402CC
:10B0F0006005E0640170047912805CEE4F700479A1
:10B10000028054120DF48A088B09EA45097004790B
:10B11000148044E50A600B8A828B83A3A3A3E0D248
:10B12000E1F0750C10750D00780C1219C1EEFCEFF2
:10B13000FDEA240DFAEB3400FB12048E74021217A0
:10B140006D12B76C121645E508241DF582E509124B
:10B15000BF08121651790002B25E74F21217AE8A5D
:10B16000088B09ECFEEDFF900488E06402600EE0BD
:10B1700064016009E064087009EE4F60057912020D
:10B18000B25EEA45097005790202B25E9004A71228
:10B19000BA846005791102B25E8A828B8312B8721A
:10B1A000120DF48A0A8B0BEA450B7005791402B272
:10B1B0005E7A1F7B0012051E9004A712BF1E90042A
:10B1C000A712BA847005791302B25E7C1F7D0079E4
:10B1D000001204A612B86C12B263A312BF1E750C43
:10B1E00016750D00780C1219C1E5082402FCE5095A
:10B1F0003400FD9004A7E02403FAA3E03400FB121E
:10B20000048E740212176D12B2637402F0900488F7
:10B21000E0A2E35004D2F08002C2F09004A7E02440
:10B2200003F50CA3E03400F50D780C1219C112B22D
:10B230006F9004B3E0FAA2F0E433F912129E7402A4
:10B2400012176DE9F508EE4F600BEEFCEFFDAA0A50
:10B25000AB0B1212DAE50860031209F8A9087F06A1
:10B260000218809004A7E0F8A3E0F5838882228585
:10B270000882850983E0FCA3E0FD2274F41217AE76
:10B2800074FF121757EAFEEBFF8908120DF48B0BBF
:10B29000EA450B700479148014851882851983E5BA
:10B2A00008F0AC82AD83EEFAEFFB1212C274011209
:10B2B000176D7F0402188074F01217AE74F0121725
:10B2C000578A0C8B0D8C0E8D0F74201217A2E0FE86
:10B2D000A3E0FFEEFAEFFB120DF48B09EA450970CB
:10B2E0000479128071908FB3780C1214595004793C
:10B2F0000280637C107D007900851882851983AAFD
:10B3000082AB831204A6851882851983E50CF0852B
:10B310000D09E509F50874011217A2E508F0850C7E
:10B3200008850E0A850F0B741078081215687402D0
:10B330001217A2E508F07418780C1215687403123D
:10B3400017A2E50CF0EEFCEFFD851882851983AAA3
:10B3500082AB831212A4741012176D7F080218803A
:10B3600074F01217AE8A0A8B0B890E8C0C8D0D743B
:10B37000101217A2E0F50F900488E064026005E067
:10B3800064017005791202B430EC450D7005790244
:10B3900002B430120DF48A088B09AE08AF09EE4FE3
:10B3A0007005791402B430EE2421F508EF3400F56D
:10B3B0000985088212B43D60031205247C1B7D00C0
:10B3C000AA0CAB0D12049A85088285098312BF1E50
:10B3D00012B26FEC4D700479138055900488E0A28E
:10B3E000E35037E50F6033EC2412F508ED3400F537
:10B3F0000978081219C1EC2410F582ED12BF081269
:10B4000019D8EC241AF582ED12B5A6F9AA0AAB0BED
:10B410001212E0740412176D80027900EE2403F515
:10B4200082EF12B5A6D2E2F0E50E6004E0D2E1F0C0
:10B4300002B35B12BEFC241BF582E83400F583E006
:10B44000FAA3E0FBEA4B2274EA1217AE8A0E8B0FC6
:10B45000EA450F700302B5A19004A512BA846005F5
:10B4600012B2698003900B80E0F50C9004B412BA1C
:10B4700084600F12B269A3A312B0D16005790012E3
:10B4800017ACE50E2407F50AE50F3400F50BE50EC1
:10B490002408F508E50F3400F509AA08FB850A829F
:10B4A000850B83E0F9120950E9FB850A82850B833D
:10B4B000F0E50E2403FEE50F3400FFE50E2404F54D
:10B4C00012E50F3400F513E50E240EF510E50F34E8
:10B4D00000F511E50E2414F582E50F12B5A6F5145A
:10B4E00075150078141219C1E50E2412F582E50FC6
:10B4F00012BF081219D8E50E2410F582E50F12BF0D
:10B50000081219D88510828511831219D8851282E4
:10B510008513831219D8AC08AD09AA0C8E828F83CB
:10B52000E0F91209DA740A12176D8E828F83E070C7
:10B53000318510828511831219D878081219C185B6
:10B540000A82850B83E0FD7C0185128285138312BC
:10B55000B872A90C120DE8740412176DE98E828F6F
:10B5600083F09004A512BA8460371209FE9004ABF0
:10B57000E0602E9004ACE0FA9004ABE0F91209EC24
:10B58000E9601E8E828F83E0FB8512828513831211
:10B59000B2759004ABE0FAEBF91209E09004ABE469
:10B5A000F07F0E02188012BD06E02274F71217AE6B
:10B5B000EAF8EBF988828983A3A3A3A3A3A3A3A397
:10B5C000A3A31219D888828983A3A3A3A3A3A3A3A7
:10B5D000A31219D888828983A3A3A3A3A3A312B219
:10B5E0007588828983A3A3A3A312B87288828983F2
:10B5F000A3A3A3E0F91209E6740412176D7F0102F8
:10B60000188074F21217AEEAFEEBFF750A00EE2402
:10B6100003F8EF3400F9880889098882F58312B8A5
:10B6200072120DF48A828B83E58245836009E0F50E
:10B630000A12B86C120DEE9004ABE06019650A7046
:10B64000159004ACE0FA9004ABE0F91209ECE96063
:10B65000249004ABE4F0E50A601B8E828F83A3A3E1
:10B66000A3A3A3E0FB12B26FAA0A8E828F83A3A3C7
:10B67000E0F91209E09004A712BA8460031209F8F5
:10B6800002B25E74E81217AE890B8A0E8B0A8C0C1C
:10B690008D0D741A1217A2E0F516A3E0F517741CAD
:10B6A0001217A2E0F514A3E0F515741E1217A2E01C
:10B6B000F510A3E0F51174201217A2E0F5087A1333
:10B6C0007B001204B28A128B13AE12AF13EE4F70CE
:10B6D0000302B7678E828F8374D012BB698E828F0C
:10B6E00083A3A3740512BA21EE2404FAEF3400FBFD
:10B6F000E50C450D601975120675130078121219C4
:10B70000C1AC0CAD0D12048E740212176D80097C51
:10B71000067D0079001204A674181217A2E0F8A39F
:10B72000E0F98E828F83A3A3A3A3A3A3A3A3A3A3C0
:10B73000E8F0A3E912BCFBE516F0A3E517F0EE2450
:10B740000E12BF05E514F0A3E515F012B76CE51075
:10B75000F0A3E511F0EE241212BF05E508F0EEFAB1
:10B76000EFFBA90E1204BE7F10021880EE24101207
:10B77000BD032274F21217AE89098A08ECFEEDFFB0
:10B780008B0A7A067B001204B2EA4B60278A828B0E
:10B790008374D0F0A3E509F08A828B83A3A3740697
:10B7A00012B7B7EEF0A3EF12B7B7A3A3E50AF0A95B
:10B7B000081204BE02B25EF08A828B83A3A3A32286
:10B7C00074EC1217AE89108A088B098C0A8D0B74E1
:10B7D000141217A212BA4574161217A2E0F50EA39E
:10B7E000E0F50F7A0C7B001204B28A128B13AE12B2
:10B7F000AF13EE4F604DAA08AB09120DF48A828B8D
:10B8000083E58245837003900B80E0F98E828F83FD
:10B8100074D0F0A3E51012BC24740712BA28E5080E
:10B82000F012BC2CA3E50B12BC36E50CF0A3E50D21
:10B8300012BC36A3A3E50EF0A3E50FF0EEFAEFFB82
:10B840001204BE02BA1C74F61217AEEAFE120DFA0A
:10B850008A828B83E5824583600BEEF9A312B8726E
:10B86000120C50800279127F0202188085088285AE
:10B870000983E0FAA3E0FB2274EC1217AE89118A67
:10B880000A8B0B8C10120DF48A0E8B0FEA450F7089
:10B890000302BA1C9004A712BA84700302BA1C7A7D
:10B8A0000E7B00E0C8241912BA7E60027A2912BA0F
:10B8B000796008EA2414FAE43400FB74141217A225
:10B8C00012BA45E50C450D6008EA241BFAEB34007A
:10B8D000FB12BF1212BA7E6008EA2416FAEB34009B
:10B8E000FB1204B28A088B09AE08AF09EE4F700351
:10B8F00002BA1C7C0E7D0079001204A67A267B0019
:10B900001209268A088B09EA45097009850E828585
:10B910000F83E0F5088E828F8374D0F0A3E51112B7
:10B92000BC24740A12BA21A3E50B12BA28A3E510AD
:10B93000F0EE240EF50AEF3400F50B9004A7E02496
:10B940001912BA3A12BA846018EE240612BA4D12CD
:10B9500019C18C828D8312B27512048E7402121773
:10B960006D9004A7E0241D12BA3A12BA84603AEE30
:10B970002408F8EF3400F98882898312BB67888233
:10B98000898312B872EA2414F50AEB3400F50B75BA
:10B990000E14750F00780E1219C18C828D8312B2AD
:10B9A0007512048E740212176DE50C450D6015EECC
:10B9B000240A12BA4D1219C1AC0CAD0D12048E74CA
:10B9C0000212176D9004A7E0241BF8A3E03400F9DD
:10B9D000E8FAE9FB8A828B8312BA846033EE240C86
:10B9E000F8EF3400F9880C8882F58312BB67750A7A
:10B9F00016750B00780A1219C18A828B8312B275F0
:10BA0000850C82898312B87212048E740212176D2B
:10BA1000EEFAEFFBA9081204BE1209F87F0C021817
:10BA20008012BA2DE50AF02212BA2DA32212BA31E1
:10BA300022F08E828F83A3A3A322FCA3E03400FD17
:10BA40008C828D8322E0F50CA3E0F50D22F8EF3413
:10BA500000F988828983E50AF0A3E50BF0888289E2
:10BA600083E0FAA3E0FBEA241BF50AEB3400F50BB4
:10BA7000750E1B750F00780E2212BEFC241DF58278
:10BA8000E812BD06E0F8A3E0F9E84922C082C083CD
:10BA90009004A712BA84602FE0C8241912B4386049
:10BAA0000312052412B433600312052412BF0C12D2
:10BAB000B43860031205249004A712B8721205244A
:10BAC0009004A7E4F0A3F0D083D082020135C082B5
:10BAD000C0839004A512BA8460109004A512B872B5
:10BAE0001205249004A5E4F0A3F080DB74F0121793
:10BAF000AE890C8A0A8B0B120DF48A088B09EA4571
:10BB000009605E7A267B001209268A0E8B0FAE0E24
:10BB1000AF0FEE4F7008850882850983E0FE7A0535
:10BB20007B001204B28A088B09EA450960337C0560
:10BB30007D0079001204A685088285098374D0F0FF
:10BB4000A3E50CF0850882850983A3A3740EF08514
:10BB5000088285098312BB64AA08AB09EEF91204B6
:10BB6000BE02B35BA3A3A3E50AF0A3E50BF0227426
:10BB7000EC1217AE89088A0E8B0F8C098D0A74148B
:10BB80001217A2E0F50C74151217A2E0F50B120DB6
:10BB9000F48A128B13EA4513700302BC217A0B7BE3
:10BBA000001204B28A108B11AE10AF11EE4F60710B
:10BBB0007C0B7D0079001204A67A267B00120926F0
:10BBC0008A108B11A810A911E84970088512828586
:10BBD0001383E0F88E828F8374D0F0A3E50812BC43
:10BBE00024740F12BC24A3E50EF0A3E50F12BA28AB
:10BBF00012BC2C8E828F83A3A3A3A3A3A3A3E50CC3
:10BC000012BC36E50BF074161217A2EE2409FCEFF5
:10BC10003400FD740212166AEEFAEFFBE8F9120422
:10BC2000BE02BA1CF08E828F83A3A322A3E5091261
:10BC3000BC3CE50AF02212BC3CA3A32212BA31A3F9
:10BC4000A3A32274EE1217AE8A0A8B0B890E120D73
:10BC5000F48A0C8B0DEA450D700302BCF67A0D7B5D
:10BC6000001204B28A088B09AE08AF09EE4F7003C8
:10BC700002BCF67A267B001209268A088B09EA455F
:10BC8000097009850C82850D83E0F5088E828F830B
:10BC900074D0F0A3E412BC24740BF0751006751177
:10BCA0000078101219C1E50C2405FCE50D3400FDE7
:10BCB000EE2403FAEF3400FB12048E740212176DA7
:10BCC0008E828F83A3A3A3A3A3A312BB64EE240B32
:10BCD00012BF05E50EA2E0500474018001E412BC1D
:10BCE000FBE50EA2E1500474018001E4F0EEFAEFEE
:10BCF000FBA9081204BE7F0A021880F0EE240C1281
:10BD0000BD0322F582EF3400F5832274E81217AEEA
:10BD100089108A0F8C088D098B0EAA08AB09120DA9
:10BD2000F48A0A8B0B74181217A212BA45741A12ED
:10BD300017A2E0F514A3E0F515741C1217A2E0F5A4
:10BD400016A3E0F517741E1217A2E0FEA3E0FFEAA7
:10BD5000450B700302BE2EE510600302BE2EEA24DE
:10BD600003F582EB12B5A6D2E4F0E50EA2E2E050B4
:10BD700004D2E18002C2E1F0E50C450D7010E5143B
:10BD80004515700AE51645177004EE4F606BE0D25A
:10BD9000E2F0EE4F603512B76C121645E50A241D2D
:10BDA000F582E50B12BF08121651751210751300BB
:10BDB00078121219C1EEFCEFFDE50A240DFAE50B2D
:10BDC0003400FB12048E740212176DE50A2421F56B
:10BDD0000AE50B3400F50BE50C450D6021E50F700D
:10BDE0001D850A82850B8312B43F60031205247CF3
:10BDF0001B7D00AA0CAB0D8027E0C2E2802FE5146A
:10BE00004515602A7401650F7024850A82850B83AD
:10BE100012B43F60031205247C1B7D00AA14AB15ED
:10BE200012049A850A82850B83EAF0A3EBF0900452
:10BE3000A712BA84700302BEF9E50C450D6039E023
:10BE4000C8241912BA7E700F7A1B7B0012051E12CD
:10BE5000BEFC241912BF1812BEFC241912B438609B
:10BE600017750A1B750B00780A1219C1AC0CAD0DC1
:10BE700012048E740212176DE5164517603112BF59
:10BE80001212BA7E700D7A167B0012051E12BF12B6
:10BE900012BF1812B4336017750A16750B00780AB2
:10BEA0001219C1AC16AD1712048E740212176DEE82
:10BEB0004F603112BA79700D7A147B0012051E1290
:10BEC000BF0C12BF1812BF0C12B4386017750A14D9
:10BED000750B00780A1219C1EEFCEFFD12048E7486
:10BEE0000212176D78141219C1AC0EAA08AB09A979
:10BEF000101209F2740212176D02B7679004A7E0DE
:10BF0000F8A3E0C822F582EF12BD062212BEFC247F
:10BF10001D2212BEFC241B22F582E812BD06EAF0A7
:10BF2000A3EBF02274EE1217AE890B8A0C8C0E8DE7
:10BF30000F750A0012C0256005791102C00774123E
:10BF40001217A2E0F508A3E0F509E5084509603CF1
:10BF50007A217B001209268A108B11A810A911E5FD
:10BF6000082415FEE5093400FF8E828F83E0C39814
:10BF7000E49940187A227B001209268A108E828F5B
:10BF800083E0FAC3E5109AEB9400500479028077BD
:10BF90007A637B0012051E90093AEAF0A3EBF012D7
:10BFA000C02570047913805F7C637D0079001204E2
:10BFB000A612C013E4F090093A12C5D7E50BF012AF
:10BFC000C013A3E50CF090093A12C727E50EF0A3C1
:10BFD000E50FF012CAAFE508F0A3E509F012CC4571
:10BFE000241812C00CE4F0A3F012CAB5E4F0E50B7B
:10BFF00060061212E6E9F50A12C0137401F0E50AB0
:10C00000600312131CA90A7F0A021880F582E81245
:10C01000CAC62212C0172290093A12C01E2212C5A7
:10C02000DBA322E9FE90093A12C478E8492274F6AB
:10C030001217AE7E0012C0256019E0C8241AF582DE
:10C04000E812C42B740268600F740368600A7404F9
:10C05000686005791202C0F912C10A6C7003A3E08E
:10C060006D6005790202C0F97508108E0978081212
:10C0700019C1EAFCEB12C0FC12048E740212176D97
:10C08000791090093AE0242BFAA3E03400FB121255
:10C090006E90093AE0241BF508A3E03400F5097816
:10C0A000081219C112C80612C0FC1212D47402126E
:10C0B000176D90093AE0240112CAA4E0FA90093AF7
:10C0C000E0FBA3E0F5838B82E0600D74036A7027C8
:10C0D000888289837402801974046A70098882894D
:10C0E000837402F0801174036A700C8882898374EF
:10C0F00005F01212ECE9FEEEF902CB6CFD90093A64
:10C10000E02407FAA3E03400FB2290093AE0F8A308
:10C1100012CD89E022C082C08390093C02C47E74A3
:10C12000F71217AE12C023601312C1106A7003A376
:10C13000E06B700874016E700312131C7F0102180B
:10C1400080C082C083791712132202C48374F41250
:10C1500017AE74ED121757EAF8EBF98518828519B6
:10C1600083E4F088828983A3A3A3A3A3A312C6C9EF
:10C170008A828B83E0F50AE82402F8E93400F9E8C2
:10C18000FEE9FFE50A14603314603014604B14605C
:10C190007214607D14700302C21F14700302C22D5A
:10C1A00014700302C23B14700302C24914700302EC
:10C1B000C25714700302C26502C27474011217A23E
:10C1C000AC82AD83121382E9F87412687019851875
:10C1D00082851983740602C27C74011217A2AC8294
:10C1E000AD8312138EE9F8E8600302C2C4750B0731
:10C1F00012C6C5120DF4EA4B600302C27F7508082F
:10C2000002C2BB74011217A2AC82AD8312139A80D2
:10C21000D474011217A2AC82AD831213A680C67427
:10C22000011217A2AC82AD831213B280B87401124E
:10C2300017A2AC82AD831213BE80AA74011217A29A
:10C24000AC82AD831213D0809C74011217A2AC8211
:10C25000AD831213D6808E74011217A2AC82AD8307
:10C260001213E2808074011217A2AC82AD83121304
:10C27000EE02C1E58518828519837407F0804E901F
:10C280000488E0A2E3500590093E800390093C1227
:10C29000C028602412C781F8A3E0F98909E845099C
:10C2A000601674011217A2AC82AD83A90A88828538
:10C2B00009831217ACE9F50B850B088518828519DF
:10C2C00083E508F0851882851983E0600CAC82ADA7
:10C2D0008312C6C51212C2800312124A74131217B7
:10C2E0006D7F0402188074F61217AEECFEEDFF7538
:10C2F00008A075091378081219C179021213F47491
:10C300000212176DE9F5088E828F83E0F91213226D
:10C31000A90802CB6C74F41217AEEAFEEBFF890891
:10C3200012C025700302C40112C1106E7003A3E095
:10C330006F600302C40190093AE0240108A3E034CD
:10C3400000F9E8FAE9FB8A828B83E0F874066860FA
:10C350000302C3EE12C5CF607C90093B12CD83125D
:10C36000C47890093AE0FCA3E0CC2418F582EC12E2
:10C37000CCB8FCA3E0FDE82413F582E912C42BA29B
:10C38000E050168C828D83A3A3A3A3A3E0A2E05068
:10C39000088A828B8374078034E8540260168C828A
:10C3A0008D83A3A3A3A3A3E0540260088A828B8396
:10C3B00074098019E8540460178C828D83A3A3A3A9
:10C3C000A3A3E0540460098A828B83740BF0801568
:10C3D00090093E800390093C12C028600812C4678F
:10C3E00060031217AC12C460703C7900800E7411A7
:10C3F00068700EE5086003750832A90812132280E0
:10C4000025E5087018EEFAEFFB120DF48A828B8393
:10C41000E58245836007A3A3A3E0D2E4F0EEFAEF40
:10C42000FBA908120A04790102C2E112CAC6E0F8A7
:10C4300022C082C08312C025602412C7817005907B
:10C44000093C800390093E12C028600812C467604E
:10C45000031217AC12C460700579001213228023F6
:10C4600012C017E064122212C6C1A3A312C47888B6
:10C47000828983E582458322E0F8A3E0F922EAF08D
:10C48000A3EBF0D083D08202013574E81217AE74AA
:10C49000E9121757851882851983EAF0A3EBF08C0F
:10C4A000168D17742F1217A2E0F514A3E0F51512DC
:10C4B000C0257005791202C5C512C786120DF48A0F
:10C4C000088B09AE08AF09EE4F7005791402C5C597
:10C4D00074021217A2AA82AB8312132EEE2405F562
:10C4E00012EF3400F513EE2404F510EF3400F511CB
:10C4F00012C5CF603274021217A285820C85830D9B
:10C5000012C5E4FEA3E0FF120974E9F50E790012EA
:10C51000097A8A0A8B0B851082851183E0F50F85D5
:10C520001208851309803012C5E4F50CA3E0F50D5F
:10C5300074021217A2AE82AF83120974E9F50F7963
:10C540000012097A8A088B09851082851183E0F52B
:10C550000E85120A85130B74101217A2AC82AD83DC
:10C56000EEFAEFFB12137674091217A2AC82AD83B8
:10C57000AA0CAB0D12137078141219C17808121995
:10C58000C1E50FF50878081219C5780A1219C174A7
:10C59000101217A285820885830978081219C174C0
:10C5A000191217A285820885830978081219C1A972
:10C5B0000EAC16AD17740B1217A212C6C912125C7C
:10C5C000740B12176D741712176D7F10021880907C
:10C5D000093A12C5D7E02212C5DB22E0F8A3E0F544
:10C5E0008388822290093BE0C8241812CAC3E02243
:10C5F00074F61217AE74F7121757EAFEEBFF8C08A9
:10C600008D0990093C12C028700302C6BC12C6C135
:10C6100012C028700302C6BC8C828D83E0C0E07417
:10C62000021217A2D0E0F08C828D83A3E0C0E074E8
:10C63000031217A2D0E0F08C828D83A3A3E0F974DB
:10C64000041217A2AA82AB8312127A850882850986
:10C6500083A3A3A3E0C0E074061217A2D0E0F08584
:10C660000882850983A3A3A3A3C082C08374071291
:10C6700017A2AC82AD83D083D082740212166A7482
:10C68000021217A2AC82AD837901EEFAEFFB90099A
:10C690003C12C5D2F8A312C6C11217ACE9851882A4
:10C6A000851983F0601674011217A2E9F0AC82AD0F
:10C6B000838E828F83A312C6C91212C2740902CB61
:10C6C0006912C5DE228E828F83E0FAA3E0FB22741A
:10C6D000F21217AE8908740E1217A2E0F50AA3E051
:10C6E000F50B74101217A2E0F50CA3E0F50D9009FC
:10C6F0003E12C028602A90093E12C727A3E0FEA37D
:10C70000E0FFEE4F601A780C1219C1780A1219C1B5
:10C71000A9088E828F831217AC740412176D8002E1
:10C7200079027F0602188012C7922274F61217AEA1
:10C7300074F912175712C025603D85188285198338
:10C74000AA82AB8312132E12C78612C77E600875A9
:10C750000870750913800675087675091378081234
:10C7600019C174021217A2AC82AD8379071213F4B7
:10C77000740212176D80027901740702CB69900967
:10C780003B12C6C1E02212C78FE0FAA3E0FB229061
:10C79000093A12C01EA3A32274F61217AE74F01247
:10C7A000175775081075090078081219C190093AD1
:10C7B000E0241BFCA3E03400FD74021217A2AA823D
:10C7C000AB8312048E740212176D750888750913F5
:10C7D00002CB4C74F61217AE74F01217577508108E
:10C7E00075090078081219C112C806FD74021217E3
:10C7F000A2AA82AB8312048E740212176D7508947C
:10C8000075091302CB4C90093AE0242BFCA3E034C9
:10C81000002274F01217AE8A088B09750A007A0795
:10C820007B0012051E90093AE0241812CAA4EAF00F
:10C83000A3EBF088828983E0FA4B700302CA761278
:10C84000CAAFE0FEA3E0FF750C07750D00780C126F
:10C8500019C1AC08AD0912048E740212176D12C50D
:10C86000CF600302C9EAEE2413FCEF3400FD12C5C9
:10C87000E42405F50CA3E03400F50D8C828D8312C1
:10C88000C478850C82850D83E0A2E092F0E8A2E0F6
:10C8900020F001B35007A2E0E433FA80027A00E806
:10C8A00054FE4AF88C828D8312CA92C313A2E0927E
:10C8B000F0E8C313A2E020F001B35012E854026084
:10C8C00004D2F08002C2F0A2F0E433FA80027A00CF
:10C8D000E854FDF8EAC333FAE433FBE84AF8E94BDD
:10C8E00012CA9E543FA2E092F0E81313543FA2E014
:10C8F00020F001B35013E854046004D2F08002C267
:10C90000F0A2F0E433F50E8003750E00750F00E819
:10C9100054FBFAE9FB7402780E121744EA450EF84C
:10C92000EB450F12CA9E13541FA2E092F0E81313B6
:10C9300013541FA2E020F001B35013E85408600420
:10C94000D2F08002C2F0A2F0E433F50E8003750E3F
:10C9500000750F00E854F7FAE9FB7403780E12171C
:10C960004412CA80540FA2E092F0E8C4540FA2E02F
:10C9700020F001B35013E854106004D2F08002C2DA
:10C98000F0A2F0E433F50E8003750E00750F00E899
:10C9900054EFFAE9FB7404780E12174412CA80139C
:10C9A0005407A2E092F0E8C4135407A2E020F0017B
:10C9B000B35013E854206004D2F08002C2F0A2F019
:10C9C000E433F50C8003750C00750D00E854DFFAB4
:10C9D000E9FB7405780C121744EA450CF8EB450D99
:10C9E000F98C828D83E8F0A3E9F0850882850983BC
:10C9F000A3E0600F8E828F83A3E0600712CAB57434
:10CA000005806B850882850983A3A3E05404701414
:10CA1000EE2412F582EF12CCB8A2E2400712CAB59A
:10CA20007401804A12C5CF8E828F83600CE0F88536
:10CA30000882850983E0F9800AE0F9850882850982
:10CA400083E0F8E8C394055028E9C3940550228890
:10CA500008E975F005A4F8A9F0744E28F8748E3929
:10CA6000F9E8250812CCB5C0E012CAB5D0E0F080D4
:10CA700008750A188003750A13A90A7F080218802E
:10CA8000EA450EF8EB450F12CA8CC422F98C828D50
:10CA900083E8F0A3E9F0850C82850D83E02212CAB9
:10CAA0008C131322F8A3E03400F9888289832212C0
:10CAB000C78FA3A32290093AE0F8A3E0C8241A1272
:10CAC000CAC322F582E83400F5832274F61217AE49
:10CAD0007508AC75091378081219C179111213F48D
:10CAE000740202CB6974F61217AE74EE121757EA8D
:10CAF000FEEBFF741C1217A212C6C9851882851995
:10CB000083ECF0A3EDF07508087509007808121998
:10CB1000C1EAFCEBFD74041217A2AA82AB831204D3
:10CB20008E740212176D7508B875091378081219FA
:10CB3000C174021217A2AC82AD83790BEEFAEFFB3F
:10CB40001213F4740212176D7412801D78081219F2
:10CB5000C174021217A2AC82AD83791112C786127A
:10CB600013F4740212176D741012176D7F020218FD
:10CB70008074F61217AE7508C475091302CAD6740C
:10CB8000F41217AE74F9121757EAFEEBFF851882FC
:10CB9000851983E9F0750A06750B00780A1219C128
:10CBA00074031217A2AA82AB8312048E74021217A6
:10CBB0006D750ACA750B13780A1219C1740212171F
:10CBC000A2AC82AD837908EEFAEFFB1213F4740283
:10CBD00012176D740702C2DE74F61217AE7508DC08
:10CBE00075091302CAD6C082C08312C0256050E006
:10CBF000C8241812CC4E600312052412CC45245BC5
:10CC000012CC4E600312052412CC45245D12CC4E8A
:10CC1000600312052412CC45245F12CC4E6003122F
:10CC2000052412CC45246112CC4E600312052490D9
:10CC3000093A12C6C912052490093AE4F0A3F01289
:10CC4000125002C48390093AE0F8A3E0C82212CA45
:10CC5000C3E0FAA3E0FBEA4B2274F71217AE12C04E
:10CC600023604FE0C8246112C00C1219D812CC45C1
:10CC7000245F12C00C1219D812CC45245D12C00CCE
:10CC80001219D812CC45245B12C00C1219D812CC40
:10CC9000452417F582E812CCB8FB12C10AFCA3E0C8
:10CCA000FD12C77EFAEEF9120A16740812176D12F9
:10CCB000131C02C13CF582E912CAC6E022C082C040
:10CCC00083791090093A12CC51603990093AE0F812
:10CCD000A312C5E7FAA3E0FBEAFCEBFDEC4D6024F0
:10CCE00012CAAF12CC51601CEA2415F582EB12C4B3
:10CCF0002B8C828D83A3A3A3A3E0FAC3985003EAED
:10CD00008001E8F902C48374F61217AEEAFEEBFF65
:10CD100012C025606212CD8312C028605A8808892B
:10CD20000988828983E08E828F83F088828983A339
:10CD3000E08E828F83A3F0E8241212CCB5F9EE24A2
:10CD400002FAEF3400FB12127AE5082415F582E5A9
:10CD50000912CCB88E828F83A3A3A3A3F0E5082485
:10CD600013F582E50912C00FEE2405FCEF3400FD37
:10CD7000740212166A80097C077D0079001204A6ED
:10CD800002CB6C12CD89A3A32212C5DEA3A3A322DA
:10CD90007F0102188074F41217AE74FD121757EA5F
:10CDA000FEEBFF8C088D09EE4F6005EC4509700421
:10CDB000790280607903851882851983AA82AB8302
:10CDC00012126E74021217A2E0543F4440F0780829
:10CDD0001219C174021217A2AC82AD83EEFAEFFBF6
:10CDE000121256740212176DE9FE7026750A037549
:10CDF0000B00780A1219C174021217A2AC82AD831B
:10CE0000E5082403FAE5093400FB12048E740212CB
:10CE1000176DEEF9740302CEC074F41217AE74FAF3
:10CE20001217578A088B09ECFEEDFFEA45096004EA
:10CE3000EE4F7005790202CEBB750A03750B0078C0
:10CE40000A1219C1EE2403FCEF3400FD740212171C
:10CE5000A2AA82AB8312048E740212176D7402129E
:10CE600017A2E0543F4440F074031217A285820ACF
:10CE700085830B780A1219C174021217A2AC82AD15
:10CE800083AA08AB09121256740212176DE9702BAF
:10CE900075080375090078081219C1EEFCEFFD74DE
:10CEA000051217A2AA82AB831204A0740212176D96
:10CEB000E964017004790080027901740602CEC031
:10CEC00012176D7F0402188074E81217AE74E8120E
:10CED00017578A0A8B0B89178C088D09EA450B6056
:10CEE00005EC45097005790202D01874042517F580
:10CEF00016FA7B0012051E8A0C8B0DAE0CAF0DEEE0
:10CF00004F700302D0131209628A0C8B0D8C0E8DA8
:10CF10000F85171075110078101219C1AC0AAD0BEE
:10CF2000EE2404FAEF3400FB120494740212176D1D
:10CF30008E828F83A3A3A3E50CF0E50DF5158E82F9
:10CF40008F83A3A3F0850C10F511850E12850F13A6
:10CF500074107810121568E510F5148E828F83A373
:10CF6000F0850C10850D11F512850F1374187810CB
:10CF7000121568E510F50A8E828F83F0751010780F
:10CF8000101219C112095CEAFCEBFD740A1217A217
:10CF9000AA82AB83120494740212176D85188285DD
:10CFA000198385821085831178101219C1A916EE94
:10CFB000FCEFFD740A1217A2AA82AB8312128674C8
:10CFC0000212176DE9F50B7041850882850983E52A
:10CFD0000CF0A3E51512D01DE51412D01DA3E50A2F
:10CFE000F0750C08750D00780C1219C17402121737
:10CFF000A2AC82AD83E5082404FAE5093400FB12F3
:10D000000494740212176D120968EEFAEFFB120510
:10D01000248003750B13A90B741802D622F085081F
:10D0200082850983A3A32274E81217AE74DD121758
:10D030005774011217A2EAF0A3EB12DA0C8C168DCA
:10D0400017EC4517700302D0F2743C1217A212D2EB
:10D0500040700302D0F274011217A212D322120DF3
:10D06000F48A148B15EA45157005791402D23B85B4
:10D070000882850983E0F510E4F511F512F513A394
:10D08000E0F50CE4F50DF50EF50F7408780C1215AB
:10D09000817810790C1215A0850882850983A3A3D5
:10D0A000E0F50CE4F50D7410780C12158178107908
:10D0B0000C1215A0850882850983A3A3A3E0F50CB3
:10D0C000E4F50E7418780C1215817810790C12158D
:10D0D000A0EA241DF582EB12DB63780C1216277888
:10D0E00010790C121439400F908FAF780C12142461
:10D0F0006005790202D23B851882851983E06011B0
:10D100008A828B83A3A3A3E0A2E14005790102D226
:10D110003B7C087D00790074031217A2AA82AB83BE
:10D120001204A6743B1217A2E0F50E7404250EF546
:10D130000AFA7B0012051E8A0C8B0DAE0CAF0DEEA9
:10D140004F7005791302D23B750F00780E1219C18A
:10D15000AC16AD17EE2404FAEF3400FB12049474FD
:10D160000212176D750C04750D00780C1219C1AC04
:10D1700008AD09EEFAEFFB120494740212176D75F4
:10D180000C10780C1219C1E514240DFCE5153400BF
:10D19000FD74151217A2AA82AB83120494740212B2
:10D1A000176D74031217A285820C85830D780C12FB
:10D1B00019C1A90AEEFCEFFD74151217A2AA82ABE1
:10D1C00083121286740212176DE9F50A7064750CE9
:10D1D00008750D00780C1219C174051217A2AC82E3
:10D1E000AD83740D1217A2AA82AB83120494740249
:10D1F00012176D780C1219C1E5082404FCE50934F6
:10D2000000FD740D1217A2AA82AB831204A074024F
:10D2100012176DE964016005750A01801578101216
:10D2200019BD74051217A212D32212096E740412CA
:10D23000176DEEFAEFFB120524A90A742302D62219
:10D2400012D62AE50845092274F41217AE8908128D
:10D25000D380700302D31DE508705C12D32EE075F5
:10D260000A08750B00780A702E1219C1EAFCEBFD52
:10D27000900938E02402FAA3E03400FB12048E7413
:10D280000212176D120C98E9700812D3287401026B
:10D29000D318750801801B1219C1EAFCEBFD900937
:10D2A00038E0240AFAA3E03400FB12048E74021260
:10D2B000176D12D38060627A127B001204B28A0A60
:10D2C0008B0BAE0AAF0BEE4F603F8E828F8374C123
:10D2D000F0A3E508F0750A10750B00780A1219C161
:10D2E000900938E02402FCA3E03400FDEE2402FAA9
:10D2F000EF3400FB12048E740212176DEEFAEFFB8E
:10D3000012D328A3E0F91204BE90093812D32212D6
:10D310000524900938E4F0A3F07901800279000235
:10D32000CEC3E0FAA3E0FB22900938E0F8A3E0F5D1
:10D330008388822274F21217AE7A207B00120926AB
:10D340008A088B09E4F50AF50B8B0DEA450D60168A
:10D3500078081219BD7A017B00900940E0F91205A6
:10D3600060740412176D02D435C082C0837A017BC9
:10D3700000900940E0F912056CD083D0820201359B
:10D38000900938E0F8A3E0F9E8492274F21217AEE8
:10D3900074D01217578A0A8B0BECFEEDFF743E1205
:10D3A00017A212D4001204A6750C10750D00780C8B
:10D3B0001219C1AC0AAD0B74021217A2AA82AB8378
:10D3C000120494740212176D750A03750B00780A23
:10D3D0001219C1EEFCEFFD741F1217A2AA82AB83D3
:10D3E000120494740212176D851882851983AA821B
:10D3F000AB83121280E9FE780A1219C1742F801BC8
:10D4000012D62A7C307D007900851882851983AA7E
:10D4100082AB8322780A1219C174221217A2AC823D
:10D42000AD83AA08AB09120494740212176DEEF9C9
:10D43000743012176D7F0602188074E81217AE74EC
:10D44000B0121757EAFEEBFF8C168D17890A746825
:10D450001217A212D62A746A1217A2E0F50CA3E0E2
:10D46000F50D746C1217A2E0F510A3E0F511746EBF
:10D470001217A2E0F50B746F1217A2E0F514A3E0E7
:10D48000F51574711217A2E0F50EA3E0F50F7C30CC
:10D490007D00790074201217A2AA82AB831204A621
:10D4A00075121075130078121219C1EEFCEFFD749D
:10D4B000221217A2AA82AB83120494740212176D6F
:10D4C0007C107D007900851882851983AA82AB8340
:10D4D0001204A675120778121219C1AC08AD0974AE
:10D4E000021217A2AA82AB83120494740212176D5F
:10D4F00075080775090078081219C1AC0CAD0D74D8
:10D50000091217A2AA82AB83120494740212176D37
:10D51000E50B6009740E1217A274018006740E12D6
:10D5200017A2E4F0E50A6009740F1217A2740180D3
:10D5300006740F1217A2E4F07C107D007900EC1243
:10D5400017A2AA82AB831204A675080678081219DE
:10D55000C1AC10AD1174161217A2AA82AB831204CB
:10D5600094740212176D78081219C1AC14AD1574B9
:10D570001C1217A2AA82AB83120494740212176DB4
:10D5800075081078081219C1AC16AD17743212174D
:10D59000A2AA82AB83120494740212176D851882BA
:10D5A000851983AC82AD8374301217A2AA82AB8333
:10D5B00012126274201217A2AA82AB83121280E99F
:10D5C000FE78081219C174421217A2AC82AD83749E
:10D5D000321217A2AA82AB8312048E740212176D44
:10D5E00074101217A2AC82AD8374301217A2AA82F3
:10D5F000AB8312126274201217A2AA82AB8312129A
:10D6000080E9FF78081219C174421217A2AC82ADEA
:10D6100083AA0EAB0F120494740212176DEE4FF929
:10D62000745012176D7F10021880E0F508A3E0F522
:10D63000092274F71217AE79108C828D83E0F88A74
:10D64000828B83E068F0A3AA82AB838C828D83A354
:10D65000AC82AD8319E970E102CD9074F21217AE7D
:10D6600074D01217578C0A8D0B743E1217A2E0FE6D
:10D67000A3E0FF74401217A212D62A750C10750D84
:10D6800000780C1219C1EAFCEBFD74021217A2AA71
:10D6900082AB83120494740212176D750C08780C17
:10D6A0001219C1AC0AAD0B74121217A2AA82AB8375
:10D6B000120494740212176D750A08750B00780A2B
:10D6C0001219C1EEFCEFFD741A1217A2AA82AB83E5
:10D6D000120494740212176D851882851983AA8228
:10D6E000AB83121280E9FE750A1002D41474F4128E
:10D6F00017AEEAFEEBFF890B750A0080181204AC26
:10D7000012DB5AEBF0050AE50AC3950B500712DB52
:10D710005AEAF0050AE50AC3950B40E102CEC3C000
:10D7200082C0838A828B83E0F902D37974F6121760
:10D73000AE8982AE82E9A2E25004D2F08002C2F049
:10D740008A828B83E054FCFCA3E0FDEC4E5403FC86
:10D75000A2F0E433F5087509007402780812174442
:10D76000EC4508FCE9131313541FF50874037808FB
:10D77000121744EC45088A828B83F0A3EDF07F02F8
:10D7800002188074F61217AEEA2420F508EB340074
:10D79000F50978081219C1EA2410FCEB3400FD12D7
:10D7A0000E54740212176D80D574E81217AE74ED22
:10D7B00012175774011217A2ECF0A3ED12DA0C8ABB
:10D7C000168B177A107B0012051E8A128B137A10A3
:10D7D0007B0012051E8A108B11E51245137003029F
:10D7E000D9E8EA4511700302D9E878101219C1ACE2
:10D7F00012AD13AA16AB1712128C740212176DE930
:10D80000F50A600302D9F17A107B0012051E8A0C1A
:10D810008B0D7A107B0012051E8A0E8B0FE50C45CE
:10D820000D700302D9C9EA450F700302D9C98518E2
:10D8300082851983E0240FF8E43400F97A107B0024
:10D840001216C488088909AE08AF09E0540FFCEE2F
:10D850004F70067E017F008007EC70047801800223
:10D860007800EE14C454F0FA74011217A2E02AFAF8
:10D87000A3E03400FBE8A2E0500B780E1219C1AC13
:10D8800012AD1380538C0B750800850882AC82742E
:10D89000031217A2E5822CF8E5833400F9ECC39556
:10D8A0000B500FEA2CF582EB12DB63E08882898350
:10D8B000800FE50B6508888289837004748080017D
:10D8C000E412DB6840C4780E1219C1AC10AD1174BB
:10D8D000051217A2AA82AB83121292740212176D5C
:10D8E0007C107D007900AA0CAB0D1204A67508000F
:10D8F000750900805874031217A285821485831558
:10D9000078141219C1E508C454F0F874031217A270
:10D91000E028FCA3E03400FDAA0CAB0D12129274B7
:10D920000212176D780C1219C174051217A2AC827D
:10D93000AD83AA16AB17120E54740212176DE9F5D7
:10D940000AE5082401F508E5093400F509EE24FF8D
:10D95000F8EF34FFF9C3E50898E50999A2D265D03C
:10D96000335004E50A608EE50A706774031217A24B
:10D9700085820885830978081219C1AC0EAD0FAAFB
:10D980000CAB0D121292740212176D780C1219C1A1
:10D9900074051217A2AC82AD83AA16AB17120E54EF
:10D9A000740212176DE9F50A750808750900780800
:10D9B0001219C1AC0CAD0D742D1217A212D3221284
:10D9C000048E740212176D8009750A13E50C450D5B
:10D9D0006007AA0CAB0D120524E50E450F6012AAD4
:10D9E0000EAB0F1205248009750A13E5124513606A
:10D9F00007AA12AB13120524E51045116007AA10FF
:10DA0000AB11120524A90A741302D622F0E9851875
:10DA100082851983F02274EE1217AE8A088B098C66
:10DA20000E8D0F7A107B0012051E8A0C8B0D7A105A
:10DA30007B0012051E8A0A8B0BAE0AAF0BE50C4564
:10DA40000D700302DAF7EE4F700302DAF77C107DF7
:10DA50000079001204A6780C1219C1EEFCEFFDAAA1
:10DA600008AB09120E54740212176DE9F50A60032F
:10DA700002DB007508E775098E850C82850D83E051
:10DA8000A2E7400DAC0EAD0FAA0CAB0D12129880A0
:10DA900020EEFCEFFDAA0CAB0D121298780E1219B5
:10DAA000C1AC08AD09EEFAEFFB1212927402121724
:10DAB0006D74121217A2E0F510A3E0F511850E8225
:10DAC000850F83E0A2E7400DAC10AD11AA0EAB0F9D
:10DAD000121298802BEEFCEFFDAA0EAB0F121298DB
:10DAE00078101219C1AC08AD09EEFAEFFB121292D0
:10DAF000740212176D8009750A13E50C450D600755
:10DB0000AA0CAB0D120524EE4F6007EEFAEFFB12E4
:10DB10000524A90A7F0A02188074F61217AE750848
:10DB200000740A1217A2E0F8A3E0F9850882AE8219
:10DB3000EC2EF582ED12DB63E0F509EA2EF582EBBF
:10DB400012DB63E06509C0E0E82EF582E912DB63D1
:10DB5000D0E012DB6840D402D77E850A08EE2508A3
:10DB6000F582EF3400F58322F00508E508C3941030
:10DB70002274F51217AE75090075080FE508F83321
:10DB800095E0F9EA28FEEB39FF8E828F83E0C333FC
:10DB90004509C0E0EC28F582ED39F583D0E0F08E40
:10DBA000828F83E0A2E7E433F50974FF2508F508C6
:10DBB000C39400A2D265D03350C27F030218807490
:10DBC000F01217AE8908ECFEEDFF75090089828519
:10DBD000820A750B008A0C8B0D780C121A05010352
:10DBE00018F6DE15DC2DDC45DCF6DE5EDCCDDCDF98
:10DBF000DC19DD5CDD7ADD98DDB8DDD6DDF6DEF43E
:10DC0000DD40DE5DDE72DE81DE9CDEF6DEF6DEF617
:10DC1000DEF6DEB8DE74106508600302DEF1750A18
:10DC200010780A1219C17AFE7B0302DDAD7410650B
:10DC300008600302DEF1750A10780A1219C17A0E23
:10DC40007B0402DDAD74046508600302DEF18E82A0
:10DC50008F8312164590041E12165102DF177401AD
:10DC60006508600302DEF19009FAE0F88E828F8386
:10DC7000E09009FAF0E86026E0600302DF17900305
:10DC8000FCE06402600DE064066008E06404600388
:10DC900002DF179003FBE0F9120A2802DF17E07099
:10DCA0000302DF179003FCE064016012E06403608C
:10DCB0000DE064056008E06404600302DF177A0188
:10DCC0007B009003FBE0F91204E202DF17740265A7
:10DCD00008600302DEF112E7F29009FB02DE96E92A
:10DCE000C39420400302DEF17C1F7D0079007AFEA0
:10DCF0007B091204A6780A1219C1EEFCEFFD7AFE28
:10DD00007B0912048E740212176DE5089009FDF06C
:10DD10007CFE7D09FB7A018038E9C3942040030230
:10DD2000DEF17C1F7D0079007A297B041204A6783D
:10DD30000A1219C1EEFCEFFD7A297B0412048E74DD
:10DD40000212176DE508900428F07C297D04FB7A07
:10DD5000009003FBE0F9120A2202DF0F740165084C
:10DD6000600302DEF18E828F83E0F8C394054003E6
:10DD700002DEF1E890044802DEB574016508600334
:10DD800002DEF18E828F83E0F8C39404400302DE4A
:10DD9000F1E890044902DEB574066508600302DE0E
:10DDA000F1750A06780A1219C17A4A7B0412048EA8
:10DDB000740212176D02DF1774016508600302DE3A
:10DDC000F18E828F83E0F8C39408400302DEF1E80D
:10DDD00090045002DEB574016508600302DEF18E26
:10DDE000828F83E0F8C39404400302DEF1E89004DC
:10DDF0005102DEB574026508600302DEF112E7F23B
:10DE000090045212E7D7E849700302DF179003FC31
:10DE1000E06405600302DF17900452E0F50CA3E014
:10DE2000F50DE4F50EF50F780C1219BD7A027B00A2
:10DE30009003FBE0F9120560740412176D02DF17FE
:10DE400074016508600302DEF18E828F83E0F8C3FF
:10DE50009402400302DEF1E890045A805812DF3247
:10DE6000600302DEF112DF26400302DEF1900A1F9A
:10DE7000803F12DF32707A12DF265075900A2180BF
:10DE80003012E7F2740265087067C3E894F4E9940D
:10DE900001505E90045BE8F0A3E9801912DF327054
:10DEA00050EA24F612DF1E9477E9940C5043900A4E
:10DEB00023EAF0A3EBF0805F7401650870338E8273
:10DEC0008F83E06401702A7A087B009003FBE0F9FD
:10DED000120572EA4B4C4D701379001207D07A0488
:10DEE0007B009003FBE0F912056C802B750916800E
:10DEF000267509188021C3EA9427EB940050157405
:10DF0000026508700F8E828F8312E34C120920E99C
:10DF1000F5098003750902A9097F08021880F8EB4A
:10DF200034FFF9C3E822EA24FA12DF1E947BE99455
:10DF30000C228E828F83E0FAA3E0FB740265082234
:10DF400074F41217AEECFEEDFF7508008A0A8B0B15
:10DF5000780A121A0500031A99E090DF96DFA8DF0D
:10DF6000BADFCADFDCDFE2DFE8DFF7DF06E00CE084
:10DF700012E023E028E02DE032E037E044E049E021
:10DF80004EE053E058E075E07AE07FE099E08FE002
:10DF90009003FD02E092750A10750B00780A1219C1
:10DFA000C17CFE7D0302E067750A10750B00780ADC
:10DFB0001219C17C0E7D0402E06790041E12164502
:10DFC0008E828F8312165102E0B3750A06750B001C
:10DFD000780A1219C17C227D0402E0679009FA02D6
:10DFE000E0929009FB02E0829009FD12E0B712195D
:10DFF000C17CFE7D09807090042812E0B71219C11F
:10E000007C297D04806190044802E09290044902DA
:10E01000E092750A06750B00780A1219C17C4A7DD8
:10E02000048044900450806A9004518065900A1DD9
:10E030008050900452804B90045AE08E828F83F07F
:10E04000A3E48069900A1F8039900A2180349004EB
:10E050005B802F900A23802A750A06750B00780AC8
:10E060001219C17C547D04EEFAEFFB12048E740287
:10E0700012176D803E90045D800890045F800390CD
:10E08000046112E7F68E828F83E8F0A3E9801E9088
:10E0900003FCE08E828F838014C3EA9427EB940004
:10E0A000500E1209268E828F83EAF0A3EBF08003D4
:10E0B000750802A908800CE0F50A750B00780A22A1
:10E0C00012176D7F0402188074F61217AE9003FCCD
:10E0D000E0703EEA4B6008900464EAF0A3EBF07550
:10E0E000081E75090478081219C175080E7509040F
:10E0F00078081219C17CFE7D037B009003FDE0FAD5
:10E100009003FBE0F91205BA740412176D790080D0
:10E110000279117F02021880D083D082020135C0BB
:10E1200082C0839003FCE06405700F7C1312E83317
:10E130009003FBE0F91209A48002791280DA74F7E7
:10E140001217AEE99003FBF09003FCE4F0900A1D77
:10E1500074FFF0A3F0120A709003FD7404F07C10B9
:10E160007D0079007AFE7B031204A67C107D007985
:10E17000007A0E7B041204A690041EE4F0A3F0A320
:10E18000F0A3F0900448F0900449F0900450740714
:10E19000F0900451E4F07CFE7D037A1079021207BE
:10E1A000947C0E7D047A1079031207947C1E7D0402
:10E1B0007A0479041207947F0102188074F412170C
:10E1C000AE74F6121757EAFEEBFF548060239003FB
:10E1D000FBE0F91204CA8A088B09EA4509600A12B1
:10E1E00007C4AA08AB091204B8EEFAEF648002E390
:10E1F00040EF544060137C1E7D047A0479041207BA
:10E200008EEEFAEF644002E340EEA2E0400302E249
:10E21000BD9009FAE0700302E2B79003FCE06405E8
:10E22000700B8518828519837403F0803990044837
:10E23000E0851882851983F0900449E0C0E07401FC
:10E240001217A2D0E0F075080675090078081219B7
:10E25000C17C4A7D0474041217A2AA82AB83120403
:10E260008E740212176D900450E0C0E0740812170B
:10E27000A2D0E0F0900451E0C0E074091217A2D0DF
:10E28000E0F0851882851983AA82AB839003FBE0B6
:10E29000F9120A1CE960209003FC7407F012E83CB4
:10E2A000601512E7EC12E7F688828983E5824583E0
:10E2B000600579071217ACEE640102E33E54026078
:10E2C000359003FCE06405702812E833120C62906C
:10E2D000045212E83F601A90045212E8241219BD49
:10E2E0007A027B009003FBE0F912056074041217B8
:10E2F0006DEE64028048EE5404600A79001207D083
:10E30000EE64048039EE54086039900463E01460D0
:10E31000081470271207B28022900A231219D8908D
:10E32000045B1219D87901900A2112E34C900A1F5C
:10E3300012E8361207D6740412176DEE6408FAEF6D
:10E34000FB80047A007B00740A02E0C0E0FCA3E0DA
:10E35000FD2274F41217AEEA2405F8EB3400F98AB2
:10E36000828B83E0246F600B24EF606D24D26064A5
:10E3700002E434A3E0640E600302E4348A828B83F7
:10E38000A3A3A3E064057004A3E06414600302E4A3
:10E39000348882898312E7E9A3A3A3E0F99003FC00
:10E3A000E06405600302E434747F69700302E434BE
:10E3B00090046412E836EA4B607A90046412E7E94C
:10E3C000A3A312E8368A828B83E5824583606512B7
:10E3D00017AC80601207CA805B88828983E064136F
:10E3E00070528A828B83A3A3A3A3A3A3E0640170CA
:10E3F00002A3E07019900463E0640270117A087B54
:10E40000009003FBE0F912056C1207B280267A0532
:10E410007B001209268A088B09E4F50AF50B7808B7
:10E420001219BD7A087B009003FBE0F912056074B5
:10E430000412176D02E0C374EC1217AEEAFEEBFF94
:10E440008E828F83A3A3E0F8EE2403F50CEF340053
:10E45000F50DEE240AF50AEF3400F50B8E828F835A
:10E46000A3858208858309E8602724FE700302E5FE
:10E470000514700302E56614700302E56614700368
:10E4800002E5CB14700302E6E214700302E7548045
:10E490006FE0704B7CFE7D037A10790212078E7C50
:10E4A0000E7D047A10790312078E7508067509002F
:10E4B00078081219C1AC0CAD0D7A227B0412048EBF
:10E4C000740212176D9003FC7401F07CFE7D0990BC
:10E4D00009FDE0FB7A019003FBE0F9120A22E970E2
:10E4E0007C12E83C601A12E7EC12E7F6E8FAE9FB66
:10E4F000EA4B600C9003FCE0F98A828B831217AC24
:10E500007F0C021880E0704C850C82850D83E060E2
:10E510001D7C297D04900428E0FB7A009003FBE039
:10E52000F9120A22E9850882850983F08026900382
:10E53000FCE06402601E7A017B009003FBE0F912AC
:10E540000572EA4B4C4D700C7A017B009003FBE0A6
:10E55000F91204E2850882850983E060A39003FC38
:10E560007407F002E4E1E070F47403687010900343
:10E57000FCE064057004740680E8740280E490098D
:10E58000FB12E83F9009FA601FE0601E9009FB1241
:10E59000E8241219BD7A017B009003FBE0F9120513
:10E5A00060740412176D8002E4F09003FCE06406CE
:10E5B0007004740580ACE06404700C9009FA12E7F2
:10E5C000DD1204E202E4E174038097E0F8600302E4
:10E5D000E6CFEE2404F508EF3400F509750E067554
:10E5E0000F00780E1219C1AC08AD097A547B0412E1
:10E5F000048E740212176D850A82850B8312E7F66A
:10E60000900A1D12E7D79003FC7405F09004521293
:10E61000E83F6025900452E0F510A3E0F511E4F521
:10E6200012F51378101219BD7A027B009003FBE0FB
:10E63000F9120560740412176DEE240CF582EF34A4
:10E6400000F58312E818EE240EF582EF3400F5830E
:10E6500012E80CEE2410F582EF3400F58312E80086
:10E6600090045AE06401703B7A1F7B001209268AED
:10E6700010EA75F0E8A4C510A8F075F003A428F816
:10E6800075F0E8EBA428F511E4F512F513781012F3
:10E6900019BD7A047B009003FBE0F9120560740455
:10E6A00012176D750E04780E1219C5850A82850B36
:10E6B0008312E34CAA08AB09850C82850D83E0F92F
:10E6C0001205C6740112176D9009FAE402E562742E
:10E6D0003168600302E55D9009FAE4F09003FC0202
:10E6E000E5C71205E47C067D0079007A547B0412AC
:10E6F00004A690045DE4F0A3F090045FF0A3F09012
:10E700000461F0A3F07A04FB9003FBE0F912056CBE
:10E710007A087B009003FBE0F912056C8E828F83F0
:10E72000A3A3A3A3A3E064089003FC700474048073
:10E73000027403F09009FAE0600A9003FBE0F9121A
:10E740000A28800612E7DD1204E2900A1D74FFF029
:10E75000A302E5627A087B009003FBE0F912056CE6
:10E76000850882850983E0600302E5008E828F833D
:10E77000A3A3A3A3A3A312E8188E828F83A3A3A3AA
:10E78000A3A3A3A3A312E80C850A82850B8312E836
:10E79000007A047B009003FBE0F9120572EA4B4C0F
:10E7A0004D600302E50090046612E83F700302E545
:10E7B000009004611219D890045F12E34C90045D3C
:10E7C00012E83690046612E7E912E7E91217AC7412
:10E7D0000212176D02E500E8F0A3E9F0227401F0DF
:10E7E000FA7B009003FBE0F922E0F8A3E0F58388D0
:10E7F00082228E828F8312E7FA22E0F8A3E0F922C8
:10E8000012E7FA900461E8F0A3E9F02212E7FA9027
:10E81000045FE8F0A3E9F02212E7FA90045DE8F063
:10E82000A3E9F022E0F508A3E0F509E4F50AF50B09
:10E83000780822900A1DE0FAA3E0FB2290046412FB
:10E84000E7FAE8492274F41217AE74F8121757E980
:10E85000FE900A1F12E7F675830475825DC3E09887
:10E86000A3E099403890045D12E7F675830A75823B
:10E8700021C3E098A3E099402490045F12E7F6904A
:10E88000045BE0687003A3E069701290046112E712
:10E89000F6900A23E0687003A3E06960797A057B4B
:10E8A000001209268A088B09900A1F12E7F68518BC
:10E8B0008285198312E7D7900A2112E7F6740212B3
:10E8C00017A212E7D790045B12E7F674041217A29E
:10E8D00012E7D7900A2312E7F674061217A212E77E
:10E8E000D79003FBE0F9851882851983AC82AD834C
:10E8F00012E833120D3AEE900463F0E4F50AF50BDA
:10E9000078081219BD7A087B009003FBE0F9120524
:10E9100060740412176D740802E0C074F41217AE2C
:10E92000E9FE9003FCE064056005791402E9B2EAAF
:10E9300024FAF8EB12E9B55077EC24FAF8ED12E975
:10E94000B5506D740C1217A2E0F50AA3E0F50BC3E5
:10E95000E50A94F4E50B94015056740E1217A2E0E8
:10E96000F508A3E0F509E50824F6F8E50912DF202B
:10E970009476E9940C5039900A1FEAF0A3EBF090DA
:10E980000A21ECF0A3EDF090045BE50AF0A3E50B9F
:10E99000F0900A23E508F0A3E509F0EEF91207D09C
:10E9A0007A047B009003FBE0F912056C7900800289
:10E9B000791802E0C312DF20947AE9940C22C08215
:10E9C000C08390077EE4F090077D74FFF090079677
:10E9D000E4F090079574FFF090077AF0900779E4DF
:10E9E000F0900778F090077BF0A3F002F28074ECCF
:10E9F0001217AE90077BE0F50AA3E0F50BE50A4598
:10EA00000B7006120EF602ED67850A82850B83E015
:10EA1000F914601814601524FE601124C4700302F8
:10EA2000EB8D24C0700302EB8D02ED671210828A19
:10EA3000088B09EA240EF512EB3400F513EA2402E0
:10EA4000FEEB3400FF9005D6E0700302EAE3120FFC
:10EA5000A412ED9AF510A3E0F511AC10FDAA08ABD5
:10EA60000912107CE9F50E7402650E605885088263
:10EA7000850983E06401600302ED67E508650A70BB
:10EA800004E509650B6003120F1AE50E70241211DC
:10EA90004E8A0C8B0D8C0E8D0F908F7F780C12157B
:10EAA000B3908F83780C1216018E828F83780C12AC
:10EAB0001636851082851183A3A3780C1216279031
:10EAC0008F5F02EB6112ED891210DC8E828F83E082
:10EAD0009005D7F0790212ED76121E81AA10AB11C3
:10EAE00002ED64EA650A7003EB650B700302ED64E6
:10EAF0008A828B83E06401600302ED67120F1A12B1
:10EB0000114E8A0C8B0D8C0E8D0F908FD3780C12BA
:10EB100015B3780C1219BD8E828F831216451224FC
:10EB2000C3740412176DE9705B12114E8A0C8B0DC1
:10EB30008C0E8D0F908F7F780C1215B3908F837889
:10EB40000C1216018E828F83780C1216369005A94E
:10EB5000E0640270268E828F83780C121627908FC5
:10EB6000E7780C1215B3908F83780C12160185127A
:10EB700082851383780C12163680098512828513DC
:10EB80008312ED6C90077A7401F002EC919005D637
:10EB9000E0700302EC98120FA412ED9AF508A3E0BE
:10EBA000F5099005D7E0F875F003A4C8AAF02AF992
:10EBB00074D928F50A740539F50BE50A2404F50E15
:10EBC000E50B3400F50F900779E05407700302EC71
:10EBD00053A3E0F91210828A108B11AE10AF11AC62
:10EBE00008AD0912107CE9F51074026510606485A7
:10EBF0000E82850F83E0F91210D68E828F83E06437
:10EC0000017050120F1AE510702612114E8A0C8BEB
:10EC10000D8C0E8D0F908F7F780C1215B3908F8313
:10EC2000780C1216018E828F83A3A3780C121636ED
:10EC3000850882850983A3A37808121627908F5F21
:10EC400078081215B3908F83780812160112EEFE21
:10EC500002ED55E50C650A7004E50D650B6026852F
:10EC60000A82850B83A3A3A3E0600B850E82850F28
:10EC700083E0F91210D612ED891210DC8E828F8398
:10EC8000E09005D7F079029005D7E012ED76121EDC
:10EC900081AA08AB0902ED64900779E0540770037C
:10ECA00002ED67A3E0F91210828A088B09AE08AF63
:10ECB000098E828F83E06401600302ED67120F1AF0
:10ECC00012114E8A0C8B0D8C0E8D0F12EEF1908F5F
:10ECD000D3780C1215B3780C1219BD85088289837C
:10ECE0001216451224C3740412176DE9706C1211C8
:10ECF0004E8A0C8B0D8C0E8D0F908F7F780C121519
:10ED0000B3908F83780C1216018508828509837869
:10ED10000C121636EE240EF8EF3400F9E8FAE9FB8F
:10ED20009005A9E06402701D850882850983780832
:10ED3000121627908FE778081215B3908F83780802
:10ED4000121601800C7508FF7509FF750AFF750B17
:10ED5000FF8A828B83780812163690077A7401F046
:10ED6000EEFAEFFB1210767F0C02188074FFF0A30E
:10ED7000F0A3F0A3F022FA75F003A4CAA8F028FBD0
:10ED800074D92AFA74053BFB22E50C2404FEE50D38
:10ED90003400FF8E828F83E0F922E9F875F003A436
:10EDA000C8AAF02AF974D928F50C740539F50D852F
:10EDB0000C82F583E02274F01217AEEAFEEBFF8EB0
:10EDC000828F83A3A3A3A3A3A3E0FAA3E0FB121162
:10EDD0003012EEF18882F58312164512112485084F
:10EDE0008285098312164512111812EEFE1216457D
:10EDF00012112A8E828F83E06440701CEE2412F878
:10EE0000EF3400F988828983E0906064F088828919
:10EE100083A3E09060658006906064E4F0A3F090C6
:10EE2000077BEEF0A3EF12F21F12F6C41217AC909C
:10EE30006054E412EF05A312EF05906182E0C2E690
:10EE4000F07591BFEE2415F8EF3400F9880A890BAC
:10EE50008882F583E06401700312116CE5E170FCB7
:10EE600012F210E0F874FF68600288E1850A82857A
:10EE70000B837401F09005AFE06401706F12114EC6
:10EE80008A0C8B0D8C0E8D0F780C1219BD850882A3
:10EE900085098312164512251F740412176D8A08FE
:10EEA0008B098C0A8D0B908F5B780C1216277808D3
:10EEB000790C12147874037808121568E50824F4A4
:10EEC000F508E5093401F509900748E060031205EB
:10EED0000CE4F50AF50B78081219BD7A207B009036
:10EEE00005A8E0F9120560740412176D7F08021876
:10EEF00080EE2402F8EF3400F98808890922EE2414
:10EF00000E12F2172212ED6EA3F0A3F02274EC128F
:10EF100017AEEAFEEBFF8C088D09EE4F700302EF8F
:10EF2000D112114E8A0C8B0D8C0E8D0F908FD778CD
:10EF30000C1215B3908F83780C121601E508240289
:10EF4000F508E5093400F509908F57C082C0837831
:10EF50000C1219BD85088285098312164512251FDA
:10EF6000740412176D8A108B118C128D13D083D0FC
:10EF70008278101214595059EE2402FEEF3400FF2B
:10EF80008508828509837808121627908F63780890
:10EF90001215B378081219BD8E828F83121645128E
:10EFA00024C3740412176DE97027908F6F780C12C8
:10EFB00015B3780C1219BD8E828F83121645122458
:10EFC000C3740412176DE97004790080067901801A
:10EFD00002790202ED6774EE1217AE890874FF65BC
:10EFE000087039900779E05407700302F14D7904F5
:10EFF00012109AE9640170047904801A79011210E0
:10F000009AE9640170047901800C790212109AE97E
:10F010006401700879021210A602F151A9081210B9
:10F02000A68A108B11A90812109AE964017005755F
:10F0300009018003750900E5102402F50AE5113481
:10F0400000F50BE50814600D14607A24FE700302CD
:10F05000F0E502F14D790212109AE96401704979E4
:10F06000021210A68A0C8B0DAE0CAF0DE509A2E0C2
:10F07000502F8E828F83A3A3780C121627908F7740
:10F08000780C1215B3780C1219BD850A82850B8392
:10F090001216451224C3740412176DE9700302F1AD
:10F0A00047EEFAEFFB02F151790412109AE964017C
:10F0B000601DE509A2E05006AA10AB1180047A0099
:10F0C0007B0002F151790412109AE964017004790D
:10F0D00004802C790112109AE964016012E509A2FA
:10F0E000E0506A8062790112109AE9640170047933
:10F0F00001800C790212109AE964017044790212BD
:10F1000010A68A0C8B0DAE0CAF0DE509A2E0509154
:10F110008E828F83A3A3780C121627908F77780C9A
:10F120001215B3780C1219BD850A82850B8312164D
:10F13000451224C3740412176DE9600302F0A18024
:10F1400006E509A2E05006AA10AB1180047A007B04
:10F15000007F0A02188074F41217AE89087B00EB56
:10F1600075F018A4F8A9F0747828F50A740739F531
:10F170000B850A82F583A3A3A3A3A3A3E0707E74E7
:10F180007D28FE740739FF8E828F83A37401F08E71
:10F19000828F83E508F012114E8E828F83A3A31213
:10F1A00016518E828F83A3A3A3A3A3A3E4F0A3F09D
:10F1B00012EEFE12ED6C12F2107401F0EE24151234
:10F1C000F217740112F21FE4F0A3F0900779E04502
:10F1D00008F0900778E004F0E50A2405FAE50B341E
:10F1E00000FBE06401600C74806508600674406593
:10F1F00008701890077BEAF0A3EBF0800E0BEBC3CE
:10F200009402500302F15F7A007B007F04021880B1
:10F21000EE241412F21722F582EF3400F58322F067
:10F22000EE241612F21722C082C0838A828B83E0FA
:10F23000F8A3E0F98A828B83E4F0A3F088828983C3
:10F24000A3F088828983E0F4F8900779E058F09081
:10F250000778E014F0700B90077BE4F0A3F09005C2
:10F26000A9F0801CC082C083900778E0600A9007F4
:10F270007BE0FAA3E0FB80047A007B008002E0F9E7
:10F28000D083D082020135C082C083E9FC7B00EBD1
:10F2900075F018A4F8A9F0747828F8740739F9887B
:10F2A000828983A3A3A3A3A3E06C700E88828983C1
:10F2B000A3A3A3A3A3A3E0F980090BEBC39402408B
:10F2C000CE790080BBC082C08390077980B074F78C
:10F2D0001217AE7E00EE75F018A4FAABF074782A1F
:10F2E000FA74073BFBEAFCEBFDEC2405FAED340075
:10F2F000FB8A828B83E069700F8C828D83A3A3A32A
:10F30000A3A3A3E06401600B0EEEC3940240C67A8F
:10F31000007B007F01021880C082C08390077802C2
:10F32000F27E74F21217AEEAFEEBFFEE2400F8EF65
:10F330003401F989099061D0E088828983F0906175
:10F34000D7E0FAEE240108EF3401F9880A890B901E
:10F3500061D512F4899061D6E0C39A547FFAEE2405
:10F360000212F47970149061C5E0A2E4500CE0A29E
:10F37000E75007888289837480F0121208850A8218
:10F38000850B83E07019850C82850D83E0701090E9
:10F3900061C5E0A2E45008E0A2E7500312F49475BE
:10F3A000E195780080129061D3E0C0E0880AEE25F4
:10F3B0000A12F217D0E0F0088E82850983E0F9E89E
:10F3C000C39940E275E1917F0602188074F212172A
:10F3D000AEEAFEEBFFEE2403F8EF3401F98808896A
:10F3E000099061C8E088828983F09061CFE0FAEEED
:10F3F000240408EF3401F9880A890B9061CD12F4D6
:10F40000899061CEE0C39A547FFAEE240512F47914
:10F4100070149061C5E0A2E0500CE0A2E3500788B0
:10F420008289837480F012120E850A82850B83E034
:10F430007019850C82850D83E070109061C5E0A283
:10F44000E05008E0A2E3500312F4941212147A0080
:10F4500080149061CBE0C0E08A0AEE250AF8EF1232
:10F46000F54ED0E0F00A850882850983E0F8EAC30A
:10F470009840DF75E18102F3C708EF3401F9880C89
:10F48000890DEA88828983F022E0C39A547F8882BA
:10F490008983F022850C82850D837480F0850A8231
:10F4A000850B83F02274F61217AE9061C6E0FCE083
:10F4B000540FF075E191780080118808EA2508F56D
:10F4C00082EB12F21AE09061D2F008EA240012F501
:10F4D00045F9E8C39940E3EA240212F54560049037
:10F4E00061D6F0EA240112F54560049061D5F0EC94
:10F4F0009061C6F07F0202188074F61217AE906118
:10F50000C6E0FDE054F0F075E1817C0080108C08CD
:10F51000EA2508F8EB12F54EE09061CAF00CEA24F7
:10F520000312F545F8ECC39840E4EA240512F545CA
:10F5300060049061CEF0EA240412F5456004906105
:10F54000CDF0ED80ABF582EB3401F583E0223400A1
:10F55000F9E82480F582E912F21A22C082C0839071
:10F560006195E0C0E0EA2486F582EB3401F583D0B2
:10F57000E0F0906196E0C0E0EA2487F582EB340188
:10F58000F583D0E0F0906197E0C0E0EA2488F5824E
:10F59000EB3401F583D0E0F0906198E0C0E0EA241C
:10F5A00089F582EB3401F583D0E0F002F280C0826D
:10F5B000C083EA248612F545906195F0EA2487120B
:10F5C000F545906196F0EA248812F545906197F030
:10F5D000EA248912F545906198F002F28074F412E1
:10F5E00017AE890812F6AB1210B8EEFAEFFB121044
:10F5F000B2750A80750B00780A1219C17C007D6013
:10F60000EE2406FAEF3401FB121022740212176D79
:10F61000EEFAEFFB1210CA02F20B74F21217AE8967
:10F620008285820812F6AB1210C4EEFAEFFB1210BC
:10F63000BE750C80750D00780C1219C1EE2406FC05
:10F64000EF3401FD7A007B60121022740212176DF4
:10F65000EEFAEFFB1210D0E50875F003A4C508A878
:10F66000F028F50974D92508F58274053509F58364
:10F6700012F6C4E0648070079005A97408801E909B
:10F680000C6112F6CD12F6CD7464F0A3741012F66C
:10F69000D374E8F0A37410F09005A97407F0900CEF
:10F6A0006F12F6DEA312F6DE02F3C7A808E875F0C3
:10F6B0008AA4C8AAF02AF974AD28FE740739FFEEAF
:10F6C000FAEFFB22E0F8A3E0F58388822274E2F0EF
:10F6D000A37410F0A374E2F0A37410F0A322746476
:10F6E00012F6EC12F6ECF0A37410F022F0A37410F2
:10F6F000F0A374642274F71217AE8C828D8312FB10
:10F70000148C828D83A3E08A828B8312F71DE0FE26
:10F710008C828D8312F726F0A3E902FC4BA3F08CB8
:10F72000828D83A3A322A3A312F72C22A3E0F9EED8
:10F730008A828B83A3A32274EE1217AE8A088B09E8
:10F74000890A8C0E8D0F74121217A212F8DA741433
:10F750001217A2E0F50B74151217A2E0FE79011240
:10F760000E00E96033EEF9120DB28A108B11AE1063
:10F77000AF11EE4F601D8E828F83A3A3A3A3E50874
:10F7800012FDEFE50BF090055AE004F0700F7401E4
:10F79000F0800A750815806A7508148065F8EE24F3
:10F7A00003FAEF3400FBE88A828B83F0780C12199D
:10F7B000C1780E1219C18A828B83E0FCA90AAA08BB
:10F7C000AB09120D76740412176DE9F508702CEE72
:10F7D0002407F50CEF3400F50D780C1219C1750CE7
:10F7E00030750D75780C1219C1EEFCEFFD7ACA7BED
:10F7F0000D12073A740412176D8007EEFAEFFB1230
:10F800000DB8A9087F0A02188074F01217AE74FAB6
:10F810001217578A088B09890A8C0B74161217A2C3
:10F8200012F8DA7A177B00120DD68A0E8B0FAE0E05
:10F83000AF0FEE4F700302F8CB74181217A212FC30
:10F840008E88828983E58245836019AC0CAD0DEE0C
:10F850002404FAEF3400FB1217AC8A0C8B0DA80CB1
:10F86000A90D8004780079008E828F83E50AF0A3C9
:10F87000E50BF0E88E828F83A3A3F0E98E828F835D
:10F88000A3A3A3F08518828519837405F0A3E4F07F
:10F8900074021217A2EEF0A3EFF0E82404F8E934A2
:10F8A00000F974041217A2E8F0A3E9F08518828524
:10F8B0001983AC82AD83AA08AB09120D7CE9F50867
:10F8C000600CEEFAEFFB12071C8003750813A90801
:10F8D000740612176D7F08021880E0F50CA3E0F59E
:10F8E0000D2274F21217AE8A0A8B0BECFEEDFF7C30
:10F8F000047D008E828F83A3A3E0FAA3E0FB1207AE
:10F90000228A0C8B0DEE2404F8EF3400F9888289EA
:10F910008312FB14A385820885830988828983A3C7
:10F9200012F9C412F9C4A312F9D388828983E0249E
:10F9300004F8C3941C400302F9BD8882AE8274FEB1
:10F94000650A700474FF650B70457A097B00120428
:10F95000B2EA4B60368A828B837490F0A3A3A3A390
:10F96000740212FD5874FEF0A30412FE52A3E50CBB
:10F97000F0A3E50D12FD58A3A3A3EEF0A3E4F090CD
:10F980000535E0F91204BE790080347913803078AF
:10F990000C1219C1EEFC7D007900AA0AAB0B120C07
:10F9A0004A740212176DE924FE600A24FB600A24DF
:10F9B000F5600A800A791480067904800279027F52
:10F9C0000602188012F9D3A38582088583098E82E6
:10F9D0008F8322E0850882850983F02274F2121752
:10F9E000AE8A088B09EA240212FAB4E4F012F71D79
:10F9F000A3A3E06402600302FAAF8C828D83A3A309
:10FA0000A3A3A3E0F50AA3E0F50BC3E50A9404E57C
:10FA10000B9400500302FAAF8C828D83A3A3A3A39F
:10FA2000A3A3A3E0FAA3E0FB8A828B83E0FCA3E01C
:10FA3000F9EC2400E439FD8A828B83A3A3E0F50C62
:10FA40008A828B83A3A3A3E0F9A80CEC2404F50C11
:10FA5000ED3400F50DE50A650C7004E50B650D70DD
:10FA60004E7407687001E960187405687001E960F8
:10FA7000107404687001E960087406687001E97028
:10FA80002E850882850983A3A3A3A3ECF0A3EDF040
:10FA9000850882850983E8F0A3E9F07CFC7DFF12EC
:10FAA00007228E828F83EAF0A3EBF079008002793F
:10FAB0000102F9BFFEEB3400FF8E828F832274F4C3
:10FAC0001217AE75080275090012FC16A3A983EC83
:10FAD0002402FEED3400FF8C828D83E0F50AA3E062
:10FAE000F50B7401650A7002E50B700B12FB18121E
:10FAF000FB1375080480137402650A7002E50B702D
:10FB00000912FB1812FC32750806AA08AB097F041B
:10FB1000021880A312FC40228E828F8312FC400ABE
:10FB2000E9FB8E828F832274F61217AE740A1217C5
:10FB3000A212FBB89402E99400406712FCA6EA24E2
:10FB400002F8EB3400F98A828B83E064017002A32F
:10FB5000E070148C828D8312FBA7A3E0FBEE8882F9
:10FB60008983F0A3EB80368A828B83E06402700283
:10FB7000A3E0702A8C828D83A3A3E0F5088C828D8C
:10FB800083A3A3A3E0FFE50888828983F0A3EF1293
:10FB9000F71E12FBA712F726A3A3F0A3E9F0790042
:10FBA0008002790102FBCEA3A3E0FE8C828D83A3A9
:10FBB000A322E0FCA3E0FD2212FC8EC3E822D08346
:10FBC000D08202013512FC44A3AA82AB83227F02B9
:10FBD000021880F0EC2402FCED3400FD2274F712D0
:10FBE00017AE12FC16EC240212FC0112FC32A30A1E
:10FBF000AB83EC240612FC0112FB137A087B008015
:10FC00004B12FC0522F8ED3400F98882898312FC3E
:10FC10002A88828983228C828D8312FBC58C828DF7
:10FC20008312FC2522A312FC2A2212FC44A30AAB55
:10FC3000832212FC25EC240412FC05A312FC4022B2
:10FC400012FC4422E08A828B83F022F07F010218AA
:10FC50008074F71217AE74091217A212FC8E740882
:10FC6000687001E9702412FCA6EC2402FCED34005B
:10FC7000FD8C828D83E0FE12F72812FC9412FC9416
:10FC8000A3A3F0A3E9F079008002790180BEE0F837
:10FC9000A3E0F922F0A3E912FBD38C828D83E0FE6E
:10FCA00012F72CA3A32212FCAA228C828D83E0FEE1
:10FCB000A3E0F9EE8A828B83F0A3E9F02274F712B5
:10FCC00017AE74091217A212FCD97001E97005125F
:10FCD000FCE08002790102FC4C12FC8E7402682266
:10FCE00012FCAA79002274F01217AE890A8A0C8BD2
:10FCF0000DECFEEDFF7A0A7B001204B28A088B0934
:10FD0000EA4509604E8A828B8374A0F0A3E412FD59
:10FD100058E50CF0A3E50DF0EA2404FAEB3400FBFF
:10FD2000EE4F6019750C06750D00780C1219C1EEB6
:10FD3000FCEFFD12048E740212176D80097C067DA3
:10FD40000079001204A6AA08AB09A90A1204BE7918
:10FD5000008002790102F8D5F08A828B83A3A32266
:10FD600074F01217AE89088A0C8B0D8C098D0A74F9
:10FD7000101217A2E0F50B7A127B001204B28A0E61
:10FD80008B0FAE0EAF0FEE4F60588E828F8374A232
:10FD900012FDEFA3A3E50CF0A3E50D12FDE5E50BC5
:10FDA00012FDE5A3E50AF0EE2406FAEF3400FB7439
:10FDB000111217A212FBB2EC4D6015750C0C750DEB
:10FDC00000780C1219C112048E740212176D80098A
:10FDD0007C0C7D0079001204A6EEFAEFFBA9081254
:10FDE00004BE02F8D5F08E828F83A3A3A3A322F0D2
:10FDF000A3E509F08E828F832274F41217AE890A6C
:10FE0000750B00850B82AC828C0875090074037831
:10FE10000812174412FEA9A882A983E0FEA3E0FFFE
:10FE2000EE4F701E8A828B83E4F0EC2440FCE434B5
:10FE300000FD88828983ECF0A3ED12FE52E50AF002
:10FE4000800D050BE50BC3940340B87A007B0002DC
:10FE5000FB0EF08A828B83A3A3A3A3A3A322C08259
:10FE6000C0838A828B83A3E4F0A3F08A828B83F021
:10FE700002FBBE74F61217AE7E008E087509007480
:10FE800003780812174412FEA912FBB2EC4D600B66
:10FE90008A828B83A3A3A3E069600B0EEEC3940355
:10FEA00040D87A007B0002FBCE74422508FA740524
:10FEB0003509FB8A828B83A32274F71217AEEA24DA
:10FEC0000712FAB4E0F91207408E828F8374FF02A2
:10FED000FC4B74F61217AEEAFEEBFFEE4F60558E48
:10FEE000828F83A312FC8EE8496049E4F508F50986
:10FEF00078081219C178081219C57D137C178E82F3
:10FF00008F83A3A3A3A3E0FAA3E0FB8E828F83A336
:10FF1000A3A3A3A3A3E0F9120DAC740312176D8E73
:10FF2000828F83A3A3A3A3A3A3A374FFF0EEFAEF8E
:10FF3000FB120DB802FBCE02013574F61217AEEAC1
:10FF40002404FAEB3400FB120C44EA4B60097CFCFD
:10FF50007DFF12072280047A007B0002FBCEC08264
:10FF6000C083900294E4F090028EF0A3F0D083D08E
:10FF700082020135C082C083E990029480EE74F65B
:10FF80001217AEE9FB90903CE0F8EBC3984004797F
:10FF9000038030750801750900EB7808121744AC2E
:10FFA00008AD09EA7011ECF4F8EDF4F990028EE076
:10FFB00058F0A3E059800990028EE04CF0A3E04D88
:10FFC000F079007F0202188074F41217AE90029448
:10FFD000E0601E90028EE0F8A3E0F9E8497012E5B7
:10FFE000A8FEC2AF12057EEEA2E7A2E792AF12060C
:09FFF000FE7F04021880020135B5
:020000040001F9
:10000000C082C08390052C74FFF0A3F0A3F0A3F08E
:10001000A3F0A3749FF0A3E4F0A37420F090052B49
:1000200014F0D083D0820201357F0202188074EE72
:100030001217AE890AEAFEEBFF8C088D099009447D
:10004000E06003028146E9333354FC04F50B740786
:10005000250BFA7B001204B28A0C8B0DAC0CAD0D93
:10006000EC4D70030281468C828D837401F0A37481
:10007000FFF0EC2402F8ED3400F9880C890DEC2433
:1000800004F8ED3400F9850C82850D83E8F0A3E9CE
:100090001281677404128167A37413128176E50BD1
:1000A000128176A3E50AF0750B00028130850B8280
:1000B00085820E750F00E50EC333FAE433FBEE2A9A
:1000C000F8EF3BF9881089117402780E121744A8D2
:1000D0000EA90F851082851183E0F50EC00E1281E6
:1000E00050D0E0F0851082851183A3E0F50EC00E9C
:1000F00012814BD0E0F0E5082AFAE5093BFB8A8241
:100100008B83E0F50EC00E12814BA3D0E012850563
:10011000A3E0C0E0850C82850D83E028FAA3E039D6
:100120008A82F583A3A3A3A3A3A3A3D0E0F0050B26
:10013000E50BC3950A50030280ADECFAEDFB900984
:1001400041E0F91204BE7F0A021880128150A322F6
:10015000850C82850D83E028F50EA3E039850E829B
:10016000F583A3A3A3A32212816B22F0850C8285C1
:100170000D8312854A2212816BA3A32274EE1217FB
:10018000AE8A088B09890B8C0E8D0F900943E070A5
:1001900009900945E07003028248900526E060035B
:1001A000028248898285820C750D00E92407FAE4F1
:1001B0003400FB1204B28A108B11AE10AF11EE4F57
:1001C0007003028259741865087004742065096010
:1001D0000C74176508700474206509701090094547
:1001E000E0600AF50A8E828F837492800C90094336
:1001F000E0F50A8E828F837491F0A3740E1283351A
:100200008E828F83A3A3F08E828F83128965EE2462
:1002100005F8EF3400F9E8FAE9FBEE2407F8EF12ED
:10022000851FF0780C1219C1AC0EAD0F8A828B833A
:10023000E0FAA3E0FB12048E740212176DEEFAEFDF
:10024000FBA90A1204BE8011780E1219C1AC0B79F9
:100250000E120CF2740212176D02814674F6121718
:10026000AEE9FE8C088D0978081219C1EEFC79FF01
:10027000120CF2740212176D02802974F51217AE77
:10028000890AEAFEEBFF900943E0603C900526E016
:1002900070367A067B001204B2EA4B603A8A828B8F
:1002A000837491F0A3740F12885FE50A1283358A74
:1002B000828B83A3A3A312893BEEF0A3EFF09009F6
:1002C00043E0F91204BE800FEEFCEFFD8908AA0896
:1002D0007B00790F120CEC7F03021880128C2FFC2C
:1002E000A3E0F5838C8274041282F4FCA3E0F5830E
:1002F0008C82A322128C4B2274F71217AE74FC125C
:100300001757EA851882851983128335C0E0740176
:100310001217A2D0E0F074021217A2ECF0740312CC
:1003200017A2ED128CC77A04120CF8740412176D20
:100330007F01021880F090052AE02274F21217AEB5
:1003400089098A0A8B0B8C0874072508FA74FF65E3
:10035000096004780380027802E82AFA7B0012041C
:10036000B28A0C8B0DAE0CAF0DEE4F700302845DA4
:100370008E828F837401F0A374FFF0EE2402FAEFF3
:100380003400FBEE2404F8EF12850FE50912850511
:10039000E02402F8A3E03400F9890DA90B740E12D1
:1003A00017A212876074FF650960327403250888FC
:1003B00082850D83128335C0E0128462D0E01284FE
:1003C0008AE50A12848AA3E9F085080A750B007889
:1003D0000A1219C18A828B83E02406806674022582
:1003E000088882850D83F08C828D83E0C0E01284C2
:1003F00062D0E0F08C828D83A3E0C0E0128476D0DE
:10040000E0F08C828D83A3A3E0C0E0128476A3D0B9
:10041000E0128485240612847B128485128A33E9D3
:10042000F085080AE50A24FDF50AE434FFF50B78A7
:100430000A1219C1EC2403FCED3400FD8A828B837F
:10044000E02408FAA3E03400FB12048E74021217B1
:100450006DEEFAEFFB900941E0F91204BE7F06024F
:100460001880128466228A828B83E0F8A3E0F583E9
:100470008882A3A3A322128466A322F582E8340013
:10048000F583E50A2212852BC822128538A3A3A37F
:100490002274F21217AE890A8A0BECFEEDFF740784
:1004A000250BFA7B001204B28A088B09EA45096021
:1004B000511287ADEB34000A0AFBE5082404F8E585
:1004C0000912850FE50A128505128546A3A3E50BDF
:1004D000F06023F50C750D00780C1219C1EEFCEFDD
:1004E000FD8A828B83E02403FAA3E03400FB12042C
:1004F0008E740212176DAA08AB09900941E0F91237
:1005000004BE02845D12850922F08A828B83221246
:10051000851F12852BF58388827404128538223456
:1005200000F98A828B83E8F0A3E92212852F22F05A
:100530008A828B831287D42212852FF5838882A327
:10054000227F1002188012854A221287D4F58388F0
:10055000822274E81217AE8917EAFEEBFF8C168D23
:100560001374181217A21287D4F974181217A2E87C
:10057000F0A3E9F0741A1217A2E0F50CA3E0F50D50
:10058000741C1217A2E0F508A3E0F509741E1217F7
:10059000A212893374201217A2E0F512900943E0E9
:1005A000700302865D7A157B001204B28A0E8B0FEF
:1005B000EA450F700302875D1287997401F0EA24FF
:1005C00008FAEB3400FBE50E2403F582E50F128AEE
:1005D00038E517701EE4F0751006F5117810121941
:1005E000C1741A1217A212876012048E74021217B5
:1005F0006D800C7431F07C067D0079001204A685B4
:100600000E82850F83A3A3A3A3EEF0A3EF12876F3F
:10061000E51612876FA3E513F0E50E240EF582E5CB
:100620000F128A38128944E50E2410F582E50F1264
:100630008A38128968E50E2412F582E50F12847E4D
:10064000F0A3E50BF0E50E2414F582E50F128A38CD
:10065000E512F0AA0EAB0F900943028758900533BC
:10066000E0A2E5400302875D90052BE0A2E0400395
:1006700002875D7A1A7B001204B28A108B11EA4558
:1006800011700302875D1287ADF50EEB3400F50F94
:10069000128766850E82850F83E8F0A3E912877DB5
:1006A000740412877DA3743E1287857413128785A4
:1006B000A37401128793E517128793A3EE1287C0E4
:1006C0002406128A35EF1287C0128A33E516128784
:1006D000C02408128A35E513F075140675150078E4
:1006E000141219C1741A1217A2128760850E82851E
:1006F0000F83E02409FAA3E03400FB12048E740295
:1007000012176D128A28240F128A35E50CF0E50DB8
:10071000F50C128A282410128A35E50C1287C024A1
:1007200011128855F0E509F508128A28241212885A
:10073000551287C0241312847BF0E50BF50A128A48
:1007400028241412847B1287C02415128A35E512DE
:10075000F0AA10AB11900941E0F91204BE028541E4
:10076000E0FCA3E0FD22EA2404F8EB3400F922F0D7
:10077000850E82850F83A3A3A3A3A3A3221287C5FB
:10078000F583888222128789221287C9F58388829D
:10079000A3A322128789A3A3228A828B8374911236
:1007A00087A322F0A3743E128509A3A3221287B166
:1007B000228A828B837401F0A374FFF0EA24022260
:1007C0001287C5C8221287C922F0850E82850F8341
:1007D0001287D422E0F8A3E02274F41217AEEAFEE6
:1007E000EBFF8908900943E060277A067B0012043A
:1007F000B2EA4B605D8A828B837491F0A374051218
:10080000885FE412850512894CE508F09009438061
:100810003C90052CE0A2E450397A0B7B001204B224
:10082000EA4B602E1282DC7405128863740412880D
:1008300063A3E4128874EE128874A3EFF0888289AF
:1008400083128A2E2406128855F0900941E0F9128D
:1008500004BE028C1AF582E83400F583E508221202
:1008600087A72212886722128C4BFCA3E0F5838CA9
:1008700082A3A322128867A3A32274F01217AE8A60
:10088000088B09ECFEEDFF74101217A21289337465
:10089000121217A2E0F50CA3E0F50D900943E060F9
:1008A0004590052BE0A2E2400302892E7A0C7B00E2
:1008B0001204B2EA4B6077128799740312885FA31F
:1008C000E4F01289608A828B83A3A3A312894CA3CC
:1008D000A3A3E50AF0A3E50B12893BA3A3A3128906
:1008E000419009438043900533E0A2E550409005D4
:1008F0002BE0A2E250387A117B001204B2EA4B607E
:100900002D128C1F743EF0A3740AF0A37403F0A39D
:10091000E4F0128967A3EEF0A3EFF0A3E50AF0A3D9
:10092000E50BF0128943900941E0F91204BE7F08FB
:10093000021880E0F50AA3E0F50B221287A7A3A313
:1009400022A3A3A3E50CF0A3E50DF0221289502207
:10095000A3A3A3EEF0A3EF128509A3A3A3A3A3224D
:100960008A828B83A3A3A3A3E508F0A3E509F02261
:1009700074F41217AE8908EAFEEBFF8C0990052D7E
:10098000E0A2E34003028A257A0F7B001204B2EA58
:100990004B7003028A251287ADF50AEB3400F50B84
:1009A000128766850A82850B83E8F0A3E9128A3DE7
:1009B0007404128A3DA3740C128A457408128A4585
:1009C000A3E508128A53EE128A53A3EF128A592420
:1009D00006128A35E509F0740C1217A21287608599
:1009E0000A82850B83128A2E128A33EC128A5924CA
:1009F00008128A35EDF0740E1217A21287D4F98509
:100A00000A82850B83E0FCA3E0CC2409F582EC127A
:100A10008A38E8128A59240A128A35E9F090094185
:100A2000E0F91204BE028C1A850E82850F831287AC
:100A3000D4C8222407F582E83400F58322128A5EA6
:100A4000F583888222128A4922128A62F58388827B
:100A5000A3A322128A49A3A322128A5EC822128A61
:100A60006222F0850A82850B831287D42274EC12ED
:100A700017AE8A0C8B0D8C0E8D0F74141217A212E8
:100A80008933850A82F583A38582108583119009B5
:100A900045E0607A7A0F7B001204B28A088B09AEB7
:100AA00008AF09EE4F7003028BC28E828F8374925F
:100AB000F0A3743EF08E828F83A3A37405F08E8220
:100AC0008F8312894175080875090078081219C1C9
:100AD000AC0EAD0FEE2405FAEF3400FB12048E7459
:100AE0000212176D850A82850B83E0FA85108285D4
:100AF0001183E0F9EAF8EE240DF582EF128A38E866
:100B0000F0A3E9F0EEFAEFFB900945028BBD9005EA
:100B100033E0A2E5500890052BE0A2E44006120E57
:100B20009C028BC27A147B001204B28A088B09EAF9
:100B300045097003028BC21287ADF8EB3400F9EA65
:100B40002404FAEB3400FB88828983EAF0A3EB12D9
:100B500082F4FEA3E0FF8E828F837404F0A3743EC0
:100B6000F0A3740DF0A37405F0128943A3AE82AF15
:100B700083750C08750D00780C1219C1AC0EAD0F01
:100B8000EEFAEFFB12048E740212176DEE2408FECB
:100B9000EF3400FF850A82850B83E08E828F83F01D
:100BA00085100A85110BA30EAF83850A82850B83FE
:100BB000E08E828F83F0AA08AB09900941E0F91218
:100BC00004BE7F0C02188074F41217AEEAFEEBFF2D
:100BD00089088C09900945E060167A077B001204A9
:100BE000B2EA4B6035128CAFE509F09009458025DB
:100BF00090052CE0A2E750227A0B7B001204B2EAA7
:100C00004B6017128C1F7408F0A37404128CA4128A
:100C1000896A900941E0F91204BE7F04021880122B
:100C20008C2FF8A3E0F9888289837404F0A3221240
:100C300087B1F8EB3400F9EA2404FCEB3400FD88BA
:100C4000828983ECF0A3ED128C4B22F08882898399
:100C5000E02274F41217AEEAFEEBFF890890094512
:100C6000E060167A077B001204B2EA4B6033128C04
:100C7000AF7401F09009458023900531E0A2E75060
:100C8000207A0A7B001204B2EA4B6015128C1F74A2
:100C900030F0A37403128CA4F0900941E0F912041F
:100CA000BE028C1AF0A3E508F0A3EEF0A3EF228AAF
:100CB000828B8374921287A374081285091289505B
:100CC000E508128957A322F0851882851983AC8222
:100CD000AD8322C082C083900488E0A2E250067AED
:100CE0007B7B0C80047A007B001212AA7900D083EF
:100CF000D08202013574F21217AE74E01217578ACF
:100D0000088B09ECFEEDFF7C107D007900851882D0
:100D1000851983AA82AB831204A6742E1217A2E04F
:100D2000F50AA3E0F50B90093A1292287003028DA0
:100D3000FE12921465087004A3E065096003028D39
:100D4000FE90093B12920D6003028DFE129219F87B
:100D5000740668704B74101217A285820C85830D7F
:100D6000780C1219C190093AE0244BF50CA3E03439
:100D700000F50D780C1219C1128F0212126874045A
:100D800012176DE97078121328E9F50A750B0078CF
:100D90000A1219C174121217A2AC82AD83028E72AC
:100DA00090093AE0F9A3E0C9245BF582E91297E0E3
:100DB000604C1294A412979A7411686003028E9684
:100DC000E0650A7004A3E0650B702E750C08750DC4
:100DD00000780C1219C1128EE81204A074021217C6
:100DE0006DE964017013121328E9F50A750B007898
:100DF0000A1219C1128EF580797932121322AA08CB
:100E0000AB09120DF48A0C8B0DA80CA90DE84970E2
:100E100003028ED5E82421F50CE93400F50D850C8C
:100E2000821297E27003028ED51294A41291ED659E
:100E30000A7004A3E0650B6003028ED5750A08757D
:100E40000B00780A1219C1128EE81204A074021263
:100E5000176DE96401707E850C82850D83E0FCA32B
:100E6000E0FDEC241AF582ED1291EDF50A780A12F4
:100E700019C174021217A2AA82AB8312048E7402E3
:100E800012176DAA08AB09851882851983AC82AD4B
:100E900083120C9E8046E0650A7004A3E0650B6037
:100EA00003028DFE750C08750D00780C1219C11225
:100EB0008EE81204A0740212176DE9640160030247
:100EC0008DFE128EF5EC241AF582ED1291EDF50AE5
:100ED000750B008098AA08AB09120CA47901742044
:100EE00012176D7F06021880EA2412FCEB3400FD15
:100EF000EEFAEFFB2212933F245B1294BAFCA3E0BC
:100F0000FD2290093AE0242BFCA3E03400FD900977
:100F10003AE02407FAA3E03400FB2274F21217AE81
:100F2000890DECFEEDFF750C008A828B83A3858210
:100F30000A85830B8E828F83A3858208858309901F
:100F4000093A129228705F7401650D7054EE240204
:100F5000FAEF3400FB1212748E828F83A3A3A3A333
:100F6000A374021219DC8E828F83A3A3A3A3E0F5DE
:100F70000C780C1219C5E9F50C780C1219C5850806
:100F800082850983E0FD8E828F83E0FC850A82855D
:100F90000B83E0FAA3E0FB7900120A0A740412172B
:100FA0006D79000291E7129214F8A3E0F9850A82A4
:100FB000850B83E0687003A3E069600579080291FE
:100FC000E71292076401700579070291E7E50D14B5
:100FD000603124FE603714700302907114700302B4
:100FE00091DC14700302907A1470030290DB147089
:100FF000030290E814700302913214700302916F9F
:101000000290D5EEFAEFFB1213460290E27508004B
:10101000750A10750B00780A1219C190093AE0247C
:101020003B1293DF12048E740212176D90093AE09E
:1010300024011291F1E0640470047403802C90097F
:101040003AE0241BF50AA3E03400F50B780A1219E4
:10105000C1128F021212D4740212176D1212ECE92F
:1010600060037508081293E67405F085080C029178
:10107000E5EEFAEFFB12134C8068129219640C70C3
:101080005490093BE0C8245D129221700F7A1B7BBB
:101090000012051E1291FC245D12979F1297D860D2
:1010A0003475081075090078081219C1EEFCEFFDBF
:1010B00012048E740212176D121328129323245DEA
:1010C000129797129326241A129797E9F01293E633
:1010D000740D02916C750C070291E5EEFAEFFB12AC
:1010E0001352E9F50C0291E5129219640E70E69024
:1010F000093BE0C8245F129221700F7A167B001220
:10110000051E1291FC245F12979F129323245F12F5
:1011100097DD601775081075090078081219C1EE7F
:10112000FCEFFD12048E740212176D1293E6740F19
:10113000803A129219640F709C750A06750B00783C
:101140000A1219C1AC08AD09129323245F1291EA67
:1011500024101293DF12048E740212176D1294ABD6
:10116000542060741294C3606F1297C2F08076901E
:10117000093BE0C8246112922170237A147B00128B
:10118000051E90093AE024611291F1EAF0A3EBF018
:10119000888289831292287005750C088047129303
:1011A0002324611297DD60307508107509007808F6
:1011B0001219C1EEFCEFFD12048E740212176D12AB
:1011C00093232461129797129326241012979774F1
:1011D000FFF0A3F0A3F0A3F0790080068E828F8346
:1011E000E0F9121322A90C028EE3F582E81294BDF5
:1011F00022F8A3E03400F988828983228A089009C2
:101200003AE0FAA3E0CA2290093AE0F8A3E0F583B5
:101210008882E0221297D2E02290093B1293F4E0F8
:1012200022F582E83400F583E0F8A3E0F9E84922EA
:1012300074F61217AE7E001212F8E9F860030292FB
:10124000FD1212E690093AE0F8A31297C8C82412DA
:101250001291EAA2E0501D129323241812979712BC
:101260009310E054036401700B129323241712911E
:10127000EAD2E0F012932AF8740268601D740368E1
:101280006005740468701779011297F4120A10123D
:1012900093331293E67404F0806F790280EB74014B
:1012A00068600574056870611293E67402F0129329
:1012B0002A640170147C107D00790090093AE024C2
:1012C000071293DF1204A680247508108E0978088F
:1012D0001219C190093A129310A3A3A3E024021299
:1012E0008F0812048E740212176D129333791090C6
:1012F000093AE0242B1293DF12126E800C741868E6
:1013000070050E0E0E80027E08EEF97F0202188034
:101310001293142212931822E0F8A3E0F583888236
:10132000A3A32290093A1293422212933F241A1245
:1013300094BA2212933F24171294BAD2E2F0229068
:10134000093AE0F8A3E0C82274F61217AE74F0125E
:1013500017577E007508108E0978081219C1EAFC2B
:10136000EBFD90093AE0244B1293DF12048E7402D5
:1013700012176D85188285198385820885830978FF
:10138000081219C190093AE0244B128F081212D4A6
:10139000740212176D7508108E0978081219C19021
:1013A000093AE0243BFCA3E03400FD74021217A2CA
:1013B000AA82AB831204A0740212176DE964017053
:1013C000121212F2E960047E08800A1293E6740693
:1013D000F080027E04EEF9741012176D02930BFA7E
:1013E000A3E03400FB221293EA2290093AE0F8A32A
:1013F0001293F422E0F5838882A32274F61217AECA
:10140000EAFCEBFD1297D8700302949F1297B76421
:101410000D600302949F8C828D83E0F8A3E0F912A3
:1014200094A412979AE8F0A3E9F0750808750900EA
:1014300078081219C1EC2402FCED3400FDEA2412F4
:10144000FAEB3400FB12048E740212176D1294AB87
:10145000F890093AE024011293DFE85410602490D8
:10146000093AE0FCA3E0CC2418F582EC12979A121A
:1014700097ADA3A3A3A3E0541060088A828B837462
:101480000E8010E85420600E1294C360098A828B8B
:10149000837410F08005790012132279008002799C
:1014A0000702930BEA2410F582EB2290093A12947A
:1014B000D612934224131294BA22F582E83400F52E
:1014C00083E02212933F2418F582E83400F583125A
:1014D00094D6E0542022129318A3A3A32274F012EE
:1014E00017AE129207600302979290093B1297C8B9
:1014F000F91291FE2418F582EA1291EDFAA3E0FBAD
:1015000090093A1297ADE0F50AEA2405FEEB3400A3
:10151000FFE82413F50CE93400F50D7406650A7034
:1015200067850C82850D83E0F8A2E0500E8E828FD5
:1015300083E0A2E05005750A078067E8540260174F
:101540008E828F83E05402600E750A0912098012A0
:1015500097EC12130A8020E8540470030296C88E98
:10156000828F83E0540470030296C8750A0B120937
:101570005C1297EC1213167407650A6003029679E1
:101580001293E67408029711E50A24F960141470A6
:101590000302961D1460B514700302964B1460CEBE
:1015A00080D51297BC129221700F7A1B7B00120516
:1015B0001E1291FC245B12979F1297BC1291EAF5C0
:1015C00008A3E0F509E508450960AC7C107D0079C9
:1015D00000AA08AB091204A6121328AA08AB091224
:1015E000126E1204ACE5082410F582E50912979AF0
:1015F000EAF0A3EBF07908E5082412FAE5093400D3
:10160000FB12126E121328E508241AF582E509125E
:10161000979AE9F01297F01212FE0295771297BC92
:101620001297DD605AEA2412F508EB3400F50978C8
:10163000081219C11294A41291EDFCA3E0FD1297B7
:10164000F4121304740212176D8034750901120923
:1016500074E9F50874016508700575090080037563
:101660000800A90912097A8A0A8B0BAC0AAD0BA9EA
:10167000081297F412131080347408650A701B85E1
:101680000C82850D83E0540260238E828F83E054A8
:1016900002601A1293E6740980777409650A70076C
:1016A0001293E6740A806A740A650A701B850C82BC
:1016B000850D83E0540460108E828F83E0540460B3
:1016C000071293E6740B8049850C82850D83E0F840
:1016D000540860108E828F83E0540860071293E6EE
:1016E000740C802DE8541060108E828F83E05410AB
:1016F00060071293E6740E8018E85420600E8E8204
:101700008F83E0542060051297C280051293E6741F
:1017100012F01297B7F87407686014740868600FC5
:10172000740968600A740A686005740B6870631253
:1017300097F4120DF48A088B09A808A909E84960F2
:101740002FE8240BF582E91291EDF8A3E0F9880C5B
:10175000890DE4F50EF50FE9C313F9E813F88808CD
:101760008909E4F50AF50B780C79081215A0800CAC
:10177000750CF4750D01750E00750F00780C1219BB
:10178000BD7A027B00900940E0F9120560740412F2
:10179000176D7F08021880F582E83400F58322F582
:1017A00082EA3400F583E508F0A3EBF022E0FCA325
:1017B000E0F5838C82A3221293EAE02212933F2465
:1017C0005B221293EA7410221297D2A3A3E0F8A32B
:1017D000E0221293F4A3A32212933F245DF582E842
:1017E0003400F583E0FAA3E0FBEA4B228A088B0978
:1017F000AC08AD0990093A129314A3E0FAA3E0FBF8
:101800002274F21217AEECFEEDFF8A828B83A3A343
:10181000A3A3A3A3A3A3E0F50A70030298FEEA24FE
:1018200006F8EB3400F9880889098882F583E0FC22
:10183000A3E0FD8C828D83E0F50BA2E7504CE50A16
:10184000C3940D50030298FE74F4250AF50AF50CB2
:10185000EC250CF50CED3400F50D780C1219C1E5F2
:101860000AF50C780C1219C579018A828B83A3A31F
:10187000129CDB12123E740312176DE98E828F8365
:10188000700474018009740280058E828F83E4F0F5
:10189000E50BA2E65004D2F08002C2F0A2F0E433DD
:1018A000A3F0743F550B8E828F83A3A3F0EE240325
:1018B000F8EF3400F9E50A24FFFAE434FFFB8882EC
:1018C0008983EAF0A3EBF0EE2405FAEF3400FB88FD
:1018D000828983129F33496019850882850983E0D4
:1018E0002401F8A3E03400F98A828B83E8F0A3E9AD
:1018F00080078A828B83E4F0A3F07900800279016B
:101900007F0602188074F71217AE8C828D83129BAB
:10191000D28C828D83A3A882A983129BDB8C828DBB
:1019200083A3A312992D7A047B00029989A3129EA6
:101930004722C082C083129E2E7A02802574F7123D
:1019400017AE74091217A2129CDB740B1217A212A5
:101950009CD47001EB7005129CE18002790480290F
:1019600080D07B00D083D08202013574F71217AE8D
:1019700074091217A2129E6F7001E9700A740B129B
:1019800017A2129E76800279047F0102188074EEFD
:101990001217AEEAFEEBFF8C0C8D0D750801750970
:1019A000008C828D83A385820E85830F129A947595
:1019B0000A00803BE51075F012A4F510E5F0F51172
:1019C000129A5B75101075110078101219C1129AD5
:1019D0004F12048E740212176DEE2410FEEF3400C5
:1019E000FFE5082412F508E5093400F509050A8524
:1019F0000C82850D83E0F8E50AC398504B8E828FE8
:101A000083A3AA82AB83850A828582107511008523
:101A10000E82850F83E06401709A740278101217A9
:101A200044129A5B75100275110078101219C112D8
:101A30009A4F12048E740212176DEE2402FEEF34D8
:101A400000FFE5082404809DAA08AB0902A113EC5D
:101A50002404FCED3400FD0AEFFB22E50C2510FC0C
:101A6000E50D3511FD129A77129A8DEAFEEBFF888B
:101A7000828983129A8422EC2402F8ED3400F988DA
:101A800082898322A3129A8DA30EAF8322E08E82D5
:101A90008F83F022129A8DA3AE82AF832274F2124A
:101AA00017AEECFEEDFF740E1217A2E0F50AA3E0EC
:101AB000F50BC3E50A9406E50B94005003029B67FF
:101AC00074101217A2129B6C8E828F83E0FAA3E02F
:101AD000F9EA850882850983F0A3E9F08E828F8375
:101AE000A3A3E0FA8E828F83A3A3A3E0F8E4C8F94E
:101AF000EA850882850983A3A3F0A3E912A22AA399
:101B0000A3A37402F0F50C880D780C1219C1EE2411
:101B100004FCEF3400FDE5082405FAE5093400FB78
:101B200012048E740212176DE50A24FAF50A85086C
:101B300082850983A3A3A3A3A3A3A3F0C3941150F5
:101B400026750B00780A1219C1EE2406FCEF34004A
:101B5000FDE5082408FAE5093400FB12048E74023E
:101B600012176D79008002790402990012A01AF50B
:101B7000092274F51217AE750A008035850A0875BA
:101B8000090074027808121744EC2508F8ED3509AD
:101B9000F988828983A3AE82AF83129BD28E828F13
:101BA00083129EB1E82403F8E9129A7C129BDB05AC
:101BB0000A8C828D83E0F508E50AC3950840BD755F
:101BC000090074027808121744AA08AB097F0302BF
:101BD000188012992EA3AA82AB8322129D66A30AB3
:101BE000AB8322741012176D7F0402188074F612F2
:101BF00017AE740C1217A2129CDBEA2404F8EB3423
:101C000000F9740A1217A2E0FEA3E0FF74066E70DA
:101C100001EF7046888289837402F08C828D831272
:101C20009C6E8A828B83F0A3EF129FBAFEE4CEFFF4
:101C3000E5088A828B83A3A3F0A3EFF088828983CF
:101C4000E0F5088E0978081219C1129FA912048EB6
:101C5000740212176D7900029D4174146E7001EFC9
:101C6000700888828983741080B0790480E912A09A
